:04000000D1EF02F04A
:06000800498219EFD1F05E
:100018004980D8CF12F0E8CF13F0E0CF14F0D9CF51
:1000280015F0DACF16F00E0133AB1DEF00F01FEF1D
:1000380000F07CEF02F08F96339BE30ED46EB00E87
:10004800D36E0001C12B37503810D8B42EEF00F012
:1000580030EF00F04BEF00F08EAE35EF00F037EFE9
:1000680000F04BEF00F03706D8A03806B851D8B4E6
:1000780040EF00F042EF00F04AEF00F0030EB861E5
:1000880048EF00F04AEF00F04BEF00F0B82B26EEF7
:10009800F6F0DF50D8A453EF00F055EF00F0BCEFB6
:1000A80001F027EE23F0DF50D8A45DEF00F05FEFFA
:1000B80000F0BCEF01F027EE50F0DF50D8A467EF56
:1000C80000F069EF00F0BCEF01F027EE7DF0DF50A3
:1000D800D8A471EF00F073EF00F0BCEF01F08EAC24
:1000E80078EF00F07AEF00F0BCEF01F08EA47FEF1C
:1000F80000F081EF00F09BEF00F09851901907E1B4
:1001080099519119D8A48BEF00F08DEF00F097EF7B
:1001180000F08E94000E916F000E906F804B812B33
:10012800C92BCAEF00F0904B912BCAEF00F08EB4A8
:10013800A0EF00F0A2EF00F0CAEF00F0885180199C
:1001480007E189518119D8A4ACEF00F0AEEF00F0B7
:10015800C8EF00F0CD51C95DD8B0B5EF00F0B7EFEA
:1001680000F0C0EF00F08E84904B912B000E816F51
:10017800000E806FCAEF00F0010E8825806F000E18
:100188008921816FCAEF00F0804B812B8EA6CFEFBB
:1001980000F0D1EF00F0EBEF00F096518E1907E177
:1001A80097518F19D8A4DBEF00F0DDEF00F0E7EFEF
:1001B80000F08E96000E8F6F000E8E6F7E4B7F2B99
:1001C800C82B1AEF01F08E4B8F2B1AEF01F08EB669
:1001D800F0EF00F0F2EF00F01AEF01F086517E190F
:1001E80007E187517F19D8A4FCEF00F0FEEF00F07B
:1001F80018EF01F0CC51C85DD8B005EF01F007EF5A
:1002080001F010EF01F08E868E4B8F2B000E7F6F62
:10021800000E7E6F1AEF01F0010E86257E6F000E2C
:1002280087217F6F1AEF01F07E4B7F2B8EA81FEF7F
:1002380001F021EF01F03BEF01F094518C1907E137
:1002480095518D19D8A42BEF01F02DEF01F037EF60
:1002580001F08E98000E8D6F000E8C6F7C4B7D2BFD
:10026800C72B6AEF01F08C4B8D2B6AEF01F08EB82B
:1002780040EF01F042EF01F06AEF01F084517C1980
:1002880007E185517D19D8A44CEF01F04EEF01F03C
:1002980068EF01F0CB51C75DD8B055EF01F057EFCB
:1002A80001F060EF01F08E888C4B8D2B000E7D6F76
:1002B800000E7C6F6AEF01F0010E84257C6F000E42
:1002C80085217D6F6AEF01F07C4B7D2B8EAA6FEF45
:1002D80001F071EF01F08BEF01F092518A1907E1FB
:1002E80093518B19D8A47BEF01F07DEF01F087EFD4
:1002F80001F08E9A000E8B6F000E8A6F7A4B7B2B63
:10030800C62BBCEF01F08A4B8B2BBCEF01F08EBAE9
:1003180090EF01F092EF01F0BCEF01F082517A19F1
:1003280007E183517B19D8A49CEF01F09EEF01F0FF
:10033800B8EF01F0CA51C65DD8B0A5EF01F0A7EF3C
:1003480001F0B0EF01F08E8A8A4B8B2B000E7B6F89
:10035800000E7A6FBCEF01F0010E82257A6F000E55
:1003680083217B6FBCEF01F07A4B7B2BBCEF01F054
:10037800630EBE19D8A4C3EF01F0C5EF01F0C9EFB1
:1003880001F0000EC16F7CEF02F0BE05D8A4CFEFDC
:1003980001F0D1EF01F0E1EF01F0BC51C119D8A48F
:1003A800D8EF01F0DAEF01F0E1EF01F0000EC16FD4
:1003B8008F8E020EBE6F7CEF02F0020EBE19D8A41B
:1003C800E8EF01F0EAEF01F0FAEF01F0B951C119D5
:1003D800D8A4F1EF01F0F3EF01F0FAEF01F0000E0D
:1003E800C16F8F9E030EBE6F7CEF02F0030EBE1925
:1003F800D8A401EF02F003EF02F013EF02F0BB51B3
:10040800C119D8A40AEF02F00CEF02F013EF02F0C2
:10041800000EC16F8D84040EBE6F7CEF02F0040ED7
:10042800BE19D8A41AEF02F01CEF02F02CEF02F06C
:10043800B951C119D8A423EF02F025EF02F02CEF2F
:1004480002F0000EC16F8D94050EBE6F7CEF02F0B6
:10045800050EBE19D8A433EF02F035EF02F045EFD0
:1004680002F0BB51C119D8A43CEF02F03EEF02F0F4
:1004780045EF02F0000EC16F8D86060EBE6F7CEF51
:1004880002F0060EBE19D8A44CEF02F04EEF02F0AF
:100498005EEF02F0B951C119D8A455EF02F057EF39
:1004A80002F05EEF02F0000EC16F8D96070EBE6F70
:1004B8007CEF02F0070EBE19D8A465EF02F067EFD3
:1004C80002F07CEF02F0C151106E116A9E511018B3
:1004D80007E19F511118D8A474EF02F076EF02F0EB
:1004E8007CEF02F0000EC16F010EBE6F7CEF02F0D0
:1004F8000E0138A182EF02F084EF02F089EF02F0DA
:100508008F960001C02B0E01389138A58EEF02F0AE
:1005180090EF02F0C5EF02F08F963895F00EC86E96
:10052800DC0EC76E0001BF2BBF51C55DD8B09FEF71
:1005380002F0A1EF02F0BAEF02F03C50D8A4A7EF06
:1005480002F0A9EF02F0BAEF02F0010E3C6E000EC5
:10055800BF6FC990B551D8B4B4EF02F0B6EF02F04E
:10056800C5EF02F0010EB46FC5EF02F03C50D8B4ED
:10057800C0EF02F0C2EF02F0C5EF02F0000EBF6F4D
:10058800C99016C0DAFF15C0D9FF14C0E0FF13C028
:0E059800E8FF12C0D8FF4990100065EFE1F0B7
:10F28800004665727469676174696F6E2073746F84
:10F298007070656420776974682066657274696C3B
:10F2A800697A6572206C6576656C2073656E736F1C
:10F2B80072206661696C75726520666F7220666976
:10F2C800656C6420004665727469676174696F6E65
:10F2D8002073746F707065642077697468206C6F30
:10F2E800772066657274696C697A6572206C6576D8
:10F2F800656C20666F72206669656C6420005379BE
:10F308007374656D207265736574206F63637572BD
:10F318007265642C2049727269676174696F6E2026
:10F3280073657474696E672064656C6574656400E0
:10F338000000300060009000C000F0002001500183
:10F348008001B001E001100240027002A002D00268
:10F358004C6F67696E20636F6465206E6F742063FD
:10F3680068616E676564002B434D54493A20225307
:10F378004D222C78006F6B002D0044727920527555
:10F388006E2064657465637465642C204D6F746FBA
:10F39800722C2049727269676174696F6E20616EA0
:10F3A80064204665727469676174696F6E2073774B
:10F3B800697463686564206F66662E0D0A49727207
:10F3C80069676174696F6E207363686564756C65DD
:10F3D8006420746F206E6578742064617920776981
:10F3E8007468206665727469676174696F6E2066F7
:10F3F8006F72206669656C64200000004472792091
:10F4080052756E2064657465637465642C204D6F55
:10F41800746F7220616E64204972726967617469E1
:10F428006F6E207377697463686564206F66662EF3
:10F438000D0A49727269676174696F6E2073636837
:10F448006564756C656420746F206E6578742064DB
:10F458006179207769746820666572746967617478
:10F46800696F6E20666F72206669656C64200000A3
:10F47800004472792052756E206465746563746502
:10F48800642C204D6F746F7220616E642049727213
:10F4980069676174696F6E207377697463686564FE
:10F4A800206F66662E0D0A49727269676174696F0A
:10F4B8006E207363686564756C656420746F206E74
:10F4C80065787420647565206461746520666F7260
:10F4D800206669656C6420000000447279205275CA
:10F4E8006E2064657465637465642C204D6F746F59
:10F4F8007220616E642049727269676174696F6E07
:10F50800207377697463686564206F66662E0D0AD8
:10F5180049727269676174696F6E207363686564A4
:10F52800756C656420746F206E65787420646179E9
:10F5380020666F72206669656C642000000053794C
:10F548007374656D20726573746172746564206686
:10F558006F7220416C6C205068617365204465743B
:10F56800656374696F6E207769746820696E636F6C
:10F578006D706C6574652049727269676174696F32
:10F588006E20666F72206669656C6420005379731B
:10F5980074656D2072657374617274656420666F3A
:10F5A8007220506F77657220496E7465727275703B
:10F5B80074207769746820696E636F6D706C657408
:10F5C800652049727269676174696F6E20666F722F
:10F5D800206669656C64200053797374656D2072C8
:10F5E800657374617274656420696E20446961672B
:10F5F8006E6F73746963204D6F64652077697468F2
:10F6080020696E636F6D706C6574652049727269EC
:10F61800676174696F6E20666F72206669656C64D5
:10F62800200053797374656D207265737461727408
:10F63800656420666F72204C6F7720506F77657213
:10F6480020496E207769746820696E636F6D706CED
:10F658006574652049727269676174696F6E2066A6
:10F668006F72206669656C64200053797374656DE8
:10F678002072657374617274656420666F722053BA
:10F688007461636B204572726F72207769746820A9
:10F69800696E636F6D706C65746520497272696715
:10F6A8006174696F6E20666F72206669656C64208C
:10F6B8000053797374656D20726573746172746533
:10F6C8006420666F72205744542054696D656F75C5
:10F6D80074207769746820696E636F6D706C6574E7
:10F6E800652049727269676174696F6E20666F720E
:10F6F800206669656C6420004C6F772050686173E0
:10F70800652063757272656E7420646574656374D0
:10F7180065642C20616374696F6E732073757370F0
:10F72800656E6465642C20706C6561736520726514
:10F7380073746172742073797374656D00497272A1
:10F7480069676174696F6E206973206E6F742041F8
:10F7580063746976652E2046657274696761746999
:10F768006F6E206E6F7420656E61626C65642066D2
:10F778006F72207072696F7269747920005379739F
:10F7880074656D2041757468656E7469636174652C
:10F7980064207769746820506861736520666169C0
:10F7A8006C7572652C2073757370656E64696E670D
:10F7B80020616C6C20616374696F6E730053797398
:10F7C80074656D20726573746172746564207769FD
:10F7D8007468207068617365206661696C7572650C
:10F7E8002C2073757370656E64696E6720616C6C2C
:10F7F80020616374696F6E730053797374656D204B
:10F808007265736574206F636375727265642C200A
:10F818006C6F67696E20636F6465207265736574C9
:10F8280020746F20466163746F72792073657474F5
:10F83800696E670049727269676174696F6E2063E7
:10F848006F6D706C6574656420666F722064756591
:10F85800206669656C64730D0A4D6F746F7220734E
:10F8680077697463686564206F66660000004D6F91
:10F878006973747572652073656E736F722069732E
:10F88800206661696C65642C2049727269676174CD
:10F89800696F6E207374617274656420666F72207C
:10F8A8006669656C642000576574206669656C64D8
:10F8B8002064657465637465642E0D0A4972726903
:10F8C800676174696F6E206E6F74207374617274EF
:10F8D800656420666F72206669656C6420000000AC
:10F8E8004E657720525443206261747465727920A2
:10F8F800666F756E642C20706C6561736520737912
:10F908006E632073797374656D2074696D65206DFD
:10F91800616E75616C6C79004E6577205254432096
:10F928006261747465727920666F756E642C2073D9
:10F93800797374656D2074696D65206973207365CA
:10F948007420746F206C6F63616C2074696D65003E
:10F95800496E636F72726563742076616C75657346
:10F968002E204665727469676174696F6E206E6FC8
:10F978007420656E61626C656420666F72207072B7
:10F98800696F726974792000596F752061726520FA
:10F998006E6F206D6F72652041646D696E206E6FA9
:10F9A800772E204E65772041646D696E206973203B
:10F9B80073657420746F0D0A00000052544320428E
:10F9C80061747465727920666F756E64206C6F77E8
:10F9D8002C20706C65617365207265706C6163655D
:10F9E80020525443206261747465727900497272BE
:10F9F80069676174696F6E206973206163746976E1
:10FA0800652C204D6F746F72206C6F616420637574
:10FA1800742D6F6666206E6F74207365740049726A
:10FA28007269676174696F6E20636F6E6669677566
:10FA3800726174696F6E2064697361626C656420B9
:10FA4800666F72207072696F7269747920005068ED
:10FA5800617365206661696C75726520646574659B
:10FA6800637465642C2073757370656E64696E6762
:10FA780020616C6C20616374696F6E73004E6F4C0B
:10FA88006F616420616E642046756C6C4C6F6164B4
:10FA9800204D6F746F72207468726573686F6C6440
:10FAA800732073657420746F203A20004D6F69735A
:10FAB800747572652073656E736F722066726571F6
:10FAC80075656E63792076616C756520666F722046
:10FAD8006669656C64200053797374656D20746978
:10FAE8006D652073796E63656420746F2063757229
:10FAF80072656E74206C6F63616C2074696D65004B
:10FB080049727269676174696F6E206E6F742063E1
:10FB18006F6E6669677572656420666F72207072B1
:10FB2800696F7269747920004D6F697374757265B5
:10FB38002073656E736F72206973206661696C65E6
:10FB48006420666F72206669656C64200049727271
:10FB580069676174696F6E20636F6E666967757235
:10FB6800656420666F72207072696F72697479209B
:10FB7800004D6F746F726C6F6164206375742D6FC4
:10FB88006666207365742073756363657373667541
:10FB98006C6C79004665727469676174696F6E2070
:10FBA80064697361626C656420666F722070726943
:10FBB8006F72697479200046657274696761746947
:10FBC8006F6E20656E61626C656420666F7220706E
:10FBD80072696F7269747920005761746572204682
:10FBE800696C74726174696F6E206973206E6F74CA
:10FBF80020656E61626C6564004C6F67696E206396
:10FC08006F6465206368616E6765642073756363FC
:10FC180065737366756C6C790046657274696761A3
:10FC280074696F6E2073746F7070656420666F728C
:10FC3800206669656C642000466572746967617442
:10FC4800696F6E207374617274656420666F7220C8
:10FC58006669656C64200049727269676174696FCE
:10FC68006E2073746F7070656420666F72206669A9
:10FC7800656C64200049727269676174696F6E20EF
:10FC88007374617274656420666F72206669656C4E
:10FC980064200057617465722066696C74726174BF
:10FCA800696F6E2064656163746976617465640068
:10FCB800496E636F7272656374206C6F63616C2048
:10FCC80074696D6520666F756E640057617465723E
:10FCD8002046696C74726174696F6E205365717522
:10FCE800656E63653A0057617465722066696C7465
:10FCF800726174696F6E206163746976617465649A
:10FD08000050686173652042206661696C75726590
:10FD18002064657465637465640050686173652068
:10FD280059206661696C75726520646574656374D1
:10FD380065640050686173652052206661696C755E
:10FD480072652064657465637465640057726F6ECC
:10FD580067206C6F67696E20636F646520666F75D6
:10FD68006E640041646D696E2073657420737563F9
:10FD78006365737366756C6C790041757468656E3C
:10FD88007469636174696F6E206661696C6564008B
:10FD9800416C6C2050686173652064657465637498
:10FDA80065640054657374204461746120496E6A07
:10FDB80065637465640053797374656D20436F6E71
:10FDC8006E65637465640043757272656E74204B6A
:10FDD8006579203A2000466163746F7279204B651B
:10FDE80079203A200043757272656E742054696DEB
:10FDF800653A200049727269676174696F6E204EB6
:10FE08006F3A0031323334353637383931330031CF
:10FE18003233343536373839313200474554465253
:10FE280045510045585452414354004441435449B4
:10FE380056450044495341424C4500494E4A4543C2
:10FE4800540041435449564500454E41424C4500F3
:10FE580047455443540046444154410046454544AF
:10FE68000054494D4500484F4C4400484F4F4B0003
:10FE78002B39310053435400534554004354004137
:10FE880055004665727469676174696F6E20656EA6
:10FE980061626C656420776974682064656C617957
:10FEA8003A004665727469676174696F6E206E6F97
:10FEB8007420636F6E666967757265640D0A004128
:10FEC800542B434E4D493D312C312C302C302C30A5
:10FED8000D0A0053657061726174696F6E20546910
:10FEE8006D653A200041542B435343533D224753F9
:10FEF8004D220D0A0041542B53434C415353303D7E
:10FF0800310D0A0041542B434D47443D312C340DEB
:10FF18000A0041542B4346554E3D300D0A004154CA
:10FF28002B434D47463D310D0A0041542B4346555E
:10FF38004E3D310D0A0041542B434C54533D310D75
:10FF48000A0020497465726174696F6E3A00415401
:10FF58002B434C54533F0D0A000D0A44656C6179DC
:10FF6800313A20000D0A4F4E54696D653A20002041
:10FF7800447565446174653A200041542B43434CF1
:10FF88004B3F0D0A0041542B434D47533D2200413E
:10FF9800542B4353510D0A0044656C6179323A2061
:10FFA8000044656C6179333A2000204F46467072F0
:10FFB800643A0041542B434D47523D00204F4E7048
:10FFC80072643A00415445300D0A00415426570DD9
:10FFD8000A00284D696E29200020616E64200028DF
:10FFE8004D696E2900205765743A00204472793AA9
:07FFF80000206973200000E6
:020000040001F9
:10000000000E01019B6F000E9C6F000E9E6F000E94
:10001000A06F000E9F6F1E0E0001C56F300ECE65E3
:1000200014EF80F016EF80F0CBEF96F03A0ECE6131
:100030001CEF80F01EEF80F0CBEF96F0000E3C6ED0
:10004000000E476EC980010E176E030E48ECECF0EF
:1000500052EF80F0BB0E1F6EFF0E206E45ECE9F0F4
:10006000CE0E1F6E000E206E010E216E3AECEAF0ED
:10007000FA0E1F6EFE0E206E45ECE9F0010E186EB2
:10008000F40E176E44ECE5F03C50D8A44AEF80F033
:100090004CEF80F052EF80F0130E186E880E176E42
:1000A00044ECE5F03C50D8B458EF80F05AEF80F0C3
:1000B0002AEF80F0000E176E0F0E48ECECF00E01E8
:1000C0003885150E176E030E186E780E196EFE0E1B
:1000D0001A6E000E1C6E030E1B6E8BECDFF01750B9
:1000E0001810D8A476EF80F078EF80F0C2EF96F089
:1000F000CE0E176E000E186E180E196E030E1A6EC5
:10010000000E1C6E0A0E1B6ECCECE5F052ECEBF010
:10011000000E176E040E186E3F0E196E030E1A6E47
:1001200069ECE4F01FECEBF0000E176E040E186E95
:10013000F9ECE8F00009D8B4A0EF80F0A2EF80F06D
:10014000A8EF80F06AECEBF09AECCAF0B5EF80F023
:10015000000E176E050E48ECECF0070E186ED00E70
:10016000176E44ECE5F0D4EF96F0E20E176E000E39
:10017000186ECE0E196E000E1A6E000E1C6E0A0E50
:100180001B6E8BECDFF017501810D8A4CAEF80F06C
:10019000CCEF80F07DEF95F0CE0E176E000E186E4E
:1001A000640E196E010E1A6E000E1C6E0A0E1B6E86
:1001B000CCECE5F0000E176E020E186E730E196E81
:1001C000FE0E1A6E000E1C6E040E1B6E8BECDFF022
:1001D00017501810D8A4EFEF80F0F1EF80F002EF85
:1001E00081F0000E476EBE0E0001F36FFD0EF46F3E
:1001F000E20EF56F000EF66F000EF76FD5EC96F07D
:10020000D4EF96F0000E176E020E186E870E196E60
:10021000FE0E1A6E000E1C6E020E1B6E8BECDFF0D3
:1002200017501810D8A417EF81F019EF81F062EF82
:1002300081F0030E176E020E186E760E196E010E07
:100240001A6E000E1C6E060E1B6E8BECDFF0175044
:100250001810D8A42EEF81F030EF81F051EF81F02B
:10026000760E176E010E186E0A0E196E020E1A6EB9
:10027000000E1C6E060E1B6ECCECE5F0FFECE6F0FB
:10028000000E476E010E0001F36FFC0EF46FE20EDC
:10029000F56F000EF66F000EF76FD5EC96F0D4EF09
:1002A00096F0000E476E540E0001F36FFD0EF46FD2
:1002B000E20EF56F000EF66F000EF76FD5EC96F0BC
:1002C000D4EF96F0000E176E020E186E800E196EA7
:1002D000FE0E1A6E000E1C6E030E1B6E8BECDFF012
:1002E00017501810D8A477EF81F079EF81F007EF5D
:1002F00086F0000E0101A06F000E9F6F030EAAECA6
:10030000CCF00101956F95299E6F000E456EF2EFBE
:1003100081F045502D0D890EF324D96E050EF42081
:10032000DA6E01019E51DE18D8A499EF81F09BEF9F
:1003300081F0F1EF81F045502D0D8E0EF324D96E32
:10034000050EF420DA6E000EDF6E45502D0D890E7D
:10035000F324D96E050EF420DA6E000EDF6E4550E0
:10036000020D380EF324F66EF30EF420F76EF86AE1
:10037000000EF8220900F5CF1FF00A00F5CF20F09B
:1003800045502D0D640EF324216E050EF420226ECF
:1003900058ECEAF0000E186E640E176E44ECE5F0AF
:1003A0004550020D380EF324F66EF30EF420F76E6E
:1003B000F86A000EF8220900F5CF1FF00A00F5CF09
:1003C00020F045502D0D640EF324216E050EF4200F
:1003D000226E75ECEAF0000E186E640E176E44EC97
:1003E000E5F0452A0B0E4564F8EF81F0FAEF81F055
:1003F00089EF81F0000E456E130E456402EF82F026
:1004000004EF82F006EF82F011EF82F0CE0E452469
:10041000D96EDA6A000EDA22FF0EDF6E452AFCEF93
:1004200081F0000E01019D6F050E476E000E4724FE
:10043000D96EDA6A020EDA22200EDE18D8A423EF73
:1004400082F025EF82F053EF82F09D2B070E9D196D
:10045000D8A42DEF82F02FEF82F053EF82F0000E40
:10046000456E44EF82F04728AAECCCF00101956F6D
:10047000CE0E4524D96EDA6A000EDA2295C1DFFF6E
:100480004750020F476E452A010E4724D96EDA6A9B
:10049000020EDA22200EDE18D8A451EF82F053EFBC
:1004A00082F033EF82F0472A060E9D655AEF82F004
:1004B0005CEF82F016EF82F0000E456EBDEF85F026
:1004C000010E01019D6F060E476E000E4724D96E86
:1004D000DA6A020EDA22DF509AECEBF00009D8B4A7
:1004E00074EF82F076EF82F04EEF84F0070E010198
:1004F0009D19D8B47EEF82F080EF82F081EF84F016
:10050000010E4724D96EDA6A020EDA22200EDE18B6
:10051000D8A48DEF82F08FEF82F0A1EF82F0000E71
:100520004724D96EDA6A020EDA22DF50D00F466E07
:10053000465001019F259F6F000EA021A06F81EF03
:1005400084F0000E4724D96EDA6A020EDA22DF50F8
:10055000D00F466E46500A0DF3CF46F09FC117F0FC
:10056000A0C118F0000E1A6E0A0E196EC4ECEBF062
:1005700017C09FF118C0A0F198EF82F0CE0E45246D
:10058000D96EDA6A000EDA22DF50956F95512D0D83
:10059000680EF324D96E050EF420DA6E9FC1DEFFDB
:1005A000A0C1DDFF000EA06F000E9F6F80EF84F0F2
:1005B000CE0E4524D96EDA6A000EDA22DF50956F2E
:1005C00095512D0D820EF324D96E050EF420DA6EAE
:1005D0009FC1DFFFD2EF82F0CE0E4524D96EDA6ADA
:1005E000000EDA22DF50956F95512D0D830EF32406
:1005F000D96E050EF420DA6E9FC1DFFFD2EF82F0D4
:10060000CE0E4524D96EDA6A000EDA22DF50956FDD
:1006100095512D0D840EF324D96E050EF420DA6E5B
:100620009FC1DFFFD2EF82F0CE0E4524D96EDA6A89
:10063000000EDA22DF50956F95512D0D640EF324D4
:10064000D96E050EF420DA6E9FC1DEFFA0C1DDFF7A
:10065000D2EF82F0CE0E4524D96EDA6A000EDA228D
:10066000DF50956F95512D0D660EF324D96E050E52
:10067000F420DA6E9FC1DEFFA0C1DDFFD2EF82F071
:10068000CE0E4524D96EDA6A000EDA22DF50956F5D
:1006900095512D0D890EF324D96E050EF420DA6ED6
:1006A0009EC1DFFFD2EF82F0CE0E4524D96EDA6A0A
:1006B000000EDA22DF50956F95512D0D8B0EF3242D
:1006C000D96E050EF420DA6E9FC1DFFFCE0E4524F1
:1006D000D96EDA6A000EDA22DF50956F95512D0D32
:1006E0008C0EF324D96E050EF420DA6E9FC1DFFF65
:1006F000D2EF82F09F51E1ECC3F0000E0101A06F38
:10070000000E9F6FCE0E4524D96EDA6A000EDA22F3
:10071000DF50956F95512D0D850EF324D96E050E82
:10072000F420DA6E39C0DFFFCE0E4524D96EDA6AC6
:10073000000EDA22DF50956F95512D0D860EF324B1
:10074000D96E050EF420DA6E3DC0DFFFCE0E4524D3
:10075000D96EDA6A000EDA22DF50956F95512D0DB1
:10076000870EF324D96E050EF420DA6E3EC0DFFF4B
:10077000CE0E4524D96EDA6A000EDA22DF50956F6C
:1007800095512D0D8D0EF324D96E050EF420DA6EE1
:10079000000EDF6ECE0E4524D96EDA6A000EDA2224
:1007A000DF50956F95512D0D8E0EF324D96E050EE9
:1007B000F420DA6E010EDF6ECE0E4524D96EDA6AB1
:1007C000000EDA22DF50956F95512D0D6A0EF3243D
:1007D000D96E050EF420DA6E000EDE6E000EDD6EB0
:1007E000CE0E4524D96EDA6A000EDA22DF50956FFC
:1007F00095512D0D6C0EF324D96E050EF420DA6E92
:10080000000EDE6E000EDD6ECE0E4524D96EDA6A65
:10081000000EDA22DF50956F95512D0D880EF324CE
:10082000D96E050EF420DA6E000EDF6ECE0E452472
:10083000D96EDA6A000EDA22DF50956F95512D0DD0
:100840008F0EF324D96E050EF420DA6E000EDF6EE3
:10085000CE0E4524D96EDA6A000EDA22DF50956F8B
:1008600095512D0D8A0EF324D96E050EF420DA6E03
:10087000000EDF6ECE0E4524D96EDA6A000EDA2243
:10088000DF50956F95512D0D900EF324D96E050E06
:10089000F420DA6E000EDF6E80EF84F001019D51CE
:1008A000956F966B9651000AD8B459EF84F080EF9B
:1008B00084F09551010AD8B4BEEF82F0030AD8B48F
:1008C000D8EF82F0010AD8B4ECEF82F0070AD8B46E
:1008D00000EF83F0010AD8B414EF83F0030AD8B410
:1008E0002AEF83F0010AD8B440EF83F00F0AD8B49E
:1008F00054EF83F0010AD8B47AEF83F080EF84F0EC
:100900009D2B472A090E9D6588EF84F08AEF84F0BD
:1009100065EF82F0000E186E640E176E44ECE5F081
:10092000CE0E4524D96EDA6A000EDA22DF500101BC
:10093000956F9551020D380EF324F66EF30EF420E8
:10094000F76EF86A000EF8220900F5CF1FF00A00D2
:10095000F5CF20F0CE0E4524D96EDA6A000EDA22E9
:10096000DF50966F96512D0D640EF324216E050E07
:10097000F420226EEEECD5F0000E186E640E176EA9
:1009800044ECE5F0CE0E4524D96EDA6A000EDA2288
:10099000DF500101956F9551020D380EF324F66E6C
:1009A000F30EF420F76EF86A000EF8220900F5CF76
:1009B0001FF00A00F5CF20F0CE0E4524D96EDA6A7A
:1009C000000EDA22DF50966F96512D0D640EF3243F
:1009D000216E050EF420226EFBECE4F0000E186E82
:1009E000640E176E44ECE5F0CE0E4524D96EDA6A3B
:1009F000000EDA22DF500101956F9551020D380E7D
:100A0000F324F66EF30EF420F76EF86A000EF82267
:100A10000900F5CF1FF00A00F5CF20F0CE0E4524D7
:100A2000D96EDA6A000EDA22DF50966F96512D0DDC
:100A3000640EF324216E050EF420226ECCECEAF055
:100A4000000E186E640E176E44ECE5F0CE0E4524D1
:100A5000D96EDA6A000EDA22DF500101956F9551E6
:100A6000020D380EF324F66EF30EF420F76EF86ADA
:100A7000000EF8220900F5CF1FF00A00F5CF20F094
:100A8000CE0E4524D96EDA6A000EDA22DF50966F58
:100A900096512D0D640EF324216E050EF420226E66
:100AA000AFECEAF0000E186E640E176E44ECE5F041
:100AB000CE0E4524D96EDA6A000EDA22DF5001012B
:100AC000956F9551020D380EF324F66EF30EF42057
:100AD000F76EF86A000EF8220900F5CF1FF00A0041
:100AE000F5CF20F0CE0E4524D96EDA6A000EDA2258
:100AF000DF50966F96512D0D640EF324216E050E76
:100B0000F420226E75ECEAF0000E186E640E176E7B
:100B100044ECE5F0CE0E4524D96EDA6A000EDA22F6
:100B2000DF500101956F9551020D380EF324F66EDA
:100B3000F30EF420F76EF86A000EF8220900F5CFE4
:100B40001FF00A00F5CF20F0CE0E4524D96EDA6AE8
:100B5000000EDA22DF50966F96512D0D640EF324AD
:100B6000216E050EF420226E2CECC1F0000E186EE2
:100B7000640E176E44ECE5F0452ACE0E4524D96E7E
:100B8000DA6A000EDA22DE28D8A4C9EF85F0CBEFAE
:100B900085F060EF82F00A0E01019E61D2EF85F0D0
:100BA000D4EF85F0DEEF85F0300E0001CE6F01014D
:100BB0009E51300F0001CF6FF6EF85F0090E9E6554
:100BC000E4EF85F0E6EF85F0F6EF85F00D0E9E611F
:100BD000ECEF85F0EEEF85F0F6EF85F0310E0001D9
:100BE000CE6F01019E51260F0001CF6F000E476EA0
:100BF000550E0001F36FFB0EF46FE20EF56F000E61
:100C0000F66F020EF76FD5EC96F0D4EF96F0000E6B
:100C1000176E020E186E6E0E196EFE0E1A6E000E14
:100C20001C6E040E1B6E8BECDFF017501810D8A44E
:100C30001CEF86F01EEF86F0FBEF87F04668000E93
:100C40000001AD6F040EAAECCCF00101956F95295F
:100C50009E6F000E456E74EF86F045502D0D890E87
:100C6000F324D96E050EF420DA6E9E51DE18D8A456
:100C70003CEF86F03EEF86F073EF86F045502D0D89
:100C80008E0EF324D96E050EF420DA6EDE04D8A49D
:100C90004CEF86F04EEF86F073EF86F045C046F0DD
:100CA00045502D0D8D0EF324D96E050EF420DA6E0D
:100CB000DE04D8A45EEF86F060EF86F07CEF86F06D
:100CC000010E0001AD6F45502D0D890EF324D96E34
:100CD000050EF420DA6EDF500101956F95290001B1
:100CE000FA6F7CEF86F0452A0B0E45647AEF86F0AA
:100CF0007CEF86F02DEF86F04628D8A482EF86F0B0
:100D000084EF86F0C0EF86F00A0E01019E618BEF42
:100D100086F08DEF86F097EF86F0300E0001CE6FF3
:100D200001019E51300F0001CF6FAFEF86F0090E29
:100D30009E659DEF86F09FEF86F0AFEF86F00D0E7B
:100D40009E61A5EF86F0A7EF86F0AFEF86F0310E3B
:100D50000001CE6F01019E51260F0001CF6F000EE2
:100D6000476E080E0001F36FFB0EF46FE20EF56F95
:100D7000000EF66F020EF76FD5EC96F0D4EF96F0FA
:100D8000000E456EB7EF87F045502D0D890EF32408
:100D9000D96E050EF420DA6E01019E51DE18D8A43A
:100DA000D4EF86F0D6EF86F0B6EF87F045502D0DE4
:100DB0008E0EF324D96E050EF420DA6E000EDF6E6F
:100DC00045502D0D890EF324D96E050EF420DA6EF0
:100DD000000EDF6E4550020D380EF324F66EF30E52
:100DE000F420F76EF86A000EF8220900F5CF1FF024
:100DF0000A00F5CF20F045502D0D640EF324216E2E
:100E0000050EF420226E58ECEAF0000E186E640E07
:100E1000176E44ECE5F04550020D380EF324F66EE3
:100E2000F30EF420F76EF86A000EF8220900F5CFF1
:100E30001FF00A00F5CF20F045502D0D640EF3246D
:100E4000216E050EF420226E75ECEAF0000E186E8D
:100E5000640E176E44ECE5F045502D0D8F0EF32413
:100E6000D96E050EF420DA6EDE04D8A43AEF87F0CE
:100E70003CEF87F067EF87F045502D0D8F0EF32480
:100E8000D96E050EF420DA6E000EDF6E4550020DAD
:100E9000380EF324F66EF30EF420F76EF86A000EA7
:100EA000F8220900F5CF1FF00A00F5CF20F04550D9
:100EB0002D0D640EF324216E050EF420226E2CEC11
:100EC000C1F0000E186E640E176E44ECE5F045504C
:100ED0002D0D8B0EF324D96E050EF420DA6E4550DD
:100EE0002D0D8C0EF324E16E050EF420E26EDE5023
:100EF000E618D8A47EEF87F080EF87F08CEF87F0BC
:100F000045502D0D8C0EF324D96E050EF420DA6EAB
:100F1000010EDF6E95EF87F045502D0D8C0EF324FA
:100F2000D96E050EF420DA6EDF2A4550020D380E18
:100F3000F324F66EF30EF420F76EF86A000EF82232
:100F40000900F5CF1FF00A00F5CF20F045502D0D18
:100F5000640EF324216E050EF420226EAFECEAF04D
:100F6000000E186E640E176E44ECE5F0452A0B0E69
:100F70004564BDEF87F0BFEF87F0C4EF86F00A0E3F
:100F800001019E61C6EF87F0C8EF87F0D2EF87F0CE
:100F9000300E0001CE6F01019E51300F0001CF6F66
:100FA000EAEF87F0090E9E65D8EF87F0DAEF87F059
:100FB000EAEF87F00D0E9E61E0EF87F0E2EF87F039
:100FC000EAEF87F0310E0001CE6F01019E51260F2E
:100FD0000001CF6F000E476E260E0001F36FFA0E70
:100FE000F46FE20EF56F000EF66F020EF76FD5ECA0
:100FF00096F0D4EF96F0000E176E020E186E510E9A
:10100000196EFE0E1A6E000E1C6E060E1B6E8BEC19
:10101000DFF017501810D8A410EF88F012EF88F006
:10102000AFEF8CF0000E0101A06F000E9F6F000E5D
:101030009D6F060EAAECCCF00101956F95299E6F6D
:10104000000E456E6CEF8CF045502D0D890EF3248B
:10105000D96E050EF420DA6E9E51DE18D8A433EF57
:1010600088F035EF88F06BEF8CF045502D0D8E0E2B
:10107000F324D96E050EF420DA6EDE04D8A443EF13
:1010800088F045EF88F06BEF8CF0090E476E0E0E7E
:101090009D654DEF88F04FEF88F051EF88F06BEFD2
:1010A0008CF0000E4724D96EDA6A020EDA22DF5085
:1010B0009AECEBF00009D8B460EF88F062EF88F0AA
:1010C000A0EF88F0010E4724D96EDA6A020EDA2208
:1010D000200EDE18D8A46FEF88F071EF88F083EF50
:1010E00088F0000E4724D96EDA6A020EDA22DF5049
:1010F000D00F466E465001019F259F6F000EA02124
:10110000A06F68EF8CF0000E4724D96EDA6A020EE9
:10111000DA22DF50D00F466E46500A0DF3CF46F06C
:101120009FC117F0A0C118F0000E1A6E0A0E196EBA
:10113000C4ECEBF017C09FF118C0A0F17AEF88F073
:1011400001019D2B1FEF8CF045502D0D6A0EF324ED
:10115000D96E050EF420DA6E9FC1DEFFA0C1DDFF5F
:10116000000EA06F000E9F6F68EF8CF045502D0DA4
:101170006C0EF324D96E050EF420DA6E9FC1DEFFEB
:10118000A0C1DDFFB0EF88F045502D0D880EF3248F
:10119000D96E050EF420DA6E9FC1DFFFB0EF88F044
:1011A00045502D0D6E0EF324D96E050EF420DA6E27
:1011B0009FC1DEFFA0C1DDFFB0EF88F045502D0DCF
:1011C000760EF324D96E050EF420DA6E9FC1DEFF91
:1011D000A0C1DDFFB0EF88F045502D0D7E0EF32449
:1011E000D96E050EF420DA6E9FC1DFFFB0EF88F0F4
:1011F00045502D0D700EF324D96E050EF420DA6ED5
:101200009FC1DEFFA0C1DDFFB0EF88F045502D0D7E
:10121000780EF324D96E050EF420DA6E9FC1DEFF3E
:10122000A0C1DDFFB0EF88F045502D0D7F0EF324F7
:10123000D96E050EF420DA6E9FC1DFFFB0EF88F0A3
:1012400045502D0D720EF324D96E050EF420DA6E82
:101250009FC1DEFFA0C1DDFFB0EF88F045502D0D2E
:101260007A0EF324D96E050EF420DA6E9FC1DEFFEC
:10127000A0C1DDFFB0EF88F045502D0D800EF324A6
:10128000D96E050EF420DA6E9FC1DFFFB0EF88F053
:1012900045502D0D740EF324D96E050EF420DA6E30
:1012A0009FC1DEFFA0C1DDFFB0EF88F045502D0DDE
:1012B0007C0EF324D96E050EF420DA6E9FC1DEFF9A
:1012C000A0C1DDFFB0EF88F045502D0D810EF32455
:1012D000D96E050EF420DA6E9FC1DFFF45502D0D4B
:1012E0008A0EF324D96E050EF420DA6E000EDF6E3E
:1012F00045502D0D900EF324D96E050EF420DA6EB4
:10130000000EDF6E000EA06F000E9F6F45502D0D7A
:10131000680EF324D96E050EF420DA6E45502D0DBB
:101320006C0EF324E16E050EF420E26EE6CF97F129
:10133000E5CF98F145502D0D6A0EF324E16E050EB0
:10134000F420E26EE6CF99F1E5CF9AF19751992713
:1013500098519A23DE50995DDE509A59D8A0B3EF88
:1013600089F0B5EF89F0FAEF89F045502D0D8F0E19
:10137000F324D96E050EF420DA6E000EDF6E0A0E2D
:101380009E61C5EF89F0C7EF89F0D1EF89F0300E8B
:101390000001CE6F01019E51300F0001CF6FE9EFC8
:1013A00089F0090E9E65D7EF89F0D9EF89F0E9EF52
:1013B00089F00D0E9E61DFEF89F0E1EF89F0E9EF32
:1013C00089F0310E0001CE6F01019E51260F000100
:1013D000CF6F000E476E580E0001F36FF90EF46FD9
:1013E000E20EF56F000EF66F020EF76FD5EC96F079
:1013F000D4EF96F045502D0D8F0EF324D96E050EC7
:10140000F420DA6E010EDF6E000E186E640E176E99
:1014100044ECE5F04550020D380EF324F66EF30E61
:10142000F420F76EF86A000EF8220900F5CF1FF0DD
:101430000A00F5CF20F045502D0D640EF324216EE7
:10144000050EF420226E2CECC1F0000E186E640E16
:10145000176E44ECE5F045C046F0000E456EDBEF3C
:101460008BF046504518D8B438EF8AF03AEF8AF03E
:10147000DAEF8BF045502D0D8E0EF324D96E050E4C
:10148000F420DA6EDF50D8B448EF8AF04AEF8AF0E1
:10149000DAEF8BF046502D0D890EF324D96E050E30
:1014A000F420DA6E45502D0D890EF324E16E050E01
:1014B000F420E26EDE50E618D8A461EF8AF063EF04
:1014C0008AF0DAEF8BF045502D0D8F0EF324D96E94
:1014D000050EF420DA6E010EDF6E46502D0D6A0EF9
:1014E000F324D96E050EF420DA6E45502D0D6A0EE8
:1014F000F324E16E050EF420E26EDECFE6FFDDCFD1
:10150000E5FF46502D0D6C0EF324D96E050EF42028
:10151000DA6E45502D0D6C0EF324E16E050EF420AD
:10152000E26EDECFE6FFDDCFE5FF46502D0D880EE3
:10153000F324D96E050EF420DA6E45502D0D880E79
:10154000F324E16E050EF420E26EDFCFE7FF465094
:101550002D0D6E0EF324D96E050EF420DA6E455073
:101560002D0D6E0EF324E16E050EF420E26EDECF3B
:10157000E6FFDDCFE5FF46502D0D760EF324D96E44
:10158000050EF420DA6E45502D0D760EF324E16E33
:10159000050EF420E26EDECFE6FFDDCFE5FF46501C
:1015A0002D0D7E0EF324D96E050EF420DA6E455013
:1015B0002D0D7E0EF324E16E050EF420E26EDFCFDA
:1015C000E7FF46502D0D700EF324D96E050EF42062
:1015D000DA6E45502D0D700EF324E16E050EF420E9
:1015E000E26EDECFE6FFDDCFE5FF46502D0D780E33
:1015F000F324D96E050EF420DA6E45502D0D780EC9
:10160000F324E16E050EF420E26EDECFE6FFDDCFBF
:10161000E5FF46502D0D7F0EF324D96E050EF42004
:10162000DA6E45502D0D7F0EF324E16E050EF42089
:10163000E26EDFCFE7FF46502D0D720EF324D96E18
:10164000050EF420DA6E45502D0D720EF324E16E76
:10165000050EF420E26EDECFE6FFDDCFE5FF46505B
:101660002D0D7A0EF324D96E050EF420DA6E455056
:101670002D0D7A0EF324E16E050EF420E26EDECF1E
:10168000E6FFDDCFE5FF46502D0D800EF324D96E29
:10169000050EF420DA6E45502D0D800EF324E16E18
:1016A000050EF420E26EDFCFE7FF46502D0D740EDD
:1016B000F324D96E050EF420DA6E45502D0D740E0C
:1016C000F324E16E050EF420E26EDECFE6FFDDCFFF
:1016D000E5FF46502D0D7C0EF324D96E050EF42047
:1016E000DA6E45502D0D7C0EF324E16E050EF420CC
:1016F000E26EDECFE6FFDDCFE5FF46502D0D810E19
:10170000F324D96E050EF420DA6E45502D0D810EAE
:10171000F324E16E050EF420E26EDFCFE7FF4650C2
:101720002D0D8A0EF324D96E050EF420DA6E455085
:101730002D0D8A0EF324E16E050EF420E26EDFCF4C
:10174000E7FF46502D0D900EF324D96E050EF420C0
:10175000DA6E45502D0D900EF324E16E050EF42047
:10176000E26EDFCFE7FF000E186E640E176E44ECDA
:10177000E5F04550020D380EF324F66EF30EF4201A
:10178000F76EF86A000EF8220900F5CF1FF00A0084
:10179000F5CF20F045502D0D640EF324216E050E7B
:1017A000F420226E2CECC1F0000E186E640E176E41
:1017B00044ECE5F0452A0B0E4564E1EF8BF0E3EFD6
:1017C0008BF031EF8AF00A0E01019E61EAEF8BF097
:1017D000ECEF8BF0F6EF8BF0300E0001CE6F0101D5
:1017E0009E51300F0001CF6F0EEF8CF0090E9E65F9
:1017F000FCEF8BF0FEEF8BF00EEF8CF00D0E9E6188
:1018000004EF8CF006EF8CF00EEF8CF0310E00013F
:10181000CE6F01019E51260F0001CF6F000E476E63
:10182000BF0E0001F36FFB0EF46FE20EF56F000EBA
:10183000F66F020EF76FD5EC96F0D4EF96F09D514F
:10184000956F966B9651000AD8B429EF8CF068EF2B
:101850008CF09551010AD8B4A4EF88F0030AD8B4EB
:10186000B6EF88F0010AD8B4C4EF88F0070AD8B4FC
:10187000D0EF88F0010AD8B4DEEF88F0030AD8B4BC
:10188000ECEF88F0010AD8B4F8EF88F00F0AD8B46A
:1018900006EF89F0010AD8B414EF89F0030AD8B42E
:1018A00020EF89F0010AD8B42EEF89F0070AD8B4E6
:1018B0003CEF89F0010AD8B448EF89F0030AD8B4A4
:1018C00056EF89F0010AD8B464EF89F068EF8CF024
:1018D000472A47EF88F0452A0B0E456472EF8CF0DB
:1018E00074EF8CF024EF88F00A0E9E617AEF8CF092
:1018F0007CEF8CF086EF8CF0300E0001CE6F010192
:101900009E51300F0001CF6F9EEF8CF0090E9E6547
:101910008CEF8CF08EEF8CF09EEF8CF00D0E9E61B4
:1019200094EF8CF096EF8CF09EEF8CF0310E00016E
:10193000CE6F01019E51260F0001CF6F000E476E42
:10194000450E0001F36FF70EF46FE20EF56F000E17
:10195000F66F020EF76FD5EC96F0D4EF96F0000E0E
:10196000176E020E186E3B0E196EFE0E1A6E000EEA
:101970001C6E070E1B6E8BECDFF017501810D8A4EE
:10198000C4EF8CF0C6EF8CF0F2EF8DF04668000EDD
:101990000001AD6F070EAAECCCF00101956F9529FF
:1019A0009E6F000E456E3FEF8DF045502D0D890E58
:1019B000F324D96E050EF420DA6E9E51DE18D8A4F9
:1019C000E4EF8CF0E6EF8CF03EEF8DF045502D0DFE
:1019D0008E0EF324D96E050EF420DA6EDE04D8A440
:1019E000F4EF8CF0F6EF8CF03EEF8DF045502D0DBE
:1019F0008F0EF324D96E050EF420DA6EDE04D8A41F
:101A000004EF8DF006EF8DF03EEF8DF045C046F00F
:101A100045502D0D8D0EF324D96E050EF420DA6E8F
:101A2000DE04D8A416EF8DF018EF8DF047EF8DF09F
:101A300045502D0D8A0EF324D96E050EF420DA6E72
:101A4000DE04D8B426EF8DF028EF8DF039EF8DF05D
:101A500045502D0D8A0EF324D96E050EF420DA6E52
:101A6000020EDE18D8A437EF8DF039EF8DF047EF76
:101A70008DF0010E0001AD6F47EF8DF0452A0B0E82
:101A8000456445EF8DF047EF8DF0D5EF8CF046289B
:101A9000D8A44DEF8DF04FEF8DF06CEF8DF00A0E66
:101AA00001019E6156EF8DF058EF8DF05AEF8DF0E9
:101AB0008DEF86F0090E9E6560EF8DF062EF8DF080
:101AC000AFEF86F00D0E9E6168EF8DF06AEF8DF03E
:101AD000AFEF86F0A7EF86F0000E456EAEEF8DF00B
:101AE00045502D0D890EF324D96E050EF420DA6EC3
:101AF00001019E51DE18D8A480EF8DF082EF8DF0A9
:101B0000ADEF8DF045502D0D8F0EF324D96E050EDF
:101B1000F420DA6E000EDF6E4550020D380EF3240D
:101B2000F66EF30EF420F76EF86A000EF822090044
:101B3000F5CF1FF00A00F5CF20F045502D0D640EB3
:101B4000F324216E050EF420226E2CECC1F0000E61
:101B5000186E640E176E44ECE5F0452A0B0E4564D2
:101B6000B4EF8DF0B6EF8DF070EF8DF00A0E01013D
:101B70009E61BDEF8DF0BFEF8DF0C9EF8DF0300E9F
:101B80000001CE6F01019E51300F0001CF6FE1EFD8
:101B90008DF0090E9E65CFEF8DF0D1EF8DF0E1EF66
:101BA0008DF00D0E9E61D7EF8DF0D9EF8DF0E1EF46
:101BB0008DF0310E0001CE6F01019E51260F000104
:101BC000CF6F000E476E9C0E0001F36FFB0EF46F9B
:101BD000E20EF56F000EF66F020EF76FD5EC96F081
:101BE000D4EF96F0000E176E020E186E4A0E196EA4
:101BF000FE0E1A6E000E1C6E060E1B6E8BECDFF0D6
:101C000017501810D8A407EF8EF009EF8EF0D1EF1F
:101C10008EF0000E0101A06F000E9F6F000E9D6FF1
:101C2000060E476E000E4724D96EDA6A020EDA22DB
:101C3000DF509AECEBF00009D8B421EF8EF023EFDF
:101C40008EF061EF8EF0010E4724D96EDA6A020E33
:101C5000DA22200EDE18D8A430EF8EF032EF8EF0AC
:101C600044EF8EF0000E4724D96EDA6A020EDA22B3
:101C7000DF50D00F466E465001019F259F6F000E2A
:101C8000A021A06FA8EF8EF0000E4724D96EDA6A6B
:101C9000020EDA22DF50D00F466E46500A0DF3CF07
:101CA00046F09FC117F0A0C118F0000E1A6E0A0E80
:101CB000196EC4ECEBF017C09FF118C0A0F13BEF18
:101CC0008EF001019D2B87EF8EF09FC1BCF0000EBE
:101CD000A06F000E9F6FA8EF8EF09FC1BBF067EF63
:101CE0008EF09FC1BAF067EF8EF09FC1B9F067EF39
:101CF0008EF09FC19EF000019F6B000E0101A06F4E
:101D0000000E9F6F010E0001A66FA8EF8EF09D518F
:101D1000956F966B9651000AD8B491EF8EF0A8EFAC
:101D20008EF09551010AD8B465EF8EF0030AD8B44D
:101D30006DEF8EF0010AD8B471EF8EF0070AD8B4B7
:101D400075EF8EF0010AD8B479EF8EF0A8EF8EF01F
:101D5000472A040E01019D65B0EF8EF0B2EF8EF0C0
:101D600012EF8EF0000E186E640E176E44ECE5F064
:101D700088ECDAF0000E186E640E176E44ECE5F095
:101D8000000E476EEE0E0001F36FFC0EF46FE20ED4
:101D9000F56F000EF66F000EF76FD5EC96F0D4EFEE
:101DA00096F0000E176E020E186E330E196EFE0EB0
:101DB0001A6E000E1C6E070E1B6E8BECDFF01750B8
:101DC0001810D8A4E6EF8EF0E8EF8EF00AEF8FF04F
:101DD000000E0001A66F000E186E640E176E44EC24
:101DE000E5F088ECDAF0000E186E640E176E44EC25
:101DF000E5F0000E476E9B0E0001F36FFC0EF46FD2
:101E0000E20EF56F000EF66F000EF76FD5EC96F050
:101E1000D4EF96F0000E176E020E186E5E0E196E5D
:101E2000FE0E1A6E000E1C6E050E1B6E8BECDFF0A4
:101E300017501810D8A41FEF8FF021EF8FF04AEF42
:101E40008FF00001A651D8B428EF8FF02AEF8FF061
:101E50003AEF8FF0000E476ED30EF36FFC0EF46F67
:101E6000E20EF56F000EF66F080EF76FD5EC96F0E8
:101E7000D4EF96F0000E476EE10EF36FFB0EF46F99
:101E8000E20EF56F000EF66F000EF76FD5EC96F0D0
:101E9000D4EF96F0000E176E020E186E640E196ED7
:101EA000FE0E1A6E000E1C6E040E1B6E8BECDFF025
:101EB00017501810D8A45FEF8FF061EF8FF021EF6B
:101EC00090F0000E0101A06F000E9F6F000E9D6F3D
:101ED000050E476E000E4724D96EDA6A020EDA222A
:101EE000DF509AECEBF00009D8B479EF8FF07BEF7C
:101EF0008FF0EAEF8FF0000E4724D96EDA6A020EF7
:101F0000DA22DF50D00F466E46C09FF10101A06B70
:101F10009FC117F0A0C118F0000E1A6E0A0E196EBC
:101F2000C4ECEBF017C09FF118C0A0F1010E4724DC
:101F3000D96EDA6A020EDA22DF50D00F466E4650B2
:101F400001019F259F6F000EA021A06F9D2BC5EF63
:101F50008FF09FC141F0000EA06F000E9F6FFBEF4E
:101F60008FF09FC142F0ABEF8FF09FC143F0ABEF1A
:101F70008FF09FC140F0ABEF8FF09FC13FF0ABEF10
:101F80008FF09FC1BDF0ABEF8FF09D51956F966BB9
:101F90009651000AD8B4CFEF8FF0FBEF8FF0955138
:101FA000010AD8B4A9EF8FF0030AD8B4B1EF8FF0CB
:101FB000010AD8B4B5EF8FF0070AD8B4B9EF8FF0A3
:101FC000010AD8B4BDEF8FF0030AD8B4C1EF8FF087
:101FD000FBEF8FF0000E476EB80E0001F36FFC0EA2
:101FE000F46FE20EF56F000EF66F000EF76FD5EC92
:101FF00096F0D4EF96F0030E4726050E9D6503EF8D
:1020000090F005EF90F06AEF8FF0060E9D19D8A4BE
:102010000CEF90F00EEF90F010EF90F01EECE4F06B
:10202000000E476EDF0E0001F36FFA0EF46FE20E42
:10203000F56F000EF66F000EF76FD5EC96F0D4EF4B
:1020400096F0000E176E020E186E690E196EFE0ED7
:102050001A6E000E1C6E040E1B6E8BECDFF0175018
:102060001810D8A436EF90F038EF90F0F0EF90F021
:1020700082ECE2F041C017F0186A000E1A6E0A0EE8
:10208000196EC8ECE1F01750300F0001CE6F41C05F
:1020900029F02A6A000E2C6E0A0E2B6E2AECE2F052
:1020A0002950300F0001CF6F2F0ED06F42C017F0B4
:1020B000186A000E1A6E0A0E196EC8ECE1F017507D
:1020C000300F0001D16F42C029F02A6A000E2C6E39
:1020D0000A0E2B6E2AECE2F02950300F0001D26F6D
:1020E0002F0ED36F43C017F0186A000E1A6E0A0E37
:1020F000196EC8ECE1F01750300F0001D46F43C0E7
:1021000029F02A6A000E2C6E0A0E2B6E2AECE2F0E1
:102110002950300F0001D56F200ED66F40C017F048
:10212000186A000E1A6E0A0E196EC8ECE1F017500C
:10213000300F0001D76F40C029F02A6A000E2C6EC4
:102140000A0E2B6E2AECE2F02950300F0001D86FF6
:102150003A0ED96F3FC017F0186A000E1A6E0A0EB9
:10216000196EC8ECE1F01750300F0001DA6F3FC074
:1021700029F02A6A000E2C6E0A0E2B6E2AECE2F071
:102180002950300F0001DB6F3A0EDC6FBDC017F035
:10219000186A000E1A6E0A0E196EC8ECE1F017509C
:1021A000300F0001DD6FBDC029F02A6A000E2C6ED1
:1021B0000A0E2B6E2AECE2F02950300F0001DE6F80
:1021C000000E476EED0EF36FFD0EF46FE20EF56F2D
:1021D000000EF66F030EF76FD5EC96F0D4EF96F085
:1021E000000E176E020E186E2B0E196EFE0E1A6E72
:1021F000000E1C6E070E1B6E8BECDFF017501810D4
:10220000D8A405EF91F007EF91F052EF91F0070E8F
:10221000AAECCCF0456E090E456011EF91F013EF7A
:1022200091F01BEF91F0300E0001CE6F4550310F51
:10223000CF6F31EF91F0080E456421EF91F023EF5D
:1022400091F031EF91F00C0E456029EF91F02BEFFA
:1022500091F031EF91F0310E0001CE6F4550270F14
:10226000CF6F000E476E45502D0D8E0EF324D96EA4
:10227000050EF420DA6EDF50D8B441EF91F043EF51
:1022800091F0B1EF86F0FC0E0001F36FFD0EF46FDC
:10229000E20EF56F000EF66F070EF76FD5EC96F0B5
:1022A000D4EF96F0000E176E020E186E840E196EA3
:1022B000FE0E1A6E000E1C6E020E1B6E8BECDFF013
:1022C00017501810D8A467EF91F069EF91F02AEF3A
:1022D00092F08EAE6EEF91F070EF91F081EF91F091
:1022E000000E476EF50E0001F36FF90EF46FE20E6B
:1022F000F56F000EF66F000EF76FD5EC96F0D4EF89
:1023000096F0000E0101A06F000E9F6F000E9D6FF2
:10231000010E9D6F030E476E000E4724D96EDA6AD8
:10232000020EDA22DF509AECEBF00009D8B49BEFF2
:1023300091F09DEF91F0EBEF91F0010E4724D96EF3
:10234000DA6A020EDA22200EDE18D8A4AAEF91F083
:10235000ACEF91F0BEEF91F0000E4724D96EDA6A2F
:10236000020EDA22DF50D00F466E465001019F2543
:102370009F6F000EA021A06F02EF92F0000E472485
:10238000D96EDA6A020EDA22DF50D00F466E46505E
:102390000A0DF3CF46F09FC117F0A0C118F0000E50
:1023A0001A6E0A0E196EC4ECEBF017C09FF118C03C
:1023B000A0F1B5EF91F09FC178F0A0C179F0000EC7
:1023C000A06F000E9F6F01EF92F09FC1F1F0A0C1CE
:1023D000F2F0DFEF91F001019D51956F966B9651F0
:1023E000000AD8B4F6EF91F001EF92F09551010A8E
:1023F000D8B4DBEF91F0030AD8B4E5EF91F001EF28
:1024000092F09D2B472A020E9D6509EF92F00BEF8B
:1024100092F08CEF91F0000E186E640E176E44EC83
:10242000E5F019ECE0F0000E186E640E176E44EC47
:10243000E5F0000E476E790E0001F36FFB0EF46FAE
:10244000E20EF56F000EF66F000EF76FD5EC96F00A
:10245000D4EF96F0000E176E020E186E580E196E1D
:10246000FE0E1A6E000E1C6E050E1B6E8BECDFF05E
:1024700017501810D8A43FEF92F041EF92F052EFAE
:1024800092F0000E476E850E0001F36FFA0EF46FA6
:10249000E20EF56F000EF66F050EF76FD5EC96F0B5
:1024A000D4EF96F0000E176E020E186E230E196E02
:1024B000FE0E1A6E000E1C6E070E1B6E8BECDFF00C
:1024C00017501810D8A467EF92F069EF92F0C5EF9B
:1024D00092F0070EAAECCCF0456E000E186E640E5A
:1024E000176E44ECE5F0455078ECD2F0090E4560EB
:1024F0007CEF92F07EEF92F086EF92F0300E0001CA
:10250000CE6F4550310FCF6F9CEF92F0080E4564AF
:102510008CEF92F08EEF92F09CEF92F00C0E4560F3
:1025200094EF92F096EF92F09CEF92F0310E000152
:10253000CE6F4550270FCF6F0001B451D8B4A3EF31
:1025400092F0A5EF92F0B5EF92F0000EB46F300E5E
:10255000F36FFB0EF46FE20EF56F000EF66F020ED6
:10256000F76FD5EC96F0D4EF96F0000E476EB40EF0
:10257000F36FFA0EF46FE20EF56F000EF66F060EB3
:10258000F76FD5EC96F0D4EF96F0000E176E020EB2
:10259000186E7C0E196EFE0E1A6E000E1C6E030E67
:1025A0001B6E8BECDFF017501810D8A4DAEF92F006
:1025B000DCEF92F030EF93F0030EAAECCCF0456E16
:1025C000000E186E640E176E44ECE5F08EAEEBEF65
:1025D00092F0EDEF92F0EFEF92F070EF91F0090EC4
:1025E0004560F5EF92F0F7EF92F0FFEF92F0300ECA
:1025F0000001CE6F4550310FCF6F15EF93F0080EED
:10260000456405EF93F007EF93F015EF93F00C0E90
:1026100045600DEF93F00FEF93F015EF93F0310E4F
:102620000001CE6F4550270FCF6F130E186E880E26
:10263000176E44ECE5F045C024F0010E73ECC8F0D1
:10264000030E186EE80E176E44ECE5F019ECE0F09E
:10265000030E186EE80E176E44ECE5F041EF92F0B1
:10266000000E176E020E186E430E196EFE0E1A6ED5
:10267000000E1C6E060E1B6E8BECDFF01750181050
:10268000D8A445EF93F047EF93F07BEF95F0000E61
:102690000101A06F000E9F6F000E9D6F070E476E29
:1026A000000E4724D96EDA6A020EDA22DF509AEC65
:1026B000EBF00009D8B45FEF93F061EF93F0BAEF5D
:1026C00093F0000E4724D96EDA6A020EDA22DF5048
:1026D000D00F466E46C09FF10101A06B9FC117F05D
:1026E000A0C118F0000E1A6E0A0E196EC4ECEBF0C1
:1026F00017C09FF118C0A0F1010E4724D96EDA6A05
:10270000020EDA22DF50D00F466E465001019F259F
:102710009F6F000EA021A06F9D2BA1EF93F09FC192
:102720009BF1000E0101A06F000E9F6FBAEF93F0B6
:102730009FC19CF191EF93F09F51E1ECC3F091EFB9
:1027400093F09D51956F966B9651000AD8B4ABEFFC
:1027500093F0BAEF93F09551010AD8B48FEF93F04C
:10276000030AD8B498EF93F0010AD8B49CEF93F021
:10277000BAEF93F0030E4726020E01019D65C3EFE9
:1027800093F0C5EF93F050EF93F0000E456E62EFBB
:1027900095F045502D0D680EF324D96E050EF420EA
:1027A000DA6E0F0EDE6E000EDD6E45502D0D820EC0
:1027B000F324D96E050EF420DA6E010EDF6E45505B
:1027C0002D0D830EF324D96E050EF420DA6E9BC115
:1027D000DFFF45502D0D840EF324D96E050EF42035
:1027E000DA6E9CC1DFFF45502D0D850EF324D96EA6
:1027F000050EF420DA6E39C0DFFF45502D0D860E30
:10280000F324D96E050EF420DA6E3DC0DFFF45508B
:102810002D0D870EF324D96E050EF420DA6E3EC01E
:10282000DFFF45502D0D640EF324D96E050EF42004
:10283000DA6E640EDE6E000EDD6E45502D0D660EF6
:10284000F324D96E050EF420DA6E300EDE6E750EAE
:10285000DD6E45502D0D890EF324D96E050EF42042
:10286000DA6E4528DF6E45502D0D8D0EF324D96E9E
:10287000050EF420DA6E000EDF6E45502D0D8B0E26
:10288000F324D96E050EF420DA6E020EDF6E455089
:102890002D0D8C0EF324D96E050EF420DA6E020E87
:1028A000DF6E45502D0D8E0EF324D96E050EF420EB
:1028B000DA6E010EDF6E45502D0D6A0EF324D96ECF
:1028C000050EF420DA6E050EDE6E000EDD6E45504C
:1028D0002D0D6C0EF324D96E050EF420DA6E0F0E5A
:1028E000DE6E000EDD6E45502D0D880EF324D96E80
:1028F000050EF420DA6E4528DF6E45502D0D8A0E48
:10290000F324D96E050EF420DA6E000EDF6E45500A
:102910002D0D900EF324D96E050EF420DA6E000E04
:10292000DF6E45502D0D8F0EF324D96E050EF42069
:10293000DA6E010EDF6E4550020D380EF324F66E8E
:10294000F30EF420F76EF86A000EF8220900F5CFB6
:102950001FF00A00F5CF20F045502D0D640EF32432
:10296000216E050EF420226EEEECD5F0000E186EEE
:10297000640E176E44ECE5F04550020D380EF3245A
:10298000F66EF30EF420F76EF86A000EF8220900D6
:10299000F5CF1FF00A00F5CF20F045502D0D640E45
:1029A000F324216E050EF420226EFBECE4F0000E01
:1029B000186E640E176E44ECE5F04550020D380EAB
:1029C000F324F66EF30EF420F76EF86A000EF82288
:1029D0000900F5CF1FF00A00F5CF20F045502D0D6E
:1029E000640EF324216E050EF420226ECCECEAF086
:1029F000000E186E640E176E44ECE5F04550020DA3
:102A0000380EF324F66EF30EF420F76EF86A000E1B
:102A1000F8220900F5CF1FF00A00F5CF20F045504D
:102A20002D0D640EF324216E050EF420226EAFEC02
:102A3000EAF0000E186E640E176E44ECE5F0455097
:102A4000020D380EF324F66EF30EF420F76EF86ADA
:102A5000000EF8220900F5CF1FF00A00F5CF20F094
:102A600045502D0D640EF324216E050EF420226EC8
:102A700075ECEAF0000E186E640E176E44ECE5F08B
:102A80004550020D380EF324F66EF30EF420F76E67
:102A9000F86A000EF8220900F5CF1FF00A00F5CF02
:102AA00020F045502D0D640EF324216E050EF42008
:102AB000226E2CECC1F0000E186E640E176E44EC02
:102AC000E5F0452A0B0E456468EF95F06AEF95F046
:102AD000C9EF93F0000E476EAB0E0001F36FFD0ED1
:102AE000F46FE20EF56F000EF66F000EF76FD5EC87
:102AF00096F0D4EF96F0D4EF96F0000E176E020E1B
:102B0000186E870E196EFE0E1A6E000E1C6E020EE7
:102B10001B6E8BECDFF017501810D8A492EF95F0D5
:102B200094EF95F03DEF96F0030E176E020E186EBF
:102B3000760E196E010E1A6E000E1C6E060E1B6EBE
:102B40008BECDFF017501810D8A4A9EF95F0ABEF7D
:102B500095F01EEF96F00001B751D8B4B2EF95F0A2
:102B6000B4EF95F0C2EF95F0000E476E900EF36F44
:102B7000F90EF46FE20EF56F000EF66F010EF76FAF
:102B8000D5EC96F0760E176E010E186E0A0E196EC1
:102B9000020E1A6E000E1C6E060E1B6ECCECE5F0DB
:102BA000E20E176E000E186ECE0E196E000E1A6E23
:102BB000000E1C6E0A0E1B6ECCECE5F0010E00013F
:102BC000B76FCE0E176E000E186E640E196E010EE2
:102BD0001A6E000E1C6E0A0E1B6ECCECE5F0000E99
:102BE000186E320E176E44ECE5F0FFECE6F0000EC6
:102BF000186E320E176E44ECE5F037ECE7F0000E7D
:102C0000186E320E176E44ECE5F092ECEAF0000E0E
:102C1000186E320E176E44ECE5F0000E476E6B0E28
:102C20000001F36FFD0EF46FE20EF56F000EF66F0C
:102C3000000EF76FD5EC96F0D4EF96F0000E476ECD
:102C4000540E0001F36FFD0EF46FCE0EF56F000E03
:102C5000F66F000EF76FD5EC96F0CE0E176E000EE5
:102C6000186E640E196E010E1A6E000E1C6E0A0E9E
:102C70001B6ECCECE5F0D4EF96F0000E176E020E52
:102C8000186E730E196EFE0E1A6E000E1C6E040E78
:102C90001B6E8BECDFF017501810D8A452EF96F093
:102CA00054EF96F065EF96F0000E476E820E00012D
:102CB000F36FFD0EF46FCE0EF56F000EF66F000E83
:102CC000F76FD5EC96F02DEF96F0000E176E020E12
:102CD000186E170E196EFE0E1A6E000E1C6E0B0E7D
:102CE0001B6E8BECDFF017501810D8A47AEF96F01B
:102CF0007CEF96F08DEF96F0000E476EDE0E000131
:102D0000F36FFD0EF46FCE0EF56F000EF66F040E2E
:102D1000F76FD5EC96F02DEF96F0000E176E020EC1
:102D2000186E0B0E196EFE0E1A6E000E1C6E0B0E38
:102D30001B6E8BECDFF017501810D8A4A2EF96F0A2
:102D4000A4EF96F0B5EF96F0000E476ECF0E00019F
:102D5000F36FFD0EF46FCE0EF56F000EF66F0C0ED6
:102D6000F76FD5EC96F02DEF96F0000E176E060E6D
:102D700048ECECF0030E186EE80E176E44ECE5F02C
:102D8000D4EF96F01FECEBF0000E176E070E48EC38
:102D9000ECF0BAEF96F01FECEBF0000E176E080E99
:102DA00048ECECF0ADEF80F01200000E316E1E0E1C
:102DB0000001C56F8D0E1F6EFF0E206E45ECE9F011
:102DC000000E186E320E176E44ECE5F0F5C01FF0E1
:102DD000F6C020F00A0E216E3AECEAF0000E186EF2
:102DE000320E176E44ECE5F0F90E1F6EFE0E206EEB
:102DF00045ECE9F0000E186E640E176E44ECE5F039
:102E0000F3C01FF0F4C020F045ECE9F0000E186E9E
:102E1000640E176E44ECE5F076EF9FF0CE0E1F6E59
:102E2000000E206E0A0E216E3AECEAF0000E186ECB
:102E3000640E176E44ECE5F0B4EF9FF0CE0E1F6EFB
:102E4000000E206E020E216E3AECEAF016EF97F0BB
:102E5000CE0E1F6E000E206E110E216E3AECEAF0BF
:102E600016EF97F06F0E1F6E010E206E060E216E8C
:102E70003AECEAF016EF97F078C035F079C036F00A
:102E800035C01DF036C01EF0030E206EE80E1F6E1A
:102E90008DECE6F01D50300F0001DC6F030E1A6E52
:102EA000E80E196E35C017F036C018F046ECE8F0A1
:102EB00017C01DF018C01EF0000E206E640E1F6EAD
:102EC0008DECE6F01D50300F0001DD6F000E1A6E24
:102ED000640E196E35C017F036C018F046ECE8F0F5
:102EE00017C01DF018C01EF0000E206E0A0E1F6ED7
:102EF0008DECE6F01D50300F0001DE6F35C017F08D
:102F000036C018F0000E1A6E0A0E196E46ECE8F084
:102F10001750300F0001DF6FDC0E1F6E000E206EA9
:102F2000040E216E3AECEAF0000E186E320E176EA7
:102F300044ECE5F0E10E1F6EFF0E206E45ECE9F06B
:102F4000000E186E320E176E44ECE5F0F1C035F04D
:102F5000F2C036F035C01DF036C01EF0030E206EF4
:102F6000E80E1F6E8DECE6F01D50300F0001DC6F97
:102F7000030E1A6EE80E196E35C017F036C018F041
:102F800046ECE8F017C01DF018C01EF0000E206ED1
:102F9000640E1F6E8DECE6F01D50300F0001DD6FEA
:102FA000000E1A6E640E196E35C017F036C018F098
:102FB00046ECE8F017C01DF018C01EF0000E206EA1
:102FC0000A0E1F6E8DECE6F01D50300F0001DE6F13
:102FD00035C017F036C018F0000E1A6E0A0E196EC2
:102FE00046ECE8F01750300F0001DF6FDC0E1F6E6B
:102FF000000E206E040E216E3AECEAF016EF97F008
:10300000CE0E1F6E000E206E020E216E3AECEAF01C
:10301000000E186E320E176E44ECE5F0F90E1F6EBE
:10302000FF0E206E45ECE9F0000E186E320E176EA2
:1030300044ECE5F09AC035F09BC036F035C01DF089
:1030400036C01EF0270E206E100E1F6E8DECE6F0BF
:103050001D50300F0001DC6F270E1A6E100E196E16
:1030600035C017F036C018F046ECE8F017C01DF078
:1030700018C01EF0030E206EE80E1F6E8DECE6F0F9
:103080001D50300F0001DD6F030E1A6EE80E196E31
:1030900035C017F036C018F046ECE8F017C01DF048
:1030A00018C01EF0000E206E640E1F6E8DECE6F050
:1030B0001D50300F0001DE6F000E1A6E640E196E87
:1030C00035C017F036C018F046ECE8F017C01DF018
:1030D00018C01EF0000E206E0A0E1F6E8DECE6F07A
:1030E0001D50300F0001DF6F35C017F036C018F0EB
:1030F000000E1A6E0A0E196E46ECE8F01750300FEB
:103100000001E06FDC0E1F6E000E206E050E216EBA
:103110003AECEAF016EF97F0CE0E1F6E000E206E1E
:10312000020E216E3AECEAF0000E186E0A0E176ECF
:1031300044ECE5F0C40E1F6EFF0E206E45ECE9F086
:10314000000E186E0A0E176E44ECE5F045502D0D7A
:10315000680EF324D96E050EF420DA6EDECF35F05A
:10316000DDCF36F035C01DF036C01EF0000E206EEB
:10317000640E1F6E8DECE6F01D50300F0001CE6F17
:10318000000E1A6E640E196E35C017F036C018F0B6
:1031900046ECE8F017C01DF018C01EF0000E206EBF
:1031A0000A0E1F6E8DECE6F01D50300F0001CF6F40
:1031B00035C017F036C018F0000E1A6E0A0E196EE0
:1031C00046ECE8F01750300F0001D06FCE0E1F6EA6
:1031D000000E206E030E216E3AECEAF0000E186E1F
:1031E0000A0E176E44ECE5F0B20E1F6EFF0E206E55
:1031F00045ECE9F0000E186E0A0E176E44ECE5F08F
:1032000045502D0D820EF324D96E050EF420DA6E92
:10321000DF502F6E2F50176E186A000E1A6E0A0EAE
:10322000196EC8ECE1F01750300F0001CE6F455019
:103230002D0D820EF324D96E050EF420DA6EDF50C8
:103240002F6E2F50296E2A6A000E2C6E0A0E2B6EDE
:103250002AECE2F02950300F0001CF6FCE0E1F6E26
:10326000000E206E020E216E3AECEAF0000E186E8F
:103270000A0E176E44ECE5F0F30E1F6EFF0E206E83
:1032800045ECE9F0000E186E0A0E176E44ECE5F0FE
:1032900045502D0D640EF324D96E050EF420DA6E20
:1032A000DECF35F0DDCF36F035C01DF036C01EF074
:1032B000000E206E640E1F6E8DECE6F01D50300F78
:1032C0000001CE6F000E1A6E640E196E35C017F035
:1032D00036C018F046ECE8F017C01DF018C01EF01C
:1032E000000E206E0A0E1F6E8DECE6F01D50300FA2
:1032F0000001CF6F35C017F036C018F0000E1A6EFF
:103300000A0E196E46ECE8F01750300F0001D06F2E
:10331000CE0E1F6E000E206E030E216E3AECEAF008
:10332000000E186E0A0E176E44ECE5F0ED0E1F6EDF
:10333000FF0E206E45ECE9F0000E186E0A0E176EB7
:1033400044ECE5F045502D0D660EF324D96E050EC4
:10335000F420DA6EDECF35F0DDCF36F035C01DF06B
:1033600036C01EF0000E206E640E1F6E8DECE6F06F
:103370001D50300F0001CE6F000E1A6E640E196ED4
:1033800035C017F036C018F046ECE8F017C01DF055
:1033900018C01EF0000E206E0A0E1F6E8DECE6F0B7
:1033A0001D50300F0001CF6F35C017F036C018F038
:1033B000000E1A6E0A0E196E46ECE8F01750300F28
:1033C0000001D06FCE0E1F6E000E206E030E216E18
:1033D0003AECEAF0000E186E0A0E176E44ECE5F0B7
:1033E000770E1F6EFF0E206E45ECE9F0000E186E92
:1033F0000A0E176E44ECE5F045502D0D850EF324B2
:10340000D96E050EF420DA6EDF502F6E2F50176E36
:10341000186A000E1A6E0A0E196EC8ECE1F0175009
:10342000300F0001CE6F45502D0D850EF324D96E5F
:10343000050EF420DA6EDF502F6E2F50296E2A6AA7
:10344000000E2C6E0A0E2B6E2AECE2F02950300F83
:103450000001CF6FCE0E1F6E000E206E020E216E89
:103460003AECEAF0000E186E0A0E176E44ECE5F026
:1034700045502D0D860EF324D96E050EF420DA6E1C
:10348000DF502F6E2F50176E186A000E1A6E0A0E3C
:10349000196EC8ECE1F01750300F0001CE6F4550A7
:1034A0002D0D860EF324D96E050EF420DA6EDF5052
:1034B0002F6E2F50296E2A6A000E2C6E0A0E2B6E6C
:1034C0002AECE2F02950300F0001CF6FCE0E1F6EB4
:1034D000000E206E020E216E3AECEAF0000E186E1D
:1034E0000A0E176E44ECE5F045502D0D870EF324BF
:1034F000D96E050EF420DA6EDF502F6E2F50176E46
:10350000186A000E1A6E0A0E196EC8ECE1F0175018
:10351000300F0001CE6F45502D0D870EF324D96E6C
:10352000050EF420DA6EDF502F6E2F50296E2A6AB6
:10353000000E2C6E0A0E2B6E2AECE2F02950300F92
:103540000001CF6FCE0E1F6E000E206E020E216E98
:103550003AECEAF0000E186E0A0E176E44ECE5F035
:1035600045502D0D830EF324D96E050EF420DA6E2E
:10357000DF502F6E2F50176E186A000E1A6E0A0E4B
:10358000196EC8ECE1F01750300F0001CE6F4550B6
:103590002D0D830EF324D96E050EF420DA6EDF5064
:1035A0002F6E2F50296E2A6A000E2C6E0A0E2B6E7B
:1035B0002AECE2F02950300F0001CF6FCE0E1F6EC3
:1035C000000E206E020E216E3AECEAF0000E186E2C
:1035D0000A0E176E44ECE5F045502D0D840EF324D1
:1035E000D96E050EF420DA6EDF502F6E2F50176E55
:1035F000186A000E1A6E0A0E196EC8ECE1F0175028
:10360000300F0001CE6F45502D0D840EF324D96E7E
:10361000050EF420DA6EDF502F6E2F50296E2A6AC5
:10362000000E2C6E0A0E2B6E2AECE2F02950300FA1
:103630000001CF6FCE0E1F6E000E206E020E216EA7
:103640003AECEAF0000E186E0A0E176E44ECE5F044
:10365000FA0E1F6EFE0E206E45ECE9F045502D0D62
:103660008F0EF324D96E050EF420DA6EDF50D8B435
:103670003CEF9BF03EEF9BF03CEF9CF08A0E1F6E00
:10368000FE0E206E45ECE9F045502D0D6A0EF32438
:10369000D96E050EF420DA6EDECF35F0DDCF36F0D0
:1036A00035C01DF036C01EF0000E206E640E1F6E79
:1036B0008DECE6F01D50300F0001CE6F000E1A6E3B
:1036C000640E196E35C017F036C018F046ECE8F0FD
:1036D00017C01DF018C01EF0000E206E0A0E1F6EDF
:1036E0008DECE6F01D50300F0001CF6F35C017F0A4
:1036F00036C018F0000E1A6E0A0E196E46ECE8F08D
:103700001750300F0001D06FCE0E1F6E000E206ECE
:10371000030E216E3AECEAF0000E186E0A0E176ED8
:1037200044ECE5F0C40E1F6EFF0E206E45ECE9F090
:10373000000E186E0A0E176E44ECE5F045502D0D84
:103740006C0EF324D96E050EF420DA6EDECF35F060
:10375000DDCF36F035C01DF036C01EF0000E206EF5
:10376000640E1F6E8DECE6F01D50300F0001CE6F21
:10377000000E1A6E640E196E35C017F036C018F0C0
:1037800046ECE8F017C01DF018C01EF0000E206EC9
:103790000A0E1F6E8DECE6F01D50300F0001CF6F4A
:1037A00035C017F036C018F0000E1A6E0A0E196EEA
:1037B00046ECE8F01750300F0001D06FCE0E1F6EB0
:1037C000000E206E030E216E3AECEAF0000E186E29
:1037D0000A0E176E44ECE5F04A0E1F6EFF0E206EC7
:1037E00045ECE9F0000E186E0A0E176E44ECE5F099
:1037F00045502D0D880EF324D96E050EF420DA6E97
:10380000DF502F6E2F50176E186A000E1A6E0A0EB8
:10381000196EC8ECE1F01750300F0001CE6F455023
:103820002D0D880EF324D96E050EF420DA6EDF50CC
:103830002F6E2F50296E2A6A000E2C6E0A0E2B6EE8
:103840002AECE2F02950300F0001CF6FCE0E1F6E30
:10385000000E206E020E216E3AECEAF0000E186E99
:103860000A0E176E44ECE5F0FA0E1F6EFE0E206E87
:1038700045ECE9F0B4EF9FF0AA0E1F6EFE0E206E2D
:1038800045ECE9F0000E186E0A0E176E44ECE5F0F8
:10389000B4EF9FF0000E186E0A0E176E44ECE5F0C0
:1038A000610E1F6EFF0E206E45ECE9F0000E186EE3
:1038B0000A0E176E44ECE5F0BCC017F0186A000E53
:1038C0001A6E0A0E196EC8ECE1F01750300F0001A5
:1038D000CE6FBCC029F02A6A000E2C6E0A0E2B6E29
:1038E0002AECE2F02950300F0001CF6FCE0E1F6E90
:1038F000000E206E020E216E3AECEAF0000E186EF9
:103900000A0E176E44ECE5F0DA0E1F6EFF0E206E05
:1039100045ECE9F0000E186E0A0E176E44ECE5F067
:10392000A00E1F6EFF0E206E45ECE9F0000E186E23
:103930000A0E176E44ECE5F0BBC017F0186A000ED3
:103940001A6E0A0E196EC8ECE1F01750300F000124
:10395000CE6FBBC029F02A6A000E2C6E0A0E2B6EA9
:103960002AECE2F02950300F0001CF6FCE0E1F6E0F
:10397000000E206E020E216E3AECEAF0000E186E78
:103980000A0E176E44ECE5F0DA0E1F6EFF0E206E85
:1039900045ECE9F0000E186E0A0E176E44ECE5F0E7
:1039A000A90E1F6EFF0E206E45ECE9F0000E186E9A
:1039B0000A0E176E44ECE5F0BAC017F0186A000E54
:1039C0001A6E0A0E196EC8ECE1F01750300F0001A4
:1039D000CE6FBAC029F02A6A000E2C6E0A0E2B6E2A
:1039E0002AECE2F02950300F0001CF6FCE0E1F6E8F
:1039F000000E206E020E216E3AECEAF0000E186EF8
:103A00000A0E176E44ECE5F0E70E1F6EFF0E206EF7
:103A100045ECE9F0000E186E0A0E176E44ECE5F066
:103A20006C0E1F6EFF0E206E45ECE9F0000E186E56
:103A30000A0E176E44ECE5F0B9C017F0186A000ED4
:103A40001A6E0A0E196EC8ECE1F01750300F000123
:103A5000CE6FB9C029F02A6A000E2C6E0A0E2B6EAA
:103A60002AECE2F02950300F0001CF6FCE0E1F6E0E
:103A7000000E206E020E216E3AECEAF0000E186E77
:103A80000A0E176E44ECE5F0DA0E1F6EFF0E206E84
:103A900045ECE9F0000E186E0A0E176E44ECE5F0E6
:103AA000DB0E1F6EFE0E206E45ECE9F0000E186E68
:103AB0000A0E176E44ECE5F09EC035F09FC036F05C
:103AC00035C01DF036C01EF0000E206E640E1F6E55
:103AD0008DECE6F01D50300F0001CE6F000E1A6E17
:103AE000640E196E35C017F036C018F046ECE8F0D9
:103AF00017C01DF018C01EF0000E206E0A0E1F6EBB
:103B00008DECE6F01D50300F0001CF6F35C017F07F
:103B100036C018F0000E1A6E0A0E196E46ECE8F068
:103B20001750300F0001D06FCE0E1F6E000E206EAA
:103B3000030E216E3AECEAF0000E186E0A0E176EB4
:103B400044ECE5F0E70E1F6EFF0E206E45ECE9F049
:103B500042EF9CF0000E456E3AEF9EF0000E326E82
:103B6000CCEF9DF0600E3224D96EDA6A000EDA22B4
:103B70006C0E4524E16EE26A000EE222DE50E61889
:103B8000D8A4C5EF9DF0C7EF9DF0CBEF9DF0010EDF
:103B9000316EDAEF9DF0322A600E3224D96EDA6A85
:103BA000000EDA22DE28D8A4D8EF9DF0DAEF9DF0DF
:103BB000B2EF9DF03150D8A4E0EF9DF0E2EF9DF020
:103BC00037EF9EF06C0E4524D96EDA6A000EDA22C9
:103BD000090EDF60EEEF9DF0F0EF9DF0FEEF9DF03F
:103BE000300E0001CE6F6C0E4524D96EDA6A000EDD
:103BF000DA22DF50310FCF6F26EF9EF06C0E452496
:103C0000D96EDA6A000EDA22080EDF640AEF9EF03F
:103C10000CEF9EF026EF9EF06C0E4524D96EDA6A0A
:103C2000000EDA220C0EDF6018EF9EF01AEF9EF005
:103C300026EF9EF0310E0001CE6F6C0E4524D96E3A
:103C4000DA6A000EDA22DF50270FCF6FCE0E1F6E1A
:103C5000000E206E020E216E3AECEAF0200E14ECFB
:103C6000ECF0000E186E640E176E44ECE5F0000EDA
:103C7000316E452A6C0E4524D96EDA6A000EDA22BE
:103C8000DE28D8B446EF9EF048EF9EF0B4EF9FF0E8
:103C90000B0E45644EEF9EF050EF9EF0AEEF9DF0A0
:103CA000B4EF9FF0000E456EE2EF9EF0000E326E14
:103CB00074EF9EF06C0E3224D96EDA6A000EDA22AE
:103CC000600E4524E16EE26A000EE222DE50E61844
:103CD000D8A46DEF9EF06FEF9EF073EF9EF0010E93
:103CE000316E82EF9EF0322A6C0E3224D96EDA6A7F
:103CF000000EDA22DE28D8A480EF9EF082EF9EF03C
:103D00005AEF9EF03150D8A488EF9EF08AEF9EF0D3
:103D1000DFEF9EF0600E4524D96EDA6A000EDA22DB
:103D2000090EDF6096EF9EF098EF9EF0A6EF9EF0F2
:103D3000300E0001CE6F600E4524D96EDA6A000E97
:103D4000DA22DF50310FCF6FCEEF9EF0600E4524A8
:103D5000D96EDA6A000EDA22080EDF64B2EF9EF046
:103D6000B4EF9EF0CEEF9EF0600E4524D96EDA6A75
:103D7000000EDA220C0EDF60C0EF9EF0C2EF9EF064
:103D8000CEEF9EF0310E0001CE6F600E4524D96E4D
:103D9000DA6A000EDA22DF50270FCF6FCE0E1F6EC9
:103DA000000E206E020E216E3AECEAF0200E14ECAA
:103DB000ECF0000E186E640E176E44ECE5F0000E89
:103DC000316E452A600E4524D96EDA6A000EDA2279
:103DD000DE28D8B4EEEF9EF0F0EF9EF0B4EF9FF047
:103DE0000B0E4564F6EF9EF0F8EF9EF056EF9EF056
:103DF000B4EF9FF0000E456E54EF9FF06C0E45241B
:103E0000D96EDA6A000EDA22090EDF600AEF9FF03F
:103E10000CEF9FF01AEF9FF0300E0001CE6F6C0E8A
:103E20004524D96EDA6A000EDA22DF50310FCF6FE7
:103E300042EF9FF06C0E4524D96EDA6A000EDA224A
:103E4000080EDF6426EF9FF028EF9FF042EF9FF00F
:103E50006C0E4524D96EDA6A000EDA220C0EDF6091
:103E600034EF9FF036EF9FF042EF9FF0310E0001EC
:103E7000CE6F6C0E4524D96EDA6A000EDA22DF505E
:103E8000270FCF6FCE0E1F6E000E206E020E216E1A
:103E90003AECEAF0200E14ECECF0000E186E640E12
:103EA000176E44ECE5F0452A6C0E4524D96EDA6AAB
:103EB000000EDA22DE28D8B460EF9FF062EF9FF0A8
:103EC000B4EF9FF00B0E456468EF9FF06AEF9FF030
:103ED000FEEF9EF0B4EF9FF0760E1F6E010E206E87
:103EE000060E216E3AECEAF016EF97F00001F7515A
:103EF0002F6E306A3050000AD8B481EF9FF0B4EFD3
:103F00009FF02F50010AD8B40EEF97F0030AD8B4EF
:103F10001EEF97F0010AD8B428EF97F0070AD8B43B
:103F200032EF97F0010AD8B43CEF97F0030AD8B407
:103F300000EF98F0010AD8B48CEF98F00F0AD8B4CB
:103F40004AEF9CF0010AD8B4AAEF9DF0030AD8B456
:103F500052EF9EF0010AD8B4FAEF9EF0070AD8B4E7
:103F60006CEF9FF0B4EF9FF0000E3C6E000E476EBA
:103F70001A0E14ECECF0000E186E640E176E44EC82
:103F8000E5F0000E176E000E48ECECF0C9803C50D6
:103F9000D8B4CDEF9FF0CFEF9FF0C7EF9FF00E01A9
:103FA0003885000E176E0F0E48ECECF0010E186EFF
:103FB000F40E176E44ECE5F012003B50D8B4E3EF7A
:103FC0009FF0E5EF9FF02DEFA5F037503810D8A403
:103FD000ECEF9FF0EEEF9FF02DEFA5F00001B05158
:103FE000D8A4F5EF9FF0F7EF9FF02DEFA5F0AA51C1
:103FF000D8A4FDEF9FF0FFEF9FF02DEFA5F0AD519E
:10400000D8A405EFA0F007EFA0F02DEFA5F0AF5179
:10401000D8A40DEFA0F00FEFA0F02DEFA5F06C519C
:104020002D0D8D0EF324D96E050EF420DA6EDE040C
:10403000D8A41DEFA0F01FEFA0F03EEFA2F06C514E
:104040002D0D8F0EF324D96E050EF420DA6EDF509D
:10405000D8B42DEFA0F02FEFA0F03EEFA2F06C51FE
:104060002D0D8A0EF324D96E050EF420DA6EDE04CF
:10407000D8A43DEFA0F03FEFA0F03EEFA2F0000E7D
:10408000186E640E176E44ECE5F08E8C26EEF6F09A
:10409000DF50D8A44EEFA0F050EFA0F04FEFA1F00A
:1040A00027EE23F0DF50D8A458EFA0F05AEFA0F08D
:1040B0004FEFA1F027EE50F0DF50D8A462EFA0F050
:1040C00064EFA0F04FEFA1F027EE7DF0DF50D8A411
:1040D0006CEFA0F06EEFA0F04FEFA1F0000E00012A
:1040E000916F000E906F000E8F6F000E8E6F000E9E
:1040F0008D6F000E8C6F000E8B6F000E8A6F000E9E
:10410000816F000E806F000E7F6F000E7E6F000EBD
:104110007D6F000E7C6F000E7B6F000E7A6F000EBD
:10412000C96F000EC86F000EC76F000EC66F6C51CE
:104130002D0D6E0EF324D96E050EF420DA6EDECF4F
:1041400098F0DDCF99F06C512D0D700EF324D96EDF
:10415000050EF420DA6EDECF96F0DDCF97F06C51CD
:104160002D0D720EF324D96E050EF420DA6EDECF1B
:1041700094F0DDCF95F06C512D0D740EF324D96EB3
:10418000050EF420DA6EDECF92F0DDCF93F06C51A5
:104190002D0D760EF324D96E050EF420DA6EDECFE7
:1041A00088F0DDCF89F06C512D0D780EF324D96E97
:1041B000050EF420DA6EDECF86F0DDCF87F06C518D
:1041C0002D0D7A0EF324D96E050EF420DA6EDECFB3
:1041D00084F0DDCF85F06C512D0D7C0EF324D96E6B
:1041E000050EF420DA6EDECF82F0DDCF83F06C5165
:1041F0002D0D7E0EF324D96E050EF420DA6EDF50FD
:10420000CD6F6C512D0D7F0EF324D96E050EF42069
:10421000DA6EDF50CC6F6C512D0D800EF324D96E09
:10422000050EF420DA6EDF50CB6F6C512D0D810E30
:10423000F324D96E050EF420DA6EDF50CA6F985160
:104240009911D8B426EFA1F028EFA1F02BEFA1F03F
:104250008E84904B912B96519711D8B432EFA1F0E8
:1042600034EFA1F037EFA1F08E868E4B8F2B945157
:104270009511D8B43EEFA1F040EFA1F043EFA1F0CB
:104280008E888C4B8D2B92519311D8B44AEFA1F0AC
:104290004CEFA1F04FEFA1F08E8A8A4B8B2B000ED2
:1042A000456E67EFA1F06C0E4524D96EDA6A000EF8
:1042B000DA22DF5001017D6F7D512D0D8A0EF3242E
:1042C000D96E050EF420DA6E020EDF6E452A6C0EF2
:1042D0004524D96EDA6A000EDA22DE28D8B473EFEC
:1042E000A1F075EFA1F07DEFA1F00B0E45647BEF1F
:1042F000A1F07DEFA1F053EFA1F000016C512D0D65
:10430000900EF324D96E050EF420DA6EDF50D8B487
:104310008CEFA1F08EEFA1F0C8EFA1F0000E456E7A
:10432000A6EFA1F06C0E4524D96EDA6A000EDA22EF
:10433000DF5001017D6F7D512D0D900EF324D96E5C
:10434000050EF420DA6E000EDF6E452A6C0E452451
:10435000D96EDA6A000EDA22DE28D8B4B2EFA1F004
:10436000B4EFA1F0BCEFA1F00B0E4564BAEFA1F0E1
:10437000BCEFA1F092EFA1F0D8ECE2F021C09CF0EC
:1043800022C09DF09CC037F09DC038F0D4EFA1F062
:104390006C512D0D6C0EF324D96E050EF420DA6EDF
:1043A000DECF37F0DDCF38F0000E456E11EFA2F012
:1043B000000E186E640E176E44ECE5F06C0E45248A
:1043C000D96EDA6A000EDA22DF5001017D6F7D516D
:1043D000020D380EF324F66EF30EF420F76EF86A31
:1043E000000EF8220900F5CF1FF00A00F5CF20F0EB
:1043F0006C0E4524D96EDA6A000EDA22DF507E6F29
:104400007E512D0D640EF324216E050EF420226ED4
:10441000B2ECE4F0000E186E640E176E44ECE5F09A
:10442000452A6C0E4524D96EDA6A000EDA22DE289F
:10443000D8B41DEFA2F01FEFA2F027EFA2F00B0EF1
:10444000456425EFA2F027EFA2F0D8EFA1F04EECE3
:10445000E6F0000E186E640E176E44ECE5F0400EA8
:104460000001F36FFC0EF46FE20EF56F000EF66FB5
:104470000B0EF76FD5EC96F0CEEFA7F06C512D0D2B
:104480008D0EF324D96E050EF420DA6EDE04D8A466
:104490004CEFA2F04EEFA2F094EFA3F06C512D0D73
:1044A0008F0EF324D96E050EF420DA6EDF50D8B4E7
:1044B0005CEFA2F05EEFA2F094EFA3F06C512D0D33
:1044C0008A0EF324D96E050EF420DA6E020EDE1881
:1044D000D8A46DEFA2F06FEFA2F094EFA3F0000E5E
:1044E000186E640E176E44ECE5F08E9C26EEF6F026
:1044F000DF50D8A47EEFA2F080EFA2F0A2EFA2F0EE
:1045000027EE23F0DF50D8A488EFA2F08AEFA2F0C4
:10451000A2EFA2F027EE50F0DF50D8A492EFA2F065
:1045200094EFA2F0A2EFA2F027EE7DF0DF50D8A426
:104530009CEFA2F09EEFA2F0A2EFA2F08E948E96D6
:104540008E988E9A000E456E2DEFA3F06C0E4524CA
:10455000D96EDA6A000EDA22DF5001017D6F7D51DB
:104560002D0D8A0EF324D96E050EF420DA6E030E9B
:10457000DF6E6C0E4524D96EDA6A000EDA22DF5047
:104580007D6F7D512D0D880EF324D96E050EF4201C
:10459000DA6EDF066C0E4524D96EDA6A000EDA2276
:1045A000DF507D6F7D512D0D880EF324D96E050EE1
:1045B000F420DA6EDF50D8A4E0EFA2F0E2EFA2F030
:1045C000F4EFA2F06C0E4524D96EDA6A000EDA22FE
:1045D000DF507D6F7D512D0D8F0EF324D96E050EAA
:1045E000F420DA6E000EDF6E000E186E640E176E89
:1045F00044ECE5F06C0E4524D96EDA6A000EDA223E
:10460000DF5001017D6F7D51020D380EF324F66EEF
:10461000F30EF420F76EF86A000EF8220900F5CFC9
:104620001FF00A00F5CF20F06C0E4524D96EDA6A2F
:10463000000EDA22DF507E6F7E512D0D640EF324C2
:10464000216E050EF420226E2CECC1F0000E186EC7
:10465000640E176E44ECE5F0452A6C0E4524D96EC5
:10466000DA6A000EDA22DE28D8B439EFA3F03BEF85
:10467000A3F043EFA3F00B0E456441EFA3F043EF2B
:10468000A3F0A6EFA2F000016C512D0D680EF324EB
:10469000D96E050EF420DA6EDECF7DF1DDCF7EF12E
:1046A0006C512D0D6C0EF324D96E050EF420DA6ECC
:1046B000DECF7FF1DDCF80F16C512D0D6A0EF3243A
:1046C000D96E050EF420DA6EDECF81F1DDCF82F1F6
:1046D0000101811F821F814B822B7F51815F80519D
:1046E000825B7D518125376E7E518221386E000EAE
:1046F000186E640E176E44ECE5F04EECE6F0000E1A
:10470000186E640E176E44ECE5F0210E0001F36F95
:10471000FC0EF46FE20EF56F000EF66F0B0EF76FE6
:10472000D5EC96F0CEEFA7F06C512D0D8D0EF32445
:10473000D96E050EF420DA6EDE04D8A4A2EFA3F041
:10474000A4EFA3F02BEFA5F0000E456EB1EFA3F0A0
:10475000600E4524D96EDA6A000EDA22FF0EDF6E93
:10476000452A0B0E4564B7EFA3F0B9EFA3F0A8EF0D
:10477000A3F0000E456EFAEFA4F06C0E4524D96E3E
:10478000DA6A000EDA22DF5001017D6F7D512D0DB6
:104790008D0EF324D96E050EF420DA6E000EDF6E56
:1047A0006C0E4524D96EDA6A000EDA22600E4524BA
:1047B000E16EE26A000EE222DFCFE7FF6C0E4524D5
