:04000000D1EF02F04A
:060008004D8207EF55F0E8
:100018004D80D8CF0EF0E8CF0FF0E0CF10F0D9CF59
:1000280011F0DACF12F00E0133AB1DEF00F01FEF25
:1000380000F07CEF02F08F96339BE30ED46EB00E87
:10004800D36E0001C32B3E503F10D8B42EEF00F002
:1000580030EF00F04BEF00F08EAE35EF00F037EFE9
:1000680000F04BEF00F03E06D8A03F06BA51D8B4D6
:1000780040EF00F042EF00F04AEF00F0030EBA61E3
:1000880048EF00F04AEF00F04BEF00F0BA2B2BEEF0
:100098005AF0DF50D8A453EF00F055EF00F0BCEF52
:1000A80001F02BEE87F0DF50D8A45DEF00F05FEF92
:1000B80000F0BCEF01F02BEEB4F0DF50D8A467EFEE
:1000C80000F069EF00F0BCEF01F02BEEE1F0DF503B
:1000D800D8A471EF00F073EF00F0BCEF01F08EAC24
:1000E80078EF00F07AEF00F0BCEF01F08EA47FEF1C
:1000F80000F081EF00F09BEF00F09851901907E1B4
:1001080099519119D8A48BEF00F08DEF00F097EF7B
:1001180000F08E94000E916F000E906F804B812B33
:10012800CC2BCAEF00F0904B912BCAEF00F08EB4A5
:10013800A0EF00F0A2EF00F0CAEF00F0885180199C
:1001480007E189518119D8A4ACEF00F0AEEF00F0B7
:10015800C8EF00F0D051CC5DD8B0B5EF00F0B7EFE4
:1001680000F0C0EF00F08E84904B912B000E816F51
:10017800000E806FCAEF00F0010E8825806F000E18
:100188008921816FCAEF00F0804B812B8EA6CFEFBB
:1001980000F0D1EF00F0EBEF00F096518E1907E177
:1001A80097518F19D8A4DBEF00F0DDEF00F0E7EFEF
:1001B80000F08E96000E8F6F000E8E6F7E4B7F2B99
:1001C800CB2B1AEF01F08E4B8F2B1AEF01F08EB666
:1001D800F0EF00F0F2EF00F01AEF01F086517E190F
:1001E80007E187517F19D8A4FCEF00F0FEEF00F07B
:1001F80018EF01F0CF51CB5DD8B005EF01F007EF54
:1002080001F010EF01F08E868E4B8F2B000E7F6F62
:10021800000E7E6F1AEF01F0010E86257E6F000E2C
:1002280087217F6F1AEF01F07E4B7F2B8EA81FEF7F
:1002380001F021EF01F03BEF01F094518C1907E137
:1002480095518D19D8A42BEF01F02DEF01F037EF60
:1002580001F08E98000E8D6F000E8C6F7C4B7D2BFD
:10026800CA2B6AEF01F08C4B8D2B6AEF01F08EB828
:1002780040EF01F042EF01F06AEF01F084517C1980
:1002880007E185517D19D8A44CEF01F04EEF01F03C
:1002980068EF01F0CE51CA5DD8B055EF01F057EFC5
:1002A80001F060EF01F08E888C4B8D2B000E7D6F76
:1002B800000E7C6F6AEF01F0010E84257C6F000E42
:1002C80085217D6F6AEF01F07C4B7D2B8EAA6FEF45
:1002D80001F071EF01F08BEF01F092518A1907E1FB
:1002E80093518B19D8A47BEF01F07DEF01F087EFD4
:1002F80001F08E9A000E8B6F000E8A6F7A4B7B2B63
:10030800C92BBCEF01F08A4B8B2BBCEF01F08EBAE6
:1003180090EF01F092EF01F0BCEF01F082517A19F1
:1003280007E183517B19D8A49CEF01F09EEF01F0FF
:10033800B8EF01F0CD51C95DD8B0A5EF01F0A7EF36
:1003480001F0B0EF01F08E8A8A4B8B2B000E7B6F89
:10035800000E7A6FBCEF01F0010E82257A6F000E55
:1003680083217B6FBCEF01F07A4B7B2BBCEF01F054
:10037800630EC019D8A4C3EF01F0C5EF01F0C9EFAF
:1003880001F0000EC36F7CEF02F0C005D8A4CFEFD8
:1003980001F0D1EF01F0E1EF01F0BE51C319D8A48B
:1003A800D8EF01F0DAEF01F0E1EF01F0000EC36FD2
:1003B8008F8E020EC06F7CEF02F0020EC019D8A417
:1003C800E8EF01F0EAEF01F0FAEF01F0BB51C319D1
:1003D800D8A4F1EF01F0F3EF01F0FAEF01F0000E0D
:1003E800C36F8F9E030EC06F7CEF02F0030EC0191F
:1003F800D8A401EF02F003EF02F013EF02F0BD51B1
:10040800C319D8A40AEF02F00CEF02F013EF02F0C0
:10041800000EC36F8D84040EC06F7CEF02F0040ED3
:10042800C019D8A41AEF02F01CEF02F02CEF02F06A
:10043800BB51C319D8A423EF02F025EF02F02CEF2B
:1004480002F0000EC36F8D94050EC06F7CEF02F0B2
:10045800050EC019D8A433EF02F035EF02F045EFCE
:1004680002F0BD51C319D8A43CEF02F03EEF02F0F0
:1004780045EF02F0000EC36F8D86060EC06F7CEF4D
:1004880002F0060EC019D8A44CEF02F04EEF02F0AD
:100498005EEF02F0BB51C319D8A455EF02F057EF35
:1004A80002F05EEF02F0000EC36F8D96070EC06F6C
:1004B8007CEF02F0070EC019D8A465EF02F067EFD1
:1004C80002F07CEF02F0C3510C6E0D6AA0510C18BB
:1004D80007E1A1510D18D8A474EF02F076EF02F0ED
:1004E8007CEF02F0000EC36F010EC06F7CEF02F0CC
:1004F8000E0138A182EF02F084EF02F089EF02F0DA
:100508008F960001C22B0E01389138A58EEF02F0AC
:1005180090EF02F0C5EF02F08F963895F00EC86E96
:10052800DC0EC76E0001C12BC151C85DD8B09FEF6A
:1005380002F0A1EF02F0BAEF02F04150D8A4A7EF01
:1005480002F0A9EF02F0BAEF02F0010E416E000EC0
:10055800C16FC990B751D8B4B4EF02F0B6EF02F04A
:10056800C5EF02F0010EB66FC5EF02F04150D8B4E6
:10057800C0EF02F0C2EF02F0C5EF02F0000EC16F4B
:10058800C99012C0DAFF11C0D9FF10C0E0FF0FC038
:10059800E8FF0EC0D8FF4D90100098EF5EF0000EF7
:1005A8000501CE6F000ECF6F000ED16F000ED36F16
:1005B800000ED26F000E136E060E146EE00E156E4E
:1005C800010E166E000E186E040E176EB4EC64F071
:1005D80013501410D8A4F3EF02F0F5EF02F005EF72
:1005E80003F0000E4C6EFE0E206EFD0E216EE50E21
:1005F800226E000E236E000E246E86EC18F085EF36
:1006080018F0000E136E060E146EFB0E156E000E1B
:10061800166E000E186E020E176EB4EC64F01350CE
:100628001410D8A41AEF03F01CEF03F063EF03F0E3
:10063800030E136E060E146EF40E156E010E166E72
:10064800000E186E060E176EB4EC64F013501410FA
:10065800D8A431EF03F033EF03F053EF03F0F40EB7
:10066800136E010E146E0A0E156E060E166E000E2F
:10067800186E060E176E90EC66F020EC6AF0000E0D
:100688004C6E410E206EFC0E216EE50E226E000EA1
:10069800236E000E246E86EC18F085EF18F0000E1D
:1006A8004C6E940E206EFD0E216EE50E226E000E2D
:1006B800236E000E246E86EC18F085EF18F0000EFD
:1006C800136E060E146EE90E156E010E166E000EF0
:1006D800186E030E176EB4EC64F013501410D8A4FF
:1006E80078EF03F07AEF03F0F6EF07F0000E05015C
:1006F800D36F000ED26F030E20EC4FF00401F66F9B
:10070800F6290501D16F000E4A6EEEEF03F04A504C
:100718002D0DED0EF324D96E090EF420DA6E0501C5
:10072800D151DE18D8A49BEF03F09DEF03F0EDEF55
:1007380003F04A502D0DF20EF324D96E090EF42061
:10074800DA6E000EDF6E4A502D0DED0EF324D96ED1
:10075800090EF420DA6E000EDF6E4A50020D7C0E90
:10076800F324F66EF30EF420F76E0900F5CF1BF0B4
:100778000A00F5CF1CF04A502D0DC80EF3241D6E4B
:10078800090EF4201E6ED8EC6CF0000E146E640E88
:10079800136EB1EC68F04A50020D7C0EF324F66E2D
:1007A800F30EF420F76E0900F5CF1BF00A00F5CF21
:1007B8001CF04A502D0DC80EF3241D6E090EF420AE
:1007C8001E6E12EC6DF0000E146E640E136EB1EC1A
:1007D80068F04A2A0B0E4A64F4EF03F0F6EF03F0D0
:1007E8008BEF03F0000E4A6E130E4A64FEEF03F01F
:1007F80000EF04F002EF04F00DEF04F0D10E4A24EC
:10080800D96EDA6A000EDA22FF0EDF6E4A2AF8EF96
:1008180003F0000E0501D06F050E4C6E000E4C243F
:10082800D96EDA6A060EDA22200EDE18D8A41FEF77
:1008380004F021EF04F04FEF04F0D02B070ED0198D
:10084800D8A429EF04F02BEF04F04FEF04F0000ECA
:100858004A6E40EF04F04C2820EC4FF00401F66F8C
:10086800D10E4A24D96EDA6A000EDA22F6C4DFFF06
:100878004C50020F4C6E4A2A010E4C24D96EDA6A8B
:10088800060EDA22200EDE18D8A44DEF04F04FEF42
:1008980004F02FEF04F04C2A060E0501D06557EF3F
:1008A80004F059EF04F012EF04F0000E4A6EADEFB9
:1008B80007F0010E0501D06F060E4C6E000E4C2499
:1008C800D96EDA6A060EDA22DF50B3EC6DF0000951
:1008D800D8B471EF04F073EF04F04EEF06F0070E92
:1008E8000501D019D8B47BEF04F07DEF04F083EF55
:1008F80006F0010E4C24D96EDA6A060EDA22200EB2
:10090800DE18D8A48AEF04F08CEF04F09EEF04F010
:10091800000E4C24D96EDA6A060EDA22DF50D00FA8
:100928004B6E4B500501D225D26F000ED321D36FE9
:1009380083EF06F0000E4C24D96EDA6A060EDA222E
:10094800DF50D00F4B6E4B500A0DF3CF4BF0D2C592
:1009580013F0D3C514F0000E166E0A0E156EC9EC0E
:100968006DF013C0D2F514C0D3F595EF04F0D10E95
:100978004A24D96EDA6A000EDA22DF50F66FF65191
:100988002D0DCC0EF324D96E090EF420DA6ED2C5E3
:10099800DEFFD3C5DDFF000E0501D36F000ED26F59
:1009A80081EF06F0D10E4A24D96EDA6A000EDA22F7
:1009B800DF50F66FF6512D0DE60EF324D96E090EB1
:1009C800F420DA6ED2C5DFFFCFEF04F0D10E4A244F
:1009D800D96EDA6A000EDA22DF50F66FF6512D0D65
:1009E800E70EF324D96E090EF420DA6ED2C5DFFFC4
:1009F800CFEF04F0D10E4A24D96EDA6A000EDA225B
:100A0800DF50F66FF6512D0DE80EF324D96E090E5E
:100A1800F420DA6ED2C5DFFFCFEF04F0D10E4A24FE
:100A2800D96EDA6A000EDA22DF50F66FF6512D0D14
:100A3800C80EF324D96E090EF420DA6ED2C5DEFF93
:100A4800D3C5DDFFCFEF04F0D10E4A24D96EDA6AA0
:100A5800000EDA22DF50F66FF6512D0DCA0EF32480
:100A6800D96E090EF420DA6ED2C5DEFFD3C5DDFFDC
:100A7800CFEF04F0D10E4A24D96EDA6A000EDA22DA
:100A8800DF50F66FF6512D0DED0EF324D96E090ED9
:100A9800F420DA6ED1C5DFFFCFEF04F0D10E4A247F
:100AA800D96EDA6A000EDA22DF50F66FF6512D0D94
:100AB800EF0EF324D96E090EF420DA6ED2C5DFFFEB
:100AC800D10E4A24D96EDA6A000EDA22DF50F66FA8
:100AD800F6512D0DF00EF324D96E090EF420DA6EBE
:100AE800D2C5DFFFCFEF04F00501D25188EC48F002
:100AF800000E0501D36F000ED26FD10E4A24D96EB5
:100B0800DA6A000EDA22DF500401F66FF6512D0D75
:100B1800E90EF324D96E090EF420DA6E9EC0DFFFC9
:100B2800D10E4A24D96EDA6A000EDA22DF50F66F47
:100B3800F6512D0DEA0EF324D96E090EF420DA6E63
:100B480042C0DFFFD10E4A24D96EDA6A000EDA22DB
:100B5800DF50F66FF6512D0DEB0EF324D96E090E0A
:100B6800F420DA6E43C0DFFFD10E4A24D96EDA6A68
:100B7800000EDA22DF50F66FF6512D0DF10EF32438
:100B8800D96E090EF420DA6E000EDF6ED10E4A24FB
:100B9800D96EDA6A000EDA22DF50F66FF6512D0DA3
:100BA800F20EF324D96E090EF420DA6E010EDF6E10
:100BB800D10E4A24D96EDA6A000EDA22DF50F66FB7
:100BC800F6512D0DCE0EF324D96E090EF420DA6EEF
:100BD800000EDE6E000EDD6ED10E4A24D96EDA6A82
:100BE800000EDA22DF50F66FF6512D0DD00EF324E9
:100BF800D96E090EF420DA6E000EDE6E000EDD6E80
:100C0800D10E4A24D96EDA6A000EDA22DF50F66F66
:100C1800F6512D0DEC0EF324D96E090EF420DA6E80
:100C2800000EDF6ED10E4A24D96EDA6A000EDA227F
:100C3800DF50F66FF6512D0DF30EF324D96E090E21
:100C4800F420DA6E000EDF6ED10E4A24D96EDA6A0D
:100C5800000EDA22DF50F66FF6512D0DEE0EF3245A
:100C6800D96E090EF420DA6E000EDF6ED10E4A241A
:100C7800D96EDA6A000EDA22DF50F66FF6512D0DC2
:100C8800F40EF324D96E090EF420DA6E000EDF6E2E
:100C980081EF06F00501D0510401F66FF76BF751AB
:100CA800000AD8B45AEF06F081EF06F0F651010AAF
:100CB800D8B4BBEF04F0030AD8B4D6EF04F0010AA5
:100CC800D8B4EAEF04F0070AD8B4FEEF04F0010A3A
:100CD800D8B412EF05F0030AD8B428EF05F0010ADA
:100CE800D8B43EEF05F00F0AD8B452EF05F0010A68
:100CF800D8B478EF05F081EF06F00501D02B4C2A27
:100D0800090ED0658AEF06F08CEF06F062EF04F06A
:100D1800000E146E640E136EB1EC68F0D10E4A2406
:100D2800D96EDA6A000EDA22DF500401F66FF65146
:100D3800020D7C0EF324F66EF30EF420F76E090014
:100D4800F5CF1BF00A00F5CF1CF0D10E4A24D96E5E
:100D5800DA6A000EDA22DF50F76FF7512D0DC80E50
:100D6800F3241D6E090EF4201E6EA6EC58F0000E3A
:100D7800146E640E136EB1EC68F0D10E4A24D96E6D
:100D8800DA6A000EDA22DF500401F66FF651020D1E
:100D98007C0EF324F66EF30EF420F76E0900F5CFFF
:100DA8001BF00A00F5CF1CF0D10E4A24D96EDA6A7E
:100DB800000EDA22DF50F76FF7512D0DC80EF3241D
:100DC8001D6E090EF4201E6E68EC68F0000E146E9D
:100DD800640E136EB1EC68F0D10E4A24D96EDA6A4B
:100DE800000EDA22DF500401F66FF651020D7C0E78
:100DF800F324F66EF30EF420F76E0900F5CF1BF01E
:100E08000A00F5CF1CF0D10E4A24D96EDA6A000E1A
:100E1800DA22DF50F76FF7512D0DC80EF3241D6E3F
:100E2800090EF4201E6E2FEC6DF0000E146E640E89
:100E3800136EB1EC68F0D10E4A24D96EDA6A000E4E
:100E4800DA22DF500401F66FF651020D7C0EF3240E
:100E5800F66EF30EF420F76E0900F5CF1BF00A00CA
:100E6800F5CF1CF0D10E4A24D96EDA6A000EDA22C8
:100E7800DF50F76FF7512D0DC80EF3241D6E090EC4
:100E8800F4201E6EF5EC6CF0000E146E640E136EFA
:100E9800B1EC68F0D10E4A24D96EDA6A000EDA2273
:100EA800DF500401F66FF651020D7C0EF324F66E46
:100EB800F30EF420F76E0900F5CF1BF00A00F5CF0A
:100EC8001CF0D10E4A24D96EDA6A000EDA22DF50FD
:100ED800F76FF7512D0DC80EF3241D6E090EF4207F
:100EE8001E6E12EC6DF0000E146E640E136EB1ECF3
:100EF80068F0D10E4A24D96EDA6A000EDA22DF5081
:100F08000401F66FF651020D7C0EF324F66EF30E13
:100F1800F420F76E0900F5CF1BF00A00F5CF1CF09E
:100F2800D10E4A24D96EDA6A000EDA22DF50F76F42
:100F3800F7512D0DC80EF3241D6E090EF4201E6EF8
:100F4800D3EC45F0000E146E640E136EB1EC68F02D
:100F58004A2AD10E4A24D96EDA6A000EDA22DE282D
:100F6800D8A4B9EF07F0BBEF07F05DEF04F00A0E65
:100F78000501D161C2EF07F0C4EF07F0CEEF07F02B
:100F8800300E0001D16F0501D151300F0001D26F31
:100F9800E6EF07F0090ED165D4EF07F0D6EF07F0BA
:100FA800E6EF07F00D0ED161DCEF07F0DEEF07F09A
:100FB800E6EF07F0310E0001D16F0501D151260F80
:100FC8000001D26F000E4C6E950E206EFB0E216E46
:100FD800E50E226E000E236E020E246E86EC18F0CB
:100FE80085EF18F0000E136E060E146EDB0E156EEC
:100FF800010E166E000E186E040E176EB4EC64F037
:1010080013501410D8A40BEF08F00DEF08F0DDEF23
:1010180009F04B68000E0001AF6F040E20EC4FF092
:101028000401F66FF6290501D16F000E4A6E64EFD0
:1010380008F04A502D0DED0EF324D96E090EF42058
:10104800DA6ED151DE18D8A42CEF08F02EEF08F094
:1010580063EF08F04A502D0DF20EF324D96E090EF5
:10106800F420DA6EDE04D8A43CEF08F03EEF08F076
:1010780063EF08F04AC04BF04A502D0DF10EF324EF
:10108800D96E090EF420DA6EDE04D8A44EEF08F00B
:1010980050EF08F06CEF08F0010E0001AF6F4A50F6
:1010A8002D0DED0EF324D96E090EF420DA6EDF5003
:1010B8000401F66FF6290001F26F6CEF08F04A2A76
:1010C8000B0E4A646AEF08F06CEF08F01DEF08F0A9
:1010D8004B28D8A472EF08F074EF08F0AFEF08F0CF
:1010E8000A0E0501D1617BEF08F07DEF08F087EF6C
:1010F80008F0300E0001D16F0501D151300F000109
:10110800D26F9FEF08F0090ED1658DEF08F08FEFD1
:1011180008F09FEF08F00D0ED16195EF08F097EFFA
:1011280008F09FEF08F0310E0001D16F0501D15191
:10113800260F0001D26F000E4C6E480E206EFB0E7B
:10114800216EE50E226E000E236E020E246E86ECD2
:1011580018F085EF18F0000E4A6E9AEF09F04A5021
:101168002D0DED0EF324D96E090EF420DA6E05016B
:10117800D151DE18D8A4C3EF08F0C5EF08F099EFF5
:1011880009F04A502D0DF20EF324D96E090EF42001
:10119800DA6E000EDF6E4A502D0DED0EF324D96E77
:1011A800090EF420DA6E000EDF6E4A50020D7C0E36
:1011B800F324F66EF30EF420F76E0900F5CF1BF05A
:1011C8000A00F5CF1CF04A502D0DC80EF3241D6EF1
:1011D800090EF4201E6ED8EC6CF0000E146E640E2E
:1011E800136EB1EC68F04A50020D7C0EF324F66ED3
:1011F800F30EF420F76E0900F5CF1BF00A00F5CFC7
:101208001CF04A502D0DC80EF3241D6E090EF42053
:101218001E6E12EC6DF0000E146E640E136EB1ECBF
:1012280068F04A502D0DF30EF324D96E090EF42000
:10123800DA6EDE04D8A423EF09F025EF09F04DEFAC
:1012480009F04A502D0DF30EF324D96E090EF4203F
:10125800DA6E000EDF6E4A50020D7C0EF324F66E35
:10126800F30EF420F76E0900F5CF1BF00A00F5CF56
:101278001CF04A502D0DC80EF3241D6E090EF420E3
:101288001E6ED3EC45F0000E146E640E136EB1ECB6
:1012980068F04A502D0DEF0EF324D96E090EF42094
:1012A800DA6E4A502D0DF00EF324E16E090EF4208B
:1012B800E26EDE50E618D8A464EF09F066EF09F094
:1012C80072EF09F04A502D0DF00EF324D96E090E75
:1012D800F420DA6E010EDF6E7BEF09F04A502D0D17
:1012E800F00EF324D96E090EF420DA6EDF2A4A5084
:1012F800020D7C0EF324F66EF30EF420F76E09004F
:10130800F5CF1BF00A00F5CF1CF04A502D0DC80E82
:10131800F3241D6E090EF4201E6EF5EC6CF0000E21
:10132800146E640E136EB1EC68F04A2A0B0E4A6410
:10133800A0EF09F0A2EF09F0B3EF08F00A0E0501DB
:10134800D161A9EF09F0ABEF09F0B5EF09F0300E64
:101358000001D16F0501D151300F0001D26FCDEFDF
:1013680009F0090ED165BBEF09F0BDEF09F0CDEF2B
:1013780009F00D0ED161C3EF09F0C5EF09F0CDEF0B
:1013880009F0310E0001D16F0501D151260F00017E
:10139800D26F000E4C6E660E206EFA0E216EE50EB0
:1013A800226E000E236E020E246E86EC18F085EF76
:1013B80018F0000E136E060E146EDE0E156E020E79
:1013C800166E000E186E060E176EB4EC64F013500D
:1013D8001410D8A4F2EF09F0F4EF09F08FEF0EF033
:1013E800000E0501D36F000ED26F000ED06F060EEF
:1013F80020EC4FF00401F66FF6290501D16F000EBD
:101408004A6E4DEF0EF04A502D0DED0EF324D96EB5
:10141800090EF420DA6ED151DE18D8A416EF0AF0BE
:1014280018EF0AF04CEF0EF04A502D0DF20EF3248F
:10143800D96E090EF420DA6EDE04D8A426EF0AF07D
:1014480028EF0AF04CEF0EF0090E4C6E0E0E050157
:10145800D06531EF0AF033EF0AF035EF0AF04CEFC0
:101468000EF0000E4C24D96EDA6A060EDA22DF502E
:10147800B3EC6DF00009D8B444EF0AF046EF0AF077
:1014880084EF0AF0010E4C24D96EDA6A060EDA22CD
:10149800200EDE18D8A453EF0AF055EF0AF067EFD4
:1014A8000AF0000E4C24D96EDA6A060EDA22DF50F2
:1014B800D00F4B6E4B500501D225D26F000ED321B1
:1014C800D36F49EF0EF0000E4C24D96EDA6A060E7F
:1014D800DA22DF50D00F4B6E4B500A0DF3CF4BF092
:1014E800D2C513F0D3C514F0000E166E0A0E156E91
:1014F800C9EC6DF013C0D2F514C0D3F55EEF0AF055
:101508000501D02BFFEF0DF04A502D0DCE0EF32420
:10151800D96E090EF420DA6ED2C5DEFFD3C5DDFF21
:10152800000E0501D36F000ED26F49EF0EF04A503E
:101538002D0DD00EF324D96E090EF420DA6ED2C523
:10154800DEFFD3C5DDFF94EF0AF04A502D0DEC0EF7
:10155800F324D96E090EF420DA6ED2C5DFFF94EFBA
:101568000AF04A502D0DD20EF324D96E090EF4203C
:10157800DA6ED2C5DEFFD3C5DDFF94EF0AF04A501C
:101588002D0DDA0EF324D96E090EF420DA6ED2C5C9
:10159800DEFFD3C5DDFF94EF0AF04A502D0DE20EB1
:1015A800F324D96E090EF420DA6ED2C5DFFF94EF6A
:1015B8000AF04A502D0DD40EF324D96E090EF420EA
:1015C800DA6ED2C5DEFFD3C5DDFF94EF0AF04A50CC
:1015D8002D0DDC0EF324D96E090EF420DA6ED2C577
:1015E800DEFFD3C5DDFF94EF0AF04A502D0DE30E60
:1015F800F324D96E090EF420DA6ED2C5DFFF94EF1A
:101608000AF04A502D0DD60EF324D96E090EF42097
:10161800DA6ED2C5DEFFD3C5DDFF94EF0AF04A507B
:101628002D0DDE0EF324D96E090EF420DA6ED2C524
:10163800DEFFD3C5DDFF94EF0AF04A502D0DE40E0E
:10164800F324D96E090EF420DA6ED2C5DFFF94EFC9
:101658000AF04A502D0DD80EF324D96E090EF42045
:10166800DA6ED2C5DEFFD3C5DDFF94EF0AF04A502B
:101678002D0DE00EF324D96E090EF420DA6ED2C5D2
:10168800DEFFD3C5DDFF94EF0AF04A502D0DE50EBD
:10169800F324D96E090EF420DA6ED2C5DFFF4A5062
:1016A8002D0DEE0EF324D96E090EF420DA6E000E1D
:1016B800DF6E4A502D0DF40EF324D96E090EF42076
:1016C800DA6E000EDF6E000E0501D36F000ED26FCA
:1016D8004A502D0DCC0EF324D96E090EF420DA6E83
:1016E8004A502D0DD00EF324E16E090EF420E26E5F
:1016F800E6CFF8F4E5CFF9F44A502D0DCE0EF324D9
:10170800E16E090EF420E26EE6CFFAF4E5CFFBF4C1
:101718000401F851FA27F951FB23DE50FA5DDE5037
:10172800FB59D8A09AEF0BF09CEF0BF0E1EF0BF010
:101738004A502D0DF30EF324D96E090EF420DA6EFB
:10174800000EDF6E0A0E0501D161ADEF0BF0AFEFB1
:101758000BF0B9EF0BF0300E0001D16F0501D1513C
:10176800300F0001D26FD1EF0BF0090ED165BFEF3A
:101778000BF0C1EF0BF0D1EF0BF00D0ED161C7EFFD
:101788000BF0C9EF0BF0D1EF0BF0310E0001D16F68
:101798000501D151260F0001D26F000E4C6E980E34
:1017A800206EF90E216EE50E226E000E236E020EDB
:1017B800246E86EC18F085EF18F04A502D0DF30EC4
:1017C800F324D96E090EF420DA6E010EDF6E000ED6
:1017D800146E640E136EB1EC68F04A50020D7C0E64
:1017E800F324F66EF30EF420F76E0900F5CF1BF024
:1017F8000A00F5CF1CF04A502D0DC80EF3241D6EBB
:10180800090EF4201E6ED3EC45F0000E146E640E23
:10181800136EB1EC68F04AC04BF0000E4A6EBCEF94
:101828000DF04B504A18D8B41CEF0CF01EEF0CF01A
:10183800BBEF0DF04A502D0DF20EF324D96E090EB0
:10184800F420DA6EDF50D8B42CEF0CF02EEF0CF049
:10185800BBEF0DF04B502D0DED0EF324D96E090E94
:10186800F420DA6E4A502D0DED0EF324E16E090EC8
:10187800F420E26EDE50E618D8A445EF0CF047EFEE
:101888000CF0BBEF0DF04A502D0DF30EF324D96E7A
:10189800090EF420DA6E010EDF6E4B502D0DCE0EC0
:1018A800F324D96E090EF420DA6E4A502D0DCE0EAF
:1018B800F324E16E090EF420E26EDECFE6FFDDCF01
:1018C800E5FF4B502D0DD00EF324D96E090EF420F0
:1018D800DA6E4A502D0DD00EF324E16E090EF42075
:1018E800E26EDECFE6FFDDCFE5FF4B502D0DEC0EAF
:1018F800F324D96E090EF420DA6E4A502D0DEC0E41
:10190800F324E16E090EF420E26EDFCFE7FF4B50BF
:101918002D0DD20EF324D96E090EF420DA6E4A503A
:101928002D0DD20EF324E16E090EF420E26EDECF07
:10193800E6FFDDCFE5FF4B502D0DDA0EF324D96E0F
:10194800090EF420DA6E4A502D0DDA0EF324E16EFA
:10195800090EF420E26EDECFE6FFDDCFE5FF4B5047
:101968002D0DE20EF324D96E090EF420DA6E4A50DA
:101978002D0DE20EF324E16E090EF420E26EDFCFA6
:10198800E7FF4B502D0DD40EF324D96E090EF42029
:10199800DA6E4A502D0DD40EF324E16E090EF420B0
:1019A800E26EDECFE6FFDDCFE5FF4B502D0DDC0EFE
:1019B800F324D96E090EF420DA6E4A502D0DDC0E90
:1019C800F324E16E090EF420E26EDECFE6FFDDCFF0
:1019D800E5FF4B502D0DE30EF324D96E090EF420CC
:1019E800DA6E4A502D0DE30EF324E16E090EF42051
:1019F800E26EDFCFE7FF4B502D0DD60EF324D96EE4
:101A0800090EF420DA6E4A502D0DD60EF324E16E3D
:101A1800090EF420E26EDECFE6FFDDCFE5FF4B5086
:101A28002D0DDE0EF324D96E090EF420DA6E4A501D
:101A38002D0DDE0EF324E16E090EF420E26EDECFEA
:101A4800E6FFDDCFE5FF4B502D0DE40EF324D96EF4
:101A5800090EF420DA6E4A502D0DE40EF324E16EDF
:101A6800090EF420E26EDFCFE7FF4B502D0DD80EA4
:101A7800F324D96E090EF420DA6E4A502D0DD80ED3
:101A8800F324E16E090EF420E26EDECFE6FFDDCF2F
:101A9800E5FF4B502D0DE00EF324D96E090EF4200E
:101AA800DA6E4A502D0DE00EF324E16E090EF42093
:101AB800E26EDECFE6FFDDCFE5FF4B502D0DE50EE4
:101AC800F324D96E090EF420DA6E4A502D0DE50E76
:101AD800F324E16E090EF420E26EDFCFE7FF4B50EE
:101AE8002D0DEE0EF324D96E090EF420DA6E4A504D
:101AF8002D0DEE0EF324E16E090EF420E26EDFCF19
:101B0800E7FF4B502D0DF40EF324D96E090EF42087
:101B1800DA6E4A502D0DF40EF324E16E090EF4200E
:101B2800E26EDFCFE7FF000E146E640E136EB1ECA9
:101B380068F04A50020D7C0EF324F66EF30EF42082
:101B4800F76E0900F5CF1BF00A00F5CF1CF04A50DC
:101B58002D0DC80EF3241D6E090EF4201E6ED3EC55
:101B680045F0000E146E640E136EB1EC68F04A2A4C
:101B78000B0E4A64C2EF0DF0C4EF0DF015EF0CF038
:101B88000A0E0501D161CBEF0DF0CDEF0DF0D7EFC7
:101B98000DF0300E0001D16F0501D151300F000159
:101BA800D26FEFEF0DF0090ED165DDEF0DF0DFEF2D
:101BB8000DF0EFEF0DF00D0ED161E5EF0DF0E7EF51
:101BC8000DF0EFEF0DF0310E0001D16F0501D1518D
:101BD800260F0001D26F000E4C6EFF0E206EFB0E1A
:101BE800216EE50E226E000E236E020E246E86EC28
:101BF80018F085EF18F0D0510401F66FF76BF75124
:101C0800000AD8B40AEF0EF049EF0EF0F651010AB7
:101C1800D8B488EF0AF0030AD8B49BEF0AF0010A97
:101C2800D8B4A9EF0AF0070AD8B4B5EF0AF0010A48
:101C3800D8B4C3EF0AF0030AD8B4D1EF0AF0010A06
:101C4800D8B4DDEF0AF00F0AD8B4EBEF0AF0010AB6
:101C5800D8B4F9EF0AF0030AD8B405EF0BF0010A7B
:101C6800D8B413EF0BF0070AD8B421EF0BF0010A30
:101C7800D8B42DEF0BF0030AD8B43BEF0BF0010AF0
:101C8800D8B449EF0BF049EF0EF04C2A2AEF0AF0CE
:101C98004A2A0B0E4A6453EF0EF055EF0EF007EF89
:101CA8000AF00A0ED1615BEF0EF05DEF0EF067EF00
:101CB8000EF0300E0001D16F0501D151300F000137
:101CC800D26F7FEF0EF0090ED1656DEF0EF06FEF5A
:101CD8000EF07FEF0EF00D0ED16175EF0EF077EF7D
:101CE8000EF07FEF0EF0310E0001D16F0501D151DA
:101CF800260F0001D26F000E4C6E850E206EF70E77
:101D0800216EE50E226E000E236E020E246E86EC06
:101D180018F085EF18F0000E136E060E146EC80E3C
:101D2800156E020E166E000E186E070E176EB4ECC6
:101D380064F013501410D8A4A4EF0EF0A6EF0EF020
:101D4800CFEF0FF04B68000E0001AF6F070E20ECCD
:101D58004FF00401F66FF6290501D16F000E4A6EA7
:101D680020EF0FF04A502D0DED0EF324D96E090E19
:101D7800F420DA6ED151DE18D8A4C5EF0EF0C7EF03
:101D88000EF01FEF0FF04A502D0DF20EF324D96E0E
:101D9800090EF420DA6EDE04D8A4D5EF0EF0D7EFE2
:101DA8000EF01FEF0FF04A502D0DF30EF324D96EED
:101DB800090EF420DA6EDE04D8A4E5EF0EF0E7EFA2
:101DC8000EF01FEF0FF04AC04BF04A502D0DF10EE8
:101DD800F324D96E090EF420DA6EDE04D8A4F7EFE6
:101DE8000EF0F9EF0EF028EF0FF04A502D0DEE0E21
:101DF800F324D96E090EF420DA6EDE04D8B407EFA6
:101E08000FF009EF0FF01AEF0FF04A502D0DEE0EFC
:101E1800F324D96E090EF420DA6E020EDE18D8A467
:101E280018EF0FF01AEF0FF028EF0FF0010E000176
:101E3800AF6F28EF0FF04A2A0B0E4A6426EF0FF017
:101E480028EF0FF0B6EF0EF04B28D8A42EEF0FF0C6
:101E580030EF0FF04DEF0FF00A0E0501D16137EFAB
:101E68000FF039EF0FF03BEF0FF07DEF08F0090EA0
:101E7800D16541EF0FF043EF0FF09FEF08F00D0E23
:101E8800D16149EF0FF04BEF0FF09FEF08F097EF9C
:101E980008F0000E4A6E8CEF0FF04A502D0DED0E33
:101EA800F324D96E090EF420DA6E0501D151DE183B
:101EB800D8A461EF0FF063EF0FF08BEF0FF04A50EB
:101EC8002D0DF30EF324D96E090EF420DA6E000EF0
:101ED800DF6E4A50020D7C0EF324F66EF30EF420EA
:101EE800F76E0900F5CF1BF00A00F5CF1CF04A5039
:101EF8002D0DC80EF3241D6E090EF4201E6ED3ECB2
:101F080045F0000E146E640E136EB1EC68F04A2AA8
:101F18000B0E4A6492EF0FF094EF0FF051EF0FF0B1
:101F28000A0E0501D1619BEF0FF09DEF0FF0A7EFAF
:101F38000FF0300E0001D16F0501D151300F0001B3
:101F4800D26FBFEF0FF0090ED165ADEF0FF0AFEF15
:101F58000FF0BFEF0FF00D0ED161B5EF0FF0B7EF37
:101F68000FF0BFEF0FF0310E0001D16F0501D15115
:101F7800260F0001D26F000E4C6EDC0E206EFB0E99
:101F8800216EE50E226E000E236E020E246E86EC84
:101F980018F085EF18F0000E136E060E146ED70EAB
:101FA800156E020E166E000E186E060E176EB4EC45
:101FB80064F013501410D8A4E4EF0FF0E6EF0FF01C
:101FC800AFEF10F0000E0501D36F000ED26F000EB8
:101FD800D06F060E4C6E000E4C24D96EDA6A060ECF
:101FE800DA22DF50B3EC6DF00009D8B4FEEF0FF041
:101FF80000EF10F03EEF10F0010E4C24D96EDA6AB3
:10200800060EDA22200EDE18D8A40DEF10F00FEF1E
:1020180010F021EF10F0000E4C24D96EDA6A060E8B
:10202800DA22DF50D00F4B6E4B500501D225D26F0C
:10203800000ED321D36F87EF10F0000E4C24D96E19
:10204800DA6A060EDA22DF50D00F4B6E4B500A0DBB
:10205800F3CF4BF0D2C513F0D3C514F0000E166EB3
:102068000A0E156EC9EC6DF013C0D2F514C0D3F585
:1020780018EF10F00501D02B65EF10F0D2C5BEF0B7
:10208800000E0501D36F000ED26F87EF10F0D2C596
:10209800BDF044EF10F0D2C5BCF044EF10F0D2C54B
:1020A800BBF044EF10F0D2C5A0F00001A16B000E08
:1020B8000501D36F000ED26F010E0001A86F87EFE4
:1020C80010F0D0510401F66FF76BF751000AD8B43D
:1020D80070EF10F087EF10F0F651010AD8B442EF14
:1020E80010F0030AD8B44BEF10F0010AD8B44FEF40
:1020F80010F0070AD8B453EF10F0010AD8B457EF1C
:1021080010F087EF10F04C2A040E0501D0658FEF10
:1021180010F091EF10F0EFEF0FF0000E146E640E58
:10212800136EB1EC68F033EC5DF0000E146E640EC3
:10213800136EB1EC68F0000E4C6E2E0E206EFD0E84
:10214800216EE50E226E000E236E000E246E86ECC4
:1021580018F085EF18F0000E136E060E146EC00E00
:10216800156E020E166E000E186E070E176EB4EC82
:1021780064F013501410D8A4C4EF10F0C6EF10F098
:10218800E7EF10F0000E0001A86F000E146E640E49
:10219800136EB1EC68F033EC5DF0000E146E640E53
:1021A800136EB1EC68F0000E4C6EDB0E206EFC0E68
:1021B800216EE50E226E000E236E000E246E86EC54
:1021C80018F085EF18F0000E136E060E146EEB0E65
:1021D800156E020E166E000E186E050E176EB4EC14
:1021E80064F013501410D8A4FCEF10F0FEEF10F0B8
:1021F80027EF11F00001A851D8B405EF11F007EF4F
:1022080011F017EF11F0000E4C6E130E206EFD0E3C
:10221800216EE50E226E000E236E080E246E86ECEB
:1022280018F085EF18F0000E4C6E210E206EFC0E93
:10223800216EE50E226E000E236E000E246E86ECD3
:1022480018F085EF18F0000E136E060E146ED10EFE
:10225800156E010E166E000E186E040E176EB4EC95
:1022680064F013501410D8A43CEF11F03EEF11F0B5
:10227800FFEF11F0000E0501D36F000ED26F000EB4
:10228800D06F050E4C6E000E4C24D96EDA6A060E1D
:10229800DA22DF50B3EC6DF00009D8B456EF11F034
:1022A80058EF11F0C9EF11F0000E4C24D96EDA6A1C
:1022B800060EDA22DF50D00F4B6E4BC0D2F5050167
:1022C800D36BD2C513F0D3C514F0000E166E0A0EE8
:1022D800156EC9EC6DF013C0D2F514C0D3F5010E1C
:1022E8004C24D96EDA6A060EDA22DF50D00F4B6E14
:1022F8004B500501D225D26F000ED321D36FD02BBE
:10230800A3EF11F0D2C546F0000E0501D36F000E01
:10231800D26FD9EF11F0D2C547F088EF11F0D2C5CE
:1023280048F088EF11F0D2C545F088EF11F0D2C51A
:1023380044F088EF11F0D2C5BFF088EF11F0D0510A
:102348000401F66FF76BF751000AD8B4AEEF11F03D
:10235800D9EF11F0F651010AD8B486EF11F0030A4B
:10236800D8B48FEF11F0010AD8B493EF11F0070A2F
:10237800D8B497EF11F0010AD8B49BEF11F0030A13
:10238800D8B49FEF11F0D9EF11F0000E4C6EF80E93
:10239800206EFC0E216EE50E226E000E236E000EDE
:1023A800246E86EC18F085EF18F0030E4C26050E07
:1023B8000501D065E2EF11F0E4EF11F047EF11F0FD
:1023C800060ED019D8A4EBEF11F0EDEF11F0EFEFF6
:1023D80011F0D4EC67F0000E4C6E1F0E206EFB0E51
:1023E800216EE50E226E000E236E000E246E86EC22
:1023F80018F085EF18F0000E136E060E146ED60E48
:10240800156E010E166E000E186E040E176EB4ECE3
:1024180064F013501410D8A414EF12F016EF12F051
:10242800CEEF12F03AEC66F046C013F0146A000ED4
:10243800166E0A0E156E80EC65F01350300F000111
:10244800D16F46C013F0146A000E166E0A0E156E90
:10245800E2EC65F01350300F0001D26F2F0ED36FEE
:1024680047C013F0146A000E166E0A0E156E80EC43
:1024780065F01350300F0001D46F47C013F0146A91
:10248800000E166E0A0E156EE2EC65F01350300F52
:102498000001D56F2F0ED66F48C013F0146A000ED6
:1024A800166E0A0E156E80EC65F01350300F0001A1
:1024B800D76F48C013F0146A000E166E0A0E156E18
:1024C800E2EC65F01350300F0001D86F200ED96F81
:1024D80045C013F0146A000E166E0A0E156E80ECD5
:1024E80065F01350300F0001DA6F45C013F0146A1D
:1024F800000E166E0A0E156EE2EC65F01350300FE2
:102508000001DB6F3A0EDC6F44C013F0146A000E52
:10251800166E0A0E156E80EC65F01350300F000130
:10252800DD6F44C013F0146A000E166E0A0E156EA5
:10253800E2EC65F01350300F0001DE6F3A0EDF6FEA
:10254800BFC013F0146A000E166E0A0E156E80ECEA
:1025580065F01350300F0001E06FBFC013F0146A2C
:10256800000E166E0A0E156EE2EC65F01350300F71
:102578000001E16F000E4C6E3C0E206EFE0E216EC7
:10258800E50E226E000E236E030E246E86EC18F004
:1025980085EF18F0000E136E060E146EB80E156E49
:1025A800020E166E000E186E070E176EB4EC64F06D
:1025B80013501410D8A4E3EF12F0E5EF12F02FEF48
:1025C80013F0070E20EC4FF04A6E090E4A60EFEF49
:1025D80012F0F1EF12F0F9EF12F0300E0001D16FA6
:1025E8004A50310FD26F0FEF13F0080E4A64FFEF15
:1025F80012F001EF13F00FEF13F00C0E4A6007EF23
:1026080013F009EF13F00FEF13F0310E0001D16F43
:102618004A50270FD26F000E4C6E4A502D0DF20E05
:10262800F324D96E090EF420DA6EDF50D8B41FEF08
:1026380013F021EF13F0A1EF08F02D0E206EFE0E1F
:10264800216EE50E226E000E236E070E246E86ECB8
:1026580018F085EF18F0000E136E060E146EF80EC3
:10266800156E000E166E000E186E020E176EB4EC84
:1026780064F013501410D8A444EF13F046EF13F08D
:1026880008EF14F08EAE4BEF13F04DEF13F05DEF43
:1026980013F0000E4C6E350E206EFA0E216EE50E0C
:1026A800226E000E236E000E246E86EC18F085EF65
:1026B80018F0000E0501D36F000ED26F000ED06F18
:1026C800010ED06F030E4C6E000E4C24D96EDA6AE0
:1026D800060EDA22DF50B3EC6DF00009D8B477EFBC
:1026E80013F079EF13F0C8EF13F0010E4C24D96EF4
:1026F800DA6A060EDA22200EDE18D8A486EF13F066
:1027080088EF13F09AEF13F0000E4C24D96EDA6AB2
:10271800060EDA22DF50D00F4B6E4B500501D22542
:10272800D26F000ED321D36FE1EF13F0000E4C24CB
:10273800D96EDA6A060EDA22DF50D00F4B6E4B5094
:102748000A0DF3CF4BF0D2C513F0D3C514F0000E29
:10275800166E0A0E156EC9EC6DF013C0D2F514C0D2
:10276800D3F591EF13F0D2C578F0D3C579F0000E08
:102778000501D36F000ED26FDFEF13F0D2C5F0F072
:10278800D3C5F1F0BBEF13F00501D0510401F66F8A
:10279800F76BF751000AD8B4D4EF13F0DFEF13F05A
:1027A800F651010AD8B4B7EF13F0030AD8B4C2EF50
:1027B80013F0DFEF13F00501D02B4C2A020ED06581
:1027C800E8EF13F0EAEF13F068EF13F0000E146E61
:1027D800640E136EB1EC68F06EEC63F0000E146ECC
:1027E800640E136EB1EC68F0000E4C6EB90E206EDC
:1027F800FB0E216EE50E226E000E236E000E246E77
:1028080086EC18F085EF18F0000E136E060E146EA5
:10281800E50E156E020E166E000E186E050E176E7A
:10282800B4EC64F013501410D8A41DEF14F01FEF8B
:1028380014F02FEF14F0000E4C6EC50E206EFA0E39
:10284800216EE50E226E000E236E050E246E86ECB8
:1028580018F085EF18F0000E136E060E146EB00E09
:10286800156E020E166E000E186E070E176EB4EC7B
:1028780064F013501410D8A444EF14F046EF14F089
:10288800A2EF14F0070E20EC4FF04A6E000E146E03
:10289800640E136EB1EC68F04A5053EC56F0090E12
:1028A8004A6059EF14F05BEF14F063EF14F0300E48
:1028B8000001D16F4A50310FD26F79EF14F0080E32
:1028C8004A6469EF14F06BEF14F079EF14F00C0E12
:1028D8004A6071EF14F073EF14F079EF14F0310ED1
:1028E8000001D16F4A50270FD26F0001B651D8B4FA
:1028F80080EF14F082EF14F092EF14F0000EB66F30
:10290800700E206EFB0E216EE50E226E000E236EF9
:10291800020E246E86EC18F085EF18F0000E4C6E4F
:10292800F40E206EFA0E216EE50E226E000E236E56
:10293800060E246E86EC18F085EF18F0000E136E64
:10294800060E146EE50E156E010E166E000E186E4C
:10295800030E176EB4EC64F013501410D8A4B7EF3C
:1029680014F0B9EF14F00DEF15F0030E20EC4FF052
:102978004A6E000E146E640E136EB1EC68F08EAEE3
:10298800C8EF14F0CAEF14F0CCEF14F04DEF13F0C9
:10299800090E4A60D2EF14F0D4EF14F0DCEF14F013
:1029A800300E0001D16F4A50310FD26FF2EF14F0A0
:1029B800080E4A64E2EF14F0E4EF14F0F2EF14F0BA
:1029C8000C0E4A60EAEF14F0ECEF14F0F2EF14F09A
:1029D800310E0001D16F4A50270FD26F130E146EBB
:1029E800880E136EB1EC68F04AC020F0010EF9ECC5
:1029F8004CF0030E146EE80E136EB1EC68F06EEC3A
:102A080063F0030E146EE80E136EB1EC68F01FEF5E
:102A180014F0000E136E060E146ED00E156E020E14
:102A2800166E000E186E060E176EB4EC64F0135096
:102A38001410D8A422EF15F024EF15F047EF17F083
:102A4800000E0501D36F000ED26F000ED06F070E77
:102A58004C6E000E4C24D96EDA6A060EDA22DF506C
:102A6800B3EC6DF00009D8B43CEF15F03EEF15F06B
:102A780099EF15F0000E4C24D96EDA6A060EDA22A8
:102A8800DF50D00F4B6E4BC0D2F50501D36BD2C5CA
:102A980013F0D3C514F0000E166E0A0E156EC9ECAD
:102AA8006DF013C0D2F514C0D3F5010E4C24D96EC5
:102AB800DA6A060EDA22DF50D00F4B6E4B50050152
:102AC800D225D26F000ED321D36FD02B7FEF15F014
:102AD800D2C5CEF5000E0501D36F000ED26F99EF67
:102AE80015F0D2C5CFF56EEF15F00501D25188EC7F
:102AF80048F06EEF15F0D0510401F66FF76BF751FF
:102B0800000AD8B48AEF15F099EF15F0F651010ACA
:102B1800D8B46CEF15F0030AD8B475EF15F0010AB4
:102B2800D8B479EF15F099EF15F0030E4C26020E84
:102B38000501D065A2EF15F0A4EF15F02DEF15F003
:102B4800000E4A6E2FEF17F04A502D0DCC0EF324CD
:102B5800D96E090EF420DA6E0F0EDE6E000EDD6EF1
:102B68004A502D0DE60EF324D96E090EF420DA6EC4
:102B7800010EDF6E4A502D0DE70EF324D96E090EB3
:102B8800F420DA6ECEC5DFFF4A502D0DE80EF3248F
:102B9800D96E090EF420DA6ECFC5DFFF4A502D0D2D
:102BA800E90EF324D96E090EF420DA6E9EC0DFFF19
:102BB8004A502D0DEA0EF324D96E090EF420DA6E70
:102BC80042C0DFFF4A502D0DEB0EF324D96E090EDB
:102BD800F420DA6E43C0DFFF4A502D0DC80EF324EF
:102BE800D96E090EF420DA6E640EDE6E000EDD6E0C
:102BF8004A502D0DCA0EF324D96E090EF420DA6E50
:102C0800300EDE6E750EDD6E4A502D0DED0EF3247E
:102C1800D96E090EF420DA6E4A28DF6E4A502D0D5F
:102C2800F10EF324D96E090EF420DA6E000EDF6E71
:102C38004A502D0DEF0EF324D96E090EF420DA6EEA
:102C4800020EDF6E4A502D0DF00EF324D96E090ED8
:102C5800F420DA6E020EDF6E4A502D0DF20EF324C8
:102C6800D96E090EF420DA6E010EDF6E4A502D0D72
:102C7800CE0EF324D96E090EF420DA6E050EDE6E40
:102C8800000EDD6E4A502D0DD00EF324D96E090EBC
:102C9800F420DA6E0F0EDE6E000EDD6E4A502D0D3A
:102CA800EC0EF324D96E090EF420DA6E4A28DF6E92
:102CB8004A502D0DEE0EF324D96E090EF420DA6E6B
:102CC800000EDF6E4A502D0DF40EF324D96E090E56
:102CD800F420DA6E000EDF6E4A502D0DF30EF32449
:102CE800D96E090EF420DA6E010EDF6E4A50020D1D
:102CF8007C0EF324F66EF30EF420F76E0900F5CF80
:102D08001BF00A00F5CF1CF04A502D0DC80EF32415
:102D18001D6E090EF4201E6EA6EC58F0000E146EFF
:102D2800640E136EB1EC68F04A50020D7C0EF32469
:102D3800F66EF30EF420F76E0900F5CF1BF00A00CB
:102D4800F5CF1CF04A502D0DC80EF3241D6E090E48
:102D5800F4201E6E68EC68F0000E146E640E136E9C
:102D6800B1EC68F04A50020D7C0EF324F66EF30EB7
:102D7800F420F76E0900F5CF1BF00A00F5CF1CF020
:102D88004A502D0DC80EF3241D6E090EF4201E6E38
:102D98002FEC6DF0000E146E640E136EB1EC68F03B
:102DA8004A50020D7C0EF324F66EF30EF420F76EF3
:102DB8000900F5CF1BF00A00F5CF1CF04A502D0D85
:102DC800C80EF3241D6E090EF4201E6EF5EC6CF08F
:102DD800000E146E640E136EB1EC68F04A50020DCA
:102DE8007C0EF324F66EF30EF420F76E0900F5CF8F
:102DF8001BF00A00F5CF1CF04A502D0DC80EF32425
:102E08001D6E090EF4201E6E12EC6DF0000E146E8D
:102E1800640E136EB1EC68F04A50020D7C0EF32478
:102E2800F66EF30EF420F76E0900F5CF1BF00A00DA
:102E3800F5CF1CF04A502D0DC80EF3241D6E090E57
:102E4800F4201E6ED3EC45F0000E146E640E136E63
:102E5800B1EC68F04A2A0B0E4A6435EF17F037EFE9
:102E680017F0A8EF15F0000E4C6EEB0E206EFD0E5D
:102E7800216EE50E226E000E236E000E246E86EC87
:102E880018F085EF18F0000E136E060E146EFB0E88
:102E9800156E000E166E000E186E020E176EB4EC4C
:102EA80064F013501410D8A45CEF17F05EEF17F01D
:102EB80005EF18F0030E136E060E146EF40E156E61
:102EC800010E166E000E186E060E176EB4EC64F046
:102ED80013501410D8A473EF17F075EF17F0E7EF3D
:102EE80017F00001B951D8B47CEF17F07EEF17F056
:102EF8008CEF17F0000E4C6ED00E206EF90E216E7E
:102F0800E50E226E000E236E010E246E86EC18F07C
:102F1800F40E136E010E146E0A0E156E060E166E62
:102F2800000E186E060E176E90EC66F0E50E136E26
:102F3800000E146ED10E156E000E166E000E186E71
:102F48000A0E176E90EC66F0010E0001B96FD10EF3
:102F5800136E000E146EF10E156E020E166E000E34
:102F6800186E0A0E176E90EC66F0000E146E320E94
:102F7800136EB1EC68F020EC6AF0000E146E320E9D
:102F8800136EB1EC68F056EC6AF0000E146E320E57
:102F9800136EB1EC68F04CEC6DF0000E146E320E4E
:102FA800136EB1EC68F0000E4C6EAB0E206EFD0E89
:102FB800216EE50E226E000E236E000E246E86EC46
:102FC80018F085EF18F0000E4C6E940E206EFD0E72
:102FD800216ED10E226E000E236E000E246E86EC3A
:102FE80018F0D10E136E000E146EF10E156E020E4F
:102FF800166E000E186E0A0E176E90EC66F085EFCE
:1030080018F0000E136E060E146EE00E156E010E0B
:10301800166E000E186E040E176EB4EC64F01350A2
:103028001410D8A41AEF18F01CEF18F02CEF18F0B1
:10303800000E4C6EC20E206EFD0E216ED10E226E59
:10304800000E236E000E246E86EC18F0F5EF17F0D4
:10305800000E136E060E146EEA0E156E040E166E32
:10306800000E186E0B0E176EB4EC64F013501410AB
:10307800D8A441EF18F043EF18F053EF18F0000E02
:103088004C6E1E0E206EFE0E216ED10E226E000EAC
:10309800236E040E246E86EC18F0F5EF17F0000E80
:1030A800136E060E146EDE0E156E040E166E000EEE
:1030B800186E0B0E176EB4EC64F013501410D8A4ED
:1030C80068EF18F06AEF18F07AEF18F0000E4C6EFF
:1030D8000F0E206EFE0E216ED10E226E000E236E94
:1030E8000C0E246E86EC18F0F5EF17F0000E136E38
:1030F800060E3BEC6EF0030E146EE80E136EB1EC88
:1031080068F01200000E276E1E0E0001C86FE60E52
:103118001B6EFE0E1C6E78EC6CF020C01BF021C0FC
:103128001CF078EC6CF0000E146E640E136EB1ECAB
:1031380068F00BEF24F0D10E1B6E000E1C6E0A0E09
:103148001D6EBAEC6CF0000E146E640E136EB1ECCA
:1031580068F048EF24F0D10E1B6E000E1C6E020EB4
:103168001D6EBAEC6CF0A7EF18F0D10E1B6E000EB6
:103178001C6E110E1D6EBAEC6CF0A7EF18F0ED0E78
:103188001B6E010E1C6E060E1D6EBAEC6CF0A7EFDE
:1031980018F078C03CF079C03DF03CC019F03DC053
:1031A8001AF0030E1C6EE80E1B6EB0EC69F0195095
:1031B800300F0001DF6F030E166EE80E156E3CC06F
:1031C80013F03DC014F0F6EC6AF013C019F014C007
:1031D8001AF0000E1C6E640E1B6EB0EC69F01950EC
:1031E800300F0001E06F000E166E640E156E3CC0C5
:1031F80013F03DC014F0F6EC6AF013C019F014C0D7
:103208001AF0000E1C6E0A0E1B6EB0EC69F0195015
:10321800300F0001E16F3CC013F03DC014F0000E08
:10322800166E0A0E156EF6EC6AF01350300F000198
:10323800E26FDF0E1B6E000E1C6E040E1D6EBAECE4
:103248006CF0000E146E320E136EB1EC68F0D10EF5
:103258001B6EFF0E1C6E78EC6CF0000E146E320EB6
:10326800136EB1EC68F0F0C03CF0F1C03DF03CC02A
:1032780019F03DC01AF0030E1C6EE80E1B6EB0EC80
:1032880069F01950300F0001DF6F030E166EE80E5B
:10329800156E3CC013F03DC014F0F6EC6AF013C094
:1032A80019F014C01AF0000E1C6E640E1B6EB0EC00
:1032B80069F01950300F0001E06F000E166E640EB1
:1032C800156E3CC013F03DC014F0F6EC6AF013C064
:1032D80019F014C01AF0000E1C6E0A0E1B6EB0EC2A
:1032E80069F01950300F0001E16F3CC013F03DC088
:1032F80014F0000E166E0A0E156EF6EC6AF01350F6
:10330800300F0001E26FDF0E1B6E000E1C6E040E04
:103318001D6EBAEC6CF0A7EF18F0D10E1B6E000E04
:103328001C6E020E1D6EBAEC6CF0000E146E320E9E
:10333800136EB1EC68F0EF0E1B6EFF0E1C6E78EC8E
:103348006CF0000E146E320E136EB1EC68F09AC079
:103358003CF09BC03DF03CC019F03DC01AF0270E70
:103368001C6E100E1B6EB0EC69F01950300F000186
:10337800DF6F270E166E100E156E3CC013F03DC0A1
:1033880014F0F6EC6AF013C019F014C01AF0030E2A
:103398001C6EE80E1B6EB0EC69F01950300F00017E
:1033A800E06F030E166EE80E156E3CC013F03DC0BC
:1033B80014F0F6EC6AF013C019F014C01AF0000EFD
:1033C8001C6E640E1B6EB0EC69F01950300F0001D2
:1033D800E16F000E166E640E156E3CC013F03DC012
:1033E80014F0F6EC6AF013C019F014C01AF0000ECD
:1033F8001C6E0A0E1B6EB0EC69F01950300F0001FC
:10340800E26F3CC013F03DC014F0000E166E0A0EB9
:10341800156EF6EC6AF01350300F0001E36FDF0E03
:103428001B6E000E1C6E050E1D6EBAEC6CF0A7EF3D
:1034380018F0D10E1B6E000E1C6E020E1D6EBAEC3B
:103448006CF0000E146E0A0E136EB1EC68F06C0E80
:103458004A24D96EDA6A000EDA22DF50256E25502A
:103468002D0DF20EF324D96E090EF420DA6EDF501A
:10347800D8B441EF1AF043EF1AF0D7EF20F0F40E6A
:103488001B6EFF0E1C6E78EC6CF0000E146E0A0EAC
:10349800136EB1EC68F06C0E4A24D96EDA6A000E2D
:1034A800DA22DF50256E25502D0DCC0EF324D96E6F
:1034B800090EF420DA6EDECF3CF0DDCF3DF03CC0E3
:1034C80019F03DC01AF0000E1C6E640E1B6EB0ECB5
:1034D80069F01950300F0001D16F000E166E640E9E
:1034E800156E3CC013F03DC014F0F6EC6AF013C042
:1034F80019F014C01AF0000E1C6E0A0E1B6EB0EC08
:1035080069F01950300F0001D26F3CC013F03DC074
:1035180014F0000E166E0A0E156EF6EC6AF01350D3
:10352800300F0001D36FD10E1B6E000E1C6E030E00
:103538001D6EBAEC6CF0000E146E0A0E136EB1EC30
:1035480068F0DD0E1B6EFF0E1C6E78EC6CF0000E42
:10355800146E0A0E136EB1EC68F06C0E4A24D96E24
:10356800DA6A000EDA22DF50256E25502D0DE60EA0
:10357800F324D96E090EF420DA6EDF50266E265039
:10358800136E146A000E166E0A0E156E80EC65F046
:103598001350300F0001D16F6C0E4A24D96EDA6ACD
:1035A800000EDA22DF50256E25502D0DE60EF3248D
:1035B800D96E090EF420DA6EDF50266E2650136E8F
:1035C800146A000E166E0A0E156EE2EC65F01350C2
:1035D800300F0001D26FD10E1B6E000E1C6E020E52
:1035E8001D6EBAEC6CF0000E146E0A0E136EB1EC80
:1035F80068F0E90E1B6EFF0E1C6E78EC6CF0000E86
:10360800146E0A0E136EB1EC68F06C0E4A24D96E73
:10361800DA6A000EDA22DF50256E25502D0DC80E0D
:10362800F324D96E090EF420DA6EDECF3CF0DDCF3C
:103638003DF03CC019F03DC01AF0000E1C6E640E3F
:103648001B6EB0EC69F01950300F0001D16F000EFD
:10365800166E640E156E3CC013F03DC014F0F6EC07
:103668006AF013C019F014C01AF0000E1C6E0A0E8E
:103678001B6EB0EC69F01950300F0001D26F3CC0DE
:1036880013F03DC014F0000E166E0A0E156EF6EC1F
:103698006AF01350300F0001D36FD10E1B6E000E6D
:1036A8001C6E030E1D6EBAEC6CF0000E146E0A0E42
:1036B800136EB1EC68F0E30E1B6EFF0E1C6E78EC17
:1036C8006CF0000E146E0A0E136EB1EC68F06C0EFE
:1036D8004A24D96EDA6A000EDA22DF50256E2550A8
:1036E8002D0DCA0EF324D96E090EF420DA6EDECF42
:1036F8003CF0DDCF3DF03CC019F03DC01AF0000EA3
:103708001C6E640E1B6EB0EC69F01950300F00018E
:10371800D16F000E166E640E156E3CC013F03DC0DE
:1037280014F0F6EC6AF013C019F014C01AF0000E89
:103738001C6E0A0E1B6EB0EC69F01950300F0001B8
:10374800D26F3CC013F03DC014F0000E166E0A0E86
:10375800156EF6EC6AF01350300F0001D36FD10EDE
:103768001B6E000E1C6E030E1D6EBAEC6CF0000E84
:10377800146E0A0E136EB1EC68F0CB0E1B6EFF0EC2
:103788001C6E78EC6CF0000E146E0A0E136EB1EC21
:1037980068F06C0E4A24D96EDA6A000EDA22DF501D
:1037A800256E25502D0DE90EF324D96E090EF4204F
:1037B800DA6EDF50266E2650136E146A000E166EEF
:1037C8000A0E156E80EC65F01350300F0001D16FB2
:1037D8006C0E4A24D96EDA6A000EDA22DF50256EA2
:1037E80025502D0DE90EF324D96E090EF420DA6E5A
:1037F800DF50266E2650136E146A000E166E0A0EDF
:10380800156EE2EC65F01350300F0001D26FD10E47
:103818001B6E000E1C6E020E1D6EBAEC6CF0000ED4
:10382800146E0A0E136EB1EC68F06C0E4A24D96E51
:10383800DA6A000EDA22DF50256E25502D0DEA0EC9
:10384800F324D96E090EF420DA6EDF50266E265066
:10385800136E146A000E166E0A0E156E80EC65F073
:103868001350300F0001D16F6C0E4A24D96EDA6AFA
:10387800000EDA22DF50256E25502D0DEA0EF324B6
:10388800D96E090EF420DA6EDF50266E2650136EBC
:10389800146A000E166E0A0E156EE2EC65F01350EF
:1038A800300F0001D26FD10E1B6E000E1C6E020E7F
:1038B8001D6EBAEC6CF0000E146E0A0E136EB1ECAD
:1038C80068F06C0E4A24D96EDA6A000EDA22DF50EC
:1038D800256E25502D0DEB0EF324D96E090EF4201C
:1038E800DA6EDF50266E2650136E146A000E166EBE
:1038F8000A0E156E80EC65F01350300F0001D16F81
:103908006C0E4A24D96EDA6A000EDA22DF50256E70
:1039180025502D0DEB0EF324D96E090EF420DA6E26
:10392800DF50266E2650136E146A000E166E0A0EAD
:10393800156EE2EC65F01350300F0001D26FD10E16
:103948001B6E000E1C6E020E1D6EBAEC6CF0000EA3
:10395800146E0A0E136EB1EC68F06C0E4A24D96E20
:10396800DA6A000EDA22DF50256E25502D0DE70E9B
:10397800F324D96E090EF420DA6EDF50266E265035
:10398800136E146A000E166E0A0E156E80EC65F042
:103998001350300F0001D16F6C0E4A24D96EDA6AC9
:1039A800000EDA22DF50256E25502D0DE70EF32488
:1039B800D96E090EF420DA6EDF50266E2650136E8B
:1039C800146A000E166E0A0E156EE2EC65F01350BE
:1039D800300F0001D26FD10E1B6E000E1C6E020E4E
:1039E8001D6EBAEC6CF0000E146E0A0E136EB1EC7C
:1039F80068F06C0E4A24D96EDA6A000EDA22DF50BB
:103A0800256E25502D0DE80EF324D96E090EF420ED
:103A1800DA6EDF50266E2650136E146A000E166E8C
:103A28000A0E156E80EC65F01350300F0001D16F4F
:103A38006C0E4A24D96EDA6A000EDA22DF50256E3F
:103A480025502D0DE80EF324D96E090EF420DA6EF8
:103A5800DF50266E2650136E146A000E166E0A0E7C
:103A6800156EE2EC65F01350300F0001D26FD10EE5
:103A78001B6E000E1C6E020E1D6EBAEC6CF0000E72
:103A8800146E0A0E136EB1EC68F0E60E1B6EFE0E95
:103A98001C6E78EC6CF06C0E4A24D96EDA6A000E53
:103AA800DA22DF50256E25502D0DF30EF324D96E42
:103AB800090EF420DA6EDF50D8B465EF1DF067EF19
:103AC8001DF0C9EF20F05F0E1B6EFE0E1C6E78EC29
:103AD8006CF06C0E4A24D96EDA6A000EDA22DF50D6
:103AE800256E25502D0DCE0EF324D96E090EF42027
:103AF800DA6EDECF3CF0DDCF3DF03CC019F03DC0C2
:103B08001AF0000E1C6E640E1B6EB0EC69F01950B2
:103B1800300F0001D16F000E166E640E156E3CC09A
:103B280013F03DC014F0F6EC6AF013C019F014C09D
:103B38001AF0000E1C6E0A0E1B6EB0EC69F01950DC
:103B4800300F0001D26F3CC013F03DC014F0000EDE
:103B5800166E0A0E156EF6EC6AF01350300F00015F
:103B6800D36FD10E1B6E000E1C6E030E1D6EBAECC9
:103B78006CF0000E146E0A0E136EB1EC68F0F40EC1
:103B88001B6EFF0E1C6E78EC6CF0000E146E0A0EA5
:103B9800136EB1EC68F06C0E4A24D96EDA6A000E26
:103BA800DA22DF50256E25502D0DD00EF324D96E64
:103BB800090EF420DA6EDECF3CF0DDCF3DF03CC0DC
:103BC80019F03DC01AF0000E1C6E640E1B6EB0ECAE
:103BD80069F01950300F0001D16F000E166E640E97
:103BE800156E3CC013F03DC014F0F6EC6AF013C03B
:103BF80019F014C01AF0000E1C6E0A0E1B6EB0EC01
:103C080069F01950300F0001D26F3CC013F03DC06D
:103C180014F0000E166E0A0E156EF6EC6AF01350CC
:103C2800300F0001D36FD10E1B6E000E1C6E030EF9
:103C38001D6EBAEC6CF0000E146E0A0E136EB1EC29
:103C480068F0BD0E1B6EFF0E1C6E78EC6CF0000E5B
:103C5800146E0A0E136EB1EC68F06C0E4A24D96E1D
:103C6800DA6A000EDA22DF50256E25502D0DEC0E93
:103C7800F324D96E090EF420DA6EDF50266E265032
:103C8800136E146A000E166E0A0E156E80EC65F03F
:103C98001350300F0001D16F6C0E4A24D96EDA6AC6
:103CA800000EDA22DF50256E25502D0DEC0EF32480
:103CB800D96E090EF420DA6EDF50266E2650136E88
:103CC800146A000E166E0A0E156EE2EC65F01350BB
:103CD800300F0001D26FD10E1B6E000E1C6E020E4B
:103CE8001D6EBAEC6CF0000E146E0A0E136EB1EC79
:103CF80068F0880E1B6EFF0E1C6E78EC6CF0000EE0
:103D0800146E0A0E136EB1EC68F06C0E4A24D96E6C
:103D1800DA6A000EDA22DF50256E25502D0DD20EFC
:103D2800F324D96E090EF420DA6EDECF13F0DDCF5E
:103D380014F0000E166E0A0E156EF6EC6AF01350AB
:103D4800300F0001D16FD10E1B6E000E1C6E010EDC
:103D58001D6EBAEC6CF0000E146E0A0E136EB1EC08
:103D680068F06C0E4A24D96EDA6A000EDA22DF5047
:103D7800256E25502D0DDA0EF324D96E090EF42088
:103D8800DA6EDECF13F0DDCF14F0000E166E0A0ED9
:103D9800156EF6EC6AF01350300F0001D16FD10E9A
:103DA8001B6E000E1C6E010E1D6EBAEC6CF0000E40
:103DB800146E0A0E136EB1EC68F06C0E4A24D96EBC
:103DC800DA6A000EDA22DF50256E25502D0DE20E3C
:103DD800F324D96E090EF420DA6EDF50266E2650D1
:103DE800136E146A000E166E0A0E156EE2EC65F07C
:103DF8001350300F0001D16FD10E1B6E000E1C6ED8
:103E0800010E1D6EBAEC6CF0000E146E0A0E136EE5
:103E1800B1EC68F0900E1B6EFF0E1C6E78EC6CF027
:103E2800000E146E0A0E136EB1EC68F06C0E4A2484
:103E3800D96EDA6A000EDA22DF50256E25502D0D74
:103E4800D40EF324D96E090EF420DA6EDECF13F007
:103E5800DDCF14F0000E166E0A0E156EF6EC6AF041
:103E68001350300F0001D16FD10E1B6E000E1C6E67
:103E7800010E1D6EBAEC6CF0000E146E0A0E136E75
:103E8800B1EC68F06C0E4A24D96EDA6A000EDA22B8
:103E9800DF50256E25502D0DDC0EF324D96E090E4A
:103EA800F420DA6EDECF13F0DDCF14F0000E166EBC
:103EB8000A0E156EF6EC6AF01350300F0001D16F40
:103EC800D10E1B6E000E1C6E010E1D6EBAEC6CF04E
:103ED800000E146E0A0E136EB1EC68F06C0E4A24D4
:103EE800D96EDA6A000EDA22DF50256E25502D0DC4
:103EF800E30EF324D96E090EF420DA6EDF50266E35
:103F08002650136E146A000E166E0A0E156EE2EC39
:103F180065F01350300F0001D16FD10E1B6E000EEB
:103F28001C6E010E1D6EBAEC6CF0000E146E0A0EBB
:103F3800136EB1EC68F0980E1B6EFF0E1C6E78ECD9
:103F48006CF0000E146E0A0E136EB1EC68F06C0E75
:103F58004A24D96EDA6A000EDA22DF50256E25501F
:103F68002D0DD60EF324D96E090EF420DA6EDECFAD
:103F780013F0DDCF14F0000E166E0A0E156EF6EC77
:103F88006AF01350300F0001D16FD10E1B6E000E76
:103F98001C6E010E1D6EBAEC6CF0000E146E0A0E4B
:103FA800136EB1EC68F06C0E4A24D96EDA6A000E12
:103FB800DA22DF50256E25502D0DDE0EF324D96E42
:103FC800090EF420DA6EDECF13F0DDCF14F0000E08
:103FD800166E0A0E156EF6EC6AF01350300F0001DB
:103FE800D16FD10E1B6E000E1C6E010E1D6EBAEC49
:103FF8006CF0000E146E0A0E136EB1EC68F06C0EC5
:104008004A24D96EDA6A000EDA22DF50256E25506E
:104018002D0DE40EF324D96E090EF420DA6EDF506C
:10402800266E2650136E146A000E166E0A0E156E52
:10403800E2EC65F01350300F0001D16FD10E1B6E0A
:10404800000E1C6E010E1D6EBAEC6CF0000E146EA4
:104058000A0E136EB1EC68F0A00E1B6EFF0E1C6EFC
:1040680078EC6CF0000E146E0A0E136EB1EC68F06A
:104078006C0E4A24D96EDA6A000EDA22DF50256EF9
:1040880025502D0DD80EF324D96E090EF420DA6EC2
:10409800DECF13F0DDCF14F0000E166E0A0E156E8B
:1040A800F6EC6AF01350300F0001D16FD10E1B6E81
:1040B800000E1C6E010E1D6EBAEC6CF0000E146E34
:1040C8000A0E136EB1EC68F06C0E4A24D96EDA6AE7
:1040D800000EDA22DF50256E25502D0DE00EF32458
:1040E800D96E090EF420DA6EDECF13F0DDCF14F0AE
:1040F800000E166E0A0E156EF6EC6AF01350300FAD
:104108000001D16FD10E1B6E000E1C6E010E1D6ECC
:10411800BAEC6CF0000E146E0A0E136EB1EC68F077
:104128006C0E4A24D96EDA6A000EDA22DF50256E48
:1041380025502D0DE50EF324D96E090EF420DA6E04
:10414800DF50266E2650136E146A000E166E0A0E85
:10415800156EE2EC65F01350300F0001D16FD10EEF
:104168001B6E000E1C6E010E1D6EBAEC6CF0000E7C
:10417800146E0A0E136EB1EC68F0E60E1B6EFE0E9E
:104188001C6E78EC6CF048EF24F07F0E1B6EFE0E70
:104198001C6E78EC6CF0000E146E0A0E136EB1EC07
:1041A80068F048EF24F08A0E1B6EFE0E1C6E78EC49
:1041B8006CF0CFEF20F0000E146E0A0E136EB1EC07
:1041C80068F0410E1B6EFF0E1C6E78EC6CF0000E52
:1041D800146E0A0E136EB1EC68F0BEC013F0146AC8
:1041E800000E166E0A0E156E80EC65F01350300F37
:1041F8000001D16FBEC013F0146A000E166E0A0ECD
:10420800156EE2EC65F01350300F0001D26FD10E3D
:104218001B6E000E1C6E020E1D6EBAEC6CF0000ECA
:10422800146E0A0E136EB1EC68F0B60E1B6EFF0E1C
:104238001C6E78EC6CF0000E146E0A0E136EB1EC66
:1042480068F0760E1B6EFF0E1C6E78EC6CF0000E9C
:10425800146E0A0E136EB1EC68F0BDC013F0146A48
:10426800000E166E0A0E156E80EC65F01350300FB6
:104278000001D16FBDC013F0146A000E166E0A0E4D
:10428800156EE2EC65F01350300F0001D26FD10EBD
:104298001B6E000E1C6E020E1D6EBAEC6CF0000E4A
:1042A800146E0A0E136EB1EC68F0B60E1B6EFF0E9C
:1042B8001C6E78EC6CF0000E146E0A0E136EB1ECE6
:1042C80068F07F0E1B6EFF0E1C6E78EC6CF0000E13
:1042D800146E0A0E136EB1EC68F0BCC013F0146AC9
:1042E800000E166E0A0E156E80EC65F01350300F36
:1042F8000001D16FBCC013F0146A000E166E0A0ECE
:10430800156EE2EC65F01350300F0001D26FD10E3C
:104318001B6E000E1C6E020E1D6EBAEC6CF0000EC9
:10432800146E0A0E136EB1EC68F0D70E1B6EFF0EFA
:104338001C6E78EC6CF0000E146E0A0E136EB1EC65
:1043480068F04C0E1B6EFF0E1C6E78EC6CF0000EC5
:10435800146E0A0E136EB1EC68F0BBC013F0146A49
:10436800000E166E0A0E156E80EC65F01350300FB5
:104378000001D16FBBC013F0146A000E166E0A0E4E
:10438800156EE2EC65F01350300F0001D26FD10EBC
:104398001B6E000E1C6E020E1D6EBAEC6CF0000E49
:1043A800146E0A0E136EB1EC68F0B60E1B6EFF0E9B
:1043B8001C6E78EC6CF0000E146E0A0E136EB1ECE5
:1043C80068F0C70E1B6EFE0E1C6E78EC6CF0000ECB
:1043D800146E0A0E136EB1EC68F0A0C03CF0A1C0D8
:1043E8003DF03CC019F03DC01AF0000E1C6E640E82
:1043F8001B6EB0EC69F01950300F0001D16F000E40
:10440800166E640E156E3CC013F03DC014F0F6EC49
:104418006AF013C019F014C01AF0000E1C6E0A0ED0
:104428001B6EB0EC69F01950300F0001D26F3CC020
:1044380013F03DC014F0000E166E0A0E156EF6EC61
:104448006AF01350300F0001D36FD10E1B6E000EAF
:104458001C6E030E1D6EBAEC6CF0000E146E0A0E84
:10446800136EB1EC68F0D70E1B6EFF0E1C6E78EC65
:104478006CF0CFEF20F0000E4A6ECFEF22F0000E66
:10448800286E61EF22F0600E2824D96EDA6A000ED9
:10449800DA226C0E4A24E16EE26A000EE222DE5055
:1044A800E618D8A45AEF22F05CEF22F060EF22F071
:1044B800010E276E6FEF22F0282A600E2824D96E8D
:1044C800DA6A000EDA22DE28D8A46DEF22F06FEF48
:1044D80022F047EF22F02750D8A475EF22F077EFAB
:1044E80022F0CCEF22F06C0E4A24D96EDA6A000E64
:1044F800DA22090EDF6083EF22F085EF22F093EFD6
:1045080022F0300E0001D16F6C0E4A24D96EDA6A9F
:10451800000EDA22DF50310FD26FBBEF22F06C0EA3
:104528004A24D96EDA6A000EDA22080EDF649FEF99
:1045380022F0A1EF22F0BBEF22F06C0E4A24D96ED4
:10454800DA6A000EDA220C0EDF60ADEF22F0AFEF70
:1045580022F0BBEF22F0310E0001D16F6C0E4A241D
:10456800D96EDA6A000EDA22DF50270FD26FD10E29
:104578001B6E000E1C6E020E1D6EBAEC6CF0200E47
:1045880007EC6EF0000E146E640E136EB1EC68F05A
:10459800000E276E4A2A6C0E4A24D96EDA6A000E7B
:1045A800DA22DE28D8B4DBEF22F0DDEF22F048EF84
:1045B80024F00B0E4A64E3EF22F0E5EF22F043EF1C
:1045C80022F048EF24F0000E4A6E77EF23F0000E39
:1045D800286E09EF23F06C0E2824D96EDA6A000ED3
:1045E800DA22600E4A24E16EE26A000EE222DE5010
:1045F800E618D8A402EF23F004EF23F008EF23F025
:10460800010E276E17EF23F0282A6C0E2824D96E86
:10461800DA6A000EDA22DE28D8A415EF23F017EFA5
:1046280023F0EFEF22F02750D8A41DEF23F01FEF5F
:1046380023F074EF23F0600E4A24D96EDA6A000E74
:10464800DA22090EDF602BEF23F02DEF23F03BEF8A
:1046580023F0300E0001D16F600E4A24D96EDA6A59
:10466800000EDA22DF50310FD26F63EF23F0600EB5
:104678004A24D96EDA6A000EDA22080EDF6447EFA0
:1046880023F049EF23F063EF23F0600E4A24D96E3C
:10469800DA6A000EDA220C0EDF6055EF23F057EFCE
:1046A80023F063EF23F0310E0001D16F600E4A242E
:1046B800D96EDA6A000EDA22DF50270FD26FD10ED8
:1046C8001B6E000E1C6E020E1D6EBAEC6CF0200EF6
:1046D80007EC6EF0000E146E640E136EB1EC68F009
:1046E800000E276E4A2A600E4A24D96EDA6A000E36
:1046F800DA22DE28D8B483EF23F085EF23F048EFE1
:1047080024F00B0E4A648BEF23F08DEF23F0EBEFD0
:1047180022F048EF24F0000E4A6EE9EF23F06C0E09
:104728004A24D96EDA6A000EDA22090EDF609FEF9A
:1047380023F0A1EF23F0AFEF23F0300E0001D16F8B
:104748006C0E4A24D96EDA6A000EDA22DF50310F75
:10475800D26FD7EF23F06C0E4A24D96EDA6A000EB6
:10476800DA22080EDF64BBEF23F0BDEF23F0D7EFAA
:1047780023F06C0E4A24D96EDA6A000EDA220C0E87
:10478800DF60C9EF23F0CBEF23F0D7EF23F0310E32
:104798000001D16F6C0E4A24D96EDA6A000EDA2253
:1047A800DF50270FD26FD10E1B6E000E1C6E020E4B
:1047B8001D6EBAEC6CF0200E07EC6EF0000E146E55
:1047C800640E136EB1EC68F04A2A6C0E4A24D96E56
:1047D800DA6A000EDA22DE28D8B4F5EF23F0F7EF14
:1047E80023F048EF24F00B0E4A64FDEF23F0FFEFAF
:1047F80023F093EF23F048EF24F0F40E1B6E010E24
:104808001C6E060E1D6EBAEC6CF0A7EF18F0245063
:10481800256E266A2650000AD8B415EF24F048EF12
:1048280024F02550010AD8B49FEF18F0030AD8B431
:10483800AFEF18F0010AD8B4B9EF18F0070AD8B4E6
:10484800C3EF18F0010AD8B4CDEF18F0030AD8B4B2
:1048580091EF19F0010AD8B41DEF1AF00F0AD8B475
:10486800DFEF20F0010AD8B43FEF22F0030AD8B4F2
:10487800E7EF22F0010AD8B48FEF23F0070AD8B483
:1048880001EF24F048EF24F0000E416E000E4C6E4C
:10489800000E146E640E136EB1EC68F0000E136E09
:1048A800000E3BEC6EF0000E136E0F0E3BEC6EF03C
:1048B800010E146EF40E136EB1EC68F01200405045
:1048C800D8B469EF24F06BEF24F095EF29F03E504F
:1048D8003F10D8A472EF24F074EF24F095EF29F07C
:1048E8000001B251D8A47BEF24F07DEF24F095EFBE
:1048F80029F0AC51D8A483EF24F085EF24F095EF8C
:1049080029F0AF51D8A48BEF24F08DEF24F095EF68
:1049180029F0B151D8A493EF24F095EF24F095EF46
:1049280029F06C512D0DF10EF324D96E090EF420E7
:10493800DA6EDE04D8A4A3EF24F0A5EF24F0BDEFCF
:1049480026F06C512D0DF30EF324D96E090EF420C8
:10495800DA6EDF50D8B4B3EF24F0B5EF24F0BDEF32
:1049680026F06C512D0DEE0EF324D96E090EF420AD
:10497800DA6EDE04D8A4C3EF24F0C5EF24F0BDEF4F
:1049880026F0000E146E640E136EB1EC68F08E8C77
:104998002BEE5AF0DF50D8A4D4EF24F0D6EF24F051
:1049A800D5EF25F02BEE87F0DF50D8A4DEEF24F00A
:1049B800E0EF24F0D5EF25F02BEEB4F0DF50D8A4CB
:1049C800E8EF24F0EAEF24F0D5EF25F02BEEE1F044
:1049D800DF50D8A4F2EF24F0F4EF24F0D5EF25F05F
:1049E800000E0001916F000E906F000E8F6F000E89
:1049F8008E6F000E8D6F000E8C6F000E8B6F000E89
:104A08008A6F000E816F000E806F000E7F6F000EA0
:104A18007E6F000E7D6F000E7C6F000E7B6F000EA8
:104A28007A6F000ECC6F000ECB6F000ECA6F000EAF
:104A3800C96F6C512D0DD20EF324D96E090EF420D6
:104A4800DA6EDECF98F0DDCF99F06C512D0DD40ED3
:104A5800F324D96E090EF420DA6EDECF96F0DDCF9E
:104A680097F06C512D0DD60EF324D96E090EF42053
:104A7800DA6EDECF94F0DDCF95F06C512D0DD80EA7
:104A8800F324D96E090EF420DA6EDECF92F0DDCF72
:104A980093F06C512D0DDA0EF324D96E090EF42023
:104AA800DA6EDECF88F0DDCF89F06C512D0DDC0E8B
:104AB800F324D96E090EF420DA6EDECF86F0DDCF4E
:104AC80087F06C512D0DDE0EF324D96E090EF420FB
:104AD800DA6EDECF84F0DDCF85F06C512D0DE00E5F
:104AE800F324D96E090EF420DA6EDECF82F0DDCF22
:104AF80083F06C512D0DE20EF324D96E090EF420CB
:104B0800DA6EDF50D06F6C512D0DE30EF324D96EA1
:104B1800090EF420DA6EDF50CF6F6C512D0DE40EC4
:104B2800F324D96E090EF420DA6EDF50CE6F6C5183
:104B38002D0DE50EF324D96E090EF420DA6EDF5040
:104B4800CD6F98519911D8B4ACEF25F0AEEF25F0A0
:104B5800B1EF25F08E84904B912B96519711D8B4D4
:104B6800B8EF25F0BAEF25F0BDEF25F08E868E4B15
:104B78008F2B94519511D8B4C4EF25F0C6EF25F0CA
:104B8800C9EF25F08E888C4B8D2B92519311D8B498
:104B9800D0EF25F0D2EF25F0D5EF25F08E8A8A4B9D
:104BA8008B2B000E4A6EECEF25F06C0E4A24D96E62
:104BB800DA6A000EDA22DF50296E29502D0DEE0E2A
:104BC800F324D96E090EF420DA6E020EDF6E4A2A3B
:104BD8006C0E4A24D96EDA6A000EDA22DE28D8B4BE
:104BE800F8EF25F0FAEF25F002EF26F00B0E4A64F5
:104BF80000EF26F002EF26F0D9EF25F000016C5106
:104C08002D0DF40EF324D96E090EF420DA6EDF5060
:104C1800D8B411EF26F013EF26F04CEF26F0000E73
:104C28004A6E2AEF26F06C0E4A24D96EDA6A000E14
:104C3800DA22DF50296E29502D0DF40EF324D96E97
:104C4800090EF420DA6E000EDF6E4A2A6C0E4A2432
:104C5800D96EDA6A000EDA22DE28D8B436EF26F0EA
:104C680038EF26F040EF26F00B0E4A643EEF26F0B0
:104C780040EF26F017EF26F034EC67F01DC09CF0EB
:104C88001EC09DF09CC03EF09DC03FF058EF26F03E
:104C98006C512D0DD00EF324D96E090EF420DA6E66
:104CA800DECF3EF0DDCF3FF0000E4A6E91EF26F0EA
:104CB800000E146E640E136EB1EC68F06C0E4A248C
:104CC800D96EDA6A000EDA22DF50296E2950020DF9
:104CD8007C0EF324F66EF30EF420F76E0900F5CF80
:104CE8001BF00A00F5CF1CF06C0E4A24D96EDA6A64
:104CF800000EDA22DF502A6E2A502D0DC80EF3243A
:104D08001D6E090EF4201E6E1FEC68F0000E146E66
:104D1800640E136EB1EC68F04A2A6C0E4A24D96E00
:104D2800DA6A000EDA22DE28D8B49DEF26F09FEF6B
:104D380026F0A7EF26F00B0E4A64A5EF26F0A7EFA2
:104D480026F05CEF26F075EC69F0000E146E640E28
:104D5800136EB1EC68F0800E206EFC0E216EE50E2D
:104D6800226E000E236E0B0E246E86EC18F026EFD2
:104D78002CF06C512D0DF10EF324D96E090EF42090
:104D8800DA6EDE04D8A4CBEF26F0CDEF26F00CEFD8
:104D980028F06C512D0DF30EF324D96E090EF42072
:104DA800DA6EDF50D8B4DBEF26F0DDEF26F00CEF3B
:104DB80028F06C512D0DEE0EF324D96E090EF42057
:104DC800DA6E020EDE18D8A4ECEF26F0EEEF26F02D
:104DD8000CEF28F0000E146E640E136EB1EC68F040
:104DE8008E9C2BEE5AF0DF50D8A4FDEF26F0FFEF93
:104DF80026F021EF27F02BEE87F0DF50D8A407EF3D
:104E080027F009EF27F021EF27F02BEEB4F0DF5061
:104E1800D8A411EF27F013EF27F021EF27F02BEE9E
:104E2800E1F0DF50D8A41BEF27F01DEF27F021EFAA
:104E380027F08E948E968E988E9A000E4A6EA7EF63
:104E480027F06C0E4A24D96EDA6A000EDA22DF5097
:104E5800296E29502D0DEE0EF324D96E090EF4207B
:104E6800DA6E030EDF6E6C0E4A24D96EDA6A000E13
:104E7800DA22DF50296E29502D0DEC0EF324D96E5D
:104E8800090EF420DA6EDF066C0E4A24D96EDA6A4F
:104E9800000EDA22DF50296E29502D0DEC0EF32476
:104EA800D96E090EF420DA6EDF50D8A45EEF27F031
:104EB80060EF27F072EF27F06C0E4A24D96EDA6A99
:104EC800000EDA22DF50296E29502D0DF30EF3243F
:104ED800D96E090EF420DA6E000EDF6E000E146E25
:104EE800640E136EB1EC68F06C0E4A24D96EDA6A5F
:104EF800000EDA22DF50296E2950020D7C0EF324B1
:104F0800F66EF30EF420F76E0900F5CF1BF00A00D9
:104F1800F5CF1CF06C0E4A24D96EDA6A000EDA223C
:104F2800DF502A6E2A502D0DC80EF3241D6E090E6F
:104F3800F4201E6ED3EC45F0000E146E640E136E52
:104F4800B1EC68F04A2A6C0E4A24D96EDA6A000E6F
:104F5800DA22DE28D8B4B3EF27F0B5EF27F0BDEF9B
:104F680027F00B0E4A64BBEF27F0BDEF27F025EFC3
:104F780027F000016C512D0DCC0EF324D96E090ECB
:104F8800F420DA6EDECF29F0DDCF2AF06C512D0D3A
:104F9800D00EF324D96E090EF420DA6EDECF2BF092
:104FA800DDCF2CF06C512D0DCE0EF324D96E090EE9
:104FB800F420DA6EDECF2DF0DDCF2EF02D1E2E1E62
:104FC8002D4A2E2A2B502D5E2C502E5A29502D2436
:104FD8003E6E2A502E203F6E000E146E640E136E25
:104FE800B1EC68F075EC69F0000E146E640E136E87
:104FF800B1EC68F0610E206EFC0E216EE50E226E9B
:10500800000E236E0B0E246E86EC18F026EF2CF0A3
:105018006C512D0DF10EF324D96E090EF420DA6EC1
:10502800DE04D8A41AEF28F01CEF28F093EF29F03B
:10503800000E4A6E29EF28F0600E4A24D96EDA6A0B
:10504800000EDA22FF0EDF6E4A2A0B0E4A642FEF9B
:1050580028F031EF28F020EF28F0000E4A6E64EFB8
:1050680029F06C0E4A24D96EDA6A000EDA22DF5073
:10507800296E29502D0DF10EF324D96E090EF42056
:10508800DA6E000EDF6E6C0E4A24D96EDA6A000EF4
:10509800DA22600E4A24E16EE26A000EE222DFCFD5
:1050A800E7FF6C0E4A24D96EDA6A000EDA22DF5066
:1050B800296E29502D0DEF0EF324D96E090EF42018
:1050C800DA6E6C0E4A24E16EE26A000EE222E750C4
:1050D8002B6E2B502D0DF00EF324E16E090EF420EB
:1050E800E26EDE50E618D8A47CEF28F07EEF28F0B8
:1050F80092EF28F06C0E4A24D96EDA6A000EDA2292
:10510800DF50296E29502D0DF00EF324D96E090EAB
:10511800F420DA6E010EDF6EA3EF28F06C0E4A243D
:10512800D96EDA6A000EDA22DF50296E29502D0D69
:10513800F00EF324D96E090EF420DA6EDF2A000E81
:10514800146E640E136EB1EC68F06C0E4A24D96EBE
:10515800DA6A000EDA22DF50296E2950020D7C0E21
:10516800F324F66EF30EF420F76E0900F5CF1BF06A
:105178000A00F5CF1CF06C0E4A24D96EDA6A000ECC
:10518800DA22DF502A6E2A502D0DC80EF3241D6E28
:10519800090EF4201E6E2FEC6DF0000E146E640ED6
:1051A800136EB1EC68F06C0E4A24D96EDA6A000E00
:1051B800DA22DF50296E2950020D7C0EF324F66E98
:1051C800F30EF420F76E0900F5CF1BF00A00F5CFB7
:1051D8001CF06C0E4A24D96EDA6A000EDA22DF500F
:1051E8002A6E2A502D0DC80EF3241D6E090EF420C8
:1051F8001E6EF5EC6CF0000E146E640E136EB1ECBE
:1052080068F06C0E4A24D96EDA6A000EDA22DF5092
:10521800296E29502D0DF30EF324D96E090EF420B2
:10522800DA6EDF50D8B41BEF29F01DEF29F063EFD9
:1052380029F06C0E4A24D96EDA6A000EDA22DF50A1
:10524800296E29502D0DEE0EF324D96E090EF42087
:10525800DA6E000EDF6E000E146E640E136EB1EC83
:1052680068F06C0E4A24D96EDA6A000EDA22DF5032
:10527800296E2950020D7C0EF324F66EF30EF420ED
:10528800F76E0900F5CF1BF00A00F5CF1CF06C0E85
:105298004A24D96EDA6A000EDA22DF502A6E2A50C2
:1052A8002D0DC80EF3241D6E090EF4201E6E1FEC82
:1052B80068F0000E146E640E136EB1EC68F04A2AA2
:1052C8006C0E4A24D96EDA6A000EDA22DE28D8B4C7
:1052D80070EF29F072EF29F07AEF29F00B0E4A648B
:1052E80078EF29F07AEF29F035EF28F0000E406EBC
:1052F800010E0001B06F6C512D0DED0EF324D96E27
:10530800090EF420DA6EDF50296E2928F26F000E9C
:10531800146E640E136EB1EC68F026EF2CF026EFD5
:105328002CF00001AF51D8B49CEF29F09EEF29F082
:1053380026EF2CF0000E146E640E136EB1EC68F0BC
:10534800000E0001AF6F6C512D0DF10EF324D96ED4
:10535800090EF420DA6EDE04D8A4B5EF29F0B7EF11
:1053680029F026EF2CF06C512D0DF20EF324D96E96
:10537800090EF420DA6EDF50D8A4C5EF29F0C7EF84
:1053880029F00BEF2BF0000E4A6E12EF2AF06C0E8C
:105398004A24D96EDA6A000EDA22DF50296E2950C3
:1053A8002D0DF10EF324D96E090EF420DA6E000EDD
:1053B800DF6E000E146E640E136EB1EC68F06C0EA6
:1053C8004A24D96EDA6A000EDA22DF50296E295093
:1053D800020D7C0EF324F66EF30EF420F76E09002E
:1053E800F5CF1BF00A00F5CF1CF06C0E4A24D96EDD
:1053F800DA6A000EDA22DF502A6E2A502D0DC80E06
:10540800F3241D6E090EF4201E6E2FEC6DF0000EB5
:10541800146E640E136EB1EC68F04A2A6C0E4A24BE
:10542800D96EDA6A000EDA22DE28D8B41EEF2AF026
:1054380020EF2AF028EF2AF00B0E4A6426EF2AF014
:1054480028EF2AF0CBEF29F000016C512D0DEE0E5C
:10545800F324D96E090EF420DA6E020EDE18D8A4F1
:1054680038EF2AF03AEF2AF0C0EF2AF08E9C2BEEA4
:105478005AF0DF50D8A443EF2AF045EF2AF0AAEFFC
:105488002AF02BEE87F0DF50D8A44DEF2AF04FEF2B
:105498002AF0AAEF2AF02BEEB4F0DF50D8A457EF89
:1054A8002AF059EF2AF0AAEF2AF02BEEE1F0DF50AC
:1054B800D8A461EF2AF063EF2AF0AAEF2AF08E94BD
:1054C8008E968E988E9AAAEF2AF06C0E4A24D96E80
:1054D800DA6A000EDA22DF50296E29502D0DEE0E01
:1054E800F324D96E090EF420DA6E000EDF6E6C0E0E
:1054F8004A24D96EDA6A000EDA22DF50296E295062
:10550800020D7C0EF324F66EF30EF420F76E0900FC
:10551800F5CF1BF00A00F5CF1CF06C0E4A24D96EAB
:10552800DA6A000EDA22DF502A6E2A502D0DC80ED4
:10553800F3241D6E090EF4201E6E1FEC68F0000E99
:10554800146E640E136EB1EC68F04A2A6C0E4A248D
:10555800D96EDA6A000EDA22DE28D8B4B6EF2AF05D
:10556800B8EF2AF0C0EF2AF00B0E4A64BEEF2AF01B
:10557800C0EF2AF069EF2AF0000E406E010E00011C
:10558800B06F000E146E640E136EB1EC68F0000E6E
:105598004A6ED8EF2AF0600E4A24D96EDA6A000EF5
:1055A800DA22FF0EDF6E4A2A0B0E4A64DEEF2AF07B
:1055B800E0EF2AF0CFEF2AF0000E4A6EF3EF2AF060
:1055C8006C0E4A24D96EDA6A000EDA22600E4A247A
:1055D800E16EE26A000EE222DFCFE7FF4A2A6C0E94
:1055E8004A24D96EDA6A000EDA22DE28D8B4FFEF30
:1055F8002AF001EF2BF093EF29F00B0E4A6407EF26
:105608002BF009EF2BF0E4EF2AF026EF2CF06C5189
:105618002D0DEE0EF324D96E090EF420DA6EDE0499
:10562800D8A419EF2BF01BEF2BF048EF2BF084ECEC
:1056380067F01DC03EF01EC03FF000016C512D0DFB
:10564800CE0EF324D96E090EF420DA6EDECF29F0DF
:10565800DDCF2AF06C512D0DCC0EF324D96E090E36
:10566800F420DA6EDECF2BF0DDCF2CF029502B5E44
:105678002A502C5A3E502B243E6E3F502C203F6E11
:1056880075EC69F08BEF29F06C512D0DEE0EF324BB
:10569800D96E090EF420DA6E020EDE18D8A457EF80
:1056A8002BF059EF2BF093EF29F08E9C2BEE5AF04C
:1056B800DF50D8A462EF2BF064EF2BF086EF2BF0CD
:1056C8002BEE87F0DF50D8A46CEF2BF06EEF2BF0A9
:1056D80086EF2BF02BEEB4F0DF50D8A476EF2BF04A
:1056E80078EF2BF086EF2BF02BEEE1F0DF50D8A40B
:1056F80080EF2BF082EF2BF086EF2BF08E948E96B6
:105708008E988E9A000E4A6ED1EF2BF06C0E4A24BA
:10571800D96EDA6A000EDA22DF50296E29502D0D73
:10572800EE0EF324D96E090EF420DA6E000EDF6E49
:10573800000E146E640E136EB1EC68F06C0E4A2401
:10574800D96EDA6A000EDA22DF50296E2950020D6E
:105758007C0EF324F66EF30EF420F76E0900F5CFF5
:105768001BF00A00F5CF1CF06C0E4A24D96EDA6AD9
:10577800000EDA22DF502A6E2A502D0DC80EF324AF
:105788001D6E090EF4201E6E1FEC68F0000E146EDC
:10579800640E136EB1EC68F04A2A6C0E4A24D96E76
:1057A800DA6A000EDA22DE28D8B4DDEF2BF0DFEF5C
:1057B8002BF0E7EF2BF00B0E4A64E5EF2BF0E7EF49
:1057C8002BF08AEF2BF084EC67F01DC03EF01EC072
:1057D8003FF000016C512D0DCC0EF324D96E090E4B
:1057E800F420DA6EDECF29F0DDCF2AF06C512D0DD2
:1057F800D00EF324D96E090EF420DA6EDECF2BF02A
:10580800DDCF2CF06C512D0DCE0EF324D96E090E80
:10581800F420DA6EDECF2DF0DDCF2EF02D1E2E1EF9
:105828002D4A2E2A2B502D5E2C502E5A29502D26CB
:105838002A502E223E502D243E6E3F502E203F6E81
:1058480044EF2BF01200000E0301FD6FD7A22FEFDB
:105858002CF031EF2CF05BEF2CF0D7A436EF2CF0C6
:1058680038EF2CF05BEF2CF0D7A63DEF2CF03FEF94
:105878002CF05BEF2CF0D7A044EF2CF046EF2CF087
:105888005BEF2CF0D7A84BEF2CF04DEF2CF05BEF33
:105898002CF0D7BE52EF2CF054EF2CF05BEF2CF02D
:1058A800D7AC59EF2CF05BEF2CF0C4EF2FF0D7A258
:1058B80060EF2CF062EF2CF069EF2CF0D7B067EFB7
:1058C8002CF069EF2CF06EEF2CF0D786D784D788B0
:1058D800D79ED79CD7B273EF2CF075EF2CF07AEFE8
:1058E8002CF0010EFD6FD782BEEF2CF0D7B07FEF02
:1058F8002CF081EF2CF086EF2CF0020EFD6FD78094
:10590800BEEF2CF0D7B68BEF2CF08DEF2CF092EF8A
:105918002CF0030EFD6FD786BEEF2CF0D7B497EFAF
:105928002CF099EF2CF09EEF2CF0040EFD6FD7842D
:10593800BEEF2CF0D7B8A3EF2CF0A5EF2CF0AAEF10
:105948002CF0050EFD6FD788BEEF2CF0D7BEAFEF59
:105958002CF0B1EF2CF0B8EF2CF0D7ACB6EF2CF060
:10596800B8EF2CF0BEEF2CF0060EFD6FD79ED79C3B
:10597800BEEF2CF0030EFD19D8B4C5EF2CF0C7EF1D
:105988002CF0CDEF2CF0750E146E300E136EB1ECBA
:1059980068F077EC5BF0030E146EE80E136EB1EC52
:1059A80068F0D2EC4AF00001A651D8A4DEEF2CF042
:1059B800E0EF2CF06CEF2DF0010EA66F36EC6CF0DA
:1059C800010E0001B96F000E146E320E136EB1ECA9
:1059D80068F04CEC6DF0000E146E320E136EB1ECE4
:1059E80068F0000E136E060E146E620E156EFF0E32
:1059F800166E000E186E0A0E176E90EC66F0D3EC59
:105A080002F0000E136E060E146E9C0E156EFE0E3E
:105A1800166E000E186E160E176E90EC66F0D3EC2C
:105A280002F0000E136E060E146E3E0E156EFE0E7C
:105A3800166E000E186E1F0E176E90EC66F0D3EC03
:105A480002F0000E4A6E64EF2DF0090E4A602FEF47
:105A58002DF031EF2DF039EF2DF0300E0001D16F20
:105A68004A50310FD26F4FEF2DF0080E4A643FEFC6
:105A78002DF041EF2DF04FEF2DF00C0E4A6047EF5F
:105A88002DF049EF2DF04FEF2DF0310E0001D16FC1
:105A98004A50270FD26F6C0E4A24D96EDA6A000E6C
:105AA800DA224AC0DFFF2D0E206EFE0E216EE50EB3
:105AB800226E000E236E070E246E86EC18F04A2A1A
:105AC8000B0E4A646AEF2DF06CEF2DF029EF2DF0E4
:105AD800030E0301FD19D8A474EF2DF076EF2DF015
