:04000000ABEF02F070
:060008004F829AEF4AF05E
:100018004F80D8CF0EF0E8CF0FF0E0CF10F00E01F0
:1000280033AB19EF00F01BEF00F05AEF02F08F9698
:10003800339BE30ED46EB00ED36E492A3850391074
:10004800D8B429EF00F02BEF00F047EF00F08EAEA8
:1000580030EF00F032EF00F047EF00F03806D8A09C
:10006800390600019E51D8B43CEF00F03EEF00F095
:1000780046EF00F0030E9E6144EF00F046EF00F0FB
:1000880047EF00F09E2B8EAC4CEF00F04EEF00F0E7
:1000980096EF01F08EA453EF00F055EF00F070EFEB
:1000A80000F000018051781907E181517919D8A42D
:1000B80060EF00F062EF00F06CEF00F08E94000E3D
:1000C800796F000E786F684B692BAC2BA0EF00F0AE
:1000D800784B792BA0EF00F08EB475EF00F077EF36
:1000E80000F0A0EF00F000017051681907E17151AC
:1000F8006919D8A482EF00F084EF00F09EEF00F0B9
:10010800B051AC5DD8B08BEF00F08DEF00F096EFFA
:1001180000F08E84784B792B000E696F000E686FA3
:10012800A0EF00F0010E7025686F000E7121696F55
:10013800A0EF00F0684B692B8EA6A5EF00F0A7EFA3
:1001480000F0C2EF00F000017E51761907E17F51FF
:100158007719D8A4B2EF00F0B4EF00F0BEEF00F0CA
:100168008E96000E776F000E766F664B672BAB2B63
:10017800F2EF00F0764B772BF2EF00F08EB6C7EF78
:1001880000F0C9EF00F0F2EF00F000016E516619BF
:1001980007E16F516719D8A4D4EF00F0D6EF00F04B
:1001A800F0EF00F0AF51AB5DD8B0DDEF00F0DFEF5E
:1001B80000F0E8EF00F08E86764B772B000E676F25
:1001C800000E666FF2EF00F0010E6E25666F000EEE
:1001D8006F21676FF2EF00F0664B672B8EA8F7EF81
:1001E80000F0F9EF00F014EF01F000017C517419F0
:1001F80007E17D517519D8A404EF01F006EF01F06D
:1002080010EF01F08E98000E756F000E746F644B3E
:10021800652BAA2B44EF01F0744B752B44EF01F0CA
:100228008EB819EF01F01BEF01F044EF01F0000167
:100238006C51641907E16D516519D8A426EF01F0D6
:1002480028EF01F042EF01F0AE51AA5DD8B02FEFD0
:1002580001F031EF01F03AEF01F08E88744B752B05
:10026800000E656F000E646F44EF01F0010E6C25FF
:10027800646F000E6D21656F44EF01F0644B652BD0
:100288008EAA49EF01F04BEF01F066EF01F0000193
:100298007A51721907E17B517319D8A456EF01F00E
:1002A80058EF01F062EF01F08E9A000E736F000EA6
:1002B800726F624B632BA92B96EF01F0724B732B75
:1002C80096EF01F08EBA6BEF01F06DEF01F096EF4B
:1002D80001F000016A51621907E16B516319D8A452
:1002E80078EF01F07AEF01F094EF01F0AD51A95DDC
:1002F800D8B081EF01F083EF01F08CEF01F08E8A26
:10030800724B732B000E636F000E626F96EF01F055
:10031800010E6A25626F000E6B21636F96EF01F084
:10032800624B632B630E4818D8A49DEF01F09FEF32
:1003380001F0A3EF01F0000E496E5AEF02F04804F5
:10034800D8A4A9EF01F0ABEF01F0BCEF01F0000178
:10035800A1514918D8A4B3EF01F0B5EF01F0BCEFF3
:1003680001F0000E496E8F8E020E486E5AEF02F0B1
:10037800020E4818D8A4C3EF01F0C5EF01F0D5EF7D
:1003880001F03F504918D8A4CCEF01F0CEEF01F0AE
:10039800D5EF01F0000E496E8F9E030E486E5AEF9E
:1003A80002F0030E4818D8A4DCEF01F0DEEF01F0EC
:1003B800EFEF01F00001A0514918D8A4E6EF01F0D1
:1003C800E8EF01F0EFEF01F0000E496E8D84040EA6
:1003D800486E5AEF02F0040E4818D8A4F6EF01F060
:1003E800F8EF01F008EF02F03F504918D8A4FFEFEA
:1003F80001F001EF02F008EF02F0000E496E8D9453
:10040800050E486E5AEF02F0050E4818D8A40FEFF3
:1004180002F011EF02F022EF02F00001A05149189A
:10042800D8A419EF02F01BEF02F022EF02F0000E41
:10043800496E8D86060E486E5AEF02F0060E481871
:10044800D8A429EF02F02BEF02F03BEF02F03F5067
:100458004918D8A432EF02F034EF02F03BEF02F073
:10046800000E496E8D96070E486E5AEF02F0070E81
:100478004818D8A442EF02F044EF02F05AEF02F015
:1004880049500C6E0D6A000186510C1807E187511E
:100498000D18D8A452EF02F054EF02F05AEF02F010
:1004A800000E496E010E486E5AEF02F00E0138A197
:1004B80060EF02F062EF02F067EF02F08F96000142
:1004C800A32B0E01389138A56CEF02F06EEF02F005
:1004D800A3EF02F08F963895F00EC86EDC0EC76E4B
:1004E8000001A22BA251A85DD8B07DEF02F07FEFEA
:1004F80002F098EF02F03D50D8A485EF02F087EFA4
:1005080002F098EF02F0010E3D6E000EA26FC99046
:100518009C51D8B492EF02F094EF02F0A3EF02F0EE
:10052800010E9B6FA3EF02F03D50D8B49EEF02F08E
:10053800A0EF02F0A3EF02F0000EA26FC99010C066
:10054800E0FF0FC0E8FF0EC0D8FF4F90100011EF7A
:1005580054F0000E0501F86F000EF96F000EFC6FE5
:10056800000EFB6F1E0E0001A86F300EB165BFEFC5
:1005780002F0C1EF02F05EEF14F03A0EB161C7EF7E
:1005880002F0C9EF02F05EEF14F0000E3D6E000EAF
:100598004D6EC980010E116E030E77EC66F0FDEF0B
:1005A80002F0BB0E196EFF0E1A6E49EC64F0B10E24
:1005B800196E000E1A6E010E1B6E6AEC64F0FA0ECC
:1005C800196EFE0E1A6E49EC64F0010E126EF40EEE
:1005D800116E4BEC5FF03D50D8A4F5EF02F0F7EF49
:1005E80002F0FDEF02F0130E126E880E116E4BEC46
:1005F8005FF03D50D8B403EF03F005EF03F0D5EFFB
:1006080002F0000E116E0F0E77EC66F00E013885C1
:10061800150E116E070E126EF20E136E010E146E89
:10062800000E166E030E156E12EC5BF011501210D0
:10063800D8A421EF03F023EF03F04FEF14F0B10E2D
:10064800116E000E126E180E136E070E146E000E49
:10065800166E0A0E156ED3EC5FF063EC65F0000EB3
:10066800116E080E126E3F0E136E070E146E28ECF4
:100678005EF030EC65F0000E116E080E126EF0ECB4
:1006880062F00009D8B44BEF03F04DEF03F053EFDD
:1006980003F07BEC65F096EC45F062EF03F0000E9A
:1006A800116E050E77EC66F0070E126ED00E116E05
:1006B8004BEC5FF067EF14F067EF14F0C50E116EA6
:1006C800000E126EB10E136E000E146E000E166E32
:1006D8000A0E156E12EC5BF011501210D8A477EFC9
:1006E80003F079EF03F03EEF13F0B10E116E000E38
:1006F800126EF40E136E020E146E000E166E0A0EB3
:10070800156ED3EC5FF0000E116E050E126EED0E35
:10071800136E010E146E000E166E040E156E12EC9A
:100728005BF011501210D8A49CEF03F09EEF03F079
:10073800AEEF03F0000E4D6E4C0E296EFE0E2A6EC3
:10074800C50E2B6E000E2C6E000E2D6E68EC14F08C
:1007580067EF14F0000E116E050E126EFB0E136E8D
:10076800000E146E000E166E020E156E12EC5BF083
:1007780011501210D8A4C3EF03F0C5EF03F00CEF2B
:1007880004F0030E116E050E126ED70E136E000ED6
:10079800146E000E166E060E156E12EC5BF01150FC
:1007A8001210D8A4DAEF03F0DCEF03F0FCEF03F04B
:1007B800D70E116E000E126E0A0E136E050E146E11
:1007C800000E166E060E156ED3EC5FF069EC61F044
:1007D800000E4D6EEA0E296EFC0E2A6EC50E2B6EAB
:1007E800000E2C6E000E2D6E68EC14F067EF14F0FE
:1007F800000E4D6EE20E296EFD0E2A6EC50E2B6E92
:10080800000E2C6E000E2D6E68EC14F067EF14F0DD
:10081800000E116E050E126EFA0E136E010E146E96
:10082800000E166E030E156E12EC5BF011501210CE
:10083800D8A421EF04F023EF04F0C1EF06F0000E76
:100848000501FC6F000EFB6F030EA6EC47F04C6E23
:10085800010E0501FA6F060E4D6E000E4D24D96E7D
:10086800DA6A050EDA22DF50ABEC65F00009D8B47D
:1008780040EF04F042EF04F093EF05F0010E4D2431
:10088800D96EDA6A050EDA22200EDE18D8A44FEFE8
:1008980004F051EF04F072EF04F0000E4D24D96E0D
:1008A800DA6A050EDA22000E4D24E16EE26A050EC0
:1008B800E222E750D00FDF6E000E4D24D96EDA6ABF
:1008C800050EDA22DF500301F96FF9510501FB2506
:1008D800FB6F000EFC21FC6FC8EF05F0000E4D24E5
:1008E800D96EDA6A050EDA22000E4D24E16EE26A4C
:1008F800050EE222E750D00FDF6E000E4D24D96EB0
:10090800DA6A050EDA22DF500A0D000E4D24D96E80
:10091800DA6A050EDA22F3CFDFFFFBC511F0FCC55A
:1009280012F0000E146E0A0E136EEAEC65F011C098
:10093800FBF512C0FCF560EF04F04C502D0DE00EF5
:10094800F324D96E080EF420DA6EFBC5DEFFFCC571
:10095800DDFF000E0501FC6F000EFB6FC6EF05F012
:100968004C502D0DFA0EF324D96E080EF420DA6ED1
:10097800FBC5DFFFADEF04F04C502D0DFB0EF3244B
:10098800D96E080EF420DA6EFBC5DFFFADEF04F078
:100998004C502D0DFC0EF324D96E080EF420DA6E9F
:1009A800FBC5DFFFADEF04F04C502D0DDC0EF3243A
:1009B800D96E080EF420DA6EFBC5DEFFFCC5DDFF3C
:1009C800ADEF04F04C502D0DDE0EF324D96E080E59
:1009D800F420DA6EFBC5DEFFFCC5DDFFADEF04F0E9
:1009E8004C502D0D010EF324D96E090EF420DA6E49
:1009F800FBC5DFFFADEF04F04C502D0D030EF324C3
:100A0800D96E090EF420DA6EFBC5DFFF4C502D0DB0
:100A1800040EF324D96E090EF420DA6EFBC5DFFF4D
:100A2800ADEF04F00501FB51FEEC3EF0000E0501B0
:100A3800FC6F000EFB6F4C502D0DFD0EF324D96E8C
:100A4800080EF420DA6E3AC0DFFF4C502D0DFE0E72
:100A5800F324D96E080EF420DA6E40C0DFFF4C5044
:100A68002D0DFF0EF324D96E080EF420DA6E41C066
:100A7800DFFF4C502D0D050EF324D96E090EF4201E
:100A8800DA6E000EDF6E4C502D0D060EF324D96E73
:100A9800090EF420DA6E010EDF6E4C502D0DE20EB9
:100AA800F324D96E080EF420DA6E000EDE6E000E06
:100AB800DD6E4C502D0DE40EF324D96E080EF42093
:100AC800DA6E000EDE6E000EDD6E4C502D0D000E3F
:100AD800F324D96E090EF420DA6E000EDF6E4C5046
:100AE8002D0D070EF324D96E090EF420DA6E000ED0
:100AF800DF6E4C502D0D020EF324D96E090EF42032
:100B0800DA6E000EDF6E4C502D0D080EF324D96EF0
:100B1800090EF420DA6E000EDF6EC6EF05F005014F
:100B2800FA510301F96FFA6BFA51000AD8B49FEF32
:100B380005F0C6EF05F0F951010AD8B4A1EF04F0A9
:100B4800030AD8B4B4EF04F0010AD8B4C0EF04F033
:100B5800070AD8B4CCEF04F0010AD8B4D8EF04F0EF
:100B6800030AD8B4E6EF04F0010AD8B4F4EF04F0AD
:100B78000F0AD8B400EF05F0010AD8B416EF05F053
:100B8800C6EF05F00501FA2B4D2A090EFA65CFEFDD
:100B980005F0D1EF05F031EF04F0000E126E640E8F
:100BA800116E4BEC5FF04C50020D4D0EF324F66EB7
:100BB800F20EF420F76E0900F5CF19F00A00F5CF10
:100BC8001AF04C502D0DDC0EF3241B6E080EF42089
:100BD8001C6E1BEC4EF0000E126E640E116E4BEC88
:100BE8005FF04C50020D4D0EF324F66EF20EF42019
:100BF800F76E0900F5CF19F00A00F5CF1AF04C503E
:100C08002D0DDC0EF3241B6E080EF4201C6EBAECBE
:100C18005EF0000E126E640E116E4BEC5FF04C50DD
:100C2800020D4D0EF324F66EF20EF420F76E090055
:100C3800F5CF19F00A00F5CF1AF04C502D0DDC0E47
:100C4800F3241B6E080EF4201C6EC2EC64F0000E38
:100C5800126E640E116E4BEC5FF04C50020D4D0E8F
:100C6800F324F66EF20EF420F76E0900F5CF19F0B2
:100C78000A00F5CF1AF04C502D0DDC0EF3241B6E34
:100C8800080EF4201C6EA5EC64F0000E126E640EC3
:100C9800116E4BEC5FF04C50020D4D0EF324F66EC6
:100CA800F20EF420F76E0900F5CF19F00A00F5CF1F
:100CB8001AF04C502D0DDC0EF3241B6E080EF42098
:100CC8001C6E88EC64F0000E126E640E116E4BEC14
:100CD8005FF04C50020D4D0EF324F66EF20EF42028
:100CE800F76E0900F5CF19F00A00F5CF1AF04C504D
:100CF8002D0DDC0EF3241B6E080EF4201C6E49EC3F
:100D08003CF0000E126E640E116E4BEC5FF0090E93
:100D18004C6091EF06F093EF06F09BEF06F0300E73
:100D28000001B16F4C50310FB26FB1EF06F0080EF1
:100D38004C64A1EF06F0A3EF06F0B1EF06F00C0E3D
:100D48004C60A9EF06F0ABEF06F0B1EF06F0310EFC
:100D58000001B16F4C50270FB26F000E4D6E760E2A
:100D6800296EFB0E2A6EC50E2B6E000E2C6E020E1F
:100D78002D6E68EC14F067EF14F0000E116E050E7E
:100D8800126EE80E136E010E146E000E166E040E2F
:100D9800156E12EC5BF011501210D8A4D6EF06F0C5
:100DA800D8EF06F08BEF07F0040EA6EC47F04C6E78
:100DB8004C502D0D050EF324D96E090EF420DA6E71
:100DC800DE04D8A4EAEF06F0ECEF06F0EFEF06F049
:100DD800010E0001946F4C502D0D060EF324D96EB0
:100DE800090EF420DA6E000EDF6E4C502D0D070E42
:100DF800F324D96E090EF420DA6EDE04D8A407EFC6
:100E080007F009EF07F037EF07F04C502D0D070EEC
:100E1800F324D96E090EF420DA6E000EDF6E000E90
:100E2800126E640E116E4BEC5FF04C50020D4D0EBD
:100E3800F324F66EF20EF420F76E0900F5CF19F0E0
:100E48000A00F5CF1AF04C502D0DDC0EF3241B6E62
:100E5800080EF4201C6E49EC3CF0000E126E640E75
:100E6800116E4BEC5FF04C50020D4D0EF324F66EF4
:100E7800F20EF420F76E0900F5CF19F00A00F5CF4D
:100E88001AF04C502D0DDC0EF3241B6E080EF420C6
:100E98001C6E88EC64F0000E126E640E116E4BEC42
:100EA8005FF0090E4C605BEF07F05DEF07F065EF50
:100EB80007F0300E0001B16F4C50310FB26F7BEF6D
:100EC80007F0080E4C646BEF07F06DEF07F07BEF4F
:100ED80007F00C0E4C6073EF07F075EF07F07BEF2F
:100EE80007F0310E0001B16F4C50270FB26F000EA2
:100EF8004D6ECF0E296EF90E2A6EC50E2B6E000EA2
:100F08002C6E020E2D6E68EC14F067EF14F0000ED4
:100F1800116E050E126EED0E136E020E146E000E9B
:100F2800166E060E156E12EC5BF011501210D8A456
:100F3800A0EF07F0A2EF07F087EF0AF0000E050117
:100F4800FC6F000EFB6F000EFA6F060EA6EC47F062
:100F58004C6E4C502D0D060EF324D96E090EF4205C
:100F6800DA6EDF50D8A4BBEF07F0BDEF07F0F3EF60
:100F780007F0090E4C60C3EF07F0C5EF07F0CDEF9F
:100F880007F0300E0001B16F4C50310FB26FE3EF34
:100F980007F0080E4C64D3EF07F0D5EF07F0E3EF46
:100FA80007F00C0E4C60DBEF07F0DDEF07F0E3EF26
:100FB80007F0310E0001B16F4C50270FB26F000ED1
:100FC8004D6EAC0E296EF60E2A6EC50E2B6E000EF7
:100FD8002C6E020E2D6E68EC14F067EF14F0090EFB
:100FE8004D6E000E4D24D96EDA6A050EDA22DF50F6
:100FF800ABEC65F00009D8B404EF08F006EF08F090
:1010080065EF08F0010E4D24D96EDA6A050EDA2272
:10101800200EDE18D8A413EF08F015EF08F036EF0D
:1010280008F0000E4D24D96EDA6A050EDA22000E99
:101038004D24E16EE26A050EE222E750D00FDF6E22
:10104800000E4D24D96EDA6A050EDA22DF5003014C
:10105800F96FF9510501FB25FB6F000EFC21FC6FB0
:1010680013EF0AF0000E4D24D96EDA6A050EDA2263
:10107800000E4D24E16EE26A050EE222E750D00F21
:10108800DF6E000E4D24D96EDA6A050EDA22DF50C3
:101098000A0D000E4D24D96EDA6A050EDA22F3CF56
:1010A800DFFFFBC511F0FCC512F0000E146E0A0E2E
:1010B800136EEAEC65F011C0FBF512C0FCF524EFE5
:1010C80008F00501FA2BC9EF09F04C502D0DE20E7E
:1010D800F324D96E080EF420DA6EFBC5DEFFFCC5DA
:1010E800DDFF000E0501FC6F000EFB6F13EF0AF029
:1010F8004C502D0DE40EF324D96E080EF420DA6E50
:10110800FBC5DEFFFCC5DDFF75EF08F04C502D0D6B
:10111800000EF324D96E090EF420DA6EFBC5DFFF4A
:1011280075EF08F04C502D0DE60EF324D96E080E1D
:10113800F420DA6EFBC5DEFFFCC5DDFF75EF08F0B5
:101148004C502D0DEE0EF324D96E080EF420DA6EF5
:10115800FBC5DEFFFCC5DDFF75EF08F04C502D0D1B
:10116800F60EF324D96E080EF420DA6EFBC5DFFF05
:1011780075EF08F04C502D0DE80EF324D96E080ECB
:10118800F420DA6EFBC5DEFFFCC5DDFF75EF08F065
:101198004C502D0DF00EF324D96E080EF420DA6EA3
:1011A800FBC5DEFFFCC5DDFF75EF08F04C502D0DCB
:1011B800F70EF324D96E080EF420DA6EFBC5DFFFB4
:1011C80075EF08F04C502D0DEA0EF324D96E080E79
:1011D800F420DA6EFBC5DEFFFCC5DDFF75EF08F015
:1011E8004C502D0DF20EF324D96E080EF420DA6E51
:1011F800FBC5DEFFFCC5DDFF75EF08F04C502D0D7B
:10120800F80EF324D96E080EF420DA6EFBC5DFFF62
:1012180075EF08F04C502D0DEC0EF324D96E080E26
:10122800F420DA6EFBC5DEFFFCC5DDFF75EF08F0C4
:101238004C502D0DF40EF324D96E080EF420DA6EFE
:10124800FBC5DEFFFCC5DDFF75EF08F04C502D0D2A
:10125800F90EF324D96E080EF420DA6EFBC5DFFF11
:101268004C502D0D020EF324D96E090EF420DA6EBF
:10127800000EDF6E4C502D0D080EF324D96E090EAA
:10128800F420DA6E000EDF6E000E0501FC6F000E12
:10129800FB6F4C502D0DE00EF324D96E080EF42090
:1012A800DA6E4C502D0DE40EF324E16E080EF42096
:1012B800E26EE6CFFBF3E5CFFCF34C502D0DE20ECA
:1012C800F324E16E080EF420E26EE6CFFDF3E5CFDD
:1012D800FEF30301FB51FD27FC51FE23DE50FD5DAB
:1012E800DE50FE59D8A07BEF09F07DEF09F0BDEF85
:1012F80009F04C502D0D070EF324D96E090EF42079
:10130800DA6E000EDF6E090E4C608DEF09F08FEF7C
:1013180009F097EF09F0300E0001B16F4C50310F12
:10132800B26FADEF09F0080E4C649DEF09F09FEF26
:1013380009F0ADEF09F00C0E4C60A5EF09F0A7EF2E
:1013480009F0ADEF09F0310E0001B16F4C50270FD5
:10135800B26F000E4D6E010E296EF90E2A6EC50E83
:101368002B6E000E2C6E020E2D6E68EC14F013EF2F
:101378000AF04C502D0D070EF324D96E090EF420F7
:10138800DA6E010EDF6E13EF0AF0FA510301F96FFE
:10139800FA6BFA51000AD8B4D4EF09F013EF0AF047
:1013A800F951010AD8B469EF08F0030AD8B47CEF00
:1013B80008F0010AD8B48AEF08F0070AD8B496EF03
:1013C80008F0010AD8B4A4EF08F0030AD8B4B2EFC1
:1013D80008F0010AD8B4BEEF08F00F0AD8B4CCEF71
:1013E80008F0010AD8B4DAEF08F0030AD8B4E6EF37
:1013F80008F0010AD8B4F4EF08F0070AD8B402EFED
:1014080009F0010AD8B40EEF09F0030AD8B41CEFAA
:1014180009F0010AD8B42AEF09F013EF0AF04D2AAF
:101428000E0E0501FA651BEF0AF01DEF0AF0F5EF45
:1014380007F04C502D0D070EF324D96E090EF42039
:10144800DA6EDF50D8B42BEF0AF02DEF0AF067EF11
:1014580014F0000E126E640E116E4BEC5FF04C50DF
:10146800020D4D0EF324F66EF20EF420F76E09000D
:10147800F5CF19F00A00F5CF1AF04C502D0DDC0EFF
:10148800F3241B6E080EF4201C6E49EC3CF0000E91
:10149800126E640E116E4BEC5FF0090E4C6057EF44
:1014A8000AF059EF0AF061EF0AF0300E0001B16F4F
:1014B8004C50310FB26F77EF0AF0080E4C6467EFAB
:1014C8000AF069EF0AF077EF0AF00C0E4C606FEF44
:1014D8000AF071EF0AF077EF0AF0310E0001B16FF0
:1014E8004C50270FB26F000E4D6E240E296EFC0E65
:1014F8002A6EC50E2B6E000E2C6E020E2D6E68EC39
:1015080014F067EF14F0000E116E050E126ED70E70
:10151800136E020E146E000E166E070E156E12EC88
:101528005BF011501210D8A49CEF0AF09EEF0AF05D
:101538003AEF0BF0070EA6EC47F04C6E4C502D0D11
:10154800050EF324D96E090EF420DA6EDE04D8A451
:10155800B0EF0AF0B2EF0AF0C6EF0AF04C502D0DCA
:10156800020EF324D96E090EF420DA6E030EDE188B
:10157800D8B4C1EF0AF0C3EF0AF0C6EF0AF0010EC3
:101588000001946F4C502D0D070EF324D96E090EEF
:10159800F420DA6EDE04D8A4D4EF0AF0D6EF0AF00D
:1015A80060EF03F04C502D0D070EF324D96E090E91
:1015B800F420DA6E000EDF6E000E126E640E116EED
:1015C8004BEC5FF04C50020D4D0EF324F66EF20E0C
:1015D800F420F76E0900F5CF19F00A00F5CF1AF0DC
:1015E8004C502D0DDC0EF3241B6E080EF4201C6EDF
:1015F80049EC3CF0000E126E640E116E4BEC5FF07D
:10160800090E4C600AEF0BF00CEF0BF014EF0BF027
:10161800300E0001B16F4C50310FB26F2AEF0BF052
:10162800080E4C641AEF0BF01CEF0BF02AEF0BF0CE
:101638000C0E4C6022EF0BF024EF0BF02AEF0BF0AE
:10164800310E0001B16F4C50270FB26F000E4D6E76
:10165800BD0E296EFB0E2A6EC50E2B6E000E2C6E6B
:10166800020E2D6E68EC14F067EF14F0000E116E88
:10167800050E126EE60E136E020E146E000E166E36
:10168800060E156E12EC5BF011501210D8A44FEF35
:101698000BF051EF0BF03BEF0CF0000E0501FC6F67
:1016A800000EFB6F000EFA6F060E4D6E000E4D24F5
:1016B800D96EDA6A050EDA22DF50ABEC65F0000964
:1016C800D8B469EF0BF06BEF0BF0CAEF0BF0010E1B
:1016D8004D24D96EDA6A050EDA22200EDE18D8A457
:1016E80078EF0BF07AEF0BF09BEF0BF0000E4D2428
:1016F800D96EDA6A050EDA22000E4D24E16EE26A2E
:10170800050EE222E750D00FDF6E000E4D24D96E91
:10171800DA6A050EDA22DF500301F96FF951050183
:10172800FB25FB6F000EFC21FC6F13EF0CF0000E85
:101738004D24D96EDA6A050EDA22000E4D24E16EC8
:10174800E26A050EE222E750D00FDF6E000E4D244C
:10175800D96EDA6A050EDA22DF500A0D000E4D2422
:10176800D96EDA6A050EDA22F3CFDFFFFBC511F076
:10177800FCC512F0000E146E0A0E136EEAEC65F04A
:1017880011C0FBF512C0FCF589EF0BF00501FA2B2F
:10179800F1EF0BF0FBC5A1F0000E0501FC6F000E88
:1017A800FB6F13EF0CF0FBC5A0F0D0EF0BF0FBC5FF
:1017B8009FF0D0EF0BF0FBC53FF0D0EF0BF0FBC56F
:1017C80086F00001876B000E0501FC6F000EFB6FB1
:1017D800010E00018D6F13EF0CF0FA510301F96F40
:1017E800FA6BFA51000AD8B4FCEF0BF013EF0CF0C7
:1017F800F951010AD8B4CEEF0BF0030AD8B4D7EFE9
:101808000BF0010AD8B4DBEF0BF0070AD8B4DFEF0E
:101818000BF0010AD8B4E3EF0BF013EF0CF04D2AEC
:10182800040E0501FA651BEF0CF01DEF0CF05AEFE2
:101838000BF0000E126E640E116E4BEC5FF059EC5B
:1018480053F0000E126E640E116E4BEC5FF0000E3A
:101858004D6E7C0E296EFD0E2A6EC50E2B6E000E87
:101868002C6E000E2D6E68EC14F067EF14F0000E6D
:10187800116E050E126ECF0E136E020E146E000E50
:10188800166E070E156E12EC5BF011501210D8A4EC
:1018980050EF0CF052EF0CF073EF0CF0000E00015B
:1018A8008D6F000E126E640E116E4BEC5FF059ECEA
:1018B80053F0000E126E640E116E4BEC5FF0000ECA
:1018C8004D6E290E296EFD0E2A6EC50E2B6E000E6A
:1018D8002C6E000E2D6E68EC14F067EF14F0000EFD
:1018E800116E050E126ED80E136E010E146E000ED8
:1018F800166E050E156E12EC5BF011501210D8A47E
:1019080088EF0CF08AEF0CF0B3EF0CF000018D516A
:10191800D8B491EF0CF093EF0CF0A3EF0CF0000E9D
:101928004D6E610E296EFD0E2A6EC50E2B6E000ED1
:101938002C6E080E2D6E68EC14F067EF14F0000E94
:101948004D6ECA0E296EFC0E2A6EC50E2B6E000E49
:101958002C6E000E2D6E68EC14F067EF14F0000E7C
:10196800116E050E126EDE0E136E010E146E000E51
:10197800166E040E156E12EC5BF011501210D8A4FE
:10198800C8EF0CF0CAEF0CF0A9EF0DF0000E05013E
:10199800FC6F000EFB6F000EFA6F050E4D6E000E09
:1019A8004D24D96EDA6A050EDA22DF50ABEC65F009
:1019B8000009D8B4E2EF0CF0E4EF0CF073EF0DF08F
:1019C800000E4D24D96EDA6A050EDA22000E4D2477
:1019D800E16EE26A050EE222E750D00FDF6E000EDC
:1019E8004D24D96EDA6A050EDA22DF500301F96F49
:1019F800F9510501FB6FFC6BFBC511F0FCC512F03A
:101A0800000E146E0A0E136EEAEC65F011C0FBF5B9
:101A180012C0FCF5010E4D24D96EDA6A050EDA22E1
:101A2800010E4D24E16EE26A050EE222E750D00F66
:101A3800DF6E010E4D24D96EDA6A050EDA22DF5008
:101A48000301F96FF9510501FB25FB6F000EFC211D
:101A5800FC6FFA2B4DEF0DF0FBC545F0000E0501AC
:101A6800FC6F000EFB6F83EF0DF0FBC546F032EF05
:101A78000DF0FBC547F032EF0DF0FBC544F032EF37
:101A88000DF0FBC543F032EF0DF0FBC542F032EF2D
:101A98000DF0FA510301F96FFA6BFA51000AD8B444
:101AA80058EF0DF083EF0DF0F951010AD8B430EF7B
:101AB8000DF0030AD8B439EF0DF0010AD8B43DEFA0
:101AC8000DF0070AD8B441EF0DF0010AD8B445EF7C
:101AD8000DF0030AD8B449EF0DF083EF0DF0000EB6
:101AE8004D6E460E296EFD0E2A6EC50E2B6E000E2B
:101AF8002C6E000E2D6E68EC14F067EF14F0030ED8
:101B08004D26050E0501FA658CEF0DF08EEF0DF0F0
:101B1800D3EF0CF0060EFA19D8A495EF0DF097EF55
:101B28000DF099EF0DF003EC5FF0000E4D6E8B0E8B
:101B3800296EFA0E2A6EC50E2B6E000E2C6E000E44
:101B48002D6E68EC14F067EF14F0000E116E050EA0
:101B5800126EE30E136E010E146E000E166E040E56
:101B6800156E12EC5BF011501210D8A4BEEF0DF0F8
:101B7800C0EF0DF078EF0EF098EC5CF045C011F076
:101B8800126A000E146E0A0E136EDEEC5BF0115032
:101B9800300F0001B16F45C023F0246A000E266E95
:101BA8000A0E256E40EC5CF02350300F0001B26F36
:101BB8002F0EB36F46C011F0126A000E146E0A0E93
:101BC800136EDEEC5BF01150300F0001B46F46C0AD
:101BD80023F0246A000E266E0A0E256E40EC5CF097
:101BE8002350300F0001B56F2F0EB66F47C011F0AC
:101BF800126A000E146E0A0E136EDEEC5BF01150C2
:101C0800300F0001B76F47C023F0246A000E266E1C
:101C18000A0E256E40EC5CF02350300F0001B86FBF
:101C2800200EB96F44C011F0126A000E146E0A0E2D
:101C3800136EDEEC5BF01150300F0001BA6F44C038
:101C480023F0246A000E266E0A0E256E40EC5CF026
:101C58002350300F0001BB6F3A0EBC6F43C011F028
:101C6800126A000E146E0A0E136EDEEC5BF0115051
:101C7800300F0001BD6F43C023F0246A000E266EAA
:101C88000A0E256E40EC5CF02350300F0001BE6F49
:101C98003A0EBF6F42C011F0126A000E146E0A0E9F
:101CA800136EDEEC5BF01150300F0001C06F42C0C4
:101CB80023F0246A000E266E0A0E256E40EC5CF0B6
:101CC8002350300F0001C16F000E4D6E6C0E296E4F
:101CD800FE0E2A6EC50E2B6E000E2C6E030E2D6E98
:101CE80068EC14F067EF14F0000E116E050E126E1A
:101CF800C70E136E020E146E000E166E070E156ECA
:101D080012EC5BF011501210D8A48DEF0EF08FEF8B
:101D18000EF0E7EF0EF0070EA6EC47F04C6E090E3A
:101D28004C6099EF0EF09BEF0EF0A3EF0EF0300E23
:101D38000001B16F4C50310FB26FB9EF0EF0080EC1
:101D48004C64A9EF0EF0ABEF0EF0B9EF0EF00C0EED
:101D58004C60B1EF0EF0B3EF0EF0B9EF0EF0310EAC
:101D68000001B16F4C50270FB26F000E4D6E4C50F2
:101D78002D0D060EF324D96E090EF420DA6EDF500D
:101D8800D8B4C9EF0EF0CBEF0EF0D9EF0EF07B0E02
:101D9800296EFE0E2A6EC50E2B6E000E2C6E070ED7
:101DA8002D6E68EC14F067EF14F0050E296EFB0E2B
:101DB8002A6EC50E2B6E000E2C6E020E2D6E68EC70
:101DC80014F067EF14F0000E116E050E126EF80E87
:101DD800136E000E146E000E166E020E156E12ECC7
:101DE8005BF011501210D8A4FCEF0EF0FEEF0EF0CD
:101DF800E1EF0FF08EAE03EF0FF005EF0FF015EFE8
:101E08000FF0000E4D6E9E0E296EF90E2A6EC50E4D
:101E18002B6E000E2C6E000E2D6E68EC14F067EF22
:101E280014F0000E0501FC6F000EFB6F000EFA6F38
:101E3800010EFA6F030E4D6E000E4D24D96EDA6A4C
:101E4800050EDA22DF50ABEC65F00009D8B42FEFAD
:101E58000FF031EF0FF0A1EF0FF0010E4D24D96E06
:101E6800DA6A050EDA22200EDE18D8A43EEF0FF04B
:101E780040EF0FF061EF0FF0000E4D24D96EDA6AD3
:101E8800050EDA22000E4D24E16EE26A050EE2220A
:101E9800E750D00FDF6E000E4D24D96EDA6A050EBA
:101EA800DA22DF500301F96FF9510501FB25FB6FB9
:101EB800000EFC21FC6FBAEF0FF0000E4D24D96E16
:101EC800DA6A050EDA22000E4D24E16EE26A050E8A
:101ED800E222E750D00FDF6E000E4D24D96EDA6A89
:101EE800050EDA22DF500A0D000E4D24D96EDA6A8B
:101EF800050EDA22F3CFDFFFFBC511F0FCC512F0A7
:101F0800000E146E0A0E136EEAEC65F011C0FBF5B4
:101F180012C0FCF54FEF0FF0FBC560F0FCC561F097
:101F2800000E0501FC6F000EFB6FB8EF0FF0FBC54C
:101F3800E2F0FCC5E3F094EF0FF00501FA5103015C
:101F4800F96FFA6BFA51000AD8B4ADEF0FF0B8EF99
:101F58000FF0F951010AD8B490EF0FF0030AD8B482
:101F68009BEF0FF0B8EF0FF00501FA2B4D2A020E88
:101F7800FA65C1EF0FF0C3EF0FF020EF0FF0000E7E
:101F8800126E640E116E4BEC5FF033EC5AF0000EDB
:101F9800126E640E116E4BEC5FF0000E4D6E9A0ED1
:101FA800296EFB0E2A6EC50E2B6E000E2C6E000ECF
:101FB8002D6E68EC14F067EF14F0000E116E050E2C
:101FC800126ED20E136E010E146E000E166E050EF2
:101FD800156E12EC5BF011501210D8A4F6EF0FF04A
:101FE800F8EF0FF008EF10F0000E4D6E2E0E296E70
:101FF800FA0E2A6EC50E2B6E000E2C6E050E2D6E77
:1020080068EC14F067EF14F0000E116E050E126EF6
:10201800BF0E136E020E146E000E166E070E156EAE
:1020280012EC5BF011501210D8A41DEF10F01FEF46
:1020380010F07BEF10F0070EA6EC47F04C6E000E88
:10204800126E640E116E4BEC5FF04C505EEC31F08A
:10205800090E4C6032EF10F034EF10F03CEF10F046
:10206800300E0001B16F4C50310FB26F52EF10F0CB
:10207800080E4C6442EF10F044EF10F052EF10F0ED
:102088000C0E4C604AEF10F04CEF10F052EF10F0CD
:10209800310E0001B16F4C50270FB26F00019B51F8
:1020A800D8B459EF10F05BEF10F06BEF10F0000EA2
:1020B8009B6FDD0E296EFA0E2A6EC50E2B6E000E72
:1020C8002C6E020E2D6E68EC14F067EF14F0000E03
:1020D8004D6E5D0E296EFA0E2A6EC50E2B6E000E21
:1020E8002C6E060E2D6E68EC14F067EF14F0000EDF
:1020F800116E050E126EF60E136E010E146E000EA2
:10210800166E030E156E12EC5BF011501210D8A467
:1021180090EF10F092EF10F0E6EF10F0030EA6EC3F
:1021280047F04C6E000E126E640E116E4BEC5FF0B1
:102138008EAEA1EF10F0A3EF10F0A5EF10F005EFB1
:102148000FF0090E4C60ABEF10F0ADEF10F0B5EFEB
:1021580010F0300E0001B16F4C50310FB26FCBEF61
:1021680010F0080E4C64BBEF10F0BDEF10F0CBEF91
:1021780010F00C0E4C60C3EF10F0C5EF10F0CBEF71
:1021880010F0310E0001B16F4C50270FB26F130ED3
:10219800126E880E116E4BEC5FF04CC01EF0010EF3
:1021A8004AEC41F0030E126EE80E116E4BEC5FF034
:1021B80033EC5AF0030E126EE80E116E4BEC5FF022
:1021C800F8EF0FF0000E116E050E126EDF0E136E93
:1021D800020E146E000E166E060E156E12EC5BF0F3
:1021E80011501210D8A4FBEF10F0FDEF10F060EFC3
:1021F80003F0000E0501FC6F000EFB6F000EFA6F76
:10220800070E4D6E000E4D24D96EDA6A050EDA22DD
:10221800DF50ABEC65F00009D8B415EF11F017EFFB
:1022280011F090EF11F0000E4D24D96EDA6A050E08
:10223800DA22000E4D24E16EE26A050EE222E75032
:10224800D00FDF6E000E4D24D96EDA6A050EDA2241
:10225800DF500301F96FF9510501FB6FFC6BFBC5FA
:1022680011F0FCC512F0000E146E0A0E136EEAECA3
:1022780065F011C0FBF512C0FCF5010E4D24D96EB6
:10228800DA6A050EDA22010E4D24E16EE26A050EC5
:10229800E222E750D00FDF6E010E4D24D96EDA6AC4
:1022A800050EDA22DF500301F96FF9510501FB250C
:1022B800FB6F000EFC21FC6FFA2B76EF11F0FBC5CB
:1022C800F8F5000E0501FC6F000EFB6F90EF11F0A2
:1022D800FBC5F9F565EF11F00501FB51FEEC3EF089
:1022E80065EF11F0FA510301F96FFA6BFA51000A20
:1022F800D8B481EF11F090EF11F0F951010AD8B478
:1023080063EF11F0030AD8B46CEF11F0010AD8B4E6
:1023180070EF11F090EF11F0030E4D26020E05013B
:10232800FA6599EF11F09BEF11F006EF11F0000E2E
:102338004C6E26EF13F04C502D0DE00EF324D96EA1
:10234800080EF420DA6E0F0EDE6E000EDD6E4C50B5
:102358002D0DFA0EF324D96E080EF420DA6E010E54
:10236800DF6E4C502D0DFB0EF324D96E080EF420B1
:10237800DA6EF8C5DFFF4C502D0DFC0EF324D96E34
:10238800080EF420DA6EF9C5DFFF4C502D0DFD0E56
:10239800F324D96E080EF420DA6E3AC0DFFF4C50F1
:1023A8002D0DFE0EF324D96E080EF420DA6E40C00F
:1023B800DFFF4C502D0DFF0EF324D96E080EF420CC
:1023C800DA6E41C0DFFF4C502D0DDC0EF324D96EC0
:1023D800080EF420DA6E640EDE6E000EDD6E4C50D0
:1023E8002D0DDE0EF324D96E080EF420DA6E300EB1
:1023F800DE6E750EDD6E4C502D0D010EF324D96E78
:10240800090EF420DA6E4C28DF6E4C502D0D050EA7
:10241800F324D96E090EF420DA6E000EDF6E4C50EC
:102428002D0D030EF324D96E090EF420DA6E020E78
:10243800DF6E4C502D0D040EF324D96E090EF420D6
:10244800DA6E020EDF6E4C502D0D060EF324D96E97
:10245800090EF420DA6E010EDF6E4C502D0DE20EDF
:10246800F324D96E080EF420DA6E050EDE6E000E27
:10247800DD6E4C502D0DE40EF324D96E080EF420B9
:10248800DA6E0F0EDE6E000EDD6E4C502D0D000E56
:10249800F324D96E090EF420DA6E4C28DF6E4C5006
:1024A8002D0D020EF324D96E090EF420DA6E000EFB
:1024B800DF6E4C502D0D080EF324D96E090EF42052
:1024C800DA6E000EDF6E4C502D0D070EF324D96E18
:1024D800090EF420DA6E010EDF6E4C50020D4D0E1F
:1024E800F324F66EF20EF420F76E0900F5CF19F01A
:1024F8000A00F5CF1AF04C502D0DDC0EF3241B6E9C
:10250800080EF4201C6E1BEC4EF0000E126E640ECA
:10251800116E4BEC5FF04C50020D4D0EF324F66E2D
:10252800F20EF420F76E0900F5CF19F00A00F5CF86
:102538001AF04C502D0DDC0EF3241B6E080EF420FF
:102548001C6EBAEC5EF0000E126E640E116E4BEC4F
:102558005FF04C50020D4D0EF324F66EF20EF4208F
:10256800F76E0900F5CF19F00A00F5CF1AF04C50B4
:102578002D0DDC0EF3241B6E080EF4201C6EC2EC2D
:1025880064F0000E126E640E116E4BEC5FF04C504E
:10259800020D4D0EF324F66EF20EF420F76E0900CC
:1025A800F5CF19F00A00F5CF1AF04C502D0DDC0EBE
:1025B800F3241B6E080EF4201C6EA5EC64F0000ECC
:1025C800126E640E116E4BEC5FF04C50020D4D0E06
:1025D800F324F66EF20EF420F76E0900F5CF19F029
:1025E8000A00F5CF1AF04C502D0DDC0EF3241B6EAB
:1025F800080EF4201C6E88EC64F0000E126E640E57
:10260800116E4BEC5FF04C50020D4D0EF324F66E3C
:10261800F20EF420F76E0900F5CF19F00A00F5CF95
:102628001AF04C502D0DDC0EF3241B6E080EF4200E
:102638001C6E49EC3CF0000E126E640E116E4BECF1
:102648005FF04C2A0B0E4C642CEF13F02EEF13F0B6
:102658009FEF11F0000E4D6E390E296EFE0E2A6E98
:10266800C50E2B6E000E2C6E000E2D6E68EC14F04D
:1026780067EF14F0000E116E050E126EFB0E136E4E
:10268800000E146E000E166E020E156E12EC5BF044
:1026980011501210D8A453EF13F055EF13F0FAEFBE
:1026A80013F0030E116E050E126ED70E136E000E88
:1026B800146E000E166E060E156E12EC5BF01150BD
:1026C8001210D8A46AEF13F06CEF13F0DCEF13F0DC
:1026D8003E50D8B472EF13F074EF13F082EF13F09A
:1026E800000E4D6E390E296EF90E2A6EC50E2B6E30
:1026F800000E2C6E010E2D6E68EC14F0D70E116EC4
:10270800000E126E0A0E136E050E146E000E166E73
:10271800060E156ED3EC5FF0C50E116E000E126E2C
:10272800B10E136E000E146E000E166E0A0E156EA4
:10273800D3EC5FF0010E3E6EB10E116E000E126EFC
:10274800F40E136E020E146E000E166E0A0E156E3F
:10275800D3EC5FF0000E126E320E116E4BEC5FF090
:1027680069EC61F0000E126E320E116E4BEC5FF0E8
:102778009FEC61F0000E126E320E116E4BEC5FF0A2
:1027880015EC65F0000E126E320E116E4BEC5FF018
:10279800000E4D6EF90E296EFD0E2A6EC50E2B6EBB
:1027A800000E2C6E000E2D6E68EC14F067EF14F01E
:1027B800000E4D6EE20E296EFD0E2A6EB10E2B6EC6
:1027C800000E2C6E000E2D6E68EC14F0B10E116E1A
:1027D800000E126EF40E136E020E146E000E166EBC
:1027E8000A0E156ED3EC5FF067EF14F0000E116E51
:1027F800050E126EED0E136E010E146E000E166E9F
:10280800040E156E12EC5BF011501210D8A40FEFE5
:1028180014F011EF14F021EF14F0000E4D6E100EAD
:10282800296EFE0E2A6EB10E2B6E000E2C6E000E57
:102838002D6E68EC14F0EAEF13F0000E116E050E21
:10284800126EF20E136E040E146E000E166E0B0E40
:10285800156E12EC5BF011501210D8A436EF14F07C
:1028680038EF14F048EF14F0000E4D6E5D0E296E2F
:10287800FE0E2A6EB10E2B6E000E2C6E040E2D6EFF
:1028880068EC14F0EAEF13F0000E116E060E77EC08
:1028980066F058EF03F030EC65F0000E116E070E8D
:1028A80077EC66F0030E126EE80E116E4BEC5FF0DB
:1028B80067EF14F030EC65F0000E116E080E77EC3F
:1028C80066F058EF03F012001E0E0001A86F8D0E7F
:1028D800196EFF0E1A6E49EC64F0000E126E320E7D
:1028E800116E4BEC5FF02BC019F02CC01AF00A0ED9
:1028F8001B6E6AEC64F0000E126E320E116E4BEC19
:102908005FF0F90E196EFE0E1A6E49EC64F0000EB7
:10291800126E640E116E4BEC5FF029C019F02AC0DC
:102928001AF049EC64F0000E126E640E116E4BEC56
:102938005FF041EF1BF0B10E196E000E1A6E0A0E11
:102948001B6E6AEC64F0000E126E640E116E4BEC96
:102958005FF06EEF1BF0B10E196E000E1A6E020ECC
:102968001B6E6AEC64F0A7EF14F0B10E196E000E3E
:102978001A6E110E1B6E6AEC64F0A7EF14F0D00EFD
:10298800196E000E1A6E060E1B6E6AEC64F0A7EF45
:1029980014F060C036F061C037F036C017F037C0A9
:1029A80018F0030E1A6EE80E196E8CEC60F01750D2
:1029B800300F0001BF6F030E146EE80E136E36C0A1
:1029C80011F037C012F03FEC62F011C017F012C0DE
:1029D80018F0000E1A6E640E196E8CEC60F0175029
:1029E800300F0001C06F000E146E640E136E36C0F7
:1029F80011F037C012F03FEC62F011C017F012C0AE
:102A080018F0000E1A6E0A0E196E8CEC60F0175052
:102A1800300F0001C16F36C011F037C012F0000E40
:102A2800146E0A0E136E3FEC62F01150300F000165
:102A3800C26FBF0E196E000E1A6E040E1B6E6AEC82
:102A480064F0000E126E320E116E4BEC5FF0E10E68
:102A5800196EFF0E1A6E49EC64F0000E126E320EFB
:102A6800116E4BEC5FF0E2C036F0E3C037F036C0D1
:102A780017F037C018F0030E1A6EE80E196E8CECBA
:102A880060F01750300F0001BF6F030E146EE80E90
:102A9800136E36C011F037C012F03FEC62F011C06F
:102AA80017F012C018F0000E1A6E640E196E8CEC36
:102AB80060F01750300F0001C06F000E146E640EE6
:102AC800136E36C011F037C012F03FEC62F011C03F
:102AD80017F012C018F0000E1A6E0A0E196E8CEC60
:102AE80060F01750300F0001C16F36C011F037C0C9
:102AF80012F0000E146E0A0E136E3FEC62F01150C5
:102B0800300F0001C26FBF0E196E000E1A6E040E50
:102B18001B6E6AEC64F0A7EF14F0B10E196E000E8C
:102B28001A6E020E1B6E6AEC64F0000E126E320E04
:102B3800116E4BEC5FF0F90E196EFF0E1A6E49EC30
:102B480064F0000E126E320E116E4BEC5FF082C014
:102B580036F083C037F036C017F037C018F0270EAC
:102B68001A6E100E196E8CEC60F01750300F0001C1
:102B7800BF6F270E146E100E136E36C011F037C0DB
:102B880012F03FEC62F011C017F012C018F0030EFB
:102B98001A6EE80E196E8CEC60F01750300F0001B9
:102BA800C06F030E146EE80E136E36C011F037C0F6
:102BB80012F03FEC62F011C017F012C018F0000ECE
:102BC8001A6E640E196E8CEC60F01750300F00010D
:102BD800C16F000E146E640E136E36C011F037C04C
:102BE80012F03FEC62F011C017F012C018F0000E9E
:102BF8001A6E0A0E196E8CEC60F01750300F000137
:102C0800C26F36C011F037C012F0000E146E0A0EF3
:102C1800136E3FEC62F01150300F0001C36FBF0E0E
:102C2800196E000E1A6E050E1B6E6AEC64F0A7EFA3
:102C380014F0000E126E0A0E116E4BEC5FF0B10E1E
:102C4800196E000E1A6E020E1B6E6AEC64F0000E0E
:102C5800126E0A0E116E4BEC5FF0C40E196EFF0E69
:102C68001A6E49EC64F0000E126E0A0E116E4BECEF
:102C78005FF04C502D0DE00EF324D96E080EF420B1
:102C8800DA6EDECF36F0DDCF37F036C017F037C05A
:102C980018F0000E1A6E640E196E8CEC60F0175066
:102CA800300F0001B16F000E146E640E136E36C043
:102CB80011F037C012F03FEC62F011C017F012C0EB
:102CC80018F0000E1A6E0A0E196E8CEC60F0175090
:102CD800300F0001B26F36C011F037C012F0000E8D
:102CE800146E0A0E136E3FEC62F01150300F0001A3
:102CF800B36FB10E196E000E1A6E030E1B6E6AECDE
:102D080064F0000E126E0A0E116E4BEC5FF0B20EFC
:102D1800196EFF0E1A6E49EC64F0000E126E0A0E60
:102D2800116E4BEC5FF04C502D0DFA0EF324D96E5A
:102D3800080EF420DA6EDF502E6E2E50116E126AD5
:102D4800000E146E0A0E136EDEEC5BF01150300F9D
:102D58000001B16F4C502D0DFA0EF324D96E080EF8
:102D6800F420DA6EDF502E6E2E50236E246A000E89
:102D7800266E0A0E256E40EC5CF02350300F0001E1
:102D8800B26FB10E196E000E1A6E020E1B6E6AEC4F
:102D980064F0000E126E0A0E116E4BEC5FF0F30E2B
:102DA800196EFF0E1A6E49EC64F0000E126E0A0ED0
:102DB800116E4BEC5FF04C502D0DDC0EF324D96EE8
:102DC800080EF420DA6EDECF36F0DDCF37F036C0ED
:102DD80017F037C018F0000E1A6E640E196E8CECDE
:102DE80060F01750300F0001B16F000E146E640EC2
:102DF800136E36C011F037C012F03FEC62F011C00C
:102E080017F012C018F0000E1A6E0A0E196E8CEC2C
:102E180060F01750300F0001B26F36C011F037C0A4
:102E280012F0000E146E0A0E136E3FEC62F0115091
:102E3800300F0001B36FB10E196E000E1A6E030E3B
:102E48001B6E6AEC64F0000E126E0A0E116E4BECEB
:102E58005FF0ED0E196EFF0E1A6E49EC64F0000E6D
:102E6800126E0A0E116E4BEC5FF04C502D0DDE0EFB
:102E7800F324D96E080EF420DA6EDECF36F0DDCFFB
:102E880037F036C017F037C018F0000E1A6E640E0F
:102E9800196E8CEC60F01750300F0001B16F000E06
:102EA800146E640E136E36C011F037C012F03FEC8A
:102EB80062F011C017F012C018F0000E1A6E0A0E58
:102EC800196E8CEC60F01750300F0001B26F36C0ED
:102ED80011F037C012F0000E146E0A0E136E3FEC9C
:102EE80062F01150300F0001B36FB10E196E000E71
:102EF8001A6E030E1B6E6AEC64F0000E126E0A0E58
:102F0800116E4BEC5FF0770E196EFF0E1A6E49ECDE
:102F180064F0000E126E0A0E116E4BEC5FF04C500E
:102F28002D0DFD0EF324D96E080EF420DA6EDF5055
:102F38002E6E2E50116E126A000E146E0A0E136E4B
:102F4800DEEC5BF01150300F0001B16F4C502D0DCD
:102F5800FD0EF324D96E080EF420DA6EDF502E6EC3
:102F68002E50236E246A000E266E0A0E256E40EC43
:102F78005CF02350300F0001B26FB10E196E000ED5
:102F88001A6E020E1B6E6AEC64F0000E126E0A0EC8
:102F9800116E4BEC5FF04C502D0DFE0EF324D96EE4
:102FA800080EF420DA6EDF502E6E2E50116E126A63
:102FB800000E146E0A0E136EDEEC5BF01150300F2B
:102FC8000001B16F4C502D0DFE0EF324D96E080E82
:102FD800F420DA6EDF502E6E2E50236E246A000E17
:102FE800266E0A0E256E40EC5CF02350300F00016F
:102FF800B26FB10E196E000E1A6E020E1B6E6AECDD
:1030080064F0000E126E0A0E116E4BEC5FF04C501D
:103018002D0DFF0EF324D96E080EF420DA6EDF5062
:103028002E6E2E50116E126A000E146E0A0E136E5A
:10303800DEEC5BF01150300F0001B16F4C502D0DDC
:10304800FF0EF324D96E080EF420DA6EDF502E6ED0
:103058002E50236E246A000E266E0A0E256E40EC52
:103068005CF02350300F0001B26FB10E196E000EE4
:103078001A6E020E1B6E6AEC64F0000E126E0A0ED7
:10308800116E4BEC5FF04C502D0DFB0EF324D96EF6
:10309800080EF420DA6EDF502E6E2E50116E126A72
:1030A800000E146E0A0E136EDEEC5BF01150300F3A
:1030B8000001B16F4C502D0DFB0EF324D96E080E94
:1030C800F420DA6EDF502E6E2E50236E246A000E26
:1030D800266E0A0E256E40EC5CF02350300F00017E
:1030E800B26FB10E196E000E1A6E020E1B6E6AECEC
:1030F80064F0000E126E0A0E116E4BEC5FF04C502D
:103108002D0DFC0EF324D96E080EF420DA6EDF5074
:103118002E6E2E50116E126A000E146E0A0E136E69
:10312800DEEC5BF01150300F0001B16F4C502D0DEB
:10313800FC0EF324D96E080EF420DA6EDF502E6EE2
:103148002E50236E246A000E266E0A0E256E40EC61
:103158005CF02350300F0001B26FB10E196E000EF3
:103168001A6E020E1B6E6AEC64F0000E126E0A0EE6
:10317800116E4BEC5FF0FA0E196EFE0E1A6E49ECEA
:1031880064F04C502D0D070EF324D96E090EF4206F
:10319800DA6EDF50D8B4D3EF18F0D5EF18F0D3EFCC
:1031A80019F08A0E196EFE0E1A6E49EC64F04C5036
:1031B8002D0DE20EF324D96E080EF420DA6EDECF60
:1031C80036F0DDCF37F036C017F037C018F0000EF4
:1031D8001A6E640E196E8CEC60F01750300F0001F7
:1031E800B16F000E146E640E136E36C011F037C046
:1031F80012F03FEC62F011C017F012C018F0000E88
:103208001A6E0A0E196E8CEC60F01750300F000120
:10321800B26F36C011F037C012F0000E146E0A0EED
:10322800136E3FEC62F01150300F0001B36FB10E16
:10323800196E000E1A6E030E1B6E6AEC64F0000E17
:10324800126E0A0E116E4BEC5FF0C40E196EFF0E73
:103258001A6E49EC64F0000E126E0A0E116E4BECF9
:103268005FF04C502D0DE40EF324D96E080EF420B7
:10327800DA6EDECF36F0DDCF37F036C017F037C064
:1032880018F0000E1A6E640E196E8CEC60F0175070
:10329800300F0001B16F000E146E640E136E36C04D
:1032A80011F037C012F03FEC62F011C017F012C0F5
:1032B80018F0000E1A6E0A0E196E8CEC60F017509A
:1032C800300F0001B26F36C011F037C012F0000E97
:1032D800146E0A0E136E3FEC62F01150300F0001AD
:1032E800B36FB10E196E000E1A6E030E1B6E6AECE8
:1032F80064F0000E126E0A0E116E4BEC5FF04A0E6F
:10330800196EFF0E1A6E49EC64F0000E126E0A0E6A
:10331800116E4BEC5FF04C502D0D000EF324D96E5E
:10332800090EF420DA6EDF502E6E2E50116E126ADE
:10333800000E146E0A0E136EDEEC5BF01150300FA7
:103348000001B16F4C502D0D000EF324D96E090EFB
:10335800F420DA6EDF502E6E2E50236E246A000E93
:10336800266E0A0E256E40EC5CF02350300F0001EB
:10337800B26FB10E196E000E1A6E020E1B6E6AEC59
:1033880064F0000E126E0A0E116E4BEC5FF0FA0E2E
:10339800196EFE0E1A6E49EC64F06EEF1BF0AA0E61
:1033A800196EFE0E1A6E49EC64F0000E126E0A0ECB
:1033B800116E4BEC5FF06EEF1BF0000E126E0A0EF2
:1033C800116E4BEC5FF0610E196EFF0E1A6E49EC30
:1033D80064F0000E126E0A0E116E4BEC5FF0A1C085
:1033E80011F0126A000E146E0A0E136EDEEC5BF01A
:1033F8001150300F0001B16FA1C023F0246A000EF4
:10340800266E0A0E256E40EC5CF02350300F00014A
:10341800B26FB10E196E000E1A6E020E1B6E6AECB8
:1034280064F0000E126E0A0E116E4BEC5FF0DA0EAD
:10343800196EFF0E1A6E49EC64F0000E126E0A0E39
:10344800116E4BEC5FF0A00E196EFF0E1A6E49EC70
:1034580064F0000E126E0A0E116E4BEC5FF0A0C005
:1034680011F0126A000E146E0A0E136EDEEC5BF099
:103478001150300F0001B16FA0C023F0246A000E74
:10348800266E0A0E256E40EC5CF02350300F0001CA
:10349800B26FB10E196E000E1A6E020E1B6E6AEC38
:1034A80064F0000E126E0A0E116E4BEC5FF0DA0E2D
:1034B800196EFF0E1A6E49EC64F0000E126E0A0EB9
:1034C800116E4BEC5FF0A90E196EFF0E1A6E49ECE7
:1034D80064F0000E126E0A0E116E4BEC5FF09FC086
:1034E80011F0126A000E146E0A0E136EDEEC5BF019
:1034F8001150300F0001B16F9FC023F0246A000EF5
:10350800266E0A0E256E40EC5CF02350300F000149
:10351800B26FB10E196E000E1A6E020E1B6E6AECB7
:1035280064F0000E126E0A0E116E4BEC5FF0E70E9F
:10353800196EFF0E1A6E49EC64F0000E126E0A0E38
:10354800116E4BEC5FF06C0E196EFF0E1A6E49ECA3
:1035580064F0000E126E0A0E116E4BEC5FF03FC065
:1035680011F0126A000E146E0A0E136EDEEC5BF098
:103578001150300F0001B16F3FC023F0246A000ED4
:10358800266E0A0E256E40EC5CF02350300F0001C9
:10359800B26FB10E196E000E1A6E020E1B6E6AEC37
:1035A80064F0000E126E0A0E116E4BEC5FF0DA0E2C
:1035B800196EFF0E1A6E49EC64F0000E126E0A0EB8
:1035C800116E4BEC5FF0DB0E196EFE0E1A6E49ECB5
:1035D80064F0000E126E0A0E116E4BEC5FF086C09E
:1035E80036F087C037F036C017F037C018F0000E35
:1035F8001A6E640E196E8CEC60F01750300F0001D3
:10360800B16F000E146E640E136E36C011F037C021
:1036180012F03FEC62F011C017F012C018F0000E63
:103628001A6E0A0E196E8CEC60F01750300F0001FC
:10363800B26F36C011F037C012F0000E146E0A0EC9
:10364800136E3FEC62F01150300F0001B36FB10EF2
:10365800196E000E1A6E030E1B6E6AEC64F0000EF3
:10366800126E0A0E116E4BEC5FF0E70E196EFF0E2C
:103678001A6E49EC64F0D9EF19F02D502E6E2F6AAE
:103688002F50000AD8B44BEF1BF06EEF1BF02E50F2
:10369800010AD8B49FEF14F0030AD8B4AFEF14F0BE
:1036A800010AD8B4B9EF14F0070AD8B4C3EF14F07C
:1036B800010AD8B4CDEF14F0030AD8B491EF15F08D
:1036C800010AD8B41DEF16F00F0AD8B4E1EF19F0CB
:1036D8006EEF1BF0000E3D6E000E4D6E1A0E43ECA1
:1036E80066F0000E126E640E116E4BEC5FF0000E69
:1036F800116E000E77EC66F0C9803D50D8B487EFA4
:103708001BF089EF1BF081EF1BF00E013885000ECE
:10371800116E0F0E77EC66F0010E126EF40E116E3C
:103728004BEC5FF01200000E0001FF6FD7A29FEF75
:103738001BF0A1EF1BF0CBEF1BF0D7A4A6EF1BF0FB
:10374800A8EF1BF0CBEF1BF0D7A6ADEF1BF0AFEF48
:103758001BF0CBEF1BF0D7A0B4EF1BF0B6EF1BF0BC
:10376800CBEF1BF0D7A8BBEF1BF0BDEF1BF0CBEFE7
:103778001BF0D7BEC2EF1BF0C4EF1BF0CBEF1BF062
:10378800D7ACC9EF1BF0CBEF1BF0CFEF1EF0D7A2E1
:10379800D0EF1BF0D2EF1BF0D9EF1BF0D7B0D7EF6B
:1037A8001BF0D9EF1BF0DEEF1BF0D786D784D78844
:1037B800D79ED79CD7B2E3EF1BF0E5EF1BF0EAEFFB
:1037C8001BF0010EFF6FD7822EEF1CF0D7B0EFEF82
:1037D8001BF0F1EF1BF0F6EF1BF0020EFF6FD78026
:1037E8002EEF1CF0D7B6FBEF1BF0FDEF1BF002EF3E
:1037F8001CF0030EFF6FD7862EEF1CF0D7B407EF2F
:103808001CF009EF1CF00EEF1CF0040EFF6FD784BC
:103818002EEF1CF0D7B813EF1CF015EF1CF01AEFC1
:103828001CF0050EFF6FD7882EEF1CF0D7BE1FEFD8
:103838001CF021EF1CF028EF1CF0D7AC26EF1CF091
:1038480028EF1CF02EEF1CF0060EFF6FD79ED79CBA
:103858002EEF1CF0030EFF19D8B435EF1CF037EF2C
:103868001CF03DEF1CF0750E126E300E116E4BEC15
:103878005FF097EC52F0030E126EE80E116E4BECEF
:103888005FF071EC43F0030E126EE80E116E4BEC14
:103898005FF066EC55F0030E126EE80E116E4BECFD
:1038A8005FF0C6EC54F0030E126EE80E116E4BEC8E
:1038B8005FF000018B51D8A464EF1CF066EF1CF098
:1038C8006EEF1CF0010E8B6FDDEC5DF0FDEC60F02F
:1038D800C5EC63F0030E0001FF19D8A476EF1CF0C5
:1038E80078EF1CF0CDEF1EF0000E4C6E93EF1CF03D
:1038F800010E116E000E77EC66F0010E126EF40EDA
:10390800116E4BEC5FF0010E116E0F0E77EC66F046
:10391800010E126EF40E116E4BEC5FF04C2A050E80
:103928004C6099EF1CF09BEF1CF0A4EF1CF0000119
:10393800A651D8B4A2EF1CF0A4EF1CF07CEF1CF049
:103948000001A651D8A4ABEF1CF0ADEF1CF09BEF23
:103958001EF0010E4C6E090E4C64B5EF1CF0B7EF6B
:103968001CF0B9EF1CF0CBEF1CF00001A62BA4EC67
:1039780063F0010E116E4C5077EC66F0270E126E54
:10398800100E116E4BEC5FF04C2AAFEF1CF0000EDE
:103998000001A66FA4EC63F0CDEF1EF0000E00014D
:1039A800A66FA4EC63F0000E4C6E040E4C64DFEFBF
:1039B8001CF0E1EF1CF0E3EF1CF0FCEF1CF0010E33
:1039C800116E0F0E77EC66F0010E126EF40E116E8A
:1039D8004BEC5FF0010E116E010E77EC66F0030EF2
:1039E800126EE80E116E4BEC5FF04C2AD9EF1CF00A
:1039F800000E1E6E020E4AEC41F08E9E000E4D6EB9
:103A08002E0E296EFA0E2A6EC50E2B6E000E2C6E27
:103A1800050E2D6E68EC14F0CBEF1CF0000E0001C3
:103A2800A66FA4EC63F0000E4C6E040E4C641FEFFE
:103A38001DF021EF1DF023EF1DF03CEF1DF0010EEE
:103A4800116E0F0E77EC66F0010E126EF40E116E09
:103A58004BEC5FF0010E116E020E77EC66F0030E70
:103A6800126EE80E116E4BEC5FF04C2A19EF1DF048
:103A7800000E1E6E010E4AEC41F002EF1DF0000E22
:103A88000001A66FA4EC63F0000E4C6E040E4C64AB
:103A980050EF1DF052EF1DF054EF1DF06DEF1DF0CB
:103AA800010E116E0F0E77EC66F0010E126EF40E19
:103AB800116E4BEC5FF0010E116E030E77EC66F0A1
:103AC800030E126EE80E116E4BEC5FF04C2A4AEFB3
:103AD8001DF035EC49F0CBEF1CF0000E0001A66F8D
:103AE800A4EC63F0000E4C6E040E4C647EEF1DF0E7
:103AF80080EF1DF082EF1DF0CBEF1CF0010E116E70
:103B08000F0E77EC66F0010E126EF40E116E4BEC90
:103B18005FF0010E116E040E77EC66F0030E126E64
:103B2800E80E116E4BEC5FF04C2A78EF1DF0000E9A
:103B38000001A66FA4EC63F0000E4C6E040E4C64FA
:103B4800A8EF1DF0AAEF1DF0ACEF1DF0CBEF1CF0B5
:103B5800010E116E0F0E77EC66F0010E126EF40E68
:103B6800116E4BEC5FF0010E116E050E77EC66F0EE
:103B7800030E126EE80E116E4BEC5FF04C2AA2EFAA
:103B88001DF0000E0001A66FA4EC63F0000E4C6E51
:103B9800040E4C64D2EF1DF0D4EF1DF0D6EF1DF0EB
:103BA800CBEF1CF0010E116E0F0E77EC66F0010ED4
:103BB800126EF40E116E4BEC5FF0010E116E060ED4
:103BC80077EC66F0030E126EE80E116E4BEC5FF0A8
:103BD8004C2ACCEF1DF0000E0001A66FA4EC63F098
:103BE8003E50D8B4FAEF1DF0FCEF1DF0CBEF1CF0FF
:103BF800000E4C6E040E4C6404EF1EF006EF1EF02F
:103C080008EF1EF021EF1EF0010E116E0F0E77EC7B
:103C180066F0010E126EF40E116E4BEC5FF0010EA1
:103C2800116E070E77EC66F0030E126EE80E116E39
:103C38004BEC5FF04C2AFEEF1DF023EC4FF09CECB0
:103C480062F0030E126EE80E116E4BEC5FF071EC31
:103C580043F0CBEF1CF0000E0001A66FA4EC63F05C
:103C68003E50D8B43AEF1EF03CEF1EF0CBEF1CF0FC
:103C7800000E4C6E040E4C6444EF1EF046EF1EF02E
:103C880048EF1EF061EF1EF0010E116E0F0E77EC7B
:103C980066F0010E126EF40E116E4BEC5FF0010E21
:103CA800116E080E77EC66F0030E126EE80E116EB8
:103CB8004BEC5FF04C2A3EEF1EF023EC4FF025EF63
:103CC8001EF0000E0001A66FA4EC63F03E50D8B4BD
:103CD80070EF1EF072EF1EF0CBEF1CF0000E4C6E72
:103CE800040E4C647AEF1EF07CEF1EF07EEF1EF09F
:103CF80097EF1EF0010E116E0F0E77EC66F0010EB5
:103D0800126EF40E116E4BEC5FF0010E116E090E7F
:103D180077EC66F0030E126EE80E116E4BEC5FF056
:103D28004C2A74EF1EF09CEC62F025EF1EF0A651B1
:103D38000101FE6FFF6BFF51000AD8B4A6EF1EF019
:103D4800CBEF1CF0FE51010AD8B4D2EF1CF0030AE5
:103D5800D8B412EF1DF0010AD8B443EF1DF0070ADA
:103D6800D8B471EF1DF0010AD8B49BEF1DF0030A17
:103D7800D8B4C5EF1DF0010AD8B4EFEF1DF00F0A53
:103D8800D8B42FEF1EF0010AD8B465EF1EF0CBEFC0
:103D98001CF071EC62F03E50D8B4D5EF1EF0D7EFAE
:103DA8001EF0BEEF21F082EC63F00009D8B4DFEF1B
:103DB8001EF0E1EF1EF0F6EF1EF0FF0E396EDC0E7E
:103DC800386E680E296EF70E2A6EC50E2B6E000E21
:103DD8002C6E000E2D6E68EC14F0010E00018E6F33
:103DE800E2EF21F0000E0001A56F000E4C6E52EFBD
:103DF80020F04C502D0D050EF324D96E090EF42039
:103E0800DA6EDE04D8A40BEF1FF00DEF1FF051EFB0
:103E180020F098EC5CF04C502D0DFF0EF324D96E79
:103E2800080EF420DA6E4750DE5CD8A01EEF1FF0B3
:103E380020EF1FF0B9EF1FF04C502D0DFE0EF324AC
:103E4800D96E080EF420DA6E4650DE5CD8B02FEF3B
:103E58001FF031EF1FF042EF1FF04C502D0DFF0EF9
:103E6800F324D96E080EF420DA6E4750DE18D8B461
:103E780040EF1FF042EF1FF0B9EF1FF04C502D0D2F
:103E8800FD0EF324D96E080EF420DA6E4550DE5C80
:103E9800D8B051EF1FF053EF1FF075EF1FF04C50E3
:103EA8002D0DFE0EF324D96E080EF420DA6E46505E
:103EB800DE18D8A462EF1FF064EF1FF075EF1FF053
:103EC8004C502D0DFF0EF324D96E080EF420DA6E37
:103ED8004750DE18D8B473EF1FF075EF1FF0B9EF35
:103EE8001FF04C502D0DFB0EF324D96E080EF42054
:103EF800DA6E4450DE5CD8B084EF1FF086EF1FF016
:103F08004BEF20F04C502D0DFD0EF324D96E080E0A
:103F1800F420DA6E4550DE18D8A495EF1FF097EF1D
:103F28001FF04BEF20F04C502D0DFE0EF324D96EF0
:103F3800080EF420DA6E4650DE18D8A4A6EF1FF05B
:103F4800A8EF1FF04BEF20F04C502D0DFF0EF3247F
:103F5800D96E080EF420DA6E4750DE18D8A4B7EFF1
:103F68001FF0B9EF1FF04BEF20F0000E3C6E4C50E5
:103F78002D0D050EF324D96E090EF420DA6E000E0D
:103F8800DF6E4C502D0D030EF324D96E090EF4206C
:103F9800DA6E4C502D0D040EF324E16E090EF42058
:103FA800E26EDFCFE7FF4CC0A5F04C502D0D070E99
:103FB800F324D96E090EF420DA6EDF50D8B4E7EF97
:103FC8001FF0E9EF1FF043EF20F04C502D0D020ECB
:103FD800F324D96E090EF420DA6E020EDE18D8A486
:103FE800F8EF1FF0FAEF1FF018EF20F04C502D0DEE
:103FF800020EF324D96E090EF420DA6E000EDF6E7D
:104008004C502D0D080EF324D96E090EF420DA6EEB
:10401800010EDF6E8DEC5DF01BC084F01CC085F0D6
:1040280015EC60F043EF20F04C502D0D020EF324F8
:10403800D96E090EF420DA6E030EDE18D8B427EF15
:1040480020F029EF20F039EF20F04C502D0D020E12
:10405800F324D96E090EF420DA6EDE04D8A437EF03
:1040680020F039EF20F043EF20F04C502D0D020ED8
:10407800F324D96E090EF420DA6E000EDF6E000EFE
:10408800126E640E116E4BEC5FF05AEF20F0010EC9
:104098003C6E4CC0A5F05AEF20F04C2A0B0E4C6435
:1040A80058EF20F05AEF20F0FDEF1EF03C50D8B446
:1040B80060EF20F062EF20F061EF21F0010E0001C7
:1040C800936F090E4C606BEF20F06DEF20F074EFEA
:1040D80020F0300EB16F4C50310FB26FDFEF20F08F
:1040E800080E4C647AEF20F07CEF20F0DFEF20F030
:1040F8000C0E4C6082EF20F084EF20F0DFEF20F010
:10410800310EB16F4C50270FB26FDFEF20F0A60EC3
:10411800296EF40E2A6EC50E2B6E000E2C6E020E42
:104128002D6E68EC14F005EF21F0410E296EF50EA6
:104138002A6EC50E2B6E000E2C6E020E2D6E68ECCC
:1041480014F005EF21F0F40E296EF40E2A6EC50E58
:104158002B6E000E2C6E020E2D6E68EC14F005EF1F
:1041680021F0540E296EF40E2A6EC50E2B6E000E29
:104178002C6E020E2D6E68EC14F005EF21F0D60EB1
:10418800296EF50E2A6EC50E2B6E000E2C6E020ED1
:104198002D6E68EC14F005EF21F08C0E296EF50EEB
:1041A8002A6EC50E2B6E000E2C6E020E2D6E68EC5C
:1041B80014F005EF21F0FF510101FE6FFF6BFF5175
:1041C800000AD8B4EAEF20F005EF21F0FE51010A09
:1041D800D8B48BEF20F0030AD8B499EF20F0010A85
:1041E800D8B4A7EF20F0070AD8B4B5EF20F0010A39
:1041F800D8B4C3EF20F0030AD8B4D1EF20F005EF0C
:1042080021F08DEC5DF01BC038F01CC039F0E2EFF6
:1042180021F02D0E296EFB0E2A6EC50E2B6E000E98
:104228002C6E000E2D6E68EC14F088EF21F00A0E4B
:10423800296EFD0E2A6EC50E2B6E000E2C6E000E1A
:104248002D6E68EC14F088EF21F0520E296EFB0EEB
:104258002A6EC50E2B6E000E2C6E000E2D6E68ECAD
:1042680014F088EF21F0B40E296EFA0E2A6EC50EEE
:104278002B6E000E2C6E000E2D6E68EC14F088EF7D
:1042880021F0670E296EFC0E2A6EC50E2B6E000EED
:104298002C6E000E2D6E68EC14F088EF21F0460E9F
:1042A800296EFC0E2A6EC50E2B6E000E2C6E000EAB
:1042B8002D6E68EC14F088EF21F00001FF51010128
:1042C800FE6FFF6BFF51000AD8B46DEF21F088EF45
:1042D80021F0FE51010AD8B40DEF21F0030AD8B439
:1042E8001BEF21F0010AD8B429EF21F0070AD8B44E
:1042F80037EF21F0010AD8B445EF21F0030AD8B40A
:1043080053EF21F088EF21F0E2EF21F0000E116E5B
:10431800010E77EC66F0D70E116E000E126ED00EFD
:10432800136E000E146E000E166E060E156ED3EC8C
:104338005FF0FF0E396EDC0E386E0DEC4DF00001AB
:104348009D51D8B4AAEF21F0ACEF21F0BEEF21F0D7
:10435800010E116E020E77EC66F0010E126EF40E6D
:10436800116E4BEC5FF0000E00019D6FADEC02F09A
:1043780071EC62F03E50D8B4C4EF21F0C6EF21F0E2
:104388008AEF21F082EC63F00009D8B4CEEF21F077
:10439800D0EF21F0E2EF21F0FF0E396EDC0E386E1F
:1043A800EC0E296EF60E2A6EC50E2B6E000E2C6EC4
:1043B800000E2D6E68EC14F0F1EF1EF033EC61F096
:1043C8000009D8B4EAEF21F0ECEF21F013EF22F066
:1043D8006C0E296EF90E2A6EC50E2B6E000E2C6E11
:1043E800000E2D6E68EC14F000018A51D8B4FFEF6E
:1043F80021F001EF22F06BEF22F0C1EC51F0030E37
:10440800126EE80E116E4BEC5FF003EC5FF0030EDA
:10441800126EE80E116E4BEC5FF06BEF22F00001AC
:104428009051D8B41AEF22F01CEF22F061EF22F07D
:10443800000E906F000E126E640E116E4BEC5FF062
:10444800E6EC63F0000E126E640E116E4BEC5FF03A
:1044580000018A51D8B433EF22F035EF22F053EF40
:1044680022F0C1EC51F0030E126EE80E116E4BEC07
:104478005FF003EC5FF0030E126EE80E116E4BEC6A
:104488005FF0C90E296EF80E2A6EC50E2B6E000E4F
:104498002C6E000E2D6E68EC14F06BEF22F0910E6E
:1044A800296EF80E2A6EC50E2B6E000E2C6E000EAD
:1044B8002D6E68EC14F06BEF22F08A51D8B467EFD8
:1044C80022F069EF22F06BEF22F001EF22F01200E8
:1044D8003C50D8B472EF22F074EF22F06AEF26F065
:1044E80038503910D8A47BEF22F07DEF22F06AEF24
:1044F80026F000019751D8A484EF22F086EF22F02D
:104508006AEF26F09151D8A48CEF22F08EEF22F0BA
:104518006AEF26F09451D8A494EF22F096EF22F097
:104528006AEF26F09651D8A49CEF22F09EEF22F075
:104538006AEF26F0000E306E60EF26F030502D0D39
:10454800050EF324D96E090EF420DA6EDE04D8A421
:10455800B0EF22F0B2EF22F042EF24F030502D0DF0
:10456800070EF324D96E090EF420DA6EDF50D8B4A2
:10457800C0EF22F0C2EF22F042EF24F030502D0DB0
:10458800020EF324D96E090EF420DA6EDE04D8A4E4
:10459800D0EF22F0D2EF22F042EF24F0030E126E99
:1045A800E80E116E4BEC5FF08E8C000E0001796FF7
:1045B800000E786F000E776F000E766F000E756F25
:1045C800000E746F000E736F000E726F000E696F2D
:1045D800000E686F000E676F000E666F000E656F45
:1045E800000E646F000E636F000E626F000EAC6FFA
:1045F800000EAB6F000EAA6F000EA96F30502D0D84
:10460800E60EF324D96E080EF420DA6EDECF80F0C1
:10461800DDCF81F030502D0DE80EF324D96E080E51
:10462800F420DA6EDECF7EF0DDCF7FF030502D0D36
:10463800EA0EF324D96E080EF420DA6EDECF7CF091
:10464800DDCF7DF030502D0DEC0EF324D96E080E21
:10465800F420DA6EDECF7AF0DDCF7BF030502D0D0E
:10466800EE0EF324D96E080EF420DA6EDECF70F069
:10467800DDCF71F030502D0DF00EF324D96E080EF9
:10468800F420DA6EDECF6EF0DDCF6FF030502D0DF6
:10469800F20EF324D96E080EF420DA6EDECF6CF039
:1046A800DDCF6DF030502D0DF40EF324D96E080EC9
:1046B800F420DA6EDECF6AF0DDCF6BF030502D0DCE
:1046C800F60EF324D96E080EF420DA6EDF50B06FC0
:1046D80030502D0DF70EF324D96E080EF420DA6E43
:1046E800DF50AF6F30502D0DF80EF324D96E080E41
:1046F800F420DA6EDF50AE6F30502D0DF90EF32432
:10470800D96E080EF420DA6EDF50AD6F8E84784BC8
:10471800792B8E86764B772B8E88744B752B8E8AE9
:10472800724B732B30502D0D020EF324D96E090EE7
:10473800F420DA6E020EDF6E30502D0D080EF324D1
:10474800D96E090EF420DA6EDF50D8B4AEEF23F03C
:10475800B0EF23F0C6EF23F030502D0D080EF324F0
:10476800D96E090EF420DA6E000EDF6E3DEC5DF0B6
:104778001BC084F01CC085F084C038F085C039F0B7
:10478800D2EF23F030502D0DE40EF324D96E080E2D
:10479800F420DA6EDECF38F0DDCF39F0000E126E7D
:1047A800640E116E4BEC5FF03050020D4D0EF32489
:1047B800F66EF20EF420F76E0900F5CF19F00A0034
:1047C800F5CF1AF030502D0DDC0EF3241B6E080EB9
:1047D800F4201C6E71EC5EF0000E126E640E116E09
:1047E8004BEC5FF051EC60F0000E126E640E116E2F
:1047F8004BEC5FF0090E306004EF24F006EF24F074
:104808000EEF24F0300E0001B16F3050310FB26F4F
:1048180024EF24F0080E306414EF24F016EF24F08F
:1048280024EF24F00C0E30601CEF24F01EEF24F06F
:1048380024EF24F0310E0001B16F3050270FB26F12
:1048480030502D0D000EF324D96E090EF420DA6EC7
:10485800DE04D8A432EF24F034EF24F020EF28F05F
:10486800020E296EFC0E2A6EC50E2B6E000E2C6EE3
:10487800020E2D6E68EC14F020EF28F030502D0D4C
:10488800050EF324D96E090EF420DA6EDE04D8A4DE
:1048980050EF24F052EF24F085EF25F030502D0D25
:1048A800070EF324D96E090EF420DA6EDF50D8B45F
:1048B80060EF24F062EF24F085EF25F030502D0DE5
:1048C800020EF324D96E090EF420DA6E020EDE18F9
:1048D800D8A471EF24F073EF24F085EF25F0030ED0
:1048E800126EE80E116E4BEC5FF08E9C8E948E96D5
:1048F8008E988E9A30502D0D020EF324D96E090E23
:10490800F420DA6E030EDF6E30502D0D000EF32406
:10491800D96E090EF420DA6EDF0630502D0D000E28
:10492800F324D96E090EF420DA6EDF50D8A49FEF75
:1049380024F0A1EF24F0ABEF24F030502D0D070E3A
:10494800F324D96E090EF420DA6E000EDF6E000E25
:10495800126E640E116E4BEC5FF03050020D4D0E6E
:10496800F324F66EF20EF420F76E0900F5CF19F075
:104978000A00F5CF1AF030502D0DDC0EF3241B6E13
:10498800080EF4201C6E49EC3CF0000E126E640E0A
:10499800116E4BEC5FF030502D0DE00EF324D96E04
:1049A800080EF420DA6EDECFF9F3DDCFFAF33050DB
:1049B8002D0DE40EF324D96E080EF420DA6EDECF46
:1049C800FBF3DDCFFCF330502D0DE20EF324D96E4E
:1049D800080EF420DA6EDECFFDF3DDCFFEF303011F
:1049E800FD1FFE1FFD4BFE2BFB51FD5FFC51FE5BC7
:1049F800F951FD25386EFA51FE21396E000E126EFE
:104A0800640E116E4BEC5FF051EC60F0000E126E0C
:104A1800640E116E4BEC5FF0090E306016EF25F056
:104A280018EF25F020EF25F0300E0001B16F30505F
:104A3800310FB26F36EF25F0080E306426EF25F0FF
:104A480028EF25F036EF25F00C0E30602EEF25F01C
:104A580030EF25F036EF25F0310E0001B16F305000
:104A6800270FB26F30502D0D000EF324D96E090EAA
:104A7800F420DA6EDF50D8A444EF25F046EF25F095
:104A880020EF28F000018851D8B44DEF25F04FEF02
:104A980025F05FEF25F0000E886FA40E296EF70E43
:104AA8002A6EC50E2B6E000E2C6E020E2D6E68EC53
:104AB80014F020EF28F09B51D8B465EF25F067EF8C
:104AC80025F077EF25F0000E9B6F200E296EF60E6D
:104AD8002A6EC50E2B6E000E2C6E020E2D6E68EC23
:104AE80014F020EF28F0E00E296EFB0E2A6EC50E9A
:104AF8002B6E000E2C6E020E2D6E68EC14F020EF5B
:104B080028F030502D0D050EF324D96E090EF4202F
:104B1800DA6EDE04D8A493EF25F095EF25F05FEF69
:104B280026F030502D0D050EF324D96E090EF42011
:104B3800DA6E000EDF6E30502D0D030EF324D96EA1
:104B4800090EF420DA6E30502D0D040EF324E16EB8
:104B5800090EF420E26EDE50E618D8A4B6EF25F070
:104B6800B8EF25F0C4EF25F030502D0D040EF324D6
:104B7800D96E090EF420DA6E010EDF6ECDEF25F046
:104B880030502D0D040EF324D96E090EF420DA6E80
:104B9800DF2A000E3C6E010E0001956F3028A56FCC
:104BA800000E126E640E116E4BEC5FF0305060EC2C
:104BB80063F0000E126E640E116E4BEC5FF0305015
:104BC800020D4D0EF324F66EF20EF420F76E090076
:104BD800F5CF19F00A00F5CF1AF030502D0DDC0E84
:104BE800F3241B6E080EF4201C6EC2EC64F0000E59
:104BF800126E640E116E4BEC5FF03050020D4D0ECC
:104C0800F324F66EF20EF420F76E0900F5CF19F0D2
:104C18000A00F5CF1AF030502D0DDC0EF3241B6E70
:104C2800080EF4201C6EA5EC64F0000E126E640EE3
:104C3800116E4BEC5FF030502D0D070EF324D96E3A
:104C4800090EF420DA6EDF50D8B42DEF26F02FEFDE
:104C580026F020EF28F030502D0D020EF324D96EE7
:104C6800090EF420DA6E000EDF6E000E126E640E6E
:104C7800116E4BEC5FF03050020D4D0EF324F66EC2
:104C8800F20EF420F76E0900F5CF19F00A00F5CFFF
:104C98001AF030502D0DDC0EF3241B6E080EF42094
:104CA8001C6E71EC5EF0000E126E640E116E4BEC11
:104CB8005FF020EF28F0302A0B0E306466EF26F004
:104CC80068EF26F0A2EF22F020EF28F000019451BF
:104CD800D8B471EF26F073EF26F020EF28F0000E1D
:104CE800946F000E306E18EF28F030502D0D050E21
:104CF800F324D96E090EF420DA6EDE04D8A487EF07
:104D080026F089EF26F017EF28F030502D0D060E0B
:104D1800F324D96E090EF420DA6EDF50D8A497EF89
:104D280026F099EF26F05DEF27F030502D0D050E97
:104D3800F324D96E090EF420DA6E000EDF6E3050BF
:104D48002D0D030EF324D96E090EF420DA6E3050BF
:104D58002D0D040EF324E16E090EF420E26EDE50F0
:104D6800E618D8A4BAEF26F0BCEF26F0C8EF26F074
:104D780030502D0D040EF324D96E090EF420DA6E8E
:104D8800010EDF6ED1EF26F030502D0D040EF32406
:104D9800D96E090EF420DA6EDF2A30502D0D020E7E
:104DA800F324D96E090EF420DA6E020EDE18D8A4A8
:104DB800E0EF26F0E2EF26F00FEF27F08E9C8E94BE
:104DC8008E968E988E9A30502D0D020EF324D96E41
:104DD800090EF420DA6E000EDF6E3050020D4D0E13
:104DE800F324F66EF20EF420F76E0900F5CF19F0F1
:104DF8000A00F5CF1AF030502D0DDC0EF3241B6E8F
:104E0800080EF4201C6E71EC5EF0000E126E640E3B
:104E1800116E4BEC5FF0000E3C6E010E0001956FB9
:104E28003028A56F000E126E640E116E4BEC5FF009
:104E3800305060EC63F0000E126E640E116E4BEC95
:104E48005FF03050020D4D0EF324F66EF20EF42092
:104E5800F76E0900F5CF19F00A00F5CF1AF03050B7
:104E68002D0DDC0EF3241B6E080EF4201C6EC2EC14
:104E780064F0000E126E640E116E4BEC5FF0305051
:104E8800020D4D0EF324F66EF20EF420F76E0900B3
:104E9800F5CF19F00A00F5CF1AF030502D0DDC0EC1
:104EA800F3241B6E080EF4201C6EA5EC64F057EF7B
:104EB80026F030502D0D020EF324D96E090EF42081
:104EC800DA6EDE04D8A46BEF27F06DEF27F09AEFC7
:104ED80027F08DEC5DF01BC038F01CC039F0305065
:104EE8002D0DE20EF324D96E080EF420DA6EDECF13
:104EF800F9F3DDCFFAF330502D0DE00EF324D96E1F
:104F0800080EF420DA6EDECFFBF3DDCFFCF30301ED
:104F1800F951FB5FFA51FC5B3850FB25386E39506C
:104F2800FC21396E51EC60F057EF26F030502D0D12
:104F3800020EF324D96E090EF420DA6E020EDE1882
:104F4800D8A4A9EF27F0ABEF27F017EF28F08E9C35
:104F58008E948E968E988E9A30502D0D020EF324D4
:104F6800D96E090EF420DA6E000EDF6E3050020D95
:104F78004D0EF324F66EF20EF420F76E0900F5CF0D
:104F880019F00A00F5CF1AF030502D0DDC0EF3247D
:104F98001B6E080EF4201C6E71EC5EF0000E126E93
:104FA800640E116E4BEC5FF08DEC5DF01BC038F0B9
:104FB8001CC039F030502D0DE00EF324D96E080EC8
:104FC800F420DA6EDECFF9F3DDCFFAF330502D0D91
:104FD800E40EF324D96E080EF420DA6EDECFFBF36C
:104FE800DDCFFCF330502D0DE20EF324D96E080E00
:104FF800F420DA6EDECFFDF3DDCFFEF30301FD1FF3
:10500800FE1FFD4BFE2BFB51FD5FFC51FE5BF95172
:10501800FD27FA51FE233850FD25386E3950FE2100
:10502800396E96EF27F0302A0B0E30641EEF28F009
:1050380020EF28F079EF26F01200000E126E320EE3
:10504800116E4BEC5FF01BC019F01CC01AF0FDECA0
:1050580065F01F6E1F50366E376A000E126E320EE4
:10506800116E4BEC5FF0FF0E3616000E3716010E70
:105078001B24196E000E1C201A6EFDEC65F01F6EC5
:105088001F50346E356A000E126E320E116E4BECE4
:105098005FF03450356E346A000E3416FF0E351644
:1050A800345036101F6E35503710206E1DC0D9FF92
:1050B8001EC0DAFF1FC0DEFF20C0DDFF020E1B246A
:1050C800196E000E1C201A6EFDEC65F01F6E1F5045
:1050D800366E376A000E126E320E116E4BEC5FF0B0
:1050E800FF0E3616000E3716030E1B24196E000E1F
:1050F8001C201A6EFDEC65F01F6E1F50346E356A69
:10510800000E126E320E116E4BEC5FF03450356E9D
:10511800346A000E3416FF0E3516345036101F6EE2
:1051280035503710206E20EE02F01D50D9261E5043
:10513800DA221FC0DEFF20C0DDFF040E1B24196E1B
:10514800000E1C201A6EFDEC65F01F6E1F50366EA7
:10515800376A000E126E320E116E4BEC5FF0FF0EC6
:105168003616000E3716050E1B24196E000E1C206D
:105178001A6EFDEC65F01F6E1F50346E356A000E16
:10518800126E320E116E4BEC5FF03450356E346A8D
:10519800000E3416FF0E3516345036101F6E35507B
:1051A8003710206E20EE04F01D50D9261E50DA224A
:1051B8001FC0DEFF20C0DDFF000E126E320E116E22
:1051C8004BEC5FF0060E1B24196E000E1C201A6EA5
:1051D800FDEC65F01F6E1F50366E376A000E126EBA
:1051E800320E116E4BEC5FF0FF0E3616000E3716BE
:1051F800070E1B24196E000E1C201A6EFDEC65F0BC
:105208001F6E1F50346E356A3450356E346A000E86
:105218003416FF0E3516345036101F6E35503710C1
:10522800206E20EE06F01D50D9261E50DA221FC02F
:10523800DEFF20C0DDFF000E126E320E116E4BEC49
:105248005FF0080E1B24196E000E1C201A6EFDEC70
:1052580065F01F6E1F50366E376A000E126E320EE2
:10526800116E4BEC5FF0FF0E3616000E3716090E66
:105278001B24196E000E1C201A6EFDEC65F01F6EC3
:105288001F50346E356A3450356E346A000E341649
:10529800FF0E3516345036101F6E35503710206EFD
:1052A80020EE08F01D50D9261E50DA221FC0DEFF5E
:1052B80020C0DDFF000E126E320E116E4BEC5FF057
:1052C8000A0E1B24196E000E1C201A6EFDEC65F0E8
:1052D8001F6E1F50366E376A000E126E320E116E38
:1052E8004BEC5FF0FF0E3616000E37160B0E1B2424
:1052F800196E000E1C201A6EFDEC65F01F6E1F5013
:10530800346E356A3450356E346A000E3416FF0E2A
:105318003516345036101F6E35503710206E20EE7B
:105328000AF01D50D9261E50DA221FC0DEFF20C009
:10533800DDFF000E126E320E116E4BEC5FF00C0E9C
:105348001B24196E000E1C201A6EFDEC65F01F6EF2
:105358001F50366E376A000E126E320E116E4BEC0D
:105368005FF0FF0E3616000E37160D0E1B24196E51
:10537800000E1C201A6EFDEC65F01F6E1F50346E77
:10538800356A3450356E346A000E3416FF0E351601
:10539800345036101F6E35503710206E20EE0CF04A
:1053A8001D50D9261E50DA221FC0DEFF20C0DDFFA7
:1053B800000E126E320E116E4BEC5FF00E0E1B24B7
:1053C800196E000E1C201A6EFDEC65F01F6E1F5042
:1053D800366E376A000E126E320E116E4BEC5FF0AD
:1053E800FF0E3616000E37160F0E1B24196E000E10
:1053F8001C201A6EFDEC65F01F6E1F50346E356A66
:105408003450356E346A000E3416FF0E351634509B
:1054180036101F6E35503710206E20EE0EF01D50DE
:10542800D9261E50DA221FC0DEFF20C0DDFF000E85
:10543800126E320E116E4BEC5FF0100E1B24196EBB
:10544800000E1C201A6EFDEC65F01F6E1F50366EA4
:10545800376A000E126E320E116E4BEC5FF0FF0EC3
:105468003616000E3716110E1B24196E000E1C205E
:105478001A6EFDEC65F01F6E1F50346E356A34509D
:10548800356E346A000E3416FF0E35163450361059
:105498001F6E35503710206E20EE10F01D50D926A3
:1054A8001E50DA221FC0DEFF20C0DDFF000E126E84
:1054B800320E116E4BEC5FF0120E1B24196E000EAB
:1054C8001C201A6EFDEC65F01F6E1F50366E376A91
:1054D800000E126E320E116E4BEC5FF0FF0E361698
:1054E800000E3716130E1B24196E000E1C201A6EA0
:1054F800FDEC65F01F6E1F50346E356A3450356E02
:10550800346A000E3416FF0E3516345036101F6EEE
:1055180035503710206E20EE12F01D50D9261E503F
:10552800DA221FC0DEFF20C0DDFF000E126E320E31
:10553800116E4BEC5FF0140E1B24196E000E1C202C
:105548001A6EFDEC65F01F6E1F50366E376A000E3E
:10555800126E320E116E4BEC5FF0FF0E3616000E17
:105568003716150E1B24196E000E1C201A6EFDEC42
:1055780065F01F6E1F50346E356A3450356E346ACC
:10558800000E3416FF0E3516345036101F6E355087
:105598003710206E20EE14F01D50D9261E50DA2246
:1055A8001FC0DEFF20C0DDFF000E126E320E116E2E
:1055B8004BEC5FF0160E1B24196E000E1C201A6EA1
:1055C800FDEC65F01F6E1F50366E376A000E126EC6
:1055D800320E116E4BEC5FF0FF0E3616000E3716CA
:1055E800170E1B24196E000E1C201A6EFDEC65F0B8
:1055F8001F6E1F50346E356A3450356E346A000E93
:105608003416FF0E3516345036101F6E35503710CD
:10561800206E20EE16F01D50D9261E50DA221FC02B
:10562800DEFF20C0DDFF000E126E320E116E4BEC55
:105638005FF0180E1B24196E000E1C201A6EFDEC6C
:1056480065F01F6E1F50366E376A000E126E320EEE
:10565800116E4BEC5FF0FF0E3616000E3716190E62
:105668001B24196E000E1C201A6EFDEC65F01F6ECF
:105678001F50346E356A3450356E346A000E341655
:10568800FF0E3516345036101F6E35503710206E09
:1056980020EE18F01D50D9261E50DA221FC0DEFF5A
:1056A80020C0DDFF000E126E320E116E4BEC5FF063
:1056B80020EE1AF01D50D9261E50DA221A0E1B248D
:1056C800196E000E1C201A6EFDEC65F0DF6E000EE0
:1056D800126E320E116E4BEC5FF020EE1BF01D5077
:1056E800D9261E50DA221B0E1B24196E000E1C2010
:1056F8001A6EFDEC65F0DF6E000E126E320E116E42
:105708004BEC5FF020EE1CF01D50D9261E50DA221B
:105718001C0E1B24196E000E1C201A6EFDEC65F081
:10572800DF6E000E126E320E116E4BEC5FF020EE43
:105738001DF01D50D9261E50DA221D0E1B24196E8D
:10574800000E1C201A6EFDEC65F0DF6E000E126E66
:10575800320E116E4BEC5FF020EE1EF01D50D92674
:105768001E50DA221E0E1B24196E000E1C201A6E03
:10577800FDEC65F0DF6E000E126E320E116E4BEC12
:105788005FF020EE1FF01D50D9261E50DA221F0EA2
:105798001B24196E000E1C201A6EFDEC65F0DF6EDE
:1057A800000E126E320E116E4BEC5FF020EE20F000
:1057B8001D50D9261E50DA22200E1B24196E000E09
:1057C8001C201A6EFDEC65F0DF6E000E126E320EB4
:1057D800116E4BEC5FF020EE21F01D50D9261E50C3
:1057E800DA22210E1B24196E000E1C201A6EFDEC05
:1057F80065F0DF6E000E126E320E116E4BEC5FF02C
:1058080020EE22F01D50D9261E50DA22220E1B242B
:10581800196E000E1C201A6EFDEC65F0DF6E000E8E
:10582800126E320E116E4BEC5FF020EE23F01D501D
:10583800D9261E50DA22230E1B24196E000E1C20B6
:105848001A6EFDEC65F0DF6E000E126E320E116EF0
:105858004BEC5FF020EE24F01D50D9261E50DA22C2
:10586800240E1B24196E000E1C201A6EFDEC65F028
:10587800DF6E000E126E320E116E4BEC5FF020EEF2
:1058880025F01D50D9261E50DA22250E1B24196E2C
:10589800000E1C201A6EFDEC65F0DF6E000E126E15
:1058A800320E116E4BEC5FF020EE26F01D50D9261B
:1058B8001E50DA22260E1B24196E000E1C201A6EAA
:1058C800FDEC65F0DF6E000E126E320E116E4BECC1
:1058D8005FF020EE27F01D50D9261E50DA22270E41
:1058E8001B24196E000E1C201A6EFDEC65F0DF6E8D
:1058F800000E126E320E116E4BEC5FF020EE28F0A7
:105908001D50D9261E50DA22280E1B24196E000EAF
:105918001C201A6EFDEC65F0DF6E000E126E320E62
:10592800116E4BEC5FF020EE29F01D50D9261E5069
:10593800DA22290E1B24196E000E1C201A6EFDECAB
:1059480065F00009D8A4ABEF2CF0AEEF2CF0010EF7
:10595800AFEF2CF0000EDF6E000E126E320E116EDD
:105968004BEC5FF020EE2AF01D50D9261E50DA22AB
:105978002A0E1B24196E000E1C201A6EFDEC65F011
:105988000009D8A4CAEF2CF0CDEF2CF0010ECEEF11
:105998002CF0000EDF6E000E126E320E116E4BEC04
:1059A8005FF020EE2BF01D50D9261E50DA222B0E68
:1059B8001B24196E000E1C201A6EFDEC65F0000900
:1059C800D8A4E9EF2CF0ECEF2CF0010EEDEF2CF061
:1059D800000EDF6E000E126E320E116E4BEC5FF091
:1059E80020EE2CF01D50D9261E50DA222C0E1B2436
:1059F800196E000E1C201A6EFDEC65F00009D8A483
:105A080008EF2DF00BEF2DF0010E0CEF2DF0000E2E
:105A1800DF6E000E126E320E116E4BEC5FF012004C
:105A2800010E0601F36F6E0EF26F010EF56F6D0E2B
:105A3800F46F000EF76F000EF66FFF0E396EDC0E76
:105A4800386E000E00019A6F0B0EA5652EEF2DF033
:105A580030EF2DF032EF2DF0000EA56FA5C04CF001
:105A680095EF30F04C502D0D060EF324D96E090E2B
:105A7800F420DA6EDF50D8B444EF2DF046EF2DF065
:105A880094EF30F04C502D0D050EF324D96E090E0D
:105A9800F420DA6EDE04D8B454EF2DF056EF2DF072
:105AA80094EF30F000019A51D8A45DEF2DF05FEF2C
:105AB8002DF074EF2DF0000E126E640E116E4BEC8B
:105AC8005FF098EC5CF0000E126E640E116E4BECF9
:105AD8005FF0010E00019A6FFF0E396EDC0E386E12
