:0400000056EF01F0C6
:0600080051829FEF42F05F
:100018005180D8CF0CF0E8CF0DF0E0CF0EF00E01F4
:1000280033AB19EF00F01BEF00F005EF01F08F96EE
:10003800339BE30ED46EB00ED36E442A365037107D
:10004800D8B429EF00F02BEF00F047EF00F08EAEA8
:1000580030EF00F032EF00F047EF00F03606D8A09E
:10006800370600016851D8B43CEF00F03EEF00F0CD
:1000780046EF00F0030E686144EF00F046EF00F031
:1000880047EF00F0682B4304D8A44DEF00F04FEF82
:1000980000F060EF00F000016C514418D8A457EF4D
:1000A80000F059EF00F060EF00F0000E446E8F8E04
:1000B800020E436E05EF01F0020E4318D8A467EF55
:1000C80000F069EF00F079EF00F03A504418D8A436
:1000D80070EF00F072EF00F079EF00F0000E446E60
:1000E8008F9E030E436E05EF01F0030E4318D8A44C
:1000F80080EF00F082EF00F093EF00F000016B5109
:100108004418D8A48AEF00F08CEF00F093EF00F0C9
:10011800000E446E8D84040E436E05EF01F0040E4C
:100128004318D8A49AEF00F09CEF00F0ACEF00F071
:100138003A504418D8A4A3EF00F0A5EF00F0ACEFB4
:1001480000F0000E446E8D94050E436E05EF01F02D
:10015800050E4318D8A4B3EF00F0B5EF00F0C6EFD2
:1001680000F000016B514418D8A4BDEF00F0BFEFB8
:1001780000F0C6EF00F0000E446E8D86060E436E4A
:1001880005EF01F0060E4318D8A4CDEF00F0CFEF2D
:1001980000F0DFEF00F03A504418D8A4D6EF00F092
:1001A800D8EF00F0DFEF00F0000E446E8D96070EDA
:1001B800436E05EF01F0070E4318D8A4E6EF00F0F0
:1001C800E8EF00F0F8EF00F0000169514418D8A4F6
:1001D800F0EF00F0F2EF00F0F8EF00F0000E446EE0
:1001E800010E436E05EF01F0630E4318D8A4FFEF2C
:1001F80000F001EF01F005EF01F0000E446E05EF8D
:1002080001F00E0138A10BEF01F00DEF01F012EF34
:1002180001F08F9600016E2B0E01389138A517EF6B
:1002280001F019EF01F04EEF01F08F963895F00EBE
:10023800C86EDC0EC76E00016D2B6D51735DD8B0B2
:1002480028EF01F02AEF01F043EF01F04D50D8A458
:1002580030EF01F032EF01F043EF01F0010E4D6E87
:10026800000E6D6FC9908351D8B43DEF01F03FEF98
:1002780001F04EEF01F0010E4E6E4EEF01F04D50C1
:10028800D8B449EF01F04BEF01F04EEF01F0000E4A
:100298006D6FC9900EC0E0FF0DC0E8FF0CC0D8FF1D
:1002A8005190100028EF4BF0000E0501F86F000E7A
:1002B800F96F000EFC6F000EFB6F1E0E0001736FCE
:1002C800300E84656AEF01F06CEF01F02AEF12F04E
:1002D8003A0E846172EF01F074EF01F02AEF12F028
:1002E800000E4D6E000E486EC980010E0F6E030E93
:1002F800A4EC5EF0A8EF01F0B80E176EFF0E186EB2
:1003080098EC5CF0840E176E000E186E010E196ED4
:10031800B9EC5CF0F70E176EFE0E186E98EC5CF0F8
:10032800010E106EF40E0F6E77EC57F04D50D8A4F6
:10033800A0EF01F0A2EF01F0A8EF01F0130E106E8C
:10034800880E0F6E77EC57F04D50D8B4AEEF01F031
:10035800B0EF01F080EF01F0000E0F6E0F0EA4EC6D
:100368005EF00E013885150E0F6E060E106EF20E39
:10037800116E010E126E000E146E030E136E3BEC1E
:1003880053F00F501010D8A4CCEF01F0CEEF01F0CD
:100398001BEF12F0840E0F6E000E106E180E116E09
:1003A800060E126E000E146E0A0E136EFFEC57F056
:1003B800B2EC5DF0000E0F6E070E106E3F0E116E60
:1003C800060E126E54EC56F0000E0F6E070E106EED
:1003D8001CEC5BF00009D8B4F4EF01F0F6EF01F083
:1003E800FCEF01F0CAEC5DF0AFEC39F00DEF02F074
:1003F8007FEC5DF0000E0F6E050EA4EC5EF0070EAC
:10040800106ED00E0F6E77EC57F033EF12F033EF1B
:1004180012F0980E0F6E000E106E840E116E000E04
:10042800126E000E146E0A0E136E3BEC53F00F5052
:100438001010D8A422EF02F024EF02F00AEF11F016
:10044800840E0F6E000E106EF10E116E020E126EFB
:10045800000E146E0A0E136EFFEC57F0000E0F6EAE
:10046800050E106EED0E116E010E126E000E146E5A
:10047800040E136E3BEC53F00F501010D8A447EF46
:1004880002F049EF02F059EF02F0000E486E490EF3
:10049800276EFE0E286E980E296E000E2A6E000E2C
:1004A8002B6E34EC12F033EF12F0000E0F6E050EC7
:1004B800106EFB0E116E000E126E000E146E020E00
:1004C800136E3BEC53F00F501010D8A46EEF02F0EF
:1004D80070EF02F0B7EF02F0030E0F6E050E106E0C
:1004E800AA0E116E000E126E000E146E060E136E1A
:1004F8003BEC53F00F501010D8A485EF02F087EFB3
:1005080002F0A7EF02F0AA0E0F6E000E106E0A0E90
:10051800116E050E126E000E146E060E136EFFECB1
:1005280057F095EC59F0000E486EE70E276EFC0E5A
:10053800286E980E296E000E2A6E000E2B6E34EC73
:1005480012F033EF12F0000E486EDF0E276EFD0E2C
:10055800286E980E296E000E2A6E000E2B6E34EC53
:1005680012F033EF12F0000E0F6E050E106EFA0E39
:10057800116E010E126E000E146E030E136E3BEC1C
:1005880053F00F501010D8A4CCEF02F0CEEF02F0C9
:1005980066EF05F0000E0501FC6F000EFB6F030E01
:1005A800ABEC3FF0476E010E0501FA6F060E486E80
:1005B800000E4824D96EDA6A050EDA22DF50FAEC0A
:1005C8005DF00009D8B4EBEF02F0EDEF02F038EF80
:1005D80004F0010E4824D96EDA6A050EDA22200EDC
:1005E800DE18D8A4FAEF02F0FCEF02F01DEF03F0DA
:1005F800000E4824D96EDA6A050EDA22000E482465
:10060800E16EE26A050EE222E750D00FDF6E000EBF
:100618004824D96EDA6A050EDA22DF500401F86F31
:10062800F8510501FB25FB6F000EFC21FC6F6DEFF7
:1006380004F0000E4824D96EDA6A050EDA22000E9C
:100648004824E16EE26A050EE222E750D00FDF6E21
:10065800000E4824D96EDA6A050EDA22DF500A0D38
:10066800000E4824D96EDA6A050EDA22F3CFDFFFCE
:10067800FBC50FF0FCC510F0000E126E0A0E116ECD
:1006880024EC5EF00FC0FBF510C0FCF50BEF03F097
:100698004750160DCC0EF324D96E080EF420DA6EEE
:1006A800FBC5DFFF000E0501FC6F000EFB6F6BEF53
:1006B80004F04750160DCD0EF324D96E080EF42021
:1006C800DA6EFBC5DFFF56EF03F04750160DCE0E6E
:1006D800F324D96E080EF420DA6EFBC5DFFF56EF5F
:1006E80003F04750160DCF0EF324D96E080EF420F0
:1006F800DA6EFBC5DFFF56EF03F04750160DC80E44
:10070800F324D96E080EF420DA6EFBC5DEFFFCC5B3
:10071800DDFF56EF03F04750160DCA0EF324D96ECD
:10072800080EF420DA6EFBC5DEFFFCC5DDFF56EFD0
:1007380003F04750160DD60EF324D96E080EF42098
:10074800DA6EFBC5DFFF56EF03F04750160DD80EE3
:10075800F324D96E080EF420DA6EFBC5DFFF47508C
:10076800160DD90EF324D96E080EF420DA6EFBC5E7
:10077800DFFF56EF03F00501FB511EEC33F0000ECE
:100788000501FC6F000EFB6F4750160DD00EF324C9
:10079800D96E080EF420DA6E38C0DFFF4750160D08
:1007A800D10EF324D96E080EF420DA6E3BC0DFFFB9
:1007B8004750160DD20EF324D96E080EF420DA6EC7
:1007C8003CC0DFFF4750160DDA0EF324D96E080E31
:1007D800F420DA6E000EDF6E4750160DDB0EF324A0
:1007E800D96E080EF420DA6E010EDF6E4750160D32
:1007F800D30EF324D96E080EF420DA6E000EDF6EE5
:100808004750160DD40EF324D96E080EF420DA6E74
:10081800000EDF6E4750160DD50EF324D96E080E64
:10082800F420DA6E000EDF6E4750160DDC0EF3244E
:10083800D96E080EF420DA6E000EDF6E4750160DE2
:10084800D70EF324D96E080EF420DA6E000EDF6E90
:100858004750160DDD0EF324D96E080EF420DA6E1B
:10086800000EDF6E6BEF04F00501FA510401F86F1A
:10087800F96BF951000AD8B444EF04F06BEF04F0B7
:10088800F851010AD8B44CEF03F0030AD8B45DEF6D
:1008980003F0010AD8B469EF03F0070AD8B475EF7A
:1008A80003F0010AD8B481EF03F0030AD8B48FEF3C
:1008B80003F0010AD8B49DEF03F00F0AD8B4A9EFEA
:1008C80003F0010AD8B4BFEF03F06BEF04F00501A1
:1008D800FA2B482A090EFA6574EF04F076EF04F053
:1008E800DCEF02F0000E106E640E0F6E77EC57F01E
:1008F8004750020DCD0EF324F66EF20EF420F76E7B
:100908000900F5CF17F00A00F5CF18F04750160D7B
:10091800C80EF324196E080EF4201A6E1CEC46F06B
:10092800000E106E640E0F6E77EC57F04750020DF4
:10093800CD0EF324F66EF20EF420F76E0900F5CF13
:1009480017F00A00F5CF18F04750160DC80EF3241B
:10095800196E080EF4201A6EE6EC56F0000E106EB2
:10096800640E0F6E77EC57F04750020DCD0EF3244E
:10097800F66EF20EF420F76E0900F5CF17F00A00B4
:10098800F5CF18F04750160DC80EF324196E080E4F
:10099800F4201A6E11EC5DF0000E106E640E0F6EEE
:1009A80077EC57F04750020DCD0EF324F66EF20E99
:1009B800F420F76E0900F5CF17F00A00F5CF18F00C
:1009C8004750160DC80EF324196E080EF4201A6E3F
:1009D800F4EC5CF0000E106E640E0F6E77EC57F0BE
:1009E8004750020DCD0EF324F66EF20EF420F76E8A
:1009F8000900F5CF17F00A00F5CF18F04750160D8B
:100A0800C80EF324196E080EF4201A6ED7EC5CF0A9
:100A1800000E106E640E0F6E77EC57F04750020D03
:100A2800CD0EF324F66EF20EF420F76E0900F5CF22
:100A380017F00A00F5CF18F04750160DC80EF3242A
:100A4800196E080EF4201A6E4CEC4EF0000E106E63
:100A5800640E0F6E77EC57F0090E476036EF05F01D
:100A680038EF05F040EF05F0300E0001846F475075
:100A7800310F856F56EF05F0080E476446EF05F015
:100A880048EF05F056EF05F00C0E47604EEF05F005
:100A980050EF05F056EF05F0310E0001846F475016
:100AA800270F856F000E486E730E276EFB0E286E9B
:100AB800980E296E000E2A6E020E2B6E34EC12F080
:100AC80033EF12F0000E0F6E050E106EE80E116E69
:100AD800010E126E000E146E040E136E3BEC53F0F2
:100AE8000F501010D8A47BEF05F07DEF05F030EF24
:100AF80006F0040EABEC3FF0476E4750160DDA0EC9
:100B0800F324D96E080EF420DA6EDE04D8A48FEF31
:100B180005F091EF05F094EF05F0010E00017D6FEF
:100B28004750160DDB0EF324D96E080EF420DA6E4A
:100B3800000EDF6E4750160DDC0EF324D96E080E3A
:100B4800F420DA6EDE04D8A4ACEF05F0AEEF05F0C1
:100B5800DCEF05F04750160DDC0EF324D96E080EB5
:100B6800F420DA6E000EDF6E000E106E640E0F6E4B
:100B780077EC57F04750020DCD0EF324F66EF20EC7
:100B8800F420F76E0900F5CF17F00A00F5CF18F03A
:100B98004750160DC80EF324196E080EF4201A6E6D
:100BA8004CEC4EF0000E106E640E0F6E77EC57F0A2
:100BB8004750020DCD0EF324F66EF20EF420F76EB8
:100BC8000900F5CF17F00A00F5CF18F04750160DB9
:100BD800C80EF324196E080EF4201A6ED7EC5CF0D8
:100BE800000E106E640E0F6E77EC57F0090E47601A
:100BF80000EF06F002EF06F00AEF06F0300E0001F3
:100C0800846F4750310F856F20EF06F0080E476458
:100C180010EF06F012EF06F020EF06F00C0E47601A
:100C280018EF06F01AEF06F020EF06F0310E00017B
:100C3800846F4750270F856F000E486ECC0E276EC5
:100C4800F90E286E980E296E000E2A6E020E2B6E73
:100C580034EC12F033EF12F0000E0F6E050E106E2A
:100C6800EA0E116E020E126E000E146E060E136E50
:100C78003BEC53F00F501010D8A445EF06F047EFA7
:100C880006F05CEF08F0000E0501FC6F000EFB6F2C
:100C9800000EFA6F060EABEC3FF0476E4750160D8C
:100CA800DB0EF324D96E080EF420DA6EDF50D8A4D8
:100CB80060EF06F062EF06F098EF06F0090E476065
:100CC80068EF06F06AEF06F072EF06F0300E0001EA
:100CD800846F4750310F856F88EF06F0080E476420
:100CE80078EF06F07AEF06F088EF06F00C0E476012
:100CF80080EF06F082EF06F088EF06F0310E000173
:100D0800846F4750270F856F000E486EE50E276EDB
:100D1800F60E286E980E296E000E2A6E020E2B6EA5
:100D280034EC12F033EF12F0090E486E000E48242E
:100D3800D96EDA6A050EDA22DF50FAEC5DF00009A6
:100D4800D8B4A9EF06F0ABEF06F00AEF07F0010EF2
:100D58004824D96EDA6A050EDA22200EDE18D8A4E5
:100D6800B8EF06F0BAEF06F0DBEF06F0000E482405
:100D7800D96EDA6A050EDA22000E4824E16EE26ABC
:100D8800050EE222E750D00FDF6E000E4824D96E20
:100D9800DA6A050EDA22DF500401F86FF85105010E
:100DA800FB25FB6F000EFC21FC6FE8EF07F0000E3F
:100DB8004824D96EDA6A050EDA22000E4824E16E5C
:100DC800E26A050EE222E750D00FDF6E000E4824DB
:100DD800D96EDA6A050EDA22DF500A0D000E4824B1
:100DE800D96EDA6A050EDA22F3CFDFFFFBC50FF002
:100DF800FCC510F0000E126E0A0E116E24EC5EF0A7
:100E08000FC0FBF510C0FCF5C9EF06F00501FA2B81
:100E1800CEEF07F04750160DD30EF324D96E080E07
:100E2800F420DA6EFBC5DFFF000E0501FC6F000E33
:100E3800FB6FE8EF07F04750160DD40EF324D96E78
:100E4800080EF420DA6EFBC5DFFF18EF07F04750F5
:100E5800160DD50EF324D96E080EF420DA6EFBC5F4
:100E6800DFFF4750160DD70EF324D96E080EF42075
:100E7800DA6E000EDF6E4750160DDD0EF324D96EC4
:100E8800080EF420DA6E000EDF6E000E0501FC6F0E
:100E9800000EFB6F4750160DCC0EF324D96E080ECA
:100EA800F420DA6EDF500401F86FF96B4750160D25
:100EB800D30EF324D96E080EF420DA6EDF50FA6FE1
:100EC800FB6B4750160DD40EF324D96E080EF42090
:100ED800DA6EDF50FC6FFC51FA27000EFB23F85145
:100EE800FA5DFB51800AFD6FF951800AFD59D8A0BF
:100EF80080EF07F082EF07F0C2EF07F04750160DBA
:100F0800DC0EF324D96E080EF420DA6E000EDF6EC4
:100F1800090E476092EF07F094EF07F09CEF07F097
:100F2800300E0001846F4750310F856FB2EF07F024
:100F3800080E4764A2EF07F0A4EF07F0B2EF07F03E
:100F48000C0E4760AAEF07F0ACEF07F0B2EF07F01E
:100F5800310E0001846F4750270F856F000E486ED1
:100F6800FE0E276EF80E286E980E296E000E2A6E59
:100F7800020E2B6E34EC12F0E8EF07F04750160D16
:100F8800DC0EF324D96E080EF420DA6E010EDF6E43
:100F9800E8EF07F0FA510401F86FF96BF951000A0C
:100FA800D8B4D9EF07F0E8EF07F0F851010AD8B440
:100FB8000EEF07F0030AD8B41FEF07F0010AD8B400
:100FC8002BEF07F0E8EF07F0482A020E0501FA6553
:100FD800F0EF07F0F2EF07F09AEF06F04750160D22
:100FE800DC0EF324D96E080EF420DA6EDF50D8B484
:100FF80000EF08F002EF08F033EF12F0000E106E69
:10100800640E0F6E77EC57F04750020DCD0EF324A7
:10101800F66EF20EF420F76E0900F5CF17F00A000D
:10102800F5CF18F04750160DC80EF324196E080EA8
:10103800F4201A6E4CEC4EF0000E106E640E0F6E1B
:1010480077EC57F0090E47602CEF08F02EEF08F008
:1010580036EF08F0300E0001846F4750310F856F6E
:101068004CEF08F0080E47643CEF08F03EEF08F03C
:101078004CEF08F00C0E476044EF08F046EF08F01C
:101088004CEF08F0310E0001846F4750270F856F31
:10109800000E486E210E276EFC0E286E980E296EE3
:1010A800000E2A6E020E2B6E34EC12F033EF12F0A3
:1010B800000E0F6E050E106ED40E116E020E126E1B
:1010C800000E146E070E136E3BEC53F00F50101009
:1010D800D8A471EF08F073EF08F00FEF09F0070ECE
:1010E800ABEC3FF0476E4750160DDA0EF324D96E7D
:1010F800080EF420DA6EDE04D8A485EF08F087EF36
:1011080008F09BEF08F04750160DD70EF324D96E60
:10111800080EF420DA6E030EDE18D8B496EF08F045
:1011280098EF08F09BEF08F0010E00017D6F475023
:10113800160DDC0EF324D96E080EF420DA6EDE04E8
:10114800D8A4A9EF08F0ABEF08F00BEF02F0475076
:10115800160DDC0EF324D96E080EF420DA6E000E9C
:10116800DF6E000E106E640E0F6E77EC57F047506E
:10117800020DCD0EF324F66EF20EF420F76E090080
:10118800F5CF17F00A00F5CF18F04750160DC80E26
:10119800F324196E080EF4201A6E4CEC4EF0000E73
:1011A800106E640E0F6E77EC57F0090E4760DFEF94
:1011B80008F0E1EF08F0E9EF08F0300E0001846F65
:1011C8004750310F856FFFEF08F0080E4764EFEFC7
:1011D80008F0F1EF08F0FFEF08F00C0E4760F7EFAA
:1011E80008F0F9EF08F0FFEF08F0310E0001846F06
:1011F8004750270F856F000E486EBA0E276EFB0EFC
:10120800286E980E296E000E2A6E020E2B6E34EC94
:1012180012F033EF12F0000E0F6E050E106EE30E93
:10122800116E020E126E000E146E060E136E3BEC5B
:1012380053F00F501010D8A424EF09F026EF09F04E
:101248000EEF0AF0000E0501FC6F000EFB6F000E9A
:10125800FA6F060E486E000E4824D96EDA6A050E3B
:10126800DA22DF50FAEC5DF00009D8B43EEF09F05D
:1012780040EF09F09FEF09F0010E4824D96EDA6AB1
:10128800050EDA22200EDE18D8A44DEF09F04FEF34
:1012980009F070EF09F0000E4824D96EDA6A050EDD
:1012A800DA22000E4824E16EE26A050EE222E750D7
:1012B800D00FDF6E000E4824D96EDA6A050EDA22E6
:1012C800DF500401F86FF8510501FB25FB6F000E94
:1012D800FC21FC6FE6EF09F0000E4824D96EDA6AAB
:1012E800050EDA22000E4824E16EE26A050EE222BB
:1012F800E750D00FDF6E000E4824D96EDA6A050E6B
:10130800DA22DF500A0D000E4824D96EDA6A050E7B
:10131800DA22F3CFDFFFFBC50FF0FCC510F0000E9B
:10132800126E0A0E116E24EC5EF00FC0FBF510C0B1
:10133800FCF55EEF09F00501FA2BC4EF09F0FBC5D7
:101348006CF0000E0501FC6F000EFB6FE6EF09F074
:10135800FBC56BF0A5EF09F0FBC56AF0A5EF09F036
:10136800FBC53AF0A5EF09F0FBC569F0000E0501D1
:10137800FC6F000EFB6F010E0001776FE6EF09F0BE
:10138800FA510401F86FF96BF951000AD8B4CFEF9C
:1013980009F0E6EF09F0F851010AD8B4A3EF09F013
:1013A800030AD8B4ACEF09F0010AD8B4B0EF09F0D9
:1013B800070AD8B4B4EF09F0010AD8B4B8EF09F0B5
:1013C800E6EF09F0482A040E0501FA65EEEF09F088
:1013D800F0EF09F02FEF09F0000E106E640E0F6E9B
:1013E80077EC57F0AFEC4DF0000E106E640E0F6EF8
:1013F80077EC57F0000E486E790E276EFD0E286EBA
:10140800980E296E000E2A6E000E2B6E34EC12F028
:1014180033EF12F0000E0F6E050E106ECC0E116E2B
:10142800020E126E000E146E070E136E3BEC53F094
:101438000F501010D8A423EF0AF025EF0AF046EF5A
:101448000AF0000E0001776F000E106E640E0F6E2A
:1014580077EC57F0AFEC4DF0000E106E640E0F6E87
:1014680077EC57F0000E486E260E276EFD0E286E9C
:10147800980E296E000E2A6E000E2B6E34EC12F0B8
:1014880033EF12F0000E0F6E050E106ED80E116EAF
:10149800010E126E000E146E050E136E3BEC53F027
:1014A8000F501010D8A45BEF0AF05DEF0AF086EF3A
:1014B8000AF000017751D8B464EF0AF066EF0AF039
:1014C80076EF0AF0000E486E5E0E276EFD0E286E4F
:1014D800980E296E000E2A6E080E2B6E34EC12F050
:1014E80033EF12F0000E486EC70E276EFC0E286E02
:1014F800980E296E000E2A6E000E2B6E34EC12F038
:1015080033EF12F0000E0F6E050E106EDE0E116E28
:10151800010E126E000E146E040E136E3BEC53F0A7
:101528000F501010D8A49BEF0AF09DEF0AF07CEF43
:101538000BF0000E0501FC6F000EFB6F000EFA6F3A
:10154800050E486E000E4824D96EDA6A050EDA22B6
:10155800DF50FAEC5DF00009D8B4B5EF0AF0B7EF48
:101568000AF046EF0BF0000E4824D96EDA6A050E31
:10157800DA22000E4824E16EE26A050EE222E75004
:10158800D00FDF6E000E4824D96EDA6A050EDA2213
:10159800DF500401F86FF8510501FB6FFC6BFBC5C8
:1015A8000FF0FCC510F0000E126E0A0E116E24EC3E
:1015B8005EF00FC0FBF510C0FCF5010E4824D96E93
:1015C800DA6A050EDA22010E4824E16EE26A050E97
:1015D800E222E750D00FDF6E010E4824D96EDA6A96
:1015E800050EDA22DF500401F86FF8510501FB25DA
:1015F800FB6F000EFC21FC6FFA2B20EF0BF0FBC5F4
:1016080040F0000E0501FC6F000EFB6F56EF0BF06B
:10161800FBC541F005EF0BF0FBC542F005EF0BF001
:10162800FBC53FF005EF0BF0FBC53EF005EF0BF0F7
:10163800FBC53DF005EF0BF0FA510401F86FF96BAB
:10164800F951000AD8B42BEF0BF056EF0BF0F85114
:10165800010AD8B403EF0BF0030AD8B40CEF0BF06F
:10166800010AD8B410EF0BF0070AD8B414EF0BF046
:10167800010AD8B418EF0BF0030AD8B41CEF0BF02A
:1016880056EF0BF0000E486E430E276EFD0E286EC7
:10169800980E296E000E2A6E000E2B6E34EC12F096
:1016A80033EF12F0030E4826050E0501FA655FEFC9
:1016B8000BF061EF0BF0A6EF0AF0060EFA19D8A4AA
:1016C80068EF0BF06AEF0BF06CEF0BF02FEC57F0B4
:1016D800000E486E880E276EFA0E286E980E296E38
:1016E800000E2A6E000E2B6E34EC12F033EF12F05F
:1016F800000E0F6E050E106EE30E116E010E126EC7
:10170800000E146E040E136E3BEC53F00F501010C5
:10171800D8A491EF0BF093EF0BF04BEF0CF0C0EC6B
:1017280054F040C00FF0106A000E126E0A0E116ECF
:1017380006EC54F00F50300F0001846F40C021F0C8
:10174800226A000E246E0A0E236E68EC54F02150B3
:10175800300F0001856F2F0E866F41C00FF0106AA1
:10176800000E126E0A0E116E06EC54F00F50300F78
:101778000001876F41C021F0226A000E246E0A0E14
:10178800236E68EC54F02150300F0001886F2F0E43
:10179800896F42C00FF0106A000E126E0A0E116EA9
:1017A80006EC54F00F50300F00018A6F42C021F050
:1017B800226A000E246E0A0E236E68EC54F0215043
:1017C800300F00018B6F200E8C6F3FC00FF0106A36
:1017D800000E126E0A0E116E06EC54F00F50300F08
:1017E80000018D6F3FC021F0226A000E246E0A0EA0
:1017F800236E68EC54F02150300F00018E6F3A0EC2
:101808008F6F3EC00FF0106A000E126E0A0E116E36
:1018180006EC54F00F50300F0001906F3EC021F0DD
:10182800226A000E246E0A0E236E68EC54F02150D2
:10183800300F0001916F3A0E926F3DC00FF0106AA1
:10184800000E126E0A0E116E06EC54F00F50300F97
:101858000001936F3DC021F0226A000E246E0A0E2B
:10186800236E68EC54F02150300F0001946F000E85
:10187800486E690E276EFE0E286E980E296E000EB1
:101888002A6E030E2B6E34EC12F033EF12F0000EBA
:101898000F6E050E106EC40E116E020E126E000E43
:1018A800146E070E136E3BEC53F00F501010D8A4B3
:1018B80060EF0CF062EF0CF0BAEF0CF0070EABEC37
:1018C8003FF0476E090E47606CEF0CF06EEF0CF0BE
:1018D80076EF0CF0300E0001846F4750310F856FA2
:1018E8008CEF0CF0080E47647CEF0CF07EEF0CF0E8
:1018F8008CEF0CF00C0E476084EF0CF086EF0CF0C8
:101908008CEF0CF0310E0001846F4750270F856F64
:10191800000E486E4750160DDB0EF324D96E080EE4
:10192800F420DA6EDF50D8B49CEF0CF09EEF0CF088
:10193800ACEF0CF0780E276EFE0E286E980E296E0E
:10194800000E2A6E070E2B6E34EC12F033EF12F0F5
:10195800020E276EFB0E286E980E296E000E2A6E58
:10196800020E2B6E34EC12F033EF12F0000E0F6EF5
:10197800050E106EF80E116E000E126E000E146E2B
:10198800020E136E3BEC53F00F501010D8A4CFEF9B
:101998000CF0D1EF0CF0B4EF0DF08EAED6EF0CF0EA
:1019A800D8EF0CF0E8EF0CF0000E486E9B0E276E97
:1019B800F90E286E980E296E000E2A6E000E2B6EF8
:1019C80034EC12F033EF12F0000E0501FC6F000E3C
:1019D800FB6F000EFA6F010EFA6F030E486E000ED1
:1019E8004824D96EDA6A050EDA22DF50FAEC5DF087
:1019F8000009D8B402EF0DF004EF0DF074EF0DF00C
:101A0800010E4824D96EDA6A050EDA22200EDE1895
:101A1800D8A411EF0DF013EF0DF034EF0DF0000E18
:101A28004824D96EDA6A050EDA22000E4824E16EDF
:101A3800E26A050EE222E750D00FDF6E000E48245E
:101A4800D96EDA6A050EDA22DF500401F86FF85110
:101A58000501FB25FB6F000EFC21FC6F8DEF0DF0DF
:101A6800000E4824D96EDA6A050EDA22000E4824E0
:101A7800E16EE26A050EE222E750D00FDF6E000E3B
:101A88004824D96EDA6A050EDA22DF500A0D000EF4
:101A98004824D96EDA6A050EDA22F3CFDFFFFBC5D8
:101AA8000FF0FCC510F0000E126E0A0E116E24EC39
:101AB8005EF00FC0FBF510C0FCF522EF0DF0FBC582
:101AC80066F0FCC567F0000E0501FC6F000EFB6FA9
:101AD8008BEF0DF0FBC5B5F0FCC5B6F067EF0DF068
:101AE8000501FA510401F86FF96BF951000AD8B4ED
:101AF80080EF0DF08BEF0DF0F851010AD8B463EFC9
:101B08000DF0030AD8B46EEF0DF08BEF0DF0050160
:101B1800FA2B482A020EFA6594EF0DF096EF0DF0B5
:101B2800F3EF0CF0000E106E640E0F6E77EC57F0AA
:101B38005CEC52F0000E106E640E0F6E77EC57F0EE
:101B4800000E486E970E276EFB0E286E980E296EB3
:101B5800000E2A6E000E2B6E34EC12F033EF12F0EA
:101B6800000E0F6E050E106ED20E116E010E126E63
:101B7800000E146E050E136E3BEC53F00F50101050
:101B8800D8A4C9EF0DF0CBEF0DF0DBEF0DF0000E90
:101B9800486E2B0E276EFA0E286E980E296E000ED0
:101BA8002A6E050E2B6E34EC12F033EF12F0000E95
:101BB8000F6E050E106EBC0E116E020E126E000E28
:101BC800146E070E136E3BEC53F00F501010D8A490
:101BD800F0EF0DF0F2EF0DF04DEF0EF0070EABEC5D
:101BE8003FF0476E000E106E640E0F6E77EC57F0E4
:101BF800475013EC2BF0090E476005EF0EF007EF86
:101C08000EF00FEF0EF0300E0001846F4750310FC9
:101C1800856F25EF0EF0080E476415EF0EF017EFED
:101C28000EF025EF0EF00C0E47601DEF0EF01FEFC3
:101C38000EF025EF0EF0310E0001846F4750270F8C
:101C4800856F4E50D8B42BEF0EF02DEF0EF03DEF10
:101C58000EF0000E4E6EDA0E276EFA0E286E980EF3
:101C6800296E000E2A6E020E2B6E34EC12F033EF42
:101C780012F0000E486E5A0E276EFA0E286E980E55
:101C8800296E000E2A6E060E2B6E34EC12F033EF1E
:101C980012F0000E0F6E050E106EF60E116E010E8C
:101CA800126E000E146E030E136E3BEC53F00F50C1
:101CB8001010D8A462EF0EF064EF0EF0B8EF0EF03B
:101CC800030EABEC3FF0476E000E106E640E0F6E05
:101CD80077EC57F08EAE73EF0EF075EF0EF077EFEE
:101CE8000EF0D8EF0CF0090E47607DEF0EF07FEF95
:101CF8000EF087EF0EF0300E0001846F4750310F61
:101D0800856F9DEF0EF0080E47648DEF0EF08FEF94
:101D18000EF09DEF0EF00C0E476095EF0EF097EF6A
:101D28000EF09DEF0EF0310E0001846F4750270F23
:101D3800856F130E106E880E0F6E77EC57F047C044
:101D48001CF0010E88EC37F0030E106EE80E0F6ED3
:101D580077EC57F05CEC52F0030E106EE80E0F6E45
:101D680077EC57F0CBEF0DF0000E0F6E050E106EEE
:101D7800DC0E116E020E126E000E146E060E136E3D
:101D88003BEC53F00F501010D8A4CDEF0EF0CFEF6E
:101D98000EF00BEF02F0000E0501FC6F000EFB6F5A
:101DA800000EFA6F070E486E000E4824D96EDA6AE4
:101DB800050EDA22DF50FAEC5DF00009D8B4E7EF3F
:101DC8000EF0E9EF0EF062EF0FF0000E4824D96E26
:101DD800DA6A050EDA22000E4824E16EE26A050E80
:101DE800E222E750D00FDF6E000E4824D96EDA6A7F
:101DF800050EDA22DF500401F86FF8510501FB6F78
:101E0800FC6BFBC50FF0FCC510F0000E126E0A0E3D
:101E1800116E24EC5EF00FC0FBF510C0FCF5010E4E
:101E28004824D96EDA6A050EDA22010E4824E16EDA
:101E3800E26A050EE222E750D00FDF6E010E482459
:101E4800D96EDA6A050EDA22DF500401F86FF8510C
:101E58000501FB25FB6F000EFC21FC6FFA2B48EFF8
:101E68000FF0FBC5F8F5000E0501FC6F000EFB6FC7
:101E780062EF0FF0FBC5F9F537EF0FF00501FB51E5
:101E88001EEC33F037EF0FF0FA510401F86FF96BDD
:101E9800F951000AD8B453EF0FF062EF0FF0F85180
:101EA800010AD8B435EF0FF0030AD8B43EEF0FF0AB
:101EB800010AD8B442EF0FF062EF0FF0030E482684
:101EC800020E0501FA656BEF0FF06DEF0FF0D8EF1A
:101ED8000EF0000E476EF2EF10F04750160DCC0EC4
:101EE800F324D96E080EF420DA6E0F0EDF6E475019
:101EF800160DCD0EF324D96E080EF420DA6E010EFD
:101F0800DF6E4750160DCE0EF324D96E080EF4205E
:101F1800DA6EF8C5DFFF4750160DCF0EF324D96EE1
:101F2800080EF420DA6EF9C5DFFF4750160DD00E03
:101F3800F324D96E080EF420DA6E38C0DFFF47505C
:101F4800160DD10EF324D96E080EF420DA6E3BC0BC
:101F5800DFFF4750160DD20EF324D96E080EF42079
:101F6800DA6E3CC0DFFF4750160DC80EF324D96E59
:101F7800080EF420DA6E640EDE6E000EDD6E475039
:101F8800160DCA0EF324D96E080EF420DA6E300E40
:101F9800DE6E750EDD6E4750160DD60EF324D96E23
:101FA800080EF420DA6E4728DF6E4750160DDA0E59
:101FB800F324D96E080EF420DA6E000EDF6E475057
:101FC800160DD80EF324D96E080EF420DA6E020E20
:101FD800DF6E4750160DD90EF324D96E080EF42083
:101FE800DA6E020EDF6E4750160DDB0EF324D96E43
:101FF800080EF420DA6E010EDF6E4750160DD30E70
:10200800F324D96E080EF420DA6E050EDF6E475001
:10201800160DD40EF324D96E080EF420DA6E0F0EC6
:10202800DF6E4750160DD50EF324D96E080EF42036
:10203800DA6E4728DF6E4750160DD70EF324D96E97
:10204800080EF420DA6E000EDF6E4750160DDD0E16
:10205800F324D96E080EF420DA6E000EDF6E4750B6
:10206800160DDC0EF324D96E080EF420DA6E010E7C
:10207800DF6E4750020DCD0EF324F66EF20EF420FB
:10208800F76E0900F5CF17F00A00F5CF18F04750A2
:10209800160DC80EF324196E080EF4201A6E1CECE7
:1020A80046F0000E106E640E0F6E77EC57F0475036
:1020B800020DCD0EF324F66EF20EF420F76E090031
:1020C800F5CF17F00A00F5CF18F04750160DC80ED7
:1020D800F324196E080EF4201A6EE6EC56F0000E82
:1020E800106E640E0F6E77EC57F04750020DCD0E50
:1020F800F324F66EF20EF420F76E0900F5CF17F010
:102108000A00F5CF18F04750160DC80EF324196EC3
:10211800080EF4201A6E11EC5DF0000E106E640EBD
:102128000F6E77EC57F04750020DCD0EF324F66E84
:10213800F20EF420F76E0900F5CF17F00A00F5CF7C
:1021480018F04750160DC80EF324196E080EF42027
:102158001A6EF4EC5CF0000E106E640E0F6E77ECE5
:1021680057F04750020DCD0EF324F66EF20EF42010
:10217800F76E0900F5CF17F00A00F5CF18F04750B1
:10218800160DC80EF324196E080EF4201A6ED7EC3B
:102198005CF0000E106E640E0F6E77EC57F047502F
:1021A800020DCD0EF324F66EF20EF420F76E090040
:1021B800F5CF17F00A00F5CF18F04750160DC80EE6
:1021C800F324196E080EF4201A6E4CEC4EF0000E33
:1021D800106E640E0F6E77EC57F0472A0B0E4764AB
:1021E800F8EF10F0FAEF10F071EF0FF0000E486EF4
:1021F800360E276EFE0E286E980E296E000E2A6E79
:10220800000E2B6E34EC12F033EF12F0000E0F6E4E
:10221800050E106EFB0E116E000E126E000E146E7F
:10222800020E136E3BEC53F00F501010D8A41FEFA2
:1022380011F021EF11F0C6EF11F0030E0F6E050E2D
:10224800106EAA0E116E000E126E000E146E060E9F
:10225800136E3BEC53F00F501010D8A436EF11F06A
:1022680038EF11F0A8EF11F05050D8B43EEF11F04C
:1022780040EF11F04EEF11F0000E486E360E276E4B
:10228800F90E286E980E296E000E2A6E010E2B6E1E
:1022980034EC12F0AA0E0F6E000E106E0A0E116EBC
:1022A800050E126E000E146E060E136EFFEC57F03C
:1022B800980E0F6E000E106E840E116E000E126EC8
:1022C800000E146E0A0E136EFFEC57F0010E506EDE
:1022D800840E0F6E000E106EF10E116E020E126E4D
:1022E800000E146E0A0E136EFFEC57F0000E106EFF
:1022F800320E0F6E77EC57F095EC59F0000E106E19
:10230800320E0F6E77EC57F0CBEC59F0000E106ED2
:10231800320E0F6E77EC57F064EC5DF0000E106E25
:10232800320E0F6E77EC57F0000E486EF60E276EE1
:10233800FD0E286E980E296E000E2A6E000E2B6E6A
:1023480034EC12F033EF12F0000E486EDF0E276EF9
:10235800FD0E286E840E296E000E2A6E000E2B6E5E
:1023680034EC12F0840E0F6E000E106EF10E116E2A
:10237800020E126E000E146E0A0E136EFFEC57F06A
:1023880033EF12F0000E0F6E050E106EED0E116E8B
:10239800010E126E000E146E040E136E3BEC53F019
:1023A8000F501010D8A4DBEF11F0DDEF11F0EDEFB6
:1023B80011F0000E486E0D0E276EFE0E286E840E6C
:1023C800296E000E2A6E000E2B6E34EC12F0B6EF5A
:1023D80011F0000E0F6E050E106EEC0E116E040E4D
:1023E800126E000E146E0B0E136E3BEC53F00F5072
:1023F8001010D8A402EF12F004EF12F014EF12F04C
:10240800000E486E5A0E276EFE0E286E840E296E38
:10241800000E2A6E040E2B6E34EC12F0B6EF11F09B
:10242800000E0F6E060EA4EC5EF003EF02F07FECD8
:102438005DF0000E0F6E070EA4EC5EF0030E106E3A
:10244800E80E0F6E77EC57F033EF12F07FEC5DF08B
:10245800000E0F6E080EA4EC5EF003EF02F01200FF
:102468001E0E0001736F8A0E176EFF0E186E98EC21
:102478005CF0000E106E320E0F6E77EC57F029C02C
:1024880017F02AC018F00A0E196EB9EC5CF0000EAD
:10249800106E320E0F6E77EC57F0F60E176EFE0EBA
:1024A800186E98EC5CF0000E106E640E0F6E77ECF0
:1024B80057F027C017F028C018F098EC5CF0000E11
:1024C800106E640E0F6E77EC57F022EF1BF0840E3F
:1024D800176E000E186E0A0E196EB9EC5CF0000E3D
:1024E800106E640E0F6E77EC57F04FEF1BF0840EF2
:1024F800176E000E186E020E196EB9EC5CF073EFD1
:1025080012F0840E176E000E186E110E196EB9ECCB
:102518005CF073EF12F0A30E176E000E186E060E25
:10252800196EB9EC5CF073EF12F066C034F067C056
:1025380035F034C015F035C016F0030E186EE80EED
:10254800176EB8EC58F01550300F0001926F34C078
:102558000FF035C010F0030E126EE80E116E6BEC22
:102568005AF00FC034F010C035F034C015F035C043
:1025780016F0000E186E640E176EB8EC58F0155071
:10258800300F0001936F34C00FF035C010F0000E0B
:10259800126E640E116E6BEC5AF00FC034F010C05E
:1025A80035F034C015F035C016F0000E186E0A0E5E
:1025B800176EB8EC58F01550300F0001946F34C006
:1025C8000FF035C010F0000E126E0A0E116E6BEC93
:1025D8005AF00FC034F010C035F03450300F0001FD
:1025E800956F920E176E000E186E040E196EB9ECE8
:1025F8005CF0000E106E320E0F6E77EC57F0DE0EA8
:10260800176EFF0E186E98EC5CF0000E106E320E0E
:102618000F6E77EC57F0B5C034F0B6C035F034C063
:1026280015F035C016F0030E186EE80E176EB8ECEC
:1026380058F01550300F0001926F34C00FF035C0BC
:1026480010F0030E126EE80E116E6BEC5AF00FC00C
:1026580034F010C035F034C015F035C016F0000E57
:10266800186E640E176EB8EC58F01550300F000154
:10267800936F34C00FF035C010F0000E126E640E68
:10268800116E6BEC5AF00FC034F010C035F034C046
:1026980015F035C016F0000E186E0A0E176EB8EC5D
:1026A80058F01550300F0001946F34C00FF035C04A
:1026B80010F0000E126E0A0E116E6BEC5AF00FC07D
:1026C80034F010C035F03450300F0001956F920E81
:1026D800176E000E186E040E196EB9EC5CF073EFED
:1026E80012F0840E176E000E186E020E196EB9ECF9
:1026F8005CF0000E106E320E0F6E77EC57F0F60E8F
:10270800176EFF0E186E98EC5CF0000E106E320E0D
:102718000F6E77EC57F060C034F061C035F034C00C
:1027280015F035C016F0270E186E100E176EB8EC9F
:1027380058F01550300F0001926F34C00FF035C0BB
:1027480010F0270E126E100E116E6BEC5AF00FC0BF
:1027580034F010C035F034C015F035C016F0030E53
:10276800186EE80E176EB8EC58F01550300F0001CF
:10277800936F34C00FF035C010F0030E126EE80EE0
:10278800116E6BEC5AF00FC034F010C035F034C045
:1027980015F035C016F0000E186E640E176EB8EC02
:1027A80058F01550300F0001946F34C00FF035C049
:1027B80010F0000E126E640E116E6BEC5AF00FC022
:1027C80034F010C035F034C015F035C016F0000EE6
:1027D800186E0A0E176EB8EC58F01550300F00013D
:1027E800956F34C00FF035C010F0000E126E0A0E4F
:1027F800116E6BEC5AF00FC034F010C035F0345045
:10280800300F0001966F920E176E000E186E050EAF
:10281800196EB9EC5CF073EF12F0000E106E0A0E30
:102828000F6E77EC57F0840E176E000E186E020EBE
:10283800196EB9EC5CF0000E106E0A0E0F6E77EC94
:1028480057F0C10E176EFF0E186E98EC5CF0000E74
:10285800106E0A0E0F6E77EC57F04750160DCC0E1F
:10286800F324D96E080EF420DA6EDF500001856F6C
:1028780085C00FF0106A000E126E640E116E06EC21
:1028880054F00F50300F0001846F840E176E000E45
:10289800186E010E196EB9EC5CF0000E106E0A0E7F
:1028A8000F6E77EC57F085C021F0226A000E246E77
:1028B800640E236E68EC54F021500001856F85C0CA
:1028C8000FF0106A000E126E0A0E116E06EC54F02C
:1028D8000F50300F0001846F840E176E000E186EB3
:1028E800010E196EB9EC5CF0000E106E0A0E0F6E38
:1028F80077EC57F085C021F0226A000E246E0A0E8C
:10290800236E68EC54F021500001856F8551300F1B
:10291800846F840E176E000E186E010E196EB9ECD6
:102928005CF0000E106E0A0E0F6E77EC57F0AF0ECB
:10293800176EFF0E186E98EC5CF0000E106E0A0E03
:102948000F6E77EC57F04750160DCD0EF324D96E65
:10295800080EF420DA6EDF500001856F85C021F083
:10296800226A000E246E640E236E68EC54F0215027
:102978000001856F85C00FF0106A000E126E0A0EF6
:10298800116E06EC54F00F50300F0001846F840E66
:10299800176E000E186E010E196EB9EC5CF0000E81
:1029A800106E0A0E0F6E77EC57F085C021F0226A80
:1029B800000E246E0A0E236E68EC54F021500001BC
:1029C800856F8551300F846F840E176E000E186E58
:1029D800010E196EB9EC5CF0000E106E0A0E0F6E47
:1029E80077EC57F0F00E176EFF0E186E98EC5CF04F
:1029F800000E106E0A0E0F6E77EC57F04750160D4A
:102A0800C80EF324D96E080EF420DA6EDECF34F047
:102A1800DDCF35F034C015F035C016F0000E186E55
:102A2800640E176EB8EC58F01550300F0001846F23
:102A3800840E176E000E186E010E196EB9EC5CF05C
:102A4800000E106E0A0E0F6E77EC57F034C00FF0C0
:102A580035C010F0000E126E640E116E6BEC5AF059
:102A68000FC034F010C035F034C015F035C016F082
:102A7800000E186E0A0E176EB8EC58F01550300F8D
:102A88000001846F840E176E000E186E010E196E09
:102A9800B9EC5CF0000E106E0A0E0F6E77EC57F072
:102AA80034C00FF035C010F0000E126E0A0E116E11
:102AB8006BEC5AF00FC034F010C035F03450300FC2
:102AC8000001846F840E176E000E186E010E196EC9
:102AD800B9EC5CF0000E106E0A0E0F6E77EC57F032
:102AE800EA0E176EFF0E186E98EC5CF0000E106E72
:102AF8000A0E0F6E77EC57F04750160DCA0EF324E6
:102B0800D96E080EF420DA6EDECF34F0DDCF35F062
:102B180034C015F035C016F0000E186E640E176E2E
:102B2800B8EC58F01550300F0001846F840E176E02
:102B3800000E186E010E196EB9EC5CF0000E106EE6
:102B48000A0E0F6E77EC57F034C00FF035C010F056
:102B5800000E126E640E116E6BEC5AF00FC034F05A
:102B680010C035F034C015F035C016F0000E186EE0
:102B78000A0E176EB8EC58F01550300F0001846F2C
:102B8800840E176E000E186E010E196EB9EC5CF00B
:102B9800000E106E0A0E0F6E77EC57F034C00FF06F
:102BA80035C010F0000E126E0A0E116E6BEC5AF062
:102BB8000FC034F010C035F03450300F0001846F6E
:102BC800840E176E000E186E010E196EB9EC5CF0CB
:102BD800000E106E0A0E0F6E77EC57F0740E176E1B
:102BE800FF0E186E98EC5CF0000E106E0A0E0F6E59
:102BF80077EC57F04750160DD00EF324D96E080E17
:102C0800F420DA6EDF500001856F85C021F0226A5A
:102C1800000E246E640E236E68EC54F021500001FF
:102C2800856F85C00FF0106A000E126E0A0E116EC5
:102C380006EC54F00F50300F0001846F840E176EAD
:102C4800000E186E010E196EB9EC5CF0000E106ED5
:102C58000A0E0F6E77EC57F085C021F0226A000E3D
:102C6800246E0A0E236E68EC54F021500001856F23
:102C78008551300F846F840E176E000E186E010E8A
:102C8800196EB9EC5CF0000E106E0A0E0F6E77EC40
:102C980057F04750160DD10EF324D96E080EF420C4
:102CA800DA6EDF500001856F85C021F0226A000EC0
:102CB800246E640E236E68EC54F021500001856F79
:102CC80085C00FF0106A000E126E0A0E116E06EC27
:102CD80054F00F50300F0001846F840E176E000EF1
:102CE800186E010E196EB9EC5CF0000E106E0A0E2B
:102CF8000F6E77EC57F085C021F0226A000E246E23
:102D08000A0E236E68EC54F021500001856F85513E
:102D1800300F846F840E176E000E186E010E196E38
:102D2800B9EC5CF0000E106E0A0E0F6E77EC57F0DF
:102D38004750160DD20EF324D96E080EF420DA6E21
:102D4800DF500001856F85C021F0226A000E246ED5
:102D5800640E236E68EC54F021500001856F85C025
:102D68000FF0106A000E126E0A0E116E06EC54F087
:102D78000F50300F0001846F840E176E000E186E0E
:102D8800010E196EB9EC5CF0000E106E0A0E0F6E93
:102D980077EC57F085C021F0226A000E246E0A0EE7
:102DA800236E68EC54F021500001856F8551300F77
:102DB800846F840E176E000E186E010E196EB9EC32
:102DC8005CF0000E106E0A0E0F6E77EC57F0FB0EDB
:102DD800176EFF0E186E98EC5CF0000E106E0A0E5F
:102DE8000F6E77EC57F04750160DCE0EF324D96EC0
:102DF800080EF420DA6EDF500001856F85C021F0DF
:102E0800226A000E246E640E236E68EC54F0215082
:102E18000001856F85C00FF0106A000E126E0A0E51
:102E2800116E06EC54F00F50300F0001846F840EC1
:102E3800176E000E186E010E196EB9EC5CF0000EDC
:102E4800106E0A0E0F6E77EC57F085C021F0226ADB
:102E5800000E246E0A0E236E68EC54F02150000117
:102E6800856F8551300F846F840E176E000E186EB3
:102E7800010E196EB9EC5CF0000E106E0A0E0F6EA2
:102E880077EC57F0B60E176EFF0E186E98EC5CF0E4
:102E9800000E106E0A0E0F6E77EC57F04750160DA5
:102EA800CF0EF324D96E080EF420DA6EDF5000013D
:102EB800856F85C021F0226A000E246E640E236E91
:102EC80068EC54F021500001856F85C00FF0106A3E
:102ED800000E126E0A0E116E06EC54F00F50300FF1
:102EE8000001846F840E176E000E186E010E196EA5
:102EF800B9EC5CF0000E106E0A0E0F6E77EC57F00E
:102F080085C021F0226A000E246E0A0E236E68EC3A
:102F180054F021500001856F8551300F846F840E65
:102F2800176E000E186E010E196EB9EC5CF0000EEB
:102F3800106E0A0E0F6E77EC57F0F70E176EFE0E36
:102F4800186E98EC5CF04750160DDC0EF324D96E21
:102F5800080EF420DA6EDF50D8B4B5EF17F0B7EFEB
:102F680017F021EF19F0870E176EFE0E186E98EC09
:102F78005CF0000E106E0A0E0F6E77EC57F047509B
:102F8800160DD30EF324D96E080EF420DA6EDF5036
:102F98000001856F85C00FF0106A000E126E640E76
:102FA800116E06EC54F00F50300F0001846F840E40
:102FB800176E000E186E010E196EB9EC5CF0000E5B
:102FC800106E0A0E0F6E77EC57F085C021F0226A5A
:102FD800000E246E640E236E68EC54F0215000013C
:102FE800856F85C00FF0106A000E126E0A0E116E02
:102FF80006EC54F00F50300F0001846F840E176EEA
:10300800000E186E010E196EB9EC5CF0000E106E11
:103018000A0E0F6E77EC57F085C021F0226A000E79
:10302800246E0A0E236E68EC54F021500001856F5F
:103038008551300F846F840E176E000E186E010EC6
:10304800196EB9EC5CF0000E106E0A0E0F6E77EC7C
:1030580057F0C10E176EFF0E186E98EC5CF0000E5C
:10306800106E0A0E0F6E77EC57F04750160DD40EFF
:10307800F324D96E080EF420DA6EDF500001856F54
:1030880085C00FF0106A000E126E640E116E06EC09
:1030980054F00F50300F0001846F840E176E000E2D
:1030A800186E010E196EB9EC5CF0000E106E0A0E67
:1030B8000F6E77EC57F085C021F0226A000E246E5F
:1030C800640E236E68EC54F021500001856F85C0B2
:1030D8000FF0106A000E126E0A0E116E06EC54F014
:1030E8000F50300F0001846F840E176E000E186E9B
:1030F800010E196EB9EC5CF0000E106E0A0E0F6E20
:1031080077EC57F085C021F0226A000E246E0A0E73
:10311800236E68EC54F021500001856F8551300F03
:10312800846F840E176E000E186E010E196EB9ECBE
:103138005CF0000E106E0A0E0F6E77EC57F0470E1B
:10314800176EFF0E186E98EC5CF0000E106E0A0EEB
:103158000F6E77EC57F04750160DD50EF324D96E45
:10316800080EF420DA6EDF500001856F85C00FF07D
:10317800106A000E126E640E116E06EC54F00F50B9
:10318800300F0001846F840E176E000E186E010E4A
:10319800196EB9EC5CF0000E106E0A0E0F6E77EC2B
:1031A80057F085C021F0226A000E246E640E236E4B
:1031B80068EC54F021500001856F85C00FF0106A4B
:1031C800000E126E0A0E116E06EC54F00F50300FFE
:1031D8000001846F840E176E000E186E010E196EB2
:1031E800B9EC5CF0000E106E0A0E0F6E77EC57F01B
:1031F80085C021F0226A000E246E0A0E236E68EC48
:1032080054F021500001856F8551300F846F840E72
:10321800176E000E186E010E196EB9EC5CF0000EF8
:10322800106E0A0E0F6E77EC57F0F70E176EFE0E43
:10323800186E98EC5CF04FEF1BF0A70E176EFE0EA1
:10324800186E98EC5CF0000E106E0A0E0F6E77EC9C
:1032580057F04FEF1BF0000E106E0A0E0F6E77EC52
:1032680057F05E0E176EFF0E186E98EC5CF0000EAD
:10327800106E0A0E0F6E77EC57F06CC085F085C0A3
:1032880021F0226A000E246E640E236E68EC54F05E
:1032980021500001856F85C00FF0106A000E126E74
:1032A8000A0E116E06EC54F00F50300F0001846FB7
:1032B800840E176E000E186E010E196EB9EC5CF0D4
:1032C800000E106E0A0E0F6E77EC57F085C021F0D5
:1032D800226A000E246E0A0E236E68EC54F0215008
:1032E8000001856F8551300F846F840E176E000EB4
:1032F800186E010E196EB9EC5CF0000E106E0A0E15
:103308000F6E77EC57F0D70E176EFF0E186E98EC0D
:103318005CF0000E106E0A0E0F6E77EC57F09D0EE3
:10332800176EFF0E186E98EC5CF0000E106E0A0E09
:103338000F6E77EC57F06BC085F085C021F0226ADC
:10334800000E246E640E236E68EC54F021500001C8
:10335800856F85C00FF0106A000E126E0A0E116E8E
:1033680006EC54F00F50300F0001846F840E176E76
:10337800000E186E010E196EB9EC5CF0000E106E9E
:103388000A0E0F6E77EC57F085C021F0226A000E06
:10339800246E0A0E236E68EC54F021500001856FEC
:1033A8008551300F846F840E176E000E186E010E53
:1033B800196EB9EC5CF0000E106E0A0E0F6E77EC09
:1033C80057F0D70E176EFF0E186E98EC5CF0000ED3
:1033D800106E0A0E0F6E77EC57F0A60E176EFF0EE2
:1033E800186E98EC5CF0000E106E0A0E0F6E77ECFB
:1033F80057F06AC085F085C021F0226A000E246E5D
:10340800640E236E68EC54F021500001856F85C06E
:103418000FF0106A000E126E0A0E116E06EC54F0D0
:103428000F50300F0001846F840E176E000E186E57
:10343800010E196EB9EC5CF0000E106E0A0E0F6EDC
:1034480077EC57F085C021F0226A000E246E0A0E30
:10345800236E68EC54F021500001856F8551300FC0
:10346800846F840E176E000E186E010E196EB9EC7B
:103478005CF0000E106E0A0E0F6E77EC57F0E40E3B
:10348800176EFF0E186E98EC5CF0000E106E0A0EA8
:103498000F6E77EC57F0690E176EFF0E186E98ECEA
:1034A8005CF0000E106E0A0E0F6E77EC57F03AC003
:1034B80085F085C021F0226A000E246E640E236E0A
:1034C80068EC54F021500001856F85C00FF0106A38
:1034D800000E126E0A0E116E06EC54F00F50300FEB
:1034E8000001846F840E176E000E186E010E196E9F
:1034F800B9EC5CF0000E106E0A0E0F6E77EC57F008
:1035080085C021F0226A000E246E0A0E236E68EC34
:1035180054F021500001856F8551300F846F840E5F
:10352800176E000E186E010E196EB9EC5CF0000EE5
:10353800106E0A0E0F6E77EC57F0D70E176EFF0E4F
:10354800186E98EC5CF0000E106E0A0E0F6E77EC99
:1035580057F0D80E176EFE0E186E98EC5CF0000E41
:10356800106E0A0E0F6E77EC57F069C085F085C0B3
:103578000FF0106A000E126E640E116E06EC54F015
:103588000F50300F0001846F840E176E000E186EF6
:10359800010E196EB9EC5CF0000E106E0A0E0F6E7B
:1035A80077EC57F085C021F0226A000E246E640E75
:1035B800236E68EC54F021500001856F85C00FF030
:1035C800106A000E126E0A0E116E06EC54F00F50BF
:1035D800300F0001846F840E176E000E186E010EF6
:1035E800196EB9EC5CF0000E106E0A0E0F6E77ECD7
:1035F80057F085C021F0226A000E246E0A0E236E51
:1036080068EC54F021500001856F8551300F846FAC
:10361800840E176E000E186E010E196EB9EC5CF070
:10362800000E106E0A0E0F6E77EC57F0E40E176E50
:10363800FF0E186E98EC5CF027EF19F02B502C6EEB
:103648002D6A2D50000AD8B42CEF1BF04FEF1BF059
:103658002C50010AD8B46BEF12F0030AD8B47BEFF0
:1036680012F0010AD8B485EF12F0070AD8B48FEF28
:1036780012F0010AD8B499EF12F0030AD8B475EF22
:1036880013F0010AD8B411EF14F00F0AD8B42FEFD1
:1036980019F04FEF1BF0000E4D6E000E486E1A0E1B
:1036A80070EC5EF0000E106E640E0F6E77EC57F043
:1036B800000E0F6E000EA4EC5EF0C9804D50D8B419
:1036C80068EF1BF06AEF1BF062EF1BF00E01388504
:1036D800000E0F6E0F0EA4EC5EF0010E106EF40ECD
:1036E8000F6E77EC57F01200000E0101FE6FD7A2A3
:1036F80080EF1BF082EF1BF0ACEF1BF0D7A487EF35
:103708001BF089EF1BF0ACEF1BF0D7A68EEF1BF078
:1037180090EF1BF0ACEF1BF0D7A095EF1BF097EFE5
:103728001BF0ACEF1BF0D7A89CEF1BF09EEF1BF033
:10373800ACEF1BF0D7BEA3EF1BF0A5EF1BF0ACEF6F
:103748001BF0D7ACAAEF1BF0ACEF1BF0A6EF1EF0F6
:10375800D7A2B1EF1BF0B3EF1BF0BAEF1BF0D7B055
:10376800B8EF1BF0BAEF1BF0BFEF1BF0D786D7847A
:10377800D788D79ED79CD7B2C4EF1BF0C6EF1BF0F3
:10378800CBEF1BF0010EFE6FD7820FEF1CF0D7B006
:10379800D0EF1BF0D2EF1BF0D7EF1BF0020EFE6F3D
:1037A800D7800FEF1CF0D7B6DCEF1BF0DEEF1BF075
:1037B800E3EF1BF0030EFE6FD7860FEF1CF0D7B4B4
:1037C800E8EF1BF0EAEF1BF0EFEF1BF0040EFE6FC3
:1037D800D7840FEF1CF0D7B8F4EF1BF0F6EF1BF00F
:1037E800FBEF1BF0050EFE6FD7880FEF1CF0D7BE5E
:1037F80000EF1CF002EF1CF009EF1CF0D7AC07EF4C
:103808001CF009EF1CF00FEF1CF0060EFE6FD79EA0
:10381800D79C0FEF1CF0030EFE19D8B416EF1CF05E
:1038280018EF1CF01EEF1CF0750E106E300E0F6EA8
:1038380077EC57F066EC4AF0030E106EE80E0F6E48
:1038480077EC57F0B6EC3DF0030E106EE80E0F6EF5
:1038580077EC57F010EC4DF0030E106EE80E0F6E7B
:1038680077EC57F070EC4CF0030E106EE80E0F6E0C
:1038780077EC57F000017551D8A445EF1CF047EFDD
:103888001CF04FEF1CF0010E756F09EC56F029EC97
:1038980059F0F3EC5BF0030E0101FE19D8A457EFC1
:1038A8001CF059EF1CF0A4EF1EF0000E476E74EFE9
:1038B8001CF0010E0F6E000EA4EC5EF0010E106EEF
:1038C800F40E0F6E77EC57F0010E0F6E0F0EA4EC8E
:1038D8005EF0010E106EF40E0F6E77EC57F0472A6B
:1038E800050E47607AEF1CF07CEF1CF085EF1CF0AA
:1038F80000017151D8B483EF1CF085EF1CF05DEF27
:103908001CF000017151D8A48CEF1CF08EEF1CF054
:1039180073EF1EF0010E476E090E476496EF1CF018
:1039280098EF1CF09AEF1CF0ACEF1CF00001712B23
:10393800D2EC5BF0010E0F6E4750A4EC5EF0270E40
:10394800106E100E0F6E77EC57F0472A90EF1CF0B0
:10395800000E0001716FD2EC5BF0A4EF1EF0000EB8
:10396800716FD2EC5BF0000E476E040E4764BFEF38
:103978001CF0C1EF1CF0C3EF1CF0DCEF1CF0010ED3
:103988000F6E0F0EA4EC5EF0010E106EF40E0F6EAB
:1039980077EC57F0010E0F6E010EA4EC5EF0030EEB
:1039A800106EE80E0F6E77EC57F0472AB9EF1CF04F
:1039B800000E1C6E020E88EC37F08E9E000E486ECC
:1039C8002B0E276EFA0E286E980E296E000E2A6EA0
:1039D800050E2B6E34EC12F0ACEF1CF0000E716F7C
:1039E800D2EC5BF0000E476E040E4764FEEF1CF04D
:1039F80000EF1DF002EF1DF01BEF1DF0010E0F6E22
:103A08000F0EA4EC5EF0010E106EF40E0F6E77EC44
:103A180057F0010E0F6E020EA4EC5EF0030E106E4E
:103A2800E80E0F6E77EC57F0472AF8EF1CF0000EFF
:103A38001C6E010E88EC37F0E2EF1CF0000E716F7F
:103A4800D2EC5BF0000E476E040E47642EEF1DF0BB
:103A580030EF1DF032EF1DF04BEF1DF0010E0F6E31
:103A68000F0EA4EC5EF0010E106EF40E0F6E77ECE4
:103A780057F0010E0F6E030EA4EC5EF0030E106EED
:103A8800E80E0F6E77EC57F0472A28EF1DF03AEC56
:103A980041F0ACEF1CF0000E716FD2EC5BF0000E41
:103AA800476E040E47645BEF1DF05DEF1DF05FEF9E
:103AB8001DF0ACEF1CF0010E0F6E0F0EA4EC5EF0C3
:103AC800010E106EF40E0F6E77EC57F0010E0F6EAC
:103AD800040EA4EC5EF0030E106EE80E0F6E77EC89
:103AE80057F0472A55EF1DF0000E716FD2EC5BF0CE
:103AF800000E476E040E476484EF1DF086EF1DF03C
:103B080088EF1DF0ACEF1CF0010E0F6E0F0EA4EC49
:103B18005EF0010E106EF40E0F6E77EC57F0010E8A
:103B28000F6E050EA4EC5EF0030E106EE80E0F6E1D
:103B380077EC57F0472A7EEF1DF0000E716FD2EC3C
:103B48005BF0000E476E040E4764ADEF1DF0AFEF5B
:103B58001DF0B1EF1DF0ACEF1CF0010E0F6E0F0E53
:103B6800A4EC5EF0010E106EF40E0F6E77EC57F0B9
:103B7800010E0F6E060EA4EC5EF0030E106EE80E3A
:103B88000F6E77EC57F0472AA7EF1DF0000E716F04
:103B9800D2EC5BF05050D8B4D4EF1DF0D6EF1DF046
:103BA800ACEF1CF0000E476E040E4764DEEF1DF00C
:103BB800E0EF1DF0E2EF1DF0FBEF1DF0010E0F6EC0
:103BC8000F0EA4EC5EF0010E106EF40E0F6E77EC83
:103BD80057F0010E0F6E070EA4EC5EF0030E106E88
:103BE800E80E0F6E77EC57F0472AD8EF1DF007EC78
:103BF80047F0C8EC5AF0030E106EE80E0F6E77EC23
:103C080057F0B6EC3DF0ACEF1CF0000E716FD2EC43
:103C18005BF05050D8B413EF1EF015EF1EF0ACEF68
:103C28001CF0000E476E040E47641DEF1EF01FEFD8
:103C38001EF021EF1EF03AEF1EF0010E0F6E0F0E70
:103C4800A4EC5EF0010E106EF40E0F6E77EC57F0D8
:103C5800010E0F6E080EA4EC5EF0030E106EE80E57
:103C68000F6E77EC57F0472A17EF1EF007EC47F076
:103C7800FFEF1DF0000E716FD2EC5BF05050D8B41E
:103C880048EF1EF04AEF1EF0ACEF1CF0000E476E36
:103C9800040E476452EF1EF054EF1EF056EF1EF06C
:103CA8006FEF1EF0010E0F6E0F0EA4EC5EF0010E0A
:103CB800106EF40E0F6E77EC57F0010E0F6E090EB2
:103CC800A4EC5EF0030E106EE80E0F6E77EC57F062
:103CD800472A4CEF1EF0C8EC5AF0FFEF1DF0715167
:103CE800FE6FFF6BFF51000AD8B47DEF1EF0ACEFFA
:103CF8001CF0FE51010AD8B4B3EF1CF0030AD8B483
:103D0800F2EF1CF0010AD8B422EF1DF0070AD8B46C
:103D18004FEF1DF0010AD8B478EF1DF0030AD8B4AC
:103D2800A1EF1DF0010AD8B4CAEF1DF00F0AD8B4EC
:103D380009EF1EF0010AD8B43EEF1EF0ACEF1CF0FC
:103D48009DEC5AF05050D8B4ACEF1EF0AEEF1EF018
:103D580094EF21F077EC5CF00009D8B4B6EF1EF0D0
:103D6800B8EF1EF0CDEF1EF0FF0E376EDC0E366E8C
:103D7800A10E276EF70E286E980E296E000E2A6E79
:103D8800000E2B6E34EC12F0010E0001786FB8EFC4
:103D980021F0000E0001706F000E476E29EF20F031
:103DA8004750160DDA0EF324D96E080EF420DA6E99
:103DB800DE04D8A4E2EF1EF0E4EF1EF028EF20F0B6
:103DC800C0EC54F04750160DD20EF324D96E080EED
:103DD800F420DA6E4250DE5CD8A0F5EF1EF0F7EF63
:103DE8001EF090EF1FF04750160DD10EF324D96E38
:103DF800080EF420DA6E4150DE5CD8B006EF1FF0F2
:103E080008EF1FF019EF1FF04750160DD20EF324DC
:103E1800D96E080EF420DA6E4250DE18D8B417EFC7
:103E28001FF019EF1FF090EF1FF04750160DD00E3E
:103E3800F324D96E080EF420DA6E4050DE5CD8B058
:103E480028EF1FF02AEF1FF04CEF1FF04750160D18
:103E5800D10EF324D96E080EF420DA6E4150DE1824
:103E6800D8A439EF1FF03BEF1FF04CEF1FF047507D
:103E7800160DD20EF324D96E080EF420DA6E4250D5
:103E8800DE18D8B44AEF1FF04CEF1FF090EF1FF088
:103E98004750160DCE0EF324D96E080EF420DA6EB4
:103EA8003F50DE5CD8B05BEF1FF05DEF1FF022EFF4
:103EB80020F04750160DD00EF324D96E080EF420CA
:103EC800DA6E4050DE18D8A46CEF1FF06EEF1FF0CA
:103ED80022EF20F04750160DD10EF324D96E080EAC
:103EE800F420DA6E4150DE18D8A47DEF1FF07FEF82
:103EF8001FF022EF20F04750160DD20EF324D96E92
:103F0800080EF420DA6E4250DE18D8A48EEF1FF0A7
:103F180090EF1FF022EF20F0000E4B6E4750160D69
:103F2800DA0EF324D96E080EF420DA6E000EDF6E76
:103F38004750160DD80EF324D96E080EF420DA6E09
:103F48004750160DD90EF324E16E080EF420E26EE8
:103F5800DFCFE7FF47C070F04750160DDC0EF324A3
:103F6800D96E080EF420DA6EDF50D8B4BEEF1FF019
:103F7800C0EF1FF01AEF20F04750160DD70EF324AC
:103F8800D96E080EF420DA6E020EDE18D8A4CFEF30
:103F98001FF0D1EF1FF0EFEF1FF04750160DD70EAF
:103FA800F324D96E080EF420DA6E000EDF6E475047
:103FB800160DDD0EF324D96E080EF420DA6E010E0C
:103FC800DF6E65EC55F019C064F01AC065F041EC7D
:103FD80058F01AEF20F04750160DD70EF324D96E7B
:103FE800080EF420DA6E030EDE18D8B4FEEF1FF0C8
:103FF80000EF20F010EF20F04750160DD70EF324F5
:10400800D96E080EF420DA6EDE04D8A40EEF20F084
:1040180010EF20F01AEF20F04750160DD70EF324BA
:10402800D96E080EF420DA6E000EDF6E000E106EE8
:10403800640E0F6E77EC57F031EF20F0010E4B6EE7
:1040480047C070F031EF20F0472A0B0E47642FEF7E
:1040580020F031EF20F0D4EF1EF04B50D8B437EFFA
:1040680020F039EF20F039EF21F0010E00017C6FCC
:10407800090E476042EF20F044EF20F04BEF20F0AC
:10408800300E846F4750310F856FB6EF20F0080E61
:10409800476451EF20F053EF20F0B6EF20F00C0EFC
:1040A800476059EF20F05BEF20F0B6EF20F0310EBB
:1040B800846F4750270F856FB6EF20F0260E276EC6
:1040C800F50E286E980E296E000E2A6E020E2B6EC3
:1040D80034EC12F0DDEF20F0C10E276EF50E286EDD
:1040E800980E296E000E2A6E020E2B6E34EC12F01A
:1040F800DDEF20F0740E276EF50E286E980E296EEF
:10410800000E2A6E020E2B6E34EC12F0DDEF20F05A
:10411800D40E276EF40E286E980E296E000E2A6EA5
:10412800020E2B6E34EC12F0DDEF20F0560E276EE7
:10413800F60E286E980E296E000E2A6E020E2B6E51
:1041480034EC12F0DDEF20F00C0E276EF60E286E20
:10415800980E296E000E2A6E020E2B6E34EC12F0A9
:10416800DDEF20F00101FE510001FE6FFF6BFF51F2
:10417800000AD8B4C2EF20F0DDEF20F0FE51010AAA
:10418800D8B462EF20F0030AD8B470EF20F0010A27
:10419800D8B47EEF20F0070AD8B48CEF20F0010ADB
:1041A800D8B49AEF20F0030AD8B4A8EF20F0DDEFD6
:1041B80020F065EC55F019C036F01AC037F0B8EFAA
:1041C80021F02A0E276EFB0E286E980E296E000E1F
:1041D8002A6E000E2B6E34EC12F060EF21F0070E01
:1041E800276EFD0E286E980E296E000E2A6E000EA0
:1041F8002B6E34EC12F060EF21F04F0E276EFB0EA1
:10420800286E980E296E000E2A6E000E2B6E34EC66
:1042180012F060EF21F0B10E276EFA0E286E980E9C
:10422800296E000E2A6E000E2B6E34EC12F060EF31
:1042380021F0640E276EFC0E286E980E296E000E73
:104248002A6E000E2B6E34EC12F060EF21F0430E54
:10425800276EFC0E286E980E296E000E2A6E000E30
:104268002B6E34EC12F060EF21F00101FE510001D9
:10427800FE6FFF6BFF51000AD8B445EF21F060EFE5
:1042880021F0FE51010AD8B4E5EF20F0030AD8B4B2
:10429800F3EF20F0010AD8B401EF21F0070AD8B4EF
:1042A8000FEF21F0010AD8B41DEF21F0030AD8B4AA
:1042B8002BEF21F060EF21F0B8EF21F0000E0F6E28
:1042C800010EA4EC5EF0AA0E0F6E000E106EA30E87
:1042D800116E000E126E000E146E060E136EFFECB9
:1042E80057F0FF0E376EDC0E366E10EC45F04F506F
:1042F800D8B481EF21F083EF21F094EF21F0010E83
:104308000F6E020EA4EC5EF0010E106EF40E0F6E2E
:1043180077EC57F0000E4F6E58EC01F09DEC5AF018
:104328005050D8B49AEF21F09CEF21F062EF21F0C1
:1043380077EC5CF00009D8B4A4EF21F0A6EF21F0E7
:10434800B8EF21F0FF0E376EDC0E366E250E276EA5
:10435800F70E286E980E296E000E2A6E000E2B6E30
:1043680034EC12F0C8EF1EF05FEC59F00009D8B435
:10437800C0EF21F0C2EF21F0E9EF21F0690E276EBE
:10438800F90E286E980E296E000E2A6E000E2B6EFE
:1043980034EC12F000017451D8B4D5EF21F0D7EF06
:1043A80021F041EF22F0C7EC48F0030E106EE80E42
:1043B8000F6E77EC57F02FEC57F0030E106EE80EE7
:1043C8000F6E77EC57F041EF22F000017A51D8B424
:1043D800F0EF21F0F2EF21F037EF22F0000E7A6FC4
:1043E800000E106E640E0F6E77EC57F014EC5CF054
:1043F800000E106E640E0F6E77EC57F000017451CA
:10440800D8B409EF22F00BEF22F029EF22F0C7EC25
:1044180048F0030E106EE80E0F6E77EC57F02FEC95
:1044280057F0030E106EE80E0F6E77EC57F0C60EBD
:10443800276EF80E286E980E296E000E2A6E000E52
:104448002B6E34EC12F041EF22F08E0E276EF80E30
:10445800286E980E296E000E2A6E000E2B6E34EC14
:1044680012F041EF22F07451D8B43DEF22F03FEF43
:1044780022F041EF22F0D7EF21F012004B50D8B4D0
:1044880048EF22F04AEF22F026EF25F03650371099
:10449800D8A451EF22F053EF22F026EF25F00001C7
:1044A8007F51D8A45AEF22F05CEF22F026EF25F0D6
:1044B8004A50D8A462EF22F064EF22F026EF25F0EC
:1044C8007D51D8A46AEF22F06CEF22F026EF25F098
:1044D8004C50D8A472EF22F074EF22F026EF25F0AA
:1044E800000E326E1CEF25F03250160DDA0EF32452
:1044F800D96E080EF420DA6EDE04D8A486EF22F016
:1045080088EF22F04CEF23F03250160DDC0EF32426
:10451800D96E080EF420DA6EDF50D8B496EF22F088
:1045280098EF22F04CEF23F03250160DD70EF324FB
:10453800D96E080EF420DA6EDE04D8A4A6EF22F0B5
:10454800A8EF22F04CEF23F0030E106EE80E0F6E6A
:1045580077EC57F08E8C3250160DD70EF324D96EA7
:10456800080EF420DA6E020EDF6E3250160DDD0EE4
:10457800F324D96E080EF420DA6EDF50D8B4C7EFF2
:1045880022F0C9EF22F0DFEF22F03250160DDD0ED7
:10459800F324D96E080EF420DA6E000EDF6E13ECE9
:1045A80055F019C064F01AC065F064C036F065C0F3
:1045B80037F0ECEF22F03250160DD40EF324D96EFA
:1045C800080EF420DA6EDF502E6E2E50366E376AE3
:1045D800000E106E640E0F6E77EC57F03250020D1D
:1045E800CD0EF324F66EF20EF420F76E0900F5CF27
:1045F80017F00A00F5CF18F03250160DC80EF32444
:10460800196E080EF4201A6E9DEC56F0000E106E0E
:10461800640E0F6E77EC57F07DEC58F0000E106EBC
:10462800640E0F6E77EC57F0090E32601EEF23F020
:1046380020EF23F028EF23F0300E0001846F325072
:10464800310F856F3EEF23F0080E32642EEF23F012
:1046580030EF23F03EEF23F00C0E326036EF23F0FC
:1046680038EF23F03EEF23F0310E0001846F325013
:10467800270F856FFF0E276EFB0E286E980E296E8A
:10468800000E2A6E020E2B6E34EC12F0C6EF26F0E6
:104698003250160DDA0EF324D96E080EF420DA6EB5
:1046A800DE04D8A45AEF23F05CEF23F041EF24F0A6
:1046B8003250160DDC0EF324D96E080EF420DA6E93
:1046C800DF50D8B46AEF23F06CEF23F041EF24F009
:1046D8003250160DD70EF324D96E080EF420DA6E78
:1046E800020EDE18D8A47BEF23F07DEF23F041EF14
:1046F80024F0030E106EE80E0F6E77EC57F08E9CC8
:104708003250160DD70EF324D96E080EF420DA6E47
:10471800030EDF6E3250160DD50EF324D96E080E37
:10472800F420DA6EDF063250160DD50EF324D96E5A
:10473800080EF420DA6EDF50D8A4A5EF23F0A7EF17
:1047480023F0B1EF23F03250160DDC0EF324D96EAE
:10475800080EF420DA6E000EDF6E000E106E640E86
:104768000F6E77EC57F03250020DCD0EF324F66E33
:10477800F20EF420F76E0900F5CF17F00A00F5CF16
:1047880018F03250160DC80EF324196E080EF420D6
:104798001A6E4CEC4EF0000E106E640E0F6E77EC35
:1047A80057F03250160DCC0EF324D96E080EF420B3
:1047B800DA6EDF502E6E2F6A3250160DD30EF324A8
:1047C800D96E080EF420DA6EDF50306E30502E5E4F
:1047D800000E2F5A3250160DD40EF324D96E080E3F
:1047E800F420DA6EDF50316E31502E5C366E2F5069
:1047F800D8A02F04376E000E106E640E0F6E77EC83
:1048080057F07DEC58F0000E106E640E0F6E77ECCA
:1048180057F0090E326013EF24F015EF24F01DEF66
:1048280024F0300E0001846F3250310F856F33EF62
:1048380024F0080E326423EF24F025EF24F033EF40
:1048480024F00C0E32602BEF24F02DEF24F033EF20
:1048580024F0310E0001846F3250270F856FDD0E72
:10486800276EFB0E286E980E296E000E2A6E020E19
:104878002B6E34EC12F0C6EF26F03250160DDA0E1D
:10488800F324D96E080EF420DA6EDE04D8A44FEFB4
:1048980024F051EF24F01BEF25F03250160DDA0EFC
:1048A800F324D96E080EF420DA6E000EDF6E325053
:1048B800160DD80EF324D96E080EF420DA6E325095
:1048C800160DD90EF324E16E080EF420E26EDE50C8
:1048D800E618D8A472EF24F074EF24F080EF24F0E7
:1048E8003250160DD90EF324D96E080EF420DA6E64
:1048F800010EDF6E89EF24F03250160DD90EF32425
:10490800D96E080EF420DA6EDF2A000E4B6E010E07
:1049180000017E6F3228706F000E106E640E0F6EED
:1049280077EC57F03250B0EC5BF0000E106E640E6E
:104938000F6E77EC57F03250020DCD0EF324F66E61
:10494800F20EF420F76E0900F5CF17F00A00F5CF44
:1049580018F03250160DC80EF324196E080EF42004
:104968001A6E11EC5DF0000E106E640E0F6E77EC8F
:1049780057F03250020DCD0EF324F66EF20EF420ED
:10498800F76E0900F5CF17F00A00F5CF18F032508E
:10499800160DC80EF324196E080EF4201A6EF4ECE6
:1049A8005CF0000E106E640E0F6E77EC57F032500C
:1049B800160DDC0EF324D96E080EF420DA6EDF50E3
:1049C800D8B4E9EF24F0EBEF24F0C6EF26F032502C
:1049D800160DD70EF324D96E080EF420DA6E000EE9
:1049E800DF6E000E106E640E0F6E77EC57F03250CB
:1049F800020DCD0EF324F66EF20EF420F76E0900C8
:104A0800F5CF17F00A00F5CF18F03250160DC80E82
:104A1800F324196E080EF4201A6E9DEC56F0000E61
:104A2800106E640E0F6E77EC57F0C6EF26F0322A40
:104A38000B0E326422EF25F024EF25F078EF22F0F8
:104A4800C6EF26F000017D51D8B42DEF25F02FEFE9
:104A580025F0C6EF26F0000E7D6F000E326EBEEF19
:104A680026F03250160DDA0EF324D96E080EF42013
:104A7800DA6EDE04D8A443EF25F045EF25F0BDEF4C
:104A880026F03250160DDB0EF324D96E080EF420F2
:104A9800DA6EDF50D8A453EF25F055EF25F015EF67
:104AA80026F03250160DDA0EF324D96E080EF420D3
:104AB800DA6E000EDF6E3250160DD80EF324D96E62
:104AC800080EF420DA6E3250160DD90EF324E16E7A
:104AD800080EF420E26EDE50E618D8A476EF25F032
:104AE80078EF25F084EF25F03250160DD90EF32417
:104AF800D96E080EF420DA6E010EDF6E8DEF25F008
:104B08003250160DD90EF324D96E080EF420DA6E41
:104B1800DF2A3250160DD70EF324D96E080EF42072
:104B2800DA6E020EDE18D8A49CEF25F09EEF25F071
:104B3800C7EF25F08E9C3250160DD70EF324D96E90
:104B4800080EF420DA6E000EDF6E3250020DCD0E24
:104B5800F324F66EF20EF420F76E0900F5CF17F085
:104B68000A00F5CF18F03250160DC80EF324196E4E
:104B7800080EF4201A6E9DEC56F0000E106E640EAE
:104B88000F6E77EC57F0000E4B6E010E00017E6F32
:104B98003228706F000E106E640E0F6E77EC57F0AF
:104BA8003250B0EC5BF0000E106E640E0F6E77ECB6
:104BB80057F03250020DCD0EF324F66EF20EF420AB
:104BC800F76E0900F5CF17F00A00F5CF18F032504C
:104BD800160DC80EF324196E080EF4201A6E11EC87
:104BE8005DF0000E106E640E0F6E77EC57F03250C9
:104BF800020DCD0EF324F66EF20EF420F76E0900C6
:104C0800F5CF17F00A00F5CF18F03250160DC80E80
:104C1800F324196E080EF4201A6EF4EC5CF013EF0E
:104C280025F03250160DD70EF324D96E080EF42055
:104C3800DA6EDE04D8A423EF26F025EF26F04EEF37
:104C480026F065EC55F019C036F01AC037F032502E
:104C5800160DCC0EF324D96E080EF420DA6EDF5050
:104C68002E6E2F6A3250160DD30EF324D96E080E0D
:104C7800F420DA6EDF50306E30502E5E000E2F5A60
:104C880036502E24366E37502F20376E7DEC58F074
:104C980013EF25F03250160DD70EF324D96E080EF7
:104CA800F420DA6E020EDE18D8A45DEF26F05FEF6E
:104CB80026F0BDEF26F08E9C3250160DD70EF32449
:104CC800D96E080EF420DA6E000EDF6E3250020D37
:104CD800CD0EF324F66EF20EF420F76E0900F5CF30
:104CE80017F00A00F5CF18F03250160DC80EF3244D
:104CF800196E080EF4201A6E9DEC56F0000E106E18
:104D0800640E0F6E77EC57F065EC55F019C036F06D
:104D18001AC037F03250160DCC0EF324D96E080E97
:104D2800F420DA6EDF502E6E2F6A3250160DD30E35
:104D3800F324D96E080EF420DA6EDF50306E30504E
:104D48002E5E000E2F5A3250160DD40EF324D96E53
:104D5800080EF420DA6EDF50316E31502E5E000EF0
:104D68002F5A36502E24366E37502F20376E4AEF82
:104D780026F0322A0B0E3264C4EF26F0C6EF26F076
:104D880035EF25F01200010E0601DD6F6E0EDC6FA7
:104D9800010EDF6F6D0EDE6F000EE16F000EE06F2B
:104DA800FF0E376EDC0E366E000E0001826F0B0EA2
:104DB8007065E1EF26F0E3EF26F0E5EF26F0000E50
:104DC800706F70C047F048EF2AF04750160DDB0EA1
:104DD800F324D96E080EF420DA6EDF50D8B4F7EF5A
:104DE80026F0F9EF26F047EF2AF04750160DDA0EB5
:104DF800F324D96E080EF420DA6EDE04D8B407EF77
:104E080027F009EF27F047EF2AF000018251D8A4D4
:104E180010EF27F012EF27F027EF27F0000E106EA3
:104E2800640E0F6E77EC57F0C0EC54F0000E106E65
:104E3800640E0F6E77EC57F0010E0001826FFF0EC3
:104E4800376EDC0E366E4750160DD20EF324D96E2F
:104E5800080EF420DA6E4250DE5CD8A036EF27F058
:104E680038EF27F026EF28F04750160DD10EF3241F
:104E7800D96E080EF420DA6E4150DE5CD8B047EFE8
:104E880027F049EF27F05AEF27F04750160DD20EBA
:104E9800F324D96E080EF420DA6E4250DE18D8B426
:104EA80058EF27F05AEF27F026EF28F04750160D55
:104EB800D00EF324D96E080EF420DA6E4050DE5C72
:104EC800D8B069EF27F06BEF27F08DEF27F0475048
:104ED800160DD10EF324D96E080EF420DA6E415067
:104EE800DE18D8A47AEF27F07CEF27F08DEF27F0B3
:104EF8004750160DD20EF324D96E080EF420DA6E40
:104F08004250DE18D8B48BEF27F08DEF27F026EF4C
:104F180028F04750160DCE0EF324D96E080EF42053
:104F2800DA6E3F50DE5CD8B09CEF27F09EEF27F09A
:104F3800D1EF27F04750160DD00EF324D96E080E86
:104F4800F420DA6E4050DE18D8A4ADEF27F0AFEFAA
:104F580027F0D1EF27F04750160DD10EF324D96E64
:104F6800080EF420DA6E4150DE18D8A4BEEF27F000
:104F7800C0EF27F0D1EF27F04750160DD20EF324DB
:104F8800D96E080EF420DA6E4250DE18D8B4CFEF8E
:104F980027F0D1EF27F026EF28F04750160DCF0E57
:104FA800F324D96E080EF420DA6EDE503E5CD8A0E9
:104FB800E0EF27F0E2EF27F02AEF28F04750160D30
:104FC800CE0EF324D96E080EF420DA6E3F50DE18A8
:104FD800D8A4F1EF27F0F3EF27F02AEF28F0475095
:104FE800160DD00EF324D96E080EF420DA6E405058
:104FF800DE18D8A402EF28F004EF28F02AEF28F0F2
:105008004750160DD10EF324D96E080EF420DA6E2F
:105018004150DE18D8A413EF28F015EF28F02AEF36
:1050280028F04750160DD20EF324D96E080EF4203E
:10503800DA6E4250DE18D8A424EF28F026EF28F0C4
:105048002AEF28F0010E4B6E50EF2AF04750160D4C
:10505800D80EF324D96E080EF420DA6E4750160DD8
:10506800D90EF324E16E080EF420E26EDE50E65C01
:10507800D8B041EF28F043EF28F045EF28F026EFAD
:1050880028F0000E4B6E000E0601E26F000EE36F73
:10509800000EE46F000EE56F42C0E1F69FEF28F0C6
:1050A800D00EE1250F6E106A070E1022000E126E48
:1050B800640E116E6BEC5AF00F501010D8B467EFF5
:1050C80028F069EF28F095EF28F0E1C62DF0030EDF
:1050D8002D16D8A472EF28F074EF28F095EF28F079
:1050E800D00E0601E1250F6E106A070E1022010E80
:1050F800126E900E116E6BEC5AF00F501010D8A46F
:1051080088EF28F08AEF28F095EF28F00601DC51A7
:10511800E227DD51E323000EE423000EE5239EEF92
:1051280028F00601DE51E227DF51E323000EE423D5
:10513800000EE523E12B4750160DD20EF324D96E4D
:10514800080EF420DA6EDE50E15DD8A0AEEF28F04C
:10515800B0EF28F054EF28F04750160DD20EF32484
:10516800D96E080EF420DA6EDF50146E4750160D13
:10517800D10EF324D96E080EF420DA6EDF50D7EC86
:105188004EF014500601E2271550E323000EE423E5
:10519800000EE5234750160DD00EF324D96E080EE5
:1051A800F420DA6EDF502D6E2D50E227000EE32337
:1051B800E423E52342C014F04150D7EC4EF01450DC
:1051C8002D6E15502E6E2F6A306A2D500601E25F43
:1051D8002E50E35B2F50E45B3050E55B40C02DF070
:1051E8002E6A2F6A306A2D50E25F2E50E35B2F50F3
:1051F800E45B3050E55BE2C60FF0E3C610F0E4C6AE
:1052080011F0E5C612F0180E136E000E146E000EA3
:10521800156E000E166E01EC5AF00FC0E2F610C0C3
:10522800E3F611C0E4F612C0E5F64750160DCE0EAF
:10523800F324D96E080EF420DA6E3F50DE5CD8A055
:1052480028EF29F02AEF29F0B3EF29F04750160D7F
:10525800CE0EF324D96E080EF420DA6EDF502D6ED0
:105268003F502D5C2E6E2F6AD8A02F06306A2FBEB5
:1052780030063050316E2E500601E2272F50E323BE
:105288003050E4233150E523E2C60FF0E3C610F0B6
:10529800E4C611F0E5C612F03C0E136E000E146E53
:1052A800000E156E000E166E01EC5AF00FC0E2F6F5
:1052B80010C0E3F611C0E4F612C0E5F64750160D2B
:1052C800CF0EF324D96E080EF420DA6EDE503E5C61
:1052D800D8A071EF29F073EF29F093EF29F0475028
:1052E800160DCF0EF324D96E080EF420DA6EDF50B7
:1052F8002D6E2D503E5C2E6E2F6AD8A02F06306A78
:105308002FBE30063050316E2E500601E25F2F500E
:10531800E35B3050E45B3150E55B0FEF2AF0475018
:10532800160DCF0EF324D96E080EF420DA6EDF5076
:105338002D6E3E502D5C2E6E2F6AD8A02F06306A37
:105348002FBE30063050316E2E500601E2272F5006
:10535800E3233050E4233150E5230FEF2AF0475080
:10536800160DCE0EF324D96E080EF420DA6E3F50D7
:10537800DE5CD8B0C2EF29F0C4EF29F00FEF2AF0B5
:105388004750160DCE0EF324D96E080EF420DA6EAF
:10539800DF502D6E2D503F5C2E6E2F6AD8A02F0641
:1053A800306A2FBE30063050316E2E500601E25F53
:1053B8002F50E35B3050E45B3150E55BE2C60FF001
:1053C800E3C610F0E4C611F0E5C612F03C0E136E09
:1053D800000E146E000E156E000E166E01EC5AF0DB
:1053E8000FC0E2F610C0E3F611C0E4F612C0E5F60D
:1053F8004750160DCF0EF324D96E080EF420DA6E3E
:10540800DE503E5CD8A00BEF2AF00DEF2AF093EFA8
:1054180029F073EF29F00601E251E311E411E511D7
:10542800D8B419EF2AF01BEF2AF026EF2AF0E2058C
:10543800E311E411E511D8A424EF2AF026EF2AF0AD
:105448002CEF2AF0000E376E010E366E47EF2AF069
:1054580036502D6E37502E6E2F6A306A2D50E25D11
:105468002E50E3592F50E4593050E559D8B03FEF4A
:105478002AF041EF2AF047EF2AF0E2C636F0E3C6F9
:1054880037F047EF2AF0472A0B0E47644EEF2AF011
:1054980050EF2AF0E9EF26F04B50D8A456EF2AF047
:1054A80058EF2AF068EF2AF00601E051D8A45FEF20
:1054B8002AF061EF2AF068EF2AF0010EE06F000E83
:1054C8000001706FE5EF26F04B50D8B46EEF2AF06C
:1054D80070EF2AF0D0EF2AF04750160DDC0EF324B7
:1054E800D96E080EF420DA6EDF50D8B47EEF2AF0B9
:1054F80080EF2AF0C1EF2AF04750160DD50EF3249D
:10550800D96E080EF420DA6EDF50D8B48EEF2AF088
:1055180090EF2AF0C1EF2AF04750160DD30EF3246E
:10552800D96E080EF420DA6EDF502D6E2D50366ECF
:10553800376A4750160DD70EF324D96E080EF4209B
:10554800DA6E010EDF6E4750020DCD0EF324F66EB3
:10555800F20EF420F76E0900F5CF17F00A00F5CF28
:1055680018F04750160DC80EF324196E080EF420D3
:105578001A6E9DEC56F012EF2BF04750160DCC0E1C
:10558800F324D96E080EF420DA6EDF502D6E2D50FC
:10559800366E376A12EF2BF0375009E1020E365C8F
:1055A800D8A0D9EF2AF0DBEF2AF004EF2BF0110E88
:1055B800365C110E3758D8B0E4EF2AF0E6EF2AF03F
:1055C80004EF2BF036C00FF037C010F0000E126E4B
:1055D8000F0E116E24EC5EF00FC036F010C037F0DD
:1055E80036C015F037C016F0000E186E110E176E83
:1055F800B8EC58F015C036F016C037F012EF2BF0A3
:10560800110E365C110E3758D8A00DEF2BF00FEFA6
:105618002BF012EF2BF00F0E376E366812002B6E40
:10562800000E276E000E286E000E296E000E2A6EE0
:10563800000E226E710E236E020E246E000E256E71
:10564800000E2C6E140E266E000E0001616F000E07
:10565800606F000E0F6E090EA4EC5EF0000E0001E4
:10566800616F000E606F010E836F000E4E6E0F0E9D
:10567800736F010E2C6E04EF2FF0CF90000ECE6EDC
:10568800000ECD6E000E6E6F3EEF2EF0C980000E3C
:105698004D6E8AA052EF2BF054EF2BF05CEF2BF0FD
:1056A8004D50D8B45AEF2BF05CEF2BF04DEF2BF0A8
:1056B8008AB061EF2BF063EF2BF06BEF2BF04D50BE
:1056C800D8B469EF2BF06BEF2BF05CEF2BF0CF80A9
:1056D8008AA071EF2BF073EF2BF07BEF2BF04D507E
:1056E800D8B479EF2BF07BEF2BF06CEF2BF04D500B
:1056F800D8A481EF2BF083EF2BF07BEF2EF0010E77
:105708004D6E0E0138857BEF2EF0C980000E4D6E70
:105718008AA291EF2BF093EF2BF09BEF2BF04D50DB
:10572800D8B499EF2BF09BEF2BF08CEF2BF08AB2CB
:10573800A0EF2BF0A2EF2BF0AAEF2BF04D50D8B42E
:10574800A8EF2BF0AAEF2BF09BEF2BF0CF808AA2CB
:10575800B0EF2BF0B2EF2BF0BAEF2BF04D50D8B4DE
:10576800B8EF2BF0BAEF2BF0ABEF2BF04D50D8A4DD
:10577800C0EF2BF0C2EF2BF07BEF2EF0010E4D6E39
:105788000E0138857BEF2EF0C980000E4D6E8AA47D
:10579800D0EF2BF0D2EF2BF0DAEF2BF04D50D8B43E
:1057A800D8EF2BF0DAEF2BF0CBEF2BF08AB4DFEF4A
:1057B8002BF0E1EF2BF0E9EF2BF04D50D8B4E7EFE9
:1057C8002BF0E9EF2BF0DAEF2BF0CF808AA4EFEF84
:1057D8002BF0F1EF2BF0F9EF2BF04D50D8B4F7EF99
:1057E8002BF0F9EF2BF0EAEF2BF04D50D8A4FFEF98
:1057F8002BF001EF2CF07BEF2EF0010E4D6E0E0119
:1058080038857BEF2EF0C980000E4D6E8AA60FEF0B
:105818002CF011EF2CF019EF2CF04D50D8B417EFF5
:105828002CF019EF2CF00AEF2CF08AB61EEF2CF0B2
:1058380020EF2CF028EF2CF04D50D8B426EF2CF0A8
:1058480028EF2CF019EF2CF0CF808AA62EEF2CF041
:1058580030EF2CF038EF2CF04D50D8B436EF2CF058
:1058680038EF2CF029EF2CF04D50D8A43EEF2CF057
:1058780040EF2CF07BEF2EF0010E4D6E0E013885B7
:105888007BEF2EF0C980000E4D6E8AA84EEF2CF0EB
:1058980050EF2CF058EF2CF04D50D8B456EF2CF0B8
:1058A80058EF2CF049EF2CF08AB85DEF2CF05FEF41
:1058B8002CF067EF2CF04D50D8B465EF2CF067EF63
:1058C8002CF058EF2CF0CF808AA86DEF2CF06FEFFA
:1058D8002CF077EF2CF04D50D8B475EF2CF077EF13
:1058E8002CF068EF2CF04D50D8A47DEF2CF07FEF12
:1058F8002CF07BEF2EF0010E4D6E0E0138857BEFFC
:105908002EF0C980000E4D6E8AAA8DEF2CF08FEF15
:105918002CF097EF2CF04D50D8B495EF2CF097EF72
:105928002CF088EF2CF08ABA9CEF2CF09EEF2CF02C
:10593800A6EF2CF04D50D8B4A4EF2CF0A6EF2CF025
:1059480097EF2CF0CF808AAAACEF2CF0AEEF2CF0BA
:10595800B6EF2CF04D50D8B4B4EF2CF0B6EF2CF0D5
:10596800A7EF2CF04D50D8A4BCEF2CF0BEEF2CF0D4
:105978007BEF2EF0010E4D6E0E0138857BEF2EF079
:10598800C980000E4D6E8DA8CCEF2CF0CEEF2CF018
:10599800D6EF2CF04D50D8B4D4EF2CF0D6EF2CF035
:1059A800C7EF2CF08DB8DBEF2CF0DDEF2CF0E5EF36
:1059B8002CF04D50D8B4E3EF2CF0E5EF2CF0D6EFF7
:1059C8002CF0CF808DA8EBEF2CF0EDEF2CF0F5EF5D
:1059D8002CF04D50D8B4F3EF2CF0F5EF2CF0E6EFA7
:1059E8002CF04D50D8A4FBEF2CF0FDEF2CF07BEF02
:1059F8002EF0010E4D6E0E0138857BEF2EF0C9801A
:105A0800000E4D6E8CA80BEF2DF00DEF2DF015EF5D
:105A18002DF04D50D8B413EF2DF015EF2DF006EF03
:105A28002DF08CB81AEF2DF01CEF2DF024EF2DF08F
:105A38004D50D8B422EF2DF024EF2DF015EF2DF0B6
:105A4800CF808CA82AEF2DF02CEF2DF034EF2DF01D
:105A58004D50D8B432EF2DF034EF2DF025EF2DF066
:105A68004D50D8A43AEF2DF03CEF2DF07BEF2EF0FF
:105A7800010E4D6E0E0138857BEF2EF0C980000EA9
:105A88004D6E8BA44AEF2DF04CEF2DF054EF2DF016
:105A98004D50D8B452EF2DF054EF2DF045EF2DF0C6
:105AA8008BB459EF2DF05BEF2DF063EF2DF04D50D7
:105AB800D8B461EF2DF063EF2DF054EF2DF0CF80C7
:105AC8008BA469EF2DF06BEF2DF073EF2DF04D5097
:105AD800D8B471EF2DF073EF2DF064EF2DF04D5029
