:0400000045EF01F0D7
:060008005182EBEF41F014
:100018005180D8CF0CF0E8CF0DF0E0CF0EF00E01F4
:1000280033AB19EF00F01BEF00F0F4EF00F08F9600
:10003800339BE30ED46EB00ED36E442A365037107D
:10004800D8B429EF00F02BEF00F036EF00F04C5059
:10005800D8B431EF00F033EF00F036EF00F0360699
:10006800D8A037064304D8A43CEF00F03EEF00F0D8
:100078004FEF00F000016D514418D8A446EF00F08E
:1000880048EF00F04FEF00F0000E446E8F8E020E26
:10009800436EF4EF00F0020E4318D8A456EF00F0B8
:1000A80058EF00F068EF00F03A504418D8A45FEF1A
:1000B80000F061EF00F068EF00F0000E446E8F9ED4
:1000C800030E436EF4EF00F0030E4318D8A46FEF4D
:1000D80000F071EF00F082EF00F000016C5144185D
:1000E800D8A479EF00F07BEF00F082EF00F0000E6B
:1000F800446E8D84040E436EF4EF00F0040E431832
:10010800D8A489EF00F08BEF00F09BEF00F03A5095
:100118004418D8A492EF00F094EF00F09BEF00F0A1
:10012800000E446E8D94050E436EF4EF00F0050E3C
:100138004318D8A4A2EF00F0A4EF00F0B5EF00F048
:1001480000016C514418D8A4ACEF00F0AEEF00F0F9
:10015800B5EF00F0000E446E8D86060E436EF4EF88
:1001680000F0060E4318D8A4BCEF00F0BEEF00F074
:10017800CEEF00F03A504418D8A4C5EF00F0C7EF0E
:1001880000F0CEEF00F0000E446E8D96070E436E21
:10019800F4EF00F0070E4318D8A4D5EF00F0D7EF1E
:1001A80000F0E7EF00F000016A514418D8A4DFEF2F
:1001B80000F0E1EF00F0E7EF00F0000E446E010EF2
:1001C800436EF4EF00F0630E4318D8A4EEEF00F08E
:1001D800F0EF00F0F4EF00F0000E446EF4EF00F0E2
:1001E8000E0138A1FAEF00F0FCEF00F001EF01F08A
:1001F8008F9600016F2B0E01389138A506EF01F09C
:1002080008EF01F03DEF01F08F963895F00EC86EBB
:10021800DC0EC76E00016E2B6E51735DD8B017EF00
:1002280001F019EF01F032EF01F04D50D8A41FEFA3
:1002380001F021EF01F032EF01F0010E4D6E000EDA
:100248006E6FC9908351D8B42CEF01F02EEF01F0F6
:100258003DEF01F0010E4E6E3DEF01F04D50D8B468
:1002680038EF01F03AEF01F03DEF01F0000E6E6F4C
:10027800C9900EC0E0FF0DC0E8FF0CC0D8FF519038
:10028800100027EF4AF0000E0501EF6F000EF06F27
:10029800000EF36F000EF26F1E0E0001736F300E2A
:1002A800846559EF01F05BEF01F009EF12F03A0EA7
:1002B800846161EF01F063EF01F009EF12F0000EC5
:1002C8004D6E000E496EC980010E0F6E030EE1ECF3
:1002D8005CF097EF01F0B90E176EFF0E186EB3ECD5
:1002E8005AF0840E176E000E186E010E196EF2EC9D
:1002F8005AF0F80E176EFE0E186EB3EC5AF0010E97
:10030800106EF40E0F6E8DEC55F04D50D8A48FEF93
:1003180001F091EF01F097EF01F0130E106E880EC7
:100328000F6E8DEC55F04D50D8B49DEF01F09FEF56
:1003380001F06FEF01F0000E0F6E0F0EE1EC5CF0B4
:100348000E013885150E0F6E060E106EF40E116E26
:10035800010E126E000E146E030E136EB5EC51F002
:100368000F501010D8A4BBEF01F0BDEF01F0FAEF69
:1003780011F0840E0F6E000E106E180E116E060E20
:10038800126E000E146E0A0E136E15EC56F0EBEC9E
:100398005BF0000E0F6E070E106E3F0E116E060E0C
:1003A800126E6AEC54F0000E0F6E070E106E36ECEB
:1003B80059F00009D8B4E3EF01F0E5EF01F0EBEFF5
:1003C80001F003EC5CF0EDEC36F0FCEF01F0B8EC7A
:1003D8005BF0000E0F6E050EE1EC5CF0070E106E80
:1003E800D00E0F6E8DEC55F012EF12F012EF12F0E6
:1003F800980E0F6E000E106E840E116E000E126EA7
:10040800000E146E0A0E136EB5EC51F00F5010105A
:10041800D8A411EF02F013EF02F0E9EF10F0840E08
:100428000F6E000E106EF30E116E020E126E000E9D
:10043800146E0A0E136E15EC56F0000E0F6E040EB5
:10044800106EEF0E116E010E126E000E146E040E79
:10045800136EB5EC51F00F501010D8A436EF02F01F
:1004680038EF02F048EF02F0000E496E4A0E276E90
:10047800FE0E286E980E296E000E2A6E000E2B6E48
:1004880013EC12F012EF12F0000E0F6E040E106E45
:10049800FC0E116E000E126E000E146E020E136E1C
:1004A800B5EC51F00F501010D8A45DEF02F05FEFDB
:1004B80002F0A6EF02F0030E0F6E040E106EAA0EE5
:1004C800116E000E126E000E146E060E136EB5EC51
:1004D80051F00F501010D8A474EF02F076EF02F02C
:1004E80096EF02F0AA0E0F6E000E106E0A0E116E35
:1004F800040E126E000E146E060E136E15EC56F0F6
:10050800ABEC57F0000E496E460E276EFD0E286EB6
:10051800980E296E000E2A6E000E2B6E13EC12F048
:1005280012EF12F0000E496EF30E276EFD0E286EC4
:10053800980E296E000E2A6E000E2B6E13EC12F028
:1005480012EF12F0000E0F6E040E106EFC0E116EFC
:10055800010E126E000E146E030E136EB5EC51F000
:100568000F501010D8A4BBEF02F0BDEF02F050EF0F
:1005780005F0000E0501F36F000EF26F030EF7ECA5
:100588003EF0486E010E0501F16F060E496E000E31
:100598004924D96EDA6A040EDA22DF5033EC5CF0B3
:1005A8000009D8B4DAEF02F0DCEF02F024EF04F02F
:1005B800010E4924D96EDA6A040EDA22200EDE18FA
:1005C800D8A4E9EF02F0EBEF02F00BEF03F0000E16
:1005D8004924D96EDA6A040EDA22000E4924E16E43
:1005E800E26A040EE222E750D00FDF6E000E4924C3
:1005F800D96EDA6A040EDA22DF500501E96FE95193
:10060800F225F26F000EF321F36F57EF04F0000E9E
:100618004924D96EDA6A040EDA22000E4924E16E02
:10062800E26A040EE222E750D00FDF6E000E492482
:10063800D96EDA6A040EDA22DF500A0D000E492458
:10064800D96EDA6A040EDA22F3CFDFFFF2C50FF0B3
:10065800F3C510F0000E126E0A0E116E5DEC5CF020
:100668000FC0F2F510C0F3F5FAEF02F04850160D7E
:10067800CC0EF324D96E080EF420DA6EF2C5DFFF33
:10068800000EF36F000EF26F56EF04F04850160D8F
:10069800CD0EF324D96E080EF420DA6EF2C5DFFF12
:1006A80044EF03F04850160DCE0EF324D96E080E11
:1006B800F420DA6EF2C5DFFF44EF03F04850160D60
:1006C800CF0EF324D96E080EF420DA6EF2C5DFFFE0
:1006D80044EF03F04850160DC80EF324D96E080EE7
:1006E800F420DA6EF2C5DEFFF3C5DDFF44EF03F058
:1006F8004850160DCA0EF324D96E080EF420DA6E8F
:10070800F2C5DEFFF3C5DDFF44EF03F04850160DD8
:10071800D60EF324D96E080EF420DA6EF2C5DFFF88
:1007280044EF03F04850160DD80EF324D96E080E86
:10073800F420DA6EF2C5DFFF4850160DD90EF32407
:10074800D96E080EF420DA6EF2C5DFFF44EF03F02D
:10075800F25183EC32F0000E0501F36F000EF26FD8
:100768004850160DD00EF324D96E080EF420DA6E18
:1007780038C0DFFF4850160DD10EF324D96E080E8D
:10078800F420DA6E3BC0DFFF4850160DD20EF3247A
:10079800D96E080EF420DA6E3CC0DFFF4850160D03
:1007A800DA0EF324D96E080EF420DA6E000EDF6E2E
:1007B8004850160DDB0EF324D96E080EF420DA6EBD
:1007C800010EDF6E4850160DD30EF324D96E080EB5
:1007D800F420DA6E000EDF6E4850160DD40EF324A6
:1007E800D96E080EF420DA6E000EDF6E4850160D32
:1007F800D50EF324D96E080EF420DA6E000EDF6EE3
:100808004850160DDC0EF324D96E080EF420DA6E6B
:10081800000EDF6E4850160DD70EF324D96E080E61
:10082800F420DA6E000EDF6E4850160DDD0EF3244C
:10083800D96E080EF420DA6E000EDF6E56EF04F063
:100848000501F151E96FEA6BEA51000AD8B42FEFBC
:1008580004F056EF04F0E951010AD8B43AEF03F076
:10086800030AD8B44AEF03F0010AD8B456EF03F0EC
:10087800070AD8B462EF03F0010AD8B46EEF03F0A8
:10088800030AD8B47CEF03F0010AD8B48AEF03F066
:100898000F0AD8B496EF03F0010AD8B4ACEF03F00E
:1008A80056EF04F0F12B492A090EF1655EEF04F0CA
:1008B80060EF04F0CBEF02F0000E106E640E0F6EC6
:1008C8008DEC55F04850020D710EF324F66EF30EC0
:1008D800F420F76E0900F5CF17F00A00F5CF18F0ED
:1008E8004850160DC80EF324196E080EF4201A6E1F
:1008F8005CEC44F0000E106E640E0F6E8DEC55F03B
:100908004850020D710EF324F66EF30EF420F76EC4
:100918000900F5CF17F00A00F5CF18F04850160D6A
:10092800C80EF324196E080EF4201A6EFCEC54F06D
:10093800000E106E640E0F6E8DEC55F04850020DCF
:10094800710EF324F66EF30EF420F76E0900F5CF5E
:1009580017F00A00F5CF18F04850160DC80EF3240A
:10096800196E080EF4201A6E4AEC5BF0000E106E39
:10097800640E0F6E8DEC55F04850020D710EF32485
:10098800F66EF30EF420F76E0900F5CF17F00A00A3
:10099800F5CF18F04850160DC80EF324196E080E3E
:1009A800F4201A6E2DEC5BF0000E106E640E0F6EC4
:1009B8008DEC55F04850020D710EF324F66EF30ECF
:1009C800F420F76E0900F5CF17F00A00F5CF18F0FC
:1009D8004850160DC80EF324196E080EF4201A6E2E
:1009E80010EC5BF0000E106E640E0F6E8DEC55F07F
:1009F8004850020D710EF324F66EF30EF420F76ED4
:100A08000900F5CF17F00A00F5CF18F04850160D79
:100A1800C80EF324196E080EF4201A6E4FEC4DF030
:100A2800000E106E640E0F6E8DEC55F0090E4860C6
:100A380020EF05F022EF05F02AEF05F0300E000157
:100A4800846F4850310F856F40EF05F0080E4864F9
:100A580030EF05F032EF05F040EF05F00C0E48607E
:100A680038EF05F03AEF05F040EF05F0310E0001E0
:100A7800846F4850270F856F000E496ED20E276E7F
:100A8800FB0E286E980E296E000E2A6E020E2B6E33
:100A980013EC12F012EF12F0000E0F6E040E106E2F
:100AA800EA0E116E010E126E000E146E040E136E15
:100AB800B5EC51F00F501010D8A465EF05F067EFB2
:100AC80005F01AEF06F0040EF7EC3EF0486E4850B9
:100AD800160DDA0EF324D96E080EF420DA6EDE0451
:100AE800D8A479EF05F07BEF05F07EEF05F0010E55
:100AF80000017D6F4850160DDB0EF324D96E080EE9
:100B0800F420DA6E000EDF6E4850160DDC0EF3246A
:100B1800D96E080EF420DA6EDE04D8A496EF05F03C
:100B280098EF05F0C6EF05F04850160DDC0EF324DB
:100B3800D96E080EF420DA6E000EDF6E000E106E0D
:100B4800640E0F6E8DEC55F04850020D710EF324B3
:100B5800F66EF30EF420F76E0900F5CF17F00A00D1
:100B6800F5CF18F04850160DC80EF324196E080E6C
:100B7800F4201A6E4FEC4DF0000E106E640E0F6EDE
:100B88008DEC55F04850020D710EF324F66EF30EFD
:100B9800F420F76E0900F5CF17F00A00F5CF18F02A
:100BA8004850160DC80EF324196E080EF4201A6E5C
:100BB80010EC5BF0000E106E640E0F6E8DEC55F0AD
:100BC800090E4860EAEF05F0ECEF05F0F4EF05F0E8
:100BD800300E0001846F4850310F856F0AEF06F020
:100BE800080E4864FAEF05F0FCEF05F00AEF06F08E
:100BF8000C0E486002EF06F004EF06F00AEF06F06C
:100C0800310E0001846F4850270F856F000E496E22
:100C18002B0E276EFA0E286E980E296E000E2A6E7D
:100C2800020E2B6E13EC12F012EF12F0000E0F6E84
:100C3800040E106EEC0E116E020E126E000E146E83
:100C4800060E136EB5EC51F00F501010D8A42FEF0C
:100C580006F031EF06F041EF08F0000E0501F36FE2
:100C6800000EF26F000EF16F060EF7EC3EF0486EC4
:100C78004850160DDB0EF324D96E080EF420DA6EF8
:100C8800DF50D8A44AEF06F04CEF06F082EF06F0EA
:100C9800090E486052EF06F054EF06F05CEF06F0DC
:100CA800300E0001846F4850310F856F72EF06F0E7
:100CB800080E486462EF06F064EF06F072EF06F083
:100CC8000C0E48606AEF06F06CEF06F072EF06F063
:100CD800310E0001846F4850270F856F000E496E52
:100CE800440E276EF70E286E980E296E000E2A6E97
:100CF800020E2B6E13EC12F012EF12F0090E496E71
:100D0800000E4924D96EDA6A040EDA22DF5033EC79
:100D18005CF00009D8B493EF06F095EF06F0F3EF16
:100D280006F0010E4924D96EDA6A040EDA22200E82
:100D3800DE18D8A4A2EF06F0A4EF06F0C4EF06F080
:100D4800000E4924D96EDA6A040EDA22000E49240C
:100D5800E16EE26A040EE222E750D00FDF6E000E69
:100D68004924D96EDA6A040EDA22DF500501E96FE8
:100D7800E951F225F26F000EF321F36FCDEF07F082
:100D8800000E4924D96EDA6A040EDA22000E4924CC
:100D9800E16EE26A040EE222E750D00FDF6E000E29
:100DA8004924D96EDA6A040EDA22DF500A0D000EE1
:100DB8004924D96EDA6A040EDA22F3CFDFFFF2C5CE
:100DC8000FF0F3C510F0000E126E0A0E116E5DECF6
:100DD8005CF00FC0F2F510C0F3F5B3EF06F00501B3
:100DE800F12BB4EF07F04850160DD30EF324D96E4B
:100DF800080EF420DA6EF2C5DFFF000EF36F000E66
:100E0800F26FCDEF07F04850160DD40EF324D96ECB
:100E1800080EF420DA6EF2C5DFFF01EF07F0485044
:100E2800160DD50EF324D96E080EF420DA6EF2C52D
:100E3800DFFF4850160DD70EF324D96E080EF420A4
:100E4800DA6E000EDF6E4850160DDD0EF324D96EF3
:100E5800080EF420DA6E000EDF6E000EF36F000E3F
:100E6800F26F4850160DCC0EF324D96E080EF420FC
:100E7800DA6EDF50E96FEA6B4850160DD30EF32493
:100E8800D96E080EF420DA6EDF50EB6FEC6B485029
:100E9800160DD40EF324D96E080EF420DA6EDF5046
:100EA800ED6FED51EB27000EEC23E951EB5DEC51B2
:100EB800800AEE6FEA51800AEE59D8A066EF07F073
:100EC80068EF07F0A8EF07F04850160DDC0EF32482
:100ED800D96E080EF420DA6E000EDF6E090E486037
:100EE80078EF07F07AEF07F082EF07F0300E000195
:100EF800846F4850310F856F98EF07F0080E4864EB
:100F080088EF07F08AEF07F098EF07F00C0E4860BB
:100F180090EF07F092EF07F098EF07F0310E00011D
:100F2800846F4850270F856F000E496E5D0E276E3F
:100F3800F90E286E980E296E000E2A6E020E2B6E80
:100F480013EC12F0CDEF07F04850160DDC0EF32429
:100F5800D96E080EF420DA6E010EDF6ECDEF07F0C1
:100F6800F151E96FEA6BEA51000AD8B4BEEF07F015
:100F7800CDEF07F0E951010AD8B4F7EF06F0030AFC
:100F8800D8B407EF07F0010AD8B413EF07F0CDEF94
:100F980007F0492A020E0501F165D5EF07F0D7EFF2
:100FA80007F084EF06F04850160DDC0EF324D96ED6
:100FB800080EF420DA6EDF50D8B4E5EF07F0E7EF5B
:100FC80007F012EF12F0000E106E640E0F6E8DEC2B
:100FD80055F04850020D710EF324F66EF30EF4200E
:100FE800F76E0900F5CF17F00A00F5CF18F0485052
:100FF800160DC80EF324196E080EF4201A6E4FEC65
:101008004DF0000E106E640E0F6E8DEC55F0090E4B
:10101800486011EF08F013EF08F01BEF08F0300EEE
:101028000001846F4850310F856F31EF08F0080ECA
:10103800486421EF08F023EF08F031EF08F00C0EB8
:10104800486029EF08F02BEF08F031EF08F0310E77
:101058000001846F4850270F856F000E496E800E7F
:10106800276EFC0E286E980E296E000E2A6E020E50
:101078002B6E13EC12F012EF12F0000E0F6E040E2E
:10108800106ED60E116E020E126E000E146E070E42
:10109800136EB5EC51F00F501010D8A456EF08F0AD
:1010A80058EF08F0F4EF08F0070EF7EC3EF0486E42
:1010B8004850160DDA0EF324D96E080EF420DA6EB5
:1010C800DE04D8A46AEF08F06CEF08F080EF08F0AF
:1010D8004850160DD70EF324D96E080EF420DA6E98
:1010E800030EDE18D8B47BEF08F07DEF08F080EF30
:1010F80008F0010E00017D6F4850160DDC0EF32438
:10110800D96E080EF420DA6EDE04D8A48EEF08F04B
:1011180090EF08F0FAEF01F04850160DDC0EF324BA
:10112800D96E080EF420DA6E000EDF6E000E106E17
:10113800640E0F6E8DEC55F04850020D710EF324BD
:10114800F66EF30EF420F76E0900F5CF17F00A00DB
:10115800F5CF18F04850160DC80EF324196E080E76
:10116800F4201A6E4FEC4DF0000E106E640E0F6EE8
:101178008DEC55F0090E4860C4EF08F0C6EF08F092
:10118800CEEF08F0300E0001846F4850310F856FA4
:10119800E4EF08F0080E4864D4EF08F0D6EF08F042
:1011A800E4EF08F00C0E4860DCEF08F0DEEF08F022
:1011B800E4EF08F0310E0001846F4850270F856F67
:1011C800000E496E190E276EFC0E286E980E296EB9
:1011D800000E2A6E020E2B6E13EC12F012EF12F0B4
:1011E800000E0F6E040E106EE50E116E020E126EDA
:1011F800000E146E060E136EB5EC51F00F50101061
:10120800D8A409EF09F00BEF09F0EFEF09F0000E91
:101218000501F36F000EF26F000EF16F060E496EB6
:10122800000E4924D96EDA6A040EDA22DF5033EC54
:101238005CF00009D8B423EF09F025EF09F083EF3B
:1012480009F0010E4924D96EDA6A040EDA22200E5A
:10125800DE18D8A432EF09F034EF09F054EF09F0A2
:10126800000E4924D96EDA6A040EDA22000E4924E7
:10127800E16EE26A040EE222E750D00FDF6E000E44
:101288004924D96EDA6A040EDA22DF500501E96FC3
:10129800E951F225F26F000EF321F36FC7EF09F061
:1012A800000E4924D96EDA6A040EDA22000E4924A7
:1012B800E16EE26A040EE222E750D00FDF6E000E04
:1012C8004924D96EDA6A040EDA22DF500A0D000EBC
:1012D8004924D96EDA6A040EDA22F3CFDFFFF2C5A9
:1012E8000FF0F3C510F0000E126E0A0E116E5DECD1
:1012F8005CF00FC0F2F510C0F3F543EF09F00501FB
:10130800F12BA6EF09F0F2C56DF0000EF36F000E99
:10131800F26FC7EF09F0F2C56CF089EF09F0F2C57A
:101328006BF089EF09F0F2C53AF089EF09F0F2C5E0
:101338006AF0000EF36F000EF26F010E0001776F76
:10134800C7EF09F0F151E96FEA6BEA51000AD8B426
:10135800B0EF09F0C7EF09F0E951010AD8B487EFF7
:1013680009F0030AD8B48FEF09F0010AD8B493EF53
:1013780009F0070AD8B497EF09F0010AD8B49BEF2F
:1013880009F0C7EF09F0492A040E0501F165CFEF0E
:1013980009F0D1EF09F014EF09F0000E106E640E99
:1013A8000F6E8DEC55F0B2EC4CF0000E106E640E22
:1013B8000F6E8DEC55F0000E496ED80E276EFD0E9F
:1013C800286E980E296E000E2A6E000E2B6E13ECF6
:1013D80012F012EF12F0000E0F6E040E106ECE0E09
:1013E800116E020E126E000E146E070E136EB5EC1F
:1013F80051F00F501010D8A404EF0AF006EF0AF0CD
:1014080027EF0AF0000E0001776F000E106E640ED1
:101418000F6E8DEC55F0B2EC4CF0000E106E640EB1
:101428000F6E8DEC55F0000E496E850E276EFD0E81
:10143800286E980E296E000E2A6E000E2B6E13EC85
:1014480012F012EF12F0000E0F6E040E106EDA0E8C
:10145800116E010E126E000E146E050E136EB5ECB1
:1014680051F00F501010D8A43CEF0AF03EEF0AF0EC
:1014780067EF0AF000017751D8B445EF0AF047EF5B
:101488000AF057EF0AF0000E496EBD0E276EFD0EEA
:10149800286E980E296E000E2A6E080E2B6E13EC1D
:1014A80012F012EF12F0000E496E260E276EFD0E96
:1014B800286E980E296E000E2A6E000E2B6E13EC05
:1014C80012F012EF12F0000E0F6E040E106EE00E06
:1014D800116E010E126E000E146E040E136EB5EC32
:1014E80051F00F501010D8A47CEF0AF07EEF0AF0EC
:1014F80058EF0BF0000E0501F36F000EF26F000EAF
:10150800F16F050E496E000E4924D96EDA6A040E91
:10151800DA22DF5033EC5CF00009D8B496EF0AF019
:1015280098EF0AF023EF0BF0000E4924D96EDA6A1F
:10153800040EDA22000E4924E16EE26A040EE22269
:10154800E750D00FDF6E000E4924D96EDA6A040E18
:10155800DA22DF500501E96FE951F26FF36BF2C54A
:101568000FF0F3C510F0000E126E0A0E116E5DEC4E
:101578005CF00FC0F2F510C0F3F5010E4924D96EE6
:10158800DA6A040EDA22010E4924E16EE26A040ED8
:10159800E222E750D00FDF6E010E4924D96EDA6AD5
:1015A800040EDA22DF500501E96FE951F225F26FE6
:1015B800000EF321F36FF12BFEEF0AF0F2C540F0B5
:1015C800000EF36F000EF26F33EF0BF0F2C541F02F
:1015D800E4EF0AF0F2C542F0E4EF0AF0F2C53FF09A
:1015E800E4EF0AF0F2C53EF0E4EF0AF0F2C53DF090
:1015F800E4EF0AF0F151E96FEA6BEA51000AD8B456
:1016080008EF0BF033EF0BF0E951010AD8B4E2EF21
:101618000AF0030AD8B4EAEF0AF0010AD8B4EEEFE8
:101628000AF0070AD8B4F2EF0AF0010AD8B4F6EFC4
:101638000AF0030AD8B4FAEF0AF033EF0BF0000E01
:10164800496EA20E276EFD0E286E980E296E000EAA
:101658002A6E000E2B6E13EC12F012EF12F0030E2E
:101668004926050EF1653BEF0BF03DEF0BF087EFD8
:101678000AF0060EF119D8A444EF0BF046EF0BF070
:1016880048EF0BF045EC55F0000E496EE70E276E5B
:10169800FA0E286E980E296E000E2A6E000E2B6E1A
:1016A80013EC12F012EF12F0000E0F6E040E106E13
:1016B800E50E116E010E126E000E146E040E136EFE
:1016C800B5EC51F00F501010D8A46DEF0BF06FEF80
:1016D8000BF027EF0CF0D6EC52F040C00FF0106A78
:1016E800000E126E0A0E116E1CEC52F00F50300FE5
:1016F8000001846F40C021F0226A000E246E0A0E99
:10170800236E7EEC52F02150300F0001856F2F0EB2
:10171800866F41C00FF0106A000E126E0A0E116E2D
:101728001CEC52F00F50300F0001876F41C021F0C0
:10173800226A000E246E0A0E236E7EEC52F02150AF
:10174800300F0001886F2F0E896F42C00FF0106AAA
:10175800000E126E0A0E116E1CEC52F00F50300F74
:1017680000018A6F42C021F0226A000E246E0A0E20
:10177800236E7EEC52F02150300F00018B6F200E4B
:101788008C6F3FC00FF0106A000E126E0A0E116EB9
:101798001CEC52F00F50300F00018D6F3FC021F04C
:1017A800226A000E246E0A0E236E7EEC52F021503F
:1017B800300F00018E6F3A0E8F6F3EC00FF0106A27
:1017C800000E126E0A0E116E1CEC52F00F50300F04
:1017D8000001906F3EC021F0226A000E246E0A0EAE
:1017E800236E7EEC52F02150300F0001916F3A0EBB
:1017F800926F3DC00FF0106A000E126E0A0E116E45
:101808001CEC52F00F50300F0001936F3DC021F0D7
:10181800226A000E246E0A0E236E7EEC52F02150CE
:10182800300F0001946F000E496E6A0E276EFE0E8F
:10183800286E980E296E000E2A6E030E2B6E13EC7E
:1018480012F012EF12F0000E0F6E040E106EC60E9C
:10185800116E020E126E000E146E070E136EB5ECAA
:1018680051F00F501010D8A43CEF0CF03EEF0CF0E4
:1018780096EF0CF0070EF7EC3EF0486E090E486044
:1018880048EF0CF04AEF0CF052EF0CF0300E00016C
:10189800846F4850310F856F68EF0CF0080E48646C
:1018A80058EF0CF05AEF0CF068EF0CF00C0E486093
:1018B80060EF0CF062EF0CF068EF0CF0310E0001F5
:1018C800846F4850270F856F000E496E4850160DDB
:1018D800DB0EF324D96E080EF420DA6EDF50D8B48C
:1018E80078EF0CF07AEF0CF088EF0CF0790E276E99
:1018F800FE0E286E980E296E000E2A6E070E2B6EAD
:1019080013EC12F012EF12F0610E276EFB0E286E28
:10191800980E296E000E2A6E020E2B6E13EC12F032
:1019280012EF12F0000E0F6E040E106EF90E116E0B
:10193800000E126E000E146E020E136EB5EC51F00E
:101948000F501010D8A4ABEF0CF0ADEF0CF08CEFEB
:101958000DF08EAEB2EF0CF0B4EF0CF0C4EF0CF05B
:10196800000E496EFA0E276EF90E286E980E296E33
:10197800000E2A6E000E2B6E13EC12F012EF12F00E
:10198800000E0501F36F000EF26F000EF16F010EED
:10199800F16F030E496E000E4924D96EDA6A040EFF
:1019A800DA22DF5033EC5CF00009D8B4DEEF0CF03B
:1019B800E0EF0CF04EEF0DF0010E4924D96EDA6A13
:1019C800040EDA22200EDE18D8A4EDEF0CF0EFEFAB
:1019D8000CF00FEF0DF0000E4924D96EDA6A040EF0
:1019E800DA22000E4924E16EE26A040EE222E75090
:1019F800D00FDF6E000E4924D96EDA6A040EDA229F
:101A0800DF500501E96FE951F225F26F000EF3216D
:101A1800F36F65EF0DF0000E4924D96EDA6A040EF3
:101A2800DA22000E4924E16EE26A040EE222E7504F
:101A3800D00FDF6E000E4924D96EDA6A040EDA225E
:101A4800DF500A0D000E4924D96EDA6A040EDA2234
:101A5800F3CFDFFFF2C50FF0F3C510F0000E126EE2
:101A68000A0E116E5DEC5CF00FC0F2F510C0F3F5D4
:101A7800FEEF0CF0F2C568F0F3C569F0000EF36FE5
:101A8800000EF26F64EF0DF0F2C566F0F3C567F073
:101A980042EF0DF00501F151E96FEA6BEA51000AD6
:101AA800D8B459EF0DF064EF0DF0E951010AD8B43C
:101AB8003EEF0DF0030AD8B448EF0DF064EF0DF0D7
:101AC800F12B492A020EF1656CEF0DF06EEF0DF067
:101AD800CFEF0CF0000E106E640E0F6E8DEC55F00B
:101AE800D6EC50F0000E106E640E0F6E8DEC55F0B3
:101AF800000E496EF60E276EFB0E286E980E296EA4
:101B0800000E2A6E000E2B6E13EC12F012EF12F07C
:101B1800000E0F6E040E106ED40E116E010E126EB2
:101B2800000E146E050E136EB5EC51F00F50101028
:101B3800D8A4A1EF0DF0A3EF0DF0B3EF0DF0000E58
:101B4800496E8A0E276EFA0E286E980E296E000EC0
:101B58002A6E050E2B6E13EC12F012EF12F0000E27
:101B68000F6E040E106EBE0E116E020E126E000E77
:101B7800146E070E136EB5EC51F00F501010D8A468
:101B8800C8EF0DF0CAEF0DF025EF0EF0070EF7ECD9
:101B98003EF0486E000E106E640E0F6E8DEC55F020
:101BA8004850C1EC2AF0090E4860DDEF0DF0DFEF78
:101BB8000DF0E7EF0DF0300E0001846F4850310F43
:101BC800856FFDEF0DF0080E4864EDEF0DF0EFEFB7
:101BD8000DF0FDEF0DF00C0E4860F5EF0DF0F7EF8E
:101BE8000DF0FDEF0DF0310E0001846F4850270F06
:101BF800856F4E50D8B403EF0EF005EF0EF015EFD9
:101C08000EF0000E4E6E390E276EFB0E286E980EE3
:101C1800296E000E2A6E020E2B6E13EC12F012EFD4
:101C280012F0000E496EB90E276EFA0E286E980E45
:101C3800296E000E2A6E060E2B6E13EC12F012EFB0
:101C480012F0000E0F6E040E106EF80E116E010EDB
:101C5800126E000E146E030E136EB5EC51F00F5099
:101C68001010D8A43AEF0EF03CEF0EF09BEF0EF0F8
:101C7800030EF7EC3EF0486E000E106E640E0F6E09
:101C88008DEC55F08EAE4BEF0EF04DEF0EF04FEFA2
:101C98000EF0B4EF0CF0090E486055EF0EF057EF58
:101CA8000EF05FEF0EF0300E0001846F4850310FD8
:101CB800856F75EF0EF0080E486465EF0EF067EF5C
:101CC8000EF075EF0EF00C0E48606DEF0EF06FEF32
:101CD8000EF075EF0EF0310E0001846F4850270F9B
:101CE800856F130E106E880E0F6E8DEC55F048C080
:101CF80017F0020EFDEC38F0030E106EE80E0F6EB2
:101D08008DEC55F048C017F0010EFDEC38F0030ECD
:101D1800106EE80E0F6E8DEC55F0D6EC50F0030EF9
:101D2800106EE80E0F6E8DEC55F0A3EF0DF0000E5F
:101D38000F6E040E106EDE0E116E020E126E000E85
:101D4800146E060E136EB5EC51F00F501010D8A497
:101D5800B0EF0EF0B2EF0EF0FAEF01F0000E050151
:101D6800F36F000EF26F000EF16F070E496E000E52
:101D78004924D96EDA6A040EDA22DF5033EC5CF0BB
:101D88000009D8B4CAEF0EF0CCEF0EF041EF0FF017
:101D9800000E4924D96EDA6A040EDA22000E4924AC
:101DA800E16EE26A040EE222E750D00FDF6E000E09
:101DB8004924D96EDA6A040EDA22DF500501E96F88
:101DC800E951F26FF36BF2C50FF0F3C510F0000E96
:101DD800126E0A0E116E5DEC5CF00FC0F2F510C0C9
:101DE800F3F5010E4924D96EDA6A040EDA22010EDF
:101DF8004924E16EE26A040EE222E750D00FDF6E5A
:101E0800010E4924D96EDA6A040EDA22DF50050180
:101E1800E96FE951F225F26F000EF321F36FF12B10
:101E280028EF0FF0F2C5EFF5000E0501F36F000E75
:101E3800F26F41EF0FF0F2C5F0F518EF0FF0F25125
:101E480083EC32F018EF0FF0F151E96FEA6BEA51C9
:101E5800000AD8B432EF0FF041EF0FF0E951010A50
:101E6800D8B416EF0FF0030AD8B41FEF0FF0010A29
:101E7800D8B423EF0FF041EF0FF0030E4926020EFE
:101E88000501F1654AEF0FF04CEF0FF0BBEF0EF0D4
:101E9800000E486ED1EF10F04850160DCC0EF3240A
:101EA800D96E080EF420DA6E0F0EDF6E4850160D4C
:101EB800CD0EF324D96E080EF420DA6E010EDF6E13
:101EC8004850160DCE0EF324D96E080EF420DA6EA3
:101ED800EFC5DFFF4850160DCF0EF324D96E080E5C
:101EE800F420DA6EF0C5DFFF4850160DD00EF3244B
:101EF800D96E080EF420DA6E38C0DFFF4850160D90
:101F0800D10EF324D96E080EF420DA6E3BC0DFFF41
:101F18004850160DD20EF324D96E080EF420DA6E4E
:101F28003CC0DFFF4850160DC80EF324D96E080ECA
:101F3800F420DA6E640EDE6E000EDD6E4850160D6B
:101F4800CA0EF324D96E080EF420DA6E300EDE6E57
:101F5800750EDD6E4850160DD60EF324D96E080E98
:101F6800F420DA6E4828DF6E4850160DDA0EF32496
:101F7800D96E080EF420DA6E000EDF6E4850160D8A
:101F8800D80EF324D96E080EF420DA6E020EDF6E36
:101F98004850160DD90EF324D96E080EF420DA6EC7
:101FA800020EDF6E4850160DDB0EF324D96E080EB4
:101FB800F420DA6E010EDF6E4850160DD30EF324AE
:101FC800D96E080EF420DA6E050EDF6E4850160D35
:101FD800D40EF324D96E080EF420DA6E0F0EDF6EDD
:101FE8004850160DD50EF324D96E080EF420DA6E7B
:101FF8004828DF6E4850160DD70EF324D96E080E08
:10200800F420DA6E000EDF6E4850160DDD0EF32454
:10201800D96E080EF420DA6E000EDF6E4850160DE9
:10202800DC0EF324D96E080EF420DA6E010EDF6E92
:102038004850020D710EF324F66EF30EF420F76E7D
:102048000900F5CF17F00A00F5CF18F04850160D23
:10205800C80EF324196E080EF4201A6E5CEC44F0D6
:10206800000E106E640E0F6E8DEC55F04850020D88
:10207800710EF324F66EF30EF420F76E0900F5CF17
:1020880017F00A00F5CF18F04850160DC80EF324C3
:10209800196E080EF4201A6EFCEC54F0000E106E47
:1020A800640E0F6E8DEC55F04850020D710EF3243E
:1020B800F66EF30EF420F76E0900F5CF17F00A005C
:1020C800F5CF18F04850160DC80EF324196E080EF7
:1020D800F4201A6E4AEC5BF0000E106E640E0F6E60
:1020E8008DEC55F04850020D710EF324F66EF30E88
:1020F800F420F76E0900F5CF17F00A00F5CF18F0B5
:102108004850160DC80EF324196E080EF4201A6EE6
:102118002DEC5BF0000E106E640E0F6E8DEC55F01A
:102128004850020D710EF324F66EF30EF420F76E8C
:102138000900F5CF17F00A00F5CF18F04850160D32
:10214800C80EF324196E080EF4201A6E10EC5BF01A
:10215800000E106E640E0F6E8DEC55F04850020D97
:10216800710EF324F66EF30EF420F76E0900F5CF26
:1021780017F00A00F5CF18F04850160DC80EF324D2
:10218800196E080EF4201A6E4FEC4DF0000E106E0A
:10219800640E0F6E8DEC55F0482A0B0E4864D7EF8D
:1021A80010F0D9EF10F050EF0FF0000E496E370E17
:1021B800276EFE0E286E980E296E000E2A6E000EEF
:1021C8002B6E13EC12F012EF12F0000E0F6E040ECD
:1021D800106EFC0E116E000E126E000E146E020EC2
:1021E800136EB5EC51F00F501010D8A4FEEF10F09C
:1021F80000EF11F0A5EF11F0030E0F6E040E106E34
:10220800AA0E116E000E126E000E146E060E136EDC
:10221800B5EC51F00F501010D8A415EF11F017EFCE
:1022280011F087EF11F05050D8B41DEF11F01FEFE7
:1022380011F02DEF11F0000E496E950E276EF90E74
:10224800286E980E296E000E2A6E010E2B6E13EC66
:1022580012F0AA0E0F6E000E106E0A0E116E040E0A
:10226800126E000E146E060E136E15EC56F0980ED4
:102278000F6E000E106E840E116E000E126E000EA0
:10228800146E0A0E136E15EC56F0010E506E840E85
:102298000F6E000E106EF30E116E020E126E000E0F
:1022A800146E0A0E136E15EC56F0000E106E320EF8
:1022B8000F6E8DEC55F0ABEC57F0000E106E320E31
:1022C8000F6E8DEC55F0E1EC57F0000E106E320EEB
:1022D8000F6E8DEC55F09DEC5BF0000E106E320E1B
:1022E8000F6E8DEC55F0000E496E0A0E276EFE0E2D
:1022F800286E980E296E000E2A6E000E2B6E13ECB7
:1023080012F012EF12F0000E496EF30E276EFD0E5A
:10231800286E840E296E000E2A6E000E2B6E13ECAA
:1023280012F0840E0F6E000E106EF30E116E020E78
:10233800126E000E146E0A0E136E15EC56F012EFA4
:1023480012F0000E0F6E040E106EEF0E116E010EDD
:10235800126E000E146E040E136EB5EC51F00F5091
:102368001010D8A4BAEF11F0BCEF11F0CCEF11F0B7
:10237800000E496E210E276EFE0E286E840E296E01
:10238800000E2A6E000E2B6E13EC12F095EF11F072
:10239800000E0F6E040E106EDD0E116E050E126E1D
:1023A800000E146E0B0E136EB5EC51F00F5010109A
:1023B800D8A4E1EF11F0E3EF11F0F3EF11F0000E04
:1023C800496E5B0E276EFE0E286E840E296E000E77
:1023D8002A6E040E2B6E13EC12F095EF11F0000E1E
:1023E8000F6E060EE1EC5CF0F2EF01F0B8EC5BF07A
:1023F800000E0F6E070EE1EC5CF0030E106EE80E97
:102408000F6E8DEC55F012EF12F0B8EC5BF0000E89
:102418000F6E080EE1EC5CF0F2EF01F012001E0EF8
:102428000001736F8B0E176EFF0E186EB3EC5AF027
:10243800000E106E320E0F6E8DEC55F029C017F09D
:102448002AC018F00A0E196EF2EC5AF0000E106E3F
:10245800320E0F6E8DEC55F0F70E176EFE0E186EDD
:10246800B3EC5AF0000E106E640E0F6E8DEC55F042
:1024780027C017F028C018F0B3EC5AF0000E106E01
:10248800640E0F6E8DEC55F001EF1BF0840E176E85
:10249800000E186E0A0E196EF2EC5AF0000E106E4D
:1024A800640E0F6E8DEC55F02EEF1BF0840E176E38
:1024B800000E186E020E196EF2EC5AF052EF12F07E
:1024C800840E176E000E186E110E196EF2EC5AF08B
:1024D80052EF12F0A30E176E000E186E060E196E4C
:1024E800F2EC5AF052EF12F068C034F069C035F0DF
:1024F80034C00FF035C010F0030E126EE80E116EE6
:10250800CEEC56F00F50300F0001926F34C00FF030
:1025180035C010F0030E126EE80E116E81EC58F003
:102528000FC034F010C035F034C00FF035C010F0D3
:10253800000E126E640E116ECEEC56F00F50300F76
:102548000001936F34C00FF035C010F0000E126E0A
:10255800640E116E81EC58F00FC034F010C035F0E5
:1025680034C00FF035C010F0000E126E0A0E116E56
:10257800CEEC56F00F50300F0001946F34C00FF0BE
:1025880035C010F0000E126E0A0E116E81EC58F074
:102598000FC034F010C035F03450300F0001956F83
:1025A800920E176E000E186E040E196EF2EC5AF0A9
:1025B800000E106E320E0F6E8DEC55F0DF0E176E9A
:1025C800FF0E186EB3EC5AF0000E106E320E0F6E3E
:1025D8008DEC55F066C034F067C035F034C00FF0AC
:1025E80035C010F0030E126EE80E116ECEEC56F0E8
:1025F8000F50300F0001926F34C00FF035C010F04B
:10260800030E126EE80E116E81EC58F00FC034F014
:1026180010C035F034C00FF035C010F0000E126E47
:10262800640E116ECEEC56F00F50300F0001936F10
:1026380034C00FF035C010F0000E126E640E116E2B
:1026480081EC58F00FC034F010C035F034C00FF0F2
:1026580035C010F0000E126E0A0E116ECEEC56F058
:102668000F50300F0001946F34C00FF035C010F0D8
:10267800000E126E0A0E116E81EC58F00FC034F085
:1026880010C035F03450300F0001956F920E176E60
:10269800000E186E040E196EF2EC5AF052EF12F09A
:1026A800840E176E000E186E020E196EF2EC5AF0B8
:1026B800000E106E320E0F6E8DEC55F0F70E176E81
:1026C800FF0E186EB3EC5AF0000E106E320E0F6E3D
:1026D8008DEC55F060C034F061C035F034C00FF0B7
:1026E80035C010F0270E126E100E116ECEEC56F09B
:1026F8000F50300F0001926F34C00FF035C010F04A
:10270800270E126E100E116E81EC58F00FC034F0C7
:1027180010C035F034C00FF035C010F0030E126E43
:10272800E80E116ECEEC56F00F50300F0001936F8B
:1027380034C00FF035C010F0030E126EE80E116EA3
:1027480081EC58F00FC034F010C035F034C00FF0F1
:1027580035C010F0000E126E640E116ECEEC56F0FD
:102768000F50300F0001946F34C00FF035C010F0D7
:10277800000E126E640E116E81EC58F00FC034F02A
:1027880010C035F034C00FF035C010F0000E126ED6
:102798000A0E116ECEEC56F00F50300F0001956FF7
:1027A80034C00FF035C010F0000E126E0A0E116E14
:1027B80081EC58F00FC034F010C035F03450300FB1
:1027C8000001966F920E176E000E186E050E196EA8
:1027D800F2EC5AF052EF12F0000E106E0A0E0F6E65
:1027E8008DEC55F0840E176E000E186E020E196EE1
:1027F800F2EC5AF0000E106E0A0E0F6E8DEC55F0CA
:10280800C20E176EFF0E186EB3EC5AF0000E106E63
:102818000A0E0F6E8DEC55F04850160DCC0EF324B1
:10282800D96E080EF420DA6EDF500001856F85C07E
:102838000FF0106A000E126E640E116E1CEC52F04E
:102848000F50300F0001846F840E176E000E186E43
:10285800010E196EF2EC5AF0000E106E0A0E0F6E91
:102868008DEC55F085C021F0226A000E246E640EAE
:10287800236E7EEC52F021500001856F85C00FF069
:10288800106A000E126E0A0E116E1CEC52F00F50F8
:10289800300F0001846F840E176E000E186E010E43
:1028A800196EF2EC5AF0000E106E0A0E0F6E8DECD7
:1028B80055F085C021F0226A000E246E0A0E236EA0
:1028C8007EEC52F021500001856F8551300F846FE6
:1028D800840E176E000E186E010E196EF2EC5AF087
:1028E800000E106E0A0E0F6E8DEC55F0B00E176EBE
:1028F800FF0E186EB3EC5AF0000E106E0A0E0F6E33
:102908008DEC55F04850160DCD0EF324D96E080EF7
:10291800F420DA6EDF500001856F85C021F0226A4D
:10292800000E246E640E236E7EEC52F021500001DE
:10293800856F85C00FF0106A000E126E0A0E116EB8
:102948001CEC52F00F50300F0001846F840E176E8C
:10295800000E186E010E196EF2EC5AF0000E106E91
:102968000A0E0F6E8DEC55F085C021F0226A000E1C
:10297800246E0A0E236E7EEC52F021500001856F02
:102988008551300F846F840E176E000E186E010E7D
:10299800196EF2EC5AF0000E106E0A0E0F6E8DECE6
:1029A80055F0F10E176EFF0E186EB3EC5AF0000ECC
:1029B800106E0A0E0F6E8DEC55F04850160DC80EAD
:1029C800F324D96E080EF420DA6EDECF34F0DDCFB2
:1029D80035F034C00FF035C010F0000E126E640EE2
:1029E800116ECEEC56F00F50300F0001846F840E3C
:1029F800176E000E186E010E196EF2EC5AF0000EEA
:102A0800106E0A0E0F6E8DEC55F034C00FF035C005
:102A180010F0000E126E640E116E81EC58F00FC0AB
:102A280034F010C035F034C00FF035C010F0000E8F
:102A3800126E0A0E116ECEEC56F00F50300F0001D8
:102A4800846F840E176E000E186E010E196EF2EC6C
:102A58005AF0000E106E0A0E0F6E8DEC55F034C051
:102A68000FF035C010F0000E126E0A0E116E81ECD8
:102A780058F00FC034F010C035F03450300F00015A
:102A8800846F840E176E000E186E010E196EF2EC2C
:102A98005AF0000E106E0A0E0F6E8DEC55F0EB0E0C
:102AA800176EFF0E186EB3EC5AF0000E106E0A0E79
:102AB8000F6E8DEC55F04850160DCA0EF324D96EE2
:102AC800080EF420DA6EDECF34F0DDCF35F034C0F6
:102AD8000FF035C010F0000E126E640E116ECEECC1
:102AE80056F00F50300F0001846F840E176E000EE1
:102AF800186E010E196EF2EC5AF0000E106E0A0EE6
:102B08000F6E8DEC55F034C00FF035C010F0000E8C
:102B1800126E640E116E81EC58F00FC034F010C0C4
:102B280035F034C00FF035C010F0000E126E0A0EEA
:102B3800116ECEEC56F00F50300F0001846F840EEA
:102B4800176E000E186E010E196EF2EC5AF0000E98
:102B5800106E0A0E0F6E8DEC55F034C00FF035C0B4
:102B680010F0000E126E0A0E116E81EC58F00FC0B4
:102B780034F010C035F03450300F0001846F840EEB
:102B8800176E000E186E010E196EF2EC5AF0000E58
:102B9800106E0A0E0F6E8DEC55F0750E176EFF0E47
:102BA800186EB3EC5AF0000E106E0A0E0F6E8DEC14
:102BB80055F04850160DD00EF324D96E080EF420A7
:102BC800DA6EDF500001856F85C021F0226A000EA1
:102BD800246E640E236E7EEC52F021500001856F46
:102BE80085C00FF0106A000E126E0A0E116E1CECF2
:102BF80052F00F50300F0001846F840E176E000ED4
:102C0800186E010E196EF2EC5AF0000E106E0A0ED4
:102C18000F6E8DEC55F085C021F0226A000E246EEF
:102C28000A0E236E7EEC52F021500001856F85510B
:102C3800300F846F840E176E000E186E010E196E19
:102C4800F2EC5AF0000E106E0A0E0F6E8DEC55F075
:102C58004850160DD10EF324D96E080EF420DA6E02
:102C6800DF500001856F85C021F0226A000E246EB6
:102C7800640E236E7EEC52F021500001856F85C0F2
:102C88000FF0106A000E126E0A0E116E1CEC52F054
:102C98000F50300F0001846F840E176E000E186EEF
:102CA800010E196EF2EC5AF0000E106E0A0E0F6E3D
:102CB8008DEC55F085C021F0226A000E246E0A0EB4
:102CC800236E7EEC52F021500001856F8551300F44
:102CD800846F840E176E000E186E010E196EF2ECDA
:102CE8005AF0000E106E0A0E0F6E8DEC55F048501B
:102CF800160DD20EF324D96E080EF420DA6EDF50CA
:102D08000001856F85C021F0226A000E246E640ED2
:102D1800236E7EEC52F021500001856F85C00FF0C4
:102D2800106A000E126E0A0E116E1CEC52F00F5053
:102D3800300F0001846F840E176E000E186E010E9E
:102D4800196EF2EC5AF0000E106E0A0E0F6E8DEC32
:102D580055F085C021F0226A000E246E0A0E236EFB
:102D68007EEC52F021500001856F8551300F846F41
:102D7800840E176E000E186E010E196EF2EC5AF0E2
:102D8800000E106E0A0E0F6E8DEC55F0FC0E176ECD
:102D9800FF0E186EB3EC5AF0000E106E0A0E0F6E8E
:102DA8008DEC55F04850160DCE0EF324D96E080E52
:102DB800F420DA6EDF500001856F85C021F0226AA9
:102DC800000E246E640E236E7EEC52F0215000013A
:102DD800856F85C00FF0106A000E126E0A0E116E14
:102DE8001CEC52F00F50300F0001846F840E176EE8
:102DF800000E186E010E196EF2EC5AF0000E106EED
:102E08000A0E0F6E8DEC55F085C021F0226A000E77
:102E1800246E0A0E236E7EEC52F021500001856F5D
:102E28008551300F846F840E176E000E186E010ED8
:102E3800196EF2EC5AF0000E106E0A0E0F6E8DEC41
:102E480055F0B70E176EFF0E186EB3EC5AF0000E61
:102E5800106E0A0E0F6E8DEC55F04850160DCF0E01
:102E6800F324D96E080EF420DA6EDF500001856F66
:102E780085C021F0226A000E246E640E236E7EEC5B
:102E880052F021500001856F85C00FF0106A000EC6
:102E9800126E0A0E116E1CEC52F00F50300F00012A
:102EA800846F840E176E000E186E010E196EF2EC08
:102EB8005AF0000E106E0A0E0F6E8DEC55F085C09C
:102EC80021F0226A000E246E0A0E236E7EEC52F068
:102ED80021500001856F8551300F846F840E176E65
:102EE800000E186E010E196EF2EC5AF0000E106EFC
:102EF8000A0E0F6E8DEC55F0F80E176EFE0E186E5A
:102F0800B3EC5AF04850160DDC0EF324D96E080EB7
:102F1800F420DA6EDF50D8B494EF17F096EF17F07C
:102F280000EF19F0880E176EFE0E186EB3EC5AF00B
:102F3800000E106E0A0E0F6E8DEC55F04850160DEF
:102F4800D30EF324D96E080EF420DA6EDF50000198
:102F5800856F85C00FF0106A000E126E640E116E38
:102F68001CEC52F00F50300F0001846F840E176E66
:102F7800000E186E010E196EF2EC5AF0000E106E6B
:102F88000A0E0F6E8DEC55F085C021F0226A000EF6
:102F9800246E640E236E7EEC52F021500001856F82
:102FA80085C00FF0106A000E126E0A0E116E1CEC2E
:102FB80052F00F50300F0001846F840E176E000E10
:102FC800186E010E196EF2EC5AF0000E106E0A0E11
:102FD8000F6E8DEC55F085C021F0226A000E246E2C
:102FE8000A0E236E7EEC52F021500001856F855148
:102FF800300F846F840E176E000E186E010E196E56
:10300800F2EC5AF0000E106E0A0E0F6E8DEC55F0B1
:10301800C20E176EFF0E186EB3EC5AF0000E106E4B
:103028000A0E0F6E8DEC55F04850160DD40EF32491
:10303800D96E080EF420DA6EDF500001856F85C066
:103048000FF0106A000E126E640E116E1CEC52F036
:103058000F50300F0001846F840E176E000E186E2B
:10306800010E196EF2EC5AF0000E106E0A0E0F6E79
:103078008DEC55F085C021F0226A000E246E640E96
:10308800236E7EEC52F021500001856F85C00FF051
:10309800106A000E126E0A0E116E1CEC52F00F50E0
:1030A800300F0001846F840E176E000E186E010E2B
:1030B800196EF2EC5AF0000E106E0A0E0F6E8DECBF
:1030C80055F085C021F0226A000E246E0A0E236E88
:1030D8007EEC52F021500001856F8551300F846FCE
:1030E800840E176E000E186E010E196EF2EC5AF06F
:1030F800000E106E0A0E0F6E8DEC55F0480E176E0E
:10310800FF0E186EB3EC5AF0000E106E0A0E0F6E1A
:103118008DEC55F04850160DD50EF324D96E080ED7
:10312800F420DA6EDF500001856F85C00FF0106A59
:10313800000E126E640E116E1CEC52F00F50300F20
:103148000001846F840E176E000E186E010E196E42
:10315800F2EC5AF0000E106E0A0E0F6E8DEC55F060
:1031680085C021F0226A000E246E640E236E7EEC68
:1031780052F021500001856F85C00FF0106A000ED3
:10318800126E0A0E116E1CEC52F00F50300F000137
:10319800846F840E176E000E186E010E196EF2EC15
:1031A8005AF0000E106E0A0E0F6E8DEC55F085C0A9
:1031B80021F0226A000E246E0A0E236E7EEC52F075
:1031C80021500001856F8551300F846F840E176E72
:1031D800000E186E010E196EF2EC5AF0000E106E09
:1031E8000A0E0F6E8DEC55F0F80E176EFE0E186E67
:1031F800B3EC5AF02EEF1BF0A80E176EFE0E186EE9
:10320800B3EC5AF0000E106E0A0E0F6E8DEC55F0EE
:103218002EEF1BF0000E106E0A0E0F6E8DEC55F09F
:103228005F0E176EFF0E186EB3EC5AF0000E106E9C
:103238000A0E0F6E8DEC55F06DC085F085C021F03B
:10324800226A000E246E640E236E7EEC52F021502A
:103258000001856F85C00FF0106A000E126E0A0E0D
:10326800116E1CEC52F00F50300F0001846F840E69
:10327800176E000E186E010E196EF2EC5AF0000E61
:10328800106E0A0E0F6E8DEC55F085C021F0226A83
:10329800000E246E0A0E236E7EEC52F021500001BF
:1032A800856F8551300F846F840E176E000E186E6F
:1032B800010E196EF2EC5AF0000E106E0A0E0F6E27
:1032C8008DEC55F0D80E176EFF0E186EB3EC5AF051
:1032D800000E106E0A0E0F6E8DEC55F09E0E176ED6
:1032E800FF0E186EB3EC5AF0000E106E0A0E0F6E39
:1032F8008DEC55F06CC085F085C021F0226A000E77
:10330800246E640E236E7EEC52F021500001856F0E
:1033180085C00FF0106A000E126E0A0E116E1CECBA
:1033280052F00F50300F0001846F840E176E000E9C
:10333800186E010E196EF2EC5AF0000E106E0A0E9D
:103348000F6E8DEC55F085C021F0226A000E246EB8
:103358000A0E236E7EEC52F021500001856F8551D4
:10336800300F846F840E176E000E186E010E196EE2
:10337800F2EC5AF0000E106E0A0E0F6E8DEC55F03E
:10338800D80E176EFF0E186EB3EC5AF0000E106EC2
:103398000A0E0F6E8DEC55F0A70E176EFF0E186E05
:1033A800B3EC5AF0000E106E0A0E0F6E8DEC55F04D
:1033B8006BC085F085C021F0226A000E246E640E71
:1033C800236E7EEC52F021500001856F85C00FF00E
:1033D800106A000E126E0A0E116E1CEC52F00F509D
:1033E800300F0001846F840E176E000E186E010EE8
:1033F800196EF2EC5AF0000E106E0A0E0F6E8DEC7C
:1034080055F085C021F0226A000E246E0A0E236E44
:103418007EEC52F021500001856F8551300F846F8A
:10342800840E176E000E186E010E196EF2EC5AF02B
:10343800000E106E0A0E0F6E8DEC55F0E50E176E2D
:10344800FF0E186EB3EC5AF0000E106E0A0E0F6ED7
:103458008DEC55F06A0E176EFF0E186EB3EC5AF02D
:10346800000E106E0A0E0F6E8DEC55F03AC085F006
:1034780085C021F0226A000E246E640E236E7EEC55
:1034880052F021500001856F85C00FF0106A000EC0
:10349800126E0A0E116E1CEC52F00F50300F000124
:1034A800846F840E176E000E186E010E196EF2EC02
:1034B8005AF0000E106E0A0E0F6E8DEC55F085C096
:1034C80021F0226A000E246E0A0E236E7EEC52F062
:1034D80021500001856F8551300F846F840E176E5F
:1034E800000E186E010E196EF2EC5AF0000E106EF6
:1034F8000A0E0F6E8DEC55F0D80E176EFF0E186E73
:10350800B3EC5AF0000E106E0A0E0F6E8DEC55F0EB
:10351800D90E176EFE0E186EB3EC5AF0000E106E30
:103528000A0E0F6E8DEC55F06AC085F085C00FF05D
:10353800106A000E126E640E116E1CEC52F00F50E1
:10354800300F0001846F840E176E000E186E010E86
:10355800196EF2EC5AF0000E106E0A0E0F6E8DEC1A
:1035680055F085C021F0226A000E246E640E236E89
:103578007EEC52F021500001856F85C00FF0106A73
:10358800000E126E0A0E116E1CEC52F00F50300F26
:103598000001846F840E176E000E186E010E196EEE
:1035A800F2EC5AF0000E106E0A0E0F6E8DEC55F00C
:1035B80085C021F0226A000E246E0A0E236E7EEC6E
:1035C80052F021500001856F8551300F846F840EB1
:1035D800176E000E186E010E196EF2EC5AF0000EFE
:1035E800106E0A0E0F6E8DEC55F0E50E176EFF0E7D
:1035F800186EB3EC5AF006EF19F02B502C6E2D6AAA
:103608002D50000AD8B40BEF1BF02EEF1BF02C50F6
:10361800010AD8B44AEF12F0030AD8B45AEF12F0EC
:10362800010AD8B464EF12F0070AD8B46EEF12F0AA
:10363800010AD8B478EF12F0030AD8B454EF13F0A3
:10364800010AD8B4F0EF13F00F0AD8B40EEF19F04E
:103658002EEF1BF0000E4D6E000E496E1A0EADECEB
:103668005CF0000E106E640E0F6E8DEC55F0000EBF
:103678000F6E000EE1EC5CF0C9804D50D8B447EFF6
:103688001BF049EF1BF041EF1BF00E013885000ECF
:103698000F6E0F0EE1EC5CF0010E106EF40E0F6E63
:1036A8008DEC55F01200000E0001FF6FD7A25FEFFE
:1036B8001BF061EF1BF08BEF1BF0D7A466EF1BF03C
:1036C80068EF1BF08BEF1BF0D7A66DEF1BF06FEFC9
:1036D8001BF08BEF1BF0D7A074EF1BF076EF1BF0FD
:1036E8008BEF1BF0D7A87BEF1BF07DEF1BF08BEF68
:1036F8001BF0D7BE82EF1BF084EF1BF08BEF1BF0A3
:10370800D7AC89EF1BF08BEF1BF082EF1EF0D7A22E
:1037180090EF1BF092EF1BF099EF1BF0D7B097EFEB
:103728001BF099EF1BF09EEF1BF0D786D784D78844
:10373800D79ED79CD7B2A3EF1BF0A5EF1BF0AAEF3B
:103748001BF0010EFF6FD782EEEF1BF0D7B0AFEF83
:103758001BF0B1EF1BF0B6EF1BF0020EFF6FD78026
:10376800EEEF1BF0D7B6BBEF1BF0BDEF1BF0C2EFBF
:103778001BF0030EFF6FD786EEEF1BF0D7B4C7EF31
:103788001BF0C9EF1BF0CEEF1BF0040EFF6FD784C0
:10379800EEEF1BF0D7B8D3EF1BF0D5EF1BF0DAEF45
:1037A8001BF0050EFF6FD788EEEF1BF0D7BEDFEFDB
:1037B8001BF0E1EF1BF0E8EF1BF0D7ACE6EF1BF0D6
:1037C800E8EF1BF0EEEF1BF0060EFF6FD79ED79CBD
:1037D800EEEF1BF0030EFF19D8B4F5EF1BF0F7EF6F
:1037E8001BF0FDEF1BF0750E106E300E0F6E8DEC9A
:1037F80055F0B0EC48F0030E106EE80E0F6E8DEC2D
:1038080055F003EC3DF0030E106EE80E0F6E8DECD4
:1038180055F013EC4CF0030E106EE80E0F6E8DECA5
:1038280055F073EC4BF0030E106EE80E0F6E8DEC36
:1038380055F000017551D8A424EF1CF026EF1CF0B8
:103848002EEF1CF0010E756F1FEC54F03FEC57F093
:103858000EEC5AF0030E0001FF19D8A436EF1CF045
:1038680038EF1CF080EF1EF0000E486E53EF1CF08E
:10387800010E0F6E000EE1EC5CF0010E106EF40EFE
:103888000F6E8DEC55F0010E0F6E0F0EE1EC5CF033
:10389800010E106EF40E0F6E8DEC55F0482A050ED1
:1038A800486059EF1CF05BEF1CF063EF1CF04750C9
:1038B800D8B461EF1CF063EF1CF03CEF1CF04750EC
:1038C800D8A469EF1CF06BEF1CF04EEF1EF0010E50
:1038D800486E090E486473EF1CF075EF1CF077EF23
:1038E8001CF088EF1CF0472AEDEC59F0010E0F6E22
:1038F8004850E1EC5CF0270E106E100E0F6E8DEC48
:1039080055F0482A6DEF1CF0000E476EEDEC59F0AB
:1039180080EF1EF0000E476EEDEC59F0000E486E79
:10392800040E48649AEF1CF09CEF1CF09EEF1CF00C
:10393800B7EF1CF0010E0F6E0F0EE1EC5CF0010EFC
:10394800106EF40E0F6E8DEC55F0010E0F6E010E19
:10395800E1EC5CF0030E106EE80E0F6E8DEC55F086
:10396800482A94EF1CF0000E176E020EFDEC38F09A
:103978008E9E000E496E8A0E276EFA0E286E980EDD
:10398800296E000E2A6E050E2B6E13EC12F088EFCE
:103998001CF0000E476EEDEC59F0000E486E040E58
:1039A8004864D9EF1CF0DBEF1CF0DDEF1CF0F6EFFC
:1039B8001CF0010E0F6E0F0EE1EC5CF0010E106EA4
:1039C800F40E0F6E8DEC55F0010E0F6E020EE1EC49
:1039D8005CF0030E106EE80E0F6E8DEC55F0482A61
:1039E800D3EF1CF0000E176E010EFDEC38F0BDEFA2
:1039F8001CF0000E476EEDEC59F0000E486E040EF8
:103A0800486409EF1DF00BEF1DF00DEF1DF026EFD8
:103A18001DF0010E0F6E0F0EE1EC5CF0010E106E42
:103A2800F40E0F6E8DEC55F0010E0F6E030EE1ECE7
:103A38005CF0030E106EE80E0F6E8DEC55F0482A00
:103A480003EF1DF086EC40F088EF1CF0000E476E87
:103A5800EDEC59F0000E486E040E486436EF1DF088
:103A680038EF1DF03AEF1DF088EF1CF0010E0F6ED5
:103A78000F0EE1EC5CF0010E106EF40E0F6E8DEC83
:103A880055F0010E0F6E040EE1EC5CF0030E106EA3
:103A9800E80E0F6E8DEC55F0482A30EF1DF0000E41
:103AA800476EEDEC59F0000E486E040E48645FEF67
:103AB8001DF061EF1DF063EF1DF088EF1CF0010EA3
:103AC8000F6E0F0EE1EC5CF0010E106EF40E0F6E2F
:103AD8008DEC55F0010E0F6E050EE1EC5CF0030E57
:103AE800106EE80E0F6E8DEC55F0482A59EF1DF058
:103AF800000E476EEDEC59F0000E486E040E486457
:103B080088EF1DF08AEF1DF08CEF1DF088EF1CF098
:103B1800010E0F6E0F0EE1EC5CF0010E106EF40E4C
:103B28000F6E8DEC55F0010E0F6E060EE1EC5CF099
:103B3800030E106EE80E0F6E8DEC55F0482A82EFDA
:103B48001DF0000E476EEDEC59F05050D8B4AFEFB1
:103B58001DF0B1EF1DF088EF1CF0000E486E040E4A
:103B68004864B9EF1DF0BBEF1DF0BDEF1DF0D6EFB7
:103B78001DF0010E0F6E0F0EE1EC5CF0010E106EE1
:103B8800F40E0F6E8DEC55F0010E0F6E070EE1EC82
:103B98005CF0030E106EE80E0F6E8DEC55F0482A9F
:103BA800B3EF1DF047EC45F00CEC59F0030E106E26
:103BB800E80E0F6E8DEC55F003EC3DF088EF1CF02D
:103BC800000E476EEDEC59F05050D8B4EEEF1DF0F2
:103BD800F0EF1DF088EF1CF0000E486E040E4864EC
:103BE800F8EF1DF0FAEF1DF0FCEF1DF015EF1EF0D9
:103BF800010E0F6E0F0EE1EC5CF0010E106EF40E6C
:103C08000F6E8DEC55F0010E0F6E080EE1EC5CF0B6
:103C1800030E106EE80E0F6E8DEC55F0482AF2EF89
:103C28001DF047EC45F0DAEF1DF0000E476EEDECA5
:103C380059F05050D8B423EF1EF025EF1EF088EF4E
:103C48001CF0000E486E040E48642DEF1EF02FEF96
:103C58001EF031EF1EF04AEF1EF0010E0F6E0F0E30
:103C6800E1EC5CF0010E106EF40E0F6E8DEC55F069
:103C7800010E0F6E090EE1EC5CF0030E106EE80EFB
:103C88000F6E8DEC55F0482A27EF1EF00CEC59F01A
:103C9800DAEF1DF047500201FE6FFF6BFF51000A7B
:103CA800D8B459EF1EF088EF1CF0FE51010AD8B4C1
:103CB8008EEF1CF0030AD8B4CDEF1CF0010AD8B47B
:103CC800FDEF1CF0070AD8B42AEF1DF0010AD8B49A
:103CD80053EF1DF0030AD8B47CEF1DF0010AD8B4E5
:103CE800A5EF1DF00F0AD8B4E4EF1DF0010AD8B40F
:103CF80019EF1EF088EF1CF0E1EC58F05050D8B4E2
:103D080088EF1EF08AEF1EF06FEF21F092EC5AF068
:103D18000009D8B492EF1EF094EF1EF0A9EF1EF040
:103D2800FF0E376EDC0E366E000E276EF80E286E0C
:103D3800980E296E000E2A6E000E2B6E13EC12F0F0
:103D4800010E0001786F93EF21F0000E0001716FF2
:103D5800000E486E05EF20F04850160DDA0EF324D9
:103D6800D96E080EF420DA6EDE04D8A4BEEF1EF079
:103D7800C0EF1EF004EF20F0D6EC52F04850160DBC
:103D8800D20EF324D96E080EF420DA6E4250DE5CAF
:103D9800D8A0D1EF1EF0D3EF1EF06CEF1FF0485003
:103DA800160DD10EF324D96E080EF420DA6E4150A8
:103DB800DE5CD8B0E2EF1EF0E4EF1EF0F5EF1EF087
:103DC8004850160DD20EF324D96E080EF420DA6E80
:103DD8004250DE18D8B4F3EF1EF0F5EF1EF06CEF8A
:103DE8001FF04850160DD00EF324D96E080EF4209B
:103DF800DA6E4050DE5CD8B004EF1FF006EF1FF01B
:103E080028EF1FF04850160DD10EF324D96E080E76
:103E1800F420DA6E4150DE18D8A415EF1FF017EF22
:103E28001FF028EF1FF04850160DD20EF324D96E5C
:103E3800080EF420DA6E4250DE18D8B426EF1FF0D0
:103E480028EF1FF06CEF1FF04850160DCE0EF3242C
:103E5800D96E080EF420DA6E3F50DE5CD8B037EF2A
:103E68001FF039EF1FF0FEEF1FF04850160DD00E6F
:103E7800F324D96E080EF420DA6E4050DE18D8A468
:103E880048EF1FF04AEF1FF0FEEF1FF04850160DE5
:103E9800D10EF324D96E080EF420DA6E4150DE18E4
:103EA800D8A459EF1FF05BEF1FF0FEEF1FF048504A
:103EB800160DD20EF324D96E080EF420DA6E425095
:103EC800DE18D8A46AEF1FF06CEF1FF0FEEF1FF0AA
:103ED800000E4C6E4850160DDA0EF324D96E080EFB
:103EE800F420DA6E000EDF6E4850160DD80EF3245B
:103EF800D96E080EF420DA6E4850160DD90EF32448
:103F0800E16E080EF420E26EDFCFE7FF48C071F0E3
:103F18004850160DDC0EF324D96E080EF420DA6E24
:103F2800DF50D8B49AEF1FF09CEF1FF0F6EF1FF0A8
:103F38004850160DD70EF324D96E080EF420DA6E09
:103F4800020EDE18D8A4ABEF1FF0ADEF1FF0CBEFD9
:103F58001FF04850160DD70EF324D96E080EF42022
:103F6800DA6E000EDF6E4850160DDD0EF324D96EA2
:103F7800080EF420DA6E010EDF6E7BEC53F019C0E8
:103F880064F01AC065F057EC56F0F6EF1FF0485091
:103F9800160DD70EF324D96E080EF420DA6E030E30
:103FA800DE18D8B4DAEF1FF0DCEF1FF0ECEF1FF0EB
:103FB8004850160DD70EF324D96E080EF420DA6E89
:103FC800DE04D8A4EAEF1FF0ECEF1FF0F6EF1FF0C5
:103FD8004850160DD70EF324D96E080EF420DA6E69
:103FE800000EDF6E000E106E640E0F6E8DEC55F035
:103FF8000DEF20F0010E4C6E48C071F00DEF20F06F
:10400800482A0B0E48640BEF20F00DEF20F0B0EFBC
:104018001EF04C50D8B413EF20F015EF20F014EF39
:1040280021F0010E00017C6F090E48601EEF20F0A0
:1040380020EF20F027EF20F0300E846F4850310F2A
:10404800856F92EF20F0080E48642DEF20F02FEFD7
:1040580020F092EF20F00C0E486035EF20F037EF9B
:1040680020F092EF20F0310E846F4850270F856FB3
:1040780092EF20F0CA0E276EF50E286E980E296E64
:10408800000E2A6E020E2B6E13EC12F0B8EF20F021
:10409800650E276EF60E286E980E296E000E2A6E93
:1040A800020E2B6E13EC12F0B8EF20F0180E276EEC
:1040B800F60E286E980E296E000E2A6E020E2B6ED2
:1040C80013EC12F0B8EF20F0780E276EF50E286E7C
:1040D800980E296E000E2A6E020E2B6E13EC12F04B
:1040E800B8EF20F0FA0E276EF60E286E980E296E9D
:1040F800000E2A6E020E2B6E13EC12F0B8EF20F0B1
:10410800B00E276EF60E286E980E296E000E2A6ED7
:10411800020E2B6E13EC12F0B8EF20F0FF510201E3
:10412800FE6FFF6BFF51000AD8B49DEF20F0B8EF87
:1041380020F0FE51010AD8B43EEF20F0030AD8B4AB
:104148004CEF20F0010AD8B45AEF20F0070AD8B48F
:1041580068EF20F0010AD8B476EF20F0030AD8B44B
:1041680084EF20F0B8EF20F07BEC53F019C036F064
:104178001AC037F093EF21F0890E276EFB0E286ED8
:10418800980E296E000E2A6E000E2B6E13EC12F09C
:104198003BEF21F0660E276EFD0E286E980E296EF5
:1041A800000E2A6E000E2B6E13EC12F03BEF21F07E
:1041B800AE0E276EFB0E286E980E296E000E2A6E24
:1041C800000E2B6E13EC12F03BEF21F0100E276E51
:1041D800FB0E286E980E296E000E2A6E000E2B6EAE
:1041E80013EC12F03BEF21F0C30E276EFC0E286E85
:1041F800980E296E000E2A6E000E2B6E13EC12F02C
:104208003BEF21F0A20E276EFC0E286E980E296E49
:10421800000E2A6E000E2B6E13EC12F03BEF21F00D
:104228000001FF510201FE6FFF6BFF51000AD8B475
:1042380020EF21F03BEF21F0FE51010AD8B4C0EF86
:1042480020F0030AD8B4CEEF20F0010AD8B4DCEF8E
:1042580020F0070AD8B4EAEF20F0010AD8B4F8EF42
:1042680020F0030AD8B406EF21F03BEF21F093EFDA
:1042780021F0000E0F6E010EE1EC5CF0AA0E0F6E3D
:10428800000E106EA30E116E000E126E000E146E4C
:10429800060E136E15EC56F0FF0E376EDC0E366EFA
:1042A800DDEC47F04F50D8B45CEF21F05EEF21F021
:1042B8006FEF21F0010E0F6E020EE1EC5CF0010EC3
:1042C800106EF40E0F6E8DEC55F0000E4F6E47EC2D
:1042D80001F0E1EC58F05050D8B475EF21F077EFC9
:1042E80021F03DEF21F092EC5AF00009D8B47FEFAD
:1042F80021F081EF21F093EF21F0FF0E376EDC0EF5
:10430800366E840E276EF70E286E980E296E000EF4
:104318002A6E000E2B6E13EC12F0A4EF1EF075EC53
:1043280057F00009D8B49BEF21F09DEF21F0ABEFD7
:1043380021F0C80E276EF90E286E980E296E000E11
:104348002A6E000E2B6E13EC12F0F7EF21F000012D
:104358007A51D8B4B2EF21F0B4EF21F0F7EF21F0A1
:10436800000E7A6F000E106E640E0F6E8DEC55F015
:104378002FEC5AF0000E106E640E0F6E8DEC55F097
:1043880000017451D8B4CBEF21F0CDEF21F0EBEF61
:1043980021F007EC47F0030E106EE80E0F6E8DEC5F
:1043A80055F045EC55F0030E106EE80E0F6E8DECCF
:1043B80055F0250E276EF90E286E980E296E000E00
:1043C8002A6E000E2B6E13EC12F0F7EF21F0ED0EB3
:1043D800276EF80E286E980E296E000E2A6E000EB3
:1043E8002B6E13EC12F012004C50D8B4FEEF21F0F3
:1043F80000EF22F0D4EF24F036503710D8A407EF9E
:1044080022F009EF22F0D4EF24F000017F51D8A464
:1044180010EF22F012EF22F0D4EF24F04B50D8A482
:1044280018EF22F01AEF22F0D4EF24F07D51D8A42F
:1044380020EF22F022EF22F0D4EF24F0000E326EAB
:10444800CAEF24F03250160DDA0EF324D96E080E96
:10445800F420DA6EDE04D8A434EF22F036EF22F02E
:10446800FAEF22F03250160DDC0EF324D96E080E46
:10447800F420DA6EDF50D8B444EF22F046EF22F091
:10448800FAEF22F03250160DD70EF324D96E080E2B
:10449800F420DA6EDE04D8A454EF22F056EF22F0AE
:1044A800FAEF22F0030E106EE80E0F6E8DEC55F049
:1044B8008E8C3250160DD70EF324D96E080EF420C8
:1044C800DA6E020EDF6E3250160DDD0EF324D96E51
:1044D800080EF420DA6EDF50D8B475EF22F077EFCB
:1044E80022F08DEF22F03250160DDD0EF324D96E36
:1044F800080EF420DA6E000EDF6E29EC53F019C0B6
:1045080064F01AC065F064C036F065C037F09AEF01
:1045180022F03250160DD40EF324D96E080EF42072
:10452800DA6EDF502E6E2E50366E376A000E106E21
:10453800640E0F6E8DEC55F03250020D710EF3249F
:10454800F66EF30EF420F76E0900F5CF17F00A00A7
:10455800F5CF18F03250160DC80EF324196E080E58
:10456800F4201A6EB3EC54F0000E106E640E0F6E49
:104578008DEC55F093EC56F0000E106E640E0F6E35
:104588008DEC55F0090E3260CCEF22F0CEEF22F020
:10459800D6EF22F0300E0001846F3250310F856F54
:1045A800ECEF22F0080E3264DCEF22F0DEEF22F0AE
:1045B800ECEF22F00C0E3260E4EF22F0E6EF22F08E
:1045C800ECEF22F0310E0001846F3250270F856F17
:1045D8005E0E276EFC0E286E980E296E000E2A6E4F
:1045E800020E2B6E13EC12F074EF26F03250160DFB
:1045F800DA0EF324D96E080EF420DA6EDE04D8A49D
:1046080008EF23F00AEF23F0EFEF23F03250160DF6
:10461800DC0EF324D96E080EF420DA6EDF50D8B41D
:1046280018EF23F01AEF23F0EFEF23F03250160DB6
:10463800D70EF324D96E080EF420DA6E020EDE18B7
:10464800D8A429EF23F02BEF23F0EFEF23F0030E8C
:10465800106EE80E0F6E8DEC55F08E9C3250160DD4
:10466800D70EF324D96E080EF420DA6E030EDF6E2F
:104678003250160DD50EF324D96E080EF420DA6EDA
:10468800DF063250160DD50EF324D96E080EF4202D
:10469800DA6EDF50D8A453EF23F055EF23F05FEF25
:1046A80023F03250160DDC0EF324D96E080EF420D8
:1046B800DA6E000EDF6E000E106E640E0F6E8DEC5B
:1046C80055F03250020D710EF324F66EF30EF420FD
:1046D800F76E0900F5CF17F00A00F5CF18F0325041
:1046E800160DC80EF324196E080EF4201A6E4FEC3E
:1046F8004DF0000E106E640E0F6E8DEC55F03250BA
:10470800160DCC0EF324D96E080EF420DA6EDF50A5
:104718002E6E2F6A3250160DD30EF324D96E080E62
:10472800F420DA6EDF50306E30502E5E000E2F5AB5
:104738003250160DD40EF324D96E080EF420DA6E1A
:10474800DF50316E31502E5C366E2F50D8A02F04BA
:10475800376E000E106E640E0F6E8DEC55F093ECF4
:1047680056F0000E106E640E0F6E8DEC55F0090EAB
:104778003260C1EF23F0C3EF23F0CBEF23F0300E0C
:104788000001846F3250310F856FE1EF23F0080E7E
:104798003264D1EF23F0D3EF23F0E1EF23F00C0ED6
:1047A8003260D9EF23F0DBEF23F0E1EF23F0310E95
:1047B8000001846F3250270F856F3C0E276EFC0E68
:1047C800286E980E296E000E2A6E020E2B6E13ECC0
:1047D80012F074EF26F03250160DDA0EF324D96E6B
:1047E800080EF420DA6EDE04D8A4FDEF23F0FFEF04
:1047F80023F0C9EF24F03250160DDA0EF324D96EE7
:10480800080EF420DA6E000EDF6E3250160DD80E48
:10481800F324D96E080EF420DA6E3250160DD90E34
:10482800F324E16E080EF420E26EDE50E618D8A4F8
:1048380020EF24F022EF24F02EEF24F03250160D52
:10484800D90EF324D96E080EF420DA6E010EDF6E4D
:1048580037EF24F03250160DD90EF324D96E080E16
:10486800F420DA6EDF2A000E4C6E010E00017E6F16
:104878003228716F000E106E640E0F6E8DEC55F0BD
:104888003250CBEC59F0000E106E640E0F6E8DECAA
:1048980055F03250020D710EF324F66EF30EF4202B
:1048A800F76E0900F5CF17F00A00F5CF18F032506F
:1048B800160DC80EF324196E080EF4201A6E4AEC71
:1048C8005BF0000E106E640E0F6E8DEC55F03250DA
:1048D800020D710EF324F66EF30EF420F76E090044
:1048E800F5CF17F00A00F5CF18F03250160DC80EA4
:1048F800F324196E080EF4201A6E2DEC5BF0000EEE
:10490800106E640E0F6E8DEC55F03250160DDC0EE5
:10491800F324D96E080EF420DA6EDF50D8B497EF7E
:1049280024F099EF24F074EF26F03250160DD70ECC
:10493800F324D96E080EF420DA6E000EDF6E000E36
:10494800106E640E0F6E8DEC55F03250020D710E24
:10495800F324F66EF30EF420F76E0900F5CF17F086
:104968000A00F5CF18F03250160DC80EF324196E50
:10497800080EF4201A6EB3EC54F0000E106E640E9C
:104988000F6E8DEC55F074EF26F0322A0B0E326460
:10499800D0EF24F0D2EF24F026EF22F074EF26F0C7
:1049A80000017D51D8B4DBEF24F0DDEF24F074EF83
:1049B80026F0000E7D6F000E326E6CEF26F032503E
:1049C800160DDA0EF324D96E080EF420DA6EDE0422
:1049D800D8A4F1EF24F0F3EF24F06BEF26F0325077
:1049E800160DDB0EF324D96E080EF420DA6EDF50B4
:1049F800D8A401EF25F003EF25F0C3EF25F03250DE
:104A0800160DDA0EF324D96E080EF420DA6E000EB5
:104A1800DF6E3250160DD80EF324D96E080EF4202E
:104A2800DA6E3250160DD90EF324E16E080EF4201A
:104A3800E26EDE50E618D8A424EF25F026EF25F024
:104A480032EF25F03250160DD90EF324D96E080E28
:104A5800F420DA6E010EDF6E3BEF25F03250160DB2
:104A6800D90EF324D96E080EF420DA6EDF2A3250FC
:104A7800160DD70EF324D96E080EF420DA6E020E46
:104A8800DE18D8A44AEF25F04CEF25F075EF25F095
:104A98008E9C3250160DD70EF324D96E080EF420D2
:104AA800DA6E000EDF6E3250020D710EF324F66ED0
:104AB800F30EF420F76E0900F5CF17F00A00F5CFD2
:104AC80018F03250160DC80EF324196E080EF42093
:104AD8001A6EB3EC54F0000E106E640E0F6E8DEC6F
:104AE80055F0000E4C6E010E00017E6F3228716F7A
:104AF800000E106E640E0F6E8DEC55F03250CBEC3C
:104B080059F0000E106E640E0F6E8DEC55F0325099
:104B1800020D710EF324F66EF30EF420F76E090001
:104B2800F5CF17F00A00F5CF18F03250160DC80E61
:104B3800F324196E080EF4201A6E4AEC5BF0000E8E
:104B4800106E640E0F6E8DEC55F03250020D710E22
:104B5800F324F66EF30EF420F76E0900F5CF17F084
:104B68000A00F5CF18F03250160DC80EF324196E4E
:104B7800080EF4201A6E2DEC5BF0C1EF24F03250D1
:104B8800160DD70EF324D96E080EF420DA6EDE0463
:104B9800D8A4D1EF25F0D3EF25F0FCEF25F07BEC7E
:104BA80053F019C036F01AC037F03250160DCC0E3B
:104BB800F324D96E080EF420DA6EDF502E6E2F6AB9
:104BC8003250160DD30EF324D96E080EF420DA6E87
:104BD800DF50306E30502E5E000E2F5A36502E2485
:104BE800366E37502F20376E93EC56F0C1EF24F015
:104BF8003250160DD70EF324D96E080EF420DA6E53
:104C0800020EDE18D8A40BEF26F00DEF26F06BEF9E
:104C180026F08E9C3250160DD70EF324D96E080E4E
:104C2800F420DA6E000EDF6E3250020D710EF3249E
:104C3800F66EF30EF420F76E0900F5CF17F00A00B0
:104C4800F5CF18F03250160DC80EF324196E080E61
:104C5800F4201A6EB3EC54F0000E106E640E0F6E52
:104C68008DEC55F07BEC53F019C036F01AC037F0D4
:104C78003250160DCC0EF324D96E080EF420DA6EDD
:104C8800DF502E6E2F6A3250160DD30EF324D96ED4
:104C9800080EF420DA6EDF50306E30502E5E000EB3
:104CA8002F5A3250160DD40EF324D96E080EF42064
:104CB800DA6EDF50316E31502E5E000E2F5A3650AC
:104CC8002E24366E37502F20376EF8EF25F0322A13
:104CD8000B0E326472EF26F074EF26F0E3EF24F047
:104CE8001200010E0501EA6F6E0EE96F010EEC6FFE
:104CF8006D0EEB6F000EEE6F000EED6FFF0E376E50
:104D0800DC0E366E000E0001826F0B0E71658FEFA0
:104D180026F091EF26F093EF26F0000E716F71C028
:104D280048F0F6EF29F04850160DDB0EF324D96E43
:104D3800080EF420DA6EDF50D8B4A5EF26F0A7EFFE
:104D480026F0F5EF29F04850160DDA0EF324D96E47
:104D5800080EF420DA6EDE04D8B4B5EF26F0B7EF0B
:104D680026F0F5EF29F000018251D8A4BEEF26F015
:104D7800C0EF26F0D5EF26F0000E106E640E0F6E11
:104D88008DEC55F0D6EC52F0000E106E640E0F6EDE
:104D98008DEC55F0010E0001826FFF0E376EDC0EB0
:104DA800366E4850160DD20EF324D96E080EF42034
:104DB800DA6E4250DE5CD8A0E4EF26F0E6EF26F08B
:104DC800D4EF27F04850160DD10EF324D96E080EF3
:104DD800F420DA6E4150DE5CD8B0F5EF26F0F7EF3C
:104DE80026F008EF27F04850160DD20EF324D96E9E
:104DF800080EF420DA6E4250DE18D8B406EF27F019
:104E080008EF27F0D4EF27F04850160DD00EF32402
:104E1800D96E080EF420DA6E4050DE5CD8B017EF79
:104E280027F019EF27F03BEF27F04850160DD10E69
:104E3800F324D96E080EF420DA6E4150DE18D8A497
:104E480028EF27F02AEF27F03BEF27F04850160D00
:104E5800D20EF324D96E080EF420DA6E4250DE1812
:104E6800D8B439EF27F03BEF27F0D4EF27F04850BC
:104E7800160DCE0EF324D96E080EF420DA6E3F50CC
:104E8800DE5CD8B04AEF27F04CEF27F07FEF27F031
:104E98004850160DD00EF324D96E080EF420DA6EA1
:104EA8004050DE18D8A45BEF27F05DEF27F07FEFC6
:104EB80027F04850160DD10EF324D96E080EF420B1
:104EC800DA6E4150DE18D8A46CEF27F06EEF27F0A9
:104ED8007FEF27F04850160DD20EF324D96E080E36
:104EE800F420DA6E4250DE18D8B47DEF27F07FEF59
:104EF80027F0D4EF27F04850160DCF0EF324D96EC3
:104F0800080EF420DA6EDE503E5CD8A08EEF27F053
:104F180090EF27F0D8EF27F04850160DCE0EF32467
:104F2800D96E080EF420DA6E3F50DE18D8A49FEF31
:104F380027F0A1EF27F0D8EF27F04850160DD00E34
:104F4800F324D96E080EF420DA6E4050DE18D8A487
:104F5800B0EF27F0B2EF27F0D8EF27F04850160D42
:104F6800D10EF324D96E080EF420DA6E4150DE1803
:104F7800D8A4C1EF27F0C3EF27F0D8EF27F04850A7
:104F8800160DD20EF324D96E080EF420DA6E4250B4
:104F9800DE18D8A4D2EF27F0D4EF27F0D8EF27F007
:104FA800010E4C6EFEEF29F04850160DD80EF32472
:104FB800D96E080EF420DA6E4850160DD90EF32477
:104FC800E16E080EF420E26EDE50E65CD8B0EFEF3A
:104FD80027F0F1EF27F0F3EF27F0D4EF27F0000EDA
:104FE8004C6E000E0501EF6F000EF06F000EF16FB2
:104FF800000EF26F42C0EEF54DEF28F0D00EEE2510
:105008000F6E106A070E1022000E126E640E116EDB
:1050180081EC58F00F501010D8B415EF28F017EFA6
:1050280028F043EF28F0EEC52DF0030E2D16D8A476
:1050380020EF28F022EF28F043EF28F0D00E0501EA
:10504800EE250F6E106A070E1022010E126E900EDA
:10505800116E81EC58F00F501010D8A436EF28F0DC
:1050680038EF28F043EF28F00501E951EF27EA511E
:10507800F023000EF123000EF2234CEF28F0050177
:10508800EB51EF27EC51F023000EF123000EF22331
:10509800EE2B4850160DD20EF324D96E080EF420CC
:1050A800DA6EDE50EE5DD8A05CEF28F05EEF28F0F7
:1050B80002EF28F04850160DD20EF324D96E080ED0
:1050C800F420DA6EDF50146E4850160DD10EF3241A
:1050D800D96E080EF420DA6EDF50DAEC4DF0145079
:1050E8000501EF271550F023000EF123000EF223DF
:1050F8004850160DD00EF324D96E080EF420DA6E3F
:10510800DF502D6E2D50EF27000EF023F123F223F0
:1051180042C014F04150DAEC4DF014502D6E155089
:105128002E6E2F6A306A2D500501EF5F2E50F05B0E
:105138002F50F15B3050F25B40C02DF02E6A2F6A81
:10514800306A2D50EF5F2E50F05B2F50F15B3050DE
:10515800F25BEFC50FF0F0C510F0F1C511F0F2C524
:1051680012F0180E136E000E146E000E156E000E5F
:10517800166E17EC58F00FC0EFF510C0F0F511C01F
:10518800F1F512C0F2F54850160DCE0EF324D96E83
:10519800080EF420DA6E3F50DE5CD8A0D6EF28F077
:1051A800D8EF28F061EF29F04850160DCE0EF32401
:1051B800D96E080EF420DA6EDF502D6E3F502D5C4C
:1051C8002E6E2F6AD8A02F06306A2FBE30063050B8
:1051D800316E2E500501EF272F50F0233050F12368
:1051E8003150F223EFC50FF0F0C510F0F1C511F002
:1051F800F2C512F03C0E136E000E146E000E156E02
:10520800000E166E17EC58F00FC0EFF510C0F0F551
:1052180011C0F1F512C0F2F54850160DCF0EF32467
:10522800D96E080EF420DA6EDE503E5CD8A01FEF6F
:1052380029F021EF29F041EF29F04850160DCF0E43
:10524800F324D96E080EF420DA6EDF502D6E2D503F
:105258003E5C2E6E2F6AD8A02F06306A2FBE30060D
:105268003050316E2E500501EF5F2F50F05B3050FB
:10527800F15B3150F25BBDEF29F04850160DCF0EAF
:10528800F324D96E080EF420DA6EDF502D6E3E50EE
:105298002D5C2E6E2F6AD8A02F06306A2FBE3006DE
:1052A8003050316E2E500501EF272F50F02330502B
:1052B800F1233150F223BDEF29F04850160DCE0EE0
:1052C800F324D96E080EF420DA6E3F50DE5CD8B0B5
:1052D80070EF29F072EF29F0BDEF29F04850160D54
:1052E800CE0EF324D96E080EF420DA6EDF502D6E40
:1052F8002D503F5C2E6E2F6AD8A02F06306A2FBE25
:1053080030063050316E2E500501EF5F2F50F05BA4
:105318003050F15B3150F25BEFC50FF0F0C510F083
:10532800F1C511F0F2C512F03C0E136E000E146EAA
:10533800000E156E000E166E17EC58F00FC0EFF544
:1053480010C0F0F511C0F1F512C0F2F54850160D75
:10535800CF0EF324D96E080EF420DA6EDE503E5CD0
:10536800D8A0B9EF29F0BBEF29F041EF29F021EFE0
:1053780029F00501EF51F011F111F211D8B4C7EF7E
:1053880029F0C9EF29F0D4EF29F0EF05F011F11158
:10539800F211D8A4D2EF29F0D4EF29F0DAEF29F0EE
:1053A800000E376E010E366EF5EF29F036502D6E71
:1053B80037502E6E2F6A306A2D50EF5D2E50F059FF
:1053C8002F50F1593050F259D8B0EDEF29F0EFEFE6
:1053D80029F0F5EF29F0EFC536F0F0C537F0F5EF15
:1053E80029F0482A0B0E4864FCEF29F0FEEF29F05B
:1053F80097EF26F04C50D8A404EF2AF006EF2AF0D5
:1054080016EF2AF00501ED51D8A40DEF2AF00FEFA1
:105418002AF016EF2AF0010EED6F000E0001716FF1
:1054280093EF26F04C50D8B41CEF2AF01EEF2AF068
:105438007EEF2AF04850160DDC0EF324D96E080EC4
:10544800F420DA6EDF50D8B42CEF2AF02EEF2AF0D1
:105458006FEF2AF04850160DD50EF324D96E080EBA
:10546800F420DA6EDF50D8B43CEF2AF03EEF2AF091
:105478006FEF2AF04850160DD30EF324D96E080E9C
:10548800F420DA6EDF502D6E2D50366E376A485094
:10549800160DD70EF324D96E080EF420DA6E010E1D
:1054A800DF6E4850020D710EF324F66EF30EF420F1
:1054B800F76E0900F5CF17F00A00F5CF18F048503D
:1054C800160DC80EF324196E080EF4201A6EB3ECEC
:1054D80054F0C0EF2AF04850160DCC0EF324D96EC4
:1054E800080EF420DA6EDF502D6E2D50366E376AB6
:1054F800C0EF2AF0375009E1020E365CD8A087EFDA
:105508002AF089EF2AF0B2EF2AF0110E365C110E5C
:105518003758D8B092EF2AF094EF2AF0B2EF2AF079
:1055280036C00FF037C010F0000E126E0F0E116E5D
:105538005DEC5CF00FC036F010C037F036C00FF0ED
:1055480037C010F0000E126E110E116ECEEC56F030
:105558000FC036F010C037F0C0EF2AF0110E365CDD
:10556800110E3758D8A0BBEF2AF0BDEF2AF0C0EFD4
:105578002AF00F0E376E366812002B6E000E276E5B
:10558800000E286E000E296E000E2A6E000E226E86
:10559800710E236E020E246E000E256E000E2C6E08
:1055A800140E266E000E0001616F000E606F000E73
:1055B8000F6E090EE1EC5CF0000E0001616F000E49
:1055C800606F010E836F000E4E6E0F0E736F010E2B
:1055D8002C6EB2EF2EF0CF90000ECE6E000ECD6E78
:1055E800000E6F6FECEF2DF0C980000E4D6E8AA093
:1055F80000EF2BF002EF2BF00AEF2BF04D50D8B450
:1056080008EF2BF00AEF2BF0FBEF2AF08AB00FEF30
:105618002BF011EF2BF019EF2BF04D50D8B417EFFA
:105628002BF019EF2BF00AEF2BF0CF808AA01FEF99
:105638002BF021EF2BF029EF2BF04D50D8B427EFAA
:105648002BF029EF2BF01AEF2BF04D50D8A42FEFA9
:105658002BF031EF2BF029EF2EF0010E4D6E0E01DD
:10566800388529EF2EF0C980000E4D6E8AA23FEFD3
:105678002BF041EF2BF049EF2BF04D50D8B447EF0A
:105688002BF049EF2BF03AEF2BF08AB24EEF2BF0CC
:1056980050EF2BF058EF2BF04D50D8B456EF2BF0BD
:1056A80058EF2BF049EF2BF0CF808AA25EEF2BF05A
:1056B80060EF2BF068EF2BF04D50D8B466EF2BF06D
:1056C80068EF2BF059EF2BF04D50D8A46EEF2BF06C
:1056D80070EF2BF029EF2EF0010E4D6E0E0138857C
:1056E80029EF2EF0C980000E4D6E8AA47EEF2BF0B4
:1056F80080EF2BF088EF2BF04D50D8B486EF2BF0CD
:1057080088EF2BF079EF2BF08AB48DEF2BF08FEF29
:105718002BF097EF2BF04D50D8B495EF2BF097EF77
:105728002BF088EF2BF0CF808AA49DEF2BF09FEF12
:105738002BF0A7EF2BF04D50D8B4A5EF2BF0A7EF27
:105748002BF098EF2BF04D50D8A4ADEF2BF0AFEF26
:105758002BF029EF2EF0010E4D6E0E01388529EF42
:105768002EF0C980000E4D6E8AA6BDEF2BF0BFEF5C
:105778002BF0C7EF2BF04D50D8B4C5EF2BF0C7EF87
:105788002BF0B8EF2BF08AB6CCEF2BF0CEEF2BF046
:10579800D6EF2BF04D50D8B4D4EF2BF0D6EF2BF03A
:1057A800C7EF2BF0CF808AA6DCEF2BF0DEEF2BF0D3
:1057B800E6EF2BF04D50D8B4E4EF2BF0E6EF2BF0EA
:1057C800D7EF2BF04D50D8A4ECEF2BF0EEEF2BF0E9
:1057D80029EF2EF0010E4D6E0E01388529EF2EF0BF
:1057E800C980000E4D6E8AA8FCEF2BF0FEEF2BF05F
:1057F80006EF2CF04D50D8B404EF2CF006EF2CF047
:10580800F7EF2BF08AB80BEF2CF00DEF2CF015EF1B
:105818002CF04D50D8B413EF2CF015EF2CF006EF08
:105828002CF0CF808AA81BEF2CF01DEF2CF025EF71
:105838002CF04D50D8B423EF2CF025EF2CF016EFB8
:105848002CF04D50D8A42BEF2CF02DEF2CF029EF95
:105858002EF0010E4D6E0E01388529EF2EF0C9800D
:10586800000E4D6E8AAA3BEF2CF03DEF2CF045EF71
:105878002CF04D50D8B443EF2CF045EF2CF036EF18
:105888002CF08ABA4AEF2CF04CEF2CF054EF2CF0A5
:105898004D50D8B452EF2CF054EF2CF045EF2CF0CB
:1058A800CF808AAA5AEF2CF05CEF2CF064EF2CF032
:1058B8004D50D8B462EF2CF064EF2CF055EF2CF07B
:1058C8004D50D8A46AEF2CF06CEF2CF029EF2EF095
:1058D800010E4D6E0E01388529EF2EF0C980000E9D
:1058E8004D6E8DA87AEF2CF07CEF2CF084EF2CF025
:1058F8004D50D8B482EF2CF084EF2CF075EF2CF0DB
:105908008DB889EF2CF08BEF2CF093EF2CF04D50E5
:10591800D8B491EF2CF093EF2CF084EF2CF0CF80DB
:105928008DA899EF2CF09BEF2CF0A3EF2CF04D50A5
:10593800D8B4A1EF2CF0A3EF2CF094EF2CF04D503D
:10594800D8A4A9EF2CF0ABEF2CF029EF2EF0010E24
:105958004D6E0E01388529EF2EF0C980000E4D6E70
:105968008CA8B9EF2CF0BBEF2CF0C3EF2CF04D5006
:10597800D8B4C1EF2CF0C3EF2CF0B4EF2CF08CB8F6
:10598800C8EF2CF0CAEF2CF0D2EF2CF04D50D8B461
:10599800D0EF2CF0D2EF2CF0C3EF2CF0CF808CA8F6
:1059A800D8EF2CF0DAEF2CF0E2EF2CF04D50D8B411
:1059B800E0EF2CF0E2EF2CF0D3EF2CF04D50D8A410
:1059C800E8EF2CF0EAEF2CF029EF2EF0010E4D6EE7
:1059D8000E01388529EF2EF0C980000E4D6E8BA47C
:1059E800F8EF2CF0FAEF2CF002EF2DF04D50D8B470
:1059F80000EF2DF002EF2DF0F3EF2CF08BB407EF52
:105A08002DF009EF2DF011EF2DF04D50D8B40FEF18
:105A18002DF011EF2DF002EF2DF0CF808BA417EFB2
:105A28002DF019EF2DF021EF2DF04D50D8B41FEFC8
:105A38002DF021EF2DF012EF2DF04D50D8A427EFC7
:105A48002DF029EF2DF029EF2EF0010E4D6E0E01ED
:105A5800388529EF2EF0C980000E4D6E8BA637EFE2
:105A68002DF039EF2DF041EF2DF04D50D8B43FEF28
:105A78002DF041EF2DF032EF2DF08BB646EF2DF0E3
:105A880048EF2DF050EF2DF04D50D8B44EEF2DF0DB
:105A980050EF2DF041EF2DF0CF808BA656EF2DF073
:105AA80058EF2DF060EF2DF04D50D8B45EEF2DF08B
:105AB80060EF2DF051EF2DF04D50D8A466EF2DF08A
:105AC80068EF2DF029EF2EF0010E4D6E0E0138858E
:105AD80029EF2EF0C980000E4D6E8BA876EF2DF0C1
