:0400000094EF01F088
:06000800508250EF4BF0A6
:100018005080D8CF1FF0E8CF20F0E0CF21F0D9CF23
:1000280022F0DACF23F0F3CF24F0F4CF25F00E013D
:1000380033AB21EF00F023EF00F03AEF01F08F9699
:10004800339BE30ED46EB00ED36E3F2A0001685185
:100058006911D8B432EF00F034EF00F04FEF00F040
:100068008EAE39EF00F03BEF00F04FEF00F068077D
:10007800D8A069076E51D8B444EF00F046EF00F0FD
:100088004EEF00F0030E6E614CEF00F04EEF00F003
:100098004FEF00F06E2B8EAC54EF00F056EF00F0EF
:1000A80079EF00F0000E836F9451D8A45EEF00F052
:1000B80060EF00F079EF00F00B0E5DEC32F0000914
:1000C800D8A469EF00F06BEF00F079EF00F00001C1
:1000D8009451D8A472EF00F074EF00F079EF00F0BB
:1000E8008E9C010E836F79EF00F0630E3D18D8A443
:1000F80080EF00F082EF00F086EF00F0000E3F6E18
:100108003AEF01F03D04D8A48CEF00F08EEF00F038
:100118009FEF00F0000173513F18D8A496EF00F04C
:1001280098EF00F09FEF00F0000E3F6E8F8E020EEA
:100138003D6E3AEF01F0020E3D18D8A4A6EF00F08C
:10014800A8EF00F0B9EF00F0000170513F18D8A4F3
:10015800B0EF00F0B2EF00F0B9EF00F0000E3F6E24
:100168008F9E030E3D6E3AEF01F0030E3D18D8A4A2
:10017800C0EF00F0C2EF00F0D3EF00F000017251C1
:100188003F18D8A4CAEF00F0CCEF00F0D3EF00F08E
:10019800000E3F6E8D84040E3D6E3AEF01F0040EA2
:1001A8003D18D8A4DAEF00F0DCEF00F0EDEF00F036
:1001B800000170513F18D8A4E4EF00F0E6EF00F01A
:1001C800EDEF00F0000E3F6E8D94050E3D6E3AEF98
:1001D80001F0050E3D18D8A4F4EF00F0F6EF00F09A
:1001E80007EF01F0000172513F18D8A4FEEF00F0AC
:1001F80000EF01F007EF01F0000E3F6E8D86060E4E
:100208003D6E3AEF01F0060E3D18D8A40EEF01F04E
:1002180010EF01F021EF01F0000170513F18D8A450
:1002280018EF01F01AEF01F021EF01F0000E3F6E18
:100238008D96070E3D6E3AEF01F0070E3D18D8A4D3
:1002480028EF01F02AEF01F03AEF01F000016F51B9
:100258003F18D8A432EF01F034EF01F03AEF01F083
:10026800000E3F6E010E3D6E3AEF01F00E0138A10F
:1002780040EF01F042EF01F047EF01F08F960001E7
:100288007C2B0E01389138A54CEF01F04EEF01F0B0
:1002980084EF01F08F963895F00EC86EDC0EC76EAD
:1002A8003E2A3E50435CD8B05CEF01F05EEF01F0AF
:1002B80078EF01F000019351D8A465EF01F067EFE2
:1002C80001F078EF01F0010E936F000E3E6EC990B9
:1002D8004850D8B472EF01F074EF01F084EF01F0E8
:1002E800010E946F84EF01F000019351D8B47FEFB1
:1002F80001F081EF01F084EF01F0000E3E6EC9902D
:1003080025C0F4FF24C0F3FF23C0DAFF22C0D9FFC1
:1003180021C0E0FF20C0E8FF1FC0D8FF50901000A8
:100328009DEF53F0000E0301FB6F000EFC6F000EF3
:10033800FF6F000EFE6F0F0E436E300E00019765C3
:10034800A8EF01F0AAEF01F013EF13F03A0E97614E
:10035800B0EF01F0B2EF01F013EF13F0000E936F5E
:10036800000E826FC980010ED26F030E46EC69F051
:10037800EAEF01F0B90EDA6FFF0EDB6F3CEC67F0C5
:10038800970E0001DA6F000EDB6F010EDC6F5EEC7A
:1003980067F0F80E0001DA6FFE0EDB6F3CEC67F0D9
:1003A800010E0001D36FF40ED26FD8EC61F000019A
:1003B8009351D8A4E2EF01F0E4EF01F0EAEF01F085
:1003C800130ED36F880ED26FD8EC61F000019351F1
:1003D800D8B4F1EF01F0F3EF01F0BEEF01F0000E39
:1003E800D26F0F0E46EC69F00E013885150E00012C
:1003F800D26F070ED36FF10ED46F010ED56F000EBA
:10040800D76F030ED66FFCEC5CF00001D251D3110C
:10041800D8A411EF02F013EF02F002EF13F0970ED9
:10042800D26F000ED36F180ED46F070ED56F000E63
:10043800D76F0A0ED66F62EC62F069EC68F0000EB6
:100448000001D26F080ED36F3F0ED46F070ED56F21
:100458008EEC61F019EC68F0000E0001D26F080E06
:10046800D36FF6EC65F00009D8B43DEF02F03FEF2A
:1004780002F045EF02F082EC68F0B3EC3AF056EF88
:1004880002F0000E0001D26F050E46EC69F0070E6F
:100498000001D36FD00ED26FD8EC61F01DEF13F0CE
:1004A8001DEF13F0AB0E0001D26F000ED36F970E45
:1004B800D46F000ED56F000ED76F0A0ED66FFCEC06
:1004C8005CF00001D251D311D8A46DEF02F06FEFA8
:1004D80002F0DFEF11F0970ED26F000ED36FEF0E20
:1004E800D46F020ED56F000ED76F0A0ED66F62EC6E
:1004F80062F0000E0001D26F050ED36FEC0ED46FC0
:10050800010ED56F000ED76F040ED66FFCEC5CF0B1
:100518000001D251D311D8A494EF02F096EF02F063
:10052800A7EF02F0000E826F4A0E0201FA6FFE0E6C
:10053800FB6FAB0EFC6F000EFD6F000EFE6F1EEC26
:1005480013F01DEF13F0000ED26F050ED36FEE0EF1
:10055800D46F000ED56F000ED76F020ED66FFCEC6D
:100568005CF00001D251D311D8A4BDEF02F0BFEF67
:1005780002F00AEF03F0030ED26F050ED36FB60E2A
:10058800D46F000ED56F000ED76F060ED66FFCEC39
:100598005CF00001D251D311D8A4D5EF02F0D7EF07
:1005A80002F0F9EF02F0B60ED26F000ED36F0A0E0A
:1005B800D46F050ED56F000ED76F060ED66F62EC9E
:1005C80062F0D2EC63F0000E0001826FE80E0201C7
:1005D800FA6FFC0EFB6FAB0EFC6F000EFD6F000E8A
:1005E800FE6F1EEC13F01DEF13F0000E826FE00E8D
:1005F8000201FA6FFD0EFB6FAB0EFC6F000EFD6F74
:10060800000EFE6F1EEC13F01DEF13F0000ED26FFC
:10061800050ED36FF90ED46F010ED56F000ED76F8C
:10062800030ED66FFCEC5CF00001D251D311D8A4B4
:1006380020EF03F022EF03F0D7EF05F0000E0301DF
:10064800FF6F000EFE6F030E4FEC48F00001816F44
:10065800010E0301FD6F060E0001826F000E0001FE
:100668008225D96EDA6A050EDA22DF509BEC68F033
:100678000009D8B442EF03F044EF03F09AEF04F016
:10068800010E00018225D96EDA6A050EDA22200EE3
:10069800DE18D8A452EF03F054EF03F076EF03F01E
:1006A800000E8225D96EDA6A050EDA22000E82253E
:1006B800E16EE26A050EE222E750D00FDF6E000E0F
:1006C80000018225D96EDA6A050EDA22DF500501AB
:1006D800F86FF8510301FE25FE6F000EFF21FF6F32
:1006E800CFEF04F0000E8225D96EDA6A050EDA2201
:1006F800000E8225E16EE26A050EE222E750D00F75
:10070800DF6E000E8225D96EDA6A050EDA22DF5016
:100718000A0D000E8225D96EDA6A050EDA22F3CFA9
:10072800DFFFFEC3D2F0FFC3D3F0000ED56F0A0E71
:10073800D46FDCEC68F0D2C0FEF3D3C0FFF363EFF4
:1007480003F000018151160DE00EF324D96E080E56
:10075800F420DA6EFEC3DFFF000E0301FF6F000E08
:10076800FE6FCDEF04F000018151160DE10EF32468
:10077800D96E080EF420DA6EFEC3DFFFB0EF03F087
:1007880000018151160DE20EF324D96E080EF420F3
:10079800DA6EFEC3DFFFB0EF03F000018151160DE2
:1007A800E30EF324D96E080EF420DA6EFEC3DFFFE1
:1007B800B0EF03F000018151160DDC0EF324D96E61
:1007C800080EF420DA6EFEC3DEFFFFC3DDFFB0EFD4
:1007D80003F000018151160DDE0EF324D96E080EC8
:1007E800F420DA6EFEC3DEFFFFC3DDFFB0EF03F0D7
:1007F80000018151160DEA0EF324D96E080EF4207B
:10080800DA6EFEC3DFFFB0EF03F000018151160D71
:10081800EC0EF324D96E080EF420DA6EFEC3DFFF67
:100828008151160DED0EF324D96E080EF420DA6E00
:10083800FEC3DFFFB0EF03F00301FE5139EC3DF0DA
:10084800000E0301FF6F000EFE6F00018151160DAF
:10085800E40EF324D96E080EF420DA6E6AC0DFFFC6
:100868008151160DE50EF324D96E080EF420DA6EC8
:1008780074C0DFFF8151160DE60EF324D96E080E01
:10088800F420DA6E75C0DFFF8151160DEE0EF324E9
:10089800D96E080EF420DA6E000EDF6E8151160D47
:1008A800EF0EF324D96E080EF420DA6E010EDF6E17
:1008B8008151160DE70EF324D96E080EF420DA6E76
:1008C800000EDF6E8151160DE80EF324D96E080E66
:1008D800F420DA6E000EDF6E8151160DE90EF32456
:1008E800D96E080EF420DA6E000EDF6E8151160DF7
:1008F800F00EF324D96E080EF420DA6E000EDF6EC7
:100908008151160DEB0EF324D96E080EF420DA6E21
:10091800000EDF6E8151160DF10EF324D96E080E0C
:10092800F420DA6E000EDF6ECDEF04F00301FD5106
:100938000501F86FF96BF951000AD8B4A6EF04F075
:10094800CDEF04F0F851010AD8B4A5EF03F0030A7B
:10095800D8B4B7EF03F0010AD8B4C4EF03F0070A1C
:10096800D8B4D1EF03F0010AD8B4DEEF03F0030ADC
:10097800D8B4EDEF03F0010AD8B4FCEF03F00F0A86
:10098800D8B409EF04F0010AD8B420EF04F0CDEF91
:1009980004F00301FD2B0001822B090E0301FD6504
:1009A800D8EF04F0DAEF04F032EF03F0000E0001A4
:1009B800D36F640ED26FD8EC61F000018151020D43
:1009C8004B0EF324F66EF20EF420F76E0900F5CF05
:1009D800DAF00A00F5CFDBF08151160DDC0EF324B6
:1009E800DC6F080EF420DD6FEFEC4EF0000E000116
:1009F800D36F640ED26FD8EC61F000018151020D03
:100A08004B0EF324F66EF20EF420F76E0900F5CFC4
:100A1800DAF00A00F5CFDBF08151160DDC0EF32475
:100A2800DC6F080EF420DD6F3EEC61F0000E000173
:100A3800D36F640ED26FD8EC61F000018151020DC2
:100A48004B0EF324F66EF20EF420F76E0900F5CF84
:100A5800DAF00A00F5CFDBF08151160DDC0EF32435
:100A6800DC6F080EF420DD6FBFEC67F0000E0001AC
:100A7800D36F640ED26FD8EC61F000018151020D82
:100A88004B0EF324F66EF20EF420F76E0900F5CF44
:100A9800DAF00A00F5CFDBF08151160DDC0EF324F5
:100AA800DC6F080EF420DD6F9FEC67F0000E00018C
:100AB800D36F640ED26FD8EC61F000018151020D42
:100AC8004B0EF324F66EF20EF420F76E0900F5CF04
:100AD800DAF00A00F5CFDBF08151160DDC0EF324B5
:100AE800DC6F080EF420DD6F7FEC67F0000E00016C
:100AF800D36F640ED26FD8EC61F000018151020D02
:100B08004B0EF324F66EF20EF420F76E0900F5CFC3
:100B1800DAF00A00F5CFDBF08151160DDC0EF32474
:100B2800DC6F080EF420DD6F6CEC58F0000E00014D
:100B3800D36F640ED26FD8EC61F0090E00018161A9
:100B4800A8EF05F0AAEF05F0B1EF05F0300E976FAA
:100B58008151310F986FC6EF05F0080E8165B7EF28
:100B680005F0B9EF05F0C6EF05F00C0E8161BFEF97
:100B780005F0C1EF05F0C6EF05F0310E976F815112
:100B8800270F986F000E826F740E0201FA6FFB0E2A
:100B9800FB6FAB0EFC6F000EFD6F020EFE6F1EECBE
:100BA80013F01DEF13F0000ED26F050ED36FE70E92
:100BB800D46F010ED56F000ED76F040ED66FFCEC04
:100BC8005CF00001D251D311D8A4EDEF05F0EFEF9E
:100BD80005F0A6EF06F0040E4FEC48F00001816F17
:100BE8008151160DEE0EF324D96E080EF420DA6E3C
:100BF800DE04D8A402EF06F004EF06F006EF06F0D4
:100C0800010E8D6F8151160DEF0EF324D96E080E6B
:100C1800F420DA6E000EDF6E8151160DF00EF3240B
:100C2800D96E080EF420DA6EDE04D8A41EEF06F0A2
:100C380020EF06F050EF06F08151160DF00EF32468
:100C4800D96E080EF420DA6E000EDF6E000ED36F38
:100C5800640ED26FD8EC61F000018151020D4B0E89
:100C6800F324F66EF20EF420F76E0900F5CFDAF0F1
:100C78000A00F5CFDBF08151160DDC0EF324DC6F92
:100C8800080EF420DD6F6CEC58F0000E0001D36FF5
:100C9800640ED26FD8EC61F000018151020D4B0E49
:100CA800F324F66EF20EF420F76E0900F5CFDAF0B1
:100CB8000A00F5CFDBF08151160DDC0EF324DC6F52
:100CC800080EF420DD6F7FEC67F0000E0001D36F93
:100CD800640ED26FD8EC61F0090E0001816177EFE4
:100CE80006F079EF06F080EF06F0300E976F81512D
:100CF800310F986F95EF06F0080E816586EF06F0C4
:100D080088EF06F095EF06F00C0E81618EEF06F085
:100D180090EF06F095EF06F0310E976F8151270F8F
:100D2800986F000E826FCD0E0201FA6FF90EFB6FFD
:100D3800AB0EFC6F000EFD6F020EFE6F1EEC13F083
:100D48001DEF13F0000ED26F050ED36FE80ED46FAF
:100D5800020ED56F000ED76F060ED66FFCEC5CF056
:100D68000001D251D311D8A4BCEF06F0BEEF06F0B3
:100D7800E3EF08F0000E0301FF6F000EFE6F000E98
:100D8800FD6F060E4FEC48F00001816F8151160D82
:100D9800EF0EF324D96E080EF420DA6EDF50D8A4D3
:100DA800D8EF06F0DAEF06F00FEF07F0090E8161D1
:100DB800E0EF06F0E2EF06F0E9EF06F0300E976F8D
:100DC8008151310F986FFEEF06F0080E8165EFEF45
:100DD80006F0F1EF06F0FEEF06F00C0E8161F7EF7A
:100DE80006F0F9EF06F0FEEF06F0310E976F81512D
:100DF800270F986F000E826FAA0E0201FA6FF60E87
:100E0800FB6FAB0EFC6F000EFD6F020EFE6F1EEC4B
:100E180013F01DEF13F0090E826F000E00018225FA
:100E2800D96EDA6A050EDA22DF509BEC68F0000909
:100E3800D8B421EF07F023EF07F084EF07F0010E95
:100E480000018225D96EDA6A050EDA22200EDE1834
:100E5800D8A431EF07F033EF07F055EF07F0000E95
:100E68008225D96EDA6A050EDA22000E8225E16E35
:100E7800E26A050EE222E750D00FDF6E000E000195
:100E88008225D96EDA6A050EDA22DF500501F86F7D
:100E9800F8510301FE25FE6F000EFF21FF6F6BEF77
:100EA80008F0000E8225D96EDA6A050EDA22000EE5
:100EB8008225E16EE26A050EE222E750D00FDF6E6E
:100EC800000E8225D96EDA6A050EDA22DF500A0D85
:100ED800000E8225D96EDA6A050EDA22F3CFDFFF1B
:100EE800FEC3D2F0FFC3D3F0000ED56F0A0ED46F45
:100EF800DCEC68F0D2C0FEF3D3C0FFF342EF07F09A
:100F08000301FD2B51EF08F000018151160DE70E8A
:100F1800F324D96E080EF420DA6EFEC3DFFF000E4C
:100F28000301FF6F000EFE6F6BEF08F000018151A7
:100F3800160DE80EF324D96E080EF420DA6EFEC3FF
:100F4800DFFF93EF07F000018151160DE90EF3243E
:100F5800D96E080EF420DA6EFEC3DFFF8151160D3C
:100F6800EB0EF324D96E080EF420DA6E000EDF6E55
:100F78008151160DF10EF324D96E080EF420DA6EA5
:100F8800000EDF6E000E0301FF6F000EFE6F000102
:100F98008151160DE00EF324D96E080EF420DA6E96
:100FA800DF500501F86FF96B00018151160DE70E4E
:100FB800F324D96E080EF420DA6EDF500501FA6FBB
:100FC800FB6B00018151160DE80EF324D96E080E53
:100FD800F420DA6EDF500501FC6FFC51FA27000E91
:100FE800FB23F851FA5DFB51800AFD6FF951800A25
:100FF800FD59D8A002EF08F004EF08F044EF08F01C
:1010080000018151160DF00EF324D96E080EF4205C
:10101800DA6E000EDF6E090E816115EF08F017EF2A
:1010280008F01EEF08F0300E976F8151310F986F5E
:1010380033EF08F0080E816524EF08F026EF08F07A
:1010480033EF08F00C0E81612CEF08F02EEF08F05A
:1010580033EF08F0310E976F8151270F986F000E0C
:10106800826FFF0E0201FA6FF80EFB6FAB0EFC6F7A
:10107800000EFD6F020EFE6F1EEC13F06BEF08F012
:1010880000018151160DF00EF324D96E080EF420DC
:10109800DA6E010EDF6E6BEF08F0FD510501F86F97
:1010A800F96BF951000AD8B45CEF08F06BEF08F05F
:1010B800F851010AD8B488EF07F0030AD8B49AEFB8
:1010C80007F0010AD8B4A7EF07F06BEF08F00001AA
:1010D800822B020E0301FD6574EF08F076EF08F02D
:1010E80011EF07F000018151160DF00EF324D96EAF
:1010F800080EF420DA6EDF50D8B485EF08F087EFD9
:1011080008F01DEF13F0000ED36F640ED26FD8EC09
:1011180061F000018151020D4B0EF324F66EF20EC0
:10112800F420F76E0900F5CFDAF00A00F5CFDBF00E
:101138008151160DDC0EF324DC6F080EF420DD6FF0
:101148006CEC58F0000E0001D36F640ED26FD8EC2F
:1011580061F0090E00018161B4EF08F0B6EF08F004
:10116800BDEF08F0300E976F8151310F986FD2EFB5
:1011780008F0080E8165C3EF08F0C5EF08F0D2EF5C
:1011880008F00C0E8161CBEF08F0CDEF08F0D2EF3C
:1011980008F0310E976F8151270F986F000E826FFC
:1011A800220E0201FA6FFC0EFB6FAB0EFC6F000EF5
:1011B800FD6F020EFE6F1EEC13F01DEF13F0000E14
:1011C800D26F050ED36FD20ED46F020ED56F000EFC
:1011D800D76F070ED66FFCEC5CF00001D251D3112B
:1011E800D8A4F9EF08F0FBEF08F099EF09F0070E23
:1011F8004FEC48F00001816F8151160DEE0EF3247B
:10120800D96E080EF420DA6EDE04D8A40EEF09F0C9
:1012180010EF09F023EF09F08151160DEB0EF324BE
:10122800D96E080EF420DA6E030EDE18D8B41FEF5C
:1012380009F021EF09F023EF09F0010E8D6F8151BC
:10124800160DF00EF324D96E080EF420DA6EDE04C3
:10125800D8A431EF09F033EF09F054EF02F08151CF
:10126800160DF00EF324D96E080EF420DA6E000E77
:10127800DF6E000ED36F640ED26FD8EC61F0000100
:101288008151020D4B0EF324F66EF20EF420F76E28
:101298000900F5CFDAF00A00F5CFDBF08151160D21
:1012A800DC0EF324DC6F080EF420DD6F6CEC58F0D4
:1012B800000E0001D36F640ED26FD8EC61F0090EF6
:1012C800000181616AEF09F06CEF09F073EF09F032
:1012D800300E976F8151310F986F88EF09F0080E23
:1012E800816579EF09F07BEF09F088EF09F00C0EC2
:1012F800816181EF09F083EF09F088EF09F0310E81
:10130800976F8151270F986F000E826FBB0E0201F5
:10131800FA6FFB0EFB6FAB0EFC6F000EFD6F020E3B
:10132800FE6F1EEC13F01DEF13F0000ED26F050ECA
:10133800D36FE10ED46F020ED56F000ED76F060E75
:10134800D66FFCEC5CF00001D251D311D8A4AFEFFA
:1013580009F0B1EF09F0A2EF0AF0000E0301FF6FE8
:10136800000EFE6F000EFD6F060E0001826F000E6C
:1013780000018225D96EDA6A050EDA22DF509BEC6D
:1013880068F00009D8B4CBEF09F0CDEF09F02EEFE3
:101398000AF0010E00018225D96EDA6A050EDA22FA
:1013A800200EDE18D8A4DBEF09F0DDEF09F0FFEF1F
:1013B80009F0000E8225D96EDA6A050EDA22000ECF
:1013C8008225E16EE26A050EE222E750D00FDF6E59
:1013D800000E00018225D96EDA6A050EDA22DF5086
:1013E8000501F86FF8510301FE25FE6F000EFF217D
:1013F800FF6F75EF0AF0000E8225D96EDA6A050EC6
:10140800DA22000E8225E16EE26A050EE222E7503A
:10141800D00FDF6E000E8225D96EDA6A050EDA2249
:10142800DF500A0D000E8225D96EDA6A050EDA221F
:10143800F3CFDFFFFEC3D2F0FFC3D3F0000ED56FAA
:101448000A0ED46FDCEC68F0D2C0FEF3D3C0FFF311
:10145800ECEF09F00301FD2B53EF0AF0FEC373F024
:10146800000E0301FF6F000EFE6F75EF0AF0FEC35A
:1014780072F034EF0AF0FEC371F034EF0AF0FEC3E5
:1014880070F034EF0AF0FEC36FF0000E0301FF6F37
:10149800000EFE6F010E0001876F75EF0AF0FD5117
:1014A8000501F86FF96BF951000AD8B45EEF0AF03C
:1014B80075EF0AF0F851010AD8B432EF0AF0030ABE
:1014C800D8B43BEF0AF0010AD8B43FEF0AF0070A94
:1014D800D8B443EF0AF0010AD8B447EF0AF075EF21
:1014E8000AF00001822B040E0301FD657EEF0AF06D
:1014F80080EF0AF0BBEF09F0000E0001D36F640E15
:10150800D26FD8EC61F02AEC57F0000E0001D36FCF
:10151800640ED26FD8EC61F0000E0001826F7A0E73
:101528000201FA6FFD0EFB6FAB0EFC6F000EFD6F34
:10153800000EFE6F1EEC13F01DEF13F0000ED26FBD
:10154800050ED36FCA0ED46F020ED56F000ED76F7B
:10155800070ED66FFCEC5CF00001D251D311D8A471
:10156800B8EF0AF0BAEF0AF0DDEF0AF0000E876F65
:10157800000ED36F640ED26FD8EC61F02AEC57F0EE
:10158800000E0001D36F640ED26FD8EC61F0000E2C
:101598000001826F270E0201FA6FFD0EFB6FAB0E82
:1015A800FC6F000EFD6F000EFE6F1EEC13F01DEFBA
:1015B80013F0000ED26F050ED36FD70ED46F010E45
:1015C800D56F000ED76F050ED66FFCEC5CF00001EE
:1015D800D251D311D8A4F3EF0AF0F5EF0AF01FEFB8
:1015E8000BF08751D8B4FBEF0AF0FDEF0AF00EEFCD
:1015F8000BF0000E826F5F0E0201FA6FFD0EFB6F9B
:10160800AB0EFC6F000EFD6F080EFE6F1EEC13F0A4
:101618001DEF13F0000E826FC80E0201FA6FFC0E68
:10162800FB6FAB0EFC6F000EFD6F000EFE6F1EEC25
:1016380013F01DEF13F0000ED26F050ED36FDD0E01
:10164800D46F010ED56F000ED76F040ED66FFCEC69
:101658005CF00001D251D311D8A435EF0BF037EF6D
:101668000BF020EF0CF0000E0301FF6F000EFE6F71
:10167800000EFD6F050E0001826F000E000182252D
:10168800D96EDA6A050EDA22DF509BEC68F00009A1
:10169800D8B451EF0BF053EF0BF0E5EF0BF0000E61
:1016A80000018225D96EDA6A050EDA22000E82253B
:1016B800E16EE26A050EE222E750D00FDF6E000EFF
:1016C8008225D96EDA6A050EDA22DF500501F86F35
:1016D800F8510301FE6FFF6BFEC3D2F0FFC3D3F0D6
:1016E800000E0001D56F0A0ED46FDCEC68F0D2C092
:1016F800FEF3D3C0FFF3010E00018225D96EDA6A2A
:10170800050EDA22010E8225E16EE26A050EE2225A
:10171800E750D00FDF6E010E8225D96EDA6A050E0A
:10172800DA22DF500501F86FF8510301FE25FE6F3C
:10173800000EFF21FF6FFD2BBFEF0BF0FEC379F00A
:10174800000E0301FF6F000EFE6FF7EF0BF0FEC3F4
:101758007AF0A4EF0BF0FEC37BF0A4EF0BF0FEC30E
:1017680078F0A4EF0BF0FEC377F0A4EF0BF0FEC304
:1017780076F0A4EF0BF0FD510501F86FF96BF95104
:10178800000AD8B4CAEF0BF0F7EF0BF0F851010AD2
:10179800D8B4A2EF0BF0030AD8B4ABEF0BF0010AF0
:1017A800D8B4AFEF0BF0070AD8B4B3EF0BF0010AC7
:1017B800D8B4B7EF0BF0030AD8B4BBEF0BF0F7EFD0
:1017C8000BF0000E0001826F440E0201FA6FFD0E4D
:1017D800FB6FAB0EFC6F000EFD6F000EFE6F1EEC74
:1017E80013F01DEF13F0030E00018227050E03010D
:1017F800FD6501EF0CF003EF0CF041EF0BF0060E66
:10180800FD19D8A40AEF0CF00CEF0CF00EEF0CF059
:10181800EFEC5EF0000E0001826F890E0201FA6F94
:10182800FA0EFB6FAB0EFC6F000EFD6F000EFE6F25
:101838001EEC13F01DEF13F0000ED26F050ED36FE0
:10184800E20ED46F010ED56F000ED76F040ED66F5F
:10185800FCEC5CF00001D251D311D8A436EF0CF0A7
:1018680038EF0CF0F2EF0CF08DEC5EF079C0D2F0AE
:101878000001D36B000ED56F0A0ED46F2AEC5EF010
:101888000001D251300F976F79C0E4F0E56B000E7C
:10189800E76F0A0EE66FC7EC5DF00001E451300F08
:1018A800986F2F0E996F7AC0D2F0D36B000ED56F58
:1018B8000A0ED46F2AEC5EF00001D251300F9A6FF5
:1018C8007AC0E4F0E56B000EE76F0A0EE66FC7EC2E
:1018D8005DF00001E451300F9B6F2F0E9C6F7BC0B1
:1018E800D2F0D36B000ED56F0A0ED46F2AEC5EF0DF
:1018F8000001D251300F9D6F7BC0E4F0E56B000E04
:10190800E76F0A0EE66FC7EC5DF00001E451300F97
:101918009E6F200E9F6F78C0D2F0D36B000ED56FEC
:101928000A0ED46F2AEC5EF00001D251300FA06F7E
:1019380078C0E4F0E56B000EE76F0A0EE66FC7ECBF
:101948005DF00001E451300FA16F3A0EA26F77C02D
:10195800D2F0D36B000ED56F0A0ED46F2AEC5EF06E
:101968000001D251300FA36F77C0E4F0E56B000E91
:10197800E76F0A0EE66FC7EC5DF00001E451300F27
:10198800A46F3A0EA56F76C0D2F0D36B000ED56F58
:101998000A0ED46F2AEC5EF00001D251300FA66F08
:1019A80076C0E4F0E56B000EE76F0A0EE66FC7EC51
:1019B8005DF00001E451300FA76F000E826F6A0ED0
:1019C8000201FA6FFE0EFB6FAB0EFC6F000EFD6F8F
:1019D800030EFE6F1EEC13F01DEF13F0000ED26F16
:1019E800050ED36FC20ED46F020ED56F000ED76FDF
:1019F800070ED66FFCEC5CF00001D251D311D8A4CD
:101A080008EF0DF00AEF0DF063EF0DF0070E4FEC45
:101A180048F00001816F090E816115EF0DF017EF95
:101A28000DF01EEF0DF0300E976F8151310F986F4A
:101A380033EF0DF0080E816524EF0DF026EF0DF061
:101A480033EF0DF00C0E81612CEF0DF02EEF0DF041
:101A580033EF0DF0310E976F8151270F986F000EFD
:101A6800826F8151160DEF0EF324D96E080EF42003
:101A7800DA6EDF50D8B443EF0DF045EF0DF054EFB8
:101A88000DF0790E0201FA6FFE0EFB6FAB0EFC6FC4
:101A9800000EFD6F070EFE6F1EEC13F01DEF13F026
:101AA800030E0201FA6FFB0EFB6FAB0EFC6F000E0C
:101AB800FD6F020EFE6F1EEC13F01DEF13F0000E0B
:101AC800D26F050ED36FEB0ED46F000ED56F000EDC
:101AD800D76F020ED66FFCEC5CF00001D251D31127
:101AE800D8A479EF0DF07BEF0DF06AEF0EF08EAE13
:101AF80080EF0DF082EF0DF094EF0DF0000E000175
:101B0800826F9C0E0201FA6FF90EFB6FAB0EFC6F31
:101B1800000EFD6F000EFE6F1EEC13F01DEF13F0AC
:101B2800000E0301FF6F000EFE6F000EFD6F010E29
:101B3800FD6F030E0001826F000E00018225D96E31
:101B4800DA6A050EDA22DF509BEC68F00009D8B497
:101B5800B0EF0DF0B2EF0DF024EF0EF0010E000122
:101B68008225D96EDA6A050EDA22200EDE18D8A48C
:101B7800C0EF0DF0C2EF0DF0E4EF0DF0000E82257E
:101B8800D96EDA6A050EDA22000E8225E16EE26A63
:101B9800050EE222E750D00FDF6E000E000182250D
:101BA800D96EDA6A050EDA22DF500501F86FF851AE
:101BB8000301FE25FE6F000EFF21FF6F3DEF0EF0C3
:101BC800000E8225D96EDA6A050EDA22000E822509
:101BD800E16EE26A050EE222E750D00FDF6E000EDA
:101BE8008225D96EDA6A050EDA22DF500A0D000E58
:101BF8008225D96EDA6A050EDA22F3CFDFFFFEC33B
:101C0800D2F0FFC3D3F0000ED56F0A0ED46FDCEC10
:101C180068F0D2C0FEF3D3C0FFF3D1EF0DF0FEC3DE
:101C28006CF0FFC36DF0000E0301FF6F000EFE6F36
:101C38003BEF0EF0FEC3C1F0FFC3C2F017EF0EF08A
:101C48000301FD510501F86FF96BF951000AD8B489
:101C580030EF0EF03BEF0EF0F851010AD8B413EF55
:101C68000EF0030AD8B41EEF0EF03BEF0EF003019E
:101C7800FD2B0001822B020E0301FD6546EF0EF0DD
:101C880048EF0EF0A0EF0DF0000E0001D36F640EC8
:101C9800D26FD8EC61F09EEC5BF0000E0001D36FC0
:101CA800640ED26FD8EC61F0000E0001826F980EBE
:101CB8000201FA6FFB0EFB6FAB0EFC6F000EFD6F9F
:101CC800000EFE6F1EEC13F01DEF13F0000ED26F26
:101CD800050ED36FD10ED46F010ED56F000ED76FDE
:101CE800050ED66FFCEC5CF00001D251D311D8A4DC
:101CF80080EF0EF082EF0EF094EF0EF0000E000170
:101D0800826F2C0E0201FA6FFA0EFB6FAB0EFC6F9E
:101D1800000EFD6F050EFE6F1EEC13F01DEF13F0A5
:101D2800000ED26F050ED36FBA0ED46F020ED56FA8
:101D3800000ED76F070ED66FFCEC5CF00001D25195
:101D4800D311D8A4AAEF0EF0ACEF0EF00AEF0FF003
:101D5800070E4FEC48F00001816F000ED36F640E40
:101D6800D26FD8EC61F00001815101EC2EF0090E20
:101D780000018161C2EF0EF0C4EF0EF0CBEF0EF060
:101D8800300E976F8151310F986FE0EF0EF0080E0B
:101D98008165D1EF0EF0D3EF0EF0E0EF0EF00C0EF0
:101DA8008161D9EF0EF0DBEF0EF0E0EF0EF0310EAF
:101DB800976F8151270F986F9451D8B4E6EF0EF0C2
:101DC800E8EF0EF0F9EF0EF0000E946FDB0E020153
:101DD800FA6FFA0EFB6FAB0EFC6F000EFD6F020E72
:101DE800FE6F1EEC13F01DEF13F0000E826F5B0EFA
:101DF8000201FA6FFA0EFB6FAB0EFC6F000EFD6F5F
:101E0800060EFE6F1EEC13F01DEF13F0000ED26FDE
:101E1800050ED36FF50ED46F010ED56F000ED76F78
:101E2800030ED66FFCEC5CF00001D251D311D8A49C
:101E380020EF0FF022EF0FF078EF0FF0030E4FECCA
:101E480048F00001816F000ED36F640ED26FD8EC9A
:101E580061F08EAE32EF0FF034EF0FF036EF0FF087
:101E680082EF0DF0090E000181613DEF0FF03FEFA9
:101E78000FF046EF0FF0300E976F8151310F986FCA
:101E88005BEF0FF0080E81654CEF0FF04EEF0FF08F
:101E98005BEF0FF00C0E816154EF0FF056EF0FF06F
:101EA8005BEF0FF0310E976F8151270F986F130E6C
:101EB800D36F880ED26FD8EC61F081C0DFF0010ECD
:101EC800F4EC41F0030E0001D36FE80ED26FD8ECAA
:101ED80061F09EEC5BF0030E0001D36FE80ED26F49
:101EE800D8EC61F082EF0EF0000ED26F050ED36FC2
:101EF800DA0ED46F020ED56F000ED76F060ED66FAE
:101F0800FCEC5CF00001D251D311D8A48EEF0FF095
:101F180090EF0FF054EF02F0000E0301FF6F000E78
:101F2800FE6F000EFD6F070E0001826F000E0001AC
:101F38008225D96EDA6A050EDA22DF509BEC68F04A
:101F48000009D8B4AAEF0FF0ACEF0FF028EF10F0AB
:101F5800000E00018225D96EDA6A050EDA22000E1B
:101F68008225E16EE26A050EE222E750D00FDF6EAD
:101F7800000E8225D96EDA6A050EDA22DF500501D5
:101F8800F86FF8510301FE6FFF6BFEC3D2F0FFC379
:101F9800D3F0000E0001D56F0A0ED46FDCEC68F0A8
:101FA800D2C0FEF3D3C0FFF3010E00018225D96E23
:101FB800DA6A050EDA22010E8225E16EE26A050E62
:101FC800E222E750D00FDF6E010E8225D96EDA6A61
:101FD800050EDA22DF500501F86FF8510301FE25DE
:101FE800FE6F000EFF21FF6FFD2B0EEF10F0FEC3FA
:101FF800FBF3000E0301FF6F000EFE6F28EF10F0D9
:10200800FEC3FCF3FDEF0FF00301FE5139EC3DF088
:10201800FDEF0FF0FD510501F86FF96BF951000A5A
:10202800D8B419EF10F028EF10F0F851010AD8B41D
:10203800FBEF0FF0030AD8B404EF10F0010AD8B48C
:1020480008EF10F028EF10F0030E00018227020EAF
:102058000301FD6532EF10F034EF10F09AEF0FF046
:10206800000E0001816FC6EF11F08151160DE00ED0
:10207800F324D96E080EF420DA6E0F0EDF6E81514C
:10208800160DE10EF324D96E080EF420DA6E010E57
:10209800DF6E8151160DE20EF324D96E080EF4207E
:1020A800DA6EFBC3DFFF8151160DE30EF324D96E00
:1020B800080EF420DA6EFCC3DFFF8151160DE40E22
:1020C800F324D96E080EF420DA6E6AC0DFFF81515E
:1020D800160DE50EF324D96E080EF420DA6E74C0DE
:1020E800DFFF8151160DE60EF324D96E080EF42099
:1020F800DA6E75C0DFFF8151160DDC0EF324D96E40
:10210800080EF420DA6E640EDE6E000EDD6E81516C
:10211800160DDE0EF324D96E080EF420DA6E300E9A
:10212800DE6E750EDD6E8151160DEA0EF324D96E42
:10213800080EF420DA6E8129DF6E8151160DEE0E3D
:10214800F324D96E080EF420DA6E000EDF6E81518A
:10215800160DEC0EF324D96E080EF420DA6E020E7A
:10216800DF6E8151160DED0EF324D96E080EF420A2
:10217800DA6E020EDF6E8151160DEF0EF324D96E62
:10218800080EF420DA6E010EDF6E8151160DE70E8F
:10219800F324D96E080EF420DA6E050EDF6E815135
:1021A800160DE80EF324D96E080EF420DA6E0F0E21
:1021B800DF6E8151160DE90EF324D96E080EF42056
:1021C800DA6E8129DF6E8151160DEB0EF324D96E7C
:1021D800080EF420DA6E000EDF6E8151160DF10E36
:1021E800F324D96E080EF420DA6E000EDF6E8151EA
:1021F800160DF00EF324D96E080EF420DA6E010ED7
:10220800DF6E8151020D4B0EF324F66EF20EF420B0
:10221800F76E0900F5CFDAF00A00F5CFDBF081514F
:10222800160DDC0EF324DC6F080EF420DD6FEFECE6
:102238004EF0000E0001D36F640ED26FD8EC61F03F
:1022480000018151020D4B0EF324F66EF20EF420BC
:10225800F76E0900F5CFDAF00A00F5CFDBF081510F
:10226800160DDC0EF324DC6F080EF420DD6F3EEC57
:1022780061F0000E0001D36F640ED26FD8EC61F0EC
:1022880000018151020D4B0EF324F66EF20EF4207C
:10229800F76E0900F5CFDAF00A00F5CFDBF08151CF
:1022A800160DDC0EF324DC6F080EF420DD6FBFEC96
:1022B80067F0000E0001D36F640ED26FD8EC61F0A6
:1022C80000018151020D4B0EF324F66EF20EF4203C
:1022D800F76E0900F5CFDAF00A00F5CFDBF081518F
:1022E800160DDC0EF324DC6F080EF420DD6F9FEC76
:1022F80067F0000E0001D36F640ED26FD8EC61F066
:1023080000018151020D4B0EF324F66EF20EF420FB
:10231800F76E0900F5CFDAF00A00F5CFDBF081514E
:10232800160DDC0EF324DC6F080EF420DD6F7FEC55
:1023380067F0000E0001D36F640ED26FD8EC61F025
:1023480000018151020D4B0EF324F66EF20EF420BB
:10235800F76E0900F5CFDAF00A00F5CFDBF081510E
:10236800160DDC0EF324DC6F080EF420DD6F6CEC28
:1023780058F0000E0001D36F640ED26FD8EC61F0F4
:102388000001812B0B0E8165CCEF11F0CEEF11F01F
:1023980039EF10F0000E826F370E0201FA6FFE0E51
:1023A800FB6FAB0EFC6F000EFD6F000EFE6F1EEC98
:1023B80013F01DEF13F0000ED26F050ED36FEE0E63
:1023C800D46F000ED56F000ED76F020ED66FFCECDF
:1023D8005CF00001D251D311D8A4F5EF11F0F7EF5A
:1023E80011F0A9EF12F0030ED26F050ED36FB60EDF
:1023F800D46F000ED56F000ED76F060ED66FFCECAB
:102408005CF00001D251D311D8A40DEF12F00FEFF8
:1024180012F089EF12F09651D8B415EF12F017EFB9
:1024280012F026EF12F0000E826F370E0201FA6FDB
:10243800F90EFB6FAB0EFC6F000EFD6F010EFE6F09
:102448001EEC13F0B60E0001D26F000ED36F0A0E09
:10245800D46F050ED56F000ED76F060ED66F62ECDF
:1024680062F0AB0E0001D26F000ED36F970ED46FDF
:10247800000ED56F000ED76F0A0ED66F62EC62F0B1
:10248800010E0001966F970ED26F000ED36FEF0EFC
:10249800D46F020ED56F000ED76F0A0ED66F62EC9E
:1024A80062F0000E0001D36F320ED26FD8EC61F0EB
:1024B800D2EC63F0000E0001D36F320ED26FD8EC6D
:1024C80061F00BEC64F0000E0001D36F320ED26F96
:1024D800D8EC61F0FCEC67F0000E0001D36F320E0F
:1024E800D26FD8EC61F0000E0001826FF70E020186
:1024F800FA6FFD0EFB6FAB0EFC6F000EFD6F000E4A
:10250800FE6F1EEC13F01DEF13F0000E826FE00E4D
:102518000201FA6FFD0EFB6F970EFC6F000EFD6F48
:10252800000EFE6F1EEC13F0970E0001D26F000E26
:10253800D36FEF0ED46F020ED56F000ED76F0A0E51
:10254800D66F62EC62F01DEF13F0000ED26F050E2D
:10255800D36FEC0ED46F010ED56F000ED76F040E3B
:10256800D66FFCEC5CF00001D251D311D8A4BFEFB8
:1025780012F0C1EF12F0D2EF12F0000E826F0E0EC1
:102588000201FA6FFE0EFB6F970EFC6F000EFD6FD7
:10259800000EFE6F1EEC13F098EF12F0000ED26FD3
:1025A800050ED36FF20ED46F040ED56F000ED76FE1
:1025B8000B0ED66FFCEC5CF00001D251D311D8A4FD
:1025C800E8EF12F0EAEF12F0FBEF12F0000E826F64
:1025D8005B0E0201FA6FFE0EFB6F970EFC6F000E8A
:1025E800FD6F040EFE6F1EEC13F098EF12F0000E54
:1025F800D26F060E46EC69F04BEF02F019EC68F06A
:10260800000E0001D26F070E46EC69F0030E0001C0
:10261800D36FE80ED26FD8EC61F01DEF13F019EC10
:1026280068F0000E0001D26F080E46EC69F04BEF1F
:1026380002F012000F0E436E8B0E0001DA6FFF0ED0
:10264800DB6F3CEC67F0000E0001D36F320ED26FE7
:10265800D8EC61F0FCC2DAF0FDC2DBF00A0E000132
:10266800DC6F5EEC67F0000E0001D36F320ED26FA4
:10267800D8EC61F0F70E0001DA6FFE0EDB6F3CEC70
:1026880067F0000E0001D36F640ED26FD8EC61F0D2
:10269800FAC2DAF0FBC2DBF03CEC67F0000E000196
:1026A800D36F640ED26FD8EC61F0D4EF1CF0970EA4
:1026B8000001DA6F000EDB6F0A0EDC6F5EEC67F06C
:1026C800000E0001D36F640ED26FD8EC61F003EFF7
:1026D8001DF0970E0001DA6F000EDB6F020EDC6F43
:1026E8005EEC67F064EF13F0970E0001DA6F000EEE
:1026F800DB6F110EDC6F5EEC67F064EF13F0490ED0
:102708000001DA6F000EDB6F060EDC6F5EEC67F01F
:1027180064EF13F06CC064F06DC065F064C0D8F06D
:1027280065C0D9F0030E0001DB6FE80EDA6F25EC07
:1027380063F00001D851300FA56F64C0D2F065C0B6
:10274800D3F0030ED56FE80ED46FE9EC64F0D2C075
:1027580064F0D3C065F064C0D8F065C0D9F0000E4D
:102768000001DB6F640EDA6F25EC63F00001D851CD
:10277800300FA66F64C0D2F065C0D3F0000ED56FDD
:10278800640ED46FE9EC64F0D2C064F0D3C065F095
:1027980064C0D8F065C0D9F0000E0001DB6F0A0EE6
:1027A800DA6F25EC63F00001D851300FA76F64C0D1
:1027B800D2F065C0D3F0000ED56F0A0ED46FE9ECE5
:1027C80064F0D2C064F0D3C065F000016451300FEA
:1027D800A86FA50EDA6F000EDB6F040EDC6F5EECDF
:1027E80067F0000E0001D36F320ED26FD8EC61F0A3
:1027F800DF0E0001DA6FFF0EDB6F3CEC67F0000EB6
:102808000001D36F320ED26FD8EC61F0C1C064F012
:10281800C2C065F064C0D8F065C0D9F0030E0001ED
:10282800DB6FE80EDA6F25EC63F00001D851300F4A
:10283800A56F64C0D2F065C0D3F0030ED56FE80E63
:10284800D46FE9EC64F0D2C064F0D3C065F064C022
:10285800D8F065C0D9F0000E0001DB6F640EDA6FA6
:1028680025EC63F00001D851300FA66F64C0D2F098
:1028780065C0D3F0000ED56F640ED46FE9EC64F038
:10288800D2C064F0D3C065F064C0D8F065C0D9F098
:10289800000E0001DB6F0A0EDA6F25EC63F0000111
:1028A800D851300FA76F64C0D2F065C0D3F0000EC6
:1028B800D56F0A0ED46FE9EC64F0D2C064F0D3C0CF
:1028C80065F000016451300FA86FA50EDA6F000E95
:1028D800DB6F040EDC6F5EEC67F064EF13F0970EAD
:1028E8000001DA6F000EDB6F020EDC6F5EEC67F042
:1028F800000E0001D36F320ED26FD8EC61F0F70EE4
:102908000001DA6FFF0EDB6F3CEC67F0000E000190
:10291800D36F320ED26FD8EC61F060C064F061C042
:1029280065F064C0D8F065C0D9F0270E0001DB6FF0
:10293800100EDA6F25EC63F00001D851300FA56F47
:1029480064C0D2F065C0D3F0270ED56F100ED46FD7
:10295800E9EC64F0D2C064F0D3C065F064C0D8F08C
:1029680065C0D9F0030E0001DB6FE80EDA6F25ECC5
:1029780063F00001D851300FA66F64C0D2F065C073
:10298800D3F0030ED56FE80ED46FE9EC64F0D2C033
:1029980064F0D3C065F064C0D8F065C0D9F0000E0B
:1029A8000001DB6F640EDA6F25EC63F00001D8518B
:1029B800300FA76F64C0D2F065C0D3F0000ED56F9A
:1029C800640ED46FE9EC64F0D2C064F0D3C065F053
:1029D80064C0D8F065C0D9F0000E0001DB6F0A0EA4
:1029E800DA6F25EC63F00001D851300FA86F64C08E
:1029F800D2F065C0D3F0000ED56F0A0ED46FE9ECA3
:102A080064F0D2C064F0D3C065F000016451300FA7
:102A1800A96FA50EDA6F000EDB6F050EDC6F5EEC9A
:102A280067F064EF13F0000E0001D36F0A0ED26F47
:102A3800D8EC61F0970E0001DA6F000EDB6F020E22
:102A4800DC6F5EEC67F0000E0001D36F0A0ED26FE8
:102A5800D8EC61F0C20E0001DA6FFF0EDB6F3CECC0
:102A680067F0000E0001D36F0A0ED26FD8EC61F048
:102A780000018151160DE00EF324D96E080EF420E2
:102A8800DA6EDF50986F98C0D2F0D36B000ED56F16
:102A9800640ED46F2AEC5EF00001D251300F976FAC
:102AA800970EDA6F000EDB6F010EDC6F5EEC67F0DD
:102AB800000E0001D36F0A0ED26FD8EC61F098C0F7
:102AC800E4F00001E56B000EE76F640EE66FC7ECFB
:102AD8005DF00001E451986F98C0D2F0D36B000EFE
:102AE800D56F0A0ED46F2AEC5EF00001D251300F78
:102AF800976F970EDA6F000EDB6F010EDC6F5EECDE
:102B080067F0000E0001D36F0A0ED26FD8EC61F0A7
:102B180098C0E4F00001E56B000EE76F0A0EE66F5F
:102B2800C7EC5DF00001E451986F9851300F976F32
:102B3800970EDA6F000EDB6F010EDC6F5EEC67F04C
:102B4800000E0001D36F0A0ED26FD8EC61F0B00E00
:102B58000001DA6FFF0EDB6F3CEC67F0000E00013E
:102B6800D36F0A0ED26FD8EC61F000018151160DB7
:102B7800E10EF324D96E080EF420DA6EDF50986F58
:102B880098C0E4F0E56B000EE76F640EE66FC7ECE3
:102B98005DF00001E451986F98C0D2F0D36B000E3D
:102BA800D56F0A0ED46F2AEC5EF00001D251300FB7
:102BB800976F970EDA6F000EDB6F010EDC6F5EEC1D
:102BC80067F0000E0001D36F0A0ED26FD8EC61F0E7
:102BD80098C0E4F00001E56B000EE76F0A0EE66F9F
:102BE800C7EC5DF00001E451986F9851300F976F72
:102BF800970EDA6F000EDB6F010EDC6F5EEC67F08C
:102C0800000E0001D36F0A0ED26FD8EC61F0F10EFE
:102C18000001DA6FFF0EDB6F3CEC67F0000E00017D
:102C2800D36F0A0ED26FD8EC61F000018151160DF6
:102C3800DC0EF324D96E080EF420DA6EDECF64F0D1
:102C4800DDCF65F064C0D8F065C0D9F0270EDB6F22
:102C5800100EDA6F25EC63F00001D851300F976F32
:102C680064C0D2F065C0D3F0270ED56F100ED46FB4
:102C7800E9EC64F0D2C064F0D3C065F064C0D8F069
:102C880065C0D9F0030E0001DB6FE80EDA6F25ECA2
:102C980063F00001D851300F986F64C0D2F065C05E
:102CA800D3F0030ED56FE80ED46FE9EC64F0D2C010
:102CB80064F0D3C065F064C0D8F065C0D9F0000EE8
:102CC8000001DB6F640EDA6F25EC63F00001D85168
:102CD800300F996F64C0D2F065C0D3F0000ED56F85
:102CE800640ED46FE9EC64F0D2C064F0D3C065F030
:102CF80064C0D8F065C0D9F0000E0001DB6F0A0E81
:102D0800DA6F25EC63F00001D851300F9A6F64C078
:102D1800D2F065C0D3F0000ED56F0A0ED46FE9EC7F
:102D280064F0D2C064F0D3C065F000016451300F84
:102D38009B6F970EDA6F000EDB6F050EDC6F5EEC93
:102D480067F0000E0001D36F0A0ED26FD8EC61F065
:102D5800EB0E0001DA6FFF0EDB6F3CEC67F0000E44
:102D68000001D36F0A0ED26FD8EC61F000018151D7
:102D7800160DDE0EF324D96E080EF420DA6EDECFBF
:102D880064F0DDCF65F064C0D8F065C0D9F0270ED7
:102D9800DB6F100EDA6F25EC63F00001D851300FAD
:102DA800976F64C0D2F065C0D3F0270ED56F100EB0
:102DB800D46FE9EC64F0D2C064F0D3C065F064C0AD
:102DC800D8F065C0D9F0030E0001DB6FE80EDA6FAA
:102DD80025EC63F00001D851300F986F64C0D2F031
:102DE80065C0D3F0030ED56FE80ED46FE9EC64F03C
:102DF800D2C064F0D3C065F064C0D8F065C0D9F023
:102E0800000E0001DB6F640EDA6F25EC63F0000141
:102E1800D851300F996F64C0D2F065C0D3F0000E5E
:102E2800D56F640ED46FE9EC64F0D2C064F0D3C0FF
:102E380065F064C0D8F065C0D9F0000E0001DB6F02
:102E48000A0EDA6F25EC63F00001D851300F9A6F43
:102E580064C0D2F065C0D3F0000ED56F0A0ED46FEF
:102E6800E9EC64F0D2C064F0D3C065F000016451AD
:102E7800300F9B6F970EDA6F000EDB6F050EDC6F5D
:102E88005EEC67F0000E0001D36F0A0ED26FD8EC2B
:102E980061F0750E0001DA6FFF0EDB6F3CEC67F036
:102EA800000E0001D36F0A0ED26FD8EC61F000015A
:102EB8008151160DE40EF324D96E080EF420DA6E53
:102EC800DF50986F98C0E4F0E56B000EE76F640E72
:102ED800E66FC7EC5DF00001E451986F98C0D2F03E
:102EE800D36B000ED56F0A0ED46F2AEC5EF000018A
:102EF800D251300F976F970EDA6F000EDB6F010E0D
:102F0800DC6F5EEC67F0000E0001D36F0A0ED26F23
:102F1800D8EC61F098C0E4F00001E56B000EE76FB3
:102F28000A0EE66FC7EC5DF00001E451986F985106
:102F3800300F976F970EDA6F000EDB6F010EDC6FA4
:102F48005EEC67F0000E0001D36F0A0ED26FD8EC6A
:102F580061F000018151160DE50EF324D96E080EBB
:102F6800F420DA6EDF50986F98C0E4F0E56B000E3D
:102F7800E76F640EE66FC7EC5DF00001E451986FEF
:102F880098C0D2F0D36B000ED56F0A0ED46F2AEC1E
:102F98005EF00001D251300F976F970EDA6F000E76
:102FA800DB6F010EDC6F5EEC67F0000E0001D36F83
:102FB8000A0ED26FD8EC61F098C0E4F00001E56B1E
:102FC800000EE76F0A0EE66FC7EC5DF00001E451F2
:102FD800986F9851300F976F970EDA6F000EDB6F6E
:102FE800010EDC6F5EEC67F0000E0001D36F0A0E75
:102FF800D26FD8EC61F000018151160DE60EF32472
:10300800D96E080EF420DA6EDF50986F98C0E4F09D
:10301800E56B000EE76F640EE66FC7EC5DF000012C
:10302800E451986F98C0D2F0D36B000ED56F0A0E9A
:10303800D46F2AEC5EF00001D251300F976F970ED3
:10304800DA6F000EDB6F010EDC6F5EEC67F0000ECE
:103058000001D36F0A0ED26FD8EC61F098C0E4F08B
:103068000001E56B000EE76F0A0EE66FC7EC5DF036
:103078000001E451986F9851300F976F970EDA6FEF
:10308800000EDB6F010EDC6F5EEC67F0000E0001D6
:10309800D36F0A0ED26FD8EC61F0FC0E0001DA6F24
:1030A800FF0EDB6F3CEC67F0000E0001D36F0A0ED9
:1030B800D26FD8EC61F000018151160DE20EF324B5
:1030C800D96E080EF420DA6EDF50986F98C0E4F0DD
:1030D800E56B000EE76F640EE66FC7EC5DF000016C
:1030E800E451986F98C0D2F0D36B000ED56F0A0EDA
:1030F800D46F2AEC5EF00001D251300F976F970E13
:10310800DA6F000EDB6F010EDC6F5EEC67F0000E0D
:103118000001D36F0A0ED26FD8EC61F098C0E4F0CA
:103128000001E56B000EE76F0A0EE66FC7EC5DF075
:103138000001E451986F9851300F976F970EDA6F2E
:10314800000EDB6F010EDC6F5EEC67F0000E000115
:10315800D36F0A0ED26FD8EC61F0B70E0001DA6FA8
:10316800FF0EDB6F3CEC67F0000E0001D36F0A0E18
:10317800D26FD8EC61F000018151160DE30EF324F3
:10318800D96E080EF420DA6EDF50986F98C0E4F01C
:10319800E56B000EE76F640EE66FC7EC5DF00001AB
:1031A800E451986F98C0D2F0D36B000ED56F0A0E19
:1031B800D46F2AEC5EF00001D251300F976F970E52
:1031C800DA6F000EDB6F010EDC6F5EEC67F0000E4D
:1031D8000001D36F0A0ED26FD8EC61F098C0E4F00A
:1031E8000001E56B000EE76F0A0EE66FC7EC5DF0B5
:1031F8000001E451986F9851300F976F970EDA6F6E
:10320800000EDB6F010EDC6F5EEC67F0000E000154
:10321800D36F0A0ED26FD8EC61F0F80E0001DA6FA6
:10322800FE0EDB6F3CEC67F000018151160DF00ECD
:10323800F324D96E080EF420DA6EDF50D8B427EFE5
:1032480019F029EF19F0A8EF1AF0880EDA6FFE0EC0
:10325800DB6F3CEC67F0000E0001D36F0A0ED26FF3
:10326800D8EC61F000018151160DE70EF324D96EF8
:10327800080EF420DA6EDF50986F98C0D2F0D36B46
:10328800000ED56F640ED46F2AEC5EF00001D251A7
:10329800300F976F970EDA6F000EDB6F010EDC6F41
:1032A8005EEC67F0000E0001D36F0A0ED26FD8EC07
:1032B80061F098C0E4F00001E56B000EE76F640E62
:1032C800E66FC7EC5DF00001E451986F98C0D2F04A
:1032D800D36B000ED56F0A0ED46F2AEC5EF0000196
:1032E800D251300F976F970EDA6F000EDB6F010E19
:1032F800DC6F5EEC67F0000E0001D36F0A0ED26F30
:10330800D8EC61F098C0E4F00001E56B000EE76FBF
:103318000A0EE66FC7EC5DF00001E451986F985112
:10332800300F976F970EDA6F000EDB6F010EDC6FB0
:103338005EEC67F0000E0001D36F0A0ED26FD8EC76
:1033480061F0C20E0001DA6FFF0EDB6F3CEC67F034
:10335800000E0001D36F0A0ED26FD8EC61F00001A5
:103368008151160DE80EF324D96E080EF420DA6E9A
:10337800DF50986F98C0D2F0D36B000ED56F640EF3
:10338800D46F2AEC5EF00001D251300F976F970E80
:10339800DA6F000EDB6F010EDC6F5EEC67F0000E7B
:1033A8000001D36F0A0ED26FD8EC61F098C0E4F038
:1033B8000001E56B000EE76F640EE66FC7EC5DF089
:1033C8000001E451986F98C0D2F0D36B000ED56F0E
:1033D8000A0ED46F2AEC5EF00001D251300F976FBD
:1033E800970EDA6F000EDB6F010EDC6F5EEC67F094
:1033F800000E0001D36F0A0ED26FD8EC61F098C0AE
:10340800E4F00001E56B000EE76F0A0EE66FC7EC0B
:103418005DF00001E451986F9851300F976F970E47
:10342800DA6F000EDB6F010EDC6F5EEC67F0000EEA
:103438000001D36F0A0ED26FD8EC61F0480E00017C
:10344800DA6FFF0EDB6F3CEC67F0000E0001D36F04
:103458000A0ED26FD8EC61F000018151160DE90E09
:10346800F324D96E080EF420DA6EDF50986F98C0F6
:10347800D2F0D36B000ED56F640ED46F2AEC5EF0D9
:103488000001D251300F976F970EDA6F000EDB6F85
:10349800010EDC6F5EEC67F0000E0001D36F0A0EC0
:1034A800D26FD8EC61F098C0E4F00001E56B000E33
:1034B800E76F640EE66FC7EC5DF00001E451986FAA
:1034C80098C0D2F0D36B000ED56F0A0ED46F2AECD9
:1034D8005EF00001D251300F976F970EDA6F000E31
:1034E800DB6F010EDC6F5EEC67F0000E0001D36F3E
:1034F8000A0ED26FD8EC61F098C0E4F00001E56BD9
:10350800000EE76F0A0EE66FC7EC5DF00001E451AC
:10351800986F9851300F976F970EDA6F000EDB6F28
:10352800010EDC6F5EEC67F0000E0001D36F0A0E2F
:10353800D26FD8EC61F0F80E0001DA6FFE0EDB6F87
:103548003CEC67F003EF1DF0A80EDA6FFE0EDB6FA0
:103558003CEC67F0000E0001D36F0A0ED26FD8EC76
:1035680061F003EF1DF0000E0001D36F0A0ED26F59
:10357800D8EC61F05F0E0001DA6FFF0EDB6F3CECF8
:1035880067F0000E0001D36F0A0ED26FD8EC61F01D
:1035980073C098F098C0E4F00001E56B000EE76F87
:1035A800640EE66FC7EC5DF00001E451986F98C0B7
:1035B800D2F0D36B000ED56F0A0ED46F2AEC5EF0F2
:1035C8000001D251300F976F970EDA6F000EDB6F44
:1035D800010EDC6F5EEC67F0000E0001D36F0A0E7F
:1035E800D26FD8EC61F098C0E4F00001E56B000EF2
:1035F800E76F0A0EE66FC7EC5DF00001E451986FC3
:103608009851300F976F970EDA6F000EDB6F010E2F
:10361800DC6F5EEC67F0000E0001D36F0A0ED26F0C
:10362800D8EC61F0D80E0001DA6FFF0EDB6F3CECCE
:1036380067F0000E0001D36F0A0ED26FD8EC61F06C
:103648009E0E0001DA6FFF0EDB6F3CEC67F0000E98
:103658000001D36F0A0ED26FD8EC61F072C098F0F7
:1036680098C0E4F00001E56B000EE76F640EE66FAA
:10367800C7EC5DF00001E451986F98C0D2F0D36BAD
:10368800000ED56F0A0ED46F2AEC5EF00001D251FD
:10369800300F976F970EDA6F000EDB6F010EDC6F3D
:1036A8005EEC67F0000E0001D36F0A0ED26FD8EC03
:1036B80061F098C0E4F00001E56B000EE76F0A0EB8
:1036C800E66FC7EC5DF00001E451986F9851300F38
:1036D800976F970EDA6F000EDB6F010EDC6F5EECF2
:1036E80067F0000E0001D36F0A0ED26FD8EC61F0BC
:1036F800D80E0001DA6FFF0EDB6F3CEC67F0000EAE
:103708000001D36F0A0ED26FD8EC61F0A70E00014A
:10371800DA6FFF0EDB6F3CEC67F0000E0001D36F31
:103728000A0ED26FD8EC61F071C098F098C0E4F03E
:103738000001E56B000EE76F640EE66FC7EC5DF005
:103748000001E451986F98C0D2F0D36B000ED56F8A
:103758000A0ED46F2AEC5EF00001D251300F976F39
:10376800970EDA6F000EDB6F010EDC6F5EEC67F010
:10377800000E0001D36F0A0ED26FD8EC61F098C02A
:10378800E4F00001E56B000EE76F0A0EE66FC7EC88
:103798005DF00001E451986F9851300F976F970EC4
:1037A800DA6F000EDB6F010EDC6F5EEC67F0000E67
:1037B8000001D36F0A0ED26FD8EC61F0E50E00015C
:1037C800DA6FFF0EDB6F3CEC67F0000E0001D36F81
:1037D8000A0ED26FD8EC61F06A0E0001DA6FFF0EA4
:1037E800DB6F3CEC67F0000E0001D36F0A0ED26F5E
:1037F800D8EC61F070C098F098C0E4F00001E56B77
:10380800000EE76F640EE66FC7EC5DF00001E4514F
:10381800986F98C0D2F0D36B000ED56F0A0ED46F94
:103828002AEC5EF00001D251300F976F970EDA6FD5
:10383800000EDB6F010EDC6F5EEC67F0000E00011E
:10384800D36F0A0ED26FD8EC61F098C0E4F0000193
:10385800E56B000EE76F0A0EE66FC7EC5DF000013E
:10386800E451986F9851300F976F970EDA6F000EEA
:10387800DB6F010EDC6F5EEC67F0000E0001D36FAA
:103888000A0ED26FD8EC61F0D80E0001DA6FFF0E85
:10389800DB6F3CEC67F0000E0001D36F0A0ED26FAD
:1038A800D8EC61F0D90E0001DA6FFE0EDB6F3CEC4C
:1038B80067F0000E0001D36F0A0ED26FD8EC61F0EA
:1038C8006FC098F098C0D2F00001D36B000ED56F8E
:1038D800640ED46F2AEC5EF00001D251300F976F5E
:1038E800970EDA6F000EDB6F010EDC6F5EEC67F08F
:1038F800000E0001D36F0A0ED26FD8EC61F098C0A9
:10390800E4F00001E56B000EE76F640EE66FC7ECAC
:103918005DF00001E451986F98C0D2F0D36B000EAF
:10392800D56F0A0ED46F2AEC5EF00001D251300F29
:10393800976F970EDA6F000EDB6F010EDC6F5EEC8F
:1039480067F0000E0001D36F0A0ED26FD8EC61F059
:1039580098C0E4F00001E56B000EE76F0A0EE66F11
:10396800C7EC5DF00001E451986F9851300F976FE4
:10397800970EDA6F000EDB6F010EDC6F5EEC67F0FE
:10398800000E0001D36F0A0ED26FD8EC61F0E50E7D
:103998000001DA6FFF0EDB6F3CEC67F0AEEF1AF058
:1039A8000201FE510301F96FFA6BFA51000AD8B40B
:1039B800E0EF1CF003EF1DF0F951010AD8B45BEFFA
:1039C80013F0030AD8B46DEF13F0010AD8B478EFF6
:1039D80013F0070AD8B483EF13F0010AD8B48EEFB6
:1039E80013F0030AD8B473EF14F0010AD8B417EF30
:1039F80015F00F0AD8B4B7EF1AF003EF1DF0000E58
:103A08000001936F000E826F1A0E2DEC69F0000E04
:103A18000001D36F640ED26FD8EC61F0000E000184
:103A2800D26F000E46EC69F0C98000019351D8B4FA
:103A380020EF1DF022EF1DF019EF1DF00E01388563
:103A4800000E0001D26F0F0E46EC69F0010E000166
:103A5800D36FF40ED26FD8EC61F01200000E05019E
:103A6800FE6FD7A23AEF1DF03CEF1DF066EF1DF098
:103A7800D7A441EF1DF043EF1DF066EF1DF0D7A668
:103A880048EF1DF04AEF1DF066EF1DF0D7A04FEF8D
:103A98001DF051EF1DF066EF1DF0D7A856EF1DF091
:103AA80058EF1DF066EF1DF0D7BE5DEF1DF05FEF1C
:103AB8001DF066EF1DF0D7AC64EF1DF066EF1DF04A
:103AC800A4EF20F0D7A26BEF1DF06DEF1DF074EF9F
:103AD8001DF0D7B072EF1DF074EF1DF079EF1DF0F7
:103AE800D786D784D788D79ED79CD7B27EEF1DF0CC
:103AF80080EF1DF085EF1DF0010EFE6FD782C9EF34
:103B08001DF0D7B08AEF1DF08CEF1DF091EF1DF07E
:103B1800020EFE6FD780C9EF1DF0D7B696EF1DF0E5
:103B280098EF1DF09DEF1DF0030EFE6FD786C9EFCD
:103B38001DF0D7B4A2EF1DF0A4EF1DF0A9EF1DF002
:103B4800040EFE6FD784C9EF1DF0D7B8AEEF1DF095
:103B5800B0EF1DF0B5EF1DF0050EFE6FD788C9EF69
:103B68001DF0D7BEBAEF1DF0BCEF1DF0C3EF1DF07E
:103B7800D7ACC1EF1DF0C3EF1DF0C9EF1DF0060E65
:103B8800FE6FD79ED79CC9EF1DF0030EFE19D8B45F
:103B9800D0EF1DF0D2EF1DF0D9EF1DF0750E00012A
:103BA800D36F300ED26FD8EC61F062EC54F0030E94
:103BB8000001D36FE80ED26FD8EC61F047EC46F005
:103BC800030E0001D36FE80ED26FD8EC61F024EC3D
:103BD80055F0030E0001D36FE80ED26FD8EC61F0F8
:103BE800D3EC55F0030E0001D36FE80ED26FD8EC7A
:103BF80061F000018651D8A404EF1EF006EF1EF014
:103C08000EEF1EF0010E866F47EC5FF060EC63F07C
:103C18008CEC66F0030E0501FE19D8A416EF1EF011
:103C280018EF1EF0A2EF20F0000E0001816F38EFB0
:103C38001EF0010ED26F000E46EC69F0010E000175
:103C4800D36FF40ED26FD8EC61F0010E0001D26F81
:103C58000F0E46EC69F0010E0001D36FF40ED26F1F
:103C6800D8EC61F00001812B050E81613EEF1EF05A
:103C780040EF1EF048EF1EF08051D8B446EF1EF01A
:103C880048EF1EF01DEF1EF08051D8A44EEF1EF035
:103C980050EF1EF070EF20F0010E816F090E816564
:103CA80058EF1EF05AEF1EF05CEF1EF070EF1EF09A
:103CB800802B68EC66F0010E0001D26F815146EC52
:103CC80069F0270E0001D36F100ED26FD8EC61F0A7
:103CD8000001812B52EF1EF0000E0001806F68EC8E
:103CE80066F0A2EF20F0000E0001806F68EC66F02D
:103CF800000E0001816F040E816585EF1EF087EFCD
:103D08001EF089EF1EF0A6EF1EF0010ED26F0F0E07
:103D180046EC69F0010E0001D36FF40ED26FD8ECB7
:103D280061F0010E0001D26F010E46EC69F0030E3E
:103D38000001D36FE80ED26FD8EC61F00001812B3F
:103D48007FEF1EF0000EDF6F020EF4EC41F08E9E46
:103D5800000E0001826F2C0E0201FA6FFA0EFB6F43
:103D6800AB0EFC6F000EFD6F050EFE6F1EEC13F020
:103D780070EF1EF0000E0001806F68EC66F0000E18
:103D88000001816F040E8165CCEF1EF0CEEF1EF0AE
:103D9800D0EF1EF0EDEF1EF0010ED26F0F0E46ECC5
:103DA80069F0010E0001D36FF40ED26FD8EC61F008
:103DB800010E0001D26F020E46EC69F0030E0001FD
:103DC800D36FE80ED26FD8EC61F00001812BC6EFFB
:103DD8001EF0000EDF6F010EF4EC41F0ACEF1EF0A8
:103DE800000E0001806F68EC66F0000E0001816F24
:103DF800040E816502EF1FF004EF1FF006EF1FF0BD
:103E080023EF1FF0010ED26F0F0E46EC69F0010E82
:103E18000001D36FF40ED26FD8EC61F0010E0001EF
:103E2800D26F030E46EC69F0030E0001D36FE80E63
:103E3800D26FD8EC61F00001812BFCEF1EF0E0ECB2
:103E480049F070EF1EF0000E0001806F68EC66F01C
:103E5800000E0001816F040E816535EF1FF037EF0A
:103E68001FF039EF1FF070EF1EF0010ED26F0F0E2A
:103E780046EC69F0010E0001D36FF40ED26FD8EC56
:103E880061F0010E0001D26F040E46EC69F0030EDA
:103E98000001D36FE80ED26FD8EC61F00001812BDE
:103EA8002FEF1FF0000E0001806F68EC66F0000E27
:103EB8000001816F040E816564EF1FF066EF1FF04B
:103EC80068EF1FF070EF1EF0010ED26F0F0E46EC78
:103ED80069F0010E0001D36FF40ED26FD8EC61F0D7
:103EE800010E0001D26F050E46EC69F0030E0001C9
:103EF800D36FE80ED26FD8EC61F00001812B5EEF32
:103F08001FF0000E0001806F68EC66F0000E0001E3
:103F1800816F040E816593EF1FF095EF1FF097EF07
:103F28001FF070EF1EF0010ED26F0F0E46EC69F015
:103F3800010E0001D36FF40ED26FD8EC61F0010EC0
:103F48000001D26F060E46EC69F0030E0001D36F34
:103F5800E80ED26FD8EC61F00001812B8DEF1FF0D5
:103F6800000E0001806F68EC66F000019651D8B42D
:103F7800C0EF1FF0C2EF1FF070EF1EF0000E816F50
:103F8800040E8165CAEF1FF0CCEF1FF0CEEF1FF0D3
:103F9800EBEF1FF0010ED26F0F0E46EC69F0010E29
:103FA8000001D36FF40ED26FD8EC61F0010E00015E
:103FB800D26F070E46EC69F0030E0001D36FE80ECE
:103FC800D26FD8EC61F00001812BC4EF1FF0D7EC61
:103FD80051F04BEC65F0030E0001D36FE80ED26F81
:103FE800D8EC61F047EC46F070EF1EF0000E0001CF
:103FF800806F68EC66F000019651D8B406EF20F0A7
:1040080008EF20F070EF1EF0000E816F040E81653E
:1040180010EF20F012EF20F014EF20F031EF20F035
:10402800010ED26F0F0E46EC69F0010E0001D36F3E
:10403800F40ED26FD8EC61F0010E0001D26F080EB9
:1040480046EC69F0030E0001D36FE80ED26FD8EC8E
:1040580061F00001812B0AEF20F0D7EC51F0EFEF6F
:104068001FF0000E0001806F68EC66F000019651A9
:10407800D8B441EF20F043EF20F070EF1EF0000EAF
:10408800816F040E81654BEF20F04DEF20F04FEF6C
:1040980020F06CEF20F0010ED26F0F0E46EC69F0A5
:1040A800010E0001D36FF40ED26FD8EC61F0010E4F
:1040B8000001D26F090E46EC69F0030E0001D36FC0
:1040C800E80ED26FD8EC61F00001812B45EF20F0AB
:1040D8004BEC65F0EFEF1FF080510401FE6FFF6BB2
:1040E800FF51000AD8B47BEF20F070EF1EF0FE51AC
:1040F800010AD8B477EF1EF0030AD8B4BEEF1EF059
:10410800010AD8B4F4EF1EF0070AD8B427EF1FF05D
:10411800010AD8B456EF1FF0030AD8B485EF1FF090
:10412800010AD8B4B4EF1FF00F0AD8B4FAEF1FF0A1
:10413800010AD8B435EF20F070EF1EF01CEC65F0E2
:1041480000019651D8B4ABEF20F0ADEF20F0A8EF06
:1041580023F01AEC67F00009D8B4B5EF20F0B7EFF8
:1041680020F0CEEF20F0FF0E0001696FDC0E686FC3
:10417800660E0201FA6FF70EFB6FAB0EFC6F000EB6
:10418800FD6F000EFE6F1EEC13F0010E0001886F2C
:10419800CFEF23F0000E00017F6F000E816F2CEF30
:1041A80022F08151160DEE0EF324D96E080EF4207C
:1041B800DA6EDE04D8A4E3EF20F0E5EF20F02BEF71
:1041C80022F08DEC5EF000018151160DE60EF3240D
:1041D800D96E080EF420DA6E7B51DE5CD8A0F7EFBA
:1041E80020F0F9EF20F092EF21F08151160DE50E45
:1041F800F324D96E080EF420DA6E7A51DE5CD8B05A
:1042080008EF21F00AEF21F01BEF21F08151160D84
:10421800E60EF324D96E080EF420DA6E7B51DE1810
:10422800D8B419EF21F01BEF21F092EF21F0815162
:10423800160DE40EF324D96E080EF420DA6E7951C7
:10424800DE5CD8B02AEF21F02CEF21F04EEF21F000
:104258008151160DE50EF324D96E080EF420DA6E9E
:104268007A51DE18D8A43BEF21F03DEF21F04EEF54
:1042780021F08151160DE60EF324D96E080EF420B4
:10428800DA6E7B51DE18D8B44CEF21F04EEF21F0F6
:1042980092EF21F08151160DE20EF324D96E080E2B
:1042A800F420DA6E7851DE5CD8B05DEF21F05FEF74
:1042B80021F025EF22F08151160DE40EF324D96E7A
:1042C800080EF420DA6E7951DE18D8A46EEF21F0CA
:1042D80070EF21F025EF22F08151160DE50EF32441
:1042E800D96E080EF420DA6E7A51DE18D8A47FEF62
:1042F80021F081EF21F025EF22F08151160DE60E15
:10430800F324D96E080EF420DA6E7B51DE18D8A497
:1043180090EF21F092EF21F025EF22F0000E8F6F41
:104328008151160DEE0EF324D96E080EF420DA6EC4
:10433800000EDF6E8151160DEC0EF324D96E080EB7
:10434800F420DA6E8151160DED0EF324E16E080E9D
:10435800F420E26EDFCFE7FF81C07FF08151160DB8
:10436800F00EF324D96E080EF420DA6EDF50D8B4BC
:10437800C0EF21F0C2EF21F01CEF22F08151160DA1
:10438800EB0EF324D96E080EF420DA6E020EDE1856
:10439800D8A4D1EF21F0D3EF21F0F1EF21F0815132
:1043A800160DEB0EF324D96E080EF420DA6E000E0B
:1043B800DF6E8151160DF10EF324D96E080EF4202C
:1043C800DA6E010EDF6EF3EC5FF0DCC066F0DDC084
:1043D80067F0A5EC62F01CEF22F08151160DEB0E90
:1043E800F324D96E080EF420DA6E030EDE18D8B462
:1043F80000EF22F002EF22F012EF22F08151160DA9
:10440800EB0EF324D96E080EF420DA6EDE04D8A47D
:1044180010EF22F012EF22F01CEF22F08151160D5E
:10442800EB0EF324D96E080EF420DA6E000EDF6E60
:10443800000E0001D36F640ED26FD8EC61F034EF38
:1044480022F0010E8F6F81C07FF034EF22F0812BB4
:104458000B0E816532EF22F034EF22F0D5EF20F019
:1044680000018F51D8B43BEF22F03DEF22F048EF26
:1044780023F0010E8C6F090E816145EF22F047EFA2
:1044880022F04EEF22F0300E976F8151310F986F66
:10449800BFEF22F0080E816554EF22F056EF22F0AC
:1044A800BFEF22F00C0E81615CEF22F05EEF22F08C
:1044B800BFEF22F0310E976F8151270F986FBFEF32
:1044C80022F0A40E0201FA6FF40EFB6FAB0EFC6F24
:1044D800000EFD6F020EFE6F1EEC13F0E6EF22F0E9
:1044E8003F0E0201FA6FF50EFB6FAB0EFC6F000E6C
:1044F800FD6F020EFE6F1EEC13F0E6EF22F0F20ED7
:104508000201FA6FF40EFB6FAB0EFC6F000EFD6F2D
:10451800020EFE6F1EEC13F0E6EF22F0520E0201BF
:10452800FA6FF40EFB6FAB0EFC6F000EFD6F020E00
:10453800FE6F1EEC13F0E6EF22F0D40E0201FA6FC4
:10454800F50EFB6FAB0EFC6F000EFD6F020EFE6FDB
:104558001EEC13F0E6EF22F08A0E0201FA6FF50E58
:10456800FB6FAB0EFC6F000EFD6F020EFE6F1EECB4
:1045780013F0E6EF22F00501FE510401FE6FFF6B18
:10458800FF51000AD8B4CBEF22F0E6EF22F0FE513B
:10459800010AD8B465EF22F0030AD8B474EF22F008
:1045A800010AD8B483EF22F0070AD8B492EF22F0B8
:1045B800010AD8B4A1EF22F0030AD8B4B0EF22F070
:1045C800E6EF22F0F3EC5FF0DCC068F0DDC069F0E4
:1045D800CFEF23F02B0E0201FA6FFB0EFB6FAB0E31
:1045E800FC6F000EFD6F000EFE6F1EEC13F06FEFF8
:1045F80023F0080E0201FA6FFD0EFB6FAB0EFC6F85
:10460800000EFD6F000EFE6F1EEC13F06FEF23F02F
:10461800500E0201FA6FFB0EFB6FAB0EFC6F000E23
:10462800FD6F000EFE6F1EEC13F06FEF23F0B20E5D
:104638000201FA6FFA0EFB6FAB0EFC6F000EFD6FF6
:10464800000EFE6F1EEC13F06FEF23F0650E0201F3
:10465800FA6FFC0EFB6FAB0EFC6F000EFD6F000EC9
:10466800FE6F1EEC13F06FEF23F0440E0201FA6F99
:10467800FC0EFB6FAB0EFC6F000EFD6F000EFE6FA5
:104688001EEC13F06FEF23F00501FE510401FE6FDD
:10469800FF6BFF51000AD8B454EF23F06FEF23F0FB
:1046A800FE51010AD8B4EEEF22F0030AD8B4FDEFA8
:1046B80022F0010AD8B40CEF23F0070AD8B41BEF94
:1046C80023F0010AD8B42AEF23F0030AD8B439EF4B
:1046D80023F06FEF23F0CFEF23F0000ED26F010E1F
:1046E80046EC69F0B60E0001D26F000ED36F490E8A
:1046F800D46F000ED56F000ED76F060ED66F62EC22
:1047080062F0FF0E0001696FDC0E686FE0EC4DF09F
:1047180000019551D8B493EF23F095EF23F0A8EF5B
:1047280023F0010ED26F020E46EC69F0010E000173
:10473800D36FF40ED26FD8EC61F0000E0001956FC4
:1047480096EC01F01CEC65F000019651D8B4AFEF7F
:1047580023F0B1EF23F071EF23F01AEC67F00009B2
:10476800D8B4B9EF23F0BBEF23F0CFEF23F0FF0E5F
:104778000001696FDC0E686FEA0E0201FA6FF60E2F
:10478800FB6FAB0EFC6F000EFD6F000EFE6F1EEC94
:1047980013F0C9EF20F099EC63F00009D8B4D7EF13
:1047A80023F0D9EF23F003EF24F06A0E0201FA6F29
:1047B800F90EFB6FAB0EFC6F000EFD6F000EFE6F67
:1047C8001EEC13F000018551D8B4EDEF23F0EFEFA4
:1047D80023F060EF24F0EFEC4FF0030E0001D36FED
:1047E800E80ED26FD8EC61F0EFEC5EF0030E00013A
:1047F800D36FE80ED26FD8EC61F060EF24F00001BF
:104808008A51D8B40AEF24F00CEF24F056EF24F0C4
:10481800000E8A6F000ED36F640ED26FD8EC61F071
:10482800B0EC66F0000E0001D36F640ED26FD8ECC6
:1048380061F000018551D8B424EF24F026EF24F06C
:1048480047EF24F0EFEC4FF0030E0001D36FE80EB2
:10485800D26FD8EC61F0EFEC5EF0030E0001D36F7D
:10486800E80ED26FD8EC61F0C70E0201FA6FF80EAD
:10487800FB6FAB0EFC6F000EFD6F000EFE6F1EECA3
:1048880013F060EF24F08F0E0201FA6FF80EFB6F41
:10489800AB0EFC6F000EFD6F000EFE6F1EEC13F0EA
:1048A80060EF24F08551D8B45CEF24F05EEF24F07B
:1048B80060EF24F0EFEF23F0120000018F51D8B41D
:1048C80068EF24F06AEF24F0ADEF27F06851691122
:1048D800D8A471EF24F073EF24F0ADEF27F09151D5
:1048E800D8A479EF24F07BEF24F0ADEF27F08B51BB
:1048F800D8A481EF24F083EF24F0ADEF27F08D5199
:10490800D8A489EF24F08BEF24F0ADEF27F0905175
:10491800D8A491EF24F093EF24F0ADEF27F0000E28
:104928000101FF6FA3EF27F0FF51160DEE0EF324E0
:10493800D96E080EF420DA6EDE04D8A4A6EF24F0AF
:10494800A8EF24F07BEF25F0FF51160DF00EF324AD
:10495800D96E080EF420DA6EDF50D8B4B6EF24F022
:10496800B8EF24F07BEF25F0FF51160DEB0EF32482
:10497800D96E080EF420DA6EDE04D8A4C6EF24F04F
:10498800C8EF24F07BEF25F0030E0001D36FE80E8B
:10499800D26FD8EC61F08E8C0101FF51160DEB0E31
:1049A800F324D96E080EF420DA6E020EDF6EFF5182
:1049B800160DF10EF324D96E080EF420DA6EDF50CE
:1049C800D8B4E9EF24F0EBEF24F001EF25F0FF5124
:1049D800160DF10EF324D96E080EF420DA6E000ECF
:1049E800DF6E9DEC5FF0DCC066F0DDC067F066C08E
:1049F80068F067C069F010EF25F0FF51160DE80E5A
:104A0800F324D96E080EF420DA6EDF500301FB6F31
:104A1800FB510001686F696B000E0001D36F640ED3
:104A2800D26FD8EC61F00101FF51020D4B0EF32457
:104A3800F66EF20EF420F76E0900F5CFDAF00A00F0
:104A4800F5CFDBF0FF51160DDC0EF3240001DC6F0F
:104A5800080EF420DD6FEEEC60F0000E0001D36F5D
:104A6800640ED26FD8EC61F0E5EC62F0000E000144
:104A7800D36F640ED26FD8EC61F0090E0101FF61AB
:104A880048EF25F04AEF25F054EF25F0300E0001ED
:104A9800976F0101FF51310F0001986F6CEF25F0FE
:104AA800080EFF655AEF25F05CEF25F06CEF25F056
:104AB8000C0EFF6162EF25F064EF25F06CEF25F036
:104AC800310E0001976F0101FF51270F0001986F08
:104AD800000E0201FA6FFC0EFB6FAB0EFC6F000EAE
:104AE800FD6F020EFE6F1EEC13F06EEF29F0FF5102
:104AF800160DEE0EF324D96E080EF420DA6EDE04DD
:104B0800D8A489EF25F08BEF25F0B9EF26F0FF51F7
:104B1800160DF00EF324D96E080EF420DA6EDF506D
:104B2800D8B499EF25F09BEF25F0B9EF26F0FF51A7
:104B3800160DEB0EF324D96E080EF420DA6E020E71
:104B4800DE18D8A4AAEF25F0ACEF25F0B9EF26F0CF
:104B5800030E0001D36FE80ED26FD8EC61F08E9C83
:104B68000101FF51160DEB0EF324D96E080EF42047
:104B7800DA6E030EDF6EFF51160DE90EF324D96EBF
:104B8800080EF420DA6EDF06FF51160DE90EF32445
:104B9800D96E080EF420DA6EDF50D8A4D6EF25F0CF
:104BA800D8EF25F0E2EF25F0FF51160DF00EF324B3
:104BB800D96E080EF420DA6E000EDF6E000E0001CA
:104BC800D36F640ED26FD8EC61F00101FF51020D72
:104BD8004B0EF324F66EF20EF420F76E0900F5CFB3
:104BE800DAF00A00F5CFDBF0FF51160DDC0EF324E6
:104BF8000001DC6F080EF420DD6F6CEC58F0000E3D
:104C08000001D36F640ED26FD8EC61F00101FF513F
:104C1800160DE00EF324D96E080EF420DA6EDF507C
:104C28000301FB6FFC6B0101FF51160DE70EF32426
:104C3800D96E080EF420DA6EDF500301FD6FFD51C6
:104C4800FB5F000EFC5B0101FF51160DE80EF3241B
:104C5800D96E080EF420DA6EDF500301FE6FFE51A4
:104C6800FB5D0001686F0301FC51D8A0FC05000141
:104C7800696F000ED36F640ED26FD8EC61F0E5EC6B
:104C880062F0000E0001D36F640ED26FD8EC61F0B1
:104C9800090E0101FF6153EF26F055EF26F05FEF93
:104CA80026F0300E0001976F0101FF51310F00010E
:104CB800986F77EF26F0080EFF6565EF26F067EF2F
:104CC80026F077EF26F00C0EFF616DEF26F06FEF00
:104CD80026F077EF26F0310E0001976F0101FF51A2
:104CE800270F0001986F00018351D8B47EEF26F09A
:104CF80080EF26F091EF26F0000E836FA20E0201DE
:104D0800FA6FF70EFB6FAB0EFC6F000EFD6F020E15
:104D1800FE6F1EEC13F06EEF29F09451D8B497EFA4
:104D280026F099EF26F0AAEF26F0000E946F1E0EDB
:104D38000201FA6FF60EFB6FAB0EFC6F000EFD6FF3
:104D4800020EFE6F1EEC13F06EEF29F0DE0E02016C
:104D5800FA6FFB0EFB6FAB0EFC6F000EFD6F020EC1
:104D6800FE6F1EEC13F06EEF29F0FF51160DEE0EDC
:104D7800F324D96E080EF420DA6EDE04D8A4C7EF47
:104D880026F0C9EF26F0A2EF27F0FF51160DEE0E20
:104D9800F324D96E080EF420DA6E000EDF6EFF5190
:104DA800160DEC0EF324D96E080EF420DA6EFF51BE
:104DB800160DED0EF324E16E080EF420E26EDE50BF
:104DC800E618D8A4EAEF26F0ECEF26F0F8EF26F084
:104DD800FF51160DED0EF324D96E080EF420DA6E8D
:104DE800010EDF6E01EF27F0FF51160DED0EF324D3
:104DF800D96E080EF420DA6EDF2A000E00018F6FDC
:104E0800010E8E6F0101FF2900017F6F000ED36F25
:104E1800640ED26FD8EC61F00101FF511DEC66F011
:104E2800000E0001D36F640ED26FD8EC61F001015F
:104E3800FF51020D4B0EF324F66EF20EF420F76EBE
:104E48000900F5CFDAF00A00F5CFDBF0FF51160DB7
:104E5800DC0EF3240001DC6F080EF420DD6FBFECDC
:104E680067F0000E0001D36F640ED26FD8EC61F0CA
:104E78000101FF51020D4B0EF324F66EF20EF420E1
:104E8800F76E0900F5CFDAF00A00F5CFDBF0FF5135
:104E9800160DDC0EF3240001DC6F080EF420DD6F24
:104EA8009FEC67F0000E0001D36F640ED26FD8EC50
:104EB80061F00101FF51160DF00EF324D96E080EB2
:104EC800F420DA6EDF50D8B46CEF27F06EEF27F0DD
:104ED8006EEF29F0FF51160DEB0EF324D96E080E74
:104EE800F420DA6E000EDF6E000E0001D36F640E40
:104EF800D26FD8EC61F00101FF51020D4B0EF32483
:104F0800F66EF20EF420F76E0900F5CFDAF00A001B
:104F1800F5CFDBF0FF51160DDC0EF3240001DC6F3A
:104F2800080EF420DD6FEEEC60F0000E0001D36F88
:104F3800640ED26FD8EC61F06EEF29F0FF2B0B0EE8
:104F4800FF65A9EF27F0ABEF27F098EF24F06EEF9D
:104F580029F08D51D8B4B3EF27F0B5EF27F06EEFF5
:104F680029F0000E8D6F000E0101FF6F66EF29F02A
:104F7800FF51160DEE0EF324D96E080EF420DA6EEA
:104F8800DE04D8A4CAEF27F0CCEF27F065EF29F0AC
:104F9800FF51160DEF0EF324D96E080EF420DA6EC9
:104FA800DF50D8A4DAEF27F0DCEF27F0A7EF28F0DE
:104FB800FF51160DEE0EF324D96E080EF420DA6EAA
:104FC800000EDF6EFF51160DEC0EF324D96E080E9D
:104FD800F420DA6EFF51160DED0EF324E16E080E83
:104FE800F420E26EDE50E618D8A4FDEF27F0FFEFBC
:104FF80027F00BEF28F0FF51160DED0EF324D96EB4
:10500800080EF420DA6E010EDF6E14EF28F0FF515F
:10501800160DED0EF324D96E080EF420DA6EDF2A91
:10502800FF51160DEB0EF324D96E080EF420DA6E3C
:10503800020EDE18D8A423EF28F025EF28F050EF51
:1050480028F08E9CFF51160DEB0EF324D96E080E36
:10505800F420DA6E000EDF6EFF51020D4B0EF324C2
:10506800F66EF20EF420F76E0900F5CFDAF00A00BA
:10507800F5CFDBF0FF51160DDC0EF3240001DC6FD9
:10508800080EF420DD6FEEEC60F0000E0001D36F27
:10509800640ED26FD8EC61F0000E00018F6F010E24
:1050A8008E6F0101FF2900017F6F000ED36F640E20
:1050B800D26FD8EC61F00101FF511DEC66F0000ED3
:1050C8000001D36F640ED26FD8EC61F00101FF517B
:1050D800020D4B0EF324F66EF20EF420F76E090063
:1050E800F5CFDAF00A00F5CFDBF0FF51160DDC0E34
:1050F800F3240001DC6F080EF420DD6FBFEC67F0CD
:10510800000E0001D36F640ED26FD8EC61F001017C
:10511800FF51020D4B0EF324F66EF20EF420F76EDB
:105128000900F5CFDAF00A00F5CFDBF0FF51160DD4
:10513800DC0EF3240001DC6F080EF420DD6F9FEC19
:1051480067F099EF27F0FF51160DEB0EF324D96E97
:10515800080EF420DA6EDE04D8A4B5EF28F0B7EF15
:1051680028F0E9EF28F0F3EC5FF0DCC068F0DDC070
:1051780069F00101FF51160DE00EF324D96E080EF7
:10518800F420DA6EDF500301FB6FFC6B0101FF5165
:10519800160DE70EF324D96E080EF420DA6EDF50F0
:1051A8000301FD6FFD51FB5F000EFC5B00016851C0
:1051B8000301FB250001686F69510301FC2100010F
:1051C800696FE5EC62F099EF27F0FF51160DEB0ED1
:1051D800F324D96E080EF420DA6E020EDE18D8A475
:1051E800F8EF28F0FAEF28F065EF29F08E9CFF51D0
:1051F800160DEB0EF324D96E080EF420DA6E000EAD
:10520800DF6EFF51020D4B0EF324F66EF20EF42002
:10521800F76E0900F5CFDAF00A00F5CFDBF0FF51A1
:10522800160DDC0EF3240001DC6F080EF420DD6F90
:10523800EEEC60F0000E0001D36F640ED26FD8EC74
:1052480061F0F3EC5FF0DCC068F0DDC069F00101EB
:10525800FF51160DE00EF324D96E080EF420DA6E15
:10526800DF500301FB6FFC6B0101FF51160DE70EC8
:10527800F324D96E080EF420DA6EDF500301FD6FB7
:10528800FD51FB5F000EFC5B0101FF51160DE80E9E
:10529800F324D96E080EF420DA6EDF500301FE6F96
:1052A800FE51FB5F000EFC5B000168510301FB250A
:1052B8000001686F69510301FC210001696FE5EF86
:1052C80028F0FF2B0B0EFF656CEF29F06EEF29F02D
:1052D800BCEF27F01200010E0601F36F6E0EF26F9D
:1052E800010EF56F6D0EF46F000EF76F000EF66F7E
:1052F800FF0E0001696FDC0E686F000E926F0B0ED7
:105308007F6589EF29F08BEF29F08DEF29F0000EEA
:105318007F6F7FC081F034EF2DF08151160DEF0EB5
:10532800F324D96E080EF420DA6EDF50D8B49FEF5C
:1053380029F0A1EF29F032EF2DF08151160DEE0E74
:10534800F324D96E080EF420DA6EDE04D8B4AFEF79
:1053580029F0B1EF29F032EF2DF09251D8A4B7EF30
:1053680029F0B9EF29F0CFEF29F0000ED36F640EC2
:10537800D26FD8EC61F08DEC5EF0000E0001D36FB7
:10538800640ED26FD8EC61F0010E0001926FFF0E2F
:10539800696FDC0E686F8151160DE60EF324D96E25
:1053A800080EF420DA6E7B51DE5CD8A0DEEF29F01F
:1053B800E0EF29F0CEEF2AF08151160DE50EF32427
:1053C800D96E080EF420DA6E7A51DE5CD8B0EFEFB1
:1053D80029F0F1EF29F002EF2AF08151160DE60EBF
:1053E800F324D96E080EF420DA6E7B51DE18D8B497
:1053F80000EF2AF002EF2AF0CEEF2AF08151160DC5
:10540800E40EF324D96E080EF420DA6E7951DE5CCE
:10541800D8B011EF2AF013EF2AF035EF2AF08151B6
:10542800160DE50EF324D96E080EF420DA6E7A51C3
:10543800DE18D8A422EF2AF024EF2AF035EF2AF05C
:105448008151160DE60EF324D96E080EF420DA6E9B
:105458007B51DE18D8B433EF2AF035EF2AF0CEEFBF
:105468002AF08151160DE20EF324D96E080EF420AD
:10547800DA6E7851DE5CD8B044EF2AF046EF2AF0B5
:1054880079EF2AF08151160DE40EF324D96E080E37
:10549800F420DA6E7951DE18D8A455EF2AF057EFC8
:1054A8002AF079EF2AF08151160DE50EF324D96E12
:1054B800080EF420DA6E7A51DE18D8A466EF2AF0C6
:1054C80068EF2AF079EF2AF08151160DE60EF324E1
:1054D800D96E080EF420DA6E7B51DE18D8B477EF57
:1054E8002AF079EF2AF0CEEF2AF08151160DE30E5B
:1054F800F324D96E080EF420DA6EDE50775DD8A05A
:1055080088EF2AF08AEF2AF0D2EF2AF08151160D9F
:10551800E20EF324D96E080EF420DA6E7851DE1804
:10552800D8A499EF2AF09BEF2AF0D2EF2AF0815104
:10553800160DE40EF324D96E080EF420DA6E7951B4
:10554800DE18D8A4AAEF2AF0ACEF2AF0D2EF2AF09E
:105558008151160DE50EF324D96E080EF420DA6E8B
:105568007A51DE18D8A4BBEF2AF0BDEF2AF0D2EFAB
:105578002AF08151160DE60EF324D96E080EF42098
:10558800DA6E7B51DE18D8A4CCEF2AF0CEEF2AF0E1
:10559800D2EF2AF0010E8F6F3CEF2DF08151160DDE
:1055A800EC0EF324D96E080EF420DA6E8151160D34
:1055B800ED0EF324E16E080EF420E26EDE50E65C98
:1055C800D8B0E9EF2AF0EBEF2AF0EDEF2AF0CEEFB2
:1055D8002AF0000E8F6F000E0601F86F000EF96FAB
:1055E800000EFA6F000EFB6F7BC0F7F64BEF2BF047
:1055F800D00EF7250001D26FD36B070ED323000E10
:10560800D56F640ED46FE9EC64F00001D251D31168
:10561800D8B411EF2BF013EF2BF041EF2BF0F7C6B6
:10562800E0F0030EE017D8A41CEF2BF01EEF2BF0D0
:1056380041EF2BF0D00E0601F7250001D26FD36B96
:10564800070ED323010ED56F900ED46FE9EC64F0EA
:105658000001D251D311D8A434EF2BF036EF2BF040
:1056680041EF2BF00601F251F827F351F923000E10
:10567800FA23000EFB234AEF2BF00601F451F8271A
:10568800F551F923000EFA23000EFB23F72B000136
:105698008151160DE60EF324D96E080EF420DA6E49
:1056A800DE500601F75DD8A05CEF2BF05EEF2BF023
:1056B800FCEF2AF000018151160DE60EF324D96E95
:1056C800080EF420DA6EDF50D76F8151160DE50E03
:1056D800F324D96E080EF420DA6EDF50D3EC57F0BD
:1056E8000001D7510601F8270001D8510601F92316
:1056F800000EFA23000EFB2300018151160DE40E63
:10570800F324D96E080EF420DA6EDF50E06FE05112
:105718000601F827000EF923FA23FB237BC0D7F0F4
:1057280000017A51D3EC57F00001D751E06FD851FE
:10573800E16FE26BE36BE0510601F85F0001E151B4
:105748000601F95B0001E2510601FA5B0001E35131
:105758000601FB5B79C0E0F00001E16BE26BE36BF3
:10576800E0510601F85F0001E1510601F95B000113
:10577800E2510601FA5B0001E3510601FB5BF8C642
:10578800D2F0F9C6D3F0FAC6D4F0FBC6D5F0180E9D
:105798000001D66F000ED76F000ED86F000ED96FBC
:1057A800B3EC64F0D2C0F8F6D3C0F9F6D4C0FAF678
:1057B800D5C0FBF600018151160DE20EF324D96E17
:1057C800080EF420DA6E7851DE5CD8A0EEEF2BF0EC
:1057D800F0EF2BF08DEF2CF08151160DE20EF32433
:1057E800D96E080EF420DA6EDF50E06F7851E05D74
:1057F800E16FE26BD8A0E207E36BE2BFE307E35196
:10580800E46FE1510601F8270001E2510601F9238E
:105818000001E3510601FA230001E4510601FB23CC
:10582800F8C6D2F0F9C6D3F0FAC6D4F0FBC6D5F064
:105838003C0E0001D66F000ED76F000ED86F000E19
:10584800D96FB3EC64F0D2C0F8F6D3C0F9F6D4C07F
:10585800FAF6D5C0FBF600018151160DE30EF324CC
:10586800D96E080EF420DA6EDE50775DD8A03FEFCF
:105878002CF041EF2CF067EF2CF08151160DE30E60
:10588800F324D96E080EF420DA6EDF50E06FE05191
:10589800775DE16FE26BD8A0E207E36BE2BFE30755
:1058A800E351E46FE1510601F85F0001E25106019E
:1058B800F95B0001E3510601FA5B0001E4510601BE
:1058C800FB5BF1EF2CF08151160DE30EF324D96E3A
:1058D800080EF420DA6EDF50E06F7751E05DE16F7B
:1058E800E26BD8A0E207E36BE2BFE307E351E46FA2
:1058F800E1510601F8270001E2510601F9230001F0
:10590800E3510601FA230001E4510601FB23F1EFFC
:105918002CF08151160DE20EF324D96E080EF420F6
:10592800DA6E7851DE5CD8B09CEF2CF09EEF2CF04C
:10593800F1EF2CF08151160DE20EF324D96E080E0A
:10594800F420DA6EDF50E06FE051785DE16FE26BD2
:10595800D8A0E207E36BE2BFE307E351E46FE1514C
:105968000601F85F0001E2510601F95B0001E3510D
:105978000601FA5B0001E4510601FB5BF8C6D2F0B0
:10598800F9C6D3F0FAC6D4F0FBC6D5F03C0E000138
:10599800D66F000ED76F000ED86F000ED96FB3EC1C
:1059A80064F0D2C0F8F6D3C0F9F6D4C0FAF6D5C080
:1059B800FBF600018151160DE30EF324D96E080E93
:1059C800F420DA6EDE50775DD8A0EDEF2CF0EFEF23
:1059D8002CF067EF2CF041EF2CF00601F851F9118B
:1059E800FA11FB11D8B4FBEF2CF0FDEF2CF008EF07
:1059F8002DF0F805F911FA11FB11D8A406EF2DF0D6
:105A080008EF2DF00FEF2DF0000E0001696F010E69
:105A1800686F32EF2DF000016851E06F6951E16F56
:105A2800E26BE36BE0510601F85D0001E15106010C
:105A3800F9590001E2510601FA590001E351060142
:105A4800FB59D8B02AEF2DF02CEF2DF032EF2DF0C6
:105A5800F8C668F0F9C669F032EF2DF00001812B25
:105A68000B0E81653AEF2DF03CEF2DF091EF29F008
:105A78008F51D8A442EF2DF044EF2DF054EF2DF0C4
:105A88000601F651D8A44BEF2DF04DEF2DF054EF51
:105A98002DF0010EF66F000E00017F6F8DEF29F0DB
:105AA80000018F51D8B45BEF2DF05DEF2DF0BDEF05
:105AB8002DF08151160DF00EF324D96E080EF42046
:105AC800DA6EDF50D8B46BEF2DF06DEF2DF0AEEF3E
:105AD8002DF08151160DE90EF324D96E080EF4202D
