:040000006BEF02F0B0
:060008004F825AEF4AF09E
:100018004F80D8CF0EF0E8CF0FF0E0CF10F00E01F0
:1000280033AB19EF00F01BEF00F01AEF02F08F96D8
:10003800339BE30ED46EB00ED36E492A3850391074
:10004800D8B429EF00F02BEF00F047EF00F08EAEA8
:1000580030EF00F032EF00F047EF00F03806D8A09C
:10006800390600019E51D8B43CEF00F03EEF00F095
:1000780046EF00F0030E9E6144EF00F046EF00F0FB
:1000880047EF00F09E2B8EAC4CEF00F04EEF00F0E7
:1000980056EF01F08EA453EF00F055EF00F058EF43
:1000A80000F08E9460EF00F08EB45DEF00F05FEF2B
:1000B80000F060EF00F08E848EA665EF00F067EF29
:1000C80000F082EF00F000017E51761907E17F51C0
:1000D8007719D8A472EF00F074EF00F07EEF00F00B
:1000E8008E96000E776F000E766F664B672BAB2BE4
:1000F800B2EF00F0764B772BB2EF00F08EB687EFB9
:1001080000F089EF00F0B2EF00F000016E516619BF
:1001180007E16F516719D8A494EF00F096EF00F04B
:10012800B0EF00F0AF51AB5DD8B09DEF00F09FEF9E
:1001380000F0A8EF00F08E86764B772B000E676FE5
:10014800000E666FB2EF00F0010E6E25666F000EAE
:100158006F21676FB2EF00F0664B672B8EA8B7EF81
:1001680000F0B9EF00F0D4EF00F000017C517419F1
:1001780007E17D517519D8A4C4EF00F0C6EF00F06F
:10018800D0EF00F08E98000E756F000E746F644B00
:10019800652BAA2B04EF01F0744B752B04EF01F0CB
:1001A8008EB8D9EF00F0DBEF00F004EF01F00001AA
:1001B8006C51641907E16D516519D8A4E6EF00F098
:1001C800E8EF00F002EF01F0AE51AA5DD8B0EFEF12
:1001D80000F0F1EF00F0FAEF00F08E88744B752B09
:1001E800000E656F000E646F04EF01F0010E6C25C0
:1001F800646F000E6D21656F04EF01F0644B652B91
:100208008EAA09EF01F00BEF01F026EF01F00001D3
:100218007A51721907E17B517319D8A416EF01F0CE
:1002280018EF01F022EF01F08E9A000E736F000EA6
:10023800726F624B632BA92B56EF01F0724B732B35
:1002480056EF01F08EBA2BEF01F02DEF01F056EFCB
:1002580001F000016A51621907E16B516319D8A4D2
:1002680038EF01F03AEF01F054EF01F0AD51A95D1C
:10027800D8B041EF01F043EF01F04CEF01F08E8A66
:10028800724B732B000E636F000E626F56EF01F016
:10029800010E6A25626F000E6B21636F56EF01F045
:1002A800624B632B630E4818D8A45DEF01F05FEF33
:1002B80001F063EF01F0000E496E1AEF02F04804F6
:1002C800D8A469EF01F06BEF01F07CEF01F00001B9
:1002D800A1514918D8A473EF01F075EF01F07CEF34
:1002E80001F0000E496E8F8E020E486E1AEF02F072
:1002F800020E4818D8A483EF01F085EF01F095EFBE
:1003080001F03F504918D8A48CEF01F08EEF01F0AE
:1003180095EF01F0000E496E8F9E030E486E1AEF9E
:1003280002F0030E4818D8A49CEF01F09EEF01F0EC
:10033800AFEF01F00001A0514918D8A4A6EF01F0D1
:10034800A8EF01F0AFEF01F0000E496E8D84040EA6
:10035800486E1AEF02F0040E4818D8A4B6EF01F060
:10036800B8EF01F0C8EF01F03F504918D8A4BFEF2B
:1003780001F0C1EF01F0C8EF01F0000E496E8D9455
:10038800050E486E1AEF02F0050E4818D8A4CFEFF4
:1003980001F0D1EF01F0E2EF01F00001A05149189E
:1003A800D8A4D9EF01F0DBEF01F0E2EF01F0000E85
:1003B800496E8D86060E486E1AEF02F0060E481832
:1003C800D8A4E9EF01F0EBEF01F0FBEF01F03F50AB
:1003D8004918D8A4F2EF01F0F4EF01F0FBEF01F0B7
:1003E800000E496E8D96070E486E1AEF02F0070E42
:1003F8004818D8A402EF02F004EF02F01AEF02F056
:1004080049500C6E0D6A000186510C1807E187519E
:100418000D18D8A412EF02F014EF02F01AEF02F050
:10042800000E496E010E486E1AEF02F00E0138A157
:1004380020EF02F022EF02F027EF02F08F96000182
:10044800A32B0E01389138A52CEF02F02EEF02F005
:1004580063EF02F08F963895F00EC86EDC0EC76E0B
:100468000001A22BA251A85DD8B03DEF02F03FEFEA
:1004780002F058EF02F03D50D8A445EF02F047EFE4
:1004880002F058EF02F0010E3D6E000EA26FC99007
:100498009C51D8B452EF02F054EF02F063EF02F02F
:1004A800010E9B6F63EF02F03D50D8B45EEF02F08F
:1004B80060EF02F063EF02F0000EA26FC99010C067
:1004C800E0FF0FC0E8FF0EC0D8FF4F901000D1EF3B
:1004D80053F0000E0501F86F000EF96F000EFC6F67
:1004E800000EFB6F1E0E0001A86F300EB1657FEF86
:1004F80002F081EF02F01EEF14F03A0EB16187EFBF
:1005080002F089EF02F01EEF14F0000E3D6E000EAF
:100518004D6EC980010E116E030E37EC66F0BDEF0B
:1005280002F0BB0E196EFF0E1A6E09EC64F0B10EE4
:10053800196E000E1A6E010E1B6E2AEC64F0FA0E8C
:10054800196EFE0E1A6E09EC64F0010E126EF40EAE
:10055800116E0BEC5FF03D50D8A4B5EF02F0B7EF89
:1005680002F0BDEF02F0130E126E880E116E0BEC46
:100578005FF03D50D8B4C3EF02F0C5EF02F095EF3D
:1005880002F0000E116E0F0E37EC66F00E01388582
:10059800150E116E070E126EF20E136E010E146E0A
:1005A800000E166E030E156ED2EC5AF01150121092
:1005B800D8A4E1EF02F0E3EF02F00FEF14F0B10E70
:1005C800116E000E126E180E136E070E146E000ECA
:1005D800166E0A0E156E93EC5FF023EC65F0000EB4
:1005E800116E080E126E3F0E136E070E146EE8ECB5
:1005F8005DF0F0EC64F0000E116E080E126EB0ECB7
:1006080062F00009D8B40BEF03F00DEF03F013EF1D
:1006180003F03BEC65F056EC45F022EF03F0000EDA
:10062800116E050E37EC66F0070E126ED00E116EC5
:100638000BEC5FF027EF14F027EF14F0C50E116EE6
:10064800000E126EB10E136E000E146E000E166EB2
:100658000A0E156ED2EC5AF011501210D8A437EFCA
:1006680003F039EF03F0FEEF12F0B10E116E000E39
:10067800126EF40E136E020E146E000E166E0A0E33
:10068800156E93EC5FF0000E116E050E126EED0EF6
:10069800136E010E146E000E166E040E156ED2EC5B
:1006A8005AF011501210D8A45CEF03F05EEF03F07B
:1006B8006EEF03F0000E4D6E4C0E296EFE0E2A6E84
:1006C800C50E2B6E000E2C6E000E2D6E28EC14F04D
:1006D80027EF14F0000E116E050E126EFB0E136E4E
:1006E800000E146E000E166E020E156ED2EC5AF045
:1006F80011501210D8A483EF03F085EF03F0CCEF6C
:1007080003F0030E116E050E126ED70E136E000E57
:10071800146E000E166E060E156ED2EC5AF01150BD
:100728001210D8A49AEF03F09CEF03F0BCEF03F08B
:10073800D70E116E000E126E0A0E136E050E146E91
:10074800000E166E060E156E93EC5FF029EC61F044
:10075800000E4D6EEA0E296EFC0E2A6EC50E2B6E2B
:10076800000E2C6E000E2D6E28EC14F027EF14F0FE
:10077800000E4D6EE20E296EFD0E2A6EC50E2B6E12
:10078800000E2C6E000E2D6E28EC14F027EF14F0DE
:10079800000E116E050E126EFA0E136E010E146E17
:1007A800000E166E030E156ED2EC5AF01150121090
:1007B800D8A4E1EF03F0E3EF03F081EF06F0000EB9
:1007C8000501FC6F000EFB6F030E66EC47F04C6EE4
:1007D800010E0501FA6F060E4D6E000E4D24D96EFE
:1007E800DA6A050EDA22DF506BEC65F00009D8B43E
:1007F80000EF04F002EF04F053EF05F0010E4D2472
:10080800D96EDA6A050EDA22200EDE18D8A40FEFA8
:1008180004F011EF04F032EF04F0000E4D24D96E0D
:10082800DA6A050EDA22000E4D24E16EE26A050E40
:10083800E222E750D00FDF6E000E4D24D96EDA6A3F
:10084800050EDA22DF500301F96FF9510501FB2586
:10085800FB6F000EFC21FC6F88EF05F0000E4D24A5
:10086800D96EDA6A050EDA22000E4D24E16EE26ACC
:10087800050EE222E750D00FDF6E000E4D24D96E30
:10088800DA6A050EDA22DF500A0D000E4D24D96E01
:10089800DA6A050EDA22F3CFDFFFFBC511F0FCC5DB
:1008A80012F0000E146E0A0E136EAAEC65F011C059
:1008B800FBF512C0FCF520EF04F04C502D0DE00EB6
:1008C800F324D96E080EF420DA6EFBC5DEFFFCC5F2
:1008D800DDFF000E0501FC6F000EFB6F86EF05F0D3
:1008E8004C502D0DFA0EF324D96E080EF420DA6E52
:1008F800FBC5DFFF6DEF04F04C502D0DFB0EF3240C
:10090800D96E080EF420DA6EFBC5DFFF6DEF04F038
:100918004C502D0DFC0EF324D96E080EF420DA6E1F
:10092800FBC5DFFF6DEF04F04C502D0DDC0EF324FA
:10093800D96E080EF420DA6EFBC5DEFFFCC5DDFFBC
:100948006DEF04F04C502D0DDE0EF324D96E080E19
:10095800F420DA6EFBC5DEFFFCC5DDFF6DEF04F0A9
:100968004C502D0D010EF324D96E090EF420DA6EC9
:10097800FBC5DFFF6DEF04F04C502D0D030EF32483
:10098800D96E090EF420DA6EFBC5DFFF4C502D0D31
:10099800040EF324D96E090EF420DA6EFBC5DFFFCE
:1009A8006DEF04F00501FB51BEEC3EF0000E0501B1
:1009B800FC6F000EFB6F4C502D0DFD0EF324D96E0D
:1009C800080EF420DA6E3AC0DFFF4C502D0DFE0EF3
:1009D800F324D96E080EF420DA6E40C0DFFF4C50C5
:1009E8002D0DFF0EF324D96E080EF420DA6E41C0E7
:1009F800DFFF4C502D0D050EF324D96E090EF4209F
:100A0800DA6E000EDF6E4C502D0D060EF324D96EF3
:100A1800090EF420DA6E010EDF6E4C502D0DE20E39
:100A2800F324D96E080EF420DA6E000EDE6E000E86
:100A3800DD6E4C502D0DE40EF324D96E080EF42013
:100A4800DA6E000EDE6E000EDD6E4C502D0D000EBF
:100A5800F324D96E090EF420DA6E000EDF6E4C50C6
:100A68002D0D070EF324D96E090EF420DA6E000E50
:100A7800DF6E4C502D0D020EF324D96E090EF420B2
:100A8800DA6E000EDF6E4C502D0D080EF324D96E71
:100A9800090EF420DA6E000EDF6E86EF05F0050110
:100AA800FA510301F96FFA6BFA51000AD8B45FEFF3
:100AB80005F086EF05F0F951010AD8B461EF04F0AA
:100AC800030AD8B474EF04F0010AD8B480EF04F034
:100AD800070AD8B48CEF04F0010AD8B498EF04F0F0
:100AE800030AD8B4A6EF04F0010AD8B4B4EF04F0AE
:100AF8000F0AD8B4C0EF04F0010AD8B4D6EF04F056
:100B080086EF05F00501FA2B4D2A090EFA658FEFDD
:100B180005F091EF05F0F1EF03F0000E126E640E90
:100B2800116E0BEC5FF04C50020D4D0EF324F66E77
:100B3800F20EF420F76E0900F5CF19F00A00F5CF90
:100B48001AF04C502D0DDC0EF3241B6E080EF42009
:100B58001C6EDBEC4DF0000E126E640E116E0BEC89
:100B68005FF04C50020D4D0EF324F66EF20EF42099
:100B7800F76E0900F5CF19F00A00F5CF1AF04C50BE
:100B88002D0DDC0EF3241B6E080EF4201C6E7AEC7F
:100B98005EF0000E126E640E116E0BEC5FF04C509E
:100BA800020D4D0EF324F66EF20EF420F76E0900D6
:100BB800F5CF19F00A00F5CF1AF04C502D0DDC0EC8
:100BC800F3241B6E080EF4201C6E82EC64F0000EF9
:100BD800126E640E116E0BEC5FF04C50020D4D0E50
:100BE800F324F66EF20EF420F76E0900F5CF19F033
:100BF8000A00F5CF1AF04C502D0DDC0EF3241B6EB5
:100C0800080EF4201C6E65EC64F0000E126E640E83
:100C1800116E0BEC5FF04C50020D4D0EF324F66E86
:100C2800F20EF420F76E0900F5CF19F00A00F5CF9F
:100C38001AF04C502D0DDC0EF3241B6E080EF42018
:100C48001C6E48EC64F0000E126E640E116E0BEC14
:100C58005FF04C50020D4D0EF324F66EF20EF420A8
:100C6800F76E0900F5CF19F00A00F5CF1AF04C50CD
:100C78002D0DDC0EF3241B6E080EF4201C6E09ECFF
:100C88003CF0000E126E640E116E0BEC5FF0090E54
:100C98004C6051EF06F053EF06F05BEF06F0300EB4
:100CA8000001B16F4C50310FB26F71EF06F0080EB2
:100CB8004C6461EF06F063EF06F071EF06F00C0E7E
:100CC8004C6069EF06F06BEF06F071EF06F0310E3D
:100CD8000001B16F4C50270FB26F000E4D6E760EAB
:100CE800296EFB0E2A6EC50E2B6E000E2C6E020EA0
:100CF8002D6E28EC14F027EF14F0000E116E050E7F
:100D0800126EE80E136E010E146E000E166E040EAF
:100D1800156ED2EC5AF011501210D8A496EF06F0C6
:100D280098EF06F04BEF07F0040E66EC47F04C6EB8
:100D38004C502D0D050EF324D96E090EF420DA6EF1
:100D4800DE04D8A4AAEF06F0ACEF06F0AFEF06F089
:100D5800010E0001946F4C502D0D060EF324D96E30
:100D6800090EF420DA6E000EDF6E4C502D0D070EC2
:100D7800F324D96E090EF420DA6EDE04D8A4C7EF86
:100D880006F0C9EF06F0F7EF06F04C502D0D070EF0
:100D9800F324D96E090EF420DA6E000EDF6E000E11
:100DA800126E640E116E0BEC5FF04C50020D4D0E7E
:100DB800F324F66EF20EF420F76E0900F5CF19F061
:100DC8000A00F5CF1AF04C502D0DDC0EF3241B6EE3
:100DD800080EF4201C6E09EC3CF0000E126E640E36
:100DE800116E0BEC5FF04C50020D4D0EF324F66EB5
:100DF800F20EF420F76E0900F5CF19F00A00F5CFCE
:100E08001AF04C502D0DDC0EF3241B6E080EF42046
:100E18001C6E48EC64F0000E126E640E116E0BEC42
:100E28005FF0090E4C601BEF07F01DEF07F025EF90
:100E380007F0300E0001B16F4C50310FB26F3BEF2D
:100E480007F0080E4C642BEF07F02DEF07F03BEF8F
:100E580007F00C0E4C6033EF07F035EF07F03BEF6F
:100E680007F0310E0001B16F4C50270FB26F000E22
:100E78004D6ECF0E296EF90E2A6EC50E2B6E000E22
:100E88002C6E020E2D6E28EC14F027EF14F0000ED5
:100E9800116E050E126EED0E136E020E146E000E1C
:100EA800166E060E156ED2EC5AF011501210D8A418
:100EB80060EF07F062EF07F047EF0AF0000E050158
:100EC800FC6F000EFB6F000EFA6F060E66EC47F023
:100ED8004C6E4C502D0D060EF324D96E090EF420DD
:100EE800DA6EDF50D8A47BEF07F07DEF07F0B3EFA1
:100EF80007F0090E4C6083EF07F085EF07F08DEFE0
:100F080007F0300E0001B16F4C50310FB26FA3EFF4
:100F180007F0080E4C6493EF07F095EF07F0A3EF86
:100F280007F00C0E4C609BEF07F09DEF07F0A3EF66
:100F380007F0310E0001B16F4C50270FB26F000E51
:100F48004D6EAC0E296EF60E2A6EC50E2B6E000E77
:100F58002C6E020E2D6E28EC14F027EF14F0090EFB
:100F68004D6E000E4D24D96EDA6A050EDA22DF5076
:100F78006BEC65F00009D8B4C4EF07F0C6EF07F0D2
:100F880025EF08F0010E4D24D96EDA6A050EDA2233
:100F9800200EDE18D8A4D3EF07F0D5EF07F0F6EF50
:100FA80007F0000E4D24D96EDA6A050EDA22000E1B
:100FB8004D24E16EE26A050EE222E750D00FDF6EA3
:100FC800000E4D24D96EDA6A050EDA22DF500301CD
:100FD800F96FF9510501FB25FB6F000EFC21FC6F31
:100FE800D3EF09F0000E4D24D96EDA6A050EDA2225
:100FF800000E4D24E16EE26A050EE222E750D00FA2
:10100800DF6E000E4D24D96EDA6A050EDA22DF5043
:101018000A0D000E4D24D96EDA6A050EDA22F3CFD6
:10102800DFFFFBC511F0FCC512F0000E146E0A0EAE
:10103800136EAAEC65F011C0FBF512C0FCF5E4EFE5
:1010480007F00501FA2B89EF09F04C502D0DE20E3F
:10105800F324D96E080EF420DA6EFBC5DEFFFCC55A
:10106800DDFF000E0501FC6F000EFB6FD3EF09F0EA
:101078004C502D0DE40EF324D96E080EF420DA6ED0
:10108800FBC5DEFFFCC5DDFF35EF08F04C502D0D2C
:10109800000EF324D96E090EF420DA6EFBC5DFFFCB
:1010A80035EF08F04C502D0DE60EF324D96E080EDE
:1010B800F420DA6EFBC5DEFFFCC5DDFF35EF08F076
:1010C8004C502D0DEE0EF324D96E080EF420DA6E76
:1010D800FBC5DEFFFCC5DDFF35EF08F04C502D0DDC
:1010E800F60EF324D96E080EF420DA6EFBC5DFFF86
:1010F80035EF08F04C502D0DE80EF324D96E080E8C
:10110800F420DA6EFBC5DEFFFCC5DDFF35EF08F025
:101118004C502D0DF00EF324D96E080EF420DA6E23
:10112800FBC5DEFFFCC5DDFF35EF08F04C502D0D8B
:10113800F70EF324D96E080EF420DA6EFBC5DFFF34
:1011480035EF08F04C502D0DEA0EF324D96E080E39
:10115800F420DA6EFBC5DEFFFCC5DDFF35EF08F0D5
:101168004C502D0DF20EF324D96E080EF420DA6ED1
:10117800FBC5DEFFFCC5DDFF35EF08F04C502D0D3B
:10118800F80EF324D96E080EF420DA6EFBC5DFFFE3
:1011980035EF08F04C502D0DEC0EF324D96E080EE7
:1011A800F420DA6EFBC5DEFFFCC5DDFF35EF08F085
:1011B8004C502D0DF40EF324D96E080EF420DA6E7F
:1011C800FBC5DEFFFCC5DDFF35EF08F04C502D0DEB
:1011D800F90EF324D96E080EF420DA6EFBC5DFFF92
:1011E8004C502D0D020EF324D96E090EF420DA6E40
:1011F800000EDF6E4C502D0D080EF324D96E090E2B
:10120800F420DA6E000EDF6E000E0501FC6F000E92
:10121800FB6F4C502D0DE00EF324D96E080EF42010
:10122800DA6E4C502D0DE40EF324E16E080EF42016
:10123800E26EE6CFFBF3E5CFFCF34C502D0DE20E4A
:10124800F324E16E080EF420E26EE6CFFDF3E5CF5D
:10125800FEF30301FB51FD27FC51FE23DE50FD5D2B
:10126800DE50FE59D8A03BEF09F03DEF09F07DEFC5
:1012780009F04C502D0D070EF324D96E090EF420F9
:10128800DA6E000EDF6E090E4C604DEF09F04FEF7D
:1012980009F057EF09F0300E0001B16F4C50310FD3
:1012A800B26F6DEF09F0080E4C645DEF09F05FEF67
:1012B80009F06DEF09F00C0E4C6065EF09F067EF6F
:1012C80009F06DEF09F0310E0001B16F4C50270F96
:1012D800B26F000E4D6E010E296EF90E2A6EC50E04
:1012E8002B6E000E2C6E020E2D6E28EC14F0D3EF30
:1012F80009F04C502D0D070EF324D96E090EF42079
:10130800DA6E010EDF6ED3EF09F0FA510301F96FBF
:10131800FA6BFA51000AD8B494EF09F0D3EF09F048
:10132800F951010AD8B429EF08F0030AD8B43CEF00
:1013380008F0010AD8B44AEF08F0070AD8B456EF03
:1013480008F0010AD8B464EF08F0030AD8B472EFC1
:1013580008F0010AD8B47EEF08F00F0AD8B48CEF71
:1013680008F0010AD8B49AEF08F0030AD8B4A6EF37
:1013780008F0010AD8B4B4EF08F0070AD8B4C2EFED
:1013880008F0010AD8B4CEEF08F0030AD8B4DCEFAD
:1013980008F0010AD8B4EAEF08F0D3EF09F04D2AB3
:1013A8000E0E0501FA65DBEF09F0DDEF09F0B5EF88
:1013B80007F04C502D0D070EF324D96E090EF420BA
:1013C800DA6EDF50D8B4EBEF09F0EDEF09F027EF54
:1013D80014F0000E126E640E116E0BEC5FF04C50A0
:1013E800020D4D0EF324F66EF20EF420F76E09008E
:1013F800F5CF19F00A00F5CF1AF04C502D0DDC0E80
:10140800F3241B6E080EF4201C6E09EC3CF0000E51
:10141800126E640E116E0BEC5FF0090E4C6017EF44
:101428000AF019EF0AF021EF0AF0300E0001B16F4F
:101438004C50310FB26F37EF0AF0080E4C6427EFAB
:101448000AF029EF0AF037EF0AF00C0E4C602FEF84
:101458000AF031EF0AF037EF0AF0310E0001B16FF0
:101468004C50270FB26F000E4D6E240E296EFC0EE5
:101478002A6EC50E2B6E000E2C6E020E2D6E28ECF9
:1014880014F027EF14F0000E116E050E126ED70E31
:10149800136E020E146E000E166E070E156ED2EC49
:1014A8005AF011501210D8A45CEF0AF05EEF0AF05F
:1014B800FAEF0AF0070E66EC47F04C6E4C502D0D13
:1014C800050EF324D96E090EF420DA6EDE04D8A4D2
:1014D80070EF0AF072EF0AF086EF0AF04C502D0D0B
:1014E800020EF324D96E090EF420DA6E030EDE180C
:1014F800D8B481EF0AF083EF0AF086EF0AF0010E04
:101508000001946F4C502D0D070EF324D96E090E6F
:10151800F420DA6EDE04D8A494EF0AF096EF0AF00D
:1015280020EF03F04C502D0D070EF324D96E090E51
:10153800F420DA6E000EDF6E000E126E640E116E6D
:101548000BEC5FF04C50020D4D0EF324F66EF20ECC
:10155800F420F76E0900F5CF19F00A00F5CF1AF05C
:101568004C502D0DDC0EF3241B6E080EF4201C6E5F
:1015780009EC3CF0000E126E640E116E0BEC5FF07D
:10158800090E4C60CAEF0AF0CCEF0AF0D4EF0AF06B
:10159800300E0001B16F4C50310FB26FEAEF0AF014
:1015A800080E4C64DAEF0AF0DCEF0AF0EAEF0AF012
:1015B8000C0E4C60E2EF0AF0E4EF0AF0EAEF0AF0F2
:1015C800310E0001B16F4C50270FB26F000E4D6EF7
:1015D800BD0E296EFB0E2A6EC50E2B6E000E2C6EEC
:1015E800020E2D6E28EC14F027EF14F0000E116E89
:1015F800050E126EE60E136E020E146E000E166EB7
:10160800060E156ED2EC5AF011501210D8A40FEF36
:101618000BF011EF0BF0FBEF0BF0000E0501FC6F68
:10162800000EFB6F000EFA6F060E4D6E000E4D2475
:10163800D96EDA6A050EDA22DF506BEC65F0000924
:10164800D8B429EF0BF02BEF0BF08AEF0BF0010E5B
:101658004D24D96EDA6A050EDA22200EDE18D8A4D7
:1016680038EF0BF03AEF0BF05BEF0BF0000E4D2468
:10167800D96EDA6A050EDA22000E4D24E16EE26AAE
:10168800050EE222E750D00FDF6E000E4D24D96E12
:10169800DA6A050EDA22DF500301F96FF951050104
:1016A800FB25FB6F000EFC21FC6FD3EF0BF0000E47
:1016B8004D24D96EDA6A050EDA22000E4D24E16E49
:1016C800E26A050EE222E750D00FDF6E000E4D24CD
:1016D800D96EDA6A050EDA22DF500A0D000E4D24A3
:1016E800D96EDA6A050EDA22F3CFDFFFFBC511F0F7
:1016F800FCC512F0000E146E0A0E136EAAEC65F00B
:1017080011C0FBF512C0FCF549EF0BF00501FA2BEF
:10171800B1EF0BF0FBC5A1F0000E0501FC6F000E48
:10172800FB6FD3EF0BF0FBC5A0F090EF0BF0FBC500
:101738009FF090EF0BF0FBC53FF090EF0BF0FBC56F
:1017480086F00001876B000E0501FC6F000EFB6F31
:10175800010E00018D6FD3EF0BF0FA510301F96F01
:10176800FA6BFA51000AD8B4BCEF0BF0D3EF0BF0C8
:10177800F951010AD8B48EEF0BF0030AD8B497EFE9
:101788000BF0010AD8B49BEF0BF0070AD8B49FEF0F
:101798000BF0010AD8B4A3EF0BF0D3EF0BF04D2AEE
:1017A800040E0501FA65DBEF0BF0DDEF0BF01AEF25
:1017B8000BF0000E126E640E116E0BEC5FF019EC5C
:1017C80053F0000E126E640E116E0BEC5FF0000EFB
:1017D8004D6E7C0E296EFD0E2A6EC50E2B6E000E08
:1017E8002C6E000E2D6E28EC14F027EF14F0000E6E
:1017F800116E050E126ECF0E136E020E146E000ED1
:10180800166E070E156ED2EC5AF011501210D8A4AD
:1018180010EF0CF012EF0CF033EF0CF0000E00019B
:101828008D6F000E126E640E116E0BEC5FF019ECEA
:1018380053F0000E126E640E116E0BEC5FF0000E8A
:101848004D6E290E296EFD0E2A6EC50E2B6E000EEA
:101858002C6E000E2D6E28EC14F027EF14F0000EFD
:10186800116E050E126ED80E136E010E146E000E58
:10187800166E050E156ED2EC5AF011501210D8A43F
:1018880048EF0CF04AEF0CF073EF0CF000018D51AB
:10189800D8B451EF0CF053EF0CF063EF0CF0000EDE
:1018A8004D6E610E296EFD0E2A6EC50E2B6E000E52
:1018B8002C6E080E2D6E28EC14F027EF14F0000E95
:1018C8004D6ECA0E296EFC0E2A6EC50E2B6E000ECA
:1018D8002C6E000E2D6E28EC14F027EF14F0000E7D
:1018E800116E050E126EDE0E136E010E146E000ED2
:1018F800166E040E156ED2EC5AF011501210D8A4C0
:1019080088EF0CF08AEF0CF069EF0DF0000E05017E
:10191800FC6F000EFB6F000EFA6F050E4D6E000E89
:101928004D24D96EDA6A050EDA22DF506BEC65F0C9
:101938000009D8B4A2EF0CF0A4EF0CF033EF0DF0CF
:10194800000E4D24D96EDA6A050EDA22000E4D24F7
:10195800E16EE26A050EE222E750D00FDF6E000E5C
:101968004D24D96EDA6A050EDA22DF500301F96FC9
:10197800F9510501FB6FFC6BFBC511F0FCC512F0BA
:10198800000E146E0A0E136EAAEC65F011C0FBF57A
:1019980012C0FCF5010E4D24D96EDA6A050EDA2262
:1019A800010E4D24E16EE26A050EE222E750D00FE7
:1019B800DF6E010E4D24D96EDA6A050EDA22DF5089
:1019C8000301F96FF9510501FB25FB6F000EFC219E
:1019D800FC6FFA2B0DEF0DF0FBC545F0000E05016D
:1019E800FC6F000EFB6F43EF0DF0FBC546F0F2EF06
:1019F8000CF0FBC547F0F2EF0CF0FBC544F0F2EF3A
:101A08000CF0FBC543F0F2EF0CF0FBC542F0F2EF2F
:101A18000CF0FA510301F96FFA6BFA51000AD8B4C5
:101A280018EF0DF043EF0DF0F951010AD8B4F0EFBB
:101A38000CF0030AD8B4F9EF0CF0010AD8B4FDEFA2
:101A48000CF0070AD8B401EF0DF0010AD8B405EF7D
:101A58000DF0030AD8B409EF0DF043EF0DF0000EB6
:101A68004D6E460E296EFD0E2A6EC50E2B6E000EAB
:101A78002C6E000E2D6E28EC14F027EF14F0030ED8
:101A88004D26050E0501FA654CEF0DF04EEF0DF0F1
:101A980093EF0CF0060EFA19D8A455EF0DF057EF96
:101AA8000DF059EF0DF0C3EC5EF0000E4D6E8B0E8D
:101AB800296EFA0E2A6EC50E2B6E000E2C6E000EC5
:101AC8002D6E28EC14F027EF14F0000E116E050EA1
:101AD800126EE30E136E010E146E000E166E040ED7
:101AE800156ED2EC5AF011501210D8A47EEF0DF0FA
:101AF80080EF0DF038EF0EF058EC5CF045C011F0B7
:101B0800126A000E146E0A0E136E9EEC5BF01150F2
:101B1800300F0001B16F45C023F0246A000E266E15
:101B28000A0E256E00EC5CF02350300F0001B26FF6
:101B38002F0EB36F46C011F0126A000E146E0A0E13
:101B4800136E9EEC5BF01150300F0001B46F46C06D
:101B580023F0246A000E266E0A0E256E00EC5CF057
:101B68002350300F0001B56F2F0EB66F47C011F02C
:101B7800126A000E146E0A0E136E9EEC5BF0115082
:101B8800300F0001B76F47C023F0246A000E266E9D
:101B98000A0E256E00EC5CF02350300F0001B86F80
:101BA800200EB96F44C011F0126A000E146E0A0EAE
:101BB800136E9EEC5BF01150300F0001BA6F44C0F9
:101BC80023F0246A000E266E0A0E256E00EC5CF0E7
:101BD8002350300F0001BB6F3A0EBC6F43C011F0A9
:101BE800126A000E146E0A0E136E9EEC5BF0115012
:101BF800300F0001BD6F43C023F0246A000E266E2B
:101C08000A0E256E00EC5CF02350300F0001BE6F09
:101C18003A0EBF6F42C011F0126A000E146E0A0E1F
:101C2800136E9EEC5BF01150300F0001C06F42C084
:101C380023F0246A000E266E0A0E256E00EC5CF076
:101C48002350300F0001C16F000E4D6E6C0E296ECF
:101C5800FE0E2A6EC50E2B6E000E2C6E030E2D6E18
:101C680028EC14F027EF14F0000E116E050E126E1A
:101C7800C70E136E020E146E000E166E070E156E4A
:101C8800D2EC5AF011501210D8A44DEF0EF04FEFCD
:101C98000EF0A7EF0EF0070E66EC47F04C6E090E3B
:101CA8004C6059EF0EF05BEF0EF063EF0EF0300E64
:101CB8000001B16F4C50310FB26F79EF0EF0080E82
:101CC8004C6469EF0EF06BEF0EF079EF0EF00C0E2E
:101CD8004C6071EF0EF073EF0EF079EF0EF0310EED
:101CE8000001B16F4C50270FB26F000E4D6E4C5073
:101CF8002D0D060EF324D96E090EF420DA6EDF508E
:101D0800D8B489EF0EF08BEF0EF099EF0EF07B0E42
:101D1800296EFE0E2A6EC50E2B6E000E2C6E070E57
:101D28002D6E28EC14F027EF14F0050E296EFB0E2B
:101D38002A6EC50E2B6E000E2C6E020E2D6E28EC30
:101D480014F027EF14F0000E116E050E126EF80E47
:101D5800136E000E146E000E166E020E156ED2EC87
:101D68005AF011501210D8A4BCEF0EF0BEEF0EF0CE
:101D7800A1EF0FF08EAEC3EF0EF0C5EF0EF0D5EF6A
:101D88000EF0000E4D6E9E0E296EF90E2A6EC50ECF
:101D98002B6E000E2C6E000E2D6E28EC14F027EF23
:101DA80014F0000E0501FC6F000EFB6F000EFA6FB9
:101DB800010EFA6F030E4D6E000E4D24D96EDA6ACD
:101DC800050EDA22DF506BEC65F00009D8B4EFEFAE
:101DD8000EF0F1EF0EF061EF0FF0010E4D24D96E09
:101DE800DA6A050EDA22200EDE18D8A4FEEF0EF00D
:101DF80000EF0FF021EF0FF0000E4D24D96EDA6AD4
:101E0800050EDA22000E4D24E16EE26A050EE2228A
:101E1800E750D00FDF6E000E4D24D96EDA6A050E3A
:101E2800DA22DF500301F96FF9510501FB25FB6F39
:101E3800000EFC21FC6F7AEF0FF0000E4D24D96ED6
:101E4800DA6A050EDA22000E4D24E16EE26A050E0A
:101E5800E222E750D00FDF6E000E4D24D96EDA6A09
:101E6800050EDA22DF500A0D000E4D24D96EDA6A0B
:101E7800050EDA22F3CFDFFFFBC511F0FCC512F027
:101E8800000E146E0A0E136EAAEC65F011C0FBF575
:101E980012C0FCF50FEF0FF0FBC560F0FCC561F058
:101EA800000E0501FC6F000EFB6F78EF0FF0FBC50D
:101EB800E2F0FCC5E3F054EF0FF00501FA5103011D
:101EC800F96FFA6BFA51000AD8B46DEF0FF078EF9A
:101ED8000FF0F951010AD8B450EF0FF0030AD8B443
:101EE8005BEF0FF078EF0FF00501FA2B4D2A020E89
:101EF800FA6581EF0FF083EF0FF0E0EF0EF0000EC0
:101F0800126E640E116E0BEC5FF0F3EC59F0000EDC
:101F1800126E640E116E0BEC5FF0000E4D6E9A0E91
:101F2800296EFB0E2A6EC50E2B6E000E2C6E000E4F
:101F38002D6E28EC14F027EF14F0000E116E050E2C
:101F4800126ED20E136E010E146E000E166E050E72
:101F5800156ED2EC5AF011501210D8A4B6EF0FF04B
:101F6800B8EF0FF0C8EF0FF0000E4D6E2E0E296E71
:101F7800FA0E2A6EC50E2B6E000E2C6E050E2D6EF7
:101F880028EC14F027EF14F0000E116E050E126EF7
:101F9800BF0E136E020E146E000E166E070E156E2F
:101FA800D2EC5AF011501210D8A4DDEF0FF0DFEF89
:101FB8000FF03BEF10F0070E66EC47F04C6E000E8A
:101FC800126E640E116E0BEC5FF04C501EEC31F08B
:101FD800090E4C60F2EF0FF0F4EF0FF0FCEF0FF08A
:101FE800300E0001B16F4C50310FB26F12EF10F08C
:101FF800080E4C6402EF10F004EF10F012EF10F02E
:102008000C0E4C600AEF10F00CEF10F012EF10F00D
:10201800310E0001B16F4C50270FB26F00019B5178
:10202800D8B419EF10F01BEF10F02BEF10F0000EE2
:102038009B6FDD0E296EFA0E2A6EC50E2B6E000EF2
:102048002C6E020E2D6E28EC14F027EF14F0000E03
:102058004D6E5D0E296EFA0E2A6EC50E2B6E000EA1
:102068002C6E060E2D6E28EC14F027EF14F0000EDF
:10207800116E050E126EF60E136E010E146E000E22
:10208800166E030E156ED2EC5AF011501210D8A429
:1020980050EF10F052EF10F0A6EF10F0030E66ECC0
:1020A80047F04C6E000E126E640E116E0BEC5FF072
:1020B8008EAE61EF10F063EF10F065EF10F0C5EF32
:1020C8000EF0090E4C606BEF10F06DEF10F075EF2D
:1020D80010F0300E0001B16F4C50310FB26F8BEF22
:1020E80010F0080E4C647BEF10F07DEF10F08BEFD2
:1020F80010F00C0E4C6083EF10F085EF10F08BEFB2
:1021080010F0310E0001B16F4C50270FB26F130E53
:10211800126E880E116E0BEC5FF04CC01EF0010EB3
:102128000AEC41F0030E126EE80E116E0BEC5FF034
:10213800F3EC59F0030E126EE80E116E0BEC5FF023
:10214800B8EF0FF0000E116E050E126EDF0E136E53
:10215800020E146E000E166E060E156ED2EC5AF0B4
:1021680011501210D8A4BBEF10F0BDEF10F020EF03
:1021780003F0000E0501FC6F000EFB6F000EFA6FF6
:10218800070E4D6E000E4D24D96EDA6A050EDA225E
:10219800DF506BEC65F00009D8B4D5EF10F0D7EF3D
:1021A80010F050EF11F0000E4D24D96EDA6A050ECA
:1021B800DA22000E4D24E16EE26A050EE222E750B3
:1021C800D00FDF6E000E4D24D96EDA6A050EDA22C2
:1021D800DF500301F96FF9510501FB6FFC6BFBC57B
:1021E80011F0FCC512F0000E146E0A0E136EAAEC64
:1021F80065F011C0FBF512C0FCF5010E4D24D96E37
:10220800DA6A050EDA22010E4D24E16EE26A050E45
:10221800E222E750D00FDF6E010E4D24D96EDA6A44
:10222800050EDA22DF500301F96FF9510501FB258C
:10223800FB6F000EFC21FC6FFA2B36EF11F0FBC58B
:10224800F8F5000E0501FC6F000EFB6F50EF11F062
:10225800FBC5F9F525EF11F00501FB51BEEC3EF089
:1022680025EF11F0FA510301F96FFA6BFA51000AE0
:10227800D8B441EF11F050EF11F0F951010AD8B478
:1022880023EF11F0030AD8B42CEF11F0010AD8B4E7
:1022980030EF11F050EF11F0030E4D26020E05013C
:1022A800FA6559EF11F05BEF11F0C6EF10F0000E70
:1022B8004C6EE6EF12F04C502D0DE00EF324D96E63
:1022C800080EF420DA6E0F0EDE6E000EDD6E4C5036
:1022D8002D0DFA0EF324D96E080EF420DA6E010ED5
:1022E800DF6E4C502D0DFB0EF324D96E080EF42032
:1022F800DA6EF8C5DFFF4C502D0DFC0EF324D96EB5
:10230800080EF420DA6EF9C5DFFF4C502D0DFD0ED6
:10231800F324D96E080EF420DA6E3AC0DFFF4C5071
:102328002D0DFE0EF324D96E080EF420DA6E40C08F
:10233800DFFF4C502D0DFF0EF324D96E080EF4204C
:10234800DA6E41C0DFFF4C502D0DDC0EF324D96E40
:10235800080EF420DA6E640EDE6E000EDD6E4C5050
:102368002D0DDE0EF324D96E080EF420DA6E300E31
:10237800DE6E750EDD6E4C502D0D010EF324D96EF8
:10238800090EF420DA6E4C28DF6E4C502D0D050E28
:10239800F324D96E090EF420DA6E000EDF6E4C506D
:1023A8002D0D030EF324D96E090EF420DA6E020EF9
:1023B800DF6E4C502D0D040EF324D96E090EF42057
:1023C800DA6E020EDF6E4C502D0D060EF324D96E18
:1023D800090EF420DA6E010EDF6E4C502D0DE20E60
:1023E800F324D96E080EF420DA6E050EDE6E000EA8
:1023F800DD6E4C502D0DE40EF324D96E080EF4203A
:10240800DA6E0F0EDE6E000EDD6E4C502D0D000ED6
:10241800F324D96E090EF420DA6E4C28DF6E4C5086
:102428002D0D020EF324D96E090EF420DA6E000E7B
:10243800DF6E4C502D0D080EF324D96E090EF420D2
:10244800DA6E000EDF6E4C502D0D070EF324D96E98
:10245800090EF420DA6E010EDF6E4C50020D4D0E9F
:10246800F324F66EF20EF420F76E0900F5CF19F09A
:102478000A00F5CF1AF04C502D0DDC0EF3241B6E1C
:10248800080EF4201C6EDBEC4DF0000E126E640E8C
:10249800116E0BEC5FF04C50020D4D0EF324F66EEE
:1024A800F20EF420F76E0900F5CF19F00A00F5CF07
:1024B8001AF04C502D0DDC0EF3241B6E080EF42080
:1024C8001C6E7AEC5EF0000E126E640E116E0BEC50
:1024D8005FF04C50020D4D0EF324F66EF20EF42010
:1024E800F76E0900F5CF19F00A00F5CF1AF04C5035
:1024F8002D0DDC0EF3241B6E080EF4201C6E82ECEE
:1025080064F0000E126E640E116E0BEC5FF04C500E
:10251800020D4D0EF324F66EF20EF420F76E09004C
:10252800F5CF19F00A00F5CF1AF04C502D0DDC0E3E
:10253800F3241B6E080EF4201C6E65EC64F0000E8C
:10254800126E640E116E0BEC5FF04C50020D4D0EC6
:10255800F324F66EF20EF420F76E0900F5CF19F0A9
:102568000A00F5CF1AF04C502D0DDC0EF3241B6E2B
:10257800080EF4201C6E48EC64F0000E126E640E17
:10258800116E0BEC5FF04C50020D4D0EF324F66EFD
:10259800F20EF420F76E0900F5CF19F00A00F5CF16
:1025A8001AF04C502D0DDC0EF3241B6E080EF4208F
:1025B8001C6E09EC3CF0000E126E640E116E0BECF2
:1025C8005FF04C2A0B0E4C64ECEF12F0EEEF12F0B9
:1025D8005FEF11F0000E4D6E390E296EFE0E2A6E59
:1025E800C50E2B6E000E2C6E000E2D6E28EC14F00E
:1025F80027EF14F0000E116E050E126EFB0E136E0F
:10260800000E146E000E166E020E156ED2EC5AF005
:1026180011501210D8A413EF13F015EF13F0BAEFFE
:1026280013F0030E116E050E126ED70E136E000E08
:10263800146E000E166E060E156ED2EC5AF011507E
:102648001210D8A42AEF13F02CEF13F09CEF13F01C
:102658003E50D8B432EF13F034EF13F042EF13F0DA
:10266800000E4D6E390E296EF90E2A6EC50E2B6EB0
:10267800000E2C6E010E2D6E28EC14F0D70E116E84
:10268800000E126E0A0E136E050E146E000E166EF4
:10269800060E156E93EC5FF0C50E116E000E126EED
:1026A800B10E136E000E146E000E166E0A0E156E25
:1026B80093EC5FF0010E3E6EB10E116E000E126EBD
:1026C800F40E136E020E146E000E166E0A0E156EC0
:1026D80093EC5FF0000E126E320E116E0BEC5FF091
:1026E80029EC61F0000E126E320E116E0BEC5FF0E9
:1026F8005FEC61F0000E126E320E116E0BEC5FF0A3
:10270800D5EC64F0000E126E320E116E0BEC5FF019
:10271800000E4D6EF90E296EFD0E2A6EC50E2B6E3B
:10272800000E2C6E000E2D6E28EC14F027EF14F01E
:10273800000E4D6EE20E296EFD0E2A6EB10E2B6E46
:10274800000E2C6E000E2D6E28EC14F0B10E116EDA
:10275800000E126EF40E136E020E146E000E166E3C
:102768000A0E156E93EC5FF027EF14F0000E116E51
:10277800050E126EED0E136E010E146E000E166E1F
:10278800040E156ED2EC5AF011501210D8A4CFEFE7
:1027980013F0D1EF13F0E1EF13F0000E4D6E100EB1
:1027A800296EFE0E2A6EB10E2B6E000E2C6E000ED8
:1027B8002D6E28EC14F0AAEF13F0000E116E050E22
:1027C800126EF20E136E040E146E000E166E0B0EC1
:1027D800156ED2EC5AF011501210D8A4F6EF13F07F
:1027E800F8EF13F008EF14F0000E4D6E5D0E296E31
:1027F800FE0E2A6EB10E2B6E000E2C6E040E2D6E80
:1028080028EC14F0AAEF13F0000E116E060E37EC48
:1028180066F018EF03F0F0EC64F0000E116E070E8E
:1028280037EC66F0030E126EE80E116E0BEC5FF0DB
:1028380027EF14F0F0EC64F0000E116E080E37EC80
:1028480066F018EF03F012001E0E0001A86F8D0E3F
:10285800196EFF0E1A6E09EC64F0000E126E320E3D
:10286800116E0BEC5FF02BC019F02CC01AF00A0E99
:102878001B6E2AEC64F0000E126E320E116E0BEC19
:102888005FF0F90E196EFE0E1A6E09EC64F0000E78
:10289800126E640E116E0BEC5FF029C019F02AC09D
:1028A8001AF009EC64F0000E126E640E116E0BEC57
:1028B8005FF001EF1BF0B10E196E000E1A6E0A0ED2
:1028C8001B6E2AEC64F0000E126E640E116E0BEC97
:1028D8005FF02EEF1BF0B10E196E000E1A6E020E8D
:1028E8001B6E2AEC64F067EF14F0B10E196E000E3F
:1028F8001A6E110E1B6E2AEC64F067EF14F0D00EFE
:10290800196E000E1A6E060E1B6E2AEC64F067EF45
:1029180014F060C036F061C037F036C017F037C029
:1029280018F0030E1A6EE80E196E4CEC60F0175092
:10293800300F0001BF6F030E146EE80E136E36C021
:1029480011F037C012F0FFEC61F011C017F012C09F
:1029580018F0000E1A6E640E196E4CEC60F01750E9
:10296800300F0001C06F000E146E640E136E36C077
:1029780011F037C012F0FFEC61F011C017F012C06F
:1029880018F0000E1A6E0A0E196E4CEC60F0175013
:10299800300F0001C16F36C011F037C012F0000EC1
:1029A800146E0A0E136EFFEC61F01150300F000127
:1029B800C26FBF0E196E000E1A6E040E1B6E2AEC43
:1029C80064F0000E126E320E116E0BEC5FF0E10E29
:1029D800196EFF0E1A6E09EC64F0000E126E320EBC
:1029E800116E0BEC5FF0E2C036F0E3C037F036C092
:1029F80017F037C018F0030E1A6EE80E196E4CEC7B
:102A080060F01750300F0001BF6F030E146EE80E10
:102A1800136E36C011F037C012F0FFEC61F011C030
:102A280017F012C018F0000E1A6E640E196E4CECF6
:102A380060F01750300F0001C06F000E146E640E66
:102A4800136E36C011F037C012F0FFEC61F011C000
:102A580017F012C018F0000E1A6E0A0E196E4CEC20
:102A680060F01750300F0001C16F36C011F037C049
:102A780012F0000E146E0A0E136EFFEC61F0115086
:102A8800300F0001C26FBF0E196E000E1A6E040ED1
:102A98001B6E2AEC64F067EF14F0B10E196E000E8D
:102AA8001A6E020E1B6E2AEC64F0000E126E320EC5
:102AB800116E0BEC5FF0F90E196EFF0E1A6E09EC31
:102AC80064F0000E126E320E116E0BEC5FF082C0D5
:102AD80036F083C037F036C017F037C018F0270E2D
:102AE8001A6E100E196E4CEC60F01750300F000182
:102AF800BF6F270E146E100E136E36C011F037C05C
:102B080012F0FFEC61F011C017F012C018F0030EBC
:102B18001A6EE80E196E4CEC60F01750300F000179
:102B2800C06F030E146EE80E136E36C011F037C076
:102B380012F0FFEC61F011C017F012C018F0000E8F
:102B48001A6E640E196E4CEC60F01750300F0001CD
:102B5800C16F000E146E640E136E36C011F037C0CC
:102B680012F0FFEC61F011C017F012C018F0000E5F
:102B78001A6E0A0E196E4CEC60F01750300F0001F7
:102B8800C26F36C011F037C012F0000E146E0A0E74
:102B9800136EFFEC61F01150300F0001C36FBF0ED0
:102BA800196E000E1A6E050E1B6E2AEC64F067EFA4
:102BB80014F0000E126E0A0E116E0BEC5FF0B10EDF
:102BC800196E000E1A6E020E1B6E2AEC64F0000ECF
:102BD800126E0A0E116E0BEC5FF0C40E196EFF0E2A
:102BE8001A6E09EC64F0000E126E0A0E116E0BECF0
:102BF8005FF04C502D0DE00EF324D96E080EF42032
:102C0800DA6EDECF36F0DDCF37F036C017F037C0DA
:102C180018F0000E1A6E640E196E4CEC60F0175026
:102C2800300F0001B16F000E146E640E136E36C0C3
:102C380011F037C012F0FFEC61F011C017F012C0AC
:102C480018F0000E1A6E0A0E196E4CEC60F0175050
:102C5800300F0001B26F36C011F037C012F0000E0D
:102C6800146E0A0E136EFFEC61F01150300F000164
:102C7800B36FB10E196E000E1A6E030E1B6E2AEC9E
:102C880064F0000E126E0A0E116E0BEC5FF0B20EBD
:102C9800196EFF0E1A6E09EC64F0000E126E0A0E21
:102CA800116E0BEC5FF04C502D0DFA0EF324D96E1B
:102CB800080EF420DA6EDF502E6E2E50116E126A56
:102CC800000E146E0A0E136E9EEC5BF01150300F5E
:102CD8000001B16F4C502D0DFA0EF324D96E080E79
:102CE800F420DA6EDF502E6E2E50236E246A000E0A
:102CF800266E0A0E256E00EC5CF02350300F0001A2
:102D0800B26FB10E196E000E1A6E020E1B6E2AEC0F
:102D180064F0000E126E0A0E116E0BEC5FF0F30EEB
:102D2800196EFF0E1A6E09EC64F0000E126E0A0E90
:102D3800116E0BEC5FF04C502D0DDC0EF324D96EA8
:102D4800080EF420DA6EDECF36F0DDCF37F036C06D
:102D580017F037C018F0000E1A6E640E196E4CEC9E
:102D680060F01750300F0001B16F000E146E640E42
:102D7800136E36C011F037C012F0FFEC61F011C0CD
:102D880017F012C018F0000E1A6E0A0E196E4CECED
:102D980060F01750300F0001B26F36C011F037C025
:102DA80012F0000E146E0A0E136EFFEC61F0115053
:102DB800300F0001B36FB10E196E000E1A6E030EBC
:102DC8001B6E2AEC64F0000E126E0A0E116E0BECEC
:102DD8005FF0ED0E196EFF0E1A6E09EC64F0000E2E
:102DE800126E0A0E116E0BEC5FF04C502D0DDE0EBC
:102DF800F324D96E080EF420DA6EDECF36F0DDCF7C
:102E080037F036C017F037C018F0000E1A6E640E8F
:102E1800196E4CEC60F01750300F0001B16F000EC6
:102E2800146E640E136E36C011F037C012F0FFEC4A
:102E380061F011C017F012C018F0000E1A6E0A0ED9
:102E4800196E4CEC60F01750300F0001B26F36C0AD
:102E580011F037C012F0000E146E0A0E136EFFEC5C
:102E680061F01150300F0001B36FB10E196E000EF2
:102E78001A6E030E1B6E2AEC64F0000E126E0A0E18
:102E8800116E0BEC5FF0770E196EFF0E1A6E09ECDF
:102E980064F0000E126E0A0E116E0BEC5FF04C50CF
:102EA8002D0DFD0EF324D96E080EF420DA6EDF50D6
:102EB8002E6E2E50116E126A000E146E0A0E136ECC
:102EC8009EEC5BF01150300F0001B16F4C502D0D8E
:102ED800FD0EF324D96E080EF420DA6EDF502E6E44
:102EE8002E50236E246A000E266E0A0E256E00EC04
:102EF8005CF02350300F0001B26FB10E196E000E56
:102F08001A6E020E1B6E2AEC64F0000E126E0A0E88
:102F1800116E0BEC5FF04C502D0DFE0EF324D96EA4
:102F2800080EF420DA6EDF502E6E2E50116E126AE3
:102F3800000E146E0A0E136E9EEC5BF01150300FEB
:102F48000001B16F4C502D0DFE0EF324D96E080E02
:102F5800F420DA6EDF502E6E2E50236E246A000E97
:102F6800266E0A0E256E00EC5CF02350300F00012F
:102F7800B26FB10E196E000E1A6E020E1B6E2AEC9D
:102F880064F0000E126E0A0E116E0BEC5FF04C50DE
:102F98002D0DFF0EF324D96E080EF420DA6EDF50E3
:102FA8002E6E2E50116E126A000E146E0A0E136EDB
:102FB8009EEC5BF01150300F0001B16F4C502D0D9D
:102FC800FF0EF324D96E080EF420DA6EDF502E6E51
:102FD8002E50236E246A000E266E0A0E256E00EC13
:102FE8005CF02350300F0001B26FB10E196E000E65
:102FF8001A6E020E1B6E2AEC64F0000E126E0A0E98
:10300800116E0BEC5FF04C502D0DFB0EF324D96EB6
:10301800080EF420DA6EDF502E6E2E50116E126AF2
:10302800000E146E0A0E136E9EEC5BF01150300FFA
:103038000001B16F4C502D0DFB0EF324D96E080E14
:10304800F420DA6EDF502E6E2E50236E246A000EA6
:10305800266E0A0E256E00EC5CF02350300F00013E
:10306800B26FB10E196E000E1A6E020E1B6E2AECAC
:1030780064F0000E126E0A0E116E0BEC5FF04C50ED
:103088002D0DFC0EF324D96E080EF420DA6EDF50F5
:103098002E6E2E50116E126A000E146E0A0E136EEA
:1030A8009EEC5BF01150300F0001B16F4C502D0DAC
:1030B800FC0EF324D96E080EF420DA6EDF502E6E63
:1030C8002E50236E246A000E266E0A0E256E00EC22
:1030D8005CF02350300F0001B26FB10E196E000E74
:1030E8001A6E020E1B6E2AEC64F0000E126E0A0EA7
:1030F800116E0BEC5FF0FA0E196EFE0E1A6E09ECEB
:1031080064F04C502D0D070EF324D96E090EF420EF
:10311800DA6EDF50D8B493EF18F095EF18F093EF0C
:1031280019F08A0E196EFE0E1A6E09EC64F04C50F6
:103138002D0DE20EF324D96E080EF420DA6EDECFE0
:1031480036F0DDCF37F036C017F037C018F0000E74
:103158001A6E640E196E4CEC60F01750300F0001B7
:10316800B16F000E146E640E136E36C011F037C0C6
:1031780012F0FFEC61F011C017F012C018F0000E49
:103188001A6E0A0E196E4CEC60F01750300F0001E1
:10319800B26F36C011F037C012F0000E146E0A0E6E
:1031A800136EFFEC61F01150300F0001B36FB10ED8
:1031B800196E000E1A6E030E1B6E2AEC64F0000ED8
:1031C800126E0A0E116E0BEC5FF0C40E196EFF0E34
:1031D8001A6E09EC64F0000E126E0A0E116E0BECFA
:1031E8005FF04C502D0DE40EF324D96E080EF42038
:1031F800DA6EDECF36F0DDCF37F036C017F037C0E5
:1032080018F0000E1A6E640E196E4CEC60F0175030
:10321800300F0001B16F000E146E640E136E36C0CD
:1032280011F037C012F0FFEC61F011C017F012C0B6
:1032380018F0000E1A6E0A0E196E4CEC60F017505A
:10324800300F0001B26F36C011F037C012F0000E17
:10325800146E0A0E136EFFEC61F01150300F00016E
:10326800B36FB10E196E000E1A6E030E1B6E2AECA8
:1032780064F0000E126E0A0E116E0BEC5FF04A0E2F
:10328800196EFF0E1A6E09EC64F0000E126E0A0E2B
:10329800116E0BEC5FF04C502D0D000EF324D96E1F
:1032A800090EF420DA6EDF502E6E2E50116E126A5F
:1032B800000E146E0A0E136E9EEC5BF01150300F68
:1032C8000001B16F4C502D0D000EF324D96E090E7C
:1032D800F420DA6EDF502E6E2E50236E246A000E14
:1032E800266E0A0E256E00EC5CF02350300F0001AC
:1032F800B26FB10E196E000E1A6E020E1B6E2AEC1A
:1033080064F0000E126E0A0E116E0BEC5FF0FA0EEE
:10331800196EFE0E1A6E09EC64F02EEF1BF0AA0E61
:10332800196EFE0E1A6E09EC64F0000E126E0A0E8B
:10333800116E0BEC5FF02EEF1BF0000E126E0A0EF2
:10334800116E0BEC5FF0610E196EFF0E1A6E09EC30
:1033580064F0000E126E0A0E116E0BEC5FF0A1C045
:1033680011F0126A000E146E0A0E136E9EEC5BF0DA
:103378001150300F0001B16FA1C023F0246A000E74
:10338800266E0A0E256E00EC5CF02350300F00010B
:10339800B26FB10E196E000E1A6E020E1B6E2AEC79
:1033A80064F0000E126E0A0E116E0BEC5FF0DA0E6E
:1033B800196EFF0E1A6E09EC64F0000E126E0A0EFA
:1033C800116E0BEC5FF0A00E196EFF0E1A6E09EC71
:1033D80064F0000E126E0A0E116E0BEC5FF0A0C0C6
:1033E80011F0126A000E146E0A0E136E9EEC5BF05A
:1033F8001150300F0001B16FA0C023F0246A000EF5
:10340800266E0A0E256E00EC5CF02350300F00018A
:10341800B26FB10E196E000E1A6E020E1B6E2AECF8
:1034280064F0000E126E0A0E116E0BEC5FF0DA0EED
:10343800196EFF0E1A6E09EC64F0000E126E0A0E79
:10344800116E0BEC5FF0A90E196EFF0E1A6E09ECE7
:1034580064F0000E126E0A0E116E0BEC5FF09FC046
:1034680011F0126A000E146E0A0E136E9EEC5BF0D9
:103478001150300F0001B16F9FC023F0246A000E75
:10348800266E0A0E256E00EC5CF02350300F00010A
:10349800B26FB10E196E000E1A6E020E1B6E2AEC78
:1034A80064F0000E126E0A0E116E0BEC5FF0E70E60
:1034B800196EFF0E1A6E09EC64F0000E126E0A0EF9
:1034C800116E0BEC5FF06C0E196EFF0E1A6E09ECA4
:1034D80064F0000E126E0A0E116E0BEC5FF03FC026
:1034E80011F0126A000E146E0A0E136E9EEC5BF059
:1034F8001150300F0001B16F3FC023F0246A000E55
:10350800266E0A0E256E00EC5CF02350300F000189
:10351800B26FB10E196E000E1A6E020E1B6E2AECF7
:1035280064F0000E126E0A0E116E0BEC5FF0DA0EEC
:10353800196EFF0E1A6E09EC64F0000E126E0A0E78
:10354800116E0BEC5FF0DB0E196EFE0E1A6E09ECB5
:1035580064F0000E126E0A0E116E0BEC5FF086C05E
:1035680036F087C037F036C017F037C018F0000EB5
:103578001A6E640E196E4CEC60F01750300F000193
:10358800B16F000E146E640E136E36C011F037C0A2
:1035980012F0FFEC61F011C017F012C018F0000E25
:1035A8001A6E0A0E196E4CEC60F01750300F0001BD
:1035B800B26F36C011F037C012F0000E146E0A0E4A
:1035C800136EFFEC61F01150300F0001B36FB10EB4
:1035D800196E000E1A6E030E1B6E2AEC64F0000EB4
:1035E800126E0A0E116E0BEC5FF0E70E196EFF0EED
:1035F8001A6E09EC64F099EF19F02D502E6E2F6AAF
:103608002F50000AD8B40BEF1BF02EEF1BF02E50F2
:10361800010AD8B45FEF14F0030AD8B46FEF14F0BE
:10362800010AD8B479EF14F0070AD8B483EF14F07C
:10363800010AD8B48DEF14F0030AD8B451EF15F08D
:10364800010AD8B4DDEF15F00F0AD8B4A1EF19F0CC
:103658002EEF1BF0000E3D6E000E4D6E1A0E03ECA1
:1036680066F0000E126E640E116E0BEC5FF0000E29
:10367800116E000E37EC66F0C9803D50D8B447EFA4
:103688001BF049EF1BF041EF1BF00E013885000ECF
:10369800116E0F0E37EC66F0010E126EF40E116EFD
:1036A8000BEC5FF01200000E0001FF6FD7A25FEF76
:1036B8001BF061EF1BF08BEF1BF0D7A466EF1BF03C
:1036C80068EF1BF08BEF1BF0D7A66DEF1BF06FEFC9
:1036D8001BF08BEF1BF0D7A074EF1BF076EF1BF0FD
:1036E8008BEF1BF0D7A87BEF1BF07DEF1BF08BEF68
:1036F8001BF0D7BE82EF1BF084EF1BF08BEF1BF0A3
:10370800D7AC89EF1BF08BEF1BF08FEF1EF0D7A221
:1037180090EF1BF092EF1BF099EF1BF0D7B097EFEB
:103728001BF099EF1BF09EEF1BF0D786D784D78844
:10373800D79ED79CD7B2A3EF1BF0A5EF1BF0AAEF3B
:103748001BF0010EFF6FD782EEEF1BF0D7B0AFEF83
:103758001BF0B1EF1BF0B6EF1BF0020EFF6FD78026
:10376800EEEF1BF0D7B6BBEF1BF0BDEF1BF0C2EFBF
:103778001BF0030EFF6FD786EEEF1BF0D7B4C7EF31
:103788001BF0C9EF1BF0CEEF1BF0040EFF6FD784C0
:10379800EEEF1BF0D7B8D3EF1BF0D5EF1BF0DAEF45
:1037A8001BF0050EFF6FD788EEEF1BF0D7BEDFEFDB
:1037B8001BF0E1EF1BF0E8EF1BF0D7ACE6EF1BF0D6
:1037C800E8EF1BF0EEEF1BF0060EFF6FD79ED79CBD
:1037D800EEEF1BF0030EFF19D8B4F5EF1BF0F7EF6F
:1037E8001BF0FDEF1BF0750E126E300E116E0BEC18
:1037F8005FF057EC52F0030E126EE80E116E0BECF0
:103808005FF031EC43F0030E126EE80E116E0BEC14
:103818005FF026EC55F0030E126EE80E116E0BECFD
:103828005FF086EC54F0030E126EE80E116E0BEC8E
:103838005FF000018B51D8A424EF1CF026EF1CF098
:103848002EEF1CF0010E8B6F9DEC5DF0BDEC60F06F
:1038580085EC63F0030E0001FF19D8A436EF1CF0C5
:1038680038EF1CF08DEF1EF0000E4C6E53EF1CF07D
:10387800010E116E000E37EC66F0010E126EF40E9A
:10388800116E0BEC5FF0010E116E0F0E37EC66F047
:10389800010E126EF40E116E0BEC5FF04C2A050E41
:1038A8004C6059EF1CF05BEF1CF064EF1CF000015A
:1038B800A651D8B462EF1CF064EF1CF03CEF1CF08A
:1038C8000001A651D8A46BEF1CF06DEF1CF05BEF64
:1038D8001EF0010E4C6E090E4C6475EF1CF077EF6C
:1038E8001CF079EF1CF08BEF1CF00001A62B64ECA8
:1038F80063F0010E116E4C5037EC66F0270E126E15
:10390800100E116E0BEC5FF04C2A6FEF1CF0000EDE
:103918000001A66F64EC63F08DEF1EF0000E00014D
:10392800A66F64EC63F0000E4C6E040E4C649FEFBF
:103938001CF0A1EF1CF0A3EF1CF0BCEF1CF0010E73
:10394800116E0F0E37EC66F0010E126EF40E116E4A
:103958000BEC5FF0010E116E010E37EC66F0030EF2
:10396800126EE80E116E0BEC5FF04C2A99EF1CF00A
:10397800000E1E6E020E0AEC41F08E9E000E4D6E79
:103988002E0E296EFA0E2A6EC50E2B6E000E2C6EA8
:10399800050E2D6E28EC14F08BEF1CF0000E0001C4
:1039A800A66F64EC63F0000E4C6E040E4C64DFEFFF
:1039B8001CF0E1EF1CF0E3EF1CF0FCEF1CF0010E33
:1039C800116E0F0E37EC66F0010E126EF40E116ECA
:1039D8000BEC5FF0010E116E020E37EC66F0030E71
:1039E800126EE80E116E0BEC5FF04C2AD9EF1CF04A
:1039F800000E1E6E010E0AEC41F0C2EF1CF0000E24
:103A08000001A66F64EC63F0000E4C6E040E4C646B
:103A180010EF1DF012EF1DF014EF1DF02DEF1DF04B
:103A2800010E116E0F0E37EC66F0010E126EF40ED9
:103A3800116E0BEC5FF0010E116E030E37EC66F0A1
:103A4800030E126EE80E116E0BEC5FF04C2A0AEFB3
:103A58001DF0F5EC48F08BEF1CF0000E0001A66F8E
:103A680064EC63F0000E4C6E040E4C643EEF1DF0E7
:103A780040EF1DF042EF1DF08BEF1CF0010E116EB0
:103A88000F0E37EC66F0010E126EF40E116E0BEC91
:103A98005FF0010E116E040E37EC66F0030E126E25
:103AA800E80E116E0BEC5FF04C2A38EF1DF0000E9B
:103AB8000001A66F64EC63F0000E4C6E040E4C64BB
:103AC80068EF1DF06AEF1DF06CEF1DF08BEF1CF036
:103AD800010E116E0F0E37EC66F0010E126EF40E29
:103AE800116E0BEC5FF0010E116E050E37EC66F0EF
:103AF800030E126EE80E116E0BEC5FF04C2A62EFAB
:103B08001DF0000E0001A66F64EC63F0000E4C6E11
:103B1800040E4C6492EF1DF094EF1DF096EF1DF02B
:103B28008BEF1CF0010E116E0F0E37EC66F0010ED4
:103B3800126EF40E116E0BEC5FF0010E116E060E94
:103B480037EC66F0030E126EE80E116E0BEC5FF0A8
:103B58004C2A8CEF1DF0000E0001A66F64EC63F098
:103B68003E50D8B4BAEF1DF0BCEF1DF08BEF1CF03F
:103B7800000E4C6E040E4C64C4EF1DF0C6EF1DF031
:103B8800C8EF1DF0E1EF1DF0010E116E0F0E37ECBE
:103B980066F0010E126EF40E116E0BEC5FF0010E62
:103BA800116E070E37EC66F0030E126EE80E116EFA
:103BB8000BEC5FF04C2ABEEF1DF0E3EC4EF05CEC32
:103BC80062F0030E126EE80E116E0BEC5FF031EC32
:103BD80043F08BEF1CF0000E0001A66F64EC63F05D
:103BE8003E50D8B4FAEF1DF0FCEF1DF08BEF1CF03F
:103BF800000E4C6E040E4C6404EF1EF006EF1EF02F
:103C080008EF1EF021EF1EF0010E116E0F0E37ECBB
:103C180066F0010E126EF40E116E0BEC5FF0010EE1
:103C2800116E080E37EC66F0030E126EE80E116E78
:103C38000BEC5FF04C2AFEEF1DF0E3EC4EF0E5EFE5
:103C48001DF0000E0001A66F64EC63F03E50D8B47E
:103C580030EF1EF032EF1EF08BEF1CF0000E4C6EB2
:103C6800040E4C643AEF1EF03CEF1EF03EEF1EF0DF
:103C780057EF1EF0010E116E0F0E37EC66F0010EB5
:103C8800126EF40E116E0BEC5FF0010E116E090E40
:103C980037EC66F0030E126EE80E116E0BEC5FF057
:103CA8004C2A34EF1EF05CEC62F0E5EF1DF0A651F3
:103CB8000101FE6FFF6BFF51000AD8B466EF1EF0DA
:103CC8008BEF1CF0FE51010AD8B492EF1CF0030AE6
:103CD800D8B4D2EF1CF0010AD8B403EF1DF0070ADC
:103CE800D8B431EF1DF0010AD8B45BEF1DF0030A18
:103CF800D8B485EF1DF0010AD8B4AFEF1DF00F0A54
:103D0800D8B4EFEF1DF0010AD8B425EF1EF08BEF01
:103D18001CF031EC62F03E50D8B495EF1EF097EFEE
:103D28001EF07EEF21F042EC63F00009D8B49FEF5B
:103D38001EF0A1EF1EF0B6EF1EF0FF0E396EDC0E7E
:103D4800386E680E296EF70E2A6EC50E2B6E000EA1
:103D58002C6E000E2D6E28EC14F0010E00018E6FF3
:103D6800A2EF21F0000E0001A56F000E4C6E12EFBD
:103D780020F04C502D0D050EF324D96E090EF420B9
:103D8800DA6EDE04D8A4CBEF1EF0CDEF1EF011EFF3
:103D980020F058EC5CF04C502D0DFF0EF324D96E3A
:103DA800080EF420DA6E4750DE5CD8A0DEEF1EF075
:103DB800E0EF1EF079EF1FF04C502D0DFE0EF324AE
:103DC800D96E080EF420DA6E4650DE5CD8B0EFEFFC
:103DD8001EF0F1EF1EF002EF1FF04C502D0DFF0EFC
:103DE800F324D96E080EF420DA6E4750DE18D8B4E2
:103DF80000EF1FF002EF1FF079EF1FF04C502D0D70
:103E0800FD0EF324D96E080EF420DA6E4550DE5C00
:103E1800D8B011EF1FF013EF1FF035EF1FF04C5023
:103E28002D0DFE0EF324D96E080EF420DA6E4650DE
:103E3800DE18D8A422EF1FF024EF1FF035EF1FF093
:103E48004C502D0DFF0EF324D96E080EF420DA6EB7
:103E58004750DE18D8B433EF1FF035EF1FF079EF75
:103E68001FF04C502D0DFB0EF324D96E080EF420D4
:103E7800DA6E4450DE5CD8B044EF1FF046EF1FF016
:103E88000BEF20F04C502D0DFD0EF324D96E080ECB
:103E9800F420DA6E4550DE18D8A455EF1FF057EF1E
:103EA8001FF00BEF20F04C502D0DFE0EF324D96EB1
:103EB800080EF420DA6E4650DE18D8A466EF1FF01C
:103EC80068EF1FF00BEF20F04C502D0DFF0EF32480
:103ED800D96E080EF420DA6E4750DE18D8A477EFB2
:103EE8001FF079EF1FF00BEF20F0000E3C6E4C50E6
:103EF8002D0D050EF324D96E090EF420DA6E000E8E
:103F0800DF6E4C502D0D030EF324D96E090EF420EC
:103F1800DA6E4C502D0D040EF324E16E090EF420D8
:103F2800E26EDFCFE7FF4CC0A5F04C502D0D070E19
:103F3800F324D96E090EF420DA6EDF50D8B4A7EF57
:103F48001FF0A9EF1FF003EF20F04C502D0D020ECB
:103F5800F324D96E090EF420DA6E020EDE18D8A406
:103F6800B8EF1FF0BAEF1FF0D8EF1FF04C502D0D2F
:103F7800020EF324D96E090EF420DA6E000EDF6EFD
:103F88004C502D0D080EF324D96E090EF420DA6E6C
:103F9800010EDF6E4DEC5DF01BC084F01CC085F097
:103FA800D5EC5FF003EF20F04C502D0D020EF324FA
:103FB800D96E090EF420DA6E030EDE18D8B4E7EFD6
:103FC8001FF0E9EF1FF0F9EF1FF04C502D0D020E16
:103FD800F324D96E090EF420DA6EDE04D8A4F7EFC4
:103FE8001FF0F9EF1FF003EF20F04C502D0D020EDB
:103FF800F324D96E090EF420DA6E000EDF6E000E7F
:10400800126E640E116E0BEC5FF01AEF20F0010EC9
:104018003C6E4CC0A5F01AEF20F04C2A0B0E4C64F5
:1040280018EF20F01AEF20F0BDEF1EF03C50D8B486
:1040380020EF20F022EF20F021EF21F0010E000107
:10404800936F090E4C602BEF20F02DEF20F034EF2A
:1040580020F0300EB16F4C50310FB26F9FEF20F04F
:10406800080E4C643AEF20F03CEF20F09FEF20F070
:104078000C0E4C6042EF20F044EF20F09FEF20F050
:10408800310EB16F4C50270FB26F9FEF20F0A60E84
:10409800296EF40E2A6EC50E2B6E000E2C6E020EC3
:1040A8002D6E28EC14F0C5EF20F0410E296EF50EA8
:1040B8002A6EC50E2B6E000E2C6E020E2D6E28EC8D
:1040C80014F0C5EF20F0F40E296EF40E2A6EC50E1A
:1040D8002B6E000E2C6E020E2D6E28EC14F0C5EF20
:1040E80020F0540E296EF40E2A6EC50E2B6E000EAB
:1040F8002C6E020E2D6E28EC14F0C5EF20F0D60EB3
:10410800296EF50E2A6EC50E2B6E000E2C6E020E51
:104118002D6E28EC14F0C5EF20F08C0E296EF50EEC
:104128002A6EC50E2B6E000E2C6E020E2D6E28EC1C
:1041380014F0C5EF20F0FF510101FE6FFF6BFF5136
:10414800000AD8B4AAEF20F0C5EF20F0FE51010A0A
:10415800D8B44BEF20F0030AD8B459EF20F0010A85
:10416800D8B467EF20F0070AD8B475EF20F0010A39
:10417800D8B483EF20F0030AD8B491EF20F0C5EF4C
:1041880020F04DEC5DF01BC038F01CC039F0A2EFF8
:1041980021F02D0E296EFB0E2A6EC50E2B6E000E19
:1041A8002C6E000E2D6E28EC14F048EF21F00A0E4C
:1041B800296EFD0E2A6EC50E2B6E000E2C6E000E9B
:1041C8002D6E28EC14F048EF21F0520E296EFB0EEC
:1041D8002A6EC50E2B6E000E2C6E000E2D6E28EC6E
:1041E80014F048EF21F0B40E296EFA0E2A6EC50EAF
:1041F8002B6E000E2C6E000E2D6E28EC14F048EF7E
:1042080021F0670E296EFC0E2A6EC50E2B6E000E6D
:104218002C6E000E2D6E28EC14F048EF21F0460E9F
:10422800296EFC0E2A6EC50E2B6E000E2C6E000E2B
:104238002D6E28EC14F048EF21F00001FF51010128
:10424800FE6FFF6BFF51000AD8B42DEF21F048EF45
:1042580021F0FE51010AD8B4CDEF20F0030AD8B4FA
:10426800DBEF20F0010AD8B4E9EF20F0070AD8B450
:10427800F7EF20F0010AD8B405EF21F0030AD8B40B
:1042880013EF21F048EF21F0A2EF21F0000E116E9C
:10429800010E37EC66F0D70E116E000E126ED00EBE
:1042A800136E000E146E000E166E060E156E93EC4D
:1042B8005FF0FF0E396EDC0E386ECDEC4CF000016D
:1042C8009D51D8B46AEF21F06CEF21F07EEF21F018
:1042D800010E116E020E37EC66F0010E126EF40E2E
:1042E800116E0BEC5FF0000E00019D6F6DEC02F09B
:1042F80031EC62F03E50D8B484EF21F086EF21F023
:104308004AEF21F042EC63F00009D8B48EEF21F0B7
:1043180090EF21F0A2EF21F0FF0E396EDC0E386E1F
:10432800EC0E296EF60E2A6EC50E2B6E000E2C6E44
:10433800000E2D6E28EC14F0B1EF1EF0F3EC60F0D7
:104348000009D8B4AAEF21F0ACEF21F0D3EF21F0A7
:104358006C0E296EF90E2A6EC50E2B6E000E2C6E91
:10436800000E2D6E28EC14F000018A51D8B4BFEF6E
:1043780021F0C1EF21F02BEF22F081EC51F0030E78
:10438800126EE80E116E0BEC5FF0C3EC5EF0030EDC
:10439800126EE80E116E0BEC5FF02BEF22F00001AD
:1043A8009051D8B4DAEF21F0DCEF21F021EF22F0C0
:1043B800000E906F000E126E640E116E0BEC5FF023
:1043C800A6EC63F0000E126E640E116E0BEC5FF03B
:1043D80000018A51D8B4F3EF21F0F5EF21F013EF83
:1043E80022F081EC51F0030E126EE80E116E0BEC08
:1043F8005FF0C3EC5EF0030E126EE80E116E0BEC6C
:104408005FF0C90E296EF80E2A6EC50E2B6E000ECF
:104418002C6E000E2D6E28EC14F02BEF22F0910E6E
:10442800296EF80E2A6EC50E2B6E000E2C6E000E2D
:104438002D6E28EC14F02BEF22F08A51D8B427EF18
:1044480022F029EF22F02BEF22F0C1EF21F0120029
:104458003C50D8B432EF22F034EF22F02AEF26F0A5
:1044680038503910D8A43BEF22F03DEF22F02AEF64
:1044780026F000019751D8A444EF22F046EF22F02D
:104488002AEF26F09151D8A44CEF22F04EEF22F0FB
:104498002AEF26F09451D8A454EF22F056EF22F0D8
:1044A8002AEF26F09651D8A45CEF22F05EEF22F0B6
:1044B8002AEF26F0000E306E20EF26F030502D0D3A
:1044C800050EF324D96E090EF420DA6EDE04D8A4A2
:1044D80070EF22F072EF22F002EF24F030502D0D31
:1044E800070EF324D96E090EF420DA6EDF50D8B423
:1044F80080EF22F082EF22F002EF24F030502D0DF1
:10450800020EF324D96E090EF420DA6EDE04D8A464
:1045180090EF22F092EF22F002EF24F0030E126ED9
:10452800E80E116E0BEC5FF08E8C000E0001796FB7
:10453800000E786F000E776F000E766F000E756FA5
:10454800000E746F000E736F000E726F000E696FAD
:10455800000E686F000E676F000E666F000E656FC5
:10456800000E646F000E636F000E626F000EAC6F7A
:10457800000EAB6F000EAA6F000EA96F30502D0D04
:10458800E60EF324D96E080EF420DA6EDECF80F042
:10459800DDCF81F030502D0DE80EF324D96E080ED2
:1045A800F420DA6EDECF7EF0DDCF7FF030502D0DB7
:1045B800EA0EF324D96E080EF420DA6EDECF7CF012
:1045C800DDCF7DF030502D0DEC0EF324D96E080EA2
:1045D800F420DA6EDECF7AF0DDCF7BF030502D0D8F
:1045E800EE0EF324D96E080EF420DA6EDECF70F0EA
:1045F800DDCF71F030502D0DF00EF324D96E080E7A
:10460800F420DA6EDECF6EF0DDCF6FF030502D0D76
:10461800F20EF324D96E080EF420DA6EDECF6CF0B9
:10462800DDCF6DF030502D0DF40EF324D96E080E49
:10463800F420DA6EDECF6AF0DDCF6BF030502D0D4E
:10464800F60EF324D96E080EF420DA6EDF50B06F40
:1046580030502D0DF70EF324D96E080EF420DA6EC3
:10466800DF50AF6F30502D0DF80EF324D96E080EC1
:10467800F420DA6EDF50AE6F30502D0DF90EF324B2
:10468800D96E080EF420DA6EDF50AD6F8E84784B49
:10469800792B8E86764B772B8E88744B752B8E8A6A
:1046A800724B732B30502D0D020EF324D96E090E68
:1046B800F420DA6E020EDF6E30502D0D080EF32452
:1046C800D96E090EF420DA6EDF50D8B46EEF23F0FD
:1046D80070EF23F086EF23F030502D0D080EF324F1
:1046E800D96E090EF420DA6E000EDF6EFDEC5CF078
:1046F8001BC084F01CC085F084C038F085C039F038
:1047080092EF23F030502D0DE40EF324D96E080EED
:10471800F420DA6EDECF38F0DDCF39F0000E126EFD
:10472800640E116E0BEC5FF03050020D4D0EF32449
:10473800F66EF20EF420F76E0900F5CF19F00A00B4
:10474800F5CF1AF030502D0DDC0EF3241B6E080E39
:10475800F4201C6E31EC5EF0000E126E640E116EC9
:104768000BEC5FF011EC60F0000E126E640E116E2F
:104778000BEC5FF0090E3060C4EF23F0C6EF23F0B6
:10478800CEEF23F0300E0001B16F3050310FB26F11
:10479800E4EF23F0080E3064D4EF23F0D6EF23F0D3
:1047A800E4EF23F00C0E3060DCEF23F0DEEF23F0B3
:1047B800E4EF23F0310E0001B16F3050270FB26FD4
:1047C80030502D0D000EF324D96E090EF420DA6E48
:1047D800DE04D8A4F2EF23F0F4EF23F0E0EF27F0A3
:1047E800020E296EFC0E2A6EC50E2B6E000E2C6E64
:1047F800020E2D6E28EC14F0E0EF27F030502D0D4E
:10480800050EF324D96E090EF420DA6EDE04D8A45E
:1048180010EF24F012EF24F045EF25F030502D0D65
:10482800070EF324D96E090EF420DA6EDF50D8B4DF
:1048380020EF24F022EF24F045EF25F030502D0D25
:10484800020EF324D96E090EF420DA6E020EDE1879
:10485800D8A431EF24F033EF24F045EF25F0030E10
:10486800126EE80E116E0BEC5FF08E9C8E948E9695
:104878008E988E9A30502D0D020EF324D96E090EA3
:10488800F420DA6E030EDF6E30502D0D000EF32487
:10489800D96E090EF420DA6EDF0630502D0D000EA9
:1048A800F324D96E090EF420DA6EDF50D8A45FEF36
:1048B80024F061EF24F06BEF24F030502D0D070E3B
:1048C800F324D96E090EF420DA6E000EDF6E000EA6
:1048D800126E640E116E0BEC5FF03050020D4D0E2F
:1048E800F324F66EF20EF420F76E0900F5CF19F0F6
:1048F8000A00F5CF1AF030502D0DDC0EF3241B6E94
:10490800080EF4201C6E09EC3CF0000E126E640ECA
:10491800116E0BEC5FF030502D0DE00EF324D96EC4
:10492800080EF420DA6EDECFF9F3DDCFFAF330505B
:104938002D0DE40EF324D96E080EF420DA6EDECFC6
:10494800FBF3DDCFFCF330502D0DE20EF324D96ECE
:10495800080EF420DA6EDECFFDF3DDCFFEF303019F
:10496800FD1FFE1FFD4BFE2BFB51FD5FFC51FE5B47
:10497800F951FD25386EFA51FE21396E000E126E7E
:10498800640E116E0BEC5FF011EC60F0000E126E0D
:10499800640E116E0BEC5FF0090E3060D6EF24F058
:1049A800D8EF24F0E0EF24F0300E0001B16F305062
:1049B800310FB26FF6EF24F0080E3064E6EF24F002
:1049C800E8EF24F0F6EF24F00C0E3060EEEF24F060
:1049D800F0EF24F0F6EF24F0310E0001B16F305003
:1049E800270FB26F30502D0D000EF324D96E090E2B
:1049F800F420DA6EDF50D8A404EF25F006EF25F096
:104A0800E0EF27F000018851D8B40DEF25F00FEF43
:104A180025F01FEF25F0000E886FA40E296EF70E03
:104A28002A6EC50E2B6E000E2C6E020E2D6E28EC13
:104A380014F0E0EF27F09B51D8B425EF25F027EFCD
:104A480025F037EF25F0000E9B6F200E296EF60E2D
:104A58002A6EC50E2B6E000E2C6E020E2D6E28ECE3
:104A680014F0E0EF27F0E00E296EFB0E2A6EC50E5B
:104A78002B6E000E2C6E020E2D6E28EC14F0E0EF5B
:104A880027F030502D0D050EF324D96E090EF420B1
:104A9800DA6EDE04D8A453EF25F055EF25F01FEFAA
:104AA80026F030502D0D050EF324D96E090EF42092
:104AB800DA6E000EDF6E30502D0D030EF324D96E22
:104AC800090EF420DA6E30502D0D040EF324E16E39
:104AD800090EF420E26EDE50E618D8A476EF25F031
:104AE80078EF25F084EF25F030502D0D040EF324D7
:104AF800D96E090EF420DA6E010EDF6E8DEF25F007
:104B080030502D0D040EF324D96E090EF420DA6E00
:104B1800DF2A000E3C6E010E0001956F3028A56F4C
:104B2800000E126E640E116E0BEC5FF0305020EC2C
:104B380063F0000E126E640E116E0BEC5FF03050D5
:104B4800020D4D0EF324F66EF20EF420F76E0900F6
:104B5800F5CF19F00A00F5CF1AF030502D0DDC0E04
:104B6800F3241B6E080EF4201C6E82EC64F0000E19
:104B7800126E640E116E0BEC5FF03050020D4D0E8C
:104B8800F324F66EF20EF420F76E0900F5CF19F053
:104B98000A00F5CF1AF030502D0DDC0EF3241B6EF1
:104BA800080EF4201C6E65EC64F0000E126E640EA4
:104BB800116E0BEC5FF030502D0D070EF324D96EFB
:104BC800090EF420DA6EDF50D8B4EDEF25F0EFEFE0
:104BD80025F0E0EF27F030502D0D020EF324D96EAA
:104BE800090EF420DA6E000EDF6E000E126E640EEF
:104BF800116E0BEC5FF03050020D4D0EF324F66E83
:104C0800F20EF420F76E0900F5CF19F00A00F5CF7F
:104C18001AF030502D0DDC0EF3241B6E080EF42014
:104C28001C6E31EC5EF0000E126E640E116E0BEC11
:104C38005FF0E0EF27F0302A0B0E306426EF26F005
:104C480028EF26F062EF22F0E0EF27F00001945100
:104C5800D8B431EF26F033EF26F0E0EF27F0000E5E
:104C6800946F000E306ED8EF27F030502D0D050EE2
:104C7800F324D96E090EF420DA6EDE04D8A447EFC7
:104C880026F049EF26F0D7EF27F030502D0D060E0D
:104C9800F324D96E090EF420DA6EDF50D8A457EF4A
:104CA80026F059EF26F01DEF27F030502D0D050E98
:104CB800F324D96E090EF420DA6E000EDF6E305040
:104CC8002D0D030EF324D96E090EF420DA6E305040
:104CD8002D0D040EF324E16E090EF420E26EDE5071
:104CE800E618D8A47AEF26F07CEF26F088EF26F0B5
:104CF80030502D0D040EF324D96E090EF420DA6E0F
:104D0800010EDF6E91EF26F030502D0D040EF324C6
:104D1800D96E090EF420DA6EDF2A30502D0D020EFE
:104D2800F324D96E090EF420DA6E020EDE18D8A428
:104D3800A0EF26F0A2EF26F0CFEF26F08E9C8E94FF
:104D48008E968E988E9A30502D0D020EF324D96EC1
:104D5800090EF420DA6E000EDF6E3050020D4D0E93
:104D6800F324F66EF20EF420F76E0900F5CF19F071
:104D78000A00F5CF1AF030502D0DDC0EF3241B6E0F
:104D8800080EF4201C6E31EC5EF0000E126E640EFC
:104D9800116E0BEC5FF0000E3C6E010E0001956F7A
:104DA8003028A56F000E126E640E116E0BEC5FF0CA
:104DB800305020EC63F0000E126E640E116E0BEC96
:104DC8005FF03050020D4D0EF324F66EF20EF42013
:104DD800F76E0900F5CF19F00A00F5CF1AF0305038
:104DE8002D0DDC0EF3241B6E080EF4201C6E82ECD5
:104DF80064F0000E126E640E116E0BEC5FF0305012
:104E0800020D4D0EF324F66EF20EF420F76E090033
:104E1800F5CF19F00A00F5CF1AF030502D0DDC0E41
:104E2800F3241B6E080EF4201C6E65EC64F017EF7B
:104E380026F030502D0D020EF324D96E090EF42001
:104E4800DA6EDE04D8A42BEF27F02DEF27F05AEF07
:104E580027F04DEC5DF01BC038F01CC039F0305025
:104E68002D0DE20EF324D96E080EF420DA6EDECF93
:104E7800F9F3DDCFFAF330502D0DE00EF324D96E9F
:104E8800080EF420DA6EDECFFBF3DDCFFCF303016E
:104E9800F951FB5FFA51FC5B3850FB25386E3950ED
:104EA800FC21396E11EC60F017EF26F030502D0D13
:104EB800020EF324D96E090EF420DA6E020EDE1803
:104EC800D8A469EF27F06BEF27F0D7EF27F08E9C77
:104ED8008E948E968E988E9A30502D0D020EF32455
:104EE800D96E090EF420DA6E000EDF6E3050020D16
:104EF8004D0EF324F66EF20EF420F76E0900F5CF8E
:104F080019F00A00F5CF1AF030502D0DDC0EF324FD
:104F18001B6E080EF4201C6E31EC5EF0000E126E53
:104F2800640E116E0BEC5FF04DEC5DF01BC038F0B9
:104F38001CC039F030502D0DE00EF324D96E080E48
:104F4800F420DA6EDECFF9F3DDCFFAF330502D0D11
:104F5800E40EF324D96E080EF420DA6EDECFFBF3EC
:104F6800DDCFFCF330502D0DE20EF324D96E080E80
:104F7800F420DA6EDECFFDF3DDCFFEF30301FD1F73
:104F8800FE1FFD4BFE2BFB51FD5FFC51FE5BF951F3
:104F9800FD27FA51FE233850FD25386E3950FE2181
:104FA800396E56EF27F0302A0B0E3064DEEF27F00B
:104FB800E0EF27F039EF26F01200000E126E320EE5
:104FC800116E0BEC5FF01BC019F01CC01AF0BDECA1
:104FD80065F01F6E1F50366E376A000E126E320E65
:104FE800116E0BEC5FF0FF0E3616000E3716010E31
:104FF8001B24196E000E1C201A6EBDEC65F01F6E86
:105008001F50346E356A000E126E320E116E0BECA4
:105018005FF03450356E346A000E3416FF0E3516C4
:10502800345036101F6E35503710206E1DC0D9FF12
:105038001EC0DAFF1FC0DEFF20C0DDFF020E1B24EA
:10504800196E000E1C201A6EBDEC65F01F6E1F5005
:10505800366E376A000E126E320E116E0BEC5FF070
:10506800FF0E3616000E3716030E1B24196E000E9F
:105078001C201A6EBDEC65F01F6E1F50346E356A29
:10508800000E126E320E116E0BEC5FF03450356E5E
:10509800346A000E3416FF0E3516345036101F6E63
:1050A80035503710206E20EE02F01D50D9261E50C4
:1050B800DA221FC0DEFF20C0DDFF040E1B24196E9C
:1050C800000E1C201A6EBDEC65F01F6E1F50366E68
:1050D800376A000E126E320E116E0BEC5FF0FF0E87
:1050E8003616000E3716050E1B24196E000E1C20EE
:1050F8001A6EBDEC65F01F6E1F50346E356A000ED7
:10510800126E320E116E0BEC5FF03450356E346A4D
:10511800000E3416FF0E3516345036101F6E3550FB
:105128003710206E20EE04F01D50D9261E50DA22CA
:105138001FC0DEFF20C0DDFF000E126E320E116EA2
:105148000BEC5FF0060E1B24196E000E1C201A6E65
:10515800BDEC65F01F6E1F50366E376A000E126E7A
:10516800320E116E0BEC5FF0FF0E3616000E37167E
:10517800070E1B24196E000E1C201A6EBDEC65F07C
:105188001F6E1F50346E356A3450356E346A000E07
:105198003416FF0E3516345036101F6E3550371042
:1051A800206E20EE06F01D50D9261E50DA221FC0B0
:1051B800DEFF20C0DDFF000E126E320E116E0BEC0A
:1051C8005FF0080E1B24196E000E1C201A6EBDEC31
:1051D80065F01F6E1F50366E376A000E126E320E63
:1051E800116E0BEC5FF0FF0E3616000E3716090E27
:1051F8001B24196E000E1C201A6EBDEC65F01F6E84
:105208001F50346E356A3450356E346A000E3416C9
:10521800FF0E3516345036101F6E35503710206E7D
:1052280020EE08F01D50D9261E50DA221FC0DEFFDE
:1052380020C0DDFF000E126E320E116E0BEC5FF017
:105248000A0E1B24196E000E1C201A6EBDEC65F0A8
:105258001F6E1F50366E376A000E126E320E116EB8
:105268000BEC5FF0FF0E3616000E37160B0E1B24E4
:10527800196E000E1C201A6EBDEC65F01F6E1F50D3
:10528800346E356A3450356E346A000E3416FF0EAB
:105298003516345036101F6E35503710206E20EEFC
:1052A8000AF01D50D9261E50DA221FC0DEFF20C08A
:1052B800DDFF000E126E320E116E0BEC5FF00C0E5D
:1052C8001B24196E000E1C201A6EBDEC65F01F6EB3
:1052D8001F50366E376A000E126E320E116E0BECCE
:1052E8005FF0FF0E3616000E37160D0E1B24196ED2
:1052F800000E1C201A6EBDEC65F01F6E1F50346E38
:10530800356A3450356E346A000E3416FF0E351681
:10531800345036101F6E35503710206E20EE0CF0CA
:105328001D50D9261E50DA221FC0DEFF20C0DDFF27
:10533800000E126E320E116E0BEC5FF00E0E1B2477
:10534800196E000E1C201A6EBDEC65F01F6E1F5002
:10535800366E376A000E126E320E116E0BEC5FF06D
:10536800FF0E3616000E37160F0E1B24196E000E90
:105378001C201A6EBDEC65F01F6E1F50346E356A26
:105388003450356E346A000E3416FF0E351634501C
:1053980036101F6E35503710206E20EE0EF01D505F
:1053A800D9261E50DA221FC0DEFF20C0DDFF000E06
:1053B800126E320E116E0BEC5FF0100E1B24196E7C
:1053C800000E1C201A6EBDEC65F01F6E1F50366E65
:1053D800376A000E126E320E116E0BEC5FF0FF0E84
:1053E8003616000E3716110E1B24196E000E1C20DF
:1053F8001A6EBDEC65F01F6E1F50346E356A34505E
:10540800356E346A000E3416FF0E351634503610D9
:105418001F6E35503710206E20EE10F01D50D92623
:105428001E50DA221FC0DEFF20C0DDFF000E126E04
:10543800320E116E0BEC5FF0120E1B24196E000E6B
:105448001C201A6EBDEC65F01F6E1F50366E376A51
:10545800000E126E320E116E0BEC5FF0FF0E361658
:10546800000E3716130E1B24196E000E1C201A6E20
:10547800BDEC65F01F6E1F50346E356A3450356EC2
:10548800346A000E3416FF0E3516345036101F6E6F
:1054980035503710206E20EE12F01D50D9261E50C0
:1054A800DA221FC0DEFF20C0DDFF000E126E320EB2
:1054B800116E0BEC5FF0140E1B24196E000E1C20ED
:1054C8001A6EBDEC65F01F6E1F50366E376A000EFF
:1054D800126E320E116E0BEC5FF0FF0E3616000ED8
:1054E8003716150E1B24196E000E1C201A6EBDEC03
:1054F80065F01F6E1F50346E356A3450356E346A4D
:10550800000E3416FF0E3516345036101F6E355007
:105518003710206E20EE14F01D50D9261E50DA22C6
:105528001FC0DEFF20C0DDFF000E126E320E116EAE
:105538000BEC5FF0160E1B24196E000E1C201A6E61
:10554800BDEC65F01F6E1F50366E376A000E126E86
:10555800320E116E0BEC5FF0FF0E3616000E37168A
:10556800170E1B24196E000E1C201A6EBDEC65F078
:105578001F6E1F50346E356A3450356E346A000E13
:105588003416FF0E3516345036101F6E355037104E
:10559800206E20EE16F01D50D9261E50DA221FC0AC
:1055A800DEFF20C0DDFF000E126E320E116E0BEC16
:1055B8005FF0180E1B24196E000E1C201A6EBDEC2D
:1055C80065F01F6E1F50366E376A000E126E320E6F
:1055D800116E0BEC5FF0FF0E3616000E3716190E23
:1055E8001B24196E000E1C201A6EBDEC65F01F6E90
:1055F8001F50346E356A3450356E346A000E3416D6
:10560800FF0E3516345036101F6E35503710206E89
:1056180020EE18F01D50D9261E50DA221FC0DEFFDA
:1056280020C0DDFF000E126E320E116E0BEC5FF023
:1056380020EE1AF01D50D9261E50DA221A0E1B240D
:10564800196E000E1C201A6EBDEC65F0DF6E000EA0
:10565800126E320E116E0BEC5FF020EE1BF01D5037
:10566800D9261E50DA221B0E1B24196E000E1C2090
:105678001A6EBDEC65F0DF6E000E126E320E116E02
:105688000BEC5FF020EE1CF01D50D9261E50DA22DC
:105698001C0E1B24196E000E1C201A6EBDEC65F042
:1056A800DF6E000E126E320E116E0BEC5FF020EE04
:1056B8001DF01D50D9261E50DA221D0E1B24196E0E
:1056C800000E1C201A6EBDEC65F0DF6E000E126E27
:1056D800320E116E0BEC5FF020EE1EF01D50D92635
:1056E8001E50DA221E0E1B24196E000E1C201A6E84
:1056F800BDEC65F0DF6E000E126E320E116E0BEC13
:105708005FF020EE1FF01D50D9261E50DA221F0E22
:105718001B24196E000E1C201A6EBDEC65F0DF6E9E
:10572800000E126E320E116E0BEC5FF020EE20F0C0
:105738001D50D9261E50DA22200E1B24196E000E89
:105748001C201A6EBDEC65F0DF6E000E126E320E74
:10575800116E0BEC5FF020EE21F01D50D9261E5083
:10576800DA22210E1B24196E000E1C201A6EBDECC5
:1057780065F0DF6E000E126E320E116E0BEC5FF0EC
:1057880020EE22F01D50D9261E50DA22220E1B24AC
:10579800196E000E1C201A6EBDEC65F0DF6E000E4F
:1057A800126E320E116E0BEC5FF020EE23F01D50DE
:1057B800D9261E50DA22230E1B24196E000E1C2037
:1057C8001A6EBDEC65F0DF6E000E126E320E116EB1
:1057D8000BEC5FF020EE24F01D50D9261E50DA2283
:1057E800240E1B24196E000E1C201A6EBDEC65F0E9
:1057F800DF6E000E126E320E116E0BEC5FF020EEB3
:1058080025F01D50D9261E50DA22250E1B24196EAC
:10581800000E1C201A6EBDEC65F0DF6E000E126ED5
:10582800320E116E0BEC5FF020EE26F01D50D926DB
:105838001E50DA22260E1B24196E000E1C201A6E2A
:10584800BDEC65F0DF6E000E126E320E116E0BECC1
:105858005FF020EE27F01D50D9261E50DA22270EC1
:105868001B24196E000E1C201A6EBDEC65F0DF6E4D
:10587800000E126E320E116E0BEC5FF020EE28F067
:105888001D50D9261E50DA22280E1B24196E000E30
:105898001C201A6EBDEC65F0DF6E000E126E320E23
:1058A800116E0BEC5FF020EE29F01D50D9261E502A
:1058B800DA22290E1B24196E000E1C201A6EBDEC6C
:1058C80065F00009D8A46BEF2CF06EEF2CF0010EF8
:1058D8006FEF2CF0000EDF6E000E126E320E116E9E
:1058E8000BEC5FF020EE2AF01D50D9261E50DA226C
:1058F8002A0E1B24196E000E1C201A6EBDEC65F0D2
:105908000009D8A48AEF2CF08DEF2CF0010E8EEF51
:105918002CF0000EDF6E000E126E320E116E0BECC4
:105928005FF020EE2BF01D50D9261E50DA222B0EE8
:105938001B24196E000E1C201A6EBDEC65F00009C0
:10594800D8A4A9EF2CF0ACEF2CF0010EADEF2CF0A1
:10595800000EDF6E000E126E320E116E0BEC5FF051
:1059680020EE2CF01D50D9261E50DA222C0E1B24B6
:10597800196E000E1C201A6EBDEC65F00009D8A443
:10598800C8EF2CF0CBEF2CF0010ECCEF2CF0000E72
:10599800DF6E000E126E320E116E0BEC5FF012000D
:1059A800010E0601F36F6E0EF26F010EF56F6D0EAC
:1059B800F46F000EF76F000EF66FFF0E396EDC0EF7
:1059C800386E000E00019A6F0B0EA565EEEF2CF0F5
:1059D800F0EF2CF0F2EF2CF0000EA56FA5C04CF004
:1059E80055EF30F04C502D0D060EF324D96E090EEC
:1059F800F420DA6EDF50D8B404EF2DF006EF2DF066
:105A080054EF30F04C502D0D050EF324D96E090ECD
:105A1800F420DA6EDE04D8B414EF2DF016EF2DF072
:105A280054EF30F000019A51D8A41DEF2DF01FEF6C
:105A38002DF034EF2DF0000E126E640E116E0BEC8B
:105A48005FF058EC5CF0000E126E640E116E0BECF9
:105A58005FF0010E00019A6FFF0E396EDC0E386E92
:105A68004C502D0DFF0EF324D96E080EF420DA6E7B
:105A78004750DE5CD8A043EF2DF045EF2DF033EF13
:105A88002EF04C502D0DFE0EF324D96E080EF42086
:105A9800DA6E4650DE5CD8B054EF2DF056EF2DF09C
:105AA80067EF2DF04C502D0DFF0EF324D96E080E24
:105AB800F420DA6E4750DE18D8B465EF2DF067EFA2
:105AC8002DF033EF2EF04C502D0DFD0EF324D96E32
:105AD800080EF420DA6E4550DE5CD8B076EF2DF073
