:0400000094EF01F088
:0600080050821CEF4BF0DA
:100018005080D8CF1FF0E8CF20F0E0CF21F0D9CF23
:1000280022F0DACF23F0F3CF24F0F4CF25F00E013D
:1000380033AB21EF00F023EF00F03AEF01F08F9699
:10004800339BE30ED46EB00ED36E3F2A0001685185
:100058006911D8B432EF00F034EF00F04FEF00F040
:100068008EAE39EF00F03BEF00F04FEF00F068077D
:10007800D8A069076E51D8B444EF00F046EF00F0FD
:100088004EEF00F0030E6E614CEF00F04EEF00F003
:100098004FEF00F06E2B8EAC54EF00F056EF00F0EF
:1000A80079EF00F0000E836F9451D8A45EEF00F052
:1000B80060EF00F079EF00F00B0E29EC32F0000948
:1000C800D8A469EF00F06BEF00F079EF00F00001C1
:1000D8009451D8A472EF00F074EF00F079EF00F0BB
:1000E8008E9C010E836F79EF00F03D04D8A47FEF5A
:1000F80000F081EF00F092EF00F0000173513F181B
:10010800D8A489EF00F08BEF00F092EF00F0000E1A
:100118003F6E8F8E020E3D6E3AEF01F0020E3D18D3
:10012800D8A499EF00F09BEF00F0ACEF00F00001CD
:1001380070513F18D8A4A3EF00F0A5EF00F0ACEF82
:1001480000F0000E3F6E8F9E030E3D6E3AEF01F0F9
:10015800030E3D18D8A4B3EF00F0B5EF00F0C6EFDA
:1001680000F0000172513F18D8A4BDEF00F0BFEFB6
:1001780000F0C6EF00F0000E3F6E8D84040E3D6E59
:100188003AEF01F0040E3D18D8A4CDEF00F0CFEF00
:1001980000F0E0EF00F0000170513F18D8A4D7EF4D
:1001A80000F0D9EF00F0E0EF00F0000E3F6E8D9404
:1001B800050E3D6E3AEF01F0050E3D18D8A4E7EFA5
:1001C80000F0E9EF00F0FAEF00F0000172513F187B
:1001D800D8A4F1EF00F0F3EF00F0FAEF00F0000E12
:1001E8003F6E8D86060E3D6E3AEF01F0060E3D1805
:1001F800D8A401EF01F003EF01F014EF01F00001C2
:1002080070513F18D8A40BEF01F00DEF01F014EF77
:1002180001F0000E3F6E8D96070E3D6E3AEF01F02D
:10022800070E3D18D8A41BEF01F01DEF01F02DEFCC
:1002380001F000016F513F18D8A425EF01F027EF16
:1002480001F02DEF01F0000E3F6E010E3D6E3AEF0A
:1002580001F0630E3D18D8A434EF01F036EF01F039
:100268003AEF01F0000E3F6E3AEF01F00E0138A1AF
:1002780040EF01F042EF01F047EF01F08F960001E7
:100288007C2B0E01389138A54CEF01F04EEF01F0B0
:1002980084EF01F08F963895F00EC86EDC0EC76EAD
:1002A8003E2A3E50435CD8B05CEF01F05EEF01F0AF
:1002B80078EF01F000019351D8A465EF01F067EFE2
:1002C80001F078EF01F0010E936F000E3E6EC990B9
:1002D8004850D8B472EF01F074EF01F084EF01F0E8
:1002E800010E946F84EF01F000019351D8B47FEFB1
:1002F80001F081EF01F084EF01F0000E3E6EC9902D
:1003080025C0F4FF24C0F3FF23C0DAFF22C0D9FFC1
:1003180021C0E0FF20C0E8FF1FC0D8FF50901000A8
:1003280065EF53F0000E0301FB6F000EFC6F000E2B
:10033800FF6F000EFE6F0F0E436E300E00019765C3
:10034800A8EF01F0AAEF01F013EF13F03A0E97614E
:10035800B0EF01F0B2EF01F013EF13F0000E936F5E
:10036800000E826FC980010ED26F030E0EEC69F089
:10037800EAEF01F0B90EDA6FFF0EDB6F04EC67F0FD
:10038800970E0001DA6F000EDB6F010EDC6F26ECB2
:1003980067F0F80E0001DA6FFE0EDB6F04EC67F011
:1003A800010E0001D36FF40ED26FA0EC61F00001D2
:1003B8009351D8A4E2EF01F0E4EF01F0EAEF01F085
:1003C800130ED36F880ED26FA0EC61F00001935129
:1003D800D8B4F1EF01F0F3EF01F0BEEF01F0000E39
:1003E800D26F0F0E0EEC69F00E013885150E000164
:1003F800D26F070ED36FF10ED46F010ED56F000EBA
:10040800D76F030ED66FC4EC5CF00001D251D31144
:10041800D8A411EF02F013EF02F002EF13F0970ED9
:10042800D26F000ED36F180ED46F070ED56F000E63
:10043800D76F0A0ED66F2AEC62F031EC68F0000E26
:100448000001D26F080ED36F3F0ED46F070ED56F21
:1004580056EC61F0000E0001D26F080ED36FBEECAF
:1004680065F00009D8B43BEF02F03DEF02F043EF2E
:1004780002F04AEC68F07FEC3AF056EF02F0E1EC5B
:1004880067F0000E0001D26F050E0EEC69F0070E42
:100498000001D36FD00ED26FA0EC61F01DEF13F006
:1004A8001DEF13F0AB0E0001D26F000ED36F970E45
:1004B800D46F000ED56F000ED76F0A0ED66FC4EC3E
:1004C8005CF00001D251D311D8A46DEF02F06FEFA8
:1004D80002F0DFEF11F0970ED26F000ED36FEF0E20
:1004E800D46F020ED56F000ED76F0A0ED66F2AECA6
:1004F80062F0000E0001D26F050ED36FEC0ED46FC0
:10050800010ED56F000ED76F040ED66FC4EC5CF0E9
:100518000001D251D311D8A494EF02F096EF02F063
:10052800A7EF02F0000E826F4A0E0201FA6FFE0E6C
:10053800FB6FAB0EFC6F000EFD6F000EFE6F1EEC26
:1005480013F01DEF13F0000ED26F050ED36FEE0EF1
:10055800D46F000ED56F000ED76F020ED66FC4ECA5
:100568005CF00001D251D311D8A4BDEF02F0BFEF67
:1005780002F00AEF03F0030ED26F050ED36FB60E2A
:10058800D46F000ED56F000ED76F060ED66FC4EC71
:100598005CF00001D251D311D8A4D5EF02F0D7EF07
:1005A80002F0F9EF02F0B60ED26F000ED36F0A0E0A
:1005B800D46F050ED56F000ED76F060ED66F2AECD6
:1005C80062F09AEC63F0000E0001826FE80E0201FF
:1005D800FA6FFC0EFB6FAB0EFC6F000EFD6F000E8A
:1005E800FE6F1EEC13F01DEF13F0000E826FE00E8D
:1005F8000201FA6FFD0EFB6FAB0EFC6F000EFD6F74
:10060800000EFE6F1EEC13F01DEF13F0000ED26FFC
:10061800050ED36FF90ED46F010ED56F000ED76F8C
:10062800030ED66FC4EC5CF00001D251D311D8A4EC
:1006380020EF03F022EF03F0D7EF05F0000E0301DF
:10064800FF6F000EFE6F030E1BEC48F00001816F78
:10065800010E0301FD6F060E0001826F000E0001FE
:100668008225D96EDA6A050EDA22DF5063EC68F06B
:100678000009D8B442EF03F044EF03F09AEF04F016
:10068800010E00018225D96EDA6A050EDA22200EE3
:10069800DE18D8A452EF03F054EF03F076EF03F01E
:1006A800000E8225D96EDA6A050EDA22000E82253E
:1006B800E16EE26A050EE222E750D00FDF6E000E0F
:1006C80000018225D96EDA6A050EDA22DF500501AB
:1006D800F86FF8510301FE25FE6F000EFF21FF6F32
:1006E800CFEF04F0000E8225D96EDA6A050EDA2201
:1006F800000E8225E16EE26A050EE222E750D00F75
:10070800DF6E000E8225D96EDA6A050EDA22DF5016
:100718000A0D000E8225D96EDA6A050EDA22F3CFA9
:10072800DFFFFEC3D2F0FFC3D3F0000ED56F0A0E71
:10073800D46FA4EC68F0D2C0FEF3D3C0FFF363EF2C
:1007480003F000018151160DE00EF324D96E080E56
:10075800F420DA6EFEC3DFFF000E0301FF6F000E08
:10076800FE6FCDEF04F000018151160DE10EF32468
:10077800D96E080EF420DA6EFEC3DFFFB0EF03F087
:1007880000018151160DE20EF324D96E080EF420F3
:10079800DA6EFEC3DFFFB0EF03F000018151160DE2
:1007A800E30EF324D96E080EF420DA6EFEC3DFFFE1
:1007B800B0EF03F000018151160DDC0EF324D96E61
:1007C800080EF420DA6EFEC3DEFFFFC3DDFFB0EFD4
:1007D80003F000018151160DDE0EF324D96E080EC8
:1007E800F420DA6EFEC3DEFFFFC3DDFFB0EF03F0D7
:1007F80000018151160DEA0EF324D96E080EF4207B
:10080800DA6EFEC3DFFFB0EF03F000018151160D71
:10081800EC0EF324D96E080EF420DA6EFEC3DFFF67
:100828008151160DED0EF324D96E080EF420DA6E00
:10083800FEC3DFFFB0EF03F00301FE5105EC3DF00E
:10084800000E0301FF6F000EFE6F00018151160DAF
:10085800E40EF324D96E080EF420DA6E6AC0DFFFC6
:100868008151160DE50EF324D96E080EF420DA6EC8
:1008780074C0DFFF8151160DE60EF324D96E080E01
:10088800F420DA6E75C0DFFF8151160DEE0EF324E9
:10089800D96E080EF420DA6E000EDF6E8151160D47
:1008A800EF0EF324D96E080EF420DA6E010EDF6E17
:1008B8008151160DE70EF324D96E080EF420DA6E76
:1008C800000EDF6E8151160DE80EF324D96E080E66
:1008D800F420DA6E000EDF6E8151160DE90EF32456
:1008E800D96E080EF420DA6E000EDF6E8151160DF7
:1008F800F00EF324D96E080EF420DA6E000EDF6EC7
:100908008151160DEB0EF324D96E080EF420DA6E21
:10091800000EDF6E8151160DF10EF324D96E080E0C
:10092800F420DA6E000EDF6ECDEF04F00301FD5106
:100938000501F86FF96BF951000AD8B4A6EF04F075
:10094800CDEF04F0F851010AD8B4A5EF03F0030A7B
:10095800D8B4B7EF03F0010AD8B4C4EF03F0070A1C
:10096800D8B4D1EF03F0010AD8B4DEEF03F0030ADC
:10097800D8B4EDEF03F0010AD8B4FCEF03F00F0A86
:10098800D8B409EF04F0010AD8B420EF04F0CDEF91
:1009980004F00301FD2B0001822B090E0301FD6504
:1009A800D8EF04F0DAEF04F032EF03F0000E0001A4
:1009B800D36F640ED26FA0EC61F000018151020D7B
:1009C8004B0EF324F66EF20EF420F76E0900F5CF05
:1009D800DAF00A00F5CFDBF08151160DDC0EF324B6
:1009E800DC6F080EF420DD6FBBEC4EF0000E00014A
:1009F800D36F640ED26FA0EC61F000018151020D3B
:100A08004B0EF324F66EF20EF420F76E0900F5CFC4
:100A1800DAF00A00F5CFDBF08151160DDC0EF32475
:100A2800DC6F080EF420DD6F06EC61F0000E0001AB
:100A3800D36F640ED26FA0EC61F000018151020DFA
:100A48004B0EF324F66EF20EF420F76E0900F5CF84
:100A5800DAF00A00F5CFDBF08151160DDC0EF32435
:100A6800DC6F080EF420DD6F87EC67F0000E0001E4
:100A7800D36F640ED26FA0EC61F000018151020DBA
:100A88004B0EF324F66EF20EF420F76E0900F5CF44
:100A9800DAF00A00F5CFDBF08151160DDC0EF324F5
:100AA800DC6F080EF420DD6F67EC67F0000E0001C4
:100AB800D36F640ED26FA0EC61F000018151020D7A
:100AC8004B0EF324F66EF20EF420F76E0900F5CF04
:100AD800DAF00A00F5CFDBF08151160DDC0EF324B5
:100AE800DC6F080EF420DD6F47EC67F0000E0001A4
:100AF800D36F640ED26FA0EC61F000018151020D3A
:100B08004B0EF324F66EF20EF420F76E0900F5CFC3
:100B1800DAF00A00F5CFDBF08151160DDC0EF32474
:100B2800DC6F080EF420DD6F34EC58F0000E000185
:100B3800D36F640ED26FA0EC61F0090E00018161E1
:100B4800A8EF05F0AAEF05F0B1EF05F0300E976FAA
:100B58008151310F986FC6EF05F0080E8165B7EF28
:100B680005F0B9EF05F0C6EF05F00C0E8161BFEF97
:100B780005F0C1EF05F0C6EF05F0310E976F815112
:100B8800270F986F000E826F740E0201FA6FFB0E2A
:100B9800FB6FAB0EFC6F000EFD6F020EFE6F1EECBE
:100BA80013F01DEF13F0000ED26F050ED36FE70E92
:100BB800D46F010ED56F000ED76F040ED66FC4EC3C
:100BC8005CF00001D251D311D8A4EDEF05F0EFEF9E
:100BD80005F0A6EF06F0040E1BEC48F00001816F4B
:100BE8008151160DEE0EF324D96E080EF420DA6E3C
:100BF800DE04D8A402EF06F004EF06F006EF06F0D4
:100C0800010E8D6F8151160DEF0EF324D96E080E6B
:100C1800F420DA6E000EDF6E8151160DF00EF3240B
:100C2800D96E080EF420DA6EDE04D8A41EEF06F0A2
:100C380020EF06F050EF06F08151160DF00EF32468
:100C4800D96E080EF420DA6E000EDF6E000ED36F38
:100C5800640ED26FA0EC61F000018151020D4B0EC1
:100C6800F324F66EF20EF420F76E0900F5CFDAF0F1
:100C78000A00F5CFDBF08151160DDC0EF324DC6F92
:100C8800080EF420DD6F34EC58F0000E0001D36F2D
:100C9800640ED26FA0EC61F000018151020D4B0E81
:100CA800F324F66EF20EF420F76E0900F5CFDAF0B1
:100CB8000A00F5CFDBF08151160DDC0EF324DC6F52
:100CC800080EF420DD6F47EC67F0000E0001D36FCB
:100CD800640ED26FA0EC61F0090E0001816177EF1C
:100CE80006F079EF06F080EF06F0300E976F81512D
:100CF800310F986F95EF06F0080E816586EF06F0C4
:100D080088EF06F095EF06F00C0E81618EEF06F085
:100D180090EF06F095EF06F0310E976F8151270F8F
:100D2800986F000E826FCD0E0201FA6FF90EFB6FFD
:100D3800AB0EFC6F000EFD6F020EFE6F1EEC13F083
:100D48001DEF13F0000ED26F050ED36FE80ED46FAF
:100D5800020ED56F000ED76F060ED66FC4EC5CF08E
:100D68000001D251D311D8A4BCEF06F0BEEF06F0B3
:100D7800E3EF08F0000E0301FF6F000EFE6F000E98
:100D8800FD6F060E1BEC48F00001816F8151160DB6
:100D9800EF0EF324D96E080EF420DA6EDF50D8A4D3
:100DA800D8EF06F0DAEF06F00FEF07F0090E8161D1
:100DB800E0EF06F0E2EF06F0E9EF06F0300E976F8D
:100DC8008151310F986FFEEF06F0080E8165EFEF45
:100DD80006F0F1EF06F0FEEF06F00C0E8161F7EF7A
:100DE80006F0F9EF06F0FEEF06F0310E976F81512D
:100DF800270F986F000E826FAA0E0201FA6FF60E87
:100E0800FB6FAB0EFC6F000EFD6F020EFE6F1EEC4B
:100E180013F01DEF13F0090E826F000E00018225FA
:100E2800D96EDA6A050EDA22DF5063EC68F0000941
:100E3800D8B421EF07F023EF07F084EF07F0010E95
:100E480000018225D96EDA6A050EDA22200EDE1834
:100E5800D8A431EF07F033EF07F055EF07F0000E95
:100E68008225D96EDA6A050EDA22000E8225E16E35
:100E7800E26A050EE222E750D00FDF6E000E000195
:100E88008225D96EDA6A050EDA22DF500501F86F7D
:100E9800F8510301FE25FE6F000EFF21FF6F6BEF77
:100EA80008F0000E8225D96EDA6A050EDA22000EE5
:100EB8008225E16EE26A050EE222E750D00FDF6E6E
:100EC800000E8225D96EDA6A050EDA22DF500A0D85
:100ED800000E8225D96EDA6A050EDA22F3CFDFFF1B
:100EE800FEC3D2F0FFC3D3F0000ED56F0A0ED46F45
:100EF800A4EC68F0D2C0FEF3D3C0FFF342EF07F0D2
:100F08000301FD2B51EF08F000018151160DE70E8A
:100F1800F324D96E080EF420DA6EFEC3DFFF000E4C
:100F28000301FF6F000EFE6F6BEF08F000018151A7
:100F3800160DE80EF324D96E080EF420DA6EFEC3FF
:100F4800DFFF93EF07F000018151160DE90EF3243E
:100F5800D96E080EF420DA6EFEC3DFFF8151160D3C
:100F6800EB0EF324D96E080EF420DA6E000EDF6E55
:100F78008151160DF10EF324D96E080EF420DA6EA5
:100F8800000EDF6E000E0301FF6F000EFE6F000102
:100F98008151160DE00EF324D96E080EF420DA6E96
:100FA800DF500501F86FF96B00018151160DE70E4E
:100FB800F324D96E080EF420DA6EDF500501FA6FBB
:100FC800FB6B00018151160DE80EF324D96E080E53
:100FD800F420DA6EDF500501FC6FFC51FA27000E91
:100FE800FB23F851FA5DFB51800AFD6FF951800A25
:100FF800FD59D8A002EF08F004EF08F044EF08F01C
:1010080000018151160DF00EF324D96E080EF4205C
:10101800DA6E000EDF6E090E816115EF08F017EF2A
:1010280008F01EEF08F0300E976F8151310F986F5E
:1010380033EF08F0080E816524EF08F026EF08F07A
:1010480033EF08F00C0E81612CEF08F02EEF08F05A
:1010580033EF08F0310E976F8151270F986F000E0C
:10106800826FFF0E0201FA6FF80EFB6FAB0EFC6F7A
:10107800000EFD6F020EFE6F1EEC13F06BEF08F012
:1010880000018151160DF00EF324D96E080EF420DC
:10109800DA6E010EDF6E6BEF08F0FD510501F86F97
:1010A800F96BF951000AD8B45CEF08F06BEF08F05F
:1010B800F851010AD8B488EF07F0030AD8B49AEFB8
:1010C80007F0010AD8B4A7EF07F06BEF08F00001AA
:1010D800822B020E0301FD6574EF08F076EF08F02D
:1010E80011EF07F000018151160DF00EF324D96EAF
:1010F800080EF420DA6EDF50D8B485EF08F087EFD9
:1011080008F01DEF13F0000ED36F640ED26FA0EC41
:1011180061F000018151020D4B0EF324F66EF20EC0
:10112800F420F76E0900F5CFDAF00A00F5CFDBF00E
:101138008151160DDC0EF324DC6F080EF420DD6FF0
:1011480034EC58F0000E0001D36F640ED26FA0EC9F
:1011580061F0090E00018161B4EF08F0B6EF08F004
:10116800BDEF08F0300E976F8151310F986FD2EFB5
:1011780008F0080E8165C3EF08F0C5EF08F0D2EF5C
:1011880008F00C0E8161CBEF08F0CDEF08F0D2EF3C
:1011980008F0310E976F8151270F986F000E826FFC
:1011A800220E0201FA6FFC0EFB6FAB0EFC6F000EF5
:1011B800FD6F020EFE6F1EEC13F01DEF13F0000E14
:1011C800D26F050ED36FD20ED46F020ED56F000EFC
:1011D800D76F070ED66FC4EC5CF00001D251D31163
:1011E800D8A4F9EF08F0FBEF08F099EF09F0070E23
:1011F8001BEC48F00001816F8151160DEE0EF324AF
:10120800D96E080EF420DA6EDE04D8A40EEF09F0C9
:1012180010EF09F023EF09F08151160DEB0EF324BE
:10122800D96E080EF420DA6E030EDE18D8B41FEF5C
:1012380009F021EF09F023EF09F0010E8D6F8151BC
:10124800160DF00EF324D96E080EF420DA6EDE04C3
:10125800D8A431EF09F033EF09F054EF02F08151CF
:10126800160DF00EF324D96E080EF420DA6E000E77
:10127800DF6E000ED36F640ED26FA0EC61F0000138
:101288008151020D4B0EF324F66EF20EF420F76E28
:101298000900F5CFDAF00A00F5CFDBF08151160D21
:1012A800DC0EF324DC6F080EF420DD6F34EC58F00C
:1012B800000E0001D36F640ED26FA0EC61F0090E2E
:1012C800000181616AEF09F06CEF09F073EF09F032
:1012D800300E976F8151310F986F88EF09F0080E23
:1012E800816579EF09F07BEF09F088EF09F00C0EC2
:1012F800816181EF09F083EF09F088EF09F0310E81
:10130800976F8151270F986F000E826FBB0E0201F5
:10131800FA6FFB0EFB6FAB0EFC6F000EFD6F020E3B
:10132800FE6F1EEC13F01DEF13F0000ED26F050ECA
:10133800D36FE10ED46F020ED56F000ED76F060E75
:10134800D66FC4EC5CF00001D251D311D8A4AFEF32
:1013580009F0B1EF09F0A2EF0AF0000E0301FF6FE8
:10136800000EFE6F000EFD6F060E0001826F000E6C
:1013780000018225D96EDA6A050EDA22DF5063ECA5
:1013880068F00009D8B4CBEF09F0CDEF09F02EEFE3
:101398000AF0010E00018225D96EDA6A050EDA22FA
:1013A800200EDE18D8A4DBEF09F0DDEF09F0FFEF1F
:1013B80009F0000E8225D96EDA6A050EDA22000ECF
:1013C8008225E16EE26A050EE222E750D00FDF6E59
:1013D800000E00018225D96EDA6A050EDA22DF5086
:1013E8000501F86FF8510301FE25FE6F000EFF217D
:1013F800FF6F75EF0AF0000E8225D96EDA6A050EC6
:10140800DA22000E8225E16EE26A050EE222E7503A
:10141800D00FDF6E000E8225D96EDA6A050EDA2249
:10142800DF500A0D000E8225D96EDA6A050EDA221F
:10143800F3CFDFFFFEC3D2F0FFC3D3F0000ED56FAA
:101448000A0ED46FA4EC68F0D2C0FEF3D3C0FFF349
:10145800ECEF09F00301FD2B53EF0AF0FEC373F024
:10146800000E0301FF6F000EFE6F75EF0AF0FEC35A
:1014780072F034EF0AF0FEC371F034EF0AF0FEC3E5
:1014880070F034EF0AF0FEC36FF0000E0301FF6F37
:10149800000EFE6F010E0001876F75EF0AF0FD5117
:1014A8000501F86FF96BF951000AD8B45EEF0AF03C
:1014B80075EF0AF0F851010AD8B432EF0AF0030ABE
:1014C800D8B43BEF0AF0010AD8B43FEF0AF0070A94
:1014D800D8B443EF0AF0010AD8B447EF0AF075EF21
:1014E8000AF00001822B040E0301FD657EEF0AF06D
:1014F80080EF0AF0BBEF09F0000E0001D36F640E15
:10150800D26FA0EC61F0F2EC56F0000E0001D36F40
:10151800640ED26FA0EC61F0000E0001826F7A0EAB
:101528000201FA6FFD0EFB6FAB0EFC6F000EFD6F34
:10153800000EFE6F1EEC13F01DEF13F0000ED26FBD
:10154800050ED36FCA0ED46F020ED56F000ED76F7B
:10155800070ED66FC4EC5CF00001D251D311D8A4A9
:10156800B8EF0AF0BAEF0AF0DDEF0AF0000E876F65
:10157800000ED36F640ED26FA0EC61F0F2EC56F05F
:10158800000E0001D36F640ED26FA0EC61F0000E64
:101598000001826F270E0201FA6FFD0EFB6FAB0E82
:1015A800FC6F000EFD6F000EFE6F1EEC13F01DEFBA
:1015B80013F0000ED26F050ED36FD70ED46F010E45
:1015C800D56F000ED76F050ED66FC4EC5CF0000126
:1015D800D251D311D8A4F3EF0AF0F5EF0AF01FEFB8
:1015E8000BF08751D8B4FBEF0AF0FDEF0AF00EEFCD
:1015F8000BF0000E826F5F0E0201FA6FFD0EFB6F9B
:10160800AB0EFC6F000EFD6F080EFE6F1EEC13F0A4
:101618001DEF13F0000E826FC80E0201FA6FFC0E68
:10162800FB6FAB0EFC6F000EFD6F000EFE6F1EEC25
:1016380013F01DEF13F0000ED26F050ED36FDD0E01
:10164800D46F010ED56F000ED76F040ED66FC4ECA1
:101658005CF00001D251D311D8A435EF0BF037EF6D
:101668000BF020EF0CF0000E0301FF6F000EFE6F71
:10167800000EFD6F050E0001826F000E000182252D
:10168800D96EDA6A050EDA22DF5063EC68F00009D9
:10169800D8B451EF0BF053EF0BF0E5EF0BF0000E61
:1016A80000018225D96EDA6A050EDA22000E82253B
:1016B800E16EE26A050EE222E750D00FDF6E000EFF
:1016C8008225D96EDA6A050EDA22DF500501F86F35
:1016D800F8510301FE6FFF6BFEC3D2F0FFC3D3F0D6
:1016E800000E0001D56F0A0ED46FA4EC68F0D2C0CA
:1016F800FEF3D3C0FFF3010E00018225D96EDA6A2A
:10170800050EDA22010E8225E16EE26A050EE2225A
:10171800E750D00FDF6E010E8225D96EDA6A050E0A
:10172800DA22DF500501F86FF8510301FE25FE6F3C
:10173800000EFF21FF6FFD2BBFEF0BF0FEC379F00A
:10174800000E0301FF6F000EFE6FF7EF0BF0FEC3F4
:101758007AF0A4EF0BF0FEC37BF0A4EF0BF0FEC30E
:1017680078F0A4EF0BF0FEC377F0A4EF0BF0FEC304
:1017780076F0A4EF0BF0FD510501F86FF96BF95104
:10178800000AD8B4CAEF0BF0F7EF0BF0F851010AD2
:10179800D8B4A2EF0BF0030AD8B4ABEF0BF0010AF0
:1017A800D8B4AFEF0BF0070AD8B4B3EF0BF0010AC7
:1017B800D8B4B7EF0BF0030AD8B4BBEF0BF0F7EFD0
:1017C8000BF0000E0001826F440E0201FA6FFD0E4D
:1017D800FB6FAB0EFC6F000EFD6F000EFE6F1EEC74
:1017E80013F01DEF13F0030E00018227050E03010D
:1017F800FD6501EF0CF003EF0CF041EF0BF0060E66
:10180800FD19D8A40AEF0CF00CEF0CF00EEF0CF059
:10181800B7EC5EF0000E0001826F890E0201FA6FCC
:10182800FA0EFB6FAB0EFC6F000EFD6F000EFE6F25
:101838001EEC13F01DEF13F0000ED26F050ED36FE0
:10184800E20ED46F010ED56F000ED76F040ED66F5F
:10185800C4EC5CF00001D251D311D8A436EF0CF0DF
:1018680038EF0CF0F2EF0CF055EC5EF079C0D2F0E6
:101878000001D36B000ED56F0A0ED46FF2EC5DF049
:101888000001D251300F976F79C0E4F0E56B000E7C
:10189800E76F0A0EE66F8FEC5DF00001E451300F40
:1018A800986F2F0E996F7AC0D2F0D36B000ED56F58
:1018B8000A0ED46FF2EC5DF00001D251300F9A6F2E
:1018C8007AC0E4F0E56B000EE76F0A0EE66F8FEC66
:1018D8005DF00001E451300F9B6F2F0E9C6F7BC0B1
:1018E800D2F0D36B000ED56F0A0ED46FF2EC5DF018
:1018F8000001D251300F9D6F7BC0E4F0E56B000E04
:10190800E76F0A0EE66F8FEC5DF00001E451300FCF
:101918009E6F200E9F6F78C0D2F0D36B000ED56FEC
:101928000A0ED46FF2EC5DF00001D251300FA06FB7
:1019380078C0E4F0E56B000EE76F0A0EE66F8FECF7
:101948005DF00001E451300FA16F3A0EA26F77C02D
:10195800D2F0D36B000ED56F0A0ED46FF2EC5DF0A7
:101968000001D251300FA36F77C0E4F0E56B000E91
:10197800E76F0A0EE66F8FEC5DF00001E451300F5F
:10198800A46F3A0EA56F76C0D2F0D36B000ED56F58
:101998000A0ED46FF2EC5DF00001D251300FA66F41
:1019A80076C0E4F0E56B000EE76F0A0EE66F8FEC89
:1019B8005DF00001E451300FA76F000E826F6A0ED0
:1019C8000201FA6FFE0EFB6FAB0EFC6F000EFD6F8F
:1019D800030EFE6F1EEC13F01DEF13F0000ED26F16
:1019E800050ED36FC20ED46F020ED56F000ED76FDF
:1019F800070ED66FC4EC5CF00001D251D311D8A405
:101A080008EF0DF00AEF0DF063EF0DF0070E1BEC79
:101A180048F00001816F090E816115EF0DF017EF95
:101A28000DF01EEF0DF0300E976F8151310F986F4A
:101A380033EF0DF0080E816524EF0DF026EF0DF061
:101A480033EF0DF00C0E81612CEF0DF02EEF0DF041
:101A580033EF0DF0310E976F8151270F986F000EFD
:101A6800826F8151160DEF0EF324D96E080EF42003
:101A7800DA6EDF50D8B443EF0DF045EF0DF054EFB8
:101A88000DF0790E0201FA6FFE0EFB6FAB0EFC6FC4
:101A9800000EFD6F070EFE6F1EEC13F01DEF13F026
:101AA800030E0201FA6FFB0EFB6FAB0EFC6F000E0C
:101AB800FD6F020EFE6F1EEC13F01DEF13F0000E0B
:101AC800D26F050ED36FEB0ED46F000ED56F000EDC
:101AD800D76F020ED66FC4EC5CF00001D251D3115F
:101AE800D8A479EF0DF07BEF0DF06AEF0EF08EAE13
:101AF80080EF0DF082EF0DF094EF0DF0000E000175
:101B0800826F9C0E0201FA6FF90EFB6FAB0EFC6F31
:101B1800000EFD6F000EFE6F1EEC13F01DEF13F0AC
:101B2800000E0301FF6F000EFE6F000EFD6F010E29
:101B3800FD6F030E0001826F000E00018225D96E31
:101B4800DA6A050EDA22DF5063EC68F00009D8B4CF
:101B5800B0EF0DF0B2EF0DF024EF0EF0010E000122
:101B68008225D96EDA6A050EDA22200EDE18D8A48C
:101B7800C0EF0DF0C2EF0DF0E4EF0DF0000E82257E
:101B8800D96EDA6A050EDA22000E8225E16EE26A63
:101B9800050EE222E750D00FDF6E000E000182250D
:101BA800D96EDA6A050EDA22DF500501F86FF851AE
:101BB8000301FE25FE6F000EFF21FF6F3DEF0EF0C3
:101BC800000E8225D96EDA6A050EDA22000E822509
:101BD800E16EE26A050EE222E750D00FDF6E000EDA
:101BE8008225D96EDA6A050EDA22DF500A0D000E58
:101BF8008225D96EDA6A050EDA22F3CFDFFFFEC33B
:101C0800D2F0FFC3D3F0000ED56F0A0ED46FA4EC48
:101C180068F0D2C0FEF3D3C0FFF3D1EF0DF0FEC3DE
:101C28006CF0FFC36DF0000E0301FF6F000EFE6F36
:101C38003BEF0EF0FEC3C1F0FFC3C2F017EF0EF08A
:101C48000301FD510501F86FF96BF951000AD8B489
:101C580030EF0EF03BEF0EF0F851010AD8B413EF55
:101C68000EF0030AD8B41EEF0EF03BEF0EF003019E
:101C7800FD2B0001822B020E0301FD6546EF0EF0DD
:101C880048EF0EF0A0EF0DF0000E0001D36F640EC8
:101C9800D26FA0EC61F066EC5BF0000E0001D36F30
:101CA800640ED26FA0EC61F0000E0001826F980EF6
:101CB8000201FA6FFB0EFB6FAB0EFC6F000EFD6F9F
:101CC800000EFE6F1EEC13F01DEF13F0000ED26F26
:101CD800050ED36FD10ED46F010ED56F000ED76FDE
:101CE800050ED66FC4EC5CF00001D251D311D8A414
:101CF80080EF0EF082EF0EF094EF0EF0000E000170
:101D0800826F2C0E0201FA6FFA0EFB6FAB0EFC6F9E
:101D1800000EFD6F050EFE6F1EEC13F01DEF13F0A5
:101D2800000ED26F050ED36FBA0ED46F020ED56FA8
:101D3800000ED76F070ED66FC4EC5CF00001D251CD
:101D4800D311D8A4AAEF0EF0ACEF0EF00AEF0FF003
:101D5800070E1BEC48F00001816F000ED36F640E74
:101D6800D26FA0EC61F000018151CDEC2DF0090E8D
:101D780000018161C2EF0EF0C4EF0EF0CBEF0EF060
:101D8800300E976F8151310F986FE0EF0EF0080E0B
:101D98008165D1EF0EF0D3EF0EF0E0EF0EF00C0EF0
:101DA8008161D9EF0EF0DBEF0EF0E0EF0EF0310EAF
:101DB800976F8151270F986F9451D8B4E6EF0EF0C2
:101DC800E8EF0EF0F9EF0EF0000E946FDB0E020153
:101DD800FA6FFA0EFB6FAB0EFC6F000EFD6F020E72
:101DE800FE6F1EEC13F01DEF13F0000E826F5B0EFA
:101DF8000201FA6FFA0EFB6FAB0EFC6F000EFD6F5F
:101E0800060EFE6F1EEC13F01DEF13F0000ED26FDE
:101E1800050ED36FF50ED46F010ED56F000ED76F78
:101E2800030ED66FC4EC5CF00001D251D311D8A4D4
:101E380020EF0FF022EF0FF078EF0FF0030E1BECFE
:101E480048F00001816F000ED36F640ED26FA0ECD2
:101E580061F08EAE32EF0FF034EF0FF036EF0FF087
:101E680082EF0DF0090E000181613DEF0FF03FEFA9
:101E78000FF046EF0FF0300E976F8151310F986FCA
:101E88005BEF0FF0080E81654CEF0FF04EEF0FF08F
:101E98005BEF0FF00C0E816154EF0FF056EF0FF06F
:101EA8005BEF0FF0310E976F8151270F986F130E6C
:101EB800D36F880ED26FA0EC61F081C0DFF0010E05
:101EC800C0EC41F0030E0001D36FE80ED26FA0EC16
:101ED80061F066EC5BF0030E0001D36FE80ED26F81
:101EE800A0EC61F082EF0EF0000ED26F050ED36FFA
:101EF800DA0ED46F020ED56F000ED76F060ED66FAE
:101F0800C4EC5CF00001D251D311D8A48EEF0FF0CD
:101F180090EF0FF054EF02F0000E0301FF6F000E78
:101F2800FE6F000EFD6F070E0001826F000E0001AC
:101F38008225D96EDA6A050EDA22DF5063EC68F082
:101F48000009D8B4AAEF0FF0ACEF0FF028EF10F0AB
:101F5800000E00018225D96EDA6A050EDA22000E1B
:101F68008225E16EE26A050EE222E750D00FDF6EAD
:101F7800000E8225D96EDA6A050EDA22DF500501D5
:101F8800F86FF8510301FE6FFF6BFEC3D2F0FFC379
:101F9800D3F0000E0001D56F0A0ED46FA4EC68F0E0
:101FA800D2C0FEF3D3C0FFF3010E00018225D96E23
:101FB800DA6A050EDA22010E8225E16EE26A050E62
:101FC800E222E750D00FDF6E010E8225D96EDA6A61
:101FD800050EDA22DF500501F86FF8510301FE25DE
:101FE800FE6F000EFF21FF6FFD2B0EEF10F0FEC3FA
:101FF800FBF3000E0301FF6F000EFE6F28EF10F0D9
:10200800FEC3FCF3FDEF0FF00301FE5105EC3DF0BC
:10201800FDEF0FF0FD510501F86FF96BF951000A5A
:10202800D8B419EF10F028EF10F0F851010AD8B41D
:10203800FBEF0FF0030AD8B404EF10F0010AD8B48C
:1020480008EF10F028EF10F0030E00018227020EAF
:102058000301FD6532EF10F034EF10F09AEF0FF046
:10206800000E0001816FC6EF11F08151160DE00ED0
:10207800F324D96E080EF420DA6E0F0EDF6E81514C
:10208800160DE10EF324D96E080EF420DA6E010E57
:10209800DF6E8151160DE20EF324D96E080EF4207E
:1020A800DA6EFBC3DFFF8151160DE30EF324D96E00
:1020B800080EF420DA6EFCC3DFFF8151160DE40E22
:1020C800F324D96E080EF420DA6E6AC0DFFF81515E
:1020D800160DE50EF324D96E080EF420DA6E74C0DE
:1020E800DFFF8151160DE60EF324D96E080EF42099
:1020F800DA6E75C0DFFF8151160DDC0EF324D96E40
:10210800080EF420DA6E640EDE6E000EDD6E81516C
:10211800160DDE0EF324D96E080EF420DA6E300E9A
:10212800DE6E750EDD6E8151160DEA0EF324D96E42
:10213800080EF420DA6E8129DF6E8151160DEE0E3D
:10214800F324D96E080EF420DA6E000EDF6E81518A
:10215800160DEC0EF324D96E080EF420DA6E020E7A
:10216800DF6E8151160DED0EF324D96E080EF420A2
:10217800DA6E020EDF6E8151160DEF0EF324D96E62
:10218800080EF420DA6E010EDF6E8151160DE70E8F
:10219800F324D96E080EF420DA6E050EDF6E815135
:1021A800160DE80EF324D96E080EF420DA6E0F0E21
:1021B800DF6E8151160DE90EF324D96E080EF42056
:1021C800DA6E8129DF6E8151160DEB0EF324D96E7C
:1021D800080EF420DA6E000EDF6E8151160DF10E36
:1021E800F324D96E080EF420DA6E000EDF6E8151EA
:1021F800160DF00EF324D96E080EF420DA6E010ED7
:10220800DF6E8151020D4B0EF324F66EF20EF420B0
:10221800F76E0900F5CFDAF00A00F5CFDBF081514F
:10222800160DDC0EF324DC6F080EF420DD6FBBEC1A
:102238004EF0000E0001D36F640ED26FA0EC61F077
:1022480000018151020D4B0EF324F66EF20EF420BC
:10225800F76E0900F5CFDAF00A00F5CFDBF081510F
:10226800160DDC0EF324DC6F080EF420DD6F06EC8F
:1022780061F0000E0001D36F640ED26FA0EC61F024
:1022880000018151020D4B0EF324F66EF20EF4207C
:10229800F76E0900F5CFDAF00A00F5CFDBF08151CF
:1022A800160DDC0EF324DC6F080EF420DD6F87ECCE
:1022B80067F0000E0001D36F640ED26FA0EC61F0DE
:1022C80000018151020D4B0EF324F66EF20EF4203C
:1022D800F76E0900F5CFDAF00A00F5CFDBF081518F
:1022E800160DDC0EF324DC6F080EF420DD6F67ECAE
:1022F80067F0000E0001D36F640ED26FA0EC61F09E
:1023080000018151020D4B0EF324F66EF20EF420FB
:10231800F76E0900F5CFDAF00A00F5CFDBF081514E
:10232800160DDC0EF324DC6F080EF420DD6F47EC8D
:1023380067F0000E0001D36F640ED26FA0EC61F05D
:1023480000018151020D4B0EF324F66EF20EF420BB
:10235800F76E0900F5CFDAF00A00F5CFDBF081510E
:10236800160DDC0EF324DC6F080EF420DD6F34EC60
:1023780058F0000E0001D36F640ED26FA0EC61F02C
:102388000001812B0B0E8165CCEF11F0CEEF11F01F
:1023980039EF10F0000E826F370E0201FA6FFE0E51
:1023A800FB6FAB0EFC6F000EFD6F000EFE6F1EEC98
:1023B80013F01DEF13F0000ED26F050ED36FEE0E63
:1023C800D46F000ED56F000ED76F020ED66FC4EC17
:1023D8005CF00001D251D311D8A4F5EF11F0F7EF5A
:1023E80011F0A9EF12F0030ED26F050ED36FB60EDF
:1023F800D46F000ED56F000ED76F060ED66FC4ECE3
:102408005CF00001D251D311D8A40DEF12F00FEFF8
:1024180012F089EF12F09651D8B415EF12F017EFB9
:1024280012F026EF12F0000E826F370E0201FA6FDB
:10243800F90EFB6FAB0EFC6F000EFD6F010EFE6F09
:102448001EEC13F0B60E0001D26F000ED36F0A0E09
:10245800D46F050ED56F000ED76F060ED66F2AEC17
:1024680062F0AB0E0001D26F000ED36F970ED46FDF
:10247800000ED56F000ED76F0A0ED66F2AEC62F0E9
:10248800010E0001966F970ED26F000ED36FEF0EFC
:10249800D46F020ED56F000ED76F0A0ED66F2AECD6
:1024A80062F0000E0001D36F320ED26FA0EC61F023
:1024B8009AEC63F0000E0001D36F320ED26FA0ECDD
:1024C80061F0D3EC63F0000E0001D36F320ED26FCF
:1024D800A0EC61F0C4EC67F0000E0001D36F320E7F
:1024E800D26FA0EC61F0000E0001826FF70E0201BE
:1024F800FA6FFD0EFB6FAB0EFC6F000EFD6F000E4A
:10250800FE6F1EEC13F01DEF13F0000E826FE00E4D
:102518000201FA6FFD0EFB6F970EFC6F000EFD6F48
:10252800000EFE6F1EEC13F0970E0001D26F000E26
:10253800D36FEF0ED46F020ED56F000ED76F0A0E51
:10254800D66F2AEC62F01DEF13F0000ED26F050E65
:10255800D36FEC0ED46F010ED56F000ED76F040E3B
:10256800D66FC4EC5CF00001D251D311D8A4BFEFF0
:1025780012F0C1EF12F0D2EF12F0000E826F0E0EC1
:102588000201FA6FFE0EFB6F970EFC6F000EFD6FD7
:10259800000EFE6F1EEC13F098EF12F0000ED26FD3
:1025A800050ED36FF20ED46F040ED56F000ED76FE1
:1025B8000B0ED66FC4EC5CF00001D251D311D8A435
:1025C800E8EF12F0EAEF12F0FBEF12F0000E826F64
:1025D8005B0E0201FA6FFE0EFB6F970EFC6F000E8A
:1025E800FD6F040EFE6F1EEC13F098EF12F0000E54
:1025F800D26F060E0EEC69F04BEF02F0E1EC67F0DB
:10260800000E0001D26F070E0EEC69F0030E0001F8
:10261800D36FE80ED26FA0EC61F01DEF13F0E1EC80
:1026280067F0000E0001D26F080E0EEC69F04BEF58
:1026380002F012000F0E436E8B0E0001DA6FFF0ED0
:10264800DB6F04EC67F0000E0001D36F320ED26F1F
:10265800A0EC61F0FCC2DAF0FDC2DBF00A0E00016A
:10266800DC6F26EC67F0000E0001D36F320ED26FDC
:10267800A0EC61F0F70E0001DA6FFE0EDB6F04ECE0
:1026880067F0000E0001D36F640ED26FA0EC61F00A
:10269800FAC2DAF0FBC2DBF004EC67F0000E0001CE
:1026A800D36F640ED26FA0EC61F0A0EF1CF0970E10
:1026B8000001DA6F000EDB6F0A0EDC6F26EC67F0A4
:1026C800000E0001D36F640ED26FA0EC61F0CFEF63
:1026D8001CF0970E0001DA6F000EDB6F020EDC6F44
:1026E80026EC67F064EF13F0970E0001DA6F000E26
:1026F800DB6F110EDC6F26EC67F064EF13F0490E08
:102708000001DA6F000EDB6F060EDC6F26EC67F057
:1027180064EF13F06CC064F06DC065F064C0D8F06D
:1027280065C0D9F0030E0001DB6FE80EDA6FEDEC3F
:1027380062F00001D851300FA56F64C0D2F065C0B7
:10274800D3F0030ED56FE80ED46FB1EC64F0D2C0AD
:1027580064F0D3C065F064C0D8F065C0D9F0000E4D
:102768000001DB6F640EDA6FEDEC62F00001D85106
:10277800300FA66F64C0D2F065C0D3F0000ED56FDD
:10278800640ED46FB1EC64F0D2C064F0D3C065F0CD
:1027980064C0D8F065C0D9F0000E0001DB6F0A0EE6
:1027A800DA6FEDEC62F00001D851300FA76F64C00A
:1027B800D2F065C0D3F0000ED56F0A0ED46FB1EC1D
:1027C80064F0D2C064F0D3C065F000016451300FEA
:1027D800A86FA50EDA6F000EDB6F040EDC6F26EC17
:1027E80067F0000E0001D36F320ED26FA0EC61F0DB
:1027F800DF0E0001DA6FFF0EDB6F04EC67F0000EEE
:102808000001D36F320ED26FA0EC61F0C1C064F04A
:10281800C2C065F064C0D8F065C0D9F0030E0001ED
:10282800DB6FE80EDA6FEDEC62F00001D851300F83
:10283800A56F64C0D2F065C0D3F0030ED56FE80E63
:10284800D46FB1EC64F0D2C064F0D3C065F064C05A
:10285800D8F065C0D9F0000E0001DB6F640EDA6FA6
:10286800EDEC62F00001D851300FA66F64C0D2F0D1
:1028780065C0D3F0000ED56F640ED46FB1EC64F070
:10288800D2C064F0D3C065F064C0D8F065C0D9F098
:10289800000E0001DB6F0A0EDA6FEDEC62F000014A
:1028A800D851300FA76F64C0D2F065C0D3F0000EC6
:1028B800D56F0A0ED46FB1EC64F0D2C064F0D3C007
:1028C80065F000016451300FA86FA50EDA6F000E95
:1028D800DB6F040EDC6F26EC67F064EF13F0970EE5
:1028E8000001DA6F000EDB6F020EDC6F26EC67F07A
:1028F800000E0001D36F320ED26FA0EC61F0F70E1C
:102908000001DA6FFF0EDB6F04EC67F0000E0001C8
:10291800D36F320ED26FA0EC61F060C064F061C07A
:1029280065F064C0D8F065C0D9F0270E0001DB6FF0
:10293800100EDA6FEDEC62F00001D851300FA56F80
:1029480064C0D2F065C0D3F0270ED56F100ED46FD7
:10295800B1EC64F0D2C064F0D3C065F064C0D8F0C4
:1029680065C0D9F0030E0001DB6FE80EDA6FEDECFD
:1029780062F00001D851300FA66F64C0D2F065C074
:10298800D3F0030ED56FE80ED46FB1EC64F0D2C06B
:1029980064F0D3C065F064C0D8F065C0D9F0000E0B
:1029A8000001DB6F640EDA6FEDEC62F00001D851C4
:1029B800300FA76F64C0D2F065C0D3F0000ED56F9A
:1029C800640ED46FB1EC64F0D2C064F0D3C065F08B
:1029D80064C0D8F065C0D9F0000E0001DB6F0A0EA4
:1029E800DA6FEDEC62F00001D851300FA86F64C0C7
:1029F800D2F065C0D3F0000ED56F0A0ED46FB1ECDB
:102A080064F0D2C064F0D3C065F000016451300FA7
:102A1800A96FA50EDA6F000EDB6F050EDC6F26ECD2
:102A280067F064EF13F0000E0001D36F0A0ED26F47
:102A3800A0EC61F0970E0001DA6F000EDB6F020E5A
:102A4800DC6F26EC67F0000E0001D36F0A0ED26F20
:102A5800A0EC61F0C20E0001DA6FFF0EDB6F04EC30
:102A680067F0000E0001D36F0A0ED26FA0EC61F080
:102A780000018151160DE00EF324D96E080EF420E2
:102A8800DA6EDF50986F98C0D2F0D36B000ED56F16
:102A9800640ED46FF2EC5DF00001D251300F976FE5
:102AA800970EDA6F000EDB6F010EDC6F26EC67F015
:102AB800000E0001D36F0A0ED26FA0EC61F098C02F
:102AC800E4F00001E56B000EE76F640EE66F8FEC33
:102AD8005DF00001E451986F98C0D2F0D36B000EFE
:102AE800D56F0A0ED46FF2EC5DF00001D251300FB1
:102AF800976F970EDA6F000EDB6F010EDC6F26EC16
:102B080067F0000E0001D36F0A0ED26FA0EC61F0DF
:102B180098C0E4F00001E56B000EE76F0A0EE66F5F
:102B28008FEC5DF00001E451986F9851300F976F6A
:102B3800970EDA6F000EDB6F010EDC6F26EC67F084
:102B4800000E0001D36F0A0ED26FA0EC61F0B00E38
:102B58000001DA6FFF0EDB6F04EC67F0000E000176
:102B6800D36F0A0ED26FA0EC61F000018151160DEF
:102B7800E10EF324D96E080EF420DA6EDF50986F58
:102B880098C0E4F0E56B000EE76F640EE66F8FEC1B
:102B98005DF00001E451986F98C0D2F0D36B000E3D
:102BA800D56F0A0ED46FF2EC5DF00001D251300FF0
:102BB800976F970EDA6F000EDB6F010EDC6F26EC55
:102BC80067F0000E0001D36F0A0ED26FA0EC61F01F
:102BD80098C0E4F00001E56B000EE76F0A0EE66F9F
:102BE8008FEC5DF00001E451986F9851300F976FAA
:102BF800970EDA6F000EDB6F010EDC6F26EC67F0C4
:102C0800000E0001D36F0A0ED26FA0EC61F0F10E36
:102C18000001DA6FFF0EDB6F04EC67F0000E0001B5
:102C2800D36F0A0ED26FA0EC61F000018151160D2E
:102C3800DC0EF324D96E080EF420DA6EDECF64F0D1
:102C4800DDCF65F064C0D8F065C0D9F0000EDB6F49
:102C5800640EDA6FEDEC62F00001D851300F976F17
:102C6800970EDA6F000EDB6F010EDC6F26EC67F053
:102C7800000E0001D36F0A0ED26FA0EC61F064C0A1
:102C8800D2F065C0D3F0000E0001D56F640ED46F8A
:102C9800B1EC64F0D2C064F0D3C065F064C0D8F081
:102CA80065C0D9F0000E0001DB6F0A0EDA6FEDEC9B
:102CB80062F00001D851300F976F970EDA6F000E4F
:102CC800DB6F010EDC6F26EC67F0000E0001D36F9E
:102CD8000A0ED26FA0EC61F064C0D2F065C0D3F0E8
:102CE800000E0001D56F0A0ED46FB1EC64F0D2C0AB
:102CF80064F0D3C065F000016451300F976F970EF0
:102D0800DA6F000EDB6F010EDC6F26EC67F0000E49
:102D18000001D36F0A0ED26FA0EC61F0EB0E000138
:102D2800DA6FFF0EDB6F04EC67F0000E0001D36F63
:102D38000A0ED26FA0EC61F000018151160DDE0E73
:102D4800F324D96E080EF420DA6EDECF64F0DDCFFE
:102D580065F064C0D8F065C0D9F0000EDB6F640E72
:102D6800DA6FEDEC62F00001D851300F976F970ED3
:102D7800DA6F000EDB6F010EDC6F26EC67F0000ED9
:102D88000001D36F0A0ED26FA0EC61F064C0D2F0DC
:102D980065C0D3F0000E0001D56F640ED46FB1EC9E
:102DA80064F0D2C064F0D3C065F064C0D8F065C0E8
:102DB800D9F0000E0001DB6F0A0EDA6FEDEC62F05D
:102DC8000001D851300F976F970EDA6F000EDB6F46
:102DD800010EDC6F26EC67F0000E0001D36F0A0EBF
:102DE800D26FA0EC61F064C0D2F065C0D3F0000EE1
:102DF8000001D56F0A0ED46FB1EC64F0D2C064F054
:102E0800D3C065F000016451300F976F970EDA6FE9
:102E1800000EDB6F010EDC6F26EC67F0000E000180
:102E2800D36F0A0ED26FA0EC61F0750E0001DA6F55
:102E3800FF0EDB6F04EC67F0000E0001D36F0A0E83
:102E4800D26FA0EC61F000018151160DE40EF3245D
:102E5800D96E080EF420DA6EDF50986F98C0E4F04F
:102E6800E56B000EE76F640EE66F8FEC5DF0000116
:102E7800E451986F98C0D2F0D36B000ED56F0A0E4C
:102E8800D46FF2EC5DF00001D251300F976F970EBE
:102E9800DA6F000EDB6F010EDC6F26EC67F0000EB8
:102EA8000001D36F0A0ED26FA0EC61F098C0E4F075
:102EB8000001E56B000EE76F0A0EE66F8FEC5DF020
:102EC8000001E451986F9851300F976F970EDA6FA1
:102ED800000EDB6F010EDC6F26EC67F0000E0001C0
:102EE800D36F0A0ED26FA0EC61F000018151160D6C
:102EF800E50EF324D96E080EF420DA6EDF50986FD1
:102F080098C0E4F0E56B000EE76F640EE66F8FEC97
:102F18005DF00001E451986F98C0D2F0D36B000EB9
:102F2800D56F0A0ED46FF2EC5DF00001D251300F6C
:102F3800976F970EDA6F000EDB6F010EDC6F26ECD1
:102F480067F0000E0001D36F0A0ED26FA0EC61F09B
:102F580098C0E4F00001E56B000EE76F0A0EE66F1B
:102F68008FEC5DF00001E451986F9851300F976F26
:102F7800970EDA6F000EDB6F010EDC6F26EC67F040
:102F8800000E0001D36F0A0ED26FA0EC61F00001B1
:102F98008151160DE60EF324D96E080EF420DA6E70
:102FA800DF50986F98C0E4F0E56B000EE76F640E91
:102FB800E66F8FEC5DF00001E451986F98C0D2F095
:102FC800D36B000ED56F0A0ED46FF2EC5DF00001E2
:102FD800D251300F976F970EDA6F000EDB6F010E2C
:102FE800DC6F26EC67F0000E0001D36F0A0ED26F7B
:102FF800A0EC61F098C0E4F00001E56B000EE76F0B
:103008000A0EE66F8FEC5DF00001E451986F98515D
:10301800300F976F970EDA6F000EDB6F010EDC6FC3
:1030280026EC67F0000E0001D36F0A0ED26FA0ECF9
:1030380061F0FC0E0001DA6FFF0EDB6F04EC67F045
:10304800000E0001D36F0A0ED26FA0EC61F00001F0
:103058008151160DE20EF324D96E080EF420DA6EB3
:10306800DF50986F98C0E4F0E56B000EE76F640ED0
:10307800E66F8FEC5DF00001E451986F98C0D2F0D4
:10308800D36B000ED56F0A0ED46FF2EC5DF0000121
:10309800D251300F976F970EDA6F000EDB6F010E6B
:1030A800DC6F26EC67F0000E0001D36F0A0ED26FBA
:1030B800A0EC61F098C0E4F00001E56B000EE76F4A
:1030C8000A0EE66F8FEC5DF00001E451986F98519D
:1030D800300F976F970EDA6F000EDB6F010EDC6F03
:1030E80026EC67F0000E0001D36F0A0ED26FA0EC39
:1030F80061F0B70E0001DA6FFF0EDB6F04EC67F0CA
:10310800000E0001D36F0A0ED26FA0EC61F000012F
:103118008151160DE30EF324D96E080EF420DA6EF1
:10312800DF50986F98C0E4F0E56B000EE76F640E0F
:10313800E66F8FEC5DF00001E451986F98C0D2F013
:10314800D36B000ED56F0A0ED46FF2EC5DF0000160
:10315800D251300F976F970EDA6F000EDB6F010EAA
:10316800DC6F26EC67F0000E0001D36F0A0ED26FF9
:10317800A0EC61F098C0E4F00001E56B000EE76F89
:103188000A0EE66F8FEC5DF00001E451986F9851DC
:10319800300F976F970EDA6F000EDB6F010EDC6F42
:1031A80026EC67F0000E0001D36F0A0ED26FA0EC78
:1031B80061F0F80E0001DA6FFE0EDB6F04EC67F0C9
:1031C80000018151160DF00EF324D96E080EF4207B
:1031D800DA6EDF50D8B4F3EF18F0F5EF18F074EFAB
:1031E8001AF0880EDA6FFE0EDB6F04EC67F0000E43
:1031F8000001D36F0A0ED26FA0EC61F0000181517B
:10320800160DE70EF324D96E080EF420DA6EDF509F
:10321800986F98C0D2F0D36B000ED56F640ED46F40
:10322800F2EC5DF00001D251300F976F970EDA6F14
:10323800000EDB6F010EDC6F26EC67F0000E00015C
:10324800D36F0A0ED26FA0EC61F098C0E4F00001D1
:10325800E56B000EE76F640EE66F8FEC5DF0000122
:10326800E451986F98C0D2F0D36B000ED56F0A0E58
:10327800D46FF2EC5DF00001D251300F976F970ECA
:10328800DA6F000EDB6F010EDC6F26EC67F0000EC4
:103298000001D36F0A0ED26FA0EC61F098C0E4F081
:1032A8000001E56B000EE76F0A0EE66F8FEC5DF02C
:1032B8000001E451986F9851300F976F970EDA6FAD
:1032C800000EDB6F010EDC6F26EC67F0000E0001CC
:1032D800D36F0A0ED26FA0EC61F0C20E0001DA6F54
:1032E800FF0EDB6F04EC67F0000E0001D36F0A0ECF
:1032F800D26FA0EC61F000018151160DE80EF324A5
:10330800D96E080EF420DA6EDF50986F98C0D2F0AC
:10331800D36B000ED56F640ED46FF2EC5DF0000134
:10332800D251300F976F970EDA6F000EDB6F010ED8
:10333800DC6F26EC67F0000E0001D36F0A0ED26F27
:10334800A0EC61F098C0E4F00001E56B000EE76FB7
:10335800640EE66F8FEC5DF00001E451986F98C041
:10336800D2F0D36B000ED56F0A0ED46FF2EC5DF07D
:103378000001D251300F976F970EDA6F000EDB6F96
:10338800010EDC6F26EC67F0000E0001D36F0A0E09
:10339800D26FA0EC61F098C0E4F00001E56B000E7C
:1033A800E76F0A0EE66F8FEC5DF00001E451986F4D
:1033B8009851300F976F970EDA6F000EDB6F010E82
:1033C800DC6F26EC67F0000E0001D36F0A0ED26F97
:1033D800A0EC61F0480E0001DA6FFF0EDB6F04EC21
:1033E80067F0000E0001D36F0A0ED26FA0EC61F0F7
:1033F80000018151160DE90EF324D96E080EF42050
:10340800DA6EDF50986F98C0D2F0D36B000ED56F8C
:10341800640ED46FF2EC5DF00001D251300F976F5B
:10342800970EDA6F000EDB6F010EDC6F26EC67F08B
:10343800000E0001D36F0A0ED26FA0EC61F098C0A5
:10344800E4F00001E56B000EE76F640EE66F8FECA9
:103458005DF00001E451986F98C0D2F0D36B000E74
:10346800D56F0A0ED46FF2EC5DF00001D251300F27
:10347800976F970EDA6F000EDB6F010EDC6F26EC8C
:1034880067F0000E0001D36F0A0ED26FA0EC61F056
:1034980098C0E4F00001E56B000EE76F0A0EE66FD6
:1034A8008FEC5DF00001E451986F9851300F976FE1
:1034B800970EDA6F000EDB6F010EDC6F26EC67F0FB
:1034C800000E0001D36F0A0ED26FA0EC61F0F80E67
:1034D8000001DA6FFE0EDB6F04EC67F0CFEF1CF033
:1034E800A80EDA6FFE0EDB6F04EC67F0000E000129
:1034F800D36F0A0ED26FA0EC61F0CFEF1CF0000E74
:103508000001D36F0A0ED26FA0EC61F05F0E0001CC
:10351800DA6FFF0EDB6F04EC67F0000E0001D36F6B
:103528000A0ED26FA0EC61F073C098F098C0E4F076
:103538000001E56B000EE76F640EE66F8FEC5DF03F
:103548000001E451986F98C0D2F0D36B000ED56F8C
:103558000A0ED46FF2EC5DF00001D251300F976F74
:10356800970EDA6F000EDB6F010EDC6F26EC67F04A
:10357800000E0001D36F0A0ED26FA0EC61F098C064
:10358800E4F00001E56B000EE76F0A0EE66F8FECC2
:103598005DF00001E451986F9851300F976F970EC6
:1035A800DA6F000EDB6F010EDC6F26EC67F0000EA1
:1035B8000001D36F0A0ED26FA0EC61F0D80E0001A3
:1035C800DA6FFF0EDB6F04EC67F0000E0001D36FBB
:1035D8000A0ED26FA0EC61F09E0E0001DA6FFF0EAA
:1035E800DB6F04EC67F0000E0001D36F0A0ED26F98
:1035F800A0EC61F072C098F098C0E4F00001E56BAF
:10360800000EE76F640EE66F8FEC5DF00001E45189
:10361800986F98C0D2F0D36B000ED56F0A0ED46F96
:10362800F2EC5DF00001D251300F976F970EDA6F10
:10363800000EDB6F010EDC6F26EC67F0000E000158
:10364800D36F0A0ED26FA0EC61F098C0E4F00001CD
:10365800E56B000EE76F0A0EE66F8FEC5DF0000178
:10366800E451986F9851300F976F970EDA6F000EEC
:10367800DB6F010EDC6F26EC67F0000E0001D36FE4
:103688000A0ED26FA0EC61F0D80E0001DA6FFF0EBF
:10369800DB6F04EC67F0000E0001D36F0A0ED26FE7
:1036A800A0EC61F0A70E0001DA6FFF0EDB6F04ECEF
:1036B80067F0000E0001D36F0A0ED26FA0EC61F024
:1036C80071C098F098C0E4F00001E56B000EE76F58
:1036D800640EE66F8FEC5DF00001E451986F98C0BE
:1036E800D2F0D36B000ED56F0A0ED46FF2EC5DF0FA
:1036F8000001D251300F976F970EDA6F000EDB6F13
:10370800010EDC6F26EC67F0000E0001D36F0A0E85
:10371800D26FA0EC61F098C0E4F00001E56B000EF8
:10372800E76F0A0EE66F8FEC5DF00001E451986FC9
:103738009851300F976F970EDA6F000EDB6F010EFE
:10374800DC6F26EC67F0000E0001D36F0A0ED26F13
:10375800A0EC61F0E50E0001DA6FFF0EDB6F04EC00
:1037680067F0000E0001D36F0A0ED26FA0EC61F073
:103778006A0E0001DA6FFF0EDB6F04EC67F0000ED3
:103788000001D36F0A0ED26FA0EC61F070C098F000
:1037980098C0E4F00001E56B000EE76F640EE66F79
:1037A8008FEC5DF00001E451986F98C0D2F0D36BB4
:1037B800000ED56F0A0ED46FF2EC5DF00001D25105
:1037C800300F976F970EDA6F000EDB6F010EDC6F0C
:1037D80026EC67F0000E0001D36F0A0ED26FA0EC42
:1037E80061F098C0E4F00001E56B000EE76F0A0E87
:1037F800E66F8FEC5DF00001E451986F9851300F3F
:10380800976F970EDA6F000EDB6F010EDC6F26ECF8
:1038180067F0000E0001D36F0A0ED26FA0EC61F0C2
:10382800D80E0001DA6FFF0EDB6F04EC67F0000EB4
:103838000001D36F0A0ED26FA0EC61F0D90E00011F
:10384800DA6FFE0EDB6F04EC67F0000E0001D36F39
:103858000A0ED26FA0EC61F06FC098F098C0D2F059
:103868000001D36B000ED56F640ED46FF2EC5DF0DF
:103878000001D251300F976F970EDA6F000EDB6F91
:10388800010EDC6F26EC67F0000E0001D36F0A0E04
:10389800D26FA0EC61F098C0E4F00001E56B000E77
:1038A800E76F640EE66F8FEC5DF00001E451986FEE
:1038B80098C0D2F0D36B000ED56F0A0ED46FF2EC1D
:1038C8005DF00001D251300F976F970EDA6F000E3E
:1038D800DB6F010EDC6F26EC67F0000E0001D36F82
:1038E8000A0ED26FA0EC61F098C0E4F00001E56B1D
:1038F800000EE76F0A0EE66F8FEC5DF00001E451F1
:10390800986F9851300F976F970EDA6F000EDB6F34
:10391800010EDC6F26EC67F0000E0001D36F0A0E73
:10392800D26FA0EC61F0E50E0001DA6FFF0EDB6FDD
:1039380004EC67F07AEF1AF00201FE510301F96F07
:10394800FA6BFA51000AD8B4ACEF1CF0CFEF1CF0B8
:10395800F951010AD8B45BEF13F0030AD8B46DEF3C
:1039680013F0010AD8B478EF13F0070AD8B483EF3C
:1039780013F0010AD8B48EEF13F0030AD8B473EF2A
:1039880014F0010AD8B417EF15F00F0AD8B483EF72
:103998001AF0CFEF1CF0000E0001936F000E826F3B
:1039A8001A0EF5EC68F0000E0001D36F640ED26FAA
:1039B800A0EC61F0000E0001D26F000E0EEC69F071
:1039C800C98000019351D8B4ECEF1CF0EEEF1CF065
:1039D800E5EF1CF00E013885000E0001D26F0F0EC6
:1039E8000EEC69F0010E0001D36FF40ED26FA0EC5B
:1039F80061F01200000E0501FE6FD7A206EF1DF060
:103A080008EF1DF032EF1DF0D7A40DEF1DF00FEFFA
:103A18001DF032EF1DF0D7A614EF1DF016EF1DF0C4
:103A280032EF1DF0D7A01BEF1DF01DEF1DF032EF98
:103A38001DF0D7A822EF1DF024EF1DF032EF1DF086
:103A4800D7BE29EF1DF02BEF1DF032EF1DF0D7ACDC
:103A580030EF1DF032EF1DF070EF20F0D7A237EFF6
:103A68001DF039EF1DF040EF1DF0D7B03EEF1DF00F
:103A780040EF1DF045EF1DF0D786D784D788D79E35
:103A8800D79CD7B24AEF1DF04CEF1DF051EF1DF057
:103A9800010EFE6FD78295EF1DF0D7B056EF1DF0DF
:103AA80058EF1DF05DEF1DF0020EFE6FD78095EF09
:103AB8001DF0D7B662EF1DF064EF1DF069EF1DF041
:103AC800030EFE6FD78695EF1DF0D7B46EEF1DF08D
:103AD80070EF1DF075EF1DF0040EFE6FD78495EFA3
:103AE8001DF0D7B87AEF1DF07CEF1DF081EF1DF0C7
:103AF800050EFE6FD78895EF1DF0D7BE86EF1DF037
:103B080088EF1DF08FEF1DF0D7AC8DEF1DF08FEF14
:103B18001DF095EF1DF0060EFE6FD79ED79C95EF12
:103B28001DF0030EFE19D8B49CEF1DF09EEF1DF09A
:103B3800A5EF1DF0750E0001D36F300ED26FA0EC0B
:103B480061F02AEC54F0030E0001D36FE80ED26F37
:103B5800A0EC61F013EC46F0030E0001D36FE80E01
:103B6800D26FA0EC61F0ECEC54F0030E0001D36FBF
:103B7800E80ED26FA0EC61F09BEC55F0030E00014B
:103B8800D36FE80ED26FA0EC61F000018651D8A483
:103B9800D0EF1DF0D2EF1DF0DAEF1DF0010E866FA9
:103BA8000FEC5FF028EC63F054EC66F0030E0501AF
:103BB800FE19D8A4E2EF1DF0E4EF1DF06EEF20F03F
:103BC800000E0001816F04EF1EF0010ED26F000E8F
:103BD8000EEC69F0010E0001D36FF40ED26FA0EC69
:103BE80061F0010E0001D26F0F0E0EEC69F0010EAC
:103BF8000001D36FF40ED26FA0EC61F00001812BAD
:103C0800050E81610AEF1EF00CEF1EF014EF1EF096
:103C18008051D8B412EF1EF014EF1EF0E9EF1DF03A
:103C28008051D8A41AEF1EF01CEF1EF03CEF20F0D4
:103C3800010E816F090E816524EF1EF026EF1EF03C
:103C480028EF1EF03CEF1EF0802B30EC66F0010EE2
:103C58000001D26F81510EEC69F0270E0001D36F7D
:103C6800100ED26FA0EC61F00001812B1EEF1EF048
:103C7800000E0001806F30EC66F06EEF20F0000E51
:103C88000001806F30EC66F0000E0001816F040EB9
:103C9800816551EF1EF053EF1EF055EF1EF072EFE5
:103CA8001EF0010ED26F0F0E0EEC69F0010E00012E
:103CB800D36FF40ED26FA0EC61F0010E0001D26F49
:103CC800010E0EEC69F0030E0001D36FE80ED26FFF
:103CD800A0EC61F00001812B4BEF1EF0000EDF6FAE
:103CE800020EC0EC41F08E9E000E0001826F2C0E79
:103CF8000201FA6FFA0EFB6FAB0EFC6F000EFD6F40
:103D0800050EFE6F1EEC13F03CEF1EF0000E0001D6
:103D1800806F30EC66F0000E0001816F040E816543
:103D280098EF1EF09AEF1EF09CEF1EF0B9EF1EF010
:103D3800010ED26F0F0E0EEC69F0010E0001D36F69
:103D4800F40ED26FA0EC61F0010E0001D26F020EEA
:103D58000EEC69F0030E0001D36FE80ED26FA0ECF1
:103D680061F00001812B92EF1EF0000EDF6F010E53
:103D7800C0EC41F078EF1EF0000E0001806F30ECCF
:103D880066F0000E0001816F040E8165CEEF1EF013
:103D9800D0EF1EF0D2EF1EF0EFEF1EF0010ED26F43
:103DA8000F0E0EEC69F0010E0001D36FF40ED26F06
:103DB800A0EC61F0010E0001D26F030E0EEC69F069
:103DC800030E0001D36FE80ED26FA0EC61F0000182
:103DD800812BC8EF1EF0ACEC49F03CEF1EF0000E52
:103DE8000001806F30EC66F0000E0001816F040E58
:103DF800816501EF1FF003EF1FF005EF1FF03CEFA7
:103E08001EF0010ED26F0F0E0EEC69F0010E0001CC
:103E1800D36FF40ED26FA0EC61F0010E0001D26FE7
:103E2800040E0EEC69F0030E0001D36FE80ED26F9A
:103E3800A0EC61F00001812BFBEF1EF0000E0001E9
:103E4800806F30EC66F0000E0001816F040E816512
:103E580030EF1FF032EF1FF034EF1FF03CEF1EF091
:103E6800010ED26F0F0E0EEC69F0010E0001D36F38
:103E7800F40ED26FA0EC61F0010E0001D26F050EB6
:103E88000EEC69F0030E0001D36FE80ED26FA0ECC0
:103E980061F00001812B2AEF1FF0000E0001806FF6
:103EA80030EC66F0000E0001816F040E81655FEF53
:103EB8001FF061EF1FF063EF1FF03CEF1EF0010EE3
:103EC800D26F0F0E0EEC69F0010E0001D36FF40EE5
:103ED800D26FA0EC61F0010E0001D26F060E0EEC5D
:103EE80069F0030E0001D36FE80ED26FA0EC61F009
:103EF8000001812B59EF1FF0000E0001806F30EC9C
:103F080066F000019651D8B48CEF1FF08EEF1FF0C9
:103F18003CEF1EF0000E816F040E816596EF1FF0D6
:103F280098EF1FF09AEF1FF0B7EF1FF0010ED26F56
:103F38000F0E0EEC69F0010E0001D36FF40ED26F74
:103F4800A0EC61F0010E0001D26F070E0EEC69F0D3
:103F5800030E0001D36FE80ED26FA0EC61F00001F0
:103F6800812B90EF1FF0A3EC51F013EC65F0030EDA
:103F78000001D36FE80ED26FA0EC61F013EC46F0AD
:103F88003CEF1EF0000E0001806F30EC66F000017F
:103F98009651D8B4D2EF1FF0D4EF1FF03CEF1EF0CB
:103FA800000E816F040E8165DCEF1FF0DEEF1FF05D
:103FB800E0EF1FF0FDEF1FF0010ED26F0F0E0EECB9
:103FC80069F0010E0001D36FF40ED26FA0EC61F01E
:103FD800010E0001D26F080E0EEC69F0030E00010D
:103FE800D36FE80ED26FA0EC61F00001812BD6EF01
:103FF8001FF0A3EC51F0BBEF1FF0000E0001806F23
:1040080030EC66F000019651D8B40DEF20F00FEFB8
:1040180020F03CEF1EF0000E816F040E816517EF53
:1040280020F019EF20F01BEF20F038EF20F0010E00
:10403800D26F0F0E0EEC69F0010E0001D36FF40E73
:10404800D26FA0EC61F0010E0001D26F090E0EECE8
:1040580069F0030E0001D36FE80ED26FA0EC61F097
:104068000001812B11EF20F013EC65F0BBEF1FF07E
:1040780080510401FE6FFF6BFF51000AD8B447EF6F
:1040880020F03CEF1EF0FE51010AD8B443EF1EF0B9
:10409800030AD8B48AEF1EF0010AD8B4C0EF1EF0A4
:1040A800070AD8B4F3EF1EF0010AD8B422EF1FF0C4
:1040B800030AD8B451EF1FF0010AD8B480EF1FF0FB
:1040C8000F0AD8B4C6EF1FF0010AD8B401EF20F0E8
:1040D8003CEF1EF0E4EC64F000019651D8B477EFA1
:1040E80020F079EF20F074EF23F0E2EC66F000099D
:1040F800D8B481EF20F083EF20F09AEF20F0FF0E84
:104108000001696FDC0E686F660E0201FA6FF70E28
:10411800FB6FAB0EFC6F000EFD6F000EFE6F1EEC0A
:1041280013F0010E0001886F9BEF23F0000E0001D1
:104138007F6F000E816FF8EF21F08151160DEE0EA2
:10414800F324D96E080EF420DA6EDE04D8A4AFEF9B
:1041580020F0B1EF20F0F7EF21F055EC5EF0000110
:104168008151160DE60EF324D96E080EF420DA6E8E
:104178007B51DE5CD8A0C3EF20F0C5EF20F05EEFE6
:1041880021F08151160DE50EF324D96E080EF420A6
:10419800DA6E7A51DE5CD8B0D4EF20F0D6EF20F09A
:1041A800E7EF20F08151160DE60EF324D96E080EC4
:1041B800F420DA6E7B51DE18D8B4E5EF20F0E7EF93
:1041C80020F05EEF21F08151160DE40EF324D96E34
:1041D800080EF420DA6E7951DE5CD8B0F6EF20F0E4
:1041E800F8EF20F01AEF21F08151160DE50EF324B7
:1041F800D96E080EF420DA6E7A51DE18D8A407EFCB
:1042080021F009EF21F01AEF21F08151160DE60E89
:10421800F324D96E080EF420DA6E7B51DE18D8B478
:1042280018EF21F01AEF21F05EEF21F08151160D01
:10423800E20EF324D96E080EF420DA6E7851DE5CB3
:10424800D8B029EF21F02BEF21F0F1EF21F08151C7
:10425800160DE40EF324D96E080EF420DA6E7951A7
:10426800DE18D8A43AEF21F03CEF21F0F1EF21F06D
:104278008151160DE50EF324D96E080EF420DA6E7E
:104288007A51DE18D8A44BEF21F04DEF21F0F1EF71
:1042980021F08151160DE60EF324D96E080EF42094
:1042A800DA6E7B51DE18D8A45CEF21F05EEF21F0C6
:1042B800F1EF21F0000E8F6F8151160DEE0EF324F1
:1042C800D96E080EF420DA6E000EDF6E8151160DDD
:1042D800EC0EF324D96E080EF420DA6E8151160D17
:1042E800ED0EF324E16E080EF420E26EDFCFE7FF57
:1042F80081C07FF08151160DF00EF324D96E080E9F
:10430800F420DA6EDF50D8B48CEF21F08EEF21F074
:10431800E8EF21F08151160DEB0EF324D96E080E4B
:10432800F420DA6E020EDE18D8A49DEF21F09FEF7C
:1043380021F0BDEF21F08151160DEB0EF324D96E5B
:10434800080EF420DA6E000EDF6E8151160DF10EA4
:10435800F324D96E080EF420DA6E010EDF6EBBEC82
:104368005FF0DCC066F0DDC067F06DEC62F0E8EF8E
:1043780021F08151160DEB0EF324D96E080EF420AE
:10438800DA6E030EDE18D8B4CCEF21F0CEEF21F0B0
:10439800DEEF21F08151160DEB0EF324D96E080ED5
:1043A800F420DA6EDE04D8A4DCEF21F0DEEF21F091
:1043B800E8EF21F08151160DEB0EF324D96E080EAB
:1043C800F420DA6E000EDF6E000E0001D36F640E6B
:1043D800D26FA0EC61F000EF22F0010E8F6F81C068
:1043E8007FF000EF22F0812B0B0E8165FEEF21F0AC
:1043F80000EF22F0A1EF20F000018F51D8B407EFB1
:1044080022F009EF22F014EF23F0010E8C6F090E51
:10441800816111EF22F013EF22F01AEF22F0300E33
:10442800976F8151310F986F8BEF22F0080E8165DD
:1044380020EF22F022EF22F08BEF22F00C0E8161A8
:1044480028EF22F02AEF22F08BEF22F0310E976F3F
:104458008151270F986F8BEF22F0A40E0201FA6F9B
:10446800F40EFB6FAB0EFC6F000EFD6F020EFE6FBD
:104478001EEC13F0B2EF22F03F0E0201FA6FF50EB8
:10448800FB6FAB0EFC6F000EFD6F020EFE6F1EEC95
:1044980013F0B2EF22F0F20E0201FA6FF40EFB6F86
:1044A800AB0EFC6F000EFD6F020EFE6F1EEC13F0DC
:1044B800B2EF22F0520E0201FA6FF40EFB6FAB0E50
:1044C800FC6F000EFD6F020EFE6F1EEC13F0B2EFD4
:1044D80022F0D40E0201FA6FF50EFB6FAB0EFC6FE3
:1044E800000EFD6F020EFE6F1EEC13F0B2EF22F00D
:1044F8008A0E0201FA6FF50EFB6FAB0EFC6F000E11
:10450800FD6F020EFE6F1EEC13F0B2EF22F00501F4
:10451800FE510401FE6FFF6BFF51000AD8B497EFFC
:1045280022F0B2EF22F0FE51010AD8B431EF22F0A6
:10453800030AD8B440EF22F0010AD8B44FEF22F0B2
:10454800070AD8B45EEF22F0010AD8B46DEF22F062
:10455800030AD8B47CEF22F0B2EF22F0BBEC5FF094
:10456800DCC068F0DDC069F09BEF23F02B0E020180
:10457800FA6FFB0EFB6FAB0EFC6F000EFD6F000EAB
:10458800FE6F1EEC13F03BEF23F0080E0201FA6FEA
:10459800FD0EFB6FAB0EFC6F000EFD6F000EFE6F85
:1045A8001EEC13F03BEF23F0500E0201FA6FFB0EE6
:1045B800FB6FAB0EFC6F000EFD6F000EFE6F1EEC66
:1045C80013F03BEF23F0B20E0201FA6FFA0EFB6F05
:1045D800AB0EFC6F000EFD6F000EFE6F1EEC13F0AD
:1045E8003BEF23F0650E0201FA6FFC0EFB6FAB0E7A
:1045F800FC6F000EFD6F000EFE6F1EEC13F03BEF1C
:1046080023F0440E0201FA6FFC0EFB6FAB0EFC6F39
:10461800000EFD6F000EFE6F1EEC13F03BEF23F053
:104628000501FE510401FE6FFF6BFF51000AD8B46B
:1046380020EF23F03BEF23F0FE51010AD8B4BAEF84
:1046480022F0030AD8B4C9EF22F0010AD8B4D8EF8F
:1046580022F0070AD8B4E7EF22F0010AD8B4F6EF3F
:1046680022F0030AD8B405EF23F03BEF23F09BEFC9
:1046780023F0000ED26F010E0EEC69F0B60E0001A9
:10468800D26F000ED36F490ED46F000ED56F000E97
:10469800D76F060ED66F2AEC62F0FF0E0001696F25
:1046A800DC0E686FACEC4DF000019551D8B45FEFAB
:1046B80023F061EF23F074EF23F0010ED26F020EA6
:1046C8000EEC69F0010E0001D36FF40ED26FA0EC6E
:1046D80061F0000E0001956F96EC01F0E4EC64F0D7
:1046E80000019651D8B47BEF23F07DEF23F03DEF26
:1046F80023F0E2EC66F00009D8B485EF23F087EFE9
:1047080023F09BEF23F0FF0E0001696FDC0E686F4A
:10471800EA0E0201FA6FF60EFB6FAB0EFC6F000E8D
:10472800FD6F000EFE6F1EEC13F095EF20F061ECAC
:1047380063F00009D8B4A3EF23F0A5EF23F0CFEF7F
:1047480023F06A0E0201FA6FF90EFB6FAB0EFC6FD5
:10475800000EFD6F000EFE6F1EEC13F00001855178
:10476800D8B4B9EF23F0BBEF23F02CEF24F0BBEC67
:104778004FF0030E0001D36FE80ED26FA0EC61F08A
:10478800B7EC5EF0030E0001D36FE80ED26FA0EC19
:1047980061F02CEF24F000018A51D8B4D6EF23F051
:1047A800D8EF23F022EF24F0000E8A6F000ED36FAB
:1047B800640ED26FA0EC61F078EC66F0000E000198
:1047C800D36F640ED26FA0EC61F000018551D8B4AC
:1047D800F0EF23F0F2EF23F013EF24F0BBEC4FF0EF
:1047E800030E0001D36FE80ED26FA0EC61F0B7ECB6
:1047F8005EF0030E0001D36FE80ED26FA0EC61F0FB
:10480800C70E0201FA6FF80EFB6FAB0EFC6F000EBD
:10481800FD6F000EFE6F1EEC13F02CEF24F08F0ED0
:104828000201FA6FF80EFB6FAB0EFC6F000EFD6F06
:10483800000EFE6F1EEC13F02CEF24F08551D8B457
:1048480028EF24F02AEF24F02CEF24F0BBEF23F01C
:10485800120000018F51D8B434EF24F036EF24F061
:1048680079EF27F068516911D8A43DEF24F03FEFA4
:1048780024F079EF27F09151D8A445EF24F047EFC1
:1048880024F079EF27F08B51D8A44DEF24F04FEFA7
:1048980024F079EF27F08D51D8A455EF24F057EF85
:1048A80024F079EF27F09051D8A45DEF24F05FEF62
:1048B80024F079EF27F0000E0101FF6F6FEF27F06A
:1048C800FF51160DEE0EF324D96E080EF420DA6EA1
:1048D800DE04D8A472EF24F074EF24F047EF25F03B
:1048E800FF51160DF00EF324D96E080EF420DA6E7F
:1048F800DF50D8B482EF24F084EF24F047EF25F09E
:10490800FF51160DEB0EF324D96E080EF420DA6E63
:10491800DE04D8A492EF24F094EF24F047EF25F0BA
:10492800030E0001D36FE80ED26FA0EC61F08E8CFD
:104938000101FF51160DEB0EF324D96E080EF42079
:10494800DA6E020EDF6EFF51160DF10EF324D96EEA
:10495800080EF420DA6EDF50D8B4B5EF24F0B7EFC4
:1049680024F0CDEF24F0FF51160DF10EF324D96E8B
:10497800080EF420DA6E000EDF6E65EC5FF0DCC026
:1049880066F0DDC067F066C068F067C069F0DCEF0C
:1049980024F0FF51160DE80EF324D96E080EF4200A
:1049A800DA6EDF500301FB6FFB510001686F696B22
:1049B800000E0001D36F640ED26FA0EC61F001010C
:1049C800FF51020D4B0EF324F66EF20EF420F76E33
:1049D8000900F5CFDAF00A00F5CFDBF0FF51160D2C
:1049E800DC0EF3240001DC6F080EF420DD6FB6EC5A
:1049F80060F0000E0001D36F640ED26FA0EC61F07E
:104A0800ADEC62F0000E0001D36F640ED26FA0EC23
:104A180061F0090E0101FF6114EF25F016EF25F092
:104A280020EF25F0300E0001976F0101FF51310F83
:104A38000001986F38EF25F0080EFF6526EF25F086
:104A480028EF25F038EF25F00C0EFF612EEF25F04A
:104A580030EF25F038EF25F0310E0001976F010196
:104A6800FF51270F0001986F000E0201FA6FFC0E2C
:104A7800FB6FAB0EFC6F000EFD6F020EFE6F1EEC9F
:104A880013F03AEF29F0FF51160DEE0EF324D96E0C
:104A9800080EF420DA6EDE04D8A455EF25F057EF9F
:104AA80025F085EF26F0FF51160DF00EF324D96E90
:104AB800080EF420DA6EDF50D8B465EF25F067EF02
:104AC80025F085EF26F0FF51160DEB0EF324D96E75
:104AD800080EF420DA6E020EDE18D8A476EF25F060
:104AE80078EF25F085EF26F0030E0001D36FE80E6E
:104AF800D26FA0EC61F08E9C0101FF51160DEB0EF8
:104B0800F324D96E080EF420DA6E030EDF6EFF511F
:104B1800160DE90EF324D96E080EF420DA6EDF06BE
:104B2800FF51160DE90EF324D96E080EF420DA6E43
:104B3800DF50D8A4A2EF25F0A4EF25F0AEEF25F0C2
:104B4800FF51160DF00EF324D96E080EF420DA6E1C
:104B5800000EDF6E000E0001D36F640ED26FA0EC62
:104B680061F00101FF51020D4B0EF324F66EF20EB7
:104B7800F420F76E0900F5CFDAF00A00F5CFDBF084
:104B8800FF51160DDC0EF3240001DC6F080EF42033
:104B9800DD6F34EC58F0000E0001D36F640ED26F55
:104BA800A0EC61F00101FF51160DE00EF324D96E5F
:104BB800080EF420DA6EDF500301FB6FFC6B010175
:104BC800FF51160DE70EF324D96E080EF420DA6EA5
:104BD800DF500301FD6FFD51FB5F000EFC5B01011F
:104BE800FF51160DE80EF324D96E080EF420DA6E84
:104BF800DF500301FE6FFE51FB5D0001686F03018A
:104C0800FC51D8A0FC050001696F000ED36F640E3B
:104C1800D26FA0EC61F0ADEC62F0000E0001D36F32
:104C2800640ED26FA0EC61F0090E0101FF611FEF65
:104C380026F021EF26F02BEF26F0300E0001976FBB
:104C48000101FF51310F0001986F43EF26F0080E64
:104C5800FF6531EF26F033EF26F043EF26F00C0E18
:104C6800FF6139EF26F03BEF26F043EF26F0310ED7
:104C78000001976F0101FF51270F0001986F000194
:104C88008351D8B44AEF26F04CEF26F05DEF26F0BA
:104C9800000E836FA20E0201FA6FF70EFB6FAB0EC8
:104CA800FC6F000EFD6F020EFE6F1EEC13F03AEF64
:104CB80029F09451D8B463EF26F065EF26F076EF2B
:104CC80026F0000E946F1E0E0201FA6FF60EFB6FAF
:104CD800AB0EFC6F000EFD6F020EFE6F1EEC13F0A4
:104CE8003AEF29F0DE0E0201FA6FFB0EFB6FAB0EF6
:104CF800FC6F000EFD6F020EFE6F1EEC13F03AEF14
:104D080029F0FF51160DEE0EF324D96E080EF4208B
:104D1800DA6EDE04D8A493EF26F095EF26F06EEF56
:104D280027F0FF51160DEE0EF324D96E080EF4206D
:104D3800DA6E000EDF6EFF51160DEC0EF324D96EFD
:104D4800080EF420DA6EFF51160DED0EF324E16E15
:104D5800080EF420E26EDE50E618D8A4B6EF26F06E
:104D6800B8EF26F0C4EF26F0FF51160DED0EF32430
:104D7800D96E080EF420DA6E010EDF6ECDEF26F044
:104D8800FF51160DED0EF324D96E080EF420DA6EDD
:104D9800DF2A000E00018F6F010E8E6F0101FF29BF
:104DA80000017F6F000ED36F640ED26FA0EC61F02C
:104DB8000101FF51E5EC65F0000E0001D36F640EB0
:104DC800D26FA0EC61F00101FF51020D4B0EF324EC
:104DD800F66EF20EF420F76E0900F5CFDAF00A004D
:104DE800F5CFDBF0FF51160DDC0EF3240001DC6F6C
:104DF800080EF420DD6F87EC67F0000E0001D36F1A
:104E0800640ED26FA0EC61F00101FF51020D4B0E50
:104E1800F324F66EF20EF420F76E0900F5CFDAF0FF
:104E28000A00F5CFDBF0FF51160DDC0EF32400016C
:104E3800DC6F080EF420DD6F67EC67F0000E0001F0
:104E4800D36F640ED26FA0EC61F00101FF51160D13
:104E5800F00EF324D96E080EF420DA6EDF50D8B4C1
:104E680038EF27F03AEF27F03AEF29F0FF51160D07
:104E7800EB0EF324D96E080EF420DA6E000EDF6E06
:104E8800000E0001D36F640ED26FA0EC61F0010137
:104E9800FF51020D4B0EF324F66EF20EF420F76E5E
:104EA8000900F5CFDAF00A00F5CFDBF0FF51160D57
:104EB800DC0EF3240001DC6F080EF420DD6FB6EC85
:104EC80060F0000E0001D36F640ED26FA0EC61F0A9
:104ED8003AEF29F0FF2B0B0EFF6575EF27F077EF00
:104EE80027F064EF24F03AEF29F08D51D8B47FEF22
:104EF80027F081EF27F03AEF29F0000E8D6F000EB2
:104F08000101FF6F32EF29F0FF51160DEE0EF32469
:104F1800D96E080EF420DA6EDE04D8A496EF27F0D6
:104F280098EF27F031EF29F0FF51160DEF0EF3241B
:104F3800D96E080EF420DA6EDF50D8A4A6EF27F059
:104F4800A8EF27F073EF28F0FF51160DEE0EF324AB
:104F5800D96E080EF420DA6E000EDF6EFF51160DC2
:104F6800EC0EF324D96E080EF420DA6EFF51160DFC
:104F7800ED0EF324E16E080EF420E26EDE50E61822
:104F8800D8A4C9EF27F0CBEF27F0D7EF27F0FF51D0
:104F9800160DED0EF324D96E080EF420DA6E010E0C
:104FA800DF6EE0EF27F0FF51160DED0EF324D96EFA
:104FB800080EF420DA6EDF2AFF51160DEB0EF324EB
:104FC800D96E080EF420DA6E020EDE18D8A4EFEFC0
:104FD80027F0F1EF27F01CEF28F08E9CFF51160DFB
:104FE800EB0EF324D96E080EF420DA6E000EDF6E95
:104FF800FF51020D4B0EF324F66EF20EF420F76EFD
:105008000900F5CFDAF00A00F5CFDBF0FF51160DF5
:10501800DC0EF3240001DC6F080EF420DD6FB6EC23
:1050280060F0000E0001D36F640ED26FA0EC61F047
:10503800000E00018F6F010E8E6F0101FF29000124
:105048007F6F000ED36F640ED26FA0EC61F0010188
:10505800FF51E5EC65F0000E0001D36F640ED26FCE
:10506800A0EC61F00101FF51020D4B0EF324F66E26
:10507800F20EF420F76E0900F5CFDAF00A00F5CF4A
:10508800DBF0FF51160DDC0EF3240001DC6F080E77
:10509800F420DD6F87EC67F0000E0001D36F640E1B
:1050A800D26FA0EC61F00101FF51020D4B0EF32409
:1050B800F66EF20EF420F76E0900F5CFDAF00A006A
:1050C800F5CFDBF0FF51160DDC0EF3240001DC6F89
:1050D800080EF420DD6F67EC67F065EF27F0FF51ED
:1050E800160DEB0EF324D96E080EF420DA6EDE04EA
:1050F800D8A481EF28F083EF28F0B5EF28F0BBECB7
:105108005FF0DCC068F0DDC069F00101FF51160DE9
:10511800E00EF324D96E080EF420DA6EDF50030196
:10512800FB6FFC6B0101FF51160DE70EF324D96EDE
:10513800080EF420DA6EDF500301FD6FFD51FB5FAE
:10514800000EFC5B000168510301FB250001686F3C
:1051580069510301FC210001696FADEC62F065EF54
:1051680027F0FF51160DEB0EF324D96E080EF4202C
:10517800DA6E020EDE18D8A4C4EF28F0C6EF28F0C5
:1051880031EF29F08E9CFF51160DEB0EF324D96EEA
:10519800080EF420DA6E000EDF6EFF51020D4B0E82
:1051A800F324F66EF20EF420F76E0900F5CFDAF06C
:1051B8000A00F5CFDBF0FF51160DDC0EF3240001D9
:1051C800DC6F080EF420DD6FB6EC60F0000E000115
:1051D800D36F640ED26FA0EC61F0BBEC5FF0DCC063
:1051E80068F0DDC069F00101FF51160DE00EF324EF
:1051F800D96E080EF420DA6EDF500301FB6FFC6BEA
:105208000101FF51160DE70EF324D96E080EF420A4
:10521800DA6EDF500301FD6FFD51FB5F000EFC5B92
:105228000101FF51160DE80EF324D96E080EF42083
:10523800DA6EDF500301FE6FFE51FB5F000EFC5B70
:10524800000168510301FB250001686F69510301E2
:10525800FC210001696FB1EF28F0FF2B0B0EFF65F1
:1052680038EF29F03AEF29F088EF27F01200010E05
:105278000601F36F6E0EF26F010EF56F6D0EF46F8F
:10528800000EF76F000EF66FFF0E0001696FDC0E5F
:10529800686F000E926F0B0E7F6555EF29F057EF80
:1052A80029F059EF29F0000E7F6F7FC081F000EFE1
:1052B8002DF08151160DEF0EF324D96E080EF4204F
:1052C800DA6EDF50D8B46BEF29F06DEF29F0FEEFFE
:1052D8002CF08151160DEE0EF324D96E080EF42031
:1052E800DA6EDE04D8B47BEF29F07DEF29F0FEEF0B
:1052F8002CF09251D8A483EF29F085EF29F09BEF89
:1053080029F0000ED36F640ED26FA0EC61F055EC5B
:105318005EF0000E0001D36F640ED26FA0EC61F056
:10532800010E0001926FFF0E696FDC0E686F8151EC
:10533800160DE60EF324D96E080EF420DA6E7B51B2
:10534800DE5CD8A0AAEF29F0ACEF29F09AEF2AF09A
:105358008151160DE50EF324D96E080EF420DA6E8D
:105368007A51DE5CD8B0BBEF29F0BDEF29F0CEEF63
:1053780029F08151160DE60EF324D96E080EF4209B
:10538800DA6E7B51DE18D8B4CCEF29F0CEEF29F0D5
:105398009AEF2AF08151160DE40EF324D96E080E07
:1053A800F420DA6E7951DE5CD8B0DDEF29F0DFEF5A
:1053B80029F001EF2AF08151160DE50EF324D96E7C
:1053C800080EF420DA6E7A51DE18D8A4EEEF29F030
:1053D800F0EF29F001EF2AF08151160DE60EF324C3
:1053E800D96E080EF420DA6E7B51DE18D8B4FFEFC0
:1053F80029F001EF2AF09AEF2AF08151160DE20EFA
:10540800F324D96E080EF420DA6E7851DE5CD8B039
:1054180010EF2AF012EF2AF045EF2AF08151160D0D
:10542800E40EF324D96E080EF420DA6E7951DE18F2
:10543800D8A421EF2AF023EF2AF045EF2AF0815172
:10544800160DE50EF324D96E080EF420DA6E7A51A3
:10545800DE18D8A432EF2AF034EF2AF045EF2AF00C
:105468008151160DE60EF324D96E080EF420DA6E7B
:105478007B51DE18D8B443EF2AF045EF2AF09AEFB3
:105488002AF08151160DE30EF324D96E080EF4208C
:10549800DA6EDE50775DD8A054EF2AF056EF2AF086
:1054A8009EEF2AF08151160DE20EF324D96E080EF4
:1054B800F420DA6E7851DE18D8A465EF2AF067EF89
:1054C8002AF09EEF2AF08151160DE40EF324D96ECE
:1054D800080EF420DA6E7951DE18D8A476EF2AF097
:1054E80078EF2AF09EEF2AF08151160DE50EF3248D
:1054F800D96E080EF420DA6E7A51DE18D8A487EF38
:105508002AF089EF2AF09EEF2AF08151160DE60E57
:10551800F324D96E080EF420DA6E7B51DE18D8A475
:1055280098EF2AF09AEF2AF09EEF2AF0010E8F6F7B
:1055380008EF2DF08151160DEC0EF324D96E080EEC
:10554800F420DA6E8151160DED0EF324E16E080E8B
:10555800F420E26EDE50E65CD8B0B5EF2AF0B7EF83
:105568002AF0B9EF2AF09AEF2AF0000E8F6F000E9A
:105578000601F86F000EF96F000EFA6F000EFB6F50
:105588007BC0F7F617EF2BF0D00EF7250001D26F8E
:10559800D36B070ED323000ED56F640ED46FB1EC16
:1055A80064F00001D251D311D8B4DDEF2AF0DFEF57
:1055B8002AF00DEF2BF0F7C6E0F0030EE017D8A4A1
:1055C800E8EF2AF0EAEF2AF00DEF2BF0D00E0601F3
:1055D800F7250001D26FD36B070ED323010ED56FC9
:1055E800900ED46FB1EC64F00001D251D311D8A45D
:1055F80000EF2BF002EF2BF00DEF2BF00601F2512C
:10560800F827F351F923000EFA23000EFB2316EFB7
:105618002BF00601F451F827F551F923000EFA236F
:10562800000EFB23F72B00018151160DE60EF32423
:10563800D96E080EF420DA6EDE500601F75DD8A0A8
:1056480028EF2BF02AEF2BF0C8EF2AF00001815148
:10565800160DE60EF324D96E080EF420DA6EDF502C
:10566800D76F8151160DE50EF324D96E080EF4207C
:10567800DA6EDF509BEC57F00001D7510601F8278E
:105688000001D8510601F923000EFA23000EFB236E
:1056980000018151160DE40EF324D96E080EF42092
:1056A800DA6EDF50E06FE0510601F827000EF923AB
:1056B800FA23FB237BC0D7F000017A519BEC57F00B
:1056C8000001D751E06FD851E16FE26BE36BE05115
:1056D8000601F85F0001E1510601F95B0001E251A2
:1056E8000601FA5B0001E3510601FB5B79C0E0F0BB
:1056F8000001E16BE26BE36BE0510601F85F00012A
:10570800E1510601F95B0001E2510601FA5B000173
:10571800E3510601FB5BF8C6D2F0F9C6D3F0FAC62E
:10572800D4F0FBC6D5F0180E0001D66F000ED76F67
:10573800000ED86F000ED96F7BEC64F0D2C0F8F67B
:10574800D3C0F9F6D4C0FAF6D5C0FBF600018151F2
:10575800160DE20EF324D96E080EF420DA6E785195
:10576800DE5CD8A0BAEF2BF0BCEF2BF059EF2CF091
:105778008151160DE20EF324D96E080EF420DA6E6C
:10578800DF50E06F7851E05DE16FE26BD8A0E2078F
:10579800E36BE2BFE307E351E46FE1510601F82749
:1057A8000001E2510601F9230001E3510601FA2341
:1057B8000001E4510601FB23F8C6D2F0F9C6D3F084
:1057C800FAC6D4F0FBC6D5F03C0E0001D66F000E29
:1057D800D76F000ED86F000ED96F7BEC64F0D2C083
:1057E800F8F6D3C0F9F6D4C0FAF6D5C0FBF6000136
:1057F8008151160DE30EF324D96E080EF420DA6EEB
:10580800DE50775DD8A00BEF2CF00DEF2CF033EFC6
:105818002CF08151160DE30EF324D96E080EF420F6
:10582800DA6EDF50E06FE051775DE16FE26BD8A090
:10583800E207E36BE2BFE307E351E46FE1510601DE
:10584800F85F0001E2510601F95B0001E35106012E
:10585800FA5B0001E4510601FB5BBDEF2CF08151BE
:10586800160DE30EF324D96E080EF420DA6EDF501D
:10587800E06F7751E05DE16FE26BD8A0E207E36B80
:10588800E2BFE307E351E46FE1510601F8270001A5
:10589800E2510601F9230001E3510601FA23000150
:1058A800E4510601FB23BDEF2CF08151160DE20EE9
:1058B800F324D96E080EF420DA6E7851DE5CD8B085
:1058C80068EF2CF06AEF2CF0BDEF2CF08151160D2B
:1058D800E20EF324D96E080EF420DA6EDF50E06F82
:1058E800E051785DE16FE26BD8A0E207E36BE2BFBD
:1058F800E307E351E46FE1510601F85F0001E2516B
:105908000601F95B0001E3510601FA5B0001E4516D
:105918000601FB5BF8C6D2F0F9C6D3F0FAC6D4F09C
:10592800FBC6D5F03C0E0001D66F000ED76F000EF7
:10593800D86F000ED96F7BEC64F0D2C0F8F6D3C0F4
:10594800F9F6D4C0FAF6D5C0FBF600018151160D60
:10595800E30EF324D96E080EF420DA6EDE50775D7C
:10596800D8A0B9EF2CF0BBEF2CF033EF2CF00DEFF3
:105978002CF00601F851F911FA11FB11D8B4C7EF50
:105988002CF0C9EF2CF0D4EF2CF0F805F911FA112E
:10599800FB11D8A4D2EF2CF0D4EF2CF0DBEF2CF0D5
:1059A800000E0001696F010E686FFEEF2CF0000118
:1059B8006851E06F6951E16FE26BE36BE0510601FA
:1059C800F85D0001E1510601F9590001E2510601B3
:1059D800FA590001E3510601FB59D8B0F6EF2CF053
:1059E800F8EF2CF0FEEF2CF0F8C668F0F9C669F075
:1059F800FEEF2CF00001812B0B0E816506EF2DF0D8
:105A080008EF2DF05DEF29F08F51D8A40EEF2DF09F
:105A180010EF2DF020EF2DF00601F651D8A417EF66
:105A28002DF019EF2DF020EF2DF0010EF66F000E7E
:105A380000017F6F59EF29F000018F51D8B427EF8B
:105A48002DF029EF2DF089EF2DF08151160DF00E74
:105A5800F324D96E080EF420DA6EDF50D8B437EF8D
:105A68002DF039EF2DF07AEF2DF08151160DE90E5A
:105A7800F324D96E080EF420DA6EDF50D8B447EF5D
:105A88002DF049EF2DF07AEF2DF08151160DE70E2C
:105A9800F324D96E080EF420DA6EDF50E06FE0517F
:105AA800686F696B8151160DEB0EF324D96E080EE1
:105AB800F420DA6E010EDF6E8151020D4B0EF324D5
:105AC800F66EF20EF420F76E0900F5CFDAF00A0050
:105AD800F5CFDBF08151160DDC0EF324DC6F080ED8
