:0400000094EF01F088
:06000800508203EF4BF0F3
:100018005080D8CF1FF0E8CF20F0E0CF21F0D9CF23
:1000280022F0DACF23F0F3CF24F0F4CF25F00E013D
:1000380033AB21EF00F023EF00F03AEF01F08F9699
:10004800339BE30ED46EB00ED36E3F2A0001685185
:100058006911D8B432EF00F034EF00F04FEF00F040
:100068008EAE39EF00F03BEF00F04FEF00F068077D
:10007800D8A069076E51D8B444EF00F046EF00F0FD
:100088004EEF00F0030E6E614CEF00F04EEF00F003
:100098004FEF00F06E2B8EAC54EF00F056EF00F0EF
:1000A80079EF00F0000E836F9451D8A45EEF00F052
:1000B80060EF00F079EF00F00C0E10EC32F0000960
:1000C800D8A469EF00F06BEF00F079EF00F00001C1
:1000D8009451D8A472EF00F074EF00F079EF00F0BB
:1000E8008E9C010E836F79EF00F03D04D8A47FEF5A
:1000F80000F081EF00F092EF00F0000173513F181B
:10010800D8A489EF00F08BEF00F092EF00F0000E1A
:100118003F6E8F8E020E3D6E3AEF01F0020E3D18D3
:10012800D8A499EF00F09BEF00F0ACEF00F00001CD
:1001380070513F18D8A4A3EF00F0A5EF00F0ACEF82
:1001480000F0000E3F6E8F9E030E3D6E3AEF01F0F9
:10015800030E3D18D8A4B3EF00F0B5EF00F0C6EFDA
:1001680000F0000172513F18D8A4BDEF00F0BFEFB6
:1001780000F0C6EF00F0000E3F6E8D84040E3D6E59
:100188003AEF01F0040E3D18D8A4CDEF00F0CFEF00
:1001980000F0E0EF00F0000170513F18D8A4D7EF4D
:1001A80000F0D9EF00F0E0EF00F0000E3F6E8D9404
:1001B800050E3D6E3AEF01F0050E3D18D8A4E7EFA5
:1001C80000F0E9EF00F0FAEF00F0000172513F187B
:1001D800D8A4F1EF00F0F3EF00F0FAEF00F0000E12
:1001E8003F6E8D86060E3D6E3AEF01F0060E3D1805
:1001F800D8A401EF01F003EF01F014EF01F00001C2
:1002080070513F18D8A40BEF01F00DEF01F014EF77
:1002180001F0000E3F6E8D96070E3D6E3AEF01F02D
:10022800070E3D18D8A41BEF01F01DEF01F02DEFCC
:1002380001F000016F513F18D8A425EF01F027EF16
:1002480001F02DEF01F0000E3F6E010E3D6E3AEF0A
:1002580001F0630E3D18D8A434EF01F036EF01F039
:100268003AEF01F0000E3F6E3AEF01F00E0138A1AF
:1002780040EF01F042EF01F047EF01F08F960001E7
:100288007C2B0E01389138A54CEF01F04EEF01F0B0
:1002980084EF01F08F963895F00EC86EDC0EC76EAD
:1002A8003E2A3E50435CD8B05CEF01F05EEF01F0AF
:1002B80078EF01F000019351D8A465EF01F067EFE2
:1002C80001F078EF01F0010E936F000E3E6EC990B9
:1002D8004850D8B472EF01F074EF01F084EF01F0E8
:1002E800010E946F84EF01F000019351D8B47FEFB1
:1002F80001F081EF01F084EF01F0000E3E6EC9902D
:1003080025C0F4FF24C0F3FF23C0DAFF22C0D9FFC1
:1003180021C0E0FF20C0E8FF1FC0D8FF50901000A8
:100328004CEF53F0000E0301FB6F000EFC6F000E44
:10033800FF6F000EFE6F0F0E436E300E00019765C3
:10034800A8EF01F0AAEF01F013EF13F03A0E97614E
:10035800B0EF01F0B2EF01F013EF13F0000E936F5E
:10036800000E826FC980010ED26F030EF5EC68F0A3
:10037800EAEF01F0B80EDA6FFF0EDB6FEBEC66F018
:10038800970E0001DA6F000EDB6F010EDC6F0DECCB
:1003980067F0F70E0001DA6FFE0EDB6FEBEC66F02C
:1003A800010E0001D36FF40ED26F87EC61F00001EB
:1003B8009351D8A4E2EF01F0E4EF01F0EAEF01F085
:1003C800130ED36F880ED26F87EC61F00001935142
:1003D800D8B4F1EF01F0F3EF01F0BEEF01F0000E39
:1003E800D26F0F0EF5EC68F00E013885150E00017E
:1003F800D26F070ED36FF10ED46F010ED56F000EBA
:10040800D76F030ED66FABEC5CF00001D251D3115D
:10041800D8A411EF02F013EF02F002EF13F0970ED9
:10042800D26F000ED36F180ED46F070ED56F000E63
:10043800D76F0A0ED66F11EC62F018EC68F0000E58
:100448000001D26F080ED36F3F0ED46F070ED56F21
:100458003DEC61F0000E0001D26F080ED36FA5ECE1
:1004680065F00009D8B43BEF02F03DEF02F043EF2E
:1004780002F031EC68F066EC3AF056EF02F0C8ECA6
:1004880067F0000E0001D26F050EF5EC68F0070E5C
:100498000001D36FD00ED26F87EC61F01DEF13F01F
:1004A8001DEF13F0AB0E0001D26F000ED36F970E45
:1004B800D46F000ED56F000ED76F0A0ED66FABEC57
:1004C8005CF00001D251D311D8A46DEF02F06FEFA8
:1004D80002F0DFEF11F0970ED26F000ED36FEF0E20
:1004E800D46F020ED56F000ED76F0A0ED66F11ECBF
:1004F80062F0000E0001D26F050ED36FEC0ED46FC0
:10050800010ED56F000ED76F040ED66FABEC5CF002
:100518000001D251D311D8A494EF02F096EF02F063
:10052800A7EF02F0000E826F490E0201FA6FFE0E6D
:10053800FB6FAB0EFC6F000EFD6F000EFE6F1EEC26
:1005480013F01DEF13F0000ED26F050ED36FEE0EF1
:10055800D46F000ED56F000ED76F020ED66FABECBE
:100568005CF00001D251D311D8A4BDEF02F0BFEF67
:1005780002F00AEF03F0030ED26F050ED36FB60E2A
:10058800D46F000ED56F000ED76F060ED66FABEC8A
:100598005CF00001D251D311D8A4D5EF02F0D7EF07
:1005A80002F0F9EF02F0B60ED26F000ED36F0A0E0A
:1005B800D46F050ED56F000ED76F060ED66F11ECEF
:1005C80062F081EC63F0000E0001826FE70E020119
:1005D800FA6FFC0EFB6FAB0EFC6F000EFD6F000E8A
:1005E800FE6F1EEC13F01DEF13F0000E826FDF0E8E
:1005F8000201FA6FFD0EFB6FAB0EFC6F000EFD6F74
:10060800000EFE6F1EEC13F01DEF13F0000ED26FFC
:10061800050ED36FF90ED46F010ED56F000ED76F8C
:10062800030ED66FABEC5CF00001D251D311D8A405
:1006380020EF03F022EF03F0D7EF05F0000E0301DF
:10064800FF6F000EFE6F030E02EC48F00001816F91
:10065800010E0301FD6F060E0001826F000E0001FE
:100668008225D96EDA6A050EDA22DF504AEC68F084
:100678000009D8B442EF03F044EF03F09AEF04F016
:10068800010E00018225D96EDA6A050EDA22200EE3
:10069800DE18D8A452EF03F054EF03F076EF03F01E
:1006A800000E8225D96EDA6A050EDA22000E82253E
:1006B800E16EE26A050EE222E750D00FDF6E000E0F
:1006C80000018225D96EDA6A050EDA22DF500501AB
:1006D800F86FF8510301FE25FE6F000EFF21FF6F32
:1006E800CFEF04F0000E8225D96EDA6A050EDA2201
:1006F800000E8225E16EE26A050EE222E750D00F75
:10070800DF6E000E8225D96EDA6A050EDA22DF5016
:100718000A0D000E8225D96EDA6A050EDA22F3CFA9
:10072800DFFFFEC3D2F0FFC3D3F0000ED56F0A0E71
:10073800D46F8BEC68F0D2C0FEF3D3C0FFF363EF45
:1007480003F000018151160DE00EF324D96E080E56
:10075800F420DA6EFEC3DFFF000E0301FF6F000E08
:10076800FE6FCDEF04F000018151160DE10EF32468
:10077800D96E080EF420DA6EFEC3DFFFB0EF03F087
:1007880000018151160DE20EF324D96E080EF420F3
:10079800DA6EFEC3DFFFB0EF03F000018151160DE2
:1007A800E30EF324D96E080EF420DA6EFEC3DFFFE1
:1007B800B0EF03F000018151160DDC0EF324D96E61
:1007C800080EF420DA6EFEC3DEFFFFC3DDFFB0EFD4
:1007D80003F000018151160DDE0EF324D96E080EC8
:1007E800F420DA6EFEC3DEFFFFC3DDFFB0EF03F0D7
:1007F80000018151160DEA0EF324D96E080EF4207B
:10080800DA6EFEC3DFFFB0EF03F000018151160D71
:10081800EC0EF324D96E080EF420DA6EFEC3DFFF67
:100828008151160DED0EF324D96E080EF420DA6E00
:10083800FEC3DFFFB0EF03F00301FE51ECEC3CF028
:10084800000E0301FF6F000EFE6F00018151160DAF
:10085800E40EF324D96E080EF420DA6E6AC0DFFFC6
:100868008151160DE50EF324D96E080EF420DA6EC8
:1008780074C0DFFF8151160DE60EF324D96E080E01
:10088800F420DA6E75C0DFFF8151160DEE0EF324E9
:10089800D96E080EF420DA6E000EDF6E8151160D47
:1008A800EF0EF324D96E080EF420DA6E010EDF6E17
:1008B8008151160DE70EF324D96E080EF420DA6E76
:1008C800000EDF6E8151160DE80EF324D96E080E66
:1008D800F420DA6E000EDF6E8151160DE90EF32456
:1008E800D96E080EF420DA6E000EDF6E8151160DF7
:1008F800F00EF324D96E080EF420DA6E000EDF6EC7
:100908008151160DEB0EF324D96E080EF420DA6E21
:10091800000EDF6E8151160DF10EF324D96E080E0C
:10092800F420DA6E000EDF6ECDEF04F00301FD5106
:100938000501F86FF96BF951000AD8B4A6EF04F075
:10094800CDEF04F0F851010AD8B4A5EF03F0030A7B
:10095800D8B4B7EF03F0010AD8B4C4EF03F0070A1C
:10096800D8B4D1EF03F0010AD8B4DEEF03F0030ADC
:10097800D8B4EDEF03F0010AD8B4FCEF03F00F0A86
:10098800D8B409EF04F0010AD8B420EF04F0CDEF91
:1009980004F00301FD2B0001822B090E0301FD6504
:1009A800D8EF04F0DAEF04F032EF03F0000E0001A4
:1009B800D36F640ED26F87EC61F000018151020D94
:1009C800830EF324F66EF20EF420F76E0900F5CFCD
:1009D800DAF00A00F5CFDBF08151160DDC0EF324B6
:1009E800DC6F080EF420DD6FA2EC4EF0000E000163
:1009F800D36F640ED26F87EC61F000018151020D54
:100A0800830EF324F66EF20EF420F76E0900F5CF8C
:100A1800DAF00A00F5CFDBF08151160DDC0EF32475
:100A2800DC6F080EF420DD6FEDEC60F0000E0001C5
:100A3800D36F640ED26F87EC61F000018151020D13
:100A4800830EF324F66EF20EF420F76E0900F5CF4C
:100A5800DAF00A00F5CFDBF08151160DDC0EF32435
:100A6800DC6F080EF420DD6F6EEC67F0000E0001FD
:100A7800D36F640ED26F87EC61F000018151020DD3
:100A8800830EF324F66EF20EF420F76E0900F5CF0C
:100A9800DAF00A00F5CFDBF08151160DDC0EF324F5
:100AA800DC6F080EF420DD6F4EEC67F0000E0001DD
:100AB800D36F640ED26F87EC61F000018151020D93
:100AC800830EF324F66EF20EF420F76E0900F5CFCC
:100AD800DAF00A00F5CFDBF08151160DDC0EF324B5
:100AE800DC6F080EF420DD6F2EEC67F0000E0001BD
:100AF800D36F640ED26F87EC61F000018151020D53
:100B0800830EF324F66EF20EF420F76E0900F5CF8B
:100B1800DAF00A00F5CFDBF08151160DDC0EF32474
:100B2800DC6F080EF420DD6F1BEC58F0000E00019E
:100B3800D36F640ED26F87EC61F0090E00018161FA
:100B4800A8EF05F0AAEF05F0B1EF05F0300E976FAA
:100B58008151310F986FC6EF05F0080E8165B7EF28
:100B680005F0B9EF05F0C6EF05F00C0E8161BFEF97
:100B780005F0C1EF05F0C6EF05F0310E976F815112
:100B8800270F986F000E826F730E0201FA6FFB0E2B
:100B9800FB6FAB0EFC6F000EFD6F020EFE6F1EECBE
:100BA80013F01DEF13F0000ED26F050ED36FE70E92
:100BB800D46F010ED56F000ED76F040ED66FABEC55
:100BC8005CF00001D251D311D8A4EDEF05F0EFEF9E
:100BD80005F0A6EF06F0040E02EC48F00001816F64
:100BE8008151160DEE0EF324D96E080EF420DA6E3C
:100BF800DE04D8A402EF06F004EF06F006EF06F0D4
:100C0800010E8D6F8151160DEF0EF324D96E080E6B
:100C1800F420DA6E000EDF6E8151160DF00EF3240B
:100C2800D96E080EF420DA6EDE04D8A41EEF06F0A2
:100C380020EF06F050EF06F08151160DF00EF32468
:100C4800D96E080EF420DA6E000EDF6E000ED36F38
:100C5800640ED26F87EC61F000018151020D830EA2
:100C6800F324F66EF20EF420F76E0900F5CFDAF0F1
:100C78000A00F5CFDBF08151160DDC0EF324DC6F92
:100C8800080EF420DD6F1BEC58F0000E0001D36F46
:100C9800640ED26F87EC61F000018151020D830E62
:100CA800F324F66EF20EF420F76E0900F5CFDAF0B1
:100CB8000A00F5CFDBF08151160DDC0EF324DC6F52
:100CC800080EF420DD6F2EEC67F0000E0001D36FE4
:100CD800640ED26F87EC61F0090E0001816177EF35
:100CE80006F079EF06F080EF06F0300E976F81512D
:100CF800310F986F95EF06F0080E816586EF06F0C4
:100D080088EF06F095EF06F00C0E81618EEF06F085
:100D180090EF06F095EF06F0310E976F8151270F8F
:100D2800986F000E826FCC0E0201FA6FF90EFB6FFE
:100D3800AB0EFC6F000EFD6F020EFE6F1EEC13F083
:100D48001DEF13F0000ED26F050ED36FE80ED46FAF
:100D5800020ED56F000ED76F060ED66FABEC5CF0A7
:100D68000001D251D311D8A4BCEF06F0BEEF06F0B3
:100D7800E3EF08F0000E0301FF6F000EFE6F000E98
:100D8800FD6F060E02EC48F00001816F8151160DCF
:100D9800EF0EF324D96E080EF420DA6EDF50D8A4D3
:100DA800D8EF06F0DAEF06F00FEF07F0090E8161D1
:100DB800E0EF06F0E2EF06F0E9EF06F0300E976F8D
:100DC8008151310F986FFEEF06F0080E8165EFEF45
:100DD80006F0F1EF06F0FEEF06F00C0E8161F7EF7A
:100DE80006F0F9EF06F0FEEF06F0310E976F81512D
:100DF800270F986F000E826FE50E0201FA6FF60E4C
:100E0800FB6FAB0EFC6F000EFD6F020EFE6F1EEC4B
:100E180013F01DEF13F0090E826F000E00018225FA
:100E2800D96EDA6A050EDA22DF504AEC68F000095A
:100E3800D8B421EF07F023EF07F084EF07F0010E95
:100E480000018225D96EDA6A050EDA22200EDE1834
:100E5800D8A431EF07F033EF07F055EF07F0000E95
:100E68008225D96EDA6A050EDA22000E8225E16E35
:100E7800E26A050EE222E750D00FDF6E000E000195
:100E88008225D96EDA6A050EDA22DF500501F86F7D
:100E9800F8510301FE25FE6F000EFF21FF6F6BEF77
:100EA80008F0000E8225D96EDA6A050EDA22000EE5
:100EB8008225E16EE26A050EE222E750D00FDF6E6E
:100EC800000E8225D96EDA6A050EDA22DF500A0D85
:100ED800000E8225D96EDA6A050EDA22F3CFDFFF1B
:100EE800FEC3D2F0FFC3D3F0000ED56F0A0ED46F45
:100EF8008BEC68F0D2C0FEF3D3C0FFF342EF07F0EB
:100F08000301FD2B51EF08F000018151160DE70E8A
:100F1800F324D96E080EF420DA6EFEC3DFFF000E4C
:100F28000301FF6F000EFE6F6BEF08F000018151A7
:100F3800160DE80EF324D96E080EF420DA6EFEC3FF
:100F4800DFFF93EF07F000018151160DE90EF3243E
:100F5800D96E080EF420DA6EFEC3DFFF8151160D3C
:100F6800EB0EF324D96E080EF420DA6E000EDF6E55
:100F78008151160DF10EF324D96E080EF420DA6EA5
:100F8800000EDF6E000E0301FF6F000EFE6F000102
:100F98008151160DE00EF324D96E080EF420DA6E96
:100FA800DF500501F86FF96B00018151160DE70E4E
:100FB800F324D96E080EF420DA6EDF500501FA6FBB
:100FC800FB6B00018151160DE80EF324D96E080E53
:100FD800F420DA6EDF500501FC6FFC51FA27000E91
:100FE800FB23F851FA5DFB51800AFD6FF951800A25
:100FF800FD59D8A002EF08F004EF08F044EF08F01C
:1010080000018151160DF00EF324D96E080EF4205C
:10101800DA6E000EDF6E090E816115EF08F017EF2A
:1010280008F01EEF08F0300E976F8151310F986F5E
:1010380033EF08F0080E816524EF08F026EF08F07A
:1010480033EF08F00C0E81612CEF08F02EEF08F05A
:1010580033EF08F0310E976F8151270F986F000E0C
:10106800826FFE0E0201FA6FF80EFB6FAB0EFC6F7B
:10107800000EFD6F020EFE6F1EEC13F06BEF08F012
:1010880000018151160DF00EF324D96E080EF420DC
:10109800DA6E010EDF6E6BEF08F0FD510501F86F97
:1010A800F96BF951000AD8B45CEF08F06BEF08F05F
:1010B800F851010AD8B488EF07F0030AD8B49AEFB8
:1010C80007F0010AD8B4A7EF07F06BEF08F00001AA
:1010D800822B020E0301FD6574EF08F076EF08F02D
:1010E80011EF07F000018151160DF00EF324D96EAF
:1010F800080EF420DA6EDF50D8B485EF08F087EFD9
:1011080008F01DEF13F0000ED36F640ED26F87EC5A
:1011180061F000018151020D830EF324F66EF20E88
:10112800F420F76E0900F5CFDAF00A00F5CFDBF00E
:101138008151160DDC0EF324DC6F080EF420DD6FF0
:101148001BEC58F0000E0001D36F640ED26F87ECD1
:1011580061F0090E00018161B4EF08F0B6EF08F004
:10116800BDEF08F0300E976F8151310F986FD2EFB5
:1011780008F0080E8165C3EF08F0C5EF08F0D2EF5C
:1011880008F00C0E8161CBEF08F0CDEF08F0D2EF3C
:1011980008F0310E976F8151270F986F000E826FFC
:1011A800210E0201FA6FFC0EFB6FAB0EFC6F000EF6
:1011B800FD6F020EFE6F1EEC13F01DEF13F0000E14
:1011C800D26F050ED36FD20ED46F020ED56F000EFC
:1011D800D76F070ED66FABEC5CF00001D251D3117C
:1011E800D8A4F9EF08F0FBEF08F099EF09F0070E23
:1011F80002EC48F00001816F8151160DEE0EF324C8
:10120800D96E080EF420DA6EDE04D8A40EEF09F0C9
:1012180010EF09F023EF09F08151160DEB0EF324BE
:10122800D96E080EF420DA6E030EDE18D8B41FEF5C
:1012380009F021EF09F023EF09F0010E8D6F8151BC
:10124800160DF00EF324D96E080EF420DA6EDE04C3
:10125800D8A431EF09F033EF09F054EF02F08151CF
:10126800160DF00EF324D96E080EF420DA6E000E77
:10127800DF6E000ED36F640ED26F87EC61F0000151
:101288008151020D830EF324F66EF20EF420F76EF0
:101298000900F5CFDAF00A00F5CFDBF08151160D21
:1012A800DC0EF324DC6F080EF420DD6F1BEC58F025
:1012B800000E0001D36F640ED26F87EC61F0090E47
:1012C800000181616AEF09F06CEF09F073EF09F032
:1012D800300E976F8151310F986F88EF09F0080E23
:1012E800816579EF09F07BEF09F088EF09F00C0EC2
:1012F800816181EF09F083EF09F088EF09F0310E81
:10130800976F8151270F986F000E826FBA0E0201F6
:10131800FA6FFB0EFB6FAB0EFC6F000EFD6F020E3B
:10132800FE6F1EEC13F01DEF13F0000ED26F050ECA
:10133800D36FE10ED46F020ED56F000ED76F060E75
:10134800D66FABEC5CF00001D251D311D8A4AFEF4B
:1013580009F0B1EF09F0A2EF0AF0000E0301FF6FE8
:10136800000EFE6F000EFD6F060E0001826F000E6C
:1013780000018225D96EDA6A050EDA22DF504AECBE
:1013880068F00009D8B4CBEF09F0CDEF09F02EEFE3
:101398000AF0010E00018225D96EDA6A050EDA22FA
:1013A800200EDE18D8A4DBEF09F0DDEF09F0FFEF1F
:1013B80009F0000E8225D96EDA6A050EDA22000ECF
:1013C8008225E16EE26A050EE222E750D00FDF6E59
:1013D800000E00018225D96EDA6A050EDA22DF5086
:1013E8000501F86FF8510301FE25FE6F000EFF217D
:1013F800FF6F75EF0AF0000E8225D96EDA6A050EC6
:10140800DA22000E8225E16EE26A050EE222E7503A
:10141800D00FDF6E000E8225D96EDA6A050EDA2249
:10142800DF500A0D000E8225D96EDA6A050EDA221F
:10143800F3CFDFFFFEC3D2F0FFC3D3F0000ED56FAA
:101448000A0ED46F8BEC68F0D2C0FEF3D3C0FFF362
:10145800ECEF09F00301FD2B53EF0AF0FEC373F024
:10146800000E0301FF6F000EFE6F75EF0AF0FEC35A
:1014780072F034EF0AF0FEC371F034EF0AF0FEC3E5
:1014880070F034EF0AF0FEC36FF0000E0301FF6F37
:10149800000EFE6F010E0001876F75EF0AF0FD5117
:1014A8000501F86FF96BF951000AD8B45EEF0AF03C
:1014B80075EF0AF0F851010AD8B432EF0AF0030ABE
:1014C800D8B43BEF0AF0010AD8B43FEF0AF0070A94
:1014D800D8B443EF0AF0010AD8B447EF0AF075EF21
:1014E8000AF00001822B040E0301FD657EEF0AF06D
:1014F80080EF0AF0BBEF09F0000E0001D36F640E15
:10150800D26F87EC61F0D9EC56F0000E0001D36F72
:10151800640ED26F87EC61F0000E0001826F790EC5
:101528000201FA6FFD0EFB6FAB0EFC6F000EFD6F34
:10153800000EFE6F1EEC13F01DEF13F0000ED26FBD
:10154800050ED36FCA0ED46F020ED56F000ED76F7B
:10155800070ED66FABEC5CF00001D251D311D8A4C2
:10156800B8EF0AF0BAEF0AF0DDEF0AF0000E876F65
:10157800000ED36F640ED26F87EC61F0D9EC56F091
:10158800000E0001D36F640ED26F87EC61F0000E7D
:101598000001826F260E0201FA6FFD0EFB6FAB0E83
:1015A800FC6F000EFD6F000EFE6F1EEC13F01DEFBA
:1015B80013F0000ED26F050ED36FD70ED46F010E45
:1015C800D56F000ED76F050ED66FABEC5CF000013F
:1015D800D251D311D8A4F3EF0AF0F5EF0AF01FEFB8
:1015E8000BF08751D8B4FBEF0AF0FDEF0AF00EEFCD
:1015F8000BF0000E826F5E0E0201FA6FFD0EFB6F9C
:10160800AB0EFC6F000EFD6F080EFE6F1EEC13F0A4
:101618001DEF13F0000E826FC70E0201FA6FFC0E69
:10162800FB6FAB0EFC6F000EFD6F000EFE6F1EEC25
:1016380013F01DEF13F0000ED26F050ED36FDD0E01
:10164800D46F010ED56F000ED76F040ED66FABECBA
:101658005CF00001D251D311D8A435EF0BF037EF6D
:101668000BF020EF0CF0000E0301FF6F000EFE6F71
:10167800000EFD6F050E0001826F000E000182252D
:10168800D96EDA6A050EDA22DF504AEC68F00009F2
:10169800D8B451EF0BF053EF0BF0E5EF0BF0000E61
:1016A80000018225D96EDA6A050EDA22000E82253B
:1016B800E16EE26A050EE222E750D00FDF6E000EFF
:1016C8008225D96EDA6A050EDA22DF500501F86F35
:1016D800F8510301FE6FFF6BFEC3D2F0FFC3D3F0D6
:1016E800000E0001D56F0A0ED46F8BEC68F0D2C0E3
:1016F800FEF3D3C0FFF3010E00018225D96EDA6A2A
:10170800050EDA22010E8225E16EE26A050EE2225A
:10171800E750D00FDF6E010E8225D96EDA6A050E0A
:10172800DA22DF500501F86FF8510301FE25FE6F3C
:10173800000EFF21FF6FFD2BBFEF0BF0FEC379F00A
:10174800000E0301FF6F000EFE6FF7EF0BF0FEC3F4
:101758007AF0A4EF0BF0FEC37BF0A4EF0BF0FEC30E
:1017680078F0A4EF0BF0FEC377F0A4EF0BF0FEC304
:1017780076F0A4EF0BF0FD510501F86FF96BF95104
:10178800000AD8B4CAEF0BF0F7EF0BF0F851010AD2
:10179800D8B4A2EF0BF0030AD8B4ABEF0BF0010AF0
:1017A800D8B4AFEF0BF0070AD8B4B3EF0BF0010AC7
:1017B800D8B4B7EF0BF0030AD8B4BBEF0BF0F7EFD0
:1017C8000BF0000E0001826F430E0201FA6FFD0E4E
:1017D800FB6FAB0EFC6F000EFD6F000EFE6F1EEC74
:1017E80013F01DEF13F0030E00018227050E03010D
:1017F800FD6501EF0CF003EF0CF041EF0BF0060E66
:10180800FD19D8A40AEF0CF00CEF0CF00EEF0CF059
:101818009EEC5EF0000E0001826F880E0201FA6FE6
:10182800FA0EFB6FAB0EFC6F000EFD6F000EFE6F25
:101838001EEC13F01DEF13F0000ED26F050ED36FE0
:10184800E20ED46F010ED56F000ED76F040ED66F5F
:10185800ABEC5CF00001D251D311D8A436EF0CF0F8
:1018680038EF0CF0F2EF0CF03CEC5EF079C0D2F0FF
:101878000001D36B000ED56F0A0ED46FD9EC5DF062
:101888000001D251300F976F79C0E4F0E56B000E7C
:10189800E76F0A0EE66F76EC5DF00001E451300F59
:1018A800986F2F0E996F7AC0D2F0D36B000ED56F58
:1018B8000A0ED46FD9EC5DF00001D251300F9A6F47
:1018C8007AC0E4F0E56B000EE76F0A0EE66F76EC7F
:1018D8005DF00001E451300F9B6F2F0E9C6F7BC0B1
:1018E800D2F0D36B000ED56F0A0ED46FD9EC5DF031
:1018F8000001D251300F9D6F7BC0E4F0E56B000E04
:10190800E76F0A0EE66F76EC5DF00001E451300FE8
:101918009E6F200E9F6F78C0D2F0D36B000ED56FEC
:101928000A0ED46FD9EC5DF00001D251300FA06FD0
:1019380078C0E4F0E56B000EE76F0A0EE66F76EC10
:101948005DF00001E451300FA16F3A0EA26F77C02D
:10195800D2F0D36B000ED56F0A0ED46FD9EC5DF0C0
:101968000001D251300FA36F77C0E4F0E56B000E91
:10197800E76F0A0EE66F76EC5DF00001E451300F78
:10198800A46F3A0EA56F76C0D2F0D36B000ED56F58
:101998000A0ED46FD9EC5DF00001D251300FA66F5A
:1019A80076C0E4F0E56B000EE76F0A0EE66F76ECA2
:1019B8005DF00001E451300FA76F000E826F690ED1
:1019C8000201FA6FFE0EFB6FAB0EFC6F000EFD6F8F
:1019D800030EFE6F1EEC13F01DEF13F0000ED26F16
:1019E800050ED36FC20ED46F020ED56F000ED76FDF
:1019F800070ED66FABEC5CF00001D251D311D8A41E
:101A080008EF0DF00AEF0DF063EF0DF0070E02EC92
:101A180048F00001816F090E816115EF0DF017EF95
:101A28000DF01EEF0DF0300E976F8151310F986F4A
:101A380033EF0DF0080E816524EF0DF026EF0DF061
:101A480033EF0DF00C0E81612CEF0DF02EEF0DF041
:101A580033EF0DF0310E976F8151270F986F000EFD
:101A6800826F8151160DEF0EF324D96E080EF42003
:101A7800DA6EDF50D8B443EF0DF045EF0DF054EFB8
:101A88000DF0780E0201FA6FFE0EFB6FAB0EFC6FC5
:101A9800000EFD6F070EFE6F1EEC13F01DEF13F026
:101AA800020E0201FA6FFB0EFB6FAB0EFC6F000E0D
:101AB800FD6F020EFE6F1EEC13F01DEF13F0000E0B
:101AC800D26F050ED36FEB0ED46F000ED56F000EDC
:101AD800D76F020ED66FABEC5CF00001D251D31178
:101AE800D8A479EF0DF07BEF0DF06AEF0EF08EAE13
:101AF80080EF0DF082EF0DF094EF0DF0000E000175
:101B0800826F9B0E0201FA6FF90EFB6FAB0EFC6F32
:101B1800000EFD6F000EFE6F1EEC13F01DEF13F0AC
:101B2800000E0301FF6F000EFE6F000EFD6F010E29
:101B3800FD6F030E0001826F000E00018225D96E31
:101B4800DA6A050EDA22DF504AEC68F00009D8B4E8
:101B5800B0EF0DF0B2EF0DF024EF0EF0010E000122
:101B68008225D96EDA6A050EDA22200EDE18D8A48C
:101B7800C0EF0DF0C2EF0DF0E4EF0DF0000E82257E
:101B8800D96EDA6A050EDA22000E8225E16EE26A63
:101B9800050EE222E750D00FDF6E000E000182250D
:101BA800D96EDA6A050EDA22DF500501F86FF851AE
:101BB8000301FE25FE6F000EFF21FF6F3DEF0EF0C3
:101BC800000E8225D96EDA6A050EDA22000E822509
:101BD800E16EE26A050EE222E750D00FDF6E000EDA
:101BE8008225D96EDA6A050EDA22DF500A0D000E58
:101BF8008225D96EDA6A050EDA22F3CFDFFFFEC33B
:101C0800D2F0FFC3D3F0000ED56F0A0ED46F8BEC61
:101C180068F0D2C0FEF3D3C0FFF3D1EF0DF0FEC3DE
:101C28006CF0FFC36DF0000E0301FF6F000EFE6F36
:101C38003BEF0EF0FEC3C1F0FFC3C2F017EF0EF08A
:101C48000301FD510501F86FF96BF951000AD8B489
:101C580030EF0EF03BEF0EF0F851010AD8B413EF55
:101C68000EF0030AD8B41EEF0EF03BEF0EF003019E
:101C7800FD2B0001822B020E0301FD6546EF0EF0DD
:101C880048EF0EF0A0EF0DF0000E0001D36F640EC8
:101C9800D26F87EC61F04DEC5BF0000E0001D36F62
:101CA800640ED26F87EC61F0000E0001826F970E10
:101CB8000201FA6FFB0EFB6FAB0EFC6F000EFD6F9F
:101CC800000EFE6F1EEC13F01DEF13F0000ED26F26
:101CD800050ED36FD10ED46F010ED56F000ED76FDE
:101CE800050ED66FABEC5CF00001D251D311D8A42D
:101CF80080EF0EF082EF0EF094EF0EF0000E000170
:101D0800826F2B0E0201FA6FFA0EFB6FAB0EFC6F9F
:101D1800000EFD6F050EFE6F1EEC13F01DEF13F0A5
:101D2800000ED26F050ED36FBA0ED46F020ED56FA8
:101D3800000ED76F070ED66FABEC5CF00001D251E6
:101D4800D311D8A4AAEF0EF0ACEF0EF00AEF0FF003
:101D5800070E02EC48F00001816F000ED36F640E8D
:101D6800D26F87EC61F000018151B4EC2DF0090EBF
:101D780000018161C2EF0EF0C4EF0EF0CBEF0EF060
:101D8800300E976F8151310F986FE0EF0EF0080E0B
:101D98008165D1EF0EF0D3EF0EF0E0EF0EF00C0EF0
:101DA8008161D9EF0EF0DBEF0EF0E0EF0EF0310EAF
:101DB800976F8151270F986F9451D8B4E6EF0EF0C2
:101DC800E8EF0EF0F9EF0EF0000E946FDA0E020154
:101DD800FA6FFA0EFB6FAB0EFC6F000EFD6F020E72
:101DE800FE6F1EEC13F01DEF13F0000E826F5A0EFB
:101DF8000201FA6FFA0EFB6FAB0EFC6F000EFD6F5F
:101E0800060EFE6F1EEC13F01DEF13F0000ED26FDE
:101E1800050ED36FF50ED46F010ED56F000ED76F78
:101E2800030ED66FABEC5CF00001D251D311D8A4ED
:101E380020EF0FF022EF0FF078EF0FF0030E02EC17
:101E480048F00001816F000ED36F640ED26F87ECEB
:101E580061F08EAE32EF0FF034EF0FF036EF0FF087
:101E680082EF0DF0090E000181613DEF0FF03FEFA9
:101E78000FF046EF0FF0300E976F8151310F986FCA
:101E88005BEF0FF0080E81654CEF0FF04EEF0FF08F
:101E98005BEF0FF00C0E816154EF0FF056EF0FF06F
:101EA8005BEF0FF0310E976F8151270F986F130E6C
:101EB800D36F880ED26F87EC61F081C0DFF0010E1E
:101EC800A7EC41F0030E0001D36FE80ED26F87EC48
:101ED80061F04DEC5BF0030E0001D36FE80ED26F9A
:101EE80087EC61F082EF0EF0000ED26F050ED36F13
:101EF800DA0ED46F020ED56F000ED76F060ED66FAE
:101F0800ABEC5CF00001D251D311D8A48EEF0FF0E6
:101F180090EF0FF054EF02F0000E0301FF6F000E78
:101F2800FE6F000EFD6F070E0001826F000E0001AC
:101F38008225D96EDA6A050EDA22DF504AEC68F09B
:101F48000009D8B4AAEF0FF0ACEF0FF028EF10F0AB
:101F5800000E00018225D96EDA6A050EDA22000E1B
:101F68008225E16EE26A050EE222E750D00FDF6EAD
:101F7800000E8225D96EDA6A050EDA22DF500501D5
:101F8800F86FF8510301FE6FFF6BFEC3D2F0FFC379
:101F9800D3F0000E0001D56F0A0ED46F8BEC68F0F9
:101FA800D2C0FEF3D3C0FFF3010E00018225D96E23
:101FB800DA6A050EDA22010E8225E16EE26A050E62
:101FC800E222E750D00FDF6E010E8225D96EDA6A61
:101FD800050EDA22DF500501F86FF8510301FE25DE
:101FE800FE6F000EFF21FF6FFD2B0EEF10F0FEC3FA
:101FF800FBF3000E0301FF6F000EFE6F28EF10F0D9
:10200800FEC3FCF3FDEF0FF00301FE51ECEC3CF0D6
:10201800FDEF0FF0FD510501F86FF96BF951000A5A
:10202800D8B419EF10F028EF10F0F851010AD8B41D
:10203800FBEF0FF0030AD8B404EF10F0010AD8B48C
:1020480008EF10F028EF10F0030E00018227020EAF
:102058000301FD6532EF10F034EF10F09AEF0FF046
:10206800000E0001816FC6EF11F08151160DE00ED0
:10207800F324D96E080EF420DA6E0F0EDF6E81514C
:10208800160DE10EF324D96E080EF420DA6E010E57
:10209800DF6E8151160DE20EF324D96E080EF4207E
:1020A800DA6EFBC3DFFF8151160DE30EF324D96E00
:1020B800080EF420DA6EFCC3DFFF8151160DE40E22
:1020C800F324D96E080EF420DA6E6AC0DFFF81515E
:1020D800160DE50EF324D96E080EF420DA6E74C0DE
:1020E800DFFF8151160DE60EF324D96E080EF42099
:1020F800DA6E75C0DFFF8151160DDC0EF324D96E40
:10210800080EF420DA6E640EDE6E000EDD6E81516C
:10211800160DDE0EF324D96E080EF420DA6E300E9A
:10212800DE6E750EDD6E8151160DEA0EF324D96E42
:10213800080EF420DA6E8129DF6E8151160DEE0E3D
:10214800F324D96E080EF420DA6E000EDF6E81518A
:10215800160DEC0EF324D96E080EF420DA6E020E7A
:10216800DF6E8151160DED0EF324D96E080EF420A2
:10217800DA6E020EDF6E8151160DEF0EF324D96E62
:10218800080EF420DA6E010EDF6E8151160DE70E8F
:10219800F324D96E080EF420DA6E050EDF6E815135
:1021A800160DE80EF324D96E080EF420DA6E0F0E21
:1021B800DF6E8151160DE90EF324D96E080EF42056
:1021C800DA6E8129DF6E8151160DEB0EF324D96E7C
:1021D800080EF420DA6E000EDF6E8151160DF10E36
:1021E800F324D96E080EF420DA6E000EDF6E8151EA
:1021F800160DF00EF324D96E080EF420DA6E010ED7
:10220800DF6E8151020D830EF324F66EF20EF42078
:10221800F76E0900F5CFDAF00A00F5CFDBF081514F
:10222800160DDC0EF324DC6F080EF420DD6FA2EC33
:102238004EF0000E0001D36F640ED26F87EC61F090
:1022480000018151020D830EF324F66EF20EF42084
:10225800F76E0900F5CFDAF00A00F5CFDBF081510F
:10226800160DDC0EF324DC6F080EF420DD6FEDECA8
:1022780060F0000E0001D36F640ED26F87EC61F03E
:1022880000018151020D830EF324F66EF20EF42044
:10229800F76E0900F5CFDAF00A00F5CFDBF08151CF
:1022A800160DDC0EF324DC6F080EF420DD6F6EECE7
:1022B80067F0000E0001D36F640ED26F87EC61F0F7
:1022C80000018151020D830EF324F66EF20EF42004
:1022D800F76E0900F5CFDAF00A00F5CFDBF081518F
:1022E800160DDC0EF324DC6F080EF420DD6F4EECC7
:1022F80067F0000E0001D36F640ED26F87EC61F0B7
:1023080000018151020D830EF324F66EF20EF420C3
:10231800F76E0900F5CFDAF00A00F5CFDBF081514E
:10232800160DDC0EF324DC6F080EF420DD6F2EECA6
:1023380067F0000E0001D36F640ED26F87EC61F076
:1023480000018151020D830EF324F66EF20EF42083
:10235800F76E0900F5CFDAF00A00F5CFDBF081510E
:10236800160DDC0EF324DC6F080EF420DD6F1BEC79
:1023780058F0000E0001D36F640ED26F87EC61F045
:102388000001812B0B0E8165CCEF11F0CEEF11F01F
:1023980039EF10F0000E826F360E0201FA6FFE0E52
:1023A800FB6FAB0EFC6F000EFD6F000EFE6F1EEC98
:1023B80013F01DEF13F0000ED26F050ED36FEE0E63
:1023C800D46F000ED56F000ED76F020ED66FABEC30
:1023D8005CF00001D251D311D8A4F5EF11F0F7EF5A
:1023E80011F0A9EF12F0030ED26F050ED36FB60EDF
:1023F800D46F000ED56F000ED76F060ED66FABECFC
:102408005CF00001D251D311D8A40DEF12F00FEFF8
:1024180012F089EF12F09651D8B415EF12F017EFB9
:1024280012F026EF12F0000E826F360E0201FA6FDC
:10243800F90EFB6FAB0EFC6F000EFD6F010EFE6F09
:102448001EEC13F0B60E0001D26F000ED36F0A0E09
:10245800D46F050ED56F000ED76F060ED66F11EC30
:1024680062F0AB0E0001D26F000ED36F970ED46FDF
:10247800000ED56F000ED76F0A0ED66F11EC62F002
:10248800010E0001966F970ED26F000ED36FEF0EFC
:10249800D46F020ED56F000ED76F0A0ED66F11ECEF
:1024A80062F0000E0001D36F320ED26F87EC61F03C
:1024B80081EC63F0000E0001D36F320ED26F87EC0F
:1024C80061F0BAEC63F0000E0001D36F320ED26FE8
:1024D80087EC61F0ABEC67F0000E0001D36F320EB1
:1024E800D26F87EC61F0000E0001826FF60E0201D8
:1024F800FA6FFD0EFB6FAB0EFC6F000EFD6F000E4A
:10250800FE6F1EEC13F01DEF13F0000E826FDF0E4E
:102518000201FA6FFD0EFB6F970EFC6F000EFD6F48
:10252800000EFE6F1EEC13F0970E0001D26F000E26
:10253800D36FEF0ED46F020ED56F000ED76F0A0E51
:10254800D66F11EC62F01DEF13F0000ED26F050E7E
:10255800D36FEC0ED46F010ED56F000ED76F040E3B
:10256800D66FABEC5CF00001D251D311D8A4BFEF09
:1025780012F0C1EF12F0D2EF12F0000E826F0D0EC2
:102588000201FA6FFE0EFB6F970EFC6F000EFD6FD7
:10259800000EFE6F1EEC13F098EF12F0000ED26FD3
:1025A800050ED36FF20ED46F040ED56F000ED76FE1
:1025B8000B0ED66FABEC5CF00001D251D311D8A44E
:1025C800E8EF12F0EAEF12F0FBEF12F0000E826F64
:1025D8005A0E0201FA6FFE0EFB6F970EFC6F000E8B
:1025E800FD6F040EFE6F1EEC13F098EF12F0000E54
:1025F800D26F060EF5EC68F04BEF02F0C8EC67F00E
:10260800000E0001D26F070EF5EC68F0030E000112
:10261800D36FE80ED26F87EC61F01DEF13F0C8ECB2
:1026280067F0000E0001D26F080EF5EC68F04BEF72
:1026380002F012000F0E436E8A0E0001DA6FFF0ED1
:10264800DB6FEBEC66F0000E0001D36F320ED26F39
:1026580087EC61F0FCC2DAF0FDC2DBF00A0E000183
:10266800DC6F0DEC67F0000E0001D36F320ED26FF5
:1026780087EC61F0F60E0001DA6FFE0EDB6FEBEC13
:1026880066F0000E0001D36F640ED26F87EC61F024
:10269800FAC2DAF0FBC2DBF0EBEC66F0000E0001E8
:1026A800D36F640ED26F87EC61F0A0EF1CF0970E29
:1026B8000001DA6F000EDB6F0A0EDC6F0DEC67F0BD
:1026C800000E0001D36F640ED26F87EC61F0CFEF7C
:1026D8001CF0970E0001DA6F000EDB6F020EDC6F44
:1026E8000DEC67F064EF13F0970E0001DA6F000E3F
:1026F800DB6F110EDC6F0DEC67F064EF13F0490E21
:102708000001DA6F000EDB6F060EDC6F0DEC67F070
:1027180064EF13F06CC064F06DC065F064C0D8F06D
:1027280065C0D9F0030E0001DB6FE80EDA6FD4EC58
:1027380062F00001D851300FA56F64C0D2F065C0B7
:10274800D3F0030ED56FE80ED46F98EC64F0D2C0C6
:1027580064F0D3C065F064C0D8F065C0D9F0000E4D
:102768000001DB6F640EDA6FD4EC62F00001D8511F
:10277800300FA66F64C0D2F065C0D3F0000ED56FDD
:10278800640ED46F98EC64F0D2C064F0D3C065F0E6
:1027980064C0D8F065C0D9F0000E0001DB6F0A0EE6
:1027A800DA6FD4EC62F00001D851300FA76F64C023
:1027B800D2F065C0D3F0000ED56F0A0ED46F98EC36
:1027C80064F0D2C064F0D3C065F000016451300FEA
:1027D800A86FA50EDA6F000EDB6F040EDC6F0DEC30
:1027E80067F0000E0001D36F320ED26F87EC61F0F4
:1027F800DE0E0001DA6FFF0EDB6FEBEC66F0000E09
:102808000001D36F320ED26F87EC61F0C1C064F063
:10281800C2C065F064C0D8F065C0D9F0030E0001ED
:10282800DB6FE80EDA6FD4EC62F00001D851300F9C
:10283800A56F64C0D2F065C0D3F0030ED56FE80E63
:10284800D46F98EC64F0D2C064F0D3C065F064C073
:10285800D8F065C0D9F0000E0001DB6F640EDA6FA6
:10286800D4EC62F00001D851300FA66F64C0D2F0EA
:1028780065C0D3F0000ED56F640ED46F98EC64F089
:10288800D2C064F0D3C065F064C0D8F065C0D9F098
:10289800000E0001DB6F0A0EDA6FD4EC62F0000163
:1028A800D851300FA76F64C0D2F065C0D3F0000EC6
:1028B800D56F0A0ED46F98EC64F0D2C064F0D3C020
:1028C80065F000016451300FA86FA50EDA6F000E95
:1028D800DB6F040EDC6F0DEC67F064EF13F0970EFE
:1028E8000001DA6F000EDB6F020EDC6F0DEC67F093
:1028F800000E0001D36F320ED26F87EC61F0F60E36
:102908000001DA6FFF0EDB6FEBEC66F0000E0001E2
:10291800D36F320ED26F87EC61F060C064F061C093
:1029280065F064C0D8F065C0D9F0270E0001DB6FF0
:10293800100EDA6FD4EC62F00001D851300FA56F99
:1029480064C0D2F065C0D3F0270ED56F100ED46FD7
:1029580098EC64F0D2C064F0D3C065F064C0D8F0DD
:1029680065C0D9F0030E0001DB6FE80EDA6FD4EC16
:1029780062F00001D851300FA66F64C0D2F065C074
:10298800D3F0030ED56FE80ED46F98EC64F0D2C084
:1029980064F0D3C065F064C0D8F065C0D9F0000E0B
:1029A8000001DB6F640EDA6FD4EC62F00001D851DD
:1029B800300FA76F64C0D2F065C0D3F0000ED56F9A
:1029C800640ED46F98EC64F0D2C064F0D3C065F0A4
:1029D80064C0D8F065C0D9F0000E0001DB6F0A0EA4
:1029E800DA6FD4EC62F00001D851300FA86F64C0E0
:1029F800D2F065C0D3F0000ED56F0A0ED46F98ECF4
:102A080064F0D2C064F0D3C065F000016451300FA7
:102A1800A96FA50EDA6F000EDB6F050EDC6F0DECEB
:102A280067F064EF13F0000E0001D36F0A0ED26F47
:102A380087EC61F0970E0001DA6F000EDB6F020E73
:102A4800DC6F0DEC67F0000E0001D36F0A0ED26F39
:102A580087EC61F0C10E0001DA6FFF0EDB6FEBEC63
:102A680066F0000E0001D36F0A0ED26F87EC61F09A
:102A780000018151160DE00EF324D96E080EF420E2
:102A8800DA6EDF50986F98C0D2F0D36B000ED56F16
:102A9800640ED46FD9EC5DF00001D251300F976FFE
:102AA800970EDA6F000EDB6F010EDC6F0DEC67F02E
:102AB800000E0001D36F0A0ED26F87EC61F098C048
:102AC800E4F00001E56B000EE76F640EE66F76EC4C
:102AD8005DF00001E451986F98C0D2F0D36B000EFE
:102AE800D56F0A0ED46FD9EC5DF00001D251300FCA
:102AF800976F970EDA6F000EDB6F010EDC6F0DEC2F
:102B080067F0000E0001D36F0A0ED26F87EC61F0F8
:102B180098C0E4F00001E56B000EE76F0A0EE66F5F
:102B280076EC5DF00001E451986F9851300F976F83
:102B3800970EDA6F000EDB6F010EDC6F0DEC67F09D
:102B4800000E0001D36F0A0ED26F87EC61F0AF0E52
:102B58000001DA6FFF0EDB6FEBEC66F0000E000190
:102B6800D36F0A0ED26F87EC61F000018151160D08
:102B7800E10EF324D96E080EF420DA6EDF50986F58
:102B880098C0E4F0E56B000EE76F640EE66F76EC34
:102B98005DF00001E451986F98C0D2F0D36B000E3D
:102BA800D56F0A0ED46FD9EC5DF00001D251300F09
:102BB800976F970EDA6F000EDB6F010EDC6F0DEC6E
:102BC80067F0000E0001D36F0A0ED26F87EC61F038
:102BD80098C0E4F00001E56B000EE76F0A0EE66F9F
:102BE80076EC5DF00001E451986F9851300F976FC3
:102BF800970EDA6F000EDB6F010EDC6F0DEC67F0DD
:102C0800000E0001D36F0A0ED26F87EC61F0F00E50
:102C18000001DA6FFF0EDB6FEBEC66F0000E0001CF
:102C2800D36F0A0ED26F87EC61F000018151160D47
:102C3800DC0EF324D96E080EF420DA6EDECF64F0D1
:102C4800DDCF65F064C0D8F065C0D9F0000EDB6F49
:102C5800640EDA6FD4EC62F00001D851300F976F30
:102C6800970EDA6F000EDB6F010EDC6F0DEC67F06C
:102C7800000E0001D36F0A0ED26F87EC61F064C0BA
:102C8800D2F065C0D3F0000E0001D56F640ED46F8A
:102C980098EC64F0D2C064F0D3C065F064C0D8F09A
:102CA80065C0D9F0000E0001DB6F0A0EDA6FD4ECB4
:102CB80062F00001D851300F976F970EDA6F000E4F
:102CC800DB6F010EDC6F0DEC67F0000E0001D36FB7
:102CD8000A0ED26F87EC61F064C0D2F065C0D3F001
:102CE800000E0001D56F0A0ED46F98EC64F0D2C0C4
:102CF80064F0D3C065F000016451300F976F970EF0
:102D0800DA6F000EDB6F010EDC6F0DEC67F0000E62
:102D18000001D36F0A0ED26F87EC61F0EA0E000152
:102D2800DA6FFF0EDB6FEBEC66F0000E0001D36F7D
:102D38000A0ED26F87EC61F000018151160DDE0E8C
:102D4800F324D96E080EF420DA6EDECF64F0DDCFFE
:102D580065F064C0D8F065C0D9F0000EDB6F640E72
:102D6800DA6FD4EC62F00001D851300F976F970EEC
:102D7800DA6F000EDB6F010EDC6F0DEC67F0000EF2
:102D88000001D36F0A0ED26F87EC61F064C0D2F0F5
:102D980065C0D3F0000E0001D56F640ED46F98ECB7
:102DA80064F0D2C064F0D3C065F064C0D8F065C0E8
:102DB800D9F0000E0001DB6F0A0EDA6FD4EC62F076
:102DC8000001D851300F976F970EDA6F000EDB6F46
:102DD800010EDC6F0DEC67F0000E0001D36F0A0ED8
:102DE800D26F87EC61F064C0D2F065C0D3F0000EFA
:102DF8000001D56F0A0ED46F98EC64F0D2C064F06D
:102E0800D3C065F000016451300F976F970EDA6FE9
:102E1800000EDB6F010EDC6F0DEC67F0000E000199
:102E2800D36F0A0ED26F87EC61F0740E0001DA6F6F
:102E3800FF0EDB6FEBEC66F0000E0001D36F0A0E9D
:102E4800D26F87EC61F000018151160DE40EF32476
:102E5800D96E080EF420DA6EDF50986F98C0E4F04F
:102E6800E56B000EE76F640EE66F76EC5DF000012F
:102E7800E451986F98C0D2F0D36B000ED56F0A0E4C
:102E8800D46FD9EC5DF00001D251300F976F970ED7
:102E9800DA6F000EDB6F010EDC6F0DEC67F0000ED1
:102EA8000001D36F0A0ED26F87EC61F098C0E4F08E
:102EB8000001E56B000EE76F0A0EE66F76EC5DF039
:102EC8000001E451986F9851300F976F970EDA6FA1
:102ED800000EDB6F010EDC6F0DEC67F0000E0001D9
:102EE800D36F0A0ED26F87EC61F000018151160D85
:102EF800E50EF324D96E080EF420DA6EDF50986FD1
:102F080098C0E4F0E56B000EE76F640EE66F76ECB0
:102F18005DF00001E451986F98C0D2F0D36B000EB9
:102F2800D56F0A0ED46FD9EC5DF00001D251300F85
:102F3800976F970EDA6F000EDB6F010EDC6F0DECEA
:102F480067F0000E0001D36F0A0ED26F87EC61F0B4
:102F580098C0E4F00001E56B000EE76F0A0EE66F1B
:102F680076EC5DF00001E451986F9851300F976F3F
:102F7800970EDA6F000EDB6F010EDC6F0DEC67F059
:102F8800000E0001D36F0A0ED26F87EC61F00001CA
:102F98008151160DE60EF324D96E080EF420DA6E70
:102FA800DF50986F98C0E4F0E56B000EE76F640E91
:102FB800E66F76EC5DF00001E451986F98C0D2F0AE
:102FC800D36B000ED56F0A0ED46FD9EC5DF00001FB
:102FD800D251300F976F970EDA6F000EDB6F010E2C
:102FE800DC6F0DEC67F0000E0001D36F0A0ED26F94
:102FF80087EC61F098C0E4F00001E56B000EE76F24
:103008000A0EE66F76EC5DF00001E451986F985176
:10301800300F976F970EDA6F000EDB6F010EDC6FC3
:103028000DEC67F0000E0001D36F0A0ED26F87EC2B
:1030380061F0FB0E0001DA6FFF0EDB6FEBEC66F060
:10304800000E0001D36F0A0ED26F87EC61F0000109
:103058008151160DE20EF324D96E080EF420DA6EB3
:10306800DF50986F98C0E4F0E56B000EE76F640ED0
:10307800E66F76EC5DF00001E451986F98C0D2F0ED
:10308800D36B000ED56F0A0ED46FD9EC5DF000013A
:10309800D251300F976F970EDA6F000EDB6F010E6B
:1030A800DC6F0DEC67F0000E0001D36F0A0ED26FD3
:1030B80087EC61F098C0E4F00001E56B000EE76F63
:1030C8000A0EE66F76EC5DF00001E451986F9851B6
:1030D800300F976F970EDA6F000EDB6F010EDC6F03
:1030E8000DEC67F0000E0001D36F0A0ED26F87EC6B
:1030F80061F0B60E0001DA6FFF0EDB6FEBEC66F0E5
:10310800000E0001D36F0A0ED26F87EC61F0000148
:103118008151160DE30EF324D96E080EF420DA6EF1
:10312800DF50986F98C0E4F0E56B000EE76F640E0F
:10313800E66F76EC5DF00001E451986F98C0D2F02C
:10314800D36B000ED56F0A0ED46FD9EC5DF0000179
:10315800D251300F976F970EDA6F000EDB6F010EAA
:10316800DC6F0DEC67F0000E0001D36F0A0ED26F12
:1031780087EC61F098C0E4F00001E56B000EE76FA2
:103188000A0EE66F76EC5DF00001E451986F9851F5
:10319800300F976F970EDA6F000EDB6F010EDC6F42
:1031A8000DEC67F0000E0001D36F0A0ED26F87ECAA
:1031B80061F0F70E0001DA6FFE0EDB6FEBEC66F0E4
:1031C80000018151160DF00EF324D96E080EF4207B
:1031D800DA6EDF50D8B4F3EF18F0F5EF18F074EFAB
:1031E8001AF0870EDA6FFE0EDB6FEBEC66F0000E5E
:1031F8000001D36F0A0ED26F87EC61F00001815194
:10320800160DE70EF324D96E080EF420DA6EDF509F
:10321800986F98C0D2F0D36B000ED56F640ED46F40
:10322800D9EC5DF00001D251300F976F970EDA6F2D
:10323800000EDB6F010EDC6F0DEC67F0000E000175
:10324800D36F0A0ED26F87EC61F098C0E4F00001EA
:10325800E56B000EE76F640EE66F76EC5DF000013B
:10326800E451986F98C0D2F0D36B000ED56F0A0E58
:10327800D46FD9EC5DF00001D251300F976F970EE3
:10328800DA6F000EDB6F010EDC6F0DEC67F0000EDD
:103298000001D36F0A0ED26F87EC61F098C0E4F09A
:1032A8000001E56B000EE76F0A0EE66F76EC5DF045
:1032B8000001E451986F9851300F976F970EDA6FAD
:1032C800000EDB6F010EDC6F0DEC67F0000E0001E5
:1032D800D36F0A0ED26F87EC61F0C10E0001DA6F6E
:1032E800FF0EDB6FEBEC66F0000E0001D36F0A0EE9
:1032F800D26F87EC61F000018151160DE80EF324BE
:10330800D96E080EF420DA6EDF50986F98C0D2F0AC
:10331800D36B000ED56F640ED46FD9EC5DF000014D
:10332800D251300F976F970EDA6F000EDB6F010ED8
:10333800DC6F0DEC67F0000E0001D36F0A0ED26F40
:1033480087EC61F098C0E4F00001E56B000EE76FD0
:10335800640EE66F76EC5DF00001E451986F98C05A
:10336800D2F0D36B000ED56F0A0ED46FD9EC5DF096
:103378000001D251300F976F970EDA6F000EDB6F96
:10338800010EDC6F0DEC67F0000E0001D36F0A0E22
:10339800D26F87EC61F098C0E4F00001E56B000E95
:1033A800E76F0A0EE66F76EC5DF00001E451986F66
:1033B8009851300F976F970EDA6F000EDB6F010E82
:1033C800DC6F0DEC67F0000E0001D36F0A0ED26FB0
:1033D80087EC61F0470E0001DA6FFF0EDB6FEBEC54
:1033E80066F0000E0001D36F0A0ED26F87EC61F011
:1033F80000018151160DE90EF324D96E080EF42050
:10340800DA6EDF50986F98C0D2F0D36B000ED56F8C
:10341800640ED46FD9EC5DF00001D251300F976F74
:10342800970EDA6F000EDB6F010EDC6F0DEC67F0A4
:10343800000E0001D36F0A0ED26F87EC61F098C0BE
:10344800E4F00001E56B000EE76F640EE66F76ECC2
:103458005DF00001E451986F98C0D2F0D36B000E74
:10346800D56F0A0ED46FD9EC5DF00001D251300F40
:10347800976F970EDA6F000EDB6F010EDC6F0DECA5
:1034880067F0000E0001D36F0A0ED26F87EC61F06F
:1034980098C0E4F00001E56B000EE76F0A0EE66FD6
:1034A80076EC5DF00001E451986F9851300F976FFA
:1034B800970EDA6F000EDB6F010EDC6F0DEC67F014
:1034C800000E0001D36F0A0ED26F87EC61F0F70E81
:1034D8000001DA6FFE0EDB6FEBEC66F0CFEF1CF04D
:1034E800A70EDA6FFE0EDB6FEBEC66F0000E000144
:1034F800D36F0A0ED26F87EC61F0CFEF1CF0000E8D
:103508000001D36F0A0ED26F87EC61F05E0E0001E6
:10351800DA6FFF0EDB6FEBEC66F0000E0001D36F85
:103528000A0ED26F87EC61F073C098F098C0E4F08F
:103538000001E56B000EE76F640EE66F76EC5DF058
:103548000001E451986F98C0D2F0D36B000ED56F8C
:103558000A0ED46FD9EC5DF00001D251300F976F8D
:10356800970EDA6F000EDB6F010EDC6F0DEC67F063
:10357800000E0001D36F0A0ED26F87EC61F098C07D
:10358800E4F00001E56B000EE76F0A0EE66F76ECDB
:103598005DF00001E451986F9851300F976F970EC6
:1035A800DA6F000EDB6F010EDC6F0DEC67F0000EBA
:1035B8000001D36F0A0ED26F87EC61F0D70E0001BD
:1035C800DA6FFF0EDB6FEBEC66F0000E0001D36FD5
:1035D8000A0ED26F87EC61F09D0E0001DA6FFF0EC4
:1035E800DB6FEBEC66F0000E0001D36F0A0ED26FB2
:1035F80087EC61F072C098F098C0E4F00001E56BC8
:10360800000EE76F640EE66F76EC5DF00001E451A2
:10361800986F98C0D2F0D36B000ED56F0A0ED46F96
:10362800D9EC5DF00001D251300F976F970EDA6F29
:10363800000EDB6F010EDC6F0DEC67F0000E000171
:10364800D36F0A0ED26F87EC61F098C0E4F00001E6
:10365800E56B000EE76F0A0EE66F76EC5DF0000191
:10366800E451986F9851300F976F970EDA6F000EEC
:10367800DB6F010EDC6F0DEC67F0000E0001D36FFD
:103688000A0ED26F87EC61F0D70E0001DA6FFF0ED9
:10369800DB6FEBEC66F0000E0001D36F0A0ED26F01
:1036A80087EC61F0A60E0001DA6FFF0EDB6FEBEC22
:1036B80066F0000E0001D36F0A0ED26F87EC61F03E
:1036C80071C098F098C0E4F00001E56B000EE76F58
:1036D800640EE66F76EC5DF00001E451986F98C0D7
:1036E800D2F0D36B000ED56F0A0ED46FD9EC5DF013
:1036F8000001D251300F976F970EDA6F000EDB6F13
:10370800010EDC6F0DEC67F0000E0001D36F0A0E9E
:10371800D26F87EC61F098C0E4F00001E56B000E11
:10372800E76F0A0EE66F76EC5DF00001E451986FE2
:103738009851300F976F970EDA6F000EDB6F010EFE
:10374800DC6F0DEC67F0000E0001D36F0A0ED26F2C
:1037580087EC61F0E40E0001DA6FFF0EDB6FEBEC33
:1037680066F0000E0001D36F0A0ED26F87EC61F08D
:10377800690E0001DA6FFF0EDB6FEBEC66F0000EEE
:103788000001D36F0A0ED26F87EC61F070C098F019
:1037980098C0E4F00001E56B000EE76F640EE66F79
:1037A80076EC5DF00001E451986F98C0D2F0D36BCD
:1037B800000ED56F0A0ED46FD9EC5DF00001D2511E
:1037C800300F976F970EDA6F000EDB6F010EDC6F0C
:1037D8000DEC67F0000E0001D36F0A0ED26F87EC74
:1037E80061F098C0E4F00001E56B000EE76F0A0E87
:1037F800E66F76EC5DF00001E451986F9851300F58
:10380800976F970EDA6F000EDB6F010EDC6F0DEC11
:1038180067F0000E0001D36F0A0ED26F87EC61F0DB
:10382800D70E0001DA6FFF0EDB6FEBEC66F0000ECF
:103838000001D36F0A0ED26F87EC61F0D80E000139
:10384800DA6FFE0EDB6FEBEC66F0000E0001D36F53
:103858000A0ED26F87EC61F06FC098F098C0D2F072
:103868000001D36B000ED56F640ED46FD9EC5DF0F8
:103878000001D251300F976F970EDA6F000EDB6F91
:10388800010EDC6F0DEC67F0000E0001D36F0A0E1D
:10389800D26F87EC61F098C0E4F00001E56B000E90
:1038A800E76F640EE66F76EC5DF00001E451986F07
:1038B80098C0D2F0D36B000ED56F0A0ED46FD9EC36
:1038C8005DF00001D251300F976F970EDA6F000E3E
:1038D800DB6F010EDC6F0DEC67F0000E0001D36F9B
:1038E8000A0ED26F87EC61F098C0E4F00001E56B36
:1038F800000EE76F0A0EE66F76EC5DF00001E4510A
:10390800986F9851300F976F970EDA6F000EDB6F34
:10391800010EDC6F0DEC67F0000E0001D36F0A0E8C
:10392800D26F87EC61F0E40E0001DA6FFF0EDB6FF7
:10393800EBEC66F07AEF1AF00201FE510301F96F21
:10394800FA6BFA51000AD8B4ACEF1CF0CFEF1CF0B8
:10395800F951010AD8B45BEF13F0030AD8B46DEF3C
:1039680013F0010AD8B478EF13F0070AD8B483EF3C
:1039780013F0010AD8B48EEF13F0030AD8B473EF2A
:1039880014F0010AD8B417EF15F00F0AD8B483EF72
:103998001AF0CFEF1CF0000E0001936F000E826F3B
:1039A8001A0EDCEC68F0000E0001D36F640ED26FC3
:1039B80087EC61F0000E0001D26F000EF5EC68F0A4
:1039C800C98000019351D8B4ECEF1CF0EEEF1CF065
:1039D800E5EF1CF00E013885000E0001D26F0F0EC6
:1039E800F5EC68F0010E0001D36FF40ED26F87EC8E
:1039F80061F01200000E0501FE6FD7A206EF1DF060
:103A080008EF1DF032EF1DF0D7A40DEF1DF00FEFFA
:103A18001DF032EF1DF0D7A614EF1DF016EF1DF0C4
:103A280032EF1DF0D7A01BEF1DF01DEF1DF032EF98
:103A38001DF0D7A822EF1DF024EF1DF032EF1DF086
:103A4800D7BE29EF1DF02BEF1DF032EF1DF0D7ACDC
:103A580030EF1DF032EF1DF070EF20F0D7A237EFF6
:103A68001DF039EF1DF040EF1DF0D7B03EEF1DF00F
:103A780040EF1DF045EF1DF0D786D784D788D79E35
:103A8800D79CD7B24AEF1DF04CEF1DF051EF1DF057
:103A9800010EFE6FD78295EF1DF0D7B056EF1DF0DF
:103AA80058EF1DF05DEF1DF0020EFE6FD78095EF09
:103AB8001DF0D7B662EF1DF064EF1DF069EF1DF041
:103AC800030EFE6FD78695EF1DF0D7B46EEF1DF08D
:103AD80070EF1DF075EF1DF0040EFE6FD78495EFA3
:103AE8001DF0D7B87AEF1DF07CEF1DF081EF1DF0C7
:103AF800050EFE6FD78895EF1DF0D7BE86EF1DF037
:103B080088EF1DF08FEF1DF0D7AC8DEF1DF08FEF14
:103B18001DF095EF1DF0060EFE6FD79ED79C95EF12
:103B28001DF0030EFE19D8B49CEF1DF09EEF1DF09A
:103B3800A5EF1DF0750E0001D36F300ED26F87EC24
:103B480061F011EC54F0030E0001D36FE80ED26F50
:103B580087EC61F0FAEC45F0030E0001D36FE80E34
:103B6800D26F87EC61F0D3EC54F0030E0001D36FF1
:103B7800E80ED26F87EC61F082EC55F0030E00017D
:103B8800D36FE80ED26F87EC61F000018651D8A49C
:103B9800D0EF1DF0D2EF1DF0DAEF1DF0010E866FA9
:103BA800F6EC5EF00FEC63F03BEC66F0030E0501FB
:103BB800FE19D8A4E2EF1DF0E4EF1DF06EEF20F03F
:103BC800000E0001816F04EF1EF0010ED26F000E8F
:103BD800F5EC68F0010E0001D36FF40ED26F87EC9C
:103BE80061F0010E0001D26F0F0EF5EC68F0010EC6
:103BF8000001D36FF40ED26F87EC61F00001812BC6
:103C0800050E81610AEF1EF00CEF1EF014EF1EF096
:103C18008051D8B412EF1EF014EF1EF0E9EF1DF03A
:103C28008051D8A41AEF1EF01CEF1EF03CEF20F0D4
:103C3800010E816F090E816524EF1EF026EF1EF03C
:103C480028EF1EF03CEF1EF0802B17EC66F0010EFB
:103C58000001D26F8151F5EC68F0270E0001D36F97
:103C6800100ED26F87EC61F00001812B1EEF1EF061
:103C7800000E0001806F17EC66F06EEF20F0000E6A
:103C88000001806F17EC66F0000E0001816F040ED2
:103C9800816551EF1EF053EF1EF055EF1EF072EFE5
:103CA8001EF0010ED26F0F0EF5EC68F0010E000148
:103CB800D36FF40ED26F87EC61F0010E0001D26F62
:103CC800010EF5EC68F0030E0001D36FE80ED26F19
:103CD80087EC61F00001812B4BEF1EF0000EDF6FC7
:103CE800020EA7EC41F08E9E000E0001826F2B0E93
:103CF8000201FA6FFA0EFB6FAB0EFC6F000EFD6F40
:103D0800050EFE6F1EEC13F03CEF1EF0000E0001D6
:103D1800806F17EC66F0000E0001816F040E81655C
:103D280098EF1EF09AEF1EF09CEF1EF0B9EF1EF010
:103D3800010ED26F0F0EF5EC68F0010E0001D36F83
:103D4800F40ED26F87EC61F0010E0001D26F020E03
:103D5800F5EC68F0030E0001D36FE80ED26F87EC24
:103D680061F00001812B92EF1EF0000EDF6F010E53
:103D7800A7EC41F078EF1EF0000E0001806F17EC01
:103D880066F0000E0001816F040E8165CEEF1EF013
:103D9800D0EF1EF0D2EF1EF0EFEF1EF0010ED26F43
:103DA8000F0EF5EC68F0010E0001D36FF40ED26F20
:103DB80087EC61F0010E0001D26F030EF5EC68F09C
:103DC800030E0001D36FE80ED26F87EC61F000019B
:103DD800812BC8EF1EF093EC49F03CEF1EF0000E6B
:103DE8000001806F17EC66F0000E0001816F040E71
:103DF800816501EF1FF003EF1FF005EF1FF03CEFA7
:103E08001EF0010ED26F0F0EF5EC68F0010E0001E6
:103E1800D36FF40ED26F87EC61F0010E0001D26F00
:103E2800040EF5EC68F0030E0001D36FE80ED26FB4
:103E380087EC61F00001812BFBEF1EF0000E000102
:103E4800806F17EC66F0000E0001816F040E81652B
:103E580030EF1FF032EF1FF034EF1FF03CEF1EF091
:103E6800010ED26F0F0EF5EC68F0010E0001D36F52
:103E7800F40ED26F87EC61F0010E0001D26F050ECF
:103E8800F5EC68F0030E0001D36FE80ED26F87ECF3
:103E980061F00001812B2AEF1FF0000E0001806FF6
:103EA80017EC66F0000E0001816F040E81655FEF6C
:103EB8001FF061EF1FF063EF1FF03CEF1EF0010EE3
:103EC800D26F0F0EF5EC68F0010E0001D36FF40EFF
:103ED800D26F87EC61F0010E0001D26F060EF5EC8F
:103EE80068F0030E0001D36FE80ED26F87EC61F023
:103EF8000001812B59EF1FF0000E0001806F17ECB5
:103F080066F000019651D8B48CEF1FF08EEF1FF0C9
:103F18003CEF1EF0000E816F040E816596EF1FF0D6
:103F280098EF1FF09AEF1FF0B7EF1FF0010ED26F56
:103F38000F0EF5EC68F0010E0001D36FF40ED26F8E
:103F480087EC61F0010E0001D26F070EF5EC68F006
:103F5800030E0001D36FE80ED26F87EC61F0000109
:103F6800812B90EF1FF08AEC51F0FAEC64F0030E0D
:103F78000001D36FE80ED26F87EC61F0FAEC45F0E0
:103F88003CEF1EF0000E0001806F17EC66F0000198
:103F98009651D8B4D2EF1FF0D4EF1FF03CEF1EF0CB
:103FA800000E816F040E8165DCEF1FF0DEEF1FF05D
:103FB800E0EF1FF0FDEF1FF0010ED26F0F0EF5ECD2
:103FC80068F0010E0001D36FF40ED26F87EC61F038
:103FD800010E0001D26F080EF5EC68F0030E000127
:103FE800D36FE80ED26F87EC61F00001812BD6EF1A
:103FF8001FF08AEC51F0BBEF1FF0000E0001806F3C
:1040080017EC66F000019651D8B40DEF20F00FEFD1
:1040180020F03CEF1EF0000E816F040E816517EF53
:1040280020F019EF20F01BEF20F038EF20F0010E00
:10403800D26F0F0EF5EC68F0010E0001D36FF40E8D
:10404800D26F87EC61F0010E0001D26F090EF5EC1A
:1040580068F0030E0001D36FE80ED26F87EC61F0B1
:104068000001812B11EF20F0FAEC64F0BBEF1FF098
:1040780080510401FE6FFF6BFF51000AD8B447EF6F
:1040880020F03CEF1EF0FE51010AD8B443EF1EF0B9
:10409800030AD8B48AEF1EF0010AD8B4C0EF1EF0A4
:1040A800070AD8B4F3EF1EF0010AD8B422EF1FF0C4
:1040B800030AD8B451EF1FF0010AD8B480EF1FF0FB
:1040C8000F0AD8B4C6EF1FF0010AD8B401EF20F0E8
:1040D8003CEF1EF0CBEC64F000019651D8B477EFBA
:1040E80020F079EF20F074EF23F0C9EC66F00009B6
:1040F800D8B481EF20F083EF20F09AEF20F0FF0E84
:104108000001696FDC0E686FA10E0201FA6FF70EED
:10411800FB6FAB0EFC6F000EFD6F000EFE6F1EEC0A
:1041280013F0010E0001886F9BEF23F0000E0001D1
:104138007F6F000E816FF8EF21F08151160DEE0EA2
:10414800F324D96E080EF420DA6EDE04D8A4AFEF9B
:1041580020F0B1EF20F0F7EF21F03CEC5EF0000129
:104168008151160DE60EF324D96E080EF420DA6E8E
:104178007B51DE5CD8A0C3EF20F0C5EF20F05EEFE6
:1041880021F08151160DE50EF324D96E080EF420A6
:10419800DA6E7A51DE5CD8B0D4EF20F0D6EF20F09A
:1041A800E7EF20F08151160DE60EF324D96E080EC4
:1041B800F420DA6E7B51DE18D8B4E5EF20F0E7EF93
:1041C80020F05EEF21F08151160DE40EF324D96E34
:1041D800080EF420DA6E7951DE5CD8B0F6EF20F0E4
:1041E800F8EF20F01AEF21F08151160DE50EF324B7
:1041F800D96E080EF420DA6E7A51DE18D8A407EFCB
:1042080021F009EF21F01AEF21F08151160DE60E89
:10421800F324D96E080EF420DA6E7B51DE18D8B478
:1042280018EF21F01AEF21F05EEF21F08151160D01
:10423800E20EF324D96E080EF420DA6E7851DE5CB3
:10424800D8B029EF21F02BEF21F0F1EF21F08151C7
:10425800160DE40EF324D96E080EF420DA6E7951A7
:10426800DE18D8A43AEF21F03CEF21F0F1EF21F06D
:104278008151160DE50EF324D96E080EF420DA6E7E
:104288007A51DE18D8A44BEF21F04DEF21F0F1EF71
:1042980021F08151160DE60EF324D96E080EF42094
:1042A800DA6E7B51DE18D8A45CEF21F05EEF21F0C6
:1042B800F1EF21F0000E8F6F8151160DEE0EF324F1
:1042C800D96E080EF420DA6E000EDF6E8151160DDD
:1042D800EC0EF324D96E080EF420DA6E8151160D17
:1042E800ED0EF324E16E080EF420E26EDFCFE7FF57
:1042F80081C07FF08151160DF00EF324D96E080E9F
:10430800F420DA6EDF50D8B48CEF21F08EEF21F074
:10431800E8EF21F08151160DEB0EF324D96E080E4B
:10432800F420DA6E020EDE18D8A49DEF21F09FEF7C
:1043380021F0BDEF21F08151160DEB0EF324D96E5B
:10434800080EF420DA6E000EDF6E8151160DF10EA4
:10435800F324D96E080EF420DA6E010EDF6EA2EC9B
:104368005FF0DCC066F0DDC067F054EC62F0E8EFA7
:1043780021F08151160DEB0EF324D96E080EF420AE
:10438800DA6E030EDE18D8B4CCEF21F0CEEF21F0B0
:10439800DEEF21F08151160DEB0EF324D96E080ED5
:1043A800F420DA6EDE04D8A4DCEF21F0DEEF21F091
:1043B800E8EF21F08151160DEB0EF324D96E080EAB
:1043C800F420DA6E000EDF6E000E0001D36F640E6B
:1043D800D26F87EC61F000EF22F0010E8F6F81C081
:1043E8007FF000EF22F0812B0B0E8165FEEF21F0AC
:1043F80000EF22F0A1EF20F000018F51D8B407EFB1
:1044080022F009EF22F014EF23F0010E8C6F090E51
:10441800816111EF22F013EF22F01AEF22F0300E33
:10442800976F8151310F986F8BEF22F0080E8165DD
:1044380020EF22F022EF22F08BEF22F00C0E8161A8
:1044480028EF22F02AEF22F08BEF22F0310E976F3F
:104458008151270F986F8BEF22F0DC0E0201FA6F63
:10446800F40EFB6FAB0EFC6F000EFD6F020EFE6FBD
:104478001EEC13F0B2EF22F0770E0201FA6FF50E80
:10448800FB6FAB0EFC6F000EFD6F020EFE6F1EEC95
:1044980013F0B2EF22F02A0E0201FA6FF50EFB6F4D
:1044A800AB0EFC6F000EFD6F020EFE6F1EEC13F0DC
:1044B800B2EF22F08A0E0201FA6FF40EFB6FAB0E18
:1044C800FC6F000EFD6F020EFE6F1EEC13F0B2EFD4
:1044D80022F00C0E0201FA6FF60EFB6FAB0EFC6FAA
:1044E800000EFD6F020EFE6F1EEC13F0B2EF22F00D
:1044F800C20E0201FA6FF50EFB6FAB0EFC6F000ED9
:10450800FD6F020EFE6F1EEC13F0B2EF22F00501F4
:10451800FE510401FE6FFF6BFF51000AD8B497EFFC
:1045280022F0B2EF22F0FE51010AD8B431EF22F0A6
:10453800030AD8B440EF22F0010AD8B44FEF22F0B2
:10454800070AD8B45EEF22F0010AD8B46DEF22F062
:10455800030AD8B47CEF22F0B2EF22F0A2EC5FF0AD
:10456800DCC068F0DDC069F09BEF23F02A0E020181
:10457800FA6FFB0EFB6FAB0EFC6F000EFD6F000EAB
:10458800FE6F1EEC13F03BEF23F0070E0201FA6FEB
:10459800FD0EFB6FAB0EFC6F000EFD6F000EFE6F85
:1045A8001EEC13F03BEF23F04F0E0201FA6FFB0EE7
:1045B800FB6FAB0EFC6F000EFD6F000EFE6F1EEC66
:1045C80013F03BEF23F0B10E0201FA6FFA0EFB6F06
:1045D800AB0EFC6F000EFD6F000EFE6F1EEC13F0AD
:1045E8003BEF23F0640E0201FA6FFC0EFB6FAB0E7B
:1045F800FC6F000EFD6F000EFE6F1EEC13F03BEF1C
:1046080023F0430E0201FA6FFC0EFB6FAB0EFC6F3A
:10461800000EFD6F000EFE6F1EEC13F03BEF23F053
:104628000501FE510401FE6FFF6BFF51000AD8B46B
:1046380020EF23F03BEF23F0FE51010AD8B4BAEF84
:1046480022F0030AD8B4C9EF22F0010AD8B4D8EF8F
:1046580022F0070AD8B4E7EF22F0010AD8B4F6EF3F
:1046680022F0030AD8B405EF23F03BEF23F09BEFC9
:1046780023F0000ED26F010EF5EC68F0B60E0001C3
:10468800D26F000ED36F490ED46F000ED56F000E97
:10469800D76F060ED66F11EC62F0FF0E0001696F3E
:1046A800DC0E686F93EC4DF000019551D8B45FEFC4
:1046B80023F061EF23F074EF23F0010ED26F020EA6
:1046C800F5EC68F0010E0001D36FF40ED26F87ECA1
:1046D80061F0000E0001956F96EC01F0CBEC64F0F0
:1046E80000019651D8B47BEF23F07DEF23F03DEF26
:1046F80023F0C9EC66F00009D8B485EF23F087EF02
:1047080023F09BEF23F0FF0E0001696FDC0E686F4A
:10471800250E0201FA6FF70EFB6FAB0EFC6F000E51
:10472800FD6F000EFE6F1EEC13F095EF20F048ECC5
:1047380063F00009D8B4A3EF23F0A5EF23F0CFEF7F
:1047480023F0690E0201FA6FF90EFB6FAB0EFC6FD6
:10475800000EFD6F000EFE6F1EEC13F00001855178
:10476800D8B4B9EF23F0BBEF23F02CEF24F0A2EC80
:104778004FF0030E0001D36FE80ED26F87EC61F0A3
:104788009EEC5EF0030E0001D36FE80ED26F87EC4B
:1047980061F02CEF24F000018A51D8B4D6EF23F051
:1047A800D8EF23F022EF24F0000E8A6F000ED36FAB
:1047B800640ED26F87EC61F05FEC66F0000E0001CA
:1047C800D36F640ED26F87EC61F000018551D8B4C5
:1047D800F0EF23F0F2EF23F013EF24F0A2EC4FF008
:1047E800030E0001D36FE80ED26F87EC61F09EECE8
:1047F8005EF0030E0001D36FE80ED26F87EC61F014
:10480800C60E0201FA6FF80EFB6FAB0EFC6F000EBE
:10481800FD6F000EFE6F1EEC13F02CEF24F08E0ED1
:104828000201FA6FF80EFB6FAB0EFC6F000EFD6F06
:10483800000EFE6F1EEC13F02CEF24F08551D8B457
:1048480028EF24F02AEF24F02CEF24F0BBEF23F01C
:10485800120000018F51D8B434EF24F036EF24F061
:1048680060EF27F068516911D8A43DEF24F03FEFBD
:1048780024F060EF27F09151D8A445EF24F047EFDA
:1048880024F060EF27F08B51D8A44DEF24F04FEFC0
:1048980024F060EF27F08D51D8A455EF24F057EF9E
:1048A80024F060EF27F09051D8A45DEF24F05FEF7B
:1048B80024F060EF27F0000E0101FF6F56EF27F09C
:1048C800FF51160DEE0EF324D96E080EF420DA6EA1
:1048D800DE04D8A472EF24F074EF24F047EF25F03B
:1048E800FF51160DF00EF324D96E080EF420DA6E7F
:1048F800DF50D8B482EF24F084EF24F047EF25F09E
:10490800FF51160DEB0EF324D96E080EF420DA6E63
:10491800DE04D8A492EF24F094EF24F047EF25F0BA
:10492800030E0001D36FE80ED26F87EC61F08E8C16
:104938000101FF51160DEB0EF324D96E080EF42079
:10494800DA6E020EDF6EFF51160DF10EF324D96EEA
:10495800080EF420DA6EDF50D8B4B5EF24F0B7EFC4
:1049680024F0CDEF24F0FF51160DF10EF324D96E8B
:10497800080EF420DA6E000EDF6E4CEC5FF0DCC03F
:1049880066F0DDC067F066C068F067C069F0DCEF0C
:1049980024F0FF51160DE80EF324D96E080EF4200A
:1049A800DA6EDF500301FB6FFB510001686F696B22
:1049B800000E0001D36F640ED26F87EC61F0010125
:1049C800FF51020D830EF324F66EF20EF420F76EFB
:1049D8000900F5CFDAF00A00F5CFDBF0FF51160D2C
:1049E800DC0EF3240001DC6F080EF420DD6F9DEC73
:1049F80060F0000E0001D36F640ED26F87EC61F097
:104A080094EC62F0000E0001D36F640ED26F87EC55
:104A180061F0090E0101FF6114EF25F016EF25F092
:104A280020EF25F0300E0001976F0101FF51310F83
:104A38000001986F38EF25F0080EFF6526EF25F086
:104A480028EF25F038EF25F00C0EFF612EEF25F04A
:104A580030EF25F038EF25F0310E0001976F010196
:104A6800FF51270F0001986FFF0E0201FA6FFB0E2E
:104A7800FB6FAB0EFC6F000EFD6F020EFE6F1EEC9F
:104A880013F021EF29F0FF51160DEE0EF324D96E25
:104A9800080EF420DA6EDE04D8A455EF25F057EF9F
:104AA80025F06CEF26F0FF51160DF00EF324D96EA9
:104AB800080EF420DA6EDF50D8B465EF25F067EF02
:104AC80025F06CEF26F0FF51160DEB0EF324D96E8E
:104AD800080EF420DA6E020EDE18D8A476EF25F060
:104AE80078EF25F06CEF26F0030E0001D36FE80E87
:104AF800D26F87EC61F08E9C0101FF51160DEB0E11
:104B0800F324D96E080EF420DA6E030EDF6EFF511F
:104B1800160DE90EF324D96E080EF420DA6EDF06BE
:104B2800FF51160DE90EF324D96E080EF420DA6E43
:104B3800DF50D8A4A2EF25F0A4EF25F0AEEF25F0C2
:104B4800FF51160DF00EF324D96E080EF420DA6E1C
:104B5800000EDF6E000E0001D36F640ED26F87EC7B
:104B680061F00101FF51020D830EF324F66EF20E7F
:104B7800F420F76E0900F5CFDAF00A00F5CFDBF084
:104B8800FF51160DDC0EF3240001DC6F080EF42033
:104B9800DD6F1BEC58F0000E0001D36F640ED26F6E
:104BA80087EC61F00101FF51160DE00EF324D96E78
:104BB800080EF420DA6EDF500301FB6FFC6B010175
:104BC800FF51160DE70EF324D96E080EF420DA6EA5
:104BD800DF500301FD6FFD51FB5F000EFC5B01011F
:104BE800FF51160DE80EF324D96E080EF420DA6E84
:104BF800DF500301FE6FFE51FB5D0001686F03018A
:104C0800FC51D8A0FC050001696F000ED36F640E3B
:104C1800D26F87EC61F094EC62F0000E0001D36F64
:104C2800640ED26F87EC61F0090E0101FF611FEF7E
:104C380026F021EF26F02BEF26F0300E0001976FBB
:104C48000101FF51310F0001986F43EF26F0080E64
:104C5800FF6531EF26F033EF26F043EF26F00C0E18
:104C6800FF6139EF26F03BEF26F043EF26F0310ED7
:104C78000001976F0101FF51270F0001986F000194
:104C88008351D8A44AEF26F04CEF26F05BEF26F0CC
:104C9800DD0E0201FA6FFB0EFB6FAB0EFC6F000E10
:104CA800FD6F020EFE6F1EEC13F021EF29F0000ECF
:104CB800836F560E0201FA6FF60EFB6FAB0EFC6F98
:104CC800000EFD6F020EFE6F1EEC13F021EF29F0AF
:104CD800FF51160DEE0EF324D96E080EF420DA6E8D
:104CE800DE04D8A47AEF26F07CEF26F055EF27F003
:104CF800FF51160DEE0EF324D96E080EF420DA6E6D
:104D0800000EDF6EFF51160DEC0EF324D96E080E5F
:104D1800F420DA6EFF51160DED0EF324E16E080E45
:104D2800F420E26EDE50E618D8A49DEF26F09FEF3F
:104D380026F0ABEF26F0FF51160DED0EF324D96ED9
:104D4800080EF420DA6E010EDF6EB4EF26F0FF5184
:104D5800160DED0EF324D96E080EF420DA6EDF2A54
:104D6800000E00018F6F010E8E6F0101FF290001F7
:104D78007F6F000ED36F640ED26F87EC61F0010174
:104D8800FF51CCEC65F0000E0001D36F640ED26FBA
:104D980087EC61F00101FF51020D830EF324F66EDA
:104DA800F20EF420F76E0900F5CFDAF00A00F5CF1D
:104DB800DBF0FF51160DDC0EF3240001DC6F080E4A
:104DC800F420DD6F6EEC67F0000E0001D36F640E07
:104DD800D26F87EC61F00101FF51020D830EF324BD
:104DE800F66EF20EF420F76E0900F5CFDAF00A003D
:104DF800F5CFDBF0FF51160DDC0EF3240001DC6F5C
:104E0800080EF420DD6F4EEC67F0000E0001D36F42
:104E1800640ED26F87EC61F00101FF51160DF00EA0
:104E2800F324D96E080EF420DA6EDF50D8B41FEFE1
:104E380027F021EF27F021EF29F0FF51160DEB0E97
:104E4800F324D96E080EF420DA6E000EDF6E000E21
:104E58000001D36F640ED26F87EC61F00101FF513E
:104E6800020D830EF324F66EF20EF420F76E09009D
:104E7800F5CFDAF00A00F5CFDBF0FF51160DDC0EA6
:104E8800F3240001DC6F080EF420DD6F9DEC60F068
:104E9800000E0001D36F640ED26F87EC61F021EF32
:104EA80029F0FF2B0B0EFF655CEF27F05EEF27F074
:104EB80064EF24F021EF29F08D51D8B466EF27F084
:104EC80068EF27F021EF29F0000E8D6F000E010129
:104ED800FF6F19EF29F0FF51160DEE0EF324D96E6E
:104EE800080EF420DA6EDE04D8A47DEF27F07FEFF9
:104EF80027F018EF29F0FF51160DEF0EF324D96EA5
:104F0800080EF420DA6EDF50D8A48DEF27F08FEF6B
:104F180027F05AEF28F0FF51160DEE0EF324D96E44
:104F2800080EF420DA6E000EDF6EFF51160DEC0E3F
:104F3800F324D96E080EF420DA6EFF51160DED0E2B
:104F4800F324E16E080EF420E26EDE50E618D8A4D1
:104F5800B0EF27F0B2EF27F0BEEF27F0FF51160DA4
:104F6800ED0EF324D96E080EF420DA6E010EDF6E12
:104F7800C7EF27F0FF51160DED0EF324D96E080E7A
:104F8800F420DA6EDF2AFF51160DEB0EF324D96EEA
:104F9800080EF420DA6E020EDE18D8A4D6EF27F039
:104FA800D8EF27F003EF28F08E9CFF51160DEB0E7B
:104FB800F324D96E080EF420DA6E000EDF6EFF516E
:104FC800020D830EF324F66EF20EF420F76E09003C
:104FD800F5CFDAF00A00F5CFDBF0FF51160DDC0E45
:104FE800F3240001DC6F080EF420DD6F9DEC60F007
:104FF800000E0001D36F640ED26F87EC61F0000ED3
:1050080000018F6F010E8E6F0101FF2900017F6F74
:10501800000ED36F640ED26F87EC61F00101FF516F
:10502800CCEC65F0000E0001D36F640ED26F87ECF4
:1050380061F00101FF51020D830EF324F66EF20EAA
:10504800F420F76E0900F5CFDAF00A00F5CFDBF0AF
:10505800FF51160DDC0EF3240001DC6F080EF4205E
:10506800DD6F6EEC67F0000E0001D36F640ED26F37
:1050780087EC61F00101FF51020D830EF324F66EF7
:10508800F20EF420F76E0900F5CFDAF00A00F5CF3A
:10509800DBF0FF51160DDC0EF3240001DC6F080E67
:1050A800F420DD6F4EEC67F04CEF27F0FF51160D42
:1050B800EB0EF324D96E080EF420DA6EDE04D8A4C1
:1050C80068EF28F06AEF28F09CEF28F0A2EC5FF078
:1050D800DCC068F0DDC069F00101FF51160DE00E7B
:1050E800F324D96E080EF420DA6EDF500301FB6F4B
:1050F800FC6B0101FF51160DE70EF324D96E080E63
:10510800F420DA6EDF500301FD6FFD51FB5F000EE6
:10511800FC5B000168510301FB250001686F6951C0
:105128000301FC210001696F94EC62F04CEF27F059
:10513800FF51160DEB0EF324D96E080EF420DA6E2B
:10514800020EDE18D8A4ABEF28F0ADEF28F018EF68
:1051580029F08E9CFF51160DEB0EF324D96E080E24
:10516800F420DA6E000EDF6EFF51020D830EF32479
:10517800F66EF20EF420F76E0900F5CFDAF00A00A9
:10518800F5CFDBF0FF51160DDC0EF3240001DC6FC8
:10519800080EF420DD6F9DEC60F0000E0001D36F67
:1051A800640ED26F87EC61F0A2EC5FF0DCC068F0AF
:1051B800DDC069F00101FF51160DE00EF324D96E30
:1051C800080EF420DA6EDF500301FB6FFC6B01015F
:1051D800FF51160DE70EF324D96E080EF420DA6E8F
:1051E800DF500301FD6FFD51FB5F000EFC5B010109
:1051F800FF51160DE80EF324D96E080EF420DA6E6E
:10520800DF500301FE6FFE51FB5F000EFC5B0001E7
:1052180068510301FB250001686F69510301FC21F6
:105228000001696F98EF28F0FF2B0B0EFF651FEF49
:1052380029F021EF29F06FEF27F01200010E060187
:10524800F36F6E0EF26F010EF56F6D0EF46F000EB8
:10525800F76F000EF66FFF0E0001696FDC0E686FC6
:10526800000E926F0B0E7F653CEF29F03EEF29F0A0
:1052780040EF29F0000E7F6F7FC081F0E7EF2CF040
:105288008151160DEF0EF324D96E080EF420DA6E54
:10529800DF50D8B452EF29F054EF29F0E5EF2CF0A5
:1052A8008151160DEE0EF324D96E080EF420DA6E35
:1052B800DE04D8B462EF29F064EF29F0E5EF2CF0B2
:1052C8009251D8A46AEF29F06CEF29F082EF29F007
:1052D800000ED36F640ED26F87EC61F03CEC5EF089
:1052E800000E0001D36F640ED26F87EC61F0010EDF
:1052F8000001926FFF0E696FDC0E686F8151160D09
:10530800E60EF324D96E080EF420DA6E7B51DE5CCB
:10531800D8A091EF29F093EF29F081EF2AF081517D
:10532800160DE50EF324D96E080EF420DA6E7A51C4
:10533800DE5CD8B0A2EF29F0A4EF29F0B5EF29F090
:105348008151160DE60EF324D96E080EF420DA6E9C
:105358007B51DE18D8B4B3EF29F0B5EF29F081EF0F
:105368002AF08151160DE40EF324D96E080EF420AC
:10537800DA6E7951DE5CD8B0C4EF29F0C6EF29F0B7
:10538800E8EF29F08151160DE50EF324D96E080EC9
:10539800F420DA6E7A51DE18D8A4D5EF29F0D7EFC9
:1053A80029F0E8EF29F08151160DE60EF324D96EA5
:1053B800080EF420DA6E7B51DE18D8B4E6EF29F037
:1053C800E8EF29F081EF2AF08151160DE20EF3245F
:1053D800D96E080EF420DA6E7851DE5CD8B0F7EF9B
:1053E80029F0F9EF29F02CEF2AF08151160DE40E7F
:1053F800F324D96E080EF420DA6E7951DE18D8A499
:1054080008EF2AF00AEF2AF02CEF2AF08151160D46
:10541800E50EF324D96E080EF420DA6E7A51DE1800
:10542800D8A419EF2AF01BEF2AF02CEF2AF08151AB
:10543800160DE60EF324D96E080EF420DA6E7B51B1
:10544800DE18D8B42AEF2AF02CEF2AF081EF2AF0E0
:105458008151160DE30EF324D96E080EF420DA6E8E
:10546800DE50775DD8A03BEF2AF03DEF2AF085EFBC
:105478002AF08151160DE20EF324D96E080EF4209D
:10548800DA6E7851DE18D8A44CEF2AF04EEF2AF0E5
:1054980085EF2AF08151160DE40EF324D96E080E1B
:1054A800F420DA6E7951DE18D8A45DEF2AF05FEFA8
:1054B8002AF085EF2AF08151160DE50EF324D96EF6
:1054C800080EF420DA6E7A51DE18D8A46EEF2AF0AE
:1054D80070EF2AF085EF2AF08151160DE60EF324BD
:1054E800D96E080EF420DA6E7B51DE18D8A47FEF4F
:1054F8002AF081EF2AF085EF2AF0010E8F6FEFEF87
:105508002CF08151160DEC0EF324D96E080EF42000
:10551800DA6E8151160DED0EF324E16E080EF420BB
:10552800E26EDE50E65CD8B09CEF2AF09EEF2AF0DF
:10553800A0EF2AF081EF2AF0000E8F6F000E06010F
:10554800F86F000EF96F000EFA6F000EFB6F7BC04C
:10555800F7F6FEEF2AF0D00EF7250001D26FD36BD5
:10556800070ED323000ED56F640ED46F98EC64F049
:105578000001D251D311D8B4C4EF2AF0C6EF2AF0F3
:10558800F4EF2AF0F7C6E0F0030EE017D8A4CFEF47
:105598002AF0D1EF2AF0F4EF2AF0D00E0601F72511
:1055A8000001D26FD36B070ED323010ED56F900E77
:1055B800D46F98EC64F00001D251D311D8A4E7EF6E
:1055C8002AF0E9EF2AF0F4EF2AF00601F251F82761
:1055D800F351F923000EFA23000EFB23FDEF2AF006
:1055E8000601F451F827F551F923000EFA23000EAD
:1055F800FB23F72B00018151160DE60EF324D96E1B
:10560800080EF420DA6EDE500601F75DD8A00FEF21
:105618002BF011EF2BF0AFEF2AF000018151160D9E
:10562800E60EF324D96E080EF420DA6EDF50D76F39
:105638008151160DE50EF324D96E080EF420DA6EAA
:10564800DF5082EC57F00001D7510601F82700011E
:10565800D8510601F923000EFA23000EFB2300019E
:105668008151160DE40EF324D96E080EF420DA6E7B
:10567800DF50E06FE0510601F827000EF923FA2306
:10568800FB237BC0D7F000017A5182EC57F0000170
:10569800D751E06FD851E16FE26BE36BE05106013F
:1056A800F85F0001E1510601F95B0001E2510601D2
:1056B800FA5B0001E3510601FB5B79C0E0F00001F1
:1056C800E16BE26BE36BE0510601F85F0001E15129
:1056D8000601F95B0001E2510601FA5B0001E351A2
:1056E8000601FB5BF8C6D2F0F9C6D3F0FAC6D4F0CF
:1056F800FBC6D5F0180E0001D66F000ED76F000E4E
:10570800D86F000ED96F62EC64F0D2C0F8F6D3C03F
:10571800F9F6D4C0FAF6D5C0FBF600018151160D92
:10572800E20EF324D96E080EF420DA6E7851DE5CAE
:10573800D8A0A1EF2BF0A3EF2BF040EF2CF0815174
:10574800160DE20EF324D96E080EF420DA6EDF503F
:10575800E06F7851E05DE16FE26BD8A0E207E36BA0
:10576800E2BFE307E351E46FE1510601F8270001C6
:10577800E2510601F9230001E3510601FA23000171
:10578800E4510601FB23F8C6D2F0F9C6D3F0FAC6F5
:10579800D4F0FBC6D5F03C0E0001D66F000ED76FD3
:1057A800000ED86F000ED96F62EC64F0D2C0F8F624
:1057B800D3C0F9F6D4C0FAF6D5C0FBF60001815182
:1057C800160DE30EF324D96E080EF420DA6EDE50BF
:1057D800775DD8A0F2EF2BF0F4EF2BF01AEF2CF056
:1057E8008151160DE30EF324D96E080EF420DA6EFB
:1057F800DF50E06FE051775DE16FE26BD8A0E20720
:10580800E36BE2BFE307E351E46FE1510601F85FA0
:105818000001E2510601F95B0001E3510601FA5B60
:105828000001E4510601FB5BA4EF2CF08151160D39
:10583800E30EF324D96E080EF420DA6EDF50E06F21
:105848007751E05DE16FE26BD8A0E207E36BE2BF5E
:10585800E307E351E46FE1510601F8270001E25143
:105868000601F9230001E3510601FA230001E4517E
:105878000601FB23A4EF2CF08151160DE20EF32450
:10588800D96E080EF420DA6E7851DE5CD8B04FEF8E
:105898002CF051EF2CF0A4EF2CF08151160DE20EF4
:1058A800F324D96E080EF420DA6EDF50E06FE05171
:1058B800785DE16FE26BD8A0E207E36BE2BFE30734
:1058C800E351E46FE1510601F85F0001E25106017E
:1058D800F95B0001E3510601FA5B0001E45106019E
:1058E800FB5BF8C6D2F0F9C6D3F0FAC6D4F0FBC613
:1058F800D5F03C0E0001D66F000ED76F000ED86FA2
:10590800000ED96F62EC64F0D2C0F8F6D3C0F9F695
:10591800D4C0FAF6D5C0FBF600018151160DE30E8E
:10592800F324D96E080EF420DA6EDE50775DD8A025
:10593800A0EF2CF0A2EF2CF01AEF2CF0F4EF2BF0E4
:105948000601F851F911FA11FB11D8B4AEEF2CF099
:10595800B0EF2CF0BBEF2CF0F805F911FA11FB11A0
:10596800D8A4B9EF2CF0BBEF2CF0C2EF2CF0000E4E
:105978000001696F010E686FE5EF2CF000016851B6
:10598800E06F6951E16FE26BE36BE0510601F85D8E
:105998000001E1510601F9590001E2510601FA59E5
:1059A8000001E3510601FB59D8B0DDEF2CF0DFEF21
:1059B8002CF0E5EF2CF0F8C668F0F9C669F0E5EFD1
:1059C8002CF00001812B0B0E8165EDEF2CF0EFEF31
:1059D8002CF044EF29F08F51D8A4F5EF2CF0F7EF15
:1059E8002CF007EF2DF00601F651D8A4FEEF2CF0AD
:1059F80000EF2DF007EF2DF0010EF66F000E0001FD
:105A08007F6F40EF29F000018F51D8B40EEF2DF0D1
:105A180010EF2DF070EF2DF08151160DF00EF324DC
:105A2800D96E080EF420DA6EDF50D8B41EEF2DF0D0
:105A380020EF2DF061EF2DF08151160DE90EF324C2
:105A4800D96E080EF420DA6EDF50D8B42EEF2DF0A0
:105A580030EF2DF061EF2DF08151160DE70EF32494
:105A6800D96E080EF420DA6EDF50E06FE051686FEF
:105A7800696B8151160DEB0EF324D96E080EF420D4
:105A8800DA6E010EDF6E8151020D830EF324F66E7D
:105A9800F20EF420F76E0900F5CFDAF00A00F5CF20
:105AA800DBF08151160DDC0EF324DC6F080EF420B8
:105AB800DD6F9DEC60F0B3EF2DF08151160DE00E17
:105AC800F324D96E080EF420DA6EDF50E06FE0514F
:105AD800686F696BB3EF2DF0695109E1020E685DDB
