:0400000056EF01F0C6
:060008005182ABEF42F053
:100018005180D8CF0CF0E8CF0DF0E0CF0EF00E01F4
:1000280033AB19EF00F01BEF00F005EF01F08F96EE
:10003800339BE30ED46EB00ED36E442A365037107D
:10004800D8B429EF00F02BEF00F047EF00F08EAEA8
:1000580030EF00F032EF00F047EF00F03606D8A09E
:10006800370600016851D8B43CEF00F03EEF00F0CD
:1000780046EF00F0030E686144EF00F046EF00F031
:1000880047EF00F0682B4304D8A44DEF00F04FEF82
:1000980000F060EF00F000016C514418D8A457EF4D
:1000A80000F059EF00F060EF00F0000E446E8F8E04
:1000B800020E436E05EF01F0020E4318D8A467EF55
:1000C80000F069EF00F079EF00F03A504418D8A436
:1000D80070EF00F072EF00F079EF00F0000E446E60
:1000E8008F9E030E436E05EF01F0030E4318D8A44C
:1000F80080EF00F082EF00F093EF00F000016B5109
:100108004418D8A48AEF00F08CEF00F093EF00F0C9
:10011800000E446E8D84040E436E05EF01F0040E4C
:100128004318D8A49AEF00F09CEF00F0ACEF00F071
:100138003A504418D8A4A3EF00F0A5EF00F0ACEFB4
:1001480000F0000E446E8D94050E436E05EF01F02D
:10015800050E4318D8A4B3EF00F0B5EF00F0C6EFD2
:1001680000F000016B514418D8A4BDEF00F0BFEFB8
:1001780000F0C6EF00F0000E446E8D86060E436E4A
:1001880005EF01F0060E4318D8A4CDEF00F0CFEF2D
:1001980000F0DFEF00F03A504418D8A4D6EF00F092
:1001A800D8EF00F0DFEF00F0000E446E8D96070EDA
:1001B800436E05EF01F0070E4318D8A4E6EF00F0F0
:1001C800E8EF00F0F8EF00F0000169514418D8A4F6
:1001D800F0EF00F0F2EF00F0F8EF00F0000E446EE0
:1001E800010E436E05EF01F0630E4318D8A4FFEF2C
:1001F80000F001EF01F005EF01F0000E446E05EF8D
:1002080001F00E0138A10BEF01F00DEF01F012EF34
:1002180001F08F9600016E2B0E01389138A517EF6B
:1002280001F019EF01F04EEF01F08F963895F00EBE
:10023800C86EDC0EC76E00016D2B6D51735DD8B0B2
:1002480028EF01F02AEF01F043EF01F04D50D8A458
:1002580030EF01F032EF01F043EF01F0010E4D6E87
:10026800000E6D6FC9908451D8B43DEF01F03FEF97
:1002780001F04EEF01F0010E4E6E4EEF01F04D50C1
:10028800D8B449EF01F04BEF01F04EEF01F0000E4A
:100298006D6FC9900EC0E0FF0DC0E8FF0CC0D8FF1D
:1002A800519010003EEF4BF0000E0501F86F000E64
:1002B800F96F000EFC6F000EFB6F1E0E0001736FCE
:1002C800300E85656AEF01F06CEF01F02AEF12F04D
:1002D8003A0E856172EF01F074EF01F02AEF12F027
:1002E800000E4D6E000E486EC980010E0F6E030E93
:1002F800BAEC5EF0A8EF01F0B80E176EFF0E186E9C
:10030800AEEC5CF0850E176E000E186E010E196EBD
:10031800CFEC5CF0F70E176EFE0E186EAEEC5CF0CC
:10032800010E106EF40E0F6E8DEC57F04D50D8A4E0
:10033800A0EF01F0A2EF01F0A8EF01F0130E106E8C
:10034800880E0F6E8DEC57F04D50D8B4AEEF01F01B
:10035800B0EF01F080EF01F0000E0F6E0F0EBAEC57
:100368005EF00E013885150E0F6E060E106EF20E39
:10037800116E010E126E000E146E030E136E51EC08
:1003880053F00F501010D8A4CCEF01F0CEEF01F0CD
:100398001BEF12F0850E0F6E000E106E180E116E08
:1003A800060E126E000E146E0A0E136E15EC58F03F
:1003B800C8EC5DF0000E0F6E070E106E3F0E116E4A
:1003C800060E126E6AEC56F0000E0F6E070E106ED7
:1003D80032EC5BF00009D8B4F4EF01F0F6EF01F06D
:1003E800FCEF01F0E0EC5DF0B8EC39F00DEF02F055
:1003F80095EC5DF0000E0F6E050EBAEC5EF0070E80
:10040800106ED00E0F6E8DEC57F033EF12F033EF05
:1004180012F0990E0F6E000E106E850E116E000E02
:10042800126E000E146E0A0E136E51EC53F00F503C
:100438001010D8A422EF02F024EF02F00AEF11F016
:10044800850E0F6E000E106EF10E116E020E126EFA
:10045800000E146E0A0E136E15EC58F0000E0F6E97
:10046800050E106EED0E116E010E126E000E146E5A
:10047800040E136E51EC53F00F501010D8A447EF30
:1004880002F049EF02F059EF02F0000E486E490EF3
:10049800276EFE0E286E990E296E000E2A6E000E2B
:1004A8002B6E34EC12F033EF12F0000E0F6E050EC7
:1004B800106EFC0E116E000E126E000E146E020EFF
:1004C800136E51EC53F00F501010D8A46EEF02F0D9
:1004D80070EF02F0B7EF02F0030E0F6E050E106E0C
:1004E800AB0E116E000E126E000E146E060E136E19
:1004F80051EC53F00F501010D8A485EF02F087EF9D
:1005080002F0A7EF02F0AB0E0F6E000E106E0A0E8F
:10051800116E050E126E000E146E060E136E15EC9B
:1005280058F0ABEC59F0000E486EE70E276EFC0E43
:10053800286E990E296E000E2A6E000E2B6E34EC72
:1005480012F033EF12F0000E486EDF0E276EFD0E2C
:10055800286E990E296E000E2A6E000E2B6E34EC52
:1005680012F033EF12F0000E0F6E050E106EFA0E39
:10057800116E010E126E000E146E030E136E51EC06
:1005880053F00F501010D8A4CCEF02F0CEEF02F0C9
:1005980066EF05F0000E0501FC6F000EFB6F030E01
:1005A800B7EC3FF0476E010E0501FA6F060E486E74
:1005B800000E4824D96EDA6A050EDA22DF5010ECF4
:1005C8005EF00009D8B4EBEF02F0EDEF02F038EF7F
:1005D80004F0010E4824D96EDA6A050EDA22200EDC
:1005E800DE18D8A4FAEF02F0FCEF02F01DEF03F0DA
:1005F800000E4824D96EDA6A050EDA22000E482465
:10060800E16EE26A050EE222E750D00FDF6E000EBF
:100618004824D96EDA6A050EDA22DF500401F86F31
:10062800F8510501FB25FB6F000EFC21FC6F6DEFF7
:1006380004F0000E4824D96EDA6A050EDA22000E9C
:100648004824E16EE26A050EE222E750D00FDF6E21
:10065800000E4824D96EDA6A050EDA22DF500A0D38
:10066800000E4824D96EDA6A050EDA22F3CFDFFFCE
:10067800FBC50FF0FCC510F0000E126E0A0E116ECD
:100688003AEC5EF00FC0FBF510C0FCF50BEF03F081
:100698004750160DCC0EF324D96E080EF420DA6EEE
:1006A800FBC5DFFF000E0501FC6F000EFB6F6BEF53
:1006B80004F04750160DCD0EF324D96E080EF42021
:1006C800DA6EFBC5DFFF56EF03F04750160DCE0E6E
:1006D800F324D96E080EF420DA6EFBC5DFFF56EF5F
:1006E80003F04750160DCF0EF324D96E080EF420F0
:1006F800DA6EFBC5DFFF56EF03F04750160DC80E44
:10070800F324D96E080EF420DA6EFBC5DEFFFCC5B3
:10071800DDFF56EF03F04750160DCA0EF324D96ECD
:10072800080EF420DA6EFBC5DEFFFCC5DDFF56EFD0
:1007380003F04750160DD60EF324D96E080EF42098
:10074800DA6EFBC5DFFF56EF03F04750160DD80EE3
:10075800F324D96E080EF420DA6EFBC5DFFF47508C
:10076800160DD90EF324D96E080EF420DA6EFBC5E7
:10077800DFFF56EF03F00501FB5127EC33F0000EC5
:100788000501FC6F000EFB6F4750160DD00EF324C9
:10079800D96E080EF420DA6E38C0DFFF4750160D08
:1007A800D10EF324D96E080EF420DA6E3BC0DFFFB9
:1007B8004750160DD20EF324D96E080EF420DA6EC7
:1007C8003CC0DFFF4750160DDA0EF324D96E080E31
:1007D800F420DA6E000EDF6E4750160DDB0EF324A0
:1007E800D96E080EF420DA6E010EDF6E4750160D32
:1007F800D30EF324D96E080EF420DA6E000EDF6EE5
:100808004750160DD40EF324D96E080EF420DA6E74
:10081800000EDF6E4750160DD50EF324D96E080E64
:10082800F420DA6E000EDF6E4750160DDC0EF3244E
:10083800D96E080EF420DA6E000EDF6E4750160DE2
:10084800D70EF324D96E080EF420DA6E000EDF6E90
:100858004750160DDD0EF324D96E080EF420DA6E1B
:10086800000EDF6E6BEF04F00501FA510401F86F1A
:10087800F96BF951000AD8B444EF04F06BEF04F0B7
:10088800F851010AD8B44CEF03F0030AD8B45DEF6D
:1008980003F0010AD8B469EF03F0070AD8B475EF7A
:1008A80003F0010AD8B481EF03F0030AD8B48FEF3C
:1008B80003F0010AD8B49DEF03F00F0AD8B4A9EFEA
:1008C80003F0010AD8B4BFEF03F06BEF04F00501A1
:1008D800FA2B482A090EFA6574EF04F076EF04F053
:1008E800DCEF02F0000E106E640E0F6E8DEC57F008
:1008F8004750020DCD0EF324F66EF20EF420F76E7B
:100908000900F5CF17F00A00F5CF18F04750160D7B
:10091800C80EF324196E080EF4201A6E28EC46F05F
:10092800000E106E640E0F6E8DEC57F04750020DDE
:10093800CD0EF324F66EF20EF420F76E0900F5CF13
:1009480017F00A00F5CF18F04750160DC80EF3241B
:10095800196E080EF4201A6EFCEC56F0000E106E9C
:10096800640E0F6E8DEC57F04750020DCD0EF32438
:10097800F66EF20EF420F76E0900F5CF17F00A00B4
:10098800F5CF18F04750160DC80EF324196E080E4F
:10099800F4201A6E27EC5DF0000E106E640E0F6ED8
:1009A8008DEC57F04750020DCD0EF324F66EF20E83
:1009B800F420F76E0900F5CF17F00A00F5CF18F00C
:1009C8004750160DC80EF324196E080EF4201A6E3F
:1009D8000AEC5DF0000E106E640E0F6E8DEC57F091
:1009E8004750020DCD0EF324F66EF20EF420F76E8A
:1009F8000900F5CF17F00A00F5CF18F04750160D8B
:100A0800C80EF324196E080EF4201A6EEDEC5CF093
:100A1800000E106E640E0F6E8DEC57F04750020DED
:100A2800CD0EF324F66EF20EF420F76E0900F5CF22
:100A380017F00A00F5CF18F04750160DC80EF3242A
:100A4800196E080EF4201A6E62EC4EF0000E106E4D
:100A5800640E0F6E8DEC57F0090E476036EF05F007
:100A680038EF05F040EF05F0300E0001856F475074
:100A7800310F866F56EF05F0080E476446EF05F014
:100A880048EF05F056EF05F00C0E47604EEF05F005
:100A980050EF05F056EF05F0310E0001856F475015
:100AA800270F866F000E486E730E276EFB0E286E9A
:100AB800990E296E000E2A6E020E2B6E34EC12F07F
:100AC80033EF12F0000E0F6E050E106EE80E116E69
:100AD800010E126E000E146E040E136E51EC53F0DC
:100AE8000F501010D8A47BEF05F07DEF05F030EF24
:100AF80006F0040EB7EC3FF0476E4750160DDA0EBD
:100B0800F324D96E080EF420DA6EDE04D8A48FEF31
:100B180005F091EF05F094EF05F0010E00017E6FEE
:100B28004750160DDB0EF324D96E080EF420DA6E4A
:100B3800000EDF6E4750160DDC0EF324D96E080E3A
:100B4800F420DA6EDE04D8A4ACEF05F0AEEF05F0C1
:100B5800DCEF05F04750160DDC0EF324D96E080EB5
:100B6800F420DA6E000EDF6E000E106E640E0F6E4B
:100B78008DEC57F04750020DCD0EF324F66EF20EB1
:100B8800F420F76E0900F5CF17F00A00F5CF18F03A
:100B98004750160DC80EF324196E080EF4201A6E6D
:100BA80062EC4EF0000E106E640E0F6E8DEC57F076
:100BB8004750020DCD0EF324F66EF20EF420F76EB8
:100BC8000900F5CF17F00A00F5CF18F04750160DB9
:100BD800C80EF324196E080EF4201A6EEDEC5CF0C2
:100BE800000E106E640E0F6E8DEC57F0090E476004
:100BF80000EF06F002EF06F00AEF06F0300E0001F3
:100C0800856F4750310F866F20EF06F0080E476456
:100C180010EF06F012EF06F020EF06F00C0E47601A
:100C280018EF06F01AEF06F020EF06F0310E00017B
:100C3800856F4750270F866F000E486ECC0E276EC3
:100C4800F90E286E990E296E000E2A6E020E2B6E72
:100C580034EC12F033EF12F0000E0F6E050E106E2A
:100C6800EA0E116E020E126E000E146E060E136E50
:100C780051EC53F00F501010D8A445EF06F047EF91
:100C880006F05CEF08F0000E0501FC6F000EFB6F2C
:100C9800000EFA6F060EB7EC3FF0476E4750160D80
:100CA800DB0EF324D96E080EF420DA6EDF50D8A4D8
:100CB80060EF06F062EF06F098EF06F0090E476065
:100CC80068EF06F06AEF06F072EF06F0300E0001EA
:100CD800856F4750310F866F88EF06F0080E47641E
:100CE80078EF06F07AEF06F088EF06F00C0E476012
:100CF80080EF06F082EF06F088EF06F0310E000173
:100D0800856F4750270F866F000E486EE50E276ED9
:100D1800F60E286E990E296E000E2A6E020E2B6EA4
:100D280034EC12F033EF12F0090E486E000E48242E
:100D3800D96EDA6A050EDA22DF5010EC5EF000098F
:100D4800D8B4A9EF06F0ABEF06F00AEF07F0010EF2
:100D58004824D96EDA6A050EDA22200EDE18D8A4E5
:100D6800B8EF06F0BAEF06F0DBEF06F0000E482405
:100D7800D96EDA6A050EDA22000E4824E16EE26ABC
:100D8800050EE222E750D00FDF6E000E4824D96E20
:100D9800DA6A050EDA22DF500401F86FF85105010E
:100DA800FB25FB6F000EFC21FC6FE8EF07F0000E3F
:100DB8004824D96EDA6A050EDA22000E4824E16E5C
:100DC800E26A050EE222E750D00FDF6E000E4824DB
:100DD800D96EDA6A050EDA22DF500A0D000E4824B1
:100DE800D96EDA6A050EDA22F3CFDFFFFBC50FF002
:100DF800FCC510F0000E126E0A0E116E3AEC5EF091
:100E08000FC0FBF510C0FCF5C9EF06F00501FA2B81
:100E1800CEEF07F04750160DD30EF324D96E080E07
:100E2800F420DA6EFBC5DFFF000E0501FC6F000E33
:100E3800FB6FE8EF07F04750160DD40EF324D96E78
:100E4800080EF420DA6EFBC5DFFF18EF07F04750F5
:100E5800160DD50EF324D96E080EF420DA6EFBC5F4
:100E6800DFFF4750160DD70EF324D96E080EF42075
:100E7800DA6E000EDF6E4750160DDD0EF324D96EC4
:100E8800080EF420DA6E000EDF6E000E0501FC6F0E
:100E9800000EFB6F4750160DCC0EF324D96E080ECA
:100EA800F420DA6EDF500401F86FF96B4750160D25
:100EB800D30EF324D96E080EF420DA6EDF50FA6FE1
:100EC800FB6B4750160DD40EF324D96E080EF42090
:100ED800DA6EDF50FC6FFC51FA27000EFB23F85145
:100EE800FA5DFB51800AFD6FF951800AFD59D8A0BF
:100EF80080EF07F082EF07F0C2EF07F04750160DBA
:100F0800DC0EF324D96E080EF420DA6E000EDF6EC4
:100F1800090E476092EF07F094EF07F09CEF07F097
:100F2800300E0001856F4750310F866FB2EF07F022
:100F3800080E4764A2EF07F0A4EF07F0B2EF07F03E
:100F48000C0E4760AAEF07F0ACEF07F0B2EF07F01E
:100F5800310E0001856F4750270F866F000E486ECF
:100F6800FE0E276EF80E286E990E296E000E2A6E58
:100F7800020E2B6E34EC12F0E8EF07F04750160D16
:100F8800DC0EF324D96E080EF420DA6E010EDF6E43
:100F9800E8EF07F0FA510401F86FF96BF951000A0C
:100FA800D8B4D9EF07F0E8EF07F0F851010AD8B440
:100FB8000EEF07F0030AD8B41FEF07F0010AD8B400
:100FC8002BEF07F0E8EF07F0482A020E0501FA6553
:100FD800F0EF07F0F2EF07F09AEF06F04750160D22
:100FE800DC0EF324D96E080EF420DA6EDF50D8B484
:100FF80000EF08F002EF08F033EF12F0000E106E69
:10100800640E0F6E8DEC57F04750020DCD0EF32491
:10101800F66EF20EF420F76E0900F5CF17F00A000D
:10102800F5CF18F04750160DC80EF324196E080EA8
:10103800F4201A6E62EC4EF0000E106E640E0F6E05
:101048008DEC57F0090E47602CEF08F02EEF08F0F2
:1010580036EF08F0300E0001856F4750310F866F6C
:101068004CEF08F0080E47643CEF08F03EEF08F03C
:101078004CEF08F00C0E476044EF08F046EF08F01C
:101088004CEF08F0310E0001856F4750270F866F2F
:10109800000E486E210E276EFC0E286E990E296EE2
:1010A800000E2A6E020E2B6E34EC12F033EF12F0A3
:1010B800000E0F6E050E106ED40E116E020E126E1B
:1010C800000E146E070E136E51EC53F00F501010F3
:1010D800D8A471EF08F073EF08F00FEF09F0070ECE
:1010E800B7EC3FF0476E4750160DDA0EF324D96E71
:1010F800080EF420DA6EDE04D8A485EF08F087EF36
:1011080008F09BEF08F04750160DD70EF324D96E60
:10111800080EF420DA6E030EDE18D8B496EF08F045
:1011280098EF08F09BEF08F0010E00017E6F475022
:10113800160DDC0EF324D96E080EF420DA6EDE04E8
:10114800D8A4A9EF08F0ABEF08F00BEF02F0475076
:10115800160DDC0EF324D96E080EF420DA6E000E9C
:10116800DF6E000E106E640E0F6E8DEC57F0475058
:10117800020DCD0EF324F66EF20EF420F76E090080
:10118800F5CF17F00A00F5CF18F04750160DC80E26
:10119800F324196E080EF4201A6E62EC4EF0000E5D
:1011A800106E640E0F6E8DEC57F0090E4760DFEF7E
:1011B80008F0E1EF08F0E9EF08F0300E0001856F64
:1011C8004750310F866FFFEF08F0080E4764EFEFC6
:1011D80008F0F1EF08F0FFEF08F00C0E4760F7EFAA
:1011E80008F0F9EF08F0FFEF08F0310E0001856F05
:1011F8004750270F866F000E486EBA0E276EFB0EFB
:10120800286E990E296E000E2A6E020E2B6E34EC93
:1012180012F033EF12F0000E0F6E050E106EE30E93
:10122800116E020E126E000E146E060E136E51EC45
:1012380053F00F501010D8A424EF09F026EF09F04E
:101248000EEF0AF0000E0501FC6F000EFB6F000E9A
:10125800FA6F060E486E000E4824D96EDA6A050E3B
:10126800DA22DF5010EC5EF00009D8B43EEF09F046
:1012780040EF09F09FEF09F0010E4824D96EDA6AB1
:10128800050EDA22200EDE18D8A44DEF09F04FEF34
:1012980009F070EF09F0000E4824D96EDA6A050EDD
:1012A800DA22000E4824E16EE26A050EE222E750D7
:1012B800D00FDF6E000E4824D96EDA6A050EDA22E6
:1012C800DF500401F86FF8510501FB25FB6F000E94
:1012D800FC21FC6FE6EF09F0000E4824D96EDA6AAB
:1012E800050EDA22000E4824E16EE26A050EE222BB
:1012F800E750D00FDF6E000E4824D96EDA6A050E6B
:10130800DA22DF500A0D000E4824D96EDA6A050E7B
:10131800DA22F3CFDFFFFBC50FF0FCC510F0000E9B
:10132800126E0A0E116E3AEC5EF00FC0FBF510C09B
:10133800FCF55EEF09F00501FA2BC4EF09F0FBC5D7
:101348006CF0000E0501FC6F000EFB6FE6EF09F074
:10135800FBC56BF0A5EF09F0FBC56AF0A5EF09F036
:10136800FBC53AF0A5EF09F0FBC569F0000E0501D1
:10137800FC6F000EFB6F010E0001786FE6EF09F0BD
:10138800FA510401F86FF96BF951000AD8B4CFEF9C
:1013980009F0E6EF09F0F851010AD8B4A3EF09F013
:1013A800030AD8B4ACEF09F0010AD8B4B0EF09F0D9
:1013B800070AD8B4B4EF09F0010AD8B4B8EF09F0B5
:1013C800E6EF09F0482A040E0501FA65EEEF09F088
:1013D800F0EF09F02FEF09F0000E106E640E0F6E9B
:1013E8008DEC57F0C5EC4DF0000E106E640E0F6ECC
:1013F8008DEC57F0000E486E790E276EFD0E286EA4
:10140800990E296E000E2A6E000E2B6E34EC12F027
:1014180033EF12F0000E0F6E050E106ECC0E116E2B
:10142800020E126E000E146E070E136E51EC53F07E
:101438000F501010D8A423EF0AF025EF0AF046EF5A
:101448000AF0000E0001786F000E106E640E0F6E29
:101458008DEC57F0C5EC4DF0000E106E640E0F6E5B
:101468008DEC57F0000E486E260E276EFD0E286E86
:10147800990E296E000E2A6E000E2B6E34EC12F0B7
:1014880033EF12F0000E0F6E050E106ED80E116EAF
:10149800010E126E000E146E050E136E51EC53F011
:1014A8000F501010D8A45BEF0AF05DEF0AF086EF3A
:1014B8000AF000017851D8B464EF0AF066EF0AF038
:1014C80076EF0AF0000E486E5E0E276EFD0E286E4F
:1014D800990E296E000E2A6E080E2B6E34EC12F04F
:1014E80033EF12F0000E486EC70E276EFC0E286E02
:1014F800990E296E000E2A6E000E2B6E34EC12F037
:1015080033EF12F0000E0F6E050E106EDE0E116E28
:10151800010E126E000E146E040E136E51EC53F091
:101528000F501010D8A49BEF0AF09DEF0AF07CEF43
:101538000BF0000E0501FC6F000EFB6F000EFA6F3A
:10154800050E486E000E4824D96EDA6A050EDA22B6
:10155800DF5010EC5EF00009D8B4B5EF0AF0B7EF31
:101568000AF046EF0BF0000E4824D96EDA6A050E31
:10157800DA22000E4824E16EE26A050EE222E75004
:10158800D00FDF6E000E4824D96EDA6A050EDA2213
:10159800DF500401F86FF8510501FB6FFC6BFBC5C8
:1015A8000FF0FCC510F0000E126E0A0E116E3AEC28
:1015B8005EF00FC0FBF510C0FCF5010E4824D96E93
:1015C800DA6A050EDA22010E4824E16EE26A050E97
:1015D800E222E750D00FDF6E010E4824D96EDA6A96
:1015E800050EDA22DF500401F86FF8510501FB25DA
:1015F800FB6F000EFC21FC6FFA2B20EF0BF0FBC5F4
:1016080040F0000E0501FC6F000EFB6F56EF0BF06B
:10161800FBC541F005EF0BF0FBC542F005EF0BF001
:10162800FBC53FF005EF0BF0FBC53EF005EF0BF0F7
:10163800FBC53DF005EF0BF0FA510401F86FF96BAB
:10164800F951000AD8B42BEF0BF056EF0BF0F85114
:10165800010AD8B403EF0BF0030AD8B40CEF0BF06F
:10166800010AD8B410EF0BF0070AD8B414EF0BF046
:10167800010AD8B418EF0BF0030AD8B41CEF0BF02A
:1016880056EF0BF0000E486E430E276EFD0E286EC7
:10169800990E296E000E2A6E000E2B6E34EC12F095
:1016A80033EF12F0030E4826050E0501FA655FEFC9
:1016B8000BF061EF0BF0A6EF0AF0060EFA19D8A4AA
:1016C80068EF0BF06AEF0BF06CEF0BF045EC57F09E
:1016D800000E486E880E276EFA0E286E990E296E37
:1016E800000E2A6E000E2B6E34EC12F033EF12F05F
:1016F800000E0F6E050E106EE30E116E010E126EC7
:10170800000E146E040E136E51EC53F00F501010AF
:10171800D8A491EF0BF093EF0BF04BEF0CF0D6EC55
:1017280054F040C00FF0106A000E126E0A0E116ECF
:101738001CEC54F00F50300F0001856F40C021F0B1
:10174800226A000E246E0A0E236E7EEC54F021509D
:10175800300F0001866F2F0E876F41C00FF0106A9F
:10176800000E126E0A0E116E1CEC54F00F50300F62
:101778000001886F41C021F0226A000E246E0A0E13
:10178800236E7EEC54F02150300F0001896F2F0E2C
:101798008A6F42C00FF0106A000E126E0A0E116EA8
:1017A8001CEC54F00F50300F00018B6F42C021F039
:1017B800226A000E246E0A0E236E7EEC54F021502D
:1017C800300F00018C6F200E8D6F3FC00FF0106A34
:1017D800000E126E0A0E116E1CEC54F00F50300FF2
:1017E80000018E6F3FC021F0226A000E246E0A0E9F
:1017F800236E7EEC54F02150300F00018F6F3A0EAB
:10180800906F3EC00FF0106A000E126E0A0E116E35
:101818001CEC54F00F50300F0001916F3EC021F0C6
:10182800226A000E246E0A0E236E7EEC54F02150BC
:10183800300F0001926F3A0E936F3DC00FF0106A9F
:10184800000E126E0A0E116E1CEC54F00F50300F81
:101858000001946F3DC021F0226A000E246E0A0E2A
:10186800236E7EEC54F02150300F0001956F000E6E
:10187800486E690E276EFE0E286E990E296E000EB0
:101888002A6E030E2B6E34EC12F033EF12F0000EBA
:101898000F6E050E106EC40E116E020E126E000E43
:1018A800146E070E136E51EC53F00F501010D8A49D
:1018B80060EF0CF062EF0CF0BAEF0CF0070EB7EC2B
:1018C8003FF0476E090E47606CEF0CF06EEF0CF0BE
:1018D80076EF0CF0300E0001856F4750310F866FA0
:1018E8008CEF0CF0080E47647CEF0CF07EEF0CF0E8
:1018F8008CEF0CF00C0E476084EF0CF086EF0CF0C8
:101908008CEF0CF0310E0001856F4750270F866F62
:10191800000E486E4750160DDB0EF324D96E080EE4
:10192800F420DA6EDF50D8B49CEF0CF09EEF0CF088
:10193800ACEF0CF0780E276EFE0E286E990E296E0D
:10194800000E2A6E070E2B6E34EC12F033EF12F0F5
:10195800020E276EFB0E286E990E296E000E2A6E57
:10196800020E2B6E34EC12F033EF12F0000E0F6EF5
:10197800050E106EF90E116E000E126E000E146E2A
:10198800020E136E51EC53F00F501010D8A4CFEF85
:101998000CF0D1EF0CF0B4EF0DF08EAED6EF0CF0EA
:1019A800D8EF0CF0E8EF0CF0000E486E9B0E276E97
:1019B800F90E286E990E296E000E2A6E000E2B6EF7
:1019C80034EC12F033EF12F0000E0501FC6F000E3C
:1019D800FB6F000EFA6F010EFA6F030E486E000ED1
:1019E8004824D96EDA6A050EDA22DF5010EC5EF070
:1019F8000009D8B402EF0DF004EF0DF074EF0DF00C
:101A0800010E4824D96EDA6A050EDA22200EDE1895
:101A1800D8A411EF0DF013EF0DF034EF0DF0000E18
:101A28004824D96EDA6A050EDA22000E4824E16EDF
:101A3800E26A050EE222E750D00FDF6E000E48245E
:101A4800D96EDA6A050EDA22DF500401F86FF85110
:101A58000501FB25FB6F000EFC21FC6F8DEF0DF0DF
:101A6800000E4824D96EDA6A050EDA22000E4824E0
:101A7800E16EE26A050EE222E750D00FDF6E000E3B
:101A88004824D96EDA6A050EDA22DF500A0D000EF4
:101A98004824D96EDA6A050EDA22F3CFDFFFFBC5D8
:101AA8000FF0FCC510F0000E126E0A0E116E3AEC23
:101AB8005EF00FC0FBF510C0FCF522EF0DF0FBC582
:101AC80066F0FCC567F0000E0501FC6F000EFB6FA9
:101AD8008BEF0DF0FBC5B6F0FCC5B7F067EF0DF066
:101AE8000501FA510401F86FF96BF951000AD8B4ED
:101AF80080EF0DF08BEF0DF0F851010AD8B463EFC9
:101B08000DF0030AD8B46EEF0DF08BEF0DF0050160
:101B1800FA2B482A020EFA6594EF0DF096EF0DF0B5
:101B2800F3EF0CF0000E106E640E0F6E8DEC57F094
:101B380072EC52F0000E106E640E0F6E8DEC57F0C2
:101B4800000E486E970E276EFB0E286E990E296EB2
:101B5800000E2A6E000E2B6E34EC12F033EF12F0EA
:101B6800000E0F6E050E106ED20E116E010E126E63
:101B7800000E146E050E136E51EC53F00F5010103A
:101B8800D8A4C9EF0DF0CBEF0DF0DBEF0DF0000E90
:101B9800486E2B0E276EFA0E286E990E296E000ECF
:101BA8002A6E050E2B6E34EC12F033EF12F0000E95
:101BB8000F6E050E106EBC0E116E020E126E000E28
:101BC800146E070E136E51EC53F00F501010D8A47A
:101BD800F0EF0DF0F2EF0DF04DEF0EF0070EB7EC51
:101BE8003FF0476E000E106E640E0F6E8DEC57F0CE
:101BF80047501CEC2BF0090E476005EF0EF007EF7D
:101C08000EF00FEF0EF0300E0001856F4750310FC8
:101C1800866F25EF0EF0080E476415EF0EF017EFEC
:101C28000EF025EF0EF00C0E47601DEF0EF01FEFC3
:101C38000EF025EF0EF0310E0001856F4750270F8B
:101C4800866F4E50D8B42BEF0EF02DEF0EF03DEF0F
:101C58000EF0000E4E6EDA0E276EFA0E286E990EF2
:101C6800296E000E2A6E020E2B6E34EC12F033EF42
:101C780012F0000E486E5A0E276EFA0E286E990E54
:101C8800296E000E2A6E060E2B6E34EC12F033EF1E
:101C980012F0000E0F6E050E106EF60E116E010E8C
:101CA800126E000E146E030E136E51EC53F00F50AB
:101CB8001010D8A462EF0EF064EF0EF0B8EF0EF03B
:101CC800030EB7EC3FF0476E000E106E640E0F6EF9
:101CD8008DEC57F08EAE73EF0EF075EF0EF077EFD8
:101CE8000EF0D8EF0CF0090E47607DEF0EF07FEF95
:101CF8000EF087EF0EF0300E0001856F4750310F60
:101D0800866F9DEF0EF0080E47648DEF0EF08FEF93
:101D18000EF09DEF0EF00C0E476095EF0EF097EF6A
:101D28000EF09DEF0EF0310E0001856F4750270F22
:101D3800866F130E106E880E0F6E8DEC57F047C02D
:101D48001CF0010E91EC37F0030E106EE80E0F6ECA
:101D58008DEC57F072EC52F0030E106EE80E0F6E19
:101D68008DEC57F0CBEF0DF0000E0F6E050E106ED8
:101D7800DC0E116E020E126E000E146E060E136E3D
:101D880051EC53F00F501010D8A4CDEF0EF0CFEF58
:101D98000EF00BEF02F0000E0501FC6F000EFB6F5A
:101DA800000EFA6F070E486E000E4824D96EDA6AE4
:101DB800050EDA22DF5010EC5EF00009D8B4E7EF28
:101DC8000EF0E9EF0EF062EF0FF0000E4824D96E26
:101DD800DA6A050EDA22000E4824E16EE26A050E80
:101DE800E222E750D00FDF6E000E4824D96EDA6A7F
:101DF800050EDA22DF500401F86FF8510501FB6F78
:101E0800FC6BFBC50FF0FCC510F0000E126E0A0E3D
:101E1800116E3AEC5EF00FC0FBF510C0FCF5010E38
:101E28004824D96EDA6A050EDA22010E4824E16EDA
:101E3800E26A050EE222E750D00FDF6E010E482459
:101E4800D96EDA6A050EDA22DF500401F86FF8510C
:101E58000501FB25FB6F000EFC21FC6FFA2B48EFF8
:101E68000FF0FBC5F8F5000E0501FC6F000EFB6FC7
:101E780062EF0FF0FBC5F9F537EF0FF00501FB51E5
:101E880027EC33F037EF0FF0FA510401F86FF96BD4
:101E9800F951000AD8B453EF0FF062EF0FF0F85180
:101EA800010AD8B435EF0FF0030AD8B43EEF0FF0AB
:101EB800010AD8B442EF0FF062EF0FF0030E482684
:101EC800020E0501FA656BEF0FF06DEF0FF0D8EF1A
:101ED8000EF0000E476EF2EF10F04750160DCC0EC4
:101EE800F324D96E080EF420DA6E0F0EDF6E475019
:101EF800160DCD0EF324D96E080EF420DA6E010EFD
:101F0800DF6E4750160DCE0EF324D96E080EF4205E
:101F1800DA6EF8C5DFFF4750160DCF0EF324D96EE1
:101F2800080EF420DA6EF9C5DFFF4750160DD00E03
:101F3800F324D96E080EF420DA6E38C0DFFF47505C
:101F4800160DD10EF324D96E080EF420DA6E3BC0BC
:101F5800DFFF4750160DD20EF324D96E080EF42079
:101F6800DA6E3CC0DFFF4750160DC80EF324D96E59
:101F7800080EF420DA6E640EDE6E000EDD6E475039
:101F8800160DCA0EF324D96E080EF420DA6E300E40
:101F9800DE6E750EDD6E4750160DD60EF324D96E23
:101FA800080EF420DA6E4728DF6E4750160DDA0E59
:101FB800F324D96E080EF420DA6E000EDF6E475057
:101FC800160DD80EF324D96E080EF420DA6E020E20
:101FD800DF6E4750160DD90EF324D96E080EF42083
:101FE800DA6E020EDF6E4750160DDB0EF324D96E43
:101FF800080EF420DA6E010EDF6E4750160DD30E70
:10200800F324D96E080EF420DA6E050EDF6E475001
:10201800160DD40EF324D96E080EF420DA6E0F0EC6
:10202800DF6E4750160DD50EF324D96E080EF42036
:10203800DA6E4728DF6E4750160DD70EF324D96E97
:10204800080EF420DA6E000EDF6E4750160DDD0E16
:10205800F324D96E080EF420DA6E000EDF6E4750B6
:10206800160DDC0EF324D96E080EF420DA6E010E7C
:10207800DF6E4750020DCD0EF324F66EF20EF420FB
:10208800F76E0900F5CF17F00A00F5CF18F04750A2
:10209800160DC80EF324196E080EF4201A6E28ECDB
:1020A80046F0000E106E640E0F6E8DEC57F0475020
:1020B800020DCD0EF324F66EF20EF420F76E090031
:1020C800F5CF17F00A00F5CF18F04750160DC80ED7
:1020D800F324196E080EF4201A6EFCEC56F0000E6C
:1020E800106E640E0F6E8DEC57F04750020DCD0E3A
:1020F800F324F66EF20EF420F76E0900F5CF17F010
:102108000A00F5CF18F04750160DC80EF324196EC3
:10211800080EF4201A6E27EC5DF0000E106E640EA7
:102128000F6E8DEC57F04750020DCD0EF324F66E6E
:10213800F20EF420F76E0900F5CF17F00A00F5CF7C
:1021480018F04750160DC80EF324196E080EF42027
:102158001A6E0AEC5DF0000E106E640E0F6E8DECB8
:1021680057F04750020DCD0EF324F66EF20EF42010
:10217800F76E0900F5CF17F00A00F5CF18F04750B1
:10218800160DC80EF324196E080EF4201A6EEDEC25
:102198005CF0000E106E640E0F6E8DEC57F0475019
:1021A800020DCD0EF324F66EF20EF420F76E090040
:1021B800F5CF17F00A00F5CF18F04750160DC80EE6
:1021C800F324196E080EF4201A6E62EC4EF0000E1D
:1021D800106E640E0F6E8DEC57F0472A0B0E476495
:1021E800F8EF10F0FAEF10F071EF0FF0000E486EF4
:1021F800360E276EFE0E286E990E296E000E2A6E78
:10220800000E2B6E34EC12F033EF12F0000E0F6E4E
:10221800050E106EFC0E116E000E126E000E146E7E
:10222800020E136E51EC53F00F501010D8A41FEF8C
:1022380011F021EF11F0C6EF11F0030E0F6E050E2D
:10224800106EAB0E116E000E126E000E146E060E9E
:10225800136E51EC53F00F501010D8A436EF11F054
:1022680038EF11F0A8EF11F05050D8B43EEF11F04C
:1022780040EF11F04EEF11F0000E486E360E276E4B
:10228800F90E286E990E296E000E2A6E010E2B6E1D
:1022980034EC12F0AB0E0F6E000E106E0A0E116EBB
:1022A800050E126E000E146E060E136E15EC58F025
:1022B800990E0F6E000E106E850E116E000E126EC6
:1022C800000E146E0A0E136E15EC58F0010E506EC7
:1022D800850E0F6E000E106EF10E116E020E126E4C
:1022E800000E146E0A0E136E15EC58F0000E106EE8
:1022F800320E0F6E8DEC57F0ABEC59F0000E106EED
:10230800320E0F6E8DEC57F0E1EC59F0000E106EA6
:10231800320E0F6E8DEC57F07AEC5DF0000E106EF9
:10232800320E0F6E8DEC57F0000E486EF60E276ECB
:10233800FD0E286E990E296E000E2A6E000E2B6E69
:1023480034EC12F033EF12F0000E486EDF0E276EF9
:10235800FD0E286E850E296E000E2A6E000E2B6E5D
:1023680034EC12F0850E0F6E000E106EF10E116E29
:10237800020E126E000E146E0A0E136E15EC58F053
:1023880033EF12F0000E0F6E050E106EED0E116E8B
:10239800010E126E000E146E040E136E51EC53F003
:1023A8000F501010D8A4DBEF11F0DDEF11F0EDEFB6
:1023B80011F0000E486E0D0E276EFE0E286E850E6B
:1023C800296E000E2A6E000E2B6E34EC12F0B6EF5A
:1023D80011F0000E0F6E050E106EEC0E116E040E4D
:1023E800126E000E146E0B0E136E51EC53F00F505C
:1023F8001010D8A402EF12F004EF12F014EF12F04C
:10240800000E486E5A0E276EFE0E286E850E296E37
:10241800000E2A6E040E2B6E34EC12F0B6EF11F09B
:10242800000E0F6E060EBAEC5EF003EF02F095ECAC
:102438005DF0000E0F6E070EBAEC5EF0030E106E24
:10244800E80E0F6E8DEC57F033EF12F095EC5DF05F
:10245800000E0F6E080EBAEC5EF003EF02F01200E9
:102468001E0E0001736F8A0E176EFF0E186EAEEC0B
:102478005CF0000E106E320E0F6E8DEC57F029C016
:1024880017F02AC018F00A0E196ECFEC5CF0000E97
:10249800106E320E0F6E8DEC57F0F60E176EFE0EA4
:1024A800186EAEEC5CF0000E106E640E0F6E8DECC4
:1024B80057F027C017F028C018F0AEEC5CF0000EFB
:1024C800106E640E0F6E8DEC57F022EF1BF0850E28
:1024D800176E000E186E0A0E196ECFEC5CF0000E27
:1024E800106E640E0F6E8DEC57F04FEF1BF0850EDB
:1024F800176E000E186E020E196ECFEC5CF073EFBB
:1025080012F0850E176E000E186E110E196ECFECB4
:102518005CF073EF12F0A40E176E000E186E060E24
:10252800196ECFEC5CF073EF12F066C034F067C040
:1025380035F034C015F035C016F0030E186EE80EED
:10254800176ECEEC58F01550300F0001936F34C061
:102558000FF035C010F0030E126EE80E116E81EC0C
:102568005AF00FC034F010C035F034C015F035C043
:1025780016F0000E186E640E176ECEEC58F015505B
:10258800300F0001946F34C00FF035C010F0000E0A
:10259800126E640E116E81EC5AF00FC034F010C048
:1025A80035F034C015F035C016F0000E186E0A0E5E
:1025B800176ECEEC58F01550300F0001956F34C0EF
:1025C8000FF035C010F0000E126E0A0E116E81EC7D
:1025D8005AF00FC034F010C035F03450300F0001FD
:1025E800966F930E176E000E186E040E196ECFECD0
:1025F8005CF0000E106E320E0F6E8DEC57F0DE0E92
:10260800176EFF0E186EAEEC5CF0000E106E320EF8
:102618000F6E8DEC57F0B6C034F0B7C035F034C04B
:1026280015F035C016F0030E186EE80E176ECEECD6
:1026380058F01550300F0001936F34C00FF035C0BB
:1026480010F0030E126EE80E116E81EC5AF00FC0F6
:1026580034F010C035F034C015F035C016F0000E57
:10266800186E640E176ECEEC58F01550300F00013E
:10267800946F34C00FF035C010F0000E126E640E67
:10268800116E81EC5AF00FC034F010C035F034C030
:1026980015F035C016F0000E186E0A0E176ECEEC47
:1026A80058F01550300F0001956F34C00FF035C049
:1026B80010F0000E126E0A0E116E81EC5AF00FC067
:1026C80034F010C035F03450300F0001966F930E7F
:1026D800176E000E186E040E196ECFEC5CF073EFD7
:1026E80012F0850E176E000E186E020E196ECFECE2
:1026F8005CF0000E106E320E0F6E8DEC57F0F60E79
:10270800176EFF0E186EAEEC5CF0000E106E320EF7
:102718000F6E8DEC57F060C034F061C035F034C0F6
:1027280015F035C016F0270E186E100E176ECEEC89
:1027380058F01550300F0001936F34C00FF035C0BA
:1027480010F0270E126E100E116E81EC5AF00FC0A9
:1027580034F010C035F034C015F035C016F0030E53
:10276800186EE80E176ECEEC58F01550300F0001B9
:10277800946F34C00FF035C010F0030E126EE80EDF
:10278800116E81EC5AF00FC034F010C035F034C02F
:1027980015F035C016F0000E186E640E176ECEECEC
:1027A80058F01550300F0001956F34C00FF035C048
:1027B80010F0000E126E640E116E81EC5AF00FC00C
:1027C80034F010C035F034C015F035C016F0000EE6
:1027D800186E0A0E176ECEEC58F01550300F000127
:1027E800966F34C00FF035C010F0000E126E0A0E4E
:1027F800116E81EC5AF00FC034F010C035F034502F
:10280800300F0001976F930E176E000E186E050EAD
:10281800196ECFEC5CF073EF12F0000E106E0A0E1A
:102828000F6E8DEC57F0850E176E000E186E020EA7
:10283800196ECFEC5CF0000E106E0A0E0F6E8DEC68
:1028480057F0C10E176EFF0E186EAEEC5CF0000E5E
:10285800106E0A0E0F6E8DEC57F04750160DCC0E09
:10286800F324D96E080EF420DA6EDF500001866F6B
:1028780086C00FF0106A000E126E640E116E1CEC0A
:1028880054F00F50300F0001856F850E176E000E43
:10289800186E010E196ECFEC5CF0000E106E0A0E69
:1028A8000F6E8DEC57F086C021F0226A000E246E60
:1028B800640E236E7EEC54F021500001866F86C0B2
:1028C8000FF0106A000E126E0A0E116E1CEC54F016
:1028D8000F50300F0001856F850E176E000E186EB1
:1028E800010E196ECFEC5CF0000E106E0A0E0F6E22
:1028F8008DEC57F086C021F0226A000E246E0A0E75
:10290800236E7EEC54F021500001866F8651300F03
:10291800856F850E176E000E186E010E196ECFECBE
:102928005CF0000E106E0A0E0F6E8DEC57F0AF0EB5
:10293800176EFF0E186EAEEC5CF0000E106E0A0EED
:102948000F6E8DEC57F04750160DCD0EF324D96E4F
:10295800080EF420DA6EDF500001866F86C021F081
:10296800226A000E246E640E236E7EEC54F0215011
:102978000001866F86C00FF0106A000E126E0A0EF4
:10298800116E1CEC54F00F50300F0001856F850E4E
:10299800176E000E186E010E196ECFEC5CF0000E6B
:1029A800106E0A0E0F6E8DEC57F086C021F0226A69
:1029B800000E246E0A0E236E7EEC54F021500001A6
:1029C800866F8651300F856F850E176E000E186E54
:1029D800010E196ECFEC5CF0000E106E0A0E0F6E31
:1029E8008DEC57F0F00E176EFF0E186EAEEC5CF023
:1029F800000E106E0A0E0F6E8DEC57F04750160D34
:102A0800C80EF324D96E080EF420DA6EDECF34F047
:102A1800DDCF35F034C015F035C016F0000E186E55
:102A2800640E176ECEEC58F01550300F0001856F0C
:102A3800850E176E000E186E010E196ECFEC5CF045
:102A4800000E106E0A0E0F6E8DEC57F034C00FF0AA
:102A580035C010F0000E126E640E116E81EC5AF043
:102A68000FC034F010C035F034C015F035C016F082
:102A7800000E186E0A0E176ECEEC58F01550300F77
:102A88000001856F850E176E000E186E010E196E07
:102A9800CFEC5CF0000E106E0A0E0F6E8DEC57F046
:102AA80034C00FF035C010F0000E126E0A0E116E11
:102AB80081EC5AF00FC034F010C035F03450300FAC
:102AC8000001856F850E176E000E186E010E196EC7
:102AD800CFEC5CF0000E106E0A0E0F6E8DEC57F006
:102AE800EA0E176EFF0E186EAEEC5CF0000E106E5C
:102AF8000A0E0F6E8DEC57F04750160DCA0EF324D0
:102B0800D96E080EF420DA6EDECF34F0DDCF35F062
:102B180034C015F035C016F0000E186E640E176E2E
:102B2800CEEC58F01550300F0001856F850E176EEA
:102B3800000E186E010E196ECFEC5CF0000E106ED0
:102B48000A0E0F6E8DEC57F034C00FF035C010F040
:102B5800000E126E640E116E81EC5AF00FC034F044
:102B680010C035F034C015F035C016F0000E186EE0
:102B78000A0E176ECEEC58F01550300F0001856F15
:102B8800850E176E000E186E010E196ECFEC5CF0F4
:102B9800000E106E0A0E0F6E8DEC57F034C00FF059
:102BA80035C010F0000E126E0A0E116E81EC5AF04C
:102BB8000FC034F010C035F03450300F0001856F6D
:102BC800850E176E000E186E010E196ECFEC5CF0B4
:102BD800000E106E0A0E0F6E8DEC57F0740E176E05
:102BE800FF0E186EAEEC5CF0000E106E0A0E0F6E43
:102BF8008DEC57F04750160DD00EF324D96E080E01
:102C0800F420DA6EDF500001866F86C021F0226A58
:102C1800000E246E640E236E7EEC54F021500001E9
:102C2800866F86C00FF0106A000E126E0A0E116EC3
:102C38001CEC54F00F50300F0001856F850E176E95
:102C4800000E186E010E196ECFEC5CF0000E106EBF
:102C58000A0E0F6E8DEC57F086C021F0226A000E26
:102C6800246E0A0E236E7EEC54F021500001866F0C
:102C78008651300F856F850E176E000E186E010E87
:102C8800196ECFEC5CF0000E106E0A0E0F6E8DEC14
:102C980057F04750160DD10EF324D96E080EF420C4
:102CA800DA6EDF500001866F86C021F0226A000EBE
:102CB800246E640E236E7EEC54F021500001866F62
:102CC80086C00FF0106A000E126E0A0E116E1CEC10
:102CD80054F00F50300F0001856F850E176E000EEF
:102CE800186E010E196ECFEC5CF0000E106E0A0E15
:102CF8000F6E8DEC57F086C021F0226A000E246E0C
:102D08000A0E236E7EEC54F021500001866F865126
:102D1800300F856F850E176E000E186E010E196E36
:102D2800CFEC5CF0000E106E0A0E0F6E8DEC57F0B3
:102D38004750160DD20EF324D96E080EF420DA6E21
:102D4800DF500001866F86C021F0226A000E246ED3
:102D5800640E236E7EEC54F021500001866F86C00D
:102D68000FF0106A000E126E0A0E116E1CEC54F071
:102D78000F50300F0001856F850E176E000E186E0C
:102D8800010E196ECFEC5CF0000E106E0A0E0F6E7D
:102D98008DEC57F086C021F0226A000E246E0A0ED0
:102DA800236E7EEC54F021500001866F8651300F5F
:102DB800856F850E176E000E186E010E196ECFEC1A
:102DC8005CF0000E106E0A0E0F6E8DEC57F0FB0EC5
:102DD800176EFF0E186EAEEC5CF0000E106E0A0E49
:102DE8000F6E8DEC57F04750160DCE0EF324D96EAA
:102DF800080EF420DA6EDF500001866F86C021F0DD
:102E0800226A000E246E640E236E7EEC54F021506C
:102E18000001866F86C00FF0106A000E126E0A0E4F
:102E2800116E1CEC54F00F50300F0001856F850EA9
:102E3800176E000E186E010E196ECFEC5CF0000EC6
:102E4800106E0A0E0F6E8DEC57F086C021F0226AC4
:102E5800000E246E0A0E236E7EEC54F02150000101
:102E6800866F8651300F856F850E176E000E186EAF
:102E7800010E196ECFEC5CF0000E106E0A0E0F6E8C
:102E88008DEC57F0B60E176EFF0E186EAEEC5CF0B8
:102E9800000E106E0A0E0F6E8DEC57F04750160D8F
:102EA800CF0EF324D96E080EF420DA6EDF5000013D
:102EB800866F86C021F0226A000E246E640E236E8F
:102EC8007EEC54F021500001866F86C00FF0106A26
:102ED800000E126E0A0E116E1CEC54F00F50300FDB
:102EE8000001856F850E176E000E186E010E196EA3
:102EF800CFEC5CF0000E106E0A0E0F6E8DEC57F0E2
:102F080086C021F0226A000E246E0A0E236E7EEC23
:102F180054F021500001866F8651300F856F850E61
:102F2800176E000E186E010E196ECFEC5CF0000ED5
:102F3800106E0A0E0F6E8DEC57F0F70E176EFE0E20
:102F4800186EAEEC5CF04750160DDC0EF324D96E0B
:102F5800080EF420DA6EDF50D8B4B5EF17F0B7EFEB
:102F680017F021EF19F0870E176EFE0E186EAEECF3
:102F78005CF0000E106E0A0E0F6E8DEC57F0475085
:102F8800160DD30EF324D96E080EF420DA6EDF5036
:102F98000001866F86C00FF0106A000E126E640E74
:102FA800116E1CEC54F00F50300F0001856F850E28
:102FB800176E000E186E010E196ECFEC5CF0000E45
:102FC800106E0A0E0F6E8DEC57F086C021F0226A43
:102FD800000E246E640E236E7EEC54F02150000126
:102FE800866F86C00FF0106A000E126E0A0E116E00
:102FF8001CEC54F00F50300F0001856F850E176ED2
:10300800000E186E010E196ECFEC5CF0000E106EFB
:103018000A0E0F6E8DEC57F086C021F0226A000E62
:10302800246E0A0E236E7EEC54F021500001866F48
:103038008651300F856F850E176E000E186E010EC3
:10304800196ECFEC5CF0000E106E0A0E0F6E8DEC50
:1030580057F0C10E176EFF0E186EAEEC5CF0000E46
:10306800106E0A0E0F6E8DEC57F04750160DD40EE9
:10307800F324D96E080EF420DA6EDF500001866F53
:1030880086C00FF0106A000E126E640E116E1CECF2
:1030980054F00F50300F0001856F850E176E000E2B
:1030A800186E010E196ECFEC5CF0000E106E0A0E51
:1030B8000F6E8DEC57F086C021F0226A000E246E48
:1030C800640E236E7EEC54F021500001866F86C09A
:1030D8000FF0106A000E126E0A0E116E1CEC54F0FE
:1030E8000F50300F0001856F850E176E000E186E99
:1030F800010E196ECFEC5CF0000E106E0A0E0F6E0A
:103108008DEC57F086C021F0226A000E246E0A0E5C
:10311800236E7EEC54F021500001866F8651300FEB
:10312800856F850E176E000E186E010E196ECFECA6
:103138005CF0000E106E0A0E0F6E8DEC57F0470E05
:10314800176EFF0E186EAEEC5CF0000E106E0A0ED5
:103158000F6E8DEC57F04750160DD50EF324D96E2F
:10316800080EF420DA6EDF500001866F86C00FF07B
:10317800106A000E126E640E116E1CEC54F00F50A3
:10318800300F0001856F850E176E000E186E010E48
:10319800196ECFEC5CF0000E106E0A0E0F6E8DECFF
:1031A80057F086C021F0226A000E246E640E236E4A
:1031B8007EEC54F021500001866F86C00FF0106A33
:1031C800000E126E0A0E116E1CEC54F00F50300FE8
:1031D8000001856F850E176E000E186E010E196EB0
:1031E800CFEC5CF0000E106E0A0E0F6E8DEC57F0EF
:1031F80086C021F0226A000E246E0A0E236E7EEC31
:1032080054F021500001866F8651300F856F850E6E
:10321800176E000E186E010E196ECFEC5CF0000EE2
:10322800106E0A0E0F6E8DEC57F0F70E176EFE0E2D
:10323800186EAEEC5CF04FEF1BF0A70E176EFE0E8B
:10324800186EAEEC5CF0000E106E0A0E0F6E8DEC70
:1032580057F04FEF1BF0000E106E0A0E0F6E8DEC3C
:1032680057F05E0E176EFF0E186EAEEC5CF0000E97
:10327800106E0A0E0F6E8DEC57F06CC086F086C08B
:1032880021F0226A000E246E640E236E7EEC54F048
:1032980021500001866F86C00FF0106A000E126E72
:1032A8000A0E116E1CEC54F00F50300F0001856FA0
:1032B800850E176E000E186E010E196ECFEC5CF0BD
:1032C800000E106E0A0E0F6E8DEC57F086C021F0BE
:1032D800226A000E246E0A0E236E7EEC54F02150F2
:1032E8000001866F8651300F856F850E176E000EB0
:1032F800186E010E196ECFEC5CF0000E106E0A0EFF
:103308000F6E8DEC57F0D70E176EFF0E186EAEECE1
:103318005CF0000E106E0A0E0F6E8DEC57F09D0ECD
:10332800176EFF0E186EAEEC5CF0000E106E0A0EF3
:103338000F6E8DEC57F06BC086F086C021F0226AC4
:10334800000E246E640E236E7EEC54F021500001B2
:10335800866F86C00FF0106A000E126E0A0E116E8C
:103368001CEC54F00F50300F0001856F850E176E5E
:10337800000E186E010E196ECFEC5CF0000E106E88
:103388000A0E0F6E8DEC57F086C021F0226A000EEF
:10339800246E0A0E236E7EEC54F021500001866FD5
:1033A8008651300F856F850E176E000E186E010E50
:1033B800196ECFEC5CF0000E106E0A0E0F6E8DECDD
:1033C80057F0D70E176EFF0E186EAEEC5CF0000EBD
:1033D800106E0A0E0F6E8DEC57F0A60E176EFF0ECC
:1033E800186EAEEC5CF0000E106E0A0E0F6E8DECCF
:1033F80057F06AC086F086C021F0226A000E246E5B
:10340800640E236E7EEC54F021500001866F86C056
:103418000FF0106A000E126E0A0E116E1CEC54F0BA
:103428000F50300F0001856F850E176E000E186E55
:10343800010E196ECFEC5CF0000E106E0A0E0F6EC6
:103448008DEC57F086C021F0226A000E246E0A0E19
:10345800236E7EEC54F021500001866F8651300FA8
:10346800856F850E176E000E186E010E196ECFEC63
:103478005CF0000E106E0A0E0F6E8DEC57F0E40E25
:10348800176EFF0E186EAEEC5CF0000E106E0A0E92
:103498000F6E8DEC57F0690E176EFF0E186EAEECBE
:1034A8005CF0000E106E0A0E0F6E8DEC57F03AC0ED
:1034B80086F086C021F0226A000E246E640E236E08
:1034C8007EEC54F021500001866F86C00FF0106A20
:1034D800000E126E0A0E116E1CEC54F00F50300FD5
:1034E8000001856F850E176E000E186E010E196E9D
:1034F800CFEC5CF0000E106E0A0E0F6E8DEC57F0DC
:1035080086C021F0226A000E246E0A0E236E7EEC1D
:1035180054F021500001866F8651300F856F850E5B
:10352800176E000E186E010E196ECFEC5CF0000ECF
:10353800106E0A0E0F6E8DEC57F0D70E176EFF0E39
:10354800186EAEEC5CF0000E106E0A0E0F6E8DEC6D
:1035580057F0D80E176EFE0E186EAEEC5CF0000E2B
:10356800106E0A0E0F6E8DEC57F069C086F086C09B
:103578000FF0106A000E126E640E116E1CEC54F0FF
:103588000F50300F0001856F850E176E000E186EF4
:10359800010E196ECFEC5CF0000E106E0A0E0F6E65
:1035A8008DEC57F086C021F0226A000E246E640E5E
:1035B800236E7EEC54F021500001866F86C00FF018
:1035C800106A000E126E0A0E116E1CEC54F00F50A9
:1035D800300F0001856F850E176E000E186E010EF4
:1035E800196ECFEC5CF0000E106E0A0E0F6E8DECAB
:1035F80057F086C021F0226A000E246E0A0E236E50
:103608007EEC54F021500001866F8651300F856F93
:10361800850E176E000E186E010E196ECFEC5CF059
:10362800000E106E0A0E0F6E8DEC57F0E40E176E3A
:10363800FF0E186EAEEC5CF027EF19F02B502C6ED5
:103648002D6A2D50000AD8B42CEF1BF04FEF1BF059
:103658002C50010AD8B46BEF12F0030AD8B47BEFF0
:1036680012F0010AD8B485EF12F0070AD8B48FEF28
:1036780012F0010AD8B499EF12F0030AD8B475EF22
:1036880013F0010AD8B411EF14F00F0AD8B42FEFD1
:1036980019F04FEF1BF0000E4D6E000E486E1A0E1B
:1036A80086EC5EF0000E106E640E0F6E8DEC57F017
:1036B800000E0F6E000EBAEC5EF0C9804D50D8B403
:1036C80068EF1BF06AEF1BF062EF1BF00E01388504
:1036D800000E0F6E0F0EBAEC5EF0010E106EF40EB7
:1036E8000F6E8DEC57F01200000E0001FF6FD7A28D
:1036F80080EF1BF082EF1BF0ACEF1BF0D7A487EF35
:103708001BF089EF1BF0ACEF1BF0D7A68EEF1BF078
:1037180090EF1BF0ACEF1BF0D7A095EF1BF097EFE5
:103728001BF0ACEF1BF0D7A89CEF1BF09EEF1BF033
:10373800ACEF1BF0D7BEA3EF1BF0A5EF1BF0ACEF6F
:103748001BF0D7ACAAEF1BF0ACEF1BF0B0EF1EF0EC
:10375800D7A2B1EF1BF0B3EF1BF0BAEF1BF0D7B055
:10376800B8EF1BF0BAEF1BF0BFEF1BF0D786D7847A
:10377800D788D79ED79CD7B2C4EF1BF0C6EF1BF0F3
:10378800CBEF1BF0010EFF6FD7820FEF1CF0D7B005
:10379800D0EF1BF0D2EF1BF0D7EF1BF0020EFF6F3C
:1037A800D7800FEF1CF0D7B6DCEF1BF0DEEF1BF075
:1037B800E3EF1BF0030EFF6FD7860FEF1CF0D7B4B3
:1037C800E8EF1BF0EAEF1BF0EFEF1BF0040EFF6FC2
:1037D800D7840FEF1CF0D7B8F4EF1BF0F6EF1BF00F
:1037E800FBEF1BF0050EFF6FD7880FEF1CF0D7BE5D
:1037F80000EF1CF002EF1CF009EF1CF0D7AC07EF4C
:103808001CF009EF1CF00FEF1CF0060EFF6FD79E9F
:10381800D79C0FEF1CF0030EFF19D8B416EF1CF05D
:1038280018EF1CF01EEF1CF0750E106E300E0F6EA8
:103838008DEC57F07CEC4AF0030E106EE80E0F6E1C
:103848008DEC57F0C2EC3DF0030E106EE80E0F6ED3
:103858008DEC57F026EC4DF0030E106EE80E0F6E4F
:103868008DEC57F086EC4CF0030E106EE80E0F6EE0
:103878008DEC57F000017651D8A445EF1CF047EFC6
:103888001CF04FEF1CF0010E766F1FEC56F03FEC6A
:1038980059F009EC5CF0030E0001FF19D8A457EFAA
:1038A8001CF059EF1CF0AEEF1EF0000E476E74EFDF
:1038B8001CF0010E0F6E000EBAEC5EF0010E106ED9
:1038C800F40E0F6E8DEC57F0010E0F6E0F0EBAEC62
:1038D8005EF0010E106EF40E0F6E8DEC57F0472A55
:1038E800050E47607AEF1CF07CEF1CF085EF1CF0AA
:1038F80000017151D8B483EF1CF085EF1CF05DEF27
:103908001CF000017151D8A48CEF1CF08EEF1CF054
:103918007CEF1EF0010E476E090E476496EF1CF00F
:1039280098EF1CF09AEF1CF0ACEF1CF00001712B23
:10393800E8EC5BF0010E0F6E4750BAEC5EF0270E14
:10394800106E100E0F6E8DEC57F0472A90EF1CF09A
:10395800000E0001716FE8EC5BF0AEEF1EF0000E98
:103968000001716FE8EC5BF0000E476E040E4764CF
:10397800C0EF1CF0C2EF1CF0C4EF1CF0DDEF1CF030
:10398800010E0F6E0F0EBAEC5EF0010E106EF40E03
:103998000F6E8DEC57F0010E0F6E010EBAEC5EF053
:1039A800030E106EE80E0F6E8DEC57F0472ABAEF33
:1039B8001CF0000E1C6E020E91EC37F08E9E000E6D
:1039C800486E2B0E276EFA0E286E990E296E000E81
:1039D8002A6E050E2B6E34EC12F0ACEF1CF0000EC4
:1039E8000001716FE8EC5BF0000E476E040E47644F
:1039F80000EF1DF002EF1DF004EF1DF01DEF1DF0AC
:103A0800010E0F6E0F0EBAEC5EF0010E106EF40E82
:103A18000F6E8DEC57F0010E0F6E020EBAEC5EF0D1
:103A2800030E106EE80E0F6E8DEC57F0472AFAEF72
:103A38001CF0000E1C6E010E91EC37F0E3EF1CF049
:103A4800000E0001716FE8EC5BF0000E476E040E8B
:103A5800476431EF1DF033EF1DF035EF1DF04EEFE9
:103A68001DF0010E0F6E0F0EBAEC5EF0010E106E17
:103A7800F40E0F6E8DEC57F0010E0F6E030EBAECBC
:103A88005EF0030E106EE80E0F6E8DEC57F0472AAD
:103A98002BEF1DF046EC41F0ACEF1CF0000E0001DE
:103AA800716FE8EC5BF0000E476E040E47645FEF41
:103AB8001DF061EF1DF063EF1DF0ACEF1CF0010E7F
:103AC8000F6E0F0EBAEC5EF0010E106EF40E0F6E54
:103AD8008DEC57F0010E0F6E040EBAEC5EF0030E7B
:103AE800106EE80E0F6E8DEC57F0472A59EF1DF057
:103AF800000E0001716FE8EC5BF0000E476E040EDB
:103B0800476489EF1DF08BEF1DF08DEF1DF0ACEFD2
:103B18001CF0010E0F6E0F0EBAEC5EF0010E106E67
:103B2800F40E0F6E8DEC57F0010E0F6E050EBAEC09
:103B38005EF0030E106EE80E0F6E8DEC57F0472AFC
:103B480083EF1DF0000E0001716FE8EC5BF0000ED2
:103B5800476E040E4764B3EF1DF0B5EF1DF0B7EFE5
:103B68001DF0ACEF1CF0010E0F6E0F0EBAEC5EF0FC
:103B7800010E106EF40E0F6E8DEC57F0010E0F6EE5
:103B8800060EBAEC5EF0030E106EE80E0F6E8DECAA
:103B980057F0472AADEF1DF0000E0001716FE8ECF9
:103BA8005BF05050D8B4DBEF1DF0DDEF1DF0ACEF4B
:103BB8001CF0000E476E040E4764E5EF1DF0E7EFBA
:103BC8001DF0E9EF1DF002EF1EF0010E0F6E0F0E53
:103BD800BAEC5EF0010E106EF40E0F6E8DEC57F01D
:103BE800010E0F6E070EBAEC5EF0030E106EE80EB3
:103BF8000F6E8DEC57F0472ADFEF1DF013EC47F0FE
:103C0800DEEC5AF0030E106EE80E0F6E8DEC57F0D6
:103C1800C2EC3DF0ACEF1CF0000E0001716FE8EC57
:103C28005BF05050D8B41BEF1EF01DEF1EF0ACEF48
:103C38001CF0000E476E040E476425EF1EF027EFB8
:103C48001EF029EF1EF042EF1EF0010E0F6E0F0E50
:103C5800BAEC5EF0010E106EF40E0F6E8DEC57F09C
:103C6800010E0F6E080EBAEC5EF0030E106EE80E31
:103C78000F6E8DEC57F0472A1FEF1EF013EC47F03C
:103C880006EF1EF0000E0001716FE8EC5BF050507B
:103C9800D8B451EF1EF053EF1EF0ACEF1CF0000E3D
:103CA800476E040E47645BEF1EF05DEF1EF05FEF9A
:103CB8001EF078EF1EF0010E0F6E0F0EBAEC5EF0DC
:103CC800010E106EF40E0F6E8DEC57F0010E0F6E94
:103CD800090EBAEC5EF0030E106EE80E0F6E8DEC56
:103CE80057F0472A55EF1EF0DEEC5AF006EF1EF0AB
:103CF80071510101FE6FFF6BFF51000AD8B487EFC5
:103D08001EF0ACEF1CF0FE51010AD8B4B3EF1CF062
:103D1800030AD8B4F3EF1CF0010AD8B424EF1DF05D
:103D2800070AD8B452EF1DF0010AD8B47CEF1DF091
:103D3800030AD8B4A6EF1DF0010AD8B4D0EF1DF0DD
:103D48000F0AD8B410EF1EF0010AD8B446EF1EF0DF
:103D5800ACEF1CF0B3EC5AF05050D8B4B6EF1EF0EC
:103D6800B8EF1EF09DEF21F08DEC5CF00009D8B49F
:103D7800C0EF1EF0C2EF1EF0D7EF1EF0FF0E376E39
:103D8800DC0E366EA10E276EF70E286E990E296E80
:103D9800000E2A6E000E2B6E34EC12F0010E00019C
:103DA800796FC1EF21F0000E0001706F000E476EB1
:103DB80033EF20F04750160DDA0EF324D96E080EB3
:103DC800F420DA6EDE04D8A4ECEF1EF0EEEF1EF05D
:103DD80032EF20F0D6EC54F04750160DD20EF324F3
:103DE800D96E080EF420DA6E4250DE5CD8A0FFEFE0
:103DF8001EF001EF1FF09AEF1FF04750160DD10E7D
:103E0800F324D96E080EF420DA6E4150DE5CD8B087
:103E180010EF1FF012EF1FF023EF1FF04750160DA1
:103E2800D20EF324D96E080EF420DA6E4250DE1852
:103E3800D8B421EF1FF023EF1FF09AEF1FF047507F
:103E4800160DD00EF324D96E080EF420DA6E405009
:103E5800DE5CD8B032EF1FF034EF1FF056EF1FF0E2
:103E68004750160DD10EF324D96E080EF420DA6EE1
:103E78004150DE18D8A443EF1FF045EF1FF056EF6E
:103E88001FF04750160DD20EF324D96E080EF420F9
:103E9800DA6E4250DE18D8B454EF1FF056EF1FF018
:103EA8009AEF1FF04750160DCE0EF324D96E080E68
:103EB800F420DA6E3F50DE5CD8B065EF1FF067EF94
:103EC8001FF02CEF20F04750160DD00EF324D96EBA
:103ED800080EF420DA6E4050DE18D8A476EF1FF0F2
:103EE80078EF1FF02CEF20F04750160DD10EF32479
:103EF800D96E080EF420DA6E4150DE18D8A487EF88
:103F08001FF089EF1FF02CEF20F04750160DD20E4E
:103F1800F324D96E080EF420DA6E4250DE18D8A4C5
:103F280098EF1FF09AEF1FF02CEF20F0000E4B6E69
:103F38004750160DDA0EF324D96E080EF420DA6E07
:103F4800000EDF6E4750160DD80EF324D96E080EFA
:103F5800F420DA6E4750160DD90EF324E16E080EE0
:103F6800F420E26EDFCFE7FF47C070F04750160D30
:103F7800DC0EF324D96E080EF420DA6EDF50D8B4C4
:103F8800C8EF1FF0CAEF1FF024EF20F04750160DBE
:103F9800D70EF324D96E080EF420DA6E020EDE185E
:103FA800D8A4D9EF1FF0DBEF1FF0F9EF1FF047504F
:103FB800160DD70EF324D96E080EF420DA6E000E13
:103FC800DF6E4750160DDD0EF324D96E080EF4206F
:103FD800DA6E010EDF6E7BEC55F019C064F01AC082
:103FE80065F057EC58F024EF20F04750160DD70E27
:103FF800F324D96E080EF420DA6E030EDE18D8B456
:1040080008EF20F00AEF20F01AEF20F04750160DC5
:10401800D70EF324D96E080EF420DA6EDE04D8A485
:1040280018EF20F01AEF20F024EF20F04750160D7B
:10403800D70EF324D96E080EF420DA6E000EDF6E68
:10404800000E106E640E0F6E8DEC57F03BEF20F0F3
:10405800010E4B6E47C070F03BEF20F0472A0B0E65
:10406800476439EF20F03BEF20F0DEEF1EF04B50B5
:10407800D8B441EF20F043EF20F042EF21F0010ED9
:1040880000017D6F090E47604CEF20F04EEF20F0E5
:1040980055EF20F0300E856F4750310F866FC0EF17
:1040A80020F0080E47645BEF20F05DEF20F0C0EFD2
:1040B80020F00C0E476063EF20F065EF20F0C0EFB2
:1040C80020F0310E856F4750270F866FC0EF20F024
:1040D800260E276EF50E286E990E296E000E2A6E92
:1040E800020E2B6E34EC12F0E6EF20F0C10E276EB4
:1040F800F50E286E990E296E000E2A6E020E2B6E92
:1041080034EC12F0E6EF20F0740E276EF50E286EF0
:10411800990E296E000E2A6E020E2B6E34EC12F0E8
:10412800E6EF20F0D40E276EF40E286E990E296E55
:10413800000E2A6E020E2B6E34EC12F0E6EF20F021
:10414800560E276EF60E286E990E296E000E2A6EF0
:10415800020E2B6E34EC12F0E6EF20F00C0E276EF8
:10416800F60E286E990E296E000E2A6E020E2B6E20
:1041780034EC12F0E6EF20F0FF510101FE6FFF6B07
:10418800FF51000AD8B4CBEF20F0E6EF20F0FE5143
:10419800010AD8B46CEF20F0030AD8B47AEF20F003
:1041A800010AD8B488EF20F0070AD8B496EF20F0B7
:1041B800010AD8B4A4EF20F0030AD8B4B2EF20F073
:1041C800E6EF20F07BEC55F019C036F01AC037F056
:1041D800C1EF21F02A0E276EFB0E286E990E296E6C
:1041E800000E2A6E000E2B6E34EC12F069EF21F0EF
:1041F800070E276EFD0E286E990E296E000E2A6E88
:10420800000E2B6E34EC12F069EF21F04F0E276E82
:10421800FB0E286E990E296E000E2A6E000E2B6E6C
:1042280034EC12F069EF21F0B10E276EFA0E286E09
:10423800990E296E000E2A6E000E2B6E34EC12F0C9
:1042480069EF21F0640E276EFC0E286E990E296E18
:10425800000E2A6E000E2B6E34EC12F069EF21F07E
:10426800430E276EFC0E286E990E296E000E2A6EDC
:10427800000E2B6E34EC12F069EF21F00001FF51B3
:104288000101FE6FFF6BFF51000AD8B44EEF21F019
:1042980069EF21F0FE51010AD8B4EEEF20F0030ACD
:1042A800D8B4FCEF20F0010AD8B40AEF21F0070ACD
:1042B800D8B418EF21F0010AD8B426EF21F0030A88
:1042C800D8B434EF21F069EF21F0C1EF21F0000EEE
:1042D8000F6E010EBAEC5EF0AB0E0F6E000E106E94
:1042E800A40E116E000E126E000E146E060E136EE2
:1042F80015EC58F0FF0E376EDC0E366E1CEC45F0F0
:104308004F50D8B48AEF21F08CEF21F09DEF21F0C7
:10431800010E0F6E020EBAEC5EF0010E106EF40E76
:104328000F6E8DEC57F0000E4F6E58EC01F0B3ECA9
:104338005AF05050D8B4A3EF21F0A5EF21F06BEF5D
:1043480021F08DEC5CF00009D8B4ADEF21F0AFEFAF
:1043580021F0C1EF21F0FF0E376EDC0E366E250E10
:10436800276EF70E286E990E296E000E2A6E000E23
:104378002B6E34EC12F0D2EF1EF075EC59F00009F8
:10438800D8B4C9EF21F0CBEF21F0F2EF21F0690E9C
:10439800276EF90E286E990E296E000E2A6E000EF1
:1043A8002B6E34EC12F000017551D8B4DEEF21F019
:1043B800E0EF21F04AEF22F0D3EC48F0030E106E44
:1043C800E80E0F6E8DEC57F045EC57F0030E106EAB
:1043D800E80E0F6E8DEC57F04AEF22F000017B518A
:1043E800D8B4F9EF21F0FBEF21F040EF22F0000EF6
:1043F8007B6F000E106E640E0F6E8DEC57F02AEC7A
:104408005CF0000E106E640E0F6E8DEC57F000011C
:104418007551D8B412EF22F014EF22F032EF22F0E7
:10442800D3EC48F0030E106EE80E0F6E8DEC57F0CB
:1044380045EC57F0030E106EE80E0F6E8DEC57F03A
:10444800C60E276EF80E286E990E296E000E2A6E7B
:10445800000E2B6E34EC12F04AEF22F08E0E276E0F
:10446800F80E286E990E296E000E2A6E000E2B6E1D
:1044780034EC12F04AEF22F07551D8B446EF22F02E
:1044880048EF22F04AEF22F0E0EF21F012004B5003
:10449800D8B451EF22F053EF22F02FEF25F0365029
:1044A8003710D8A45AEF22F05CEF22F02FEF25F056
:1044B80000018051D8A463EF22F065EF22F02FEFBE
:1044C80025F04A50D8A46BEF22F06DEF22F02FEFC1
:1044D80025F07E51D8A473EF22F075EF22F02FEF6C
:1044E80025F04C50D8A47BEF22F07DEF22F02FEF7F
:1044F80025F0000E326E25EF25F03250160DDA0E3B
:10450800F324D96E080EF420DA6EDE04D8A48FEFF7
:1045180022F091EF22F055EF23F03250160DDC0E09
:10452800F324D96E080EF420DA6EDF50D8B49FEF6A
:1045380022F0A1EF22F055EF23F03250160DD70EDE
:10454800F324D96E080EF420DA6EDE04D8A4AFEF97
:1045580022F0B1EF22F055EF23F0030E106EE80EB3
:104568000F6E8DEC57F08E8C3250160DD70EF3244B
:10457800D96E080EF420DA6E020EDF6E3250160D78
:10458800DD0EF324D96E080EF420DA6EDF50D8B4AD
:10459800D0EF22F0D2EF22F0E8EF22F03250160DE1
:1045A800DD0EF324D96E080EF420DA6E000EDF6EED
:1045B80029EC55F019C064F01AC065F064C036F0F3
:1045C80065C037F0F5EF22F03250160DD40EF32403
:1045D800D96E080EF420DA6EDF502E6E2E50366E2D
:1045E800376A000E106E640E0F6E8DEC57F0325065
:1045F800020DCD0EF324F66EF20EF420F76E0900CC
:10460800F5CF17F00A00F5CF18F03250160DC80E86
:10461800F324196E080EF4201A6EB3EC56F0000E4F
:10462800106E640E0F6E8DEC57F093EC58F0000E80
:10463800106E640E0F6E8DEC57F0090E326027EF86
:1046480023F029EF23F031EF23F0300E0001856FBE
:104658003250310F866F47EF23F0080E326437EF80
:1046680023F039EF23F047EF23F00C0E32603FEFD1
:1046780023F041EF23F047EF23F0310E0001856F5F
:104688003250270F866FFF0E276EFB0E286E990E8D
:10469800296E000E2A6E020E2B6E34EC12F0CFEF4C
:1046A80026F03250160DDA0EF324D96E080EF420D7
:1046B800DA6EDE04D8A463EF23F065EF23F04AEF47
:1046C80024F03250160DDC0EF324D96E080EF420B7
:1046D800DA6EDF50D8B473EF23F075EF23F04AEFAA
:1046E80024F03250160DD70EF324D96E080EF4209C
:1046F800DA6E020EDE18D8A484EF23F086EF23F0DA
:104708004AEF24F0030E106EE80E0F6E8DEC57F092
:104718008E9C3250160DD70EF324D96E080EF42055
:10472800DA6E030EDF6E3250160DD50EF324D96EF5
:10473800080EF420DA6EDF063250160DD50EF3247B
:10474800D96E080EF420DA6EDF50D8A4AEEF23F04D
:10475800B0EF23F0BAEF23F03250160DDC0EF3243D
:10476800D96E080EF420DA6E000EDF6E000E106EA1
:10477800640E0F6E8DEC57F03250020DCD0EF324FF
:10478800F66EF20EF420F76E0900F5CF17F00A0066
:10479800F5CF18F03250160DC80EF324196E080E16
:1047A800F4201A6E62EC4EF0000E106E640E0F6E5E
:1047B8008DEC57F03250160DCC0EF324D96E080E3E
:1047C800F420DA6EDF502E6E2F6A3250160DD30E9B
:1047D800F324D96E080EF420DA6EDF50306E3050B4
:1047E8002E5E000E2F5A3250160DD40EF324D96EB9
:1047F800080EF420DA6EDF50316E31502E5C366EC2
:104808002F50D8A02F04376E000E106E640E0F6E56
:104818008DEC57F093EC58F0000E106E640E0F6E8E
:104828008DEC57F0090E32601CEF24F01EEF24F0D7
:1048380026EF24F0300E0001856F3250310F866F5D
:104848003CEF24F0080E32642CEF24F02EEF24F015
:104858003CEF24F00C0E326034EF24F036EF24F0F5
:104868003CEF24F0310E0001856F3250270F866F20
:10487800DD0E276EFB0E286E990E296E000E2A6E2D
:10488800020E2B6E34EC12F0CFEF26F03250160DDC
:10489800DA0EF324D96E080EF420DA6EDE04D8A4FA
:1048A80058EF24F05AEF24F024EF25F03250160D7B
:1048B800DA0EF324D96E080EF420DA6E000EDF6EDD
:1048C8003250160DD80EF324D96E080EF420DA6E85
:1048D8003250160DD90EF324E16E080EF420E26E64
:1048E800DE50E618D8A47BEF24F07DEF24F089EFA2
:1048F80024F03250160DD90EF324D96E080EF42088
:10490800DA6E010EDF6E92EF24F03250160DD90EDA
:10491800F324D96E080EF420DA6EDF2A000E4B6EEF
:10492800010E00017F6F3228706F000E106E640E4A
:104938000F6E8DEC57F03250C6EC5BF0000E106E27
:10494800640E0F6E8DEC57F03250020DCD0EF3242D
:10495800F66EF20EF420F76E0900F5CF17F00A0094
:10496800F5CF18F03250160DC80EF324196E080E44
:10497800F4201A6E27EC5DF0000E106E640E0F6EB8
:104988008DEC57F03250020DCD0EF324F66EF20E78
:10499800F420F76E0900F5CF17F00A00F5CF18F0EC
:1049A8003250160DC80EF324196E080EF4201A6E34
:1049B8000AEC5DF0000E106E640E0F6E8DEC57F071
:1049C8003250160DDC0EF324D96E080EF420DA6E80
:1049D800DF50D8B4F2EF24F0F4EF24F0CFEF26F054
:1049E8003250160DD70EF324D96E080EF420DA6E65
:1049F800000EDF6E000E106E640E0F6E8DEC57F019
:104A08003250020DCD0EF324F66EF20EF420F76E3E
:104A18000900F5CF17F00A00F5CF18F03250160D3F
:104A2800C80EF324196E080EF4201A6EB3EC56F073
:104A3800000E106E640E0F6E8DEC57F0CFEF26F05F
:104A4800322A0B0E32642BEF25F02DEF25F081EF83
:104A580022F0CFEF26F000017E51D8B436EF25F0D2
:104A680038EF25F0CFEF26F0000E7E6F000E326E85
:104A7800C7EF26F03250160DDA0EF324D96E080E61
:104A8800F420DA6EDE04D8A44CEF25F04EEF25F0C2
:104A9800C6EF26F03250160DDB0EF324D96E080E41
:104AA800F420DA6EDF50D8A45CEF25F05EEF25F035
:104AB8001EEF26F03250160DDA0EF324D96E080ECA
:104AC800F420DA6E000EDF6E3250160DD80EF32485
:104AD800D96E080EF420DA6E3250160DD90EF32472
:104AE800E16E080EF420E26EDE50E618D8A47FEFDF
:104AF80025F081EF25F08DEF25F03250160DD90EF7
:104B0800F324D96E080EF420DA6E010EDF6E96EFEC
:104B180025F03250160DD90EF324D96E080EF42064
:104B2800DA6EDF2A3250160DD70EF324D96E080E2E
:104B3800F420DA6E020EDE18D8A4A5EF25F0A7EF50
:104B480025F0D0EF25F08E9C3250160DD70EF324A9
:104B5800D96E080EF420DA6E000EDF6E3250020DA8
:104B6800CD0EF324F66EF20EF420F76E0900F5CFA1
:104B780017F00A00F5CF18F03250160DC80EF324BE
:104B8800196E080EF4201A6EB3EC56F0000E106E73
:104B9800640E0F6E8DEC57F0000E4B6E010E000187
:104BA8007F6F3228706F000E106E640E0F6E8DECE2
:104BB80057F03250C6EC5BF0000E106E640E0F6EAC
:104BC8008DEC57F03250020DCD0EF324F66EF20E36
:104BD800F420F76E0900F5CF17F00A00F5CF18F0AA
:104BE8003250160DC80EF324196E080EF4201A6EF2
:104BF80027EC5DF0000E106E640E0F6E8DEC57F012
:104C08003250020DCD0EF324F66EF20EF420F76E3C
:104C18000900F5CF17F00A00F5CF18F03250160D3D
:104C2800C80EF324196E080EF4201A6E0AEC5DF013
:104C38001CEF25F03250160DD70EF324D96E080E4E
:104C4800F420DA6EDE04D8A42CEF26F02EEF26F03E
:104C580057EF26F07BEC55F019C036F01AC037F044
:104C68003250160DCC0EF324D96E080EF420DA6EED
:104C7800DF502E6E2F6A3250160DD30EF324D96EE4
:104C8800080EF420DA6EDF50306E30502E5E000EC3
:104C98002F5A36502E24366E37502F20376E93EC0D
:104CA80058F01CEF25F03250160DD70EF324D96EAC
:104CB800080EF420DA6E020EDE18D8A466EF26F08D
:104CC80068EF26F0C6EF26F08E9C3250160DD70EF0
:104CD800F324D96E080EF420DA6E000EDF6E32501F
:104CE800020DCD0EF324F66EF20EF420F76E0900D5
:104CF800F5CF17F00A00F5CF18F03250160DC80E90
:104D0800F324196E080EF4201A6EB3EC56F0000E58
:104D1800106E640E0F6E8DEC57F07BEC55F019C0D9
:104D280036F01AC037F03250160DCC0EF324D96E77
:104D3800080EF420DA6EDF502E6E2F6A3250160DF0
:104D4800D30EF324D96E080EF420DA6EDF50306EDD
:104D580030502E5E000E2F5A3250160DD40EF3240A
:104D6800D96E080EF420DA6EDF50316E31502E5EA7
:104D7800000E2F5A36502E24366E37502F20376E9D
:104D880053EF26F0322A0B0E3264CDEF26F0CFEF28
:104D980026F03EEF25F01200010E0601DD6F6E0EC3
:104DA800DC6F010EDF6F6D0EDE6F000EE16F000E1F
:104DB800E06FFF0E376EDC0E366E000E0001836F5B
:104DC8000B0E7065EAEF26F0ECEF26F0EEEF26F01A
:104DD800000E706F70C047F051EF2AF04750160D63
:104DE800DB0EF324D96E080EF420DA6EDF50D8B447
:104DF80000EF27F002EF27F050EF2AF04750160D8A
:104E0800DA0EF324D96E080EF420DA6EDE04D8B474
:104E180010EF27F012EF27F050EF2AF0000183512E
:104E2800D8A419EF27F01BEF27F030EF27F0000E7A
:104E3800106E640E0F6E8DEC57F0D6EC54F0000E29
:104E4800106E640E0F6E8DEC57F0010E0001836F2B
:104E5800FF0E376EDC0E366E4750160DD20EF32459
:104E6800D96E080EF420DA6E4250DE5CD8A03FEF0F
:104E780027F041EF27F02FEF28F04750160DD10EFD
:104E8800F324D96E080EF420DA6E4150DE5CD8B0F7
:104E980050EF27F052EF27F063EF27F04750160D39
:104EA800D20EF324D96E080EF420DA6E4250DE18C2
:104EB800D8B461EF27F063EF27F02FEF28F04750C1
:104EC800160DD00EF324D96E080EF420DA6E405079
:104ED800DE5CD8B072EF27F074EF27F096EF27F07A
:104EE8004750160DD10EF324D96E080EF420DA6E51
:104EF8004150DE18D8A483EF27F085EF27F096EF0E
:104F080027F04750160DD20EF324D96E080EF42060
:104F1800DA6E4250DE18D8B494EF27F096EF27F0F7
:104F28002FEF28F04750160DCE0EF324D96E080E39
:104F3800F420DA6E3F50DE5CD8B0A5EF27F0A7EF7B
:104F480027F0DAEF27F04750160DD00EF324D96E6C
:104F5800080EF420DA6E4050DE18D8A4B6EF27F019
:104F6800B8EF27F0DAEF27F04750160DD10EF324EB
:104F7800D96E080EF420DA6E4150DE18D8A4C7EFB7
:104F880027F0C9EF27F0DAEF27F04750160DD20EB9
:104F9800F324D96E080EF420DA6E4250DE18D8B425
:104FA800D8EF27F0DAEF27F02FEF28F04750160D4B
:104FB800CF0EF324D96E080EF420DA6EDE503E5C74
:104FC800D8A0E9EF27F0EBEF27F033EF28F04750B0
:104FD800160DCE0EF324D96E080EF420DA6E3F506B
:104FE800DE18D8A4FAEF27F0FCEF27F033EF28F00B
:104FF8004750160DD00EF324D96E080EF420DA6E41
:105008004050DE18D8A40BEF28F00DEF28F033EF4E
:1050180028F04750160DD10EF324D96E080EF4204F
:10502800DA6E4150DE18D8A41CEF28F01EEF28F0E5
:1050380033EF28F04750160DD20EF324D96E080E20
:10504800F420DA6E4250DE18D8A42DEF28F02FEFA6
:1050580028F033EF28F0010E4B6E59EF2AF0475035
:10506800160DD80EF324D96E080EF420DA6E4750C8
:10507800160DD90EF324E16E080EF420E26EDE5010
:10508800E65CD8B04AEF28F04CEF28F04EEF28F055
:105098002FEF28F0000E4B6E000E0601E26F000E97
:1050A800E36F000EE46F000EE56F42C0E1F6A8EF73
:1050B80028F0D00EE1250F6E106A070E1022000EA0
:1050C800126E640E116E81EC5AF00F501010D8B4A5
:1050D80070EF28F072EF28F09EEF28F0E1C62DF06F
:1050E800030E2D16D8A47BEF28F07DEF28F09EEF55
:1050F80028F0D00E0601E1250F6E106A070E102267
:10510800010E126E900E116E81EC5AF00F501010B5
:10511800D8A491EF28F093EF28F09EEF28F006012D
:10512800DC51E227DD51E323000EE423000EE523E2
:10513800A7EF28F00601DE51E227DF51E323000E36
:10514800E423000EE523E12B4750160DD20EF3247D
:10515800D96E080EF420DA6EDE50E15DD8A0B7EF04
:1051680028F0B9EF28F05DEF28F04750160DD20E61
:10517800F324D96E080EF420DA6EDF50146E47500F
:10518800160DD10EF324D96E080EF420DA6EDF5016
:10519800EDEC4EF014500601E2271550E323000E03
:1051A800E423000EE5234750160DD00EF324D96EE4
:1051B800080EF420DA6EDF502D6E2D50E227000E17
:1051C800E323E423E52342C014F04150EDEC4EF014
:1051D80014502D6E15502E6E2F6A306A2D50060110
:1051E800E25F2E50E35B2F50E45B3050E55B40C03C
:1051F8002DF02E6A2F6A306A2D50E25F2E50E35B45
:105208002F50E45B3050E55BE2C60FF0E3C610F0C8
:10521800E4C611F0E5C612F0180E136E000E146EF7
:10522800000E156E000E166E17EC5AF00FC0E2F65F
:1052380010C0E3F611C0E4F612C0E5F64750160DAB
:10524800CE0EF324D96E080EF420DA6E3F50DE5CE1
:10525800D8A031EF29F033EF29F0BCEF29F04750FF
:10526800160DCE0EF324D96E080EF420DA6EDF5038
:105278002D6E3F502D5C2E6E2F6AD8A02F06306AF7
:105288002FBE30063050316E2E500601E2272F50C7
:10529800E3233050E4233150E523E2C60FF0E3C6A0
:1052A80010F0E4C611F0E5C612F03C0E136E000EC5
:1052B800146E000E156E000E166E17EC5AF00FC025
:1052C800E2F610C0E3F611C0E4F612C0E5F6475066
:1052D800160DCF0EF324D96E080EF420DA6EDE50C8
:1052E8003E5CD8A07AEF29F07CEF29F09CEF29F0FA
:1052F8004750160DCF0EF324D96E080EF420DA6E3F
:10530800DF502D6E2D503E5C2E6E2F6AD8A02F06D2
:10531800306A2FBE30063050316E2E500601E25FE3
:105328002F50E35B3050E45B3150E55B18EF2AF017
:105338004750160DCF0EF324D96E080EF420DA6EFE
:10534800DF502D6E3E502D5C2E6E2F6AD8A02F0692
:10535800306A2FBE30063050316E2E500601E227DB
:105368002F50E3233050E4233150E52318EF2AF07F
:105378004750160DCE0EF324D96E080EF420DA6EBF
:105388003F50DE5CD8B0CBEF29F0CDEF29F018EF15
:105398002AF04750160DCE0EF324D96E080EF420CD
:1053A800DA6EDF502D6E2D503F5C2E6E2F6AD8A01E
:1053B8002F06306A2FBE30063050316E2E5006014F
:1053C800E25F2F50E35B3050E45B3150E55BE2C6AF
:1053D8000FF0E3C610F0E4C611F0E5C612F03C0E7B
:1053E800136E000E146E000E156E000E166E17EC7E
:1053F8005AF00FC0E2F610C0E3F611C0E4F612C08E
:10540800E5F64750160DCF0EF324D96E080EF4209A
:10541800DA6EDE503E5CD8A014EF2AF016EF2AF0C0
:105428009CEF29F07CEF29F00601E251E311E41129
:10543800E511D8B422EF2AF024EF2AF02FEF2AF052
:10544800E205E311E411E511D8A42DEF2AF02FEFBE
:105458002AF035EF2AF0000E376E010E366E50EF47
:105468002AF036502D6E37502E6E2F6A306A2D5026
:10547800E25D2E50E3592F50E4593050E559D8B029
:1054880048EF2AF04AEF2AF050EF2AF0E2C636F049
:10549800E3C637F050EF2AF0472A0B0E476457EF60
:1054A8002AF059EF2AF0F2EF26F04B50D8A45FEF1C
:1054B8002AF061EF2AF071EF2AF00601E051D8A432
:1054C80068EF2AF06AEF2AF071EF2AF0010EE06F18
:1054D800000E0001706FEEEF26F04B50D8B477EF56
:1054E8002AF079EF2AF0D9EF2AF04750160DDC0E92
:1054F800F324D96E080EF420DA6EDF50D8B487EFA3
:105508002AF089EF2AF0CAEF2AF04750160DD50E77
:10551800F324D96E080EF420DA6EDF50D8B497EF72
:105528002AF099EF2AF0CAEF2AF04750160DD30E49
:10553800F324D96E080EF420DA6EDF502D6E2D504C
:10554800366E376A4750160DD70EF324D96E080EFB
:10555800F420DA6E010EDF6E4750020DCD0EF324F3
:10556800F66EF20EF420F76E0900F5CF17F00A0078
:10557800F5CF18F04750160DC80EF324196E080E13
:10558800F4201A6EB3EC56F01BEF2BF04750160DB3
:10559800CC0EF324D96E080EF420DA6EDF502D6E8F
:1055A8002D50366E376A1BEF2BF0375009E1020E8B
:1055B800365CD8A0E2EF2AF0E4EF2AF00DEF2BF0EA
:1055C800110E365C110E3758D8B0EDEF2AF0EFEF18
:1055D8002AF00DEF2BF036C00FF037C010F0000E98
:1055E800126E0F0E116E3AEC5EF00FC036F010C05E
:1055F80037F036C015F037C016F0000E186E110ED1
:10560800176ECEEC58F015C036F016C037F01BEF09
:105618002BF0110E365C110E3758D8A016EF2BF070
:1056280018EF2BF01BEF2BF00F0E376E36681200B9
:105638002B6E000E276E000E286E000E296E000ECF
:105648002A6E000E226E710E236E020E246E000E5C
:10565800256E000E2C6E140E266E000E0001616F72
:10566800000E606F000E0F6E090EBAEC5EF0000EB1
:105678000001616F000E606F010E846F000E4E6EA8
:105688000F0E736F010E2C6E0DEF2FF0CF90000EE2
:10569800CE6E000ECD6E000E6E6F47EF2EF0C980F5
:1056A800000E4D6E8AA05BEF2BF05DEF2BF065EFDF
:1056B8002BF04D50D8B463EF2BF065EF2BF056EF7D
:1056C8002BF08AB06AEF2BF06CEF2BF074EF2BF015
:1056D8004D50D8B472EF2BF074EF2BF065EF2BF030
:1056E800CF808AA07AEF2BF07CEF2BF084EF2BF0A1
:1056F8004D50D8B482EF2BF084EF2BF075EF2BF0E0
:105708004D50D8A48AEF2BF08CEF2BF084EF2EF0BD
:10571800010E4D6E0E01388584EF2EF0C980000E03
:105728004D6E8AA29AEF2BF09CEF2BF0A4EF2BF092
:105738004D50D8B4A2EF2BF0A4EF2BF095EF2BF03F
:105748008AB2A9EF2BF0ABEF2BF0B3EF2BF04D5053
:10575800D8B4B1EF2BF0B3EF2BF0A4EF2BF0CF8040
:105768008AA2B9EF2BF0BBEF2BF0C3EF2BF04D5013
:10577800D8B4C1EF2BF0C3EF2BF0B4EF2BF04D50A2
:10578800D8A4C9EF2BF0CBEF2BF084EF2EF0010E4D
:105798004D6E0E01388584EF2EF0C980000E4D6ED7
:1057A8008AA4D9EF2BF0DBEF2BF0E3EF2BF04D5071
:1057B800D8B4E1EF2BF0E3EF2BF0D4EF2BF08AB461
:1057C800E8EF2BF0EAEF2BF0F2EF2BF04D50D8B4C6
:1057D800F0EF2BF0F2EF2BF0E3EF2BF0CF808AA461
:1057E800F8EF2BF0FAEF2BF002EF2CF04D50D8B475
:1057F80000EF2CF002EF2CF0F3EF2BF04D50D8A473
:1058080008EF2CF00AEF2CF084EF2EF0010E4D6E0D
:105818000E01388584EF2EF0C980000E4D6E8AA6E1
:1058280018EF2CF01AEF2CF022EF2CF04D50D8B4D2
:1058380020EF2CF022EF2CF013EF2CF08AB627EF94
:105848002CF029EF2CF031EF2CF04D50D8B42FEF7D
:105858002CF031EF2CF022EF2CF0CF808AA637EF16
:105868002CF039EF2CF041EF2CF04D50D8B43FEF2D
:105878002CF041EF2CF032EF2CF04D50D8A447EF2C
:105888002CF049EF2CF084EF2EF0010E4D6E0E0136
:10589800388584EF2EF0C980000E4D6E8AA857EF28
:1058A8002CF059EF2CF061EF2CF04D50D8B45FEF8D
:1058B8002CF061EF2CF052EF2CF08AB866EF2CF048
:1058C80068EF2CF070EF2CF04D50D8B46EEF2CF040
:1058D80070EF2CF061EF2CF0CF808AA876EF2CF0D7
:1058E80078EF2CF080EF2CF04D50D8B47EEF2CF0F0
:1058F80080EF2CF071EF2CF04D50D8A486EF2CF0EF
:1059080088EF2CF084EF2EF0010E4D6E0E013885D5
:1059180084EF2EF0C980000E4D6E8AAA96EF2CF007
:1059280098EF2CF0A0EF2CF04D50D8B49EEF2CF04F
:10593800A0EF2CF091EF2CF08ABAA5EF2CF0A7EF8E
:105948002CF0AFEF2CF04D50D8B4ADEF2CF0AFEFFA
:105958002CF0A0EF2CF0CF808AAAB5EF2CF0B7EF8F
:105968002CF0BFEF2CF04D50D8B4BDEF2CF0BFEFAA
:105978002CF0B0EF2CF04D50D8A4C5EF2CF0C7EFA9
:105988002CF084EF2EF0010E4D6E0E01388584EF59
:105998002EF0C980000E4D6E8DA8D5EF2CF0D7EFF4
:1059A8002CF0DFEF2CF04D50D8B4DDEF2CF0DFEF0A
:1059B8002CF0D0EF2CF08DB8E4EF2CF0E6EF2CF0C3
:1059C800EEEF2CF04D50D8B4ECEF2CF0EEEF2CF0BD
:1059D800DFEF2CF0CF808DA8F4EF2CF0F6EF2CF051
:1059E800FEEF2CF04D50D8B4FCEF2CF0FEEF2CF06D
:1059F800EFEF2CF04D50D8A404EF2DF006EF2DF06A
:105A080084EF2EF0010E4D6E0E01388584EF2EF0D6
:105A1800C980000E4D6E8CA814EF2DF016EF2DF0F6
:105A28001EEF2DF04D50D8B41CEF2DF01EEF2DF0C9
:105A38000FEF2DF08CB823EF2DF025EF2DF02DEF83
:105A48002DF04D50D8B42BEF2DF02DEF2DF01EEF8B
:105A58002DF0CF808CA833EF2DF035EF2DF03DEFF2
:105A68002DF04D50D8B43BEF2DF03DEF2DF02EEF3B
:105A78002DF04D50D8A443EF2DF045EF2DF084EFD5
:105A88002EF0010E4D6E0E01388584EF2EF0C98080
:105A9800000E4D6E8BA453EF2DF055EF2DF05DEFFA
:105AA8002DF04D50D8B45BEF2DF05DEF2DF04EEF9B
:105AB8002DF08BB462EF2DF064EF2DF06CEF2DF02C
:105AC8004D50D8B46AEF2DF06CEF2DF05DEF2DF04E
:105AD800CF808BA472EF2DF074EF2DF07CEF2DF0BA
