:04000000E9EF02F032
:0600080047822CEFC8F056
:100018004780D8CF16F0E8CF17F0E0CF18F00E01E0
:1000280033AB19EF00F01BEF00F098EF02F08F965A
:10003800339BE30ED46EB00ED36E422A3350341085
:10004800D8B429EF00F02BEF00F047EF00F08EAEA8
:1000580030EF00F032EF00F047EF00F03306D8A0A1
:1000680034060001A051D8B43CEF00F03EEF00F098
:1000780046EF00F0030EA06144EF00F046EF00F0F9
:1000880047EF00F0A02B8EAC4CEF00F04EEF00F0E5
:10009800D1EF01F000018851D8B455EF00F057EFC7
:1000A80000F081EF00F0000E886F000E0D6E050E57
:1000B8000C6E79ECDDF08E840001784B792B000E04
:1000C8000D6E050E0C6E79ECDDF08E860001764B18
:1000D800772B000E0D6E050E0C6E79ECDDF08E8818
:1000E8000001744B752B000E0D6E050E0C6E79EC2D
:1000F800DDF08E8A0001724B732B8EA486EF00F020
:1001080088EF00F0A8EF00F08051785D81517959AF
:10011800D8A091EF00F093EF00F0A4EF00F0000EEC
:100128000D6E050E0C6E79ECDDF08E94000E00015C
:10013800796F000E786F684B692BB02BD5EF00F004
:10014800784B792BD5EF00F08EB4ADEF00F0AFEF20
:1001580000F0D5EF00F07051685D71516959D8A071
:10016800B8EF00F0BAEF00F0D3EF00F0B451B05D93
:10017800D8B0C1EF00F0C3EF00F0CDEF00F0000EF3
:100188000D6E050E0C6E79ECDDF08E840001784B57
:10019800792B000E696F000E686FD5EF00F0684B81
:1001A800692B8EA6DAEF00F0DCEF00F0FCEF00F030
:1001B8007E51765D7F517759D8A0E5EF00F0E7EFE3
:1001C80000F0F8EF00F0000E0D6E050E0C6E79ECE5
:1001D800DDF08E96000E0001776F000E766F664B8D
:1001E800672BAF2B29EF01F0764B772B29EF01F026
:1001F8008EB601EF01F003EF01F029EF01F06E5127
:10020800665D6F516759D8A00CEF01F00EEF01F051
:1002180027EF01F0B351AF5DD8B015EF01F017EF3C
:1002280001F021EF01F0000E0D6E050E0C6E79EC59
:10023800DDF08E860001764B772B000E676F000E7F
:10024800666F29EF01F0664B672B8EA82EEF01F041
:1002580030EF01F050EF01F07C51745D7D5175591C
:10026800D8A039EF01F03BEF01F04CEF01F0000EA0
:100278000D6E050E0C6E79ECDDF08E98000E000107
:10028800756F000E746F644B652BAE2B7DEF01F01C
:10029800744B752B7DEF01F08EB855EF01F057EFD9
:1002A80001F07DEF01F06C51645D6D516559D8A086
:1002B80060EF01F062EF01F07BEF01F0B251AE5D4B
:1002C800D8B069EF01F06BEF01F075EF01F0000EA7
:1002D8000D6E050E0C6E79ECDDF08E880001744B06
:1002E800752B000E656F000E646F7DEF01F0644B97
:1002F800652B8EAA82EF01F084EF01F0A4EF01F0E4
:100308007A51725D7B517359D8A08DEF01F08FEF50
:1003180001F0A0EF01F0000E0D6E050E0C6E79ECE9
:10032800DDF08E9A000E0001736F000E726F624B43
:10033800632BAD2BD1EF01F0724B732BD1EF01F092
:100348008EBAA9EF01F0ABEF01F0D1EF01F06A51DD
:10035800625D6B516359D8A0B4EF01F0B6EF01F0BC
:10036800CFEF01F0B151AD5DD8B0BDEF01F0BFEFF7
:1003780001F0C9EF01F0000E0D6E050E0C6E79EC60
:10038800DDF08E8A0001724B732B000E636F000E36
:10039800626FD1EF01F0624B632B630E4118D8A452
:1003A800D8EF01F0DAEF01F0DEEF01F0000E426E57
:1003B80098EF02F04104D8A4E4EF01F0E6EF01F071
:1003C800F7EF01F00001A4514218D8A4EEEF01F0B4
:1003D800F0EF01F0F7EF01F0000E426E8F8E020E83
:1003E800416E98EF02F0020E4118D8A4FEEF01F01A
:1003F80000EF02F011EF02F00001A1514218D8A459
:1004080008EF02F00AEF02F011EF02F0000E426E60
:100418008F9E030E416E98EF02F0030E4118D8A488
:1004280018EF02F01AEF02F02BEF02F00001A351CF
:100438004218D8A422EF02F024EF02F02BEF02F0CA
:10044800000E426E8D84040E416E98EF02F0040E89
:100458004118D8A432EF02F034EF02F045EF02F071
:100468000001A1514218D8A43CEF02F03EEF02F07F
:1004780045EF02F0000E426E8D94050E416E98EF26
:1004880002F0050E4118D8A44CEF02F04EEF02F02E
:100498005FEF02F00001A3514218D8A456EF02F012
:1004A80058EF02F05FEF02F0000E426E8D86060EE6
:1004B800416E98EF02F0060E4118D8A466EF02F0DC
:1004C80068EF02F079EF02F00001A1514218D8A4B8
:1004D80070EF02F072EF02F079EF02F0000E426E58
:1004E8008D96070E416E98EF02F0070E4118D8A4BA
:1004F80080EF02F082EF02F098EF02F04250146EA3
:10050800156A00018651141807E187511518D8A4F7
:1005180090EF02F092EF02F098EF02F0000E426EB8
:10052800010E416E98EF02F00E0138A19EEF02F025
:10053800A0EF02F0A5EF02F08F960001A62B0E01A6
:10054800389138A5AAEF02F0ACEF02F0E1EF02F023
:100558008F963895F00EC86EDC0EC76E0001A52B7D
:10056800A551AC5DD8B0BBEF02F0BDEF02F0D6EFFD
:1005780002F03850D8A4C3EF02F0C5EF02F0D6EF6E
:1005880002F0010E386E000EA56FC9909D51D8B4C7
:10059800D0EF02F0D2EF02F0E1EF02F0010E9C6F13
:1005A800E1EF02F03850D8B4DCEF02F0DEEF02F0F1
:1005B800E1EF02F0000EA56FC99018C0E0FF17C068
:0E05C800E8FF16C0D8FF47901000D2EFD1F028
:10F21A000053797374656D207265736574206F632A
:10F22A006375727265642C204972726967617469C8
:10F23A006F6E2073657474696E672064656C65749B
:10F24A006564000000300060009000C000F00020FB
:10F25A000150018001B001E001100240027002A0D9
:10F26A0002D0024C6F67696E20636F6465206E6F0F
:10F27A0074206368616E6765640044727920527510
:10F28A006E2064657465637465642C204D6F746FB9
:10F29A00722C2049727269676174696F6E20616E9F
:10F2AA0064204665727469676174696F6E2073774A
:10F2BA00697463686564206F66662E0D0A49727206
:10F2CA0069676174696F6E207363686564756C65DC
:10F2DA006420746F206E6578742064617920776980
:10F2EA007468206665727469676174696F6E2066F6
:10F2FA006F72206669656C64206E6F2E0000004490
:10F30A0072792052756E2064657465637465642C25
:10F31A00204D6F746F7220616E6420497272696742
:10F32A006174696F6E207377697463686564206FAE
:10F33A0066662E0D0A49727269676174696F6E207A
:10F34A007363686564756C656420746F206E657894
:10F35A0074206461792077697468206665727469BB
:10F36A00676174696F6E20666F72206669656C6486
:10F37A00206E6F2E0000004472792052756E206450
:10F38A00657465637465642C204D6F746F722061B7
:10F39A006E642049727269676174696F6E2073774F
:10F3AA00697463686564206F66662E0D0A49727215
:10F3BA0069676174696F6E207363686564756C65EB
:10F3CA006420746F206E65787420647565206461AA
:10F3DA00746520666F72206669656C64206E6F2E94
:10F3EA000000004472792052756E2064657465636A
:10F3FA007465642C204D6F746F7220616E642049AD
:10F40A00727269676174696F6E2073776974636871
:10F41A006564206F66662E0D0A49727269676174A7
:10F42A00696F6E207363686564756C656420746FB8
:10F43A00206E6578742064617920666F722066692F
:10F44A00656C64206E6F2E00000053797374656DCD
:10F45A002072657374617274656420666F722041EC
:10F46A006C6C2050686173652044657465637469C7
:10F47A006F6E207769746820696E636F6D706C6552
:10F48A0074652049727269676174696F6E20666F6C
:10F49A0072206669656C64206E6F2E0053797374EE
:10F4AA00656D2072657374617274656420666F722B
:10F4BA0020506F77657220496E7465727275707428
:10F4CA00207769746820696E636F6D706C65746506
:10F4DA002049727269676174696F6E20666F722063
:10F4EA006669656C64206E6F2E0053797374656D5E
:10F4FA002072657374617274656420696E20446950
:10F50A0061676E6F73746963204D6F6465207769F4
:10F51A00746820696E636F6D706C657465204972DA
:10F52A007269676174696F6E20666F7220666965B9
:10F53A006C64206E6F2E0053797374656D2072654A
:10F54A007374617274656420666F72204C6F7720E1
:10F55A00506F77657220496E207769746820696EEA
:10F56A00636F6D706C657465204972726967617446
:10F57A00696F6E20666F72206669656C64206E6FB3
:10F58A002E0053797374656D207265737461727499
:10F59A00656420666F7220537461636B20457272D2
:10F5AA006F72207769746820696E636F6D706C651D
:10F5BA0074652049727269676174696F6E20666F3B
:10F5CA0072206669656C64206E6F2E0053797374BD
:10F5DA00656D2072657374617274656420666F72FA
:10F5EA00205744542054696D656F75742077697487
:10F5FA006820696E636F6D706C65746520497272FC
:10F60A0069676174696F6E20666F72206669656CDE
:10F61A0064206E6F2E004665727469676174696F43
:10F62A006E2073746F7070656420776974682066E1
:10F63A00657274696C697A6572206C6576656C208E
:10F64A0073656E736F72206661696C757265206688
:10F65A006F72206669656C64206E6F2E004C6F773E
:10F66A002050686173652063757272656E742064D8
:10F67A00657465637465642C20616374696F6E7365
:10F68A002073757370656E6465642C20706C656197
:10F69A00736520726573746172742073797374650B
:10F6AA006D0049727269676174696F6E20697320AF
:10F6BA006E6F74204163746976652E204665727494
:10F6CA0069676174696F6E206E6F7420656E61621E
:10F6DA006C656420666F72206669656C64206E6F63
:10F6EA002E0053797374656D2041757468656E7464
:10F6FA00696361746564207769746820506861730E
:10F70A0065206661696C7572652C20737573706506
:10F71A006E64696E6720616C6C20616374696F6ED8
:10F72A0073004D6F6973747572652073656E736FBC
:10F73A0072206973206661696C65642C2049727253
:10F74A0069676174696F6E2073746172746564208D
:10F75A00666F72206669656C64206E6F2E0053793D
:10F76A007374656D20726573746172746564207751
:10F77A00697468207068617365206661696C757266
:10F78A00652C2073757370656E64696E6720616C91
:10F79A006C20616374696F6E730046657274696781
:10F7AA006174696F6E2073746F7070656420776915
:10F7BA007468206C6F772066657274696C697A6503
:10F7CA0072206C6576656C20666F72206669656C5E
:10F7DA0064206E6F2E00576574206669656C64201C
:10F7EA0064657465637465642E0D0A49727269678B
:10F7FA006174696F6E206E6F7420737461727465C0
:10F80A006420666F72206669656C64206E6F2E00D4
:10F81A00000053797374656D207265736574206F87
:10F82A00636375727265642C206C6F67696E2063FE
:10F83A006F646520726573657420746F2046616316
:10F84A00746F72792073657474696E670049727295
:10F85A0069676174696F6E20636F6D706C6574653A
:10F86A006420666F7220647565206669656C6473CE
:10F87A000D0A4D6F746F72207377697463686564DB
:10F88A00206F66660000004E65772052544320625E
:10F89A0061747465727920666F756E642C20706C61
:10F8AA00656173652073796E632073797374656D0E
:10F8BA002074696D65206D616E75616C6C79004E9E
:10F8CA0065772052544320626174746572792066A8
:10F8DA006F756E642C2073797374656D2074696D0D
:10F8EA00652069732073657420746F206C6F63617F
:10F8FA006C2074696D6500496E636F72726563741A
:10F90A002076616C7565732E20466572746967612D
:10F91A0074696F6E206E6F7420656E61626C6564C7
:10F92A0020666F72206669656C64206E6F2E0059BE
:10F93A006F7520617265206E6F206D6F7265204150
:10F94A00646D696E206E6F772E204E657720416454
:10F95A006D696E2069732073657420746F0D0A00D7
:10F96A000000525443204261747465727920666FB4
:10F97A00756E64206C6F772C20706C6561736520DE
:10F98A007265706C616365205254432062617474BD
:10F99A006572790049727269676174696F6E20696C
:10F9AA0073206163746976652C204D6F746F7220C1
:10F9BA006C6F6164206375742D6F6666206E6F7458
:10F9CA00207365740049727269676174696F6E2089
:10F9DA00636F6E66696775726174696F6E206469B8
:10F9EA007361626C656420666F72206669656C6417
:10F9FA00206E6F2E005068617365206661696C75B0
:10FA0A0072652064657465637465642C207375730C
:10FA1A0070656E64696E6720616C6C2061637469DD
:10FA2A006F6E73004E6F4C6F616420616E64204686
:10FA3A00756C6C4C6F6164204D6F746F72207468C2
:10FA4A00726573686F6C64732073657420746F20B9
:10FA5A003A20004D6F6973747572652073656E7311
:10FA6A006F72206672657175656E63792076616C56
:10FA7A00756520666F72206669656C64206E6F2EEC
:10FA8A000053797374656D2074696D652073796E9E
:10FA9A0063656420746F2063757272656E74206C7E
:10FAAA006F63616C2074696D650053797374656D59
:10FABA002072657374617274656420666F72204186
:10FACA006C6C205068617365204465746563746961
:10FADA006F6E004D6F6973747572652073656E730E
:10FAEA006F72206973206661696C656420666F7243
:10FAFA00206669656C64206E6F2E004972726967B0
:10FB0A006174696F6E206E6F7420636F6E666967C9
:10FB1A007572656420666F72206669656C64206E12
:10FB2A006F2E0053797374656D20726573746172F8
:10FB3A0074656420666F7220506F77657220496E13
:10FB4A00746572727570740053797374656D20727E
:10FB5A00657374617274656420696E2044696167B3
:10FB6A006E6F73746963206D6F64650049727269A0
:10FB7A00676174696F6E20636F6E66696775726517
:10FB8A006420666F72206669656C64206E6F2E0051
:10FB9A004D6F746F726C6F6164206375742D6F663C
:10FBAA006620736574207375636365737366756C19
:10FBBA006C79004665727469676174696F6E206456
:10FBCA00697361626C656420666F72206669656C30
:10FBDA0064206E6F2E004665727469676174696F7E
:10FBEA006E2073746F7070656420666F7220666928
:10FBFA00656C64206E6F2E00466572746967617465
:10FC0A00696F6E207374617274656420666F722006
:10FC1A006669656C64206E6F2E004665727469674A
:10FC2A006174696F6E20656E61626C656420666FCF
:10FC3A0072206669656C64206E6F2E005379737446
:10FC4A00656D2072657374617274656420666F7283
:10FC5A0020737461636B206572726F7200537973DB
:10FC6A0074656D2072657374617274656420666F61
:10FC7A0072205744542074696D656F757400497217
:10FC8A007269676174696F6E2073746F70706564EE
:10FC9A0020666F72206669656C64206E6F2E00495B
:10FCAA00727269676174696F6E20737461727465C8
:10FCBA006420666F72206669656C64206E6F2E0020
:10FCCA0057617465722046696C74726174696F6EEB
:10FCDA00206973206E6F7420656E61626C656400C2
:10FCEA004C6F67696E20636F6465206368616E6735
:10FCFA006564207375636365737366756C6C7900EC
:10FD0A0053797374656D2072657374617274656476
:10FD1A0020666F72204C6F7720506F77657200579C
:10FD2A00617465722066696C74726174696F6E20A1
:10FD3A00646561637469766174656400496E636FB2
:10FD4A007272656374206C6F63616C2074696D658F
:10FD5A0020666F756E640057617465722046696C1F
:10FD6A0074726174696F6E2053657175656E63652F
:10FD7A003A0057617465722066696C7472617469BD
:10FD8A006F6E20616374697661746564005068619E
:10FD9A0073652042206661696C75726520646574BA
:10FDAA0065637465640050686173652059206661F3
:10FDBA00696C757265206465746563746564005066
:10FDCA00686173652052206661696C75726520648A
:10FDDA00657465637465640057726F6E67206C6F33
:10FDEA0067696E20636F646520666F756E64004193
:10FDFA00646D696E207365742073756363657373CC
:10FE0A0066756C6C790041757468656E74696361B6
:10FE1A0074696F6E206661696C656400416C6C2060
:10FE2A005068617365206465746563746564005421
:10FE3A00657374204461746120496E6A65637465F0
:10FE4A00640053797374656D20436F6E6E656374D5
:10FE5A00656400466163746F7279204B6579203A54
:10FE6A00200043757272656E742054696D653A207C
:10FE7A000049727269676174696F6E204E6F3A0049
:10FE8A004665727469676174696F6E20656E616236
:10FE9A006C656420776974682064656C61793A00DE
:10FEAA004665727469676174696F6E206E6F74203B
:10FEBA00636F6E666967757265640D0A0041542B3B
:10FECA00434E4D493D312C312C302C302C300D0A0B
:10FEDA000053657061726174696F6E2054696D6553
:10FEEA003A200041542B435343533D2247534D225A
:10FEFA000D0A0041542B53434C415353303D310DAD
:10FF0A000A0041542B434D47443D312C340D0A001D
:10FF1A0041542B4346554E3D300D0A0041542B4364
:10FF2A004D47463D310D0A0041542B4346554E3D3F
:10FF3A00310D0A0041542B434C54533D310D0A00F4
:10FF4A0020497465726174696F6E3A0041542B439B
:10FF5A004C54533F0D0A000D0A44656C6179313ADD
:10FF6A0020000D0A4F4E54696D653A2000204475F1
:10FF7A0065446174653A200041542B43434C4B3F1E
:10FF8A000D0A0041542B434D47533D220041542B47
:10FF9A004353510D0A0044656C6179323A2000449A
:10FFAA00656C6179333A2000204F46467072643A94
:10FFBA000041542B434D47523D00204F4E7072640E
:10FFCA003A00415445300D0A00415426570D0A00A3
:10FFDA00284D696E29200020616E642000284D6931
:10FFEA006E2900205765743A00204472793A00203D
:05FFFA00697320000006
:020000040001F9
:10000000000E0201FB6F000EFC6F000EFF6F000E72
:10001000FE6F1E0E0001AC6F300EB56512EF80F062
:1000200014EF80F019EF92F03A0EB5611AEF80F0FC
:100030001CEF80F019EF92F0000E386E000EAB6FDF
:10004000C980010E196E030EC4ECE4F050EF80F08D
:10005000BB0E216EFF0E226E7BECE1F0B50E216E21
:10006000000E226E010E236ED5ECE2F0FA0E216E28
:10007000FE0E226E7BECE1F0010E1A6EF40E196E8C
:1000800035ECDDF03850D8A448EF80F04AEF80F02E
:1000900050EF80F0130E1A6E880E196E35ECDDF0FD
:1000A0003850D8B456EF80F058EF80F028EF80F049
:1000B000000E196E0F0EC4ECE4F00E013885150E1B
:1000C000196E070E1A6EF10E1B6E010E1C6E000EDD
:1000D0001E6E030E1D6EF2ECD8F019501A10D8A443
:1000E00074EF80F076EF80F00AEF92F0B50E196EA3
:1000F000000E1A6E180E1B6E070E1C6E000E1E6E82
:100100000A0E1D6E01ECDEF0D2ECE3F0000E196E6B
:10011000080E1A6E3F0E1B6E070E1C6E12ECDCF002
:1001200083ECE3F0000E196E080E1A6E2FECE1F06E
:100130000009D8B49EEF80F0A0EF80F0A6EF80F029
:10014000EAECE3F013ECC1F0B5EF80F0000E196EAD
:10015000050EC4ECE4F0070E1A6ED00E196E35ECE5
:10016000DDF022EF92F022EF92F0C90E196E000E30
:100170001A6EB50E1B6E000E1C6E000E1E6E0A0E61
:100180001D6EF2ECD8F019501A10D8A4CAEF80F006
:10019000CCEF80F0F3EF90F0B50E196E000E1A6EF2
:1001A000F00E1B6E020E1C6E000E1E6E0A0E1D6EF1
:1001B00001ECDEF0000E196E050E1A6EEC0E1B6ED1
:1001C000010E1C6E000E1E6E040E1D6EF2ECD8F0B9
:1001D00019501A10D8A4EFEF80F0F1EF80F002EF81
:1001E00081F0000E0001AB6F4C0EFB6FFE0EFC6F3A
:1001F000C90EFD6F000EFE6F000EFF6F23EC92F034
:1002000022EF92F0000E196E050E1A6EF60E1B6E9E
:10021000000E1C6E000E1E6E020E1D6EF2ECD8F06B
:1002200019501A10D8A417EF81F019EF81F062EF7E
:1002300081F0030E196E050E1A6EDB0E1B6E000E9A
:100240001C6E000E1E6E060E1D6EF2ECD8F01950DC
:100250001A10D8A42EEF81F030EF81F051EF81F029
:10026000DB0E196E000E1A6E0A0E1B6E050E1C6E4A
:10027000000E1E6E060E1D6E01ECDEF034ECDFF09B
:10028000000E0001AB6FEA0EFB6FFC0EFC6FC90E97
:10029000FD6F000EFE6F000EFF6F23EC92F022EF59
:1002A00092F0000E0001AB6FE20EFB6FFD0EFC6FD3
:1002B000C90EFD6F000EFE6F000EFF6F23EC92F073
:1002C00022EF92F0000E196E050E1A6EF90E1B6EDB
:1002D000010E1C6E000E1E6E030E1D6EF2ECD8F0A9
:1002E00019501A10D8A477EF81F079EF81F030EF30
:1002F00084F0000E0201FF6F000EFE6F030E34EC5F
:10030000C5F0456E010E0201FD6F060E0001AB6FD8
:10031000000E0001AB25D96EDA6A050EDA22DF5035
:100320001AECE4F00009D8B498EF81F09AEF81F06C
:10033000EDEF82F0010E0001AB25D96EDA6A050EF1
:10034000DA22200EDE18D8A4A8EF81F0AAEF81F0FF
:10035000CCEF81F0000EAB25D96EDA6A050EDA22F9
:10036000000EAB25E16EE26A050EE222E750D00FE7
:10037000DF6E000E0001AB25D96EDA6A050EDA22B7
:10038000DF500401F86FF8510201FE25FE6F000EE8
:10039000FF21FF6F22EF83F0000EAB25D96EDA6AE2
:1003A000050EDA22000EAB25E16EE26A050EE222AE
:1003B000E750D00FDF6E000EAB25D96EDA6A050E5E
:1003C000DA22DF500A0D000EAB25D96EDA6A050E6F
:1003D000DA22F3CFDFFFFEC219F0FFC21AF0000EDF
:1003E0001C6E0A0E1B6E44ECE4F019C0FEF21AC03B
:1003F000FFF2B9EF81F045502D0DE00EF324D96ED8
:10040000080EF420DA6EFEC2DEFFFFC2DDFF000E32
:100410000201FF6F000EFE6F20EF83F045502D0D9F
:10042000FA0EF324D96E080EF420DA6EFEC2DFFF56
:1004300007EF82F045502D0DFB0EF324D96E080E08
:10044000F420DA6EFEC2DFFF07EF82F045502D0D7B
:10045000FC0EF324D96E080EF420DA6EFEC2DFFF24
:1004600007EF82F045502D0DDC0EF324D96E080EF7
:10047000F420DA6EFEC2DEFFFFC2DDFF07EF82F07E
:1004800045502D0DDE0EF324D96E080EF420DA6EE1
:10049000FEC2DEFFFFC2DDFF07EF82F045502D0DEB
:1004A000010EF324D96E090EF420DA6EFEC2DFFFCE
:1004B00007EF82F045502D0D030EF324D96E090E7F
:1004C000F420DA6EFEC2DFFF45502D0D040EF3243A
:1004D000D96E090EF420DA6EFEC2DFFF07EF82F05C
:1004E0000201FE515AECBAF0000E0201FF6F000E3D
:1004F000FE6F45502D0DFD0EF324D96E080EF4202D
:10050000DA6E35C0DFFF45502D0DFE0EF324D96E97
:10051000080EF420DA6E39C0DFFF45502D0DFF0EB6
:10052000F324D96E080EF420DA6E3AC0DFFF45508E
:100530002D0D050EF324D96E090EF420DA6E000E8F
:10054000DF6E45502D0D060EF324D96E090EF420F2
:10055000DA6E010EDF6E45502D0DE20EF324D96EDA
:10056000080EF420DA6E000EDE6E000EDD6E4550D1
:100570002D0DE40EF324D96E080EF420DA6E000E71
:10058000DE6E000EDD6E45502D0D000EF324D96E8B
:10059000090EF420DA6E000EDF6E45502D0D070EA9
:1005A000F324D96E090EF420DA6E000EDF6E45508A
:1005B0002D0D020EF324D96E090EF420DA6E000E12
:1005C000DF6E45502D0D080EF324D96E090EF42070
:1005D000DA6E000EDF6E20EF83F00201FD510401A0
:1005E000F86FF96BF951000AD8B4F9EF82F020EFF7
:1005F00083F0F851010AD8B4FBEF81F0030AD8B4B4
:100600000EEF82F0010AD8B41AEF82F0070AD8B4CC
:1006100026EF82F0010AD8B432EF82F0030AD8B490
:1006200040EF82F0010AD8B44EEF82F00F0AD8B43E
:100630005AEF82F0010AD8B470EF82F020EF83F015
:100640000201FD2B0001AB2B090E0201FD652BEF12
:1006500083F02DEF83F088EF81F0000E1A6E640EA8
:10066000196E35ECDDF04550020D4D0EF324F66E9B
:10067000F20EF420F76EF86A000EF8220900F5CFAA
:1006800021F00A00F5CF22F045502D0DDC0EF324A9
:10069000236E080EF420246EBAECCBF0000E1A6E16
:1006A000640E196E35ECDDF04550020D4D0EF3244D
:1006B000F66EF20EF420F76EF86A000EF8220900CA
:1006C000F5CF21F00A00F5CF22F045502D0DDC0EBC
:1006D000F324236E080EF420246EA4ECDCF0000E4C
:1006E0001A6E640E196E35ECDDF04550020D4D0E9C
:1006F000F324F66EF20EF420F76EF86A000EF8227C
:100700000900F5CF21F00A00F5CF22F045502D0D5C
:10071000DC0EF324236E080EF420246E4AECE3F082
:10072000000E1A6E640E196E35ECDDF04550020DA8
:100730004D0EF324F66EF20EF420F76EF86A000EFA
:10074000F8220900F5CF21F00A00F5CF22F045503C
:100750002D0DDC0EF324236E080EF420246E2DECF8
:10076000E3F0000E1A6E640E196E35ECDDF04550A4
:10077000020D4D0EF324F66EF20EF420F76EF86AB9
:10078000000EF8220900F5CF21F00A00F5CF22F083
:1007900045502D0DDC0EF324236E080EF420246E3C
:1007A000F3ECE2F0000E1A6E640E196E35ECDDF01B
:1007B0004550020D4D0EF324F66EF20EF420F76E46
:1007C000F86A000EF8220900F5CF21F00A00F5CFF3
:1007D00022F045502D0DDC0EF324236E080EF4207C
:1007E000246EA5ECB7F0000E1A6E640E196E35EC8F
:1007F000DDF0090E4560FFEF83F001EF84F009EFB3
:1008000084F0300E0001B56F4550310FB66F1FEF09
:1008100084F0080E45640FEF84F011EF84F01FEFB1
:1008200084F00C0E456017EF84F019EF84F01FEF91
:1008300084F0310E0001B56F4550270FB66F000EE2
:100840000001AB6F760EFB6FFB0EFC6FC90EFD6FE8
:10085000000EFE6F020EFF6F23EC92F022EF92F07B
:10086000000E196E050E1A6EE70E1B6E010E1C6E41
:10087000000E1E6E040E1D6EF2ECD8F019501A1008
:10088000D8A445EF84F047EF84F001EF85F0040E23
:1008900034ECC5F0456E45502D0D050EF324D96E90
:1008A000090EF420DA6EDE04D8A459EF84F05BEF71
:1008B00084F05EEF84F0010E0001956F45502D0D20
:1008C000060EF324D96E090EF420DA6E000EDF6EE8
:1008D00045502D0D070EF324D96E090EF420DA6E63
:1008E000DE04D8A476EF84F078EF84F0A9EF84F0EA
:1008F00045502D0D070EF324D96E090EF420DA6E43
:10090000000EDF6E000E1A6E640E196E35ECDDF00F
:100910004550020D4D0EF324F66EF20EF420F76EE4
:10092000F86A000EF8220900F5CF21F00A00F5CF91
:1009300022F045502D0DDC0EF324236E080EF4201A
:10094000246EA5ECB7F0000E1A6E640E196E35EC2D
:10095000DDF04550020D4D0EF324F66EF20EF4203C
:10096000F76EF86A000EF8220900F5CF21F00A00B0
:10097000F5CF22F045502D0DDC0EF324236E080E2A
:10098000F420246EF3ECE2F0000E1A6E640E196E81
:1009900035ECDDF0090E4560D0EF84F0D2EF84F045
:1009A000DAEF84F0300E0001B56F4550310FB66FAD
:1009B000F0EF84F0080E4564E0EF84F0E2EF84F09D
:1009C000F0EF84F00C0E4560E8EF84F0EAEF84F07D
:1009D000F0EF84F0310E0001B56F4550270FB66F70
:1009E000000E0001AB6FCF0EFB6FF90EFC6FC90E4E
:1009F000FD6F000EFE6F020EFF6F23EC92F022EFF0
:100A000092F0000E196E050E1A6EE90E1B6E020EA4
:100A10001C6E000E1E6E060E1D6EF2ECD8F0195004
:100A20001A10D8A416EF85F018EF85F008EF88F0BB
:100A3000000E0201FF6F000EFE6F000EFD6F060E2E
:100A400034ECC5F0456E45502D0D060EF324D96EDD
:100A5000090EF420DA6EDF50D8A431EF85F033EFC1
:100A600085F06AEF85F0090E456039EF85F03BEFC0
:100A700085F043EF85F0300E0001B56F4550310F22
:100A8000B66F59EF85F0080E456449EF85F04BEFDE
:100A900085F059EF85F00C0E456051EF85F053EF6E
:100AA00085F059EF85F0310E0001B56F4550270FE5
:100AB000B66F000E0001AB6FAC0EFB6FF60EFC6F55
:100AC000C90EFD6F000EFE6F020EFF6F23EC92F059
:100AD00022EF92F0090E0001AB6F000E0001AB2572
:100AE000D96EDA6A050EDA22DF501AECE4F000095A
:100AF000D8B47DEF85F07FEF85F0E0EF85F0010E53
:100B00000001AB25D96EDA6A050EDA22200EDE1856
:100B1000D8A48DEF85F08FEF85F0B1EF85F0000E52
:100B2000AB25D96EDA6A050EDA22000EAB25E16E2E
:100B3000E26A050EE222E750D00FDF6E000E0001E0
:100B4000AB25D96EDA6A050EDA22DF500401F86FA0
:100B5000F8510201FE25FE6F000EFF21FF6F8FEF9F
:100B600087F0000EAB25D96EDA6A050EDA22000E88
:100B7000AB25E16EE26A050EE222E750D00FDF6E90
:100B8000000EAB25D96EDA6A050EDA22DF500A0DA7
:100B9000000EAB25D96EDA6A050EDA22F3CFDFFF3D
:100BA000FEC219F0FFC21AF0000E1C6E0A0E1B6E78
:100BB00044ECE4F019C0FEF21AC0FFF29EEF85F09B
:100BC0000201FD2B45EF87F045502D0DE20EF32479
:100BD000D96E080EF420DA6EFEC2DEFFFFC2DDFF22
:100BE000000E0201FF6F000EFE6F8FEF87F0455081
:100BF0002D0DE40EF324D96E080EF420DA6EFEC239
:100C0000DEFFFFC2DDFFF0EF85F045502D0D000E39
:100C1000F324D96E090EF420DA6EFEC2DFFFF0EF86
:100C200085F045502D0DE60EF324D96E080EF42004
:100C3000DA6EFEC2DEFFFFC2DDFFF0EF85F0455049
:100C40002D0DEE0EF324D96E080EF420DA6EFEC2DE
:100C5000DEFFFFC2DDFFF0EF85F045502D0DF60EF3
:100C6000F324D96E080EF420DA6EFEC2DFFFF0EF37
:100C700085F045502D0DE80EF324D96E080EF420B2
:100C8000DA6EFEC2DEFFFFC2DDFFF0EF85F04550F9
:100C90002D0DF00EF324D96E080EF420DA6EFEC28C
:100CA000DEFFFFC2DDFFF0EF85F045502D0DF70EA2
:100CB000F324D96E080EF420DA6EFEC2DFFFF0EFE7
:100CC00085F045502D0DEA0EF324D96E080EF42060
:100CD000DA6EFEC2DEFFFFC2DDFFF0EF85F04550A9
:100CE0002D0DF20EF324D96E080EF420DA6EFEC23A
:100CF000DEFFFFC2DDFFF0EF85F045502D0DF80E51
:100D0000F324D96E080EF420DA6EFEC2DFFFF0EF96
:100D100085F045502D0DEC0EF324D96E080EF4200D
:100D2000DA6EFEC2DEFFFFC2DDFFF0EF85F0455058
:100D30002D0DF40EF324D96E080EF420DA6EFEC2E7
:100D4000DEFFFFC2DDFFF0EF85F045502D0DF90EFF
:100D5000F324D96E080EF420DA6EFEC2DFFF455090
:100D60002D0D020EF324D96E090EF420DA6E000E5A
:100D7000DF6E45502D0D080EF324D96E090EF420B8
:100D8000DA6E000EDF6E000E0201FF6F000EFE6FC6
:100D900045502D0DE00EF324D96E080EF420DA6EC6
:100DA00045502D0DE40EF324E16E080EF420E26EA2
:100DB000E6CFFAF4E5CFFBF445502D0DE20EF32417
:100DC000E16E080EF420E26EE6CFFCF4E5CFFDF410
:100DD0000401FA51FC27FB51FD23DE50FC5DDE507F
:100DE000FD59D8A0F6EF86F0F8EF86F039EF87F0DE
:100DF00045502D0D070EF324D96E090EF420DA6E3E
:100E0000000EDF6E090E456008EF87F00AEF87F0ED
:100E100012EF87F0300E0001B56F4550310FB66FFD
:100E200028EF87F0080E456418EF87F01AEF87F077
:100E300028EF87F00C0E456020EF87F022EF87F057
:100E400028EF87F0310E0001B56F4550270FB66FC0
:100E5000000E0001AB6F010EFB6FF90EFC6FC90EA7
:100E6000FD6F000EFE6F020EFF6F23EC92F08FEF0E
:100E700087F045502D0D070EF324D96E090EF4208E
:100E8000DA6E010EDF6E8FEF87F0FD510401F86F0F
:100E9000F96BF951000AD8B450EF87F08FEF87F063
:100EA000F851010AD8B4E4EF85F0030AD8B4F7EF9B
:100EB00085F0010AD8B405EF86F0070AD8B411EF1F
:100EC00086F0010AD8B41FEF86F0030AD8B42DEFDC
:100ED00086F0010AD8B439EF86F00F0AD8B447EF8C
:100EE00086F0010AD8B455EF86F0030AD8B461EF52
:100EF00086F0010AD8B46FEF86F0070AD8B47DEF08
:100F000086F0010AD8B489EF86F0030AD8B497EFC7
:100F100086F0010AD8B4A5EF86F08FEF87F00001C4
:100F2000AB2B0E0E0201FD6598EF87F09AEF87F06C
:100F30006DEF85F045502D0D070EF324D96E090E87
:100F4000F420DA6EDF50D8B4A8EF87F0AAEF87F06C
:100F500022EF92F0000E1A6E640E196E35ECDDF081
:100F60004550020D4D0EF324F66EF20EF420F76E8E
:100F7000F86A000EF8220900F5CF21F00A00F5CF3B
:100F800022F045502D0DDC0EF324236E080EF420C4
:100F9000246EA5ECB7F0000E1A6E640E196E35ECD7
:100FA000DDF0090E4560D7EF87F0D9EF87F0E1EF6C
:100FB00087F0300E0001B56F4550310FB66FF7EF77
:100FC00087F0080E4564E7EF87F0E9EF87F0F7EF69
:100FD00087F00C0E4560EFEF87F0F1EF87F0F7EF49
:100FE00087F0310E0001B56F4550270FB66F000E28
:100FF0000001AB6F240EFB6FFC0EFC6FC90EFD6F82
:10100000000EFE6F020EFF6F23EC92F022EF92F0C3
:10101000000E196E050E1A6ED30E1B6E020E1C6E9C
:10102000000E1E6E070E1D6EF2ECD8F019501A104D
:10103000D8A41DEF88F01FEF88F0BFEF88F0070EEF
:1010400034ECC5F0456E45502D0D050EF324D96ED8
:10105000090EF420DA6EDE04D8A431EF88F033EF05
:1010600088F047EF88F045502D0D020EF324D96E1D
:10107000090EF420DA6E030EDE18D8B442EF88F0C1
:1010800044EF88F047EF88F0010E0001956F45505E
:101090002D0D070EF324D96E090EF420DA6EDE044E
:1010A000D8A455EF88F057EF88F0B3EF80F04550A3
:1010B0002D0D070EF324D96E090EF420DA6E000E02
:1010C000DF6E000E1A6E640E196E35ECDDF04550C1
:1010D000020D4D0EF324F66EF20EF420F76EF86A50
:1010E000000EF8220900F5CF21F00A00F5CF22F01A
:1010F00045502D0DDC0EF324236E080EF420246ED3
:10110000A5ECB7F0000E1A6E640E196E35ECDDF02A
:10111000090E45608EEF88F090EF88F098EF88F028
:10112000300E0001B56F4550310FB66FAEEF88F04D
:10113000080E45649EEF88F0A0EF88F0AEEF88F0CF
:101140000C0E4560A6EF88F0A8EF88F0AEEF88F0AF
:10115000310E0001B56F4550270FB66F000E00012C
:10116000AB6FBD0EFB6FFB0EFC6FC90EFD6F000E6B
:10117000FE6F020EFF6F23EC92F022EF92F0000E52
:10118000196E050E1A6EE20E1B6E020E1C6E000E1C
:101190001E6E060E1D6EF2ECD8F019501A10D8A46F
:1011A000D4EF88F0D6EF88F0C6EF89F0000E020188
:1011B000FF6F000EFE6F000EFD6F060E0001AB6F9D
:1011C000000E0001AB25D96EDA6A050EDA22DF5077
:1011D0001AECE4F00009D8B4F0EF88F0F2EF88F0F0
:1011E00053EF89F0010E0001AB25D96EDA6A050EC6
:1011F000DA22200EDE18D8A400EF89F002EF89F081
:1012000024EF89F0000EAB25D96EDA6A050EDA22DA
:10121000000EAB25E16EE26A050EE222E750D00F28
:10122000DF6E000E0001AB25D96EDA6A050EDA22F8
:10123000DF500401F86FF8510201FE25FE6F000E29
:10124000FF21FF6F9CEF89F0000EAB25D96EDA6AA3
:10125000050EDA22000EAB25E16EE26A050EE222EF
:10126000E750D00FDF6E000EAB25D96EDA6A050E9F
:10127000DA22DF500A0D000EAB25D96EDA6A050EB0
:10128000DA22F3CFDFFFFEC219F0FFC21AF0000E20
:101290001C6E0A0E1B6E44ECE4F019C0FEF21AC07C
:1012A000FFF211EF89F00201FD2B7AEF89F0FEC207
:1012B000A4F0000E0201FF6F000EFE6F9CEF89F09C
:1012C000FEC2A3F059EF89F0FEC2A2F059EF89F0F7
:1012D000FEC2A1F059EF89F0FEC286F00001876BD3
:1012E000000E0201FF6F000EFE6F010E00018E6FF7
:1012F0009CEF89F0FD510401F86FF96BF951000A78
:10130000D8B485EF89F09CEF89F0F851010AD8B480
:1013100057EF89F0030AD8B460EF89F0010AD8B416
:1013200064EF89F0070AD8B468EF89F0010AD8B4ED
:101330006CEF89F09CEF89F00001AB2B040E0201E9
:10134000FD65A5EF89F0A7EF89F0E0EF88F0000ECA
:101350001A6E640E196E35ECDDF04AECD0F0000E1A
:101360001A6E640E196E35ECDDF0000E0001AB6FE5
:101370007C0EFB6FFD0EFC6FC90EFD6F000EFE6F45
:10138000000EFF6F23EC92F022EF92F0000E196E28
:10139000050E1A6ECB0E1B6E020E1C6E000E1E6E1C
:1013A000070E1D6EF2ECD8F019501A10D8A4DBEF1E
:1013B00089F0DDEF89F0FFEF89F0000E00018E6FFC
:1013C000000E1A6E640E196E35ECDDF04AECD0F0AA
:1013D000000E1A6E640E196E35ECDDF0000E000181
:1013E000AB6F290EFB6FFD0EFC6FC90EFD6F000E7B
:1013F000FE6F000EFF6F23EC92F022EF92F0000ED2
:10140000196E050E1A6ED70E1B6E010E1C6E000EA5
:101410001E6E050E1D6EF2ECD8F019501A10D8A4ED
:1014200014EF8AF016EF8AF03FEF8AF000018E5138
:10143000D8B41DEF8AF01FEF8AF02FEF8AF0000E6C
:10144000AB6F610EFB6FFD0EFC6FC90EFD6F000EE2
:10145000FE6F080EFF6F23EC92F022EF92F0000E69
:10146000AB6FCA0EFB6FFC0EFC6FC90EFD6F000E5A
:10147000FE6F000EFF6F23EC92F022EF92F0000E51
:10148000196E050E1A6EDD0E1B6E010E1C6E000E1F
:101490001E6E040E1D6EF2ECD8F019501A10D8A46E
:1014A00054EF8AF056EF8AF03CEF8BF0000E020109
:1014B000FF6F000EFE6F000EFD6F050E0001AB6F9B
:1014C000000E0001AB25D96EDA6A050EDA22DF5074
:1014D0001AECE4F00009D8B470EF8AF072EF8AF0E9
:1014E00003EF8BF0000E0001AB25D96EDA6A050E12
:1014F000DA22000EAB25E16EE26A050EE222E75029
:10150000D00FDF6E000EAB25D96EDA6A050EDA2237
:10151000DF500401F86FF8510201FE6FFF6BFEC24D
:1015200019F0FFC21AF0000E1C6E0A0E1B6E44EC7E
:10153000E4F019C0FEF21AC0FFF2010E0001AB2563
:10154000D96EDA6A050EDA22010EAB25E16EE26A87
:10155000050EE222E750D00FDF6E010EAB25D96EEB
:10156000DA6A050EDA22DF500401F86FF851020141
:10157000FE25FE6F000EFF21FF6FFD2BDDEF8AF0D1
:10158000FEC23EF0000E0201FF6F000EFE6F14EF70
:101590008BF0FEC23FF0C2EF8AF0FEC240F0C2EF15
:1015A0008AF0FEC23DF0C2EF8AF0FEC23CF0C2EF0C
:1015B0008AF0FEC23BF0C2EF8AF0FD510401F86FE1
:1015C000F96BF951000AD8B4E8EF8AF014EF8BF008
:1015D000F851010AD8B4C0EF8AF0030AD8B4C9EFB1
:1015E0008AF0010AD8B4CDEF8AF0070AD8B4D1EF57
:1015F0008AF0010AD8B4D5EF8AF0030AD8B4D9EF3B
:101600008AF014EF8BF0000E0001AB6F460EFB6FFB
:10161000FD0EFC6FC90EFD6F000EFE6F000EFF6F1A
:1016200023EC92F022EF92F0030E0001AB27050E9F
:101630000201FD651EEF8BF020EF8BF060EF8AF06A
:10164000060EFD19D8A427EF8BF029EF8BF02BEFB6
:101650008BF0EDECDCF0000E0001AB6F8B0EFB6F3E
:10166000FA0EFC6FC90EFD6F000EFE6F000EFF6FCD
:1016700023EC92F022EF92F0000E196E050E1A6E16
:10168000E20E1B6E010E1C6E000E1E6E040E1D6E11
:10169000F2ECD8F019501A10D8A451EF8BF053EF98
:1016A0008BF00BEF8CF021ECDBF03EC019F01A6AE6
:1016B000000E1C6E0A0E1B6EBEECD9F01950300FD6
:1016C0000001B56F3EC02BF02C6A000E2E6E0A0E84
:1016D0002D6E20ECDAF02B50300F0001B66F2F0E7C
:1016E000B76F3FC019F01A6A000E1C6E0A0E1B6E0F
:1016F000BEECD9F01950300F0001B86F3FC02BF08D
:101700002C6A000E2E6E0A0E2D6E20ECDAF02B5095
:10171000300F0001B96F2F0EBA6F40C019F01A6A6E
:10172000000E1C6E0A0E1B6EBEECD9F01950300F65
:101730000001BB6F40C02BF02C6A000E2E6E0A0E0B
:101740002D6E20ECDAF02B50300F0001BC6F200E14
:10175000BD6F3DC019F01A6A000E1C6E0A0E1B6E9A
:10176000BEECD9F01950300F0001BE6F3DC02BF018
:101770002C6A000E2E6E0A0E2D6E20ECDAF02B5025
:10178000300F0001BF6F3A0EC06F3CC019F01A6AEB
:10179000000E1C6E0A0E1B6EBEECD9F01950300FF5
:1017A0000001C16F3CC02BF02C6A000E2E6E0A0E99
:1017B0002D6E20ECDAF02B50300F0001C26F3A0E84
:1017C000C36F3BC019F01A6A000E1C6E0A0E1B6E26
:1017D000BEECD9F01950300F0001C46F3BC02BF0A4
:1017E0002C6A000E2E6E0A0E2D6E20ECDAF02B50B5
:1017F000300F0001C56F000EAB6F6C0EFB6FFE0E5D
:10180000FC6FC90EFD6F000EFE6F030EFF6F23EC21
:1018100092F022EF92F0000E196E050E1A6EC30EB2
:101820001B6E020E1C6E000E1E6E070E1D6EF2EC7D
:10183000D8F019501A10D8A420EF8CF022EF8CF0B9
:101840007BEF8CF0070E34ECC5F0456E090E456059
:101850002CEF8CF02EEF8CF036EF8CF0300E000178
:10186000B56F4550310FB66F4CEF8CF0080E4564E4
:101870003CEF8CF03EEF8CF04CEF8CF00C0E4560A2
:1018800044EF8CF046EF8CF04CEF8CF0310E000101
:10189000B56F4550270FB66F000E0001AB6F455076
:1018A0002D0D060EF324D96E090EF420DA6EDF50EA
:1018B000D8B45DEF8CF05FEF8CF06DEF8CF07B0EA9
:1018C000FB6FFE0EFC6FC90EFD6F000EFE6F070E64
:1018D000FF6F23EC92F022EF92F0050EFB6FFB0EF0
:1018E000FC6FC90EFD6F000EFE6F020EFF6F23EC42
:1018F00092F022EF92F0000E196E050E1A6EF30EA2
:101900001B6E000E1C6E000E1E6E020E1D6EF2ECA3
:10191000D8F019501A10D8A490EF8CF092EF8CF0F8
:101920007DEF8DF08EAE97EF8CF099EF8CF0AAEFF3
:101930008CF0000E0001AB6F9E0EFB6FF90EFC6F7A
:10194000C90EFD6F000EFE6F000EFF6F23EC92F0CC
:1019500022EF92F0000E0201FF6F000EFE6F000EEC
:10196000FD6F010EFD6F030E0001AB6F000E000155
:10197000AB25D96EDA6A050EDA22DF501AECE4F0F4
:101980000009D8B4C6EF8CF0C8EF8CF03AEF8DF0B8
:10199000010E0001AB25D96EDA6A050EDA22200E9F
:1019A000DE18D8A4D6EF8CF0D8EF8CF0FAEF8CF0DC
:1019B000000EAB25D96EDA6A050EDA22000EAB25D1
:1019C000E16EE26A050EE222E750D00FDF6E000EF4
:1019D0000001AB25D96EDA6A050EDA22DF50040168
:1019E000F86FF8510201FE25FE6F000EFF21FF6F18
:1019F00053EF8DF0000EAB25D96EDA6A050EDA22B0
:101A0000000EAB25E16EE26A050EE222E750D00F30
:101A1000DF6E000EAB25D96EDA6A050EDA22DF50D2
:101A20000A0D000EAB25D96EDA6A050EDA22F3CF65
:101A3000DFFFFEC219F0FFC21AF0000E1C6E0A0E84
:101A40001B6E44ECE4F019C0FEF21AC0FFF2E7EF9F
:101A50008CF0FEC260F0FFC261F0000E0201FF6F69
:101A6000000EFE6F51EF8DF0FEC2E6F0FFC2E7F010
:101A70002DEF8DF00201FD510401F86FF96BF95162
:101A8000000AD8B446EF8DF051EF8DF0F851010AFD
:101A9000D8B429EF8DF0030AD8B434EF8DF051EFAC
:101AA0008DF00201FD2B0001AB2B020E0201FD6542
:101AB0005CEF8DF05EEF8DF0B6EF8CF0000E1A6EDD
:101AC000640E196E35ECDDF093ECD7F0000E1A6E53
:101AD000640E196E35ECDDF0000E0001AB6F9A0E4E
:101AE000FB6FFB0EFC6FC90EFD6F000EFE6F000E4C
:101AF000FF6F23EC92F022EF92F0000E196E050EAC
:101B00001A6ED10E1B6E010E1C6E000E1E6E050E9F
:101B10001D6EF2ECD8F019501A10D8A492EF8DF087
:101B200094EF8DF0A5EF8DF0000E0001AB6F2E0E3F
:101B3000FB6FFA0EFC6FC90EFD6F000EFE6F050EF7
:101B4000FF6F23EC92F022EF92F0000E196E050E5B
:101B50001A6EBB0E1B6E020E1C6E000E1E6E070E62
:101B60001D6EF2ECD8F019501A10D8A4BAEF8DF00F
:101B7000BCEF8DF018EF8EF0070E34ECC5F0456E1B
:101B8000000E1A6E640E196E35ECDDF045504FEC08
:101B9000AFF0090E4560CFEF8DF0D1EF8DF0D9EFAA
:101BA0008DF0300E0001B56F4550310FB66FEFEF7D
:101BB0008DF0080E4564DFEF8DF0E1EF8DF0EFEF73
:101BC0008DF00C0E4560E7EF8DF0E9EF8DF0EFEF53
:101BD0008DF0310E0001B56F4550270FB66F000133
:101BE0009C51D8B4F6EF8DF0F8EF8DF008EF8EF041
:101BF000000E9C6FDD0EFB6FFA0EFC6FC90EFD6FC1
:101C0000000EFE6F020EFF6F23EC92F022EF92F0B7
:101C1000000EAB6F5D0EFB6FFA0EFC6FC90EFD6F11
:101C2000000EFE6F060EFF6F23EC92F022EF92F093
:101C3000000E196E050E1A6EF50E1B6E010E1C6E4F
:101C4000000E1E6E030E1D6EF2ECD8F019501A1025
:101C5000D8A42DEF8EF02FEF8EF083EF8EF0030ED1
:101C600034ECC5F0456E000E1A6E640E196E35EC3C
:101C7000DDF08EAE3EEF8EF040EF8EF042EF8EF054
:101C800099EF8CF0090E456048EF8EF04AEF8EF028
:101C900052EF8EF0300E0001B56F4550310FB66F28
:101CA00068EF8EF0080E456458EF8EF05AEF8EF014
:101CB00068EF8EF00C0E456060EF8EF062EF8EF0F4
:101CC00068EF8EF0310E0001B56F4550270FB66FEB
:101CD000130E1A6E880E196E35ECDDF045C026F035
:101CE000010EECECBEF0030E1A6EE80E196E35EC28
:101CF000DDF093ECD7F0030E1A6EE80E196E35EC9A
:101D0000DDF094EF8DF0000E196E050E1A6EDB0EED
:101D10001B6E020E1C6E000E1E6E060E1D6EF2EC89
:101D2000D8F019501A10D8A498EF8EF09AEF8EF0D0
:101D3000B3EF80F0000E0201FF6F000EFE6F000E89
:101D4000FD6F070E0001AB6F000E0001AB25D96ED1
:101D5000DA6A050EDA22DF501AECE4F00009D8B492
:101D6000B4EF8EF0B6EF8EF031EF8FF0000E000181
:101D7000AB25D96EDA6A050EDA22000EAB25E16ECC
:101D8000E26A050EE222E750D00FDF6E000EAB25AF
:101D9000D96EDA6A050EDA22DF500401F86FF851C5
:101DA0000201FE6FFF6BFEC219F0FFC21AF0000EB7
:101DB0001C6E0A0E1B6E44ECE4F019C0FEF21AC051
:101DC000FFF2010E0001AB25D96EDA6A050EDA22A8
:101DD000010EAB25E16EE26A050EE222E750D00F5C
:101DE000DF6E010EAB25D96EDA6A050EDA22DF50FE
:101DF0000401F86FF8510201FE25FE6F000EFF216D
:101E0000FF6FFD2B17EF8FF0FEC2FBF2000E0201F9
:101E1000FF6F000EFE6F31EF8FF0FEC2FCF206EF97
:101E20008FF00201FE515AECBAF006EF8FF0FD512F
:101E30000401F86FF96BF951000AD8B422EF8FF062
:101E400031EF8FF0F851010AD8B404EF8FF0030A94
:101E5000D8B40DEF8FF0010AD8B411EF8FF031EF45
:101E60008FF0030E0001AB27020E0201FD653BEF70
:101E70008FF03DEF8FF0A4EF8EF0000E456EDAEF9D
:101E800090F045502D0DE00EF324D96E080EF4208D
:101E9000DA6E0F0EDE6E000EDD6E45502D0DFA0E61
:101EA000F324D96E080EF420DA6E010EDF6E455071
:101EB0002D0DFB0EF324D96E080EF420DA6EFBC252
:101EC000DFFF45502D0DFC0EF324D96E080EF420D3
:101ED000DA6EFCC2DFFF45502D0DFD0EF324D96EE6
:101EE000080EF420DA6E35C0DFFF45502D0DFE0ED2
:101EF000F324D96E080EF420DA6E39C0DFFF4550A6
:101F00002D0DFF0EF324D96E080EF420DA6E3AC0C0
:101F1000DFFF45502D0DDC0EF324D96E080EF420A2
:101F2000DA6E640EDE6E000EDD6E45502D0DDE0E97
:101F3000F324D96E080EF420DA6E300EDE6E750EC4
:101F4000DD6E45502D0D010EF324D96E090EF420DF
:101F5000DA6E4528DF6E45502D0D050EF324D96E3F
:101F6000090EF420DA6E000EDF6E45502D0D030EC3
:101F7000F324D96E090EF420DA6E020EDF6E45509E
:101F80002D0D040EF324D96E090EF420DA6E020E24
:101F9000DF6E45502D0D060EF324D96E090EF42088
:101FA000DA6E010EDF6E45502D0DE20EF324D96E70
:101FB000080EF420DA6E050EDE6E000EDD6E455062
:101FC0002D0DE40EF324D96E080EF420DA6E0F0EF8
:101FD000DE6E000EDD6E45502D0D000EF324D96E21
:101FE000090EF420DA6E4528DF6E45502D0D020EE5
:101FF000F324D96E090EF420DA6E000EDF6E455020
:102000002D0D080EF324D96E090EF420DA6E000EA1
:10201000DF6E45502D0D070EF324D96E090EF42006
:10202000DA6E010EDF6E4550020D4D0EF324F66E92
:10203000F20EF420F76EF86A000EF8220900F5CFD0
:1020400021F00A00F5CF22F045502D0DDC0EF324CF
:10205000236E080EF420246EBAECCBF0000E1A6E3C
:10206000640E196E35ECDDF04550020D4D0EF32473
:10207000F66EF20EF420F76EF86A000EF8220900F0
:10208000F5CF21F00A00F5CF22F045502D0DDC0EE2
:10209000F324236E080EF420246EA4ECDCF0000E72
:1020A0001A6E640E196E35ECDDF04550020D4D0EC2
:1020B000F324F66EF20EF420F76EF86A000EF822A2
:1020C0000900F5CF21F00A00F5CF22F045502D0D83
:1020D000DC0EF324236E080EF420246E4AECE3F0A9
:1020E000000E1A6E640E196E35ECDDF04550020DCF
:1020F0004D0EF324F66EF20EF420F76EF86A000E21
:10210000F8220900F5CF21F00A00F5CF22F0455062
:102110002D0DDC0EF324236E080EF420246E2DEC1E
:10212000E3F0000E1A6E640E196E35ECDDF04550CA
:10213000020D4D0EF324F66EF20EF420F76EF86ADF
:10214000000EF8220900F5CF21F00A00F5CF22F0A9
:1021500045502D0DDC0EF324236E080EF420246E62
:10216000F3ECE2F0000E1A6E640E196E35ECDDF041
:102170004550020D4D0EF324F66EF20EF420F76E6C
:10218000F86A000EF8220900F5CF21F00A00F5CF19
:1021900022F045502D0DDC0EF324236E080EF420A2
:1021A000246EA5ECB7F0000E1A6E640E196E35ECB5
:1021B000DDF0452A0B0E4564E0EF90F0E2EF90F081
:1021C00041EF8FF0000E0001AB6F390EFB6FFE0E7A
:1021D000FC6FC90EFD6F000EFE6F000EFF6F23EC4B
:1021E00092F022EF92F0000E196E050E1A6EF60EA6
:1021F0001B6E000E1C6E000E1E6E020E1D6EF2ECAB
:10220000D8F019501A10D8A408EF91F00AEF91F005
:10221000B3EF91F0030E196E050E1A6EDB0E1B6EF6
:10222000000E1C6E000E1E6E060E1D6EF2ECD8F037
:1022300019501A10D8A41FEF91F021EF91F094EFEC
:1022400091F000019F51D8B428EF91F02AEF91F05E
:1022500038EF91F0000EAB6F390EFB6FF90EFC6F8B
:10226000C90EFD6F000EFE6F010EFF6F23EC92F0A2
:10227000DB0E196E000E1A6E0A0E1B6E050E1C6E1A
:10228000000E1E6E060E1D6E01ECDEF0C90E196EFC
:10229000000E1A6EB50E1B6E000E1C6E000E1E6E2A
:1022A0000A0E1D6E01ECDEF0010E00019F6FB50EEF
:1022B000196E000E1A6EF00E1B6E020E1C6E000ED2
:1022C0001E6E0A0E1D6E01ECDEF0000E1A6E320E4E
:1022D000196E35ECDDF034ECDFF0000E1A6E320EC4
:1022E000196E35ECDDF06CECDFF0000E1A6E320E7C
:1022F000196E35ECDDF010ECE3F0000E1A6E320EC4
:10230000196E35ECDDF0000E0001AB6FF90EFB6FBE
:10231000FD0EFC6FC90EFD6F000EFE6F000EFF6F0D
:1023200023EC92F022EF92F0000E0001AB6FE20E70
:10233000FB6FFD0EFC6FB50EFD6F000EFE6F000E05
:10234000FF6F23EC92F0B50E196E000E1A6EF00EB0
:102350001B6E020E1C6E000E1E6E0A0E1D6E01EC30
:10236000DEF022EF92F0000E196E050E1A6EEC0EE2
:102370001B6E010E1C6E000E1E6E040E1D6EF2EC26
:10238000D8F019501A10D8A4C8EF91F0CAEF91F004
:10239000DBEF91F0000E0001AB6F100EFB6FFE0E35
:1023A000FC6FB50EFD6F000EFE6F000EFF6F23EC8D
:1023B00092F0A3EF91F0000E196E050E1A6EEC0E5E
:1023C0001B6E040E1C6E000E1E6E0B0E1D6EF2ECCC
:1023D000D8F019501A10D8A4F0EF91F0F2EF91F064
:1023E00003EF92F0000E0001AB6F5D0EFB6FFE0E6F
:1023F000FC6FB50EFD6F000EFE6F040EFF6F23EC39
:1024000092F0A3EF91F0000E196E060EC4ECE4F00A
:10241000ABEF80F083ECE3F0000E196E070EC4EC16
:10242000E4F0030E1A6EE80E196E35ECDDF022EFC3
:1024300092F083ECE3F0000E196E080EC4ECE4F0A9
:10244000ABEF80F012001E0E0001AC6F8D0E216EFE
:10245000FF0E226E7BECE1F0000E1A6E320E196E4A
:1024600035ECDDF0FDC021F0FEC022F00A0E236E37
:10247000D5ECE2F0000E1A6E320E196E35ECDDF07E
:10248000F90E216EFE0E226E7BECE1F0000E1A6E4C
:10249000640E196E35ECDDF0FBC021F0FCC022F0BB
:1024A0007BECE1F0000E1A6E640E196E35ECDDF077
:1024B0000AEF99F0B50E216E000E226E0A0E236E01
:1024C000D5ECE2F0000E1A6E640E196E35ECDDF0FC
:1024D00039EF99F0B50E216E000E226E020E236EBA
:1024E000D5ECE2F062EF92F0B50E216E000E226E96
:1024F000110E236ED5ECE2F062EF92F0D40E216E55
:10250000000E226E060E236ED5ECE2F062EF92F022
:1025100060C031F061C032F031C01FF032C020F035
:10252000030E226EE80E216EC2ECDEF01F50300F5B
:102530000001C36F030E1C6EE80E1B6E31C019F054
:1025400032C01AF07BECE0F019C01FF01AC020F086
:10255000000E226E640E216EC2ECDEF01F50300FB2
:102560000001C46F000E1C6E640E1B6E31C019F0AA
:1025700032C01AF07BECE0F019C01FF01AC020F056
:10258000000E226E0A0E216EC2ECDEF01F50300FDC
:102590000001C56F31C019F032C01AF0000E1C6E78
:1025A0000A0E1B6E7BECE0F01950300F0001C66F75
:1025B000C30E216E000E226E040E236ED5ECE2F0E7
:1025C000000E1A6E320E196E35ECDDF0E10E216E42
:1025D000FF0E226E7BECE1F0000E1A6E320E196EC9
:1025E00035ECDDF0E6C031F0E7C032F031C01FF06D
:1025F00032C020F0030E226EE80E216EC2ECDEF037
:102600001F50300F0001C36F030E1C6EE80E1B6ECF
:1026100031C019F032C01AF07BECE0F019C01FF0A5
:102620001AC020F0000E226E640E216EC2ECDEF0A5
:102630001F50300F0001C46F000E1C6E640E1B6E25
:1026400031C019F032C01AF07BECE0F019C01FF075
:102650001AC020F0000E226E0A0E216EC2ECDEF0CF
:102660001F50300F0001C56F31C019F032C01AF091
:10267000000E1C6E0A0E1B6E7BECE0F01950300F42
:102680000001C66FC30E216E000E226E040E236E73
:10269000D5ECE2F062EF92F0B50E216E000E226EE4
:1026A000020E236ED5ECE2F0000E1A6E320E196E99
:1026B00035ECDDF0F90E216EFF0E226E7BECE1F0C1
:1026C000000E1A6E320E196E35ECDDF082C031F05C
:1026D00083C032F031C01FF032C020F0270E226ECE
:1026E000100E216EC2ECDEF01F50300F0001C36FE0
:1026F000270E1C6E100E1B6E31C019F032C01AF07E
:102700007BECE0F019C01FF01AC020F0030E226E1F
:10271000E80E216EC2ECDEF01F50300F0001C46FD6
:10272000030E1C6EE80E1B6E31C019F032C01AF099
:102730007BECE0F019C01FF01AC020F0000E226EF2
:10274000640E216EC2ECDEF01F50300F0001C56F29
:10275000000E1C6E640E1B6E31C019F032C01AF0F0
:102760007BECE0F019C01FF01AC020F0000E226EC2
:102770000A0E216EC2ECDEF01F50300F0001C66F52
:1027800031C019F032C01AF0000E1C6E0A0E1B6E1A
:102790007BECE0F01950300F0001C76FC30E216EC3
:1027A000000E226E050E236ED5ECE2F062EF92F081
:1027B000000E1A6E0A0E196E35ECDDF0B50E216EA4
:1027C000000E226E020E236ED5ECE2F0000E1A6EA1
:1027D0000A0E196E35ECDDF0C40E216EFF0E226E6E
:1027E0007BECE1F0000E1A6E0A0E196E35ECDDF08E
:1027F00045502D0DE00EF324D96E080EF420DA6E4C
:10280000DECF31F0DDCF32F031C01FF032C020F02A
:10281000000E226E640E216EC2ECDEF01F50300FEF
:102820000001B56F000E1C6E640E1B6E31C019F0F6
:1028300032C01AF07BECE0F019C01FF01AC020F093
:10284000000E226E0A0E216EC2ECDEF01F50300F19
:102850000001B66F31C019F032C01AF0000E1C6EC4
:102860000A0E1B6E7BECE0F01950300F0001B76FC1
:10287000B50E216E000E226E030E236ED5ECE2F033
:10288000000E1A6E0A0E196E35ECDDF0B20E216ED6
:10289000FF0E226E7BECE1F0000E1A6E0A0E196E2E
:1028A00035ECDDF045502D0DFA0EF324D96E080EEF
:1028B000F420DA6EDF500101FD6FFD51196E1A6AC6
:1028C000000E1C6E0A0E1B6EBEECD9F01950300FB4
:1028D0000001B56F45502D0DFA0EF324D96E080E88
:1028E000F420DA6EDF500101FD6FFD512B6E2C6A72
:1028F000000E2E6E0A0E2D6E20ECDAF02B50300FEB
:102900000001B66FB50E216E000E226E020E236E10
:10291000D5ECE2F0000E1A6E0A0E196E35ECDDF001
:10292000F30E216EFF0E226E7BECE1F0000E1A6EAC
:102930000A0E196E35ECDDF045502D0DDC0EF3243A
:10294000D96E080EF420DA6EDECF31F0DDCF32F032
:1029500031C01FF032C020F0000E226E640E216ED6
:10296000C2ECDEF01F50300F0001B56F000E1C6E80
:10297000640E1B6E31C019F032C01AF07BECE0F02F
:1029800019C01FF01AC020F0000E226E0A0E216E30
:10299000C2ECDEF01F50300F0001B66F31C019F0ED
:1029A00032C01AF0000E1C6E0A0E1B6E7BECE0F0BB
:1029B0001950300F0001B76FB50E216E000E226E58
:1029C000030E236ED5ECE2F0000E1A6E0A0E196E9D
:1029D00035ECDDF0ED0E216EFF0E226E7BECE1F0AA
:1029E000000E1A6E0A0E196E35ECDDF045502D0DF5
:1029F000DE0EF324D96E080EF420DA6EDECF31F04D
:102A0000DDCF32F031C01FF032C020F0000E226E58
:102A1000640E216EC2ECDEF01F50300F0001B56F66
:102A2000000E1C6E640E1B6E31C019F032C01AF01D
:102A30007BECE0F019C01FF01AC020F0000E226EEF
:102A40000A0E216EC2ECDEF01F50300F0001B66F8F
:102A500031C019F032C01AF0000E1C6E0A0E1B6E47
:102A60007BECE0F01950300F0001B76FB50E216E0E
:102A7000000E226E030E236ED5ECE2F0000E1A6EED
:102A80000A0E196E35ECDDF0770E216EFF0E226E08
:102A90007BECE1F0000E1A6E0A0E196E35ECDDF0DB
:102AA00045502D0DFD0EF324D96E080EF420DA6E7C
:102AB000DF500101FD6FFD51196E1A6A000E1C6E88
:102AC0000A0E1B6EBEECD9F01950300F0001B56F25
:102AD00045502D0DFD0EF324D96E080EF420DA6E4C
:102AE000DF500101FD6FFD512B6E2C6A000E2E6E22
:102AF0000A0E2D6E20ECDAF02B50300F0001B66F6D
:102B0000B50E216E000E226E020E236ED5ECE2F0A1
:102B1000000E1A6E0A0E196E35ECDDF045502D0DC3
:102B2000FE0EF324D96E080EF420DA6EDF50010198
:102B3000FD6FFD51196E1A6A000E1C6E0A0E1B6E97
:102B4000BEECD9F01950300F0001B56F45502D0D76
:102B5000FE0EF324D96E080EF420DA6EDF50010168
:102B6000FD6FFD512B6E2C6A000E2E6E0A0E2D6E1F
:102B700020ECDAF02B50300F0001B66FB50E216E4D
:102B8000000E226E020E236ED5ECE2F0000E1A6EDD
:102B90000A0E196E35ECDDF045502D0DFF0EF324B5
:102BA000D96E080EF420DA6EDF500101FD6FFD5181
:102BB000196E1A6A000E1C6E0A0E1B6EBEECD9F05E
:102BC0001950300F0001B56F45502D0DFF0EF32445
:102BD000D96E080EF420DA6EDF500101FD6FFD5151
:102BE0002B6E2C6A000E2E6E0A0E2D6E20ECDAF083
:102BF0002B50300F0001B66FB50E216E000E226E05
:102C0000020E236ED5ECE2F0000E1A6E0A0E196E5B
:102C100035ECDDF045502D0DFB0EF324D96E080E7A
:102C2000F420DA6EDF500101FD6FFD51196E1A6A52
:102C3000000E1C6E0A0E1B6EBEECD9F01950300F40
:102C40000001B56F45502D0DFB0EF324D96E080E13
:102C5000F420DA6EDF500101FD6FFD512B6E2C6AFE
:102C6000000E2E6E0A0E2D6E20ECDAF02B50300F77
:102C70000001B66FB50E216E000E226E020E236E9D
:102C8000D5ECE2F0000E1A6E0A0E196E35ECDDF08E
:102C900045502D0DFC0EF324D96E080EF420DA6E8B
:102CA000DF500101FD6FFD51196E1A6A000E1C6E96
:102CB0000A0E1B6EBEECD9F01950300F0001B56F33
:102CC00045502D0DFC0EF324D96E080EF420DA6E5B
:102CD000DF500101FD6FFD512B6E2C6A000E2E6E30
:102CE0000A0E2D6E20ECDAF02B50300F0001B66F7B
:102CF000B50E216E000E226E020E236ED5ECE2F0B0
:102D0000000E1A6E0A0E196E35ECDDF0FA0E216E09
:102D1000FE0E226E7BECE1F045502D0D070EF324E4
:102D2000D96E090EF420DA6EDF50D8B49AEF96F01F
:102D30009CEF96F09CEF97F08A0E216EFE0E226EAD
:102D40007BECE1F045502D0DE20EF324D96E080E18
:102D5000F420DA6EDECF31F0DDCF32F031C01FF07B
:102D600032C020F0000E226E640E216EC2ECDEF046
:102D70001F50300F0001B56F000E1C6E640E1B6EED
:102D800031C019F032C01AF07BECE0F019C01FF02E
:102D90001AC020F0000E226E0A0E216EC2ECDEF088
:102DA0001F50300F0001B66F31C019F032C01AF059
:102DB000000E1C6E0A0E1B6E7BECE0F01950300FFB
:102DC0000001B76FB50E216E000E226E030E236E4A
:102DD000D5ECE2F0000E1A6E0A0E196E35ECDDF03D
:102DE000C40E216EFF0E226E7BECE1F0000E1A6E17
:102DF0000A0E196E35ECDDF045502D0DE40EF3246E
:102E0000D96E080EF420DA6EDECF31F0DDCF32F06D
:102E100031C01FF032C020F0000E226E640E216E11
:102E2000C2ECDEF01F50300F0001B56F000E1C6EBB
:102E3000640E1B6E31C019F032C01AF07BECE0F06A
:102E400019C01FF01AC020F0000E226E0A0E216E6B
:102E5000C2ECDEF01F50300F0001B66F31C019F028
:102E600032C01AF0000E1C6E0A0E1B6E7BECE0F0F6
:102E70001950300F0001B76FB50E216E000E226E93
:102E8000030E236ED5ECE2F0000E1A6E0A0E196ED8
:102E900035ECDDF04A0E216EFF0E226E7BECE1F088
:102EA000000E1A6E0A0E196E35ECDDF045502D0D30
:102EB000000EF324D96E090EF420DA6EDF50010102
:102EC000FD6FFD51196E1A6A000E1C6E0A0E1B6E04
:102ED000BEECD9F01950300F0001B56F45502D0DE3
:102EE000000EF324D96E090EF420DA6EDF500101D2
:102EF000FD6FFD512B6E2C6A000E2E6E0A0E2D6E8C
:102F000020ECDAF02B50300F0001B66FB50E216EB9
:102F1000000E226E020E236ED5ECE2F0000E1A6E49
:102F20000A0E196E35ECDDF0FA0E216EFE0E226EE1
:102F30007BECE1F039EF99F0AA0E216EFE0E226EC5
:102F40007BECE1F0000E1A6E0A0E196E35ECDDF026
:102F500039EF99F0000E1A6E0A0E196E35ECDDF09D
:102F6000610E216EFF0E226E7BECE1F0000E1A6EF8
:102F70000A0E196E35ECDDF0A4C019F01A6A000EC5
:102F80001C6E0A0E1B6EBEECD9F01950300F0001FA
:102F9000B56FA4C02BF02C6A000E2E6E0A0E2D6E9B
:102FA00020ECDAF02B50300F0001B66FB50E216E19
:102FB000000E226E020E236ED5ECE2F0000E1A6EA9
:102FC0000A0E196E35ECDDF0DA0E216EFF0E226E60
:102FD0007BECE1F0000E1A6E0A0E196E35ECDDF096
:102FE000A00E216EFF0E226E7BECE1F0000E1A6E39
:102FF0000A0E196E35ECDDF0A3C019F01A6A000E46
:103000001C6E0A0E1B6EBEECD9F01950300F000179
:10301000B56FA3C02BF02C6A000E2E6E0A0E2D6E1B
:1030200020ECDAF02B50300F0001B66FB50E216E98
:10303000000E226E020E236ED5ECE2F0000E1A6E28
:103040000A0E196E35ECDDF0DA0E216EFF0E226EDF
:103050007BECE1F0000E1A6E0A0E196E35ECDDF015
:10306000A90E216EFF0E226E7BECE1F0000E1A6EAF
:103070000A0E196E35ECDDF0A2C019F01A6A000EC6
:103080001C6E0A0E1B6EBEECD9F01950300F0001F9
:10309000B56FA2C02BF02C6A000E2E6E0A0E2D6E9C
:1030A00020ECDAF02B50300F0001B66FB50E216E18
:1030B000000E226E020E236ED5ECE2F0000E1A6EA8
:1030C0000A0E196E35ECDDF0E70E216EFF0E226E52
:1030D0007BECE1F0000E1A6E0A0E196E35ECDDF095
:1030E0006C0E216EFF0E226E7BECE1F0000E1A6E6C
:1030F0000A0E196E35ECDDF0A1C019F01A6A000E47
:103100001C6E0A0E1B6EBEECD9F01950300F000178
:10311000B56FA1C02BF02C6A000E2E6E0A0E2D6E1C
:1031200020ECDAF02B50300F0001B66FB50E216E97
:10313000000E226E020E236ED5ECE2F0000E1A6E27
:103140000A0E196E35ECDDF0DA0E216EFF0E226EDE
:103150007BECE1F0000E1A6E0A0E196E35ECDDF014
:10316000DB0E216EFE0E226E7BECE1F0000E1A6E7D
:103170000A0E196E35ECDDF086C031F087C032F0F2
:1031800031C01FF032C020F0000E226E640E216E9E
:10319000C2ECDEF01F50300F0001B56F000E1C6E48
:1031A000640E1B6E31C019F032C01AF07BECE0F0F7
:1031B00019C01FF01AC020F0000E226E0A0E216EF8
:1031C000C2ECDEF01F50300F0001B66F31C019F0B5
:1031D00032C01AF0000E1C6E0A0E1B6E7BECE0F083
:1031E0001950300F0001B76FB50E216E000E226E20
:1031F000030E236ED5ECE2F0000E1A6E0A0E196E65
:1032000035ECDDF0E70E216EFF0E226E7BECE1F077
:10321000A2EF97F00001FF510101FD6FFE6BFE511F
:10322000000AD8B416EF99F039EF99F0FD51010A70
:10323000D8B45AEF92F0030AD8B46AEF92F0010AB8
:10324000D8B474EF92F0070AD8B47EEF92F0010A76
:10325000D8B488EF92F0030AD8B44CEF93F0010A87
:10326000D8B4D8EF93F00F0AD8B4AAEF97F039EF9B
:1032700099F0000E386E000E0001AB6F1A0E90EC44
:10328000E4F0000E1A6E640E196E35ECDDF0000EDF
:10329000196E000EC4ECE4F0C9803850D8B453EF76
:1032A00099F055EF99F04DEF99F00E013885000E29
:1032B000196E0F0EC4ECE4F0010E1A6EF40E196EC6
:1032C00035ECDDF01200000E0301FF6FD7A26BEFAB
:1032D00099F06DEF99F097EF99F0D7A472EF99F00C
:1032E00074EF99F097EF99F0D7A679EF99F07BEF0B
:1032F00099F097EF99F0D7A080EF99F082EF99F0CD
:1033000097EF99F0D7A887EF99F089EF99F097EFA9
:1033100099F0D7BE8EEF99F090EF99F097EF99F072
:10332000D7AC95EF99F097EF99F09FEF9CF0D7A26B
:103330009CEF99F09EEF99F0A5EF99F0D7B0A3EF2D
:1033400099F0A5EF99F0AAEF99F0D786D784D7889E
:10335000D79ED79CD7B2AFEF99F0B1EF99F0B6EF07
:1033600099F0010EFF6FD782FAEF99F0D7B0BBEF5B
:1033700099F0BDEF99F0C2EF99F0020EFF6FD78080
:10338000FAEF99F0D7B6C7EF99F0C9EF99F0CEEF01
:1033900099F0030EFF6FD786FAEF99F0D7B4D3EF09
:1033A00099F0D5EF99F0DAEF99F0040EFF6FD7841A
:1033B000FAEF99F0D7B8DFEF99F0E1EF99F0E6EF87
:1033C00099F0050EFF6FD788FAEF99F0D7BEEBEFB3
:1033D00099F0EDEF99F0F4EF99F0D7ACF2EF99F0A6
:1033E000F4EF99F0FAEF99F0060EFF6FD79ED79C95
:1033F000FAEF99F0030EFF19D8B401EF9AF003EF3A
:103400009AF009EF9AF0750E1A6E300E196E35ECBF
:10341000DDF010ECD1F0030E1A6EE80E196E35ECEB
:10342000DDF0A6ECBCF0030E1A6EE80E196E35EC5A
:10343000DDF085ECD2F0030E1A6EE80E196E35EC55
:10344000DDF029ECD3F0030E1A6EE80E196E35ECA0
:10345000DDF000018C51D8A430EF9AF032EF9AF0F1
:103460003AEF9AF0010E8C6FC6ECDBF0FCECDEF06C
:103470000BECE2F0030E0301FF19D8A442EF9AF01F
:1034800044EF9AF09DEF9CF0000E456E5FEF9AF0CE
:10349000010E196E000EC4ECE4F0010E1A6EF40E6B
:1034A000196E35ECDDF0010E196E0F0EC4ECE4F070
:1034B000010E1A6EF40E196E35ECDDF0452A050E7C
:1034C000456065EF9AF067EF9AF070EF9AF00001AF
:1034D000A951D8B46EEF9AF070EF9AF048EF9AF0D5
:1034E0000001A951D8A477EF9AF079EF9AF06BEF29
:1034F0009CF0010E456E090E456481EF9AF083EF52
:103500009AF085EF9AF097EF9AF00001A92BE8EC7A
:10351000E1F0010E196E4550C4ECE4F0270E1A6E6E
:10352000100E196E35ECDDF0452A7BEF9AF0000E97
:103530000001A96FE8ECE1F09DEF9CF0000E0001A6
:10354000A96FE8ECE1F0000E456E040E4564ABEFA8
:103550009AF0ADEF9AF0AFEF9AF0C8EF9AF0010E43
:10356000196E0F0EC4ECE4F0010E1A6EF40E196E13
:1035700035ECDDF0010E196E010EC4ECE4F0030E23
:103580001A6EE80E196E35ECDDF0452AA5EF9AF0BB
:10359000000E266E020EECECBEF08E9E000E0001B8
:1035A000AB6F2E0EFB6FFA0EFC6FC90EFD6F000E97
:1035B000FE6F050EFF6F23EC92F097EF9AF0000E6E
:1035C0000001A96FE8ECE1F0000E456E040E4564C1
:1035D000ECEF9AF0EEEF9AF0F0EF9AF009EF9BF033
:1035E000010E196E0F0EC4ECE4F0010E1A6EF40E0B
:1035F000196E35ECDDF0010E196E020EC4ECE4F02C
:10360000030E1A6EE80E196E35ECDDF0452AE6EF72
:103610009AF0000E266E010EECECBEF0CEEF9AF0A2
:10362000000E0001A96FE8ECE1F0000E456E040EFB
:1036300045641DEF9BF01FEF9BF021EF9BF03AEFED
:103640009BF0010E196E0F0EC4ECE4F0010E1A6E21
:10365000F40E196E35ECDDF0010E196E030EC4EC9C
:10366000E4F0030E1A6EE80E196E35ECDDF0452A13
:1036700017EF9BF0C3ECC6F097EF9AF0000E000135
:10368000A96FE8ECE1F0000E456E040E45644BEFC7
:103690009BF04DEF9BF04FEF9BF097EF9AF0010EF0
:1036A000196E0F0EC4ECE4F0010E1A6EF40E196ED2
:1036B00035ECDDF0010E196E040EC4ECE4F0030EDF
:1036C0001A6EE80E196E35ECDDF0452A45EF9BF0D9
:1036D000000E0001A96FE8ECE1F0000E456E040E4B
:1036E000456475EF9BF077EF9BF079EF9BF097EFD8
:1036F0009AF0010E196E0F0EC4ECE4F0010E1A6E72
:10370000F40E196E35ECDDF0010E196E050EC4ECE9
:10371000E4F0030E1A6EE80E196E35ECDDF0452A62
:103720006FEF9BF0000E0001A96FE8ECE1F0000ED6
:10373000456E040E45649FEF9BF0A1EF9BF0A3EF55
:103740009BF097EF9AF0010E196E0F0EC4ECE4F0A7
:10375000010E1A6EF40E196E35ECDDF0010E196EC5
:10376000060EC4ECE4F0030E1A6EE80E196E35EC8A
:10377000DDF0452A99EF9BF0000E0001A96FE8ECFF
:10378000E1F000019F51D8B4C8EF9BF0CAEF9BF065
:1037900097EF9AF0000E456E040E4564D2EF9BF051
:1037A000D4EF9BF0D6EF9BF0EFEF9BF0010E196E7C
:1037B0000F0EC4ECE4F0010E1A6EF40E196E35EC27
:1037C000DDF0010E196E070EC4ECE4F0030E1A6E64
:1037D000E80E196E35ECDDF0452ACCEF9BF0C2EC1B
:1037E000CCF0ADECE0F0030E1A6EE80E196E35EC7D
:1037F000DDF0A6ECBCF097EF9AF0000E0001A96F87
:10380000E8ECE1F000019F51D8B409EF9CF00BEF18
:103810009CF097EF9AF0000E456E040E456413EF8E
:103820009CF015EF9CF017EF9CF030EF9CF0010E30
:10383000196E0F0EC4ECE4F0010E1A6EF40E196E40
:1038400035ECDDF0010E196E080EC4ECE4F0030E49
:103850001A6EE80E196E35ECDDF0452A0DEF9CF07E
:10386000C2ECCCF0F3EF9BF0000E0001A96FE8EC86
:10387000E1F000019F51D8B440EF9CF042EF9CF082
:1038800097EF9AF0000E456E040E45644AEF9CF0E7
:103890004CEF9CF04EEF9CF067EF9CF0010E196E20
:1038A0000F0EC4ECE4F0010E1A6EF40E196E35EC36
:1038B000DDF0010E196E090EC4ECE4F0030E1A6E71
:1038C000E80E196E35ECDDF0452A44EF9CF0ADECC6
:1038D000E0F0F3EF9BF0A9510401FE6FFF6BFF5185
:1038E000000AD8B476EF9CF097EF9AF0FE51010AE7
:1038F000D8B49EEF9AF0030AD8B4DFEF9AF0010A29
:10390000D8B410EF9BF0070AD8B43EEF9BF0010A41
:10391000D8B468EF9BF0030AD8B492EF9BF0010A89
:10392000D8B4BCEF9BF00F0AD8B4FDEF9BF0010AAE
:10393000D8B434EF9CF097EF9AF0D9ECE0F00001A6
:103940009F51D8B4A6EF9CF0A8EF9CF09DEF9FF09C
:1039500074ECE2F00009D8B4B0EF9CF0B2EF9CF048
:10396000C8EF9CF0FF0E346EDC0E336E680E000163
:10397000FB6FF70EFC6FC90EFD6F000EFE6F000EA1
:10398000FF6F23EC92F0010E00018F6FC3EF9FF0E9
:10399000000E0001A86F000E456E24EF9EF045500A
:1039A0002D0D050EF324D96E090EF420DA6EDE0417
:1039B000D8A4DDEF9CF0DFEF9CF023EF9EF021EC2C
:1039C000DBF045502D0DFF0EF324D96E080EF420C8
:1039D000DA6E4050DE5CD8A0F0EF9CF0F2EF9CF085
:1039E0008BEF9DF045502D0DFE0EF324D96E080E81
:1039F000F420DA6E3F50DE5CD8B001EF9DF003EFAB
:103A00009DF014EF9DF045502D0DFF0EF324D96E5F
:103A1000080EF420DA6E4050DE18D8B412EF9DF094
:103A200014EF9DF08BEF9DF045502D0DFD0EF3240E
:103A3000D96E080EF420DA6E3E50DE5CD8B023EF6B
:103A40009DF025EF9DF047EF9DF045502D0DFE0EAA
:103A5000F324D96E080EF420DA6E3F50DE18D8A495
:103A600034EF9DF036EF9DF047EF9DF045502D0D62
:103A7000FF0EF324D96E080EF420DA6E4050DE18E3
:103A8000D8B445EF9DF047EF9DF08BEF9DF045508A
:103A90002D0DFB0EF324D96E080EF420DA6E3D5086
:103AA000DE5CD8B056EF9DF058EF9DF01DEF9EF014
:103AB00045502D0DFD0EF324D96E080EF420DA6E5C
:103AC0003E50DE18D8A467EF9DF069EF9DF01DEF22
:103AD0009EF045502D0DFE0EF324D96E080EF420F5
:103AE000DA6E3F50DE18D8A478EF9DF07AEF9DF0A3
:103AF0001DEF9EF045502D0DFF0EF324D96E080EDC
:103B0000F420DA6E4050DE18D8A489EF9DF08BEFD8
:103B10009DF01DEF9EF0000E376E45502D0D050EE9
:103B2000F324D96E090EF420DA6E000EDF6E4550D4
:103B30002D0D030EF324D96E090EF420DA6E4550D4
:103B40002D0D040EF324E16E090EF420E26EDFCF9A
:103B5000E7FF45C0A8F045502D0D070EF324D96EA0
:103B6000090EF420DA6EDF50D8B4B9EF9DF0BBEF48
:103B70009DF015EF9EF045502D0D020EF324D96EE9
:103B8000090EF420DA6E020EDE18D8A4CAEF9DF0FA
:103B9000CCEF9DF0EAEF9DF045502D0D020EF32481
:103BA000D96E090EF420DA6E000EDF6E45502D0D31
:103BB000080EF324D96E090EF420DA6E010EDF6EC2
:103BC000CDECDAF023C084F024C085F043ECDEF0C5
:103BD00015EF9EF045502D0D020EF324D96E090EFF
:103BE000F420DA6E030EDE18D8B4F9EF9DF0FBEF87
:103BF0009DF00BEF9EF045502D0D020EF324D96E73
:103C0000090EF420DA6EDE04D8A409EF9EF00BEF63
:103C10009EF015EF9EF045502D0D020EF324D96E47
:103C2000090EF420DA6E000EDF6E000E1A6E640EBE
:103C3000196E35ECDDF02CEF9EF0010E376E45C0AD
:103C4000A8F02CEF9EF0452A0B0E45642AEF9EF05B
:103C50002CEF9EF0CFEF9CF03750D8B432EF9EF0AF
:103C600034EF9EF040EF9FF0010E0001946F090EBB
:103C700045603DEF9EF03FEF9EF046EF9EF0300E28
:103C8000B56F4550310FB66FB7EF9EF0080E456423
:103C90004CEF9EF04EEF9EF0B7EF9EF00C0E45609D
:103CA00054EF9EF056EF9EF0B7EF9EF0310EB56FD9
:103CB0004550270FB66FB7EF9EF0A60E0001FB6FC1
:103CC000F40EFC6FC90EFD6F000EFE6F020EFF6F4B
:103CD00023EC92F0DEEF9EF0410E0001FB6FF50E3B
:103CE000FC6FC90EFD6F000EFE6F020EFF6F23EC1E
:103CF00092F0DEEF9EF0F40E0001FB6FF40EFC6F0D
:103D0000C90EFD6F000EFE6F020EFF6F23EC92F0E6
:103D1000DEEF9EF0540E0001FB6FF40EFC6FC90E37
:103D2000FD6F000EFE6F020EFF6F23EC92F0DEEFD0
:103D30009EF0D60E0001FB6FF50EFC6FC90EFD6FF5
:103D4000000EFE6F020EFF6F23EC92F0DEEF9EF08E
:103D50008C0E0001FB6FF50EFC6FC90EFD6F000E9F
:103D6000FE6F020EFF6F23EC92F0DEEF9EF0030178
:103D7000FF510401FE6FFF6BFF51000AD8B4C3EF7F
:103D80009EF0DEEF9EF0FE51010AD8B45DEF9EF08A
:103D9000030AD8B46CEF9EF0010AD8B47BEF9EF012
:103DA000070AD8B48AEF9EF0010AD8B499EF9EF0C2
:103DB000030AD8B4A8EF9EF0DEEF9EF0CDECDAF067
:103DC00023C033F024C034F0C3EF9FF02D0E000168
:103DD000FB6FFB0EFC6FC90EFD6F000EFE6F000E39
:103DE000FF6F23EC92F067EF9FF00A0E0001FB6F6C
:103DF000FD0EFC6FC90EFD6F000EFE6F000EFF6F13
:103E000023EC92F067EF9FF0520E0001FB6FFB0E68
:103E1000FC6FC90EFD6F000EFE6F000EFF6F23ECEE
:103E200092F067EF9FF0B40E0001FB6FFA0EFC6F8B
:103E3000C90EFD6F000EFE6F000EFF6F23EC92F0B7
:103E400067EF9FF0670E0001FB6FFC0EFC6FC90E61
:103E5000FD6F000EFE6F000EFF6F23EC92F067EF18
:103E60009FF0460E0001FB6FFC0EFC6FC90EFD6F4C
:103E7000000EFE6F000EFF6F23EC92F067EF9FF0D5
:103E80000301FF510401FE6FFF6BFF51000AD8B41C
:103E90004CEF9FF067EF9FF0FE51010AD8B4E6EFB8
:103EA0009EF0030AD8B4F5EF9EF0010AD8B404EFEF
:103EB0009FF0070AD8B413EF9FF0010AD8B422EF9D
:103EC0009FF0030AD8B431EF9FF067EF9FF0C3EF84
:103ED0009FF0000E196E010EC4ECE4F0DB0E196EBB
:103EE000000E1A6ED40E1B6E000E1C6E000E1E6E9F
:103EF000060E1D6E01ECDEF0FF0E346EDC0E336E2E
:103F0000ACECCAF000019E51D8B489EF9FF08BEF62
:103F10009FF09DEF9FF0010E196E020EC4ECE4F0CD
:103F2000010E1A6EF40E196E35ECDDF0000E000174
:103F30009E6F00EC80F0D9ECE0F000019F51D8B406
:103F4000A4EF9FF0A6EF9FF069EF9FF074ECE2F012
:103F50000009D8B4AEEF9FF0B0EF9FF0C3EF9FF031
:103F6000FF0E346EDC0E336EEC0E0001FB6FF60EAE
:103F7000FC6FC90EFD6F000EFE6F000EFF6F23EC8D
:103F800092F0C3EF9CF0DBECDFF00009D8B4CBEF8C
:103F90009FF0CDEF9FF0F5EF9FF06C0E0001FB6FEF
:103FA000F90EFC6FC90EFD6F000EFE6F000EFF6F65
:103FB00023EC92F000018B51D8B4E1EF9FF0E3EFD6
:103FC0009FF04EEFA0F074ECCFF0030E1A6EE80EE7
:103FD000196E35ECDDF0EDECDCF0030E1A6EE80E38
:103FE000196E35ECDDF04EEFA0F000019151D8B420
:103FF000FCEF9FF0FEEF9FF044EFA0F0000E916FFA
:10400000000E1A6E640E196E35ECDDF02EECE2F047
:10401000000E1A6E640E196E35ECDDF000018B5146
:10402000D8B415EFA0F017EFA0F036EFA0F074ECC5
:10403000CFF0030E1A6EE80E196E35ECDDF0EDECE4
:10404000DCF0030E1A6EE80E196E35ECDDF0C90EC9
:104050000001FB6FF80EFC6FC90EFD6F000EFE6FC6
:10406000000EFF6F23EC92F04EEFA0F0910EFB6F6D
:10407000F80EFC6FC90EFD6F000EFE6F000EFF6F95
:1040800023EC92F04EEFA0F08B51D8B44AEFA0F0A1
:104090004CEFA0F04EEFA0F0E3EF9FF0120037508E
:1040A000D8B455EFA0F057EFA0F04CEFA4F0335088
:1040B0003410D8A45EEFA0F060EFA0F04CEFA4F0B5
:1040C00000019851D8A467EFA0F069EFA0F04CEF81
:1040D000A4F09251D8A46FEFA0F071EFA0F04CEFD4
:1040E000A4F09551D8A477EFA0F079EFA0F04CEFB1
:1040F000A4F09751D8A47FEFA0F081EFA0F04CEF8F
:10410000A4F0000E0101FF6F42EFA4F0FF512D0D4E
:10411000050EF324D96E090EF420DA6EDE04D8A45D
:1041200094EFA0F096EFA0F008EFA2F0FF512D0D54
:10413000070EF324D96E090EF420DA6EDF50D8B4DE
:10414000A4EFA0F0A6EFA0F008EFA2F0FF512D0D14
:10415000020EF324D96E090EF420DA6EDE04D8A420
:10416000B4EFA0F0B6EFA0F008EFA2F0030E1A6EC5
:10417000E80E196E35ECDDF08E8C010E0001886FB3
:104180000101FF512D0DE60EF324D96E080EF42027
:10419000DA6EDECF80F0DDCF81F0FF512D0DE80E1D
:1041A000F324D96E080EF420DA6EDECF7EF0DDCF78
:1041B0007FF0FF512D0DEA0EF324D96E080EF42086
:1041C000DA6EDECF7CF0DDCF7DF0FF512D0DEC0EF1
:1041D000F324D96E080EF420DA6EDECF7AF0DDCF4C
:1041E0007BF0FF512D0DEE0EF324D96E080EF42056
:1041F000DA6EDECF70F0DDCF71F0FF512D0DF00ED5
:10420000F324D96E080EF420DA6EDECF6EF0DDCF27
:104210006FF0FF512D0DF20EF324D96E080EF4202D
:10422000DA6EDECF6CF0DDCF6DF0FF512D0DF40EA8
:10423000F324D96E080EF420DA6EDECF6AF0DDCFFB
:104240006BF0FF512D0DF60EF324D96E080EF420FD
:10425000DA6EDF500001B46F0101FF512D0DF70E32
:10426000F324D96E080EF420DA6EDF500001B36F2C
:104270000101FF512D0DF80EF324D96E080EF42024
:10428000DA6EDF500001B26F0101FF512D0DF90E02
:10429000F324D96E080EF420DA6EDF500001B16FFE
:1042A0000101FF512D0D020EF324D96E090EF420E9
:1042B000DA6E020EDF6EFF512D0D080EF324D96E5B
:1042C000090EF420DA6EDF50D8B469EFA1F06BEF7D
:1042D000A1F081EFA1F0FF512D0D080EF324D96E4E
:1042E000090EF420DA6E000EDF6E79ECDAF023C0EE
:1042F00084F024C085F084C033F085C034F08DEFA5
:10430000A1F0FF512D0DE40EF324D96E080EF42018
:10431000DA6EDECF33F0DDCF34F0000E1A6E640EAD
:10432000196E35ECDDF00101FF51020D4D0EF32445
:10433000F66EF20EF420F76EF86A000EF82209000D
:10434000F5CF21F00A00F5CF22F0FF512D0DDC0E44
:10435000F324236E080EF420246E5BECDCF0000ED8
:104360001A6E640E196E35ECDDF083ECDEF0000E93
:104370001A6E640E196E35ECDDF0090E0101FF6155
:10438000C4EFA1F0C6EFA1F0D0EFA1F0300E000114
:10439000B56F0101FF51310F0001B66FE8EFA1F0D9
:1043A000080EFF65D6EFA1F0D8EFA1F0E8EFA1F07D
:1043B0000C0EFF61DEEFA1F0E0EFA1F0E8EFA1F05D
:1043C000310E0001B56F0101FF51270F0001B66FDB
:1043D0000101FF512D0D000EF324D96E090EF420BA
:1043E000DA6EDE04D8A4F7EFA1F0F9EFA1F00EEF3A
:1043F000A6F0020E0001FB6FFC0EFC6FC90EFD6FF4
:10440000000EFE6F020EFF6F23EC92F00EEFA6F08F
:10441000FF512D0D050EF324D96E090EF420DA6E2E
:10442000DE04D8A416EFA2F018EFA2F057EFA3F025
:10443000FF512D0D070EF324D96E090EF420DA6E0C
:10444000DF50D8B426EFA2F028EFA2F057EFA3F088
:10445000FF512D0D020EF324D96E090EF420DA6EF1
:10446000020EDE18D8A437EFA2F039EFA2F057EF12
:10447000A3F0030E1A6EE80E196E35ECDDF08E9C7B
:104480008E948E968E988E9A0101FF512D0D020EFC
:10449000F324D96E090EF420DA6E030EDF6EFF519D
:1044A0002D0D000EF324D96E090EF420DA6EDF060E
:1044B000FF512D0D000EF324D96E090EF420DA6E93
:1044C000DF50D8A466EFA2F068EFA2F072EFA2F07E
:1044D000FF512D0D070EF324D96E090EF420DA6E6C
:1044E000000EDF6E000E1A6E640E196E35ECDDF0F4
:1044F0000101FF51020D4D0EF324F66EF20EF42071
:10450000F76EF86A000EF8220900F5CF21F00A00D4
:10451000F5CF22F0FF512D0DDC0EF324236E080E93
:10452000F420246EA5ECB7F0000E1A6E640E196E1E
:1045300035ECDDF00101FF512D0DE00EF324D96EB5
:10454000080EF420DA6EDECFF8F4DDCFF9F4FF5177
:104550002D0DE40EF324D96E080EF420DA6EDECFB2
:10456000FAF4DDCFFBF4FF512D0DE20EF324D96EEA
:10457000080EF420DA6EDECFFCF4DDCFFDF404018A
:10458000FC1FFD1FFC4BFD2BFA51FC5FFB51FD5B3B
:10459000F851FC25336EF951FD21346E000E1A6E70
:1045A000640E196E35ECDDF083ECDEF0000E1A6E51
:1045B000640E196E35ECDDF0090E0101FF61E3EFC9
:1045C000A2F0E5EFA2F0EFEFA2F0300E0001B56F20
:1045D0000101FF51310F0001B66F07EFA3F0080E84
:1045E000FF65F5EFA2F0F7EFA2F007EFA3F00C0ED6
:1045F000FF61FDEFA2F0FFEFA2F007EFA3F0310E95
:104600000001B56F0101FF51270F0001B66F0101D5
:10461000FF512D0D000EF324D96E090EF420DA6E31
:10462000DF50D8A416EFA3F018EFA3F00EEFA6F01A
:1046300000018951D8B41FEFA3F021EFA3F031EFAF
:10464000A3F0000E896FA40EFB6FF70EFC6FC90E6E
:10465000FD6F000EFE6F020EFF6F23EC92F00EEF67
:10466000A6F09C51D8B437EFA3F039EFA3F049EF8F
:10467000A3F0000E9C6F200EFB6FF60EFC6FC90EB0
:10468000FD6F000EFE6F020EFF6F23EC92F00EEF37
:10469000A6F0E00EFB6FFB0EFC6FC90EFD6F000E67
:1046A000FE6F020EFF6F23EC92F00EEFA6F0FF51AB
:1046B0002D0D050EF324D96E090EF420DA6EDE04FA
:1046C000D8A465EFA3F067EFA3F041EFA4F0FF518A
:1046D0002D0D050EF324D96E090EF420DA6E000EAE
:1046E000DF6EFF512D0D030EF324D96E090EF42059
:1046F000DA6EFF512D0D040EF324E16E090EF42045
:10470000E26EDE50E618D8A488EFA3F08AEFA3F09B
:1047100096EFA3F0FF512D0D040EF324D96E090E70
