:0400000043EF01F0D9
:060008005182D2EFC0F0AE
:100018005180D8CF0CF0E8CF0DF0E0CF0EF00E01F4
:1000280033AB19EF00F01BEF00F0F2EF00F08F9602
:10003800339BE30ED46EB00ED36E452A365037107C
:10004800D8B429EF00F02BEF00F036EF00F04D5058
:10005800D8B431EF00F033EF00F036EF00F0360699
:10006800D8A037064404D8A43CEF00F03EEF00F0D7
:100078004FEF00F0000168514518D8A446EF00F092
:1000880048EF00F04FEF00F0000E456E8F8E020E25
:10009800446EF2EF00F0020E4418D8A456EF00F0B8
:1000A80058EF00F068EF00F03A504518D8A45FEF19
:1000B80000F061EF00F068EF00F0000E456E8F9ED3
:1000C800030E446EF2EF00F0030E4418D8A46FEF4D
:1000D80000F071EF00F081EF00F03B504518D8A414
:1000E80078EF00F07AEF00F081EF00F0000E456E37
:1000F8008D84040E446EF2EF00F0040E4418D8A468
:1001080088EF00F08AEF00F09AEF00F03A504518B7
:10011800D8A491EF00F093EF00F09AEF00F0000EF2
:10012800456E8D94050E446EF2EF00F0050E4418EE
:10013800D8A4A1EF00F0A3EF00F0B3EF00F03B501C
:100148004518D8A4AAEF00F0ACEF00F0B3EF00F028
:10015800000E456E8D86060E446EF2EF00F0060E18
:100168004418D8A4BAEF00F0BCEF00F0CCEF00F0D0
:100178003A504518D8A4C3EF00F0C5EF00F0CCEF13
:1001880000F0000E456E8D96070E446EF2EF00F0FB
:10019800070E4418D8A4D3EF00F0D5EF00F0E5EF30
:1001A80000F0000166514518D8A4DDEF00F0DFEF3C
:1001B80000F0E5EF00F0000E456E010E446EF2EF20
:1001C80000F0630E4418D8A4ECEF00F0EEEF00F056
:1001D800F2EF00F0000E456EF2EF00F00E0138A1CC
:1001E800F8EF00F0FAEF00F0FFEF00F08F96000153
:1001F8006A2B0E01389138A504EF01F006EF01F0E3
:100208003BEF01F08F963895F00EC86EDC0EC76E86
:100218000001692B69516E5DD8B015EF01F017EF39
:1002280001F030EF01F04E50D8A41DEF01F01FEFA0
:1002380001F030EF01F0010E4E6E000E696FC990AB
:100248007E51D8B42AEF01F02CEF01F03BEF01F01A
:10025800010E7D6F3BEF01F04E50D8B436EF01F040
:1002680038EF01F03BEF01F0000E696FC9900EC046
:10027800E0FF0DC0E8FF0CC0D8FF5190100072EFEE
:02028800CAF0BA
:10DF9C000053797374656D207265736574206F63BB
:10DFAC006375727265642C20497272696761746959
:10DFBC006F6E2073657474696E672064656C65742C
:10DFCC0065640000002000400060008000A000C0DC
:10DFDC0000E000000120014001600180019001A0DF
:10DFEC0001B0014C6F67696E20636F6465206E6FC2
:10DFFC0074206368616E67656400496E636F72724A
:10E00C006563742076616C7565732E204665727439
:10E01C0069676174696F6E206E6F7420656E6162E2
:10E02C006C656420666F72206669656C64206E6F27
:10E03C002E000000000000000000000000000000A6
:10E04C0000000000000000000000000000000000C4
:10E05C0000000000000000000000000000000000B4
:10E06C0000000000000000000000000000000000A4
:10E07C000000000000000000000000000000000094
:10E08C000000000000000000000000000000000084
:10E09C000000000000000000000000000000000074
:10E0AC000000000000000000000000000000000064
:10E0BC000000000000000000000000000000000054
:10E0CC000000000000000000000000000000000044
:10E0DC000000000000000000000000000000000034
:10E0EC000000000000000000000000000000000024
:10E0FC000000000000000000000000000000000014
:10E10C000000000000000000000000000000000003
:10E11C0000000000000000000000000000000000F3
:10E12C0000000000000000000000000000000000E3
:10E13C0000000000000000000000000000000000D3
:10E14C0000000000000000000000000000000000C3
:10E15C0000000000000000000000000000000000B3
:10E16C0000000000000000000000000000000000A3
:10E17C000000000000000000000000000000000093
:10E18C000000000000000000000000000000000083
:10E19C000000000000000000000000000000000073
:10E1AC000000000000000000000000000000000063
:10E1BC000000000000000000000000000000000053
:10E1CC000000000000000000000000000000000043
:10E1DC000000000000000000000000000000000033
:10E1EC000000000000000000000000000000000023
:10E1FC000000000000000000000000000000000013
:10E20C000000000000000000000000000000000002
:10E21C0000000000000000000000000000000000F2
:10E22C000000000000004472792052756E20646575
:10E23C007465637465642C204D6F746F722C204967
:10E24C00727269676174696F6E20616E64204665D5
:10E25C00727469676174696F6E207377697463682F
:10E26C006564206F66662E0D0A4972726967617467
:10E27C00696F6E207363686564756C656420746F78
:10E28C00206E6578742064617920776974682066E3
:10E29C0065727469676174696F6E20666F7220664F
:10E2AC0069656C64206E6F2E0000004472792052F8
:10E2BC00756E2064657465637465642C204D6F7491
:10E2CC006F7220616E642049727269676174696F44
:10E2DC006E207377697463686564206F66662E0DB3
:10E2EC000A49727269676174696F6E20736368653D
:10E2FC0064756C656420746F206E6578742064613D
:10E30C0079207769746820666572746967617469CD
:10E31C006F6E20666F72206669656C64206E6F2E5E
:10E32C000000004472792052756E20646574656338
:10E33C007465642C204D6F746F7220616E6420497B
:10E34C00727269676174696F6E2073776974636840
:10E35C006564206F66662E0D0A4972726967617476
:10E36C00696F6E207363686564756C656420746F87
:10E37C00206E657874206475652064617465206610
:10E38C006F72206669656C64206E6F2E000000440D
:10E39C0072792052756E2064657465637465642CA3
:10E3AC00204D6F746F7220616E64204972726967C0
:10E3BC006174696F6E207377697463686564206F2C
:10E3CC0066662E0D0A49727269676174696F6E20F8
:10E3DC007363686564756C656420746F206E657812
:10E3EC00742064617920666F72206669656C6420A4
:10E3FC006E6F2E00000053797374656D2072657317
:10E40C0074617274656420666F7220416C6C20506C
:10E41C006861736520446574656374696F6E2077F9
:10E42C0069746820696E636F6D706C6574652049E2
:10E43C00727269676174696F6E20666F72206669AB
:10E44C00656C64206E6F2E0053797374656D207249
:10E45C00657374617274656420666F7220506F7797
:10E46C00657220496E746572727570742077697468
:10E47C006820696E636F6D706C657465204972728B
:10E48C0069676174696F6E20666F72206669656C6E
:10E49C0064206E6F2E0053797374656D20726573F2
:10E4AC0074617274656420696E20446961676E6F73
:10E4BC0073746963204D6F64652077697468206993
:10E4CC006E636F6D706C65746520497272696761FB
:10E4DC0074696F6E20666F72206669656C64206E5D
:10E4EC006F2E0053797374656D207265737461724D
:10E4FC0074656420666F72204C6F7720506F77655F
:10E50C007220496E207769746820696E636F6D7034
:10E51C006C6574652049727269676174696F6E20ED
:10E52C00666F72206669656C64206E6F2E0053797D
:10E53C007374656D207265737461727465642066A2
:10E54C006F7220537461636B204572726F72207707
:10E55C0069746820696E636F6D706C6574652049B1
:10E56C00727269676174696F6E20666F722066697A
:10E57C00656C64206E6F2E0053797374656D207218
:10E58C00657374617274656420666F7220574454AD
:10E59C002054696D656F7574207769746820696E95
:10E5AC00636F6D706C657465204972726967617414
:10E5BC00696F6E20666F72206669656C64206E6F81
:10E5CC002E0049727269676174696F6E20697320DD
:10E5DC006E6F74204163746976652E204665727483
:10E5EC0069676174696F6E206E6F7420656E61620D
:10E5FC006C656420666F72206669656C64206E6F52
:10E60C002E0053797374656D2041757468656E7452
:10E61C0069636174656420776974682050686173FC
:10E62C0065206661696C7572652C207375737065F5
:10E63C006E64696E6720616C6C20616374696F6EC7
:10E64C0073004D6F6973747572652073656E736FAB
:10E65C0072206973206661696C65642C2049727242
:10E66C0069676174696F6E2073746172746564207C
:10E67C00666F72206669656C64206E6F2E0053792C
:10E68C007374656D20726573746172746564207740
:10E69C00697468207068617365206661696C757255
:10E6AC00652C2073757370656E64696E6720616C80
:10E6BC006C20616374696F6E7300576574206669B2
:10E6CC00656C642064657465637465642E0D0A4919
:10E6DC00727269676174696F6E206E6F74207374E7
:10E6EC00617274656420666F72206669656C642063
:10E6FC006E6F2E00000053797374656D2072657314
:10E70C006574206F636375727265642C206C6F671F
:10E71C00696E20636F646520726573657420746F15
:10E72C0020466163746F72792073657474696E67C7
:10E73C000049727269676174696F6E20636F6D70E6
:10E74C006C6574656420666F7220647565206669FB
:10E75C00656C64730D0A4D6F746F722073776974F6
:10E76C0063686564206F666600000047534D206E39
:10E77C006F742073657420746F204C6F63616C2010
:10E78C0054696D652C2068656E6365205254432076
:10E79C006973206E6F7420636F6E6669677572653E
:10E7AC006400596F7520617265206E6F206D6F72F9
:10E7BC00652041646D696E206E6F772E204E6577F3
:10E7CC002041646D696E2069732073657420746FC9
:10E7DC000D0A00000049727269676174696F6E20DE
:10E7EC00636F6E66696775726174696F6E206469B8
:10E7FC007361626C656420666F72206669656C6417
:10E80C00206E6F2E005068617365206661696C75AF
:10E81C0072652064657465637465642C207375730C
:10E82C0070656E64696E6720616C6C2061637469DD
:10E83C006F6E730053797374656D207265737461B8
:10E84C007274656420666F7220416C6C2050686134
:10E85C00736520446574656374696F6E00497272E8
:10E86C0069676174696F6E206E6F7420636F6E667A
:10E87C0069677572656420666F72206669656C6481
:10E88C00206E6F2E004D6F746F726C6F616420740C
:10E89C0068726573686F6C6473207365742073752C
:10E8AC00636365737366756C6C792E004E657720A7
:10E8BC00525443206261747465727920666F756E70
:10E8CC00642C20706C6561736520536574205469E9
:10E8DC006D650053797374656D2072657374617224
:10E8EC0074656420666F7220506F77657220496E74
:10E8FC00746572727570740053797374656D2072DF
:10E90C00657374617274656420696E204469616713
:10E91C006E6F73746963206D6F6465004972726900
:10E92C00676174696F6E20636F6E66696775726577
:10E93C006420666F72206669656C64206E6F2E00B1
:10E94C004665727469676174696F6E20646973617E
:10E95C00626C656420666F72206669656C64206EFB
:10E96C006F2E004665727469676174696F6E2073EF
:10E97C00746F7070656420666F72206669656C6474
:10E98C00206E6F2E004665727469676174696F6ED4
:10E99C00207374617274656420666F722066696599
:10E9AC006C64206E6F2E00466572746967617469C1
:10E9BC006F6E20656E61626C656420666F72206696
:10E9CC0069656C64206E6F2E0053797374656D20CD
:10E9DC0072657374617274656420666F72207374EF
:10E9EC0061636B206572726F720053797374656D1D
:10E9FC002072657374617274656420666F7220573F
:10EA0C0044542074696D656F75740049727269673E
:10EA1C006174696F6E2073746F7070656420666FBB
:10EA2C0072206669656C64206E6F2E004972726983
:10EA3C00676174696F6E20737461727465642066AB
:10EA4C006F72206669656C64206E6F2E00525443A1
:10EA5C002069732073657420746F206375727265FE
:10EA6C006E742054696D657374616D70004C6F67C2
:10EA7C00696E20636F6465206368616E67656420EE
:10EA8C007375636365737366756C6C790053797316
:10EA9C0074656D2072657374617274656420666F41
:10EAAC0072204C6F7720506F7765720057617465D8
:10EABC00722066696C74726174696F6E2064656132
:10EACC00637469766174656400506C65617365206C
:10EADC007265706C6163652052544320626174747A
:10EAEC006572790057617465722066696C74726125
:10EAFC0074696F6E20616374697661746564004932
:10EB0C006E636F72726563742054696D65737461A2
:10EB1C006D7020666F756E640046696C74726174FA
:10EB2C00696F6E206973206E6F7420656E61626C04
:10EB3C0065640057726F6E67206C6F67696E206337
:10EB4C006F646520656E74657265640041646D69FF
:10EB5C006E20736574207375636365737366756C6F
:10EB6C006C790041757468656E7469636174696F62
:10EB7C006E206661696C6564005465737420446131
:10EB8C00746120496E6A65637465640053797374AB
:10EB9C00656D20436F6E6E656374656400466163DA
:10EBAC00746F7279204B6579203A2000437572722C
:10EBBC00656E742054696D653A20007363616E56FE
:10EBCC00616C76655363686564756C65416E64470A
:10EBDC006574536C656570436F756E745F56616CCC
:10EBEC0076654475655769746846657274696761C2
:10EBFC0074696F6E5F4F55540D0A007363616E56E6
:10EC0C00616C76655363686564756C65416E6447C9
:10EC1C006574536C656570436F756E745F56616C8B
:10EC2C007665447565572F4F4665727469676174D4
:10EC3C00696F6E5F4F55540D0A00736176654972AA
:10EC4C007269676174696F6E56616C7665436F6E3D
:10EC5C0066696775726174696F6E537461747573EC
:10EC6C00496E746F456570726F6D5F4F55540D0A28
:10EC7C000065787472616374526563656976656466
:10EC8C00536D735F556E6B6E6F776E534D535F663E
:10EC9C00726F6D52656769737465726564557365DF
:10ECAC00725F4F55540D0A00736176654972726933
:10ECBC00676174696F6E56616C7665436F6E6669D9
:10ECCC006775726174696F6E537461747573496E94
:10ECDC00746F456570726F6D5F494E0D0A007363FA
:10ECEC00616E56616C76655363686564756C6541DD
:10ECFC006E64476574536C656570436F756E745FB5
:10ED0C00572F4F56616C76654475655F4F55540DA2
:10ED1C000A007265616452656D61696E696E674661
:10ED2C0065727469676174696F6E4F6E5065726954
:10ED3C006F6446726F6D456570726F6D5F4F5554A1
:10ED4C000D0A007265616452656D61696E696E676A
:10ED5C004665727469676174696F6E4F6E50657247
:10ED6C00696F6446726F6D456570726F6D5F494E69
:10ED7C000D0A006578747261637452656365697617
:10ED8C006564536D735F41646D696E2073657420A7
:10ED9C007375636365737366756C6C795F4F5554EB
:10EDAC000D0A007361766549727269676174696FE7
:10EDBC006E56616C76654379636C655374617475DA
:10EDCC0073496E746F456570726F6D5F4F55540D5E
:10EDDC000A007361766549727269676174696F6E56
:10EDEC0056616C76654F6E4F6666537461747573BD
:10EDFC00496E746F456570726F6D5F4F55540D0A97
:10EE0C00007361766549727269676174696F6E56D9
:10EE1C00616C76654379636C655374617475734981
:10EE2C006E746F456570726F6D5F494E0D0A00739D
:10EE3C0061766549727269676174696F6E56616C4F
:10EE4C0076654F6E4F6666537461747573496E7454
:10EE5C006F456570726F6D5F494E0D0A0065787471
:10EE6C00726163745265636569766564536D735F33
:10EE7C0050617373776F7264206E6F742063686176
:10EE8C006E6765645F4F55540D0A00657874726146
:10EE9C0063745265636569766564536D735F496E1F
:10EEAC00636F7272656374534D535F53746F726109
:10EEBC0067655F4F55540D0A0053797374656D2067
:10EECC007265737461727465642077697468204428
:10EEDC0075652076616C7665206F6E2073616D654B
:10EEEC00206461790D0A0053797374656D20726525
:10EEFC0073746172746564207769746820447565F5
:10EF0C002076616C7665206F6E206E657874206457
:10EF1C0061790D0A0065787472616374526563657A
:10EF2C0069766564536D735F73656E64446961677C
:10EF3C006E6F73746963446174615F4F55540D0A4D
:10EF4C0000496E6A65637454657374446174615FDF
:10EF5C0041646D696E2073657420737563636573AA
:10EF6C007366756C6C795F4F55540D0A0072656150
:10EF7C00644669656C6449727269676174696F6E25
:10EF8C0056616C76654E6F46726F6D456570726F2B
:10EF9C006D5F4F55540D0A00736176654972726945
:10EFAC00676174696F6E56616C76654475655469FA
:10EFBC006D65496E746F456570726F6D5F4F55541A
:10EFCC000D0A0073617665466572746967617469D0
:10EFDC006F6E56616C766556616C756573496E74AF
:10EFEC006F456570726F6D5F4F55540D0A007361FC
:10EFFC0076654665727469676174696F6E56616C8B
:10F00C007665537461747573496E746F456570726F
:10F01C006F6D5F4F55540D0A00657874726163749F
:10F02C005265636569766564536D735F4E6F7420CA
:10F03C0041757468656E746963617465645F4F557E
:10F04C00540D0A0065787472616374526563656966
:10F05C00766564536D735F456E61626C654665726F
:10F06C007469676174696F6E5F4F55540D0A007255
:10F07C006561644669656C6449727269676174693B
:10F08C006F6E56616C76654E6F46726F6D4565702E
:10F09C00726F6D5F494E0D0A00736176654972722D
:10F0AC0069676174696F6E56616C766544756554F9
:10F0BC00696D65496E746F456570726F6D5F494E11
:10F0CC000D0A0073617665466572746967617469CF
:10F0DC006F6E56616C766556616C756573496E74AE
:10F0EC006F456570726F6D5F494E0D0A00736176E6
:10F0FC00654665727469676174696F6E56616C768A
:10F10C0065537461747573496E746F456570726F75
:10F11C006D5F494E0D0A00736176654972726967BD
:10F12C006174696F6E56616C766556616C7565734A
:10F13C00496E746F456570726F6D5F4F55540D0A53
:10F14C000065787472616374526563656976656491
:10F15C00536D735F50617373776F72642075706455
:10F16C00617465645F4F55540D0A00657874726163
:10F17C0063745265636569766564536D735F46614C
:10F18C0063746F72792050617373776F72645F4F21
:10F19C0055540D0A00736176654972726967617422
:10F1AC00696F6E56616C766556616C756573496EE8
:10F1BC00746F456570726F6D5F494E0D0A0065780E
:10F1CC0074726163745265636569766564536D73BB
:10F1DC005F4E6F74426173653634537472696E6737
:10F1EC005F4F55540D0A004D6F746F72206C6F6138
:10F1FC00642076616C756573207365742073756318
:10F20C006365737366756C6C795F4F55540D0A00AA
:10F21C007361766544657669636550726F67726178
:10F22C006D537461747573496E746F456570726F4C
:10F23C006D5F4F55540D0A0065787472616374529A
:10F24C0065636569766564536D735F57726F6E673E
:10F25C002050617373776F72645F4F55540D0A00C1
:10F26C0046696C74726174696F6E206379636C6546
:10F27C0020656E61626C65642077697468206465D2
:10F28C006C6179313A200073617665446576696307
:10F29C006550726F6772616D537461747573496EEA
:10F2AC00746F456570726F6D5F494E0D0A00736126
:10F2BC00766552656D61696E696E674665727469D3
:10F2CC00676174696F6E4F6E506572696F645F4FE2
:10F2DC0055540D0A007363616E56616C7665536309
:10F2EC00686564756C65416E64476574536C6565DF
:10F2FC0070436F756E745F494E0D0A0073617665CD
:10F30C0052656D61696E696E674665727469676195
:10F31C0074696F6E4F6E506572696F645F494E0D04
:10F32C000A007361766549727269676174696F6E00
:10F33C0056616C76654E6F496E746F456570726F71
:10F34C006D5F4F55540D0A00657874726163745289
:10F35C0065636569766564536D735F437572726539
:10F36C006E742054696D655F4F55540D0A007361BE
:10F37C00766549727269676174696F6E56616C76F5
:10F38C00654E6F496E746F456570726F6D5F494E57
:10F39C000D0A0072656164416374697665536C652E
:10F3AC006570436F756E7446726F6D456570726FE4
:10F3BC006D5F4F55540D0A00736176654163746936
:10F3CC007665536C656570436F756E74496E746FBA
:10F3DC00456570726F6D5F4F55540D0A0072656113
:10F3EC0064416374697665536C656570436F756EC3
:10F3FC007446726F6D456570726F6D5F494E0D0A84
:10F40C000073617665416374697665536C656570EC
:10F41C00436F756E74496E746F456570726F6D5F76
:10F42C00494E0D0A00736176654D6F746F724C6FA7
:10F43C00616456616C756573496E746F4565707265
:10F44C006F6D5F4F55540D0A00657874726163746B
:10F45C005265636569766564536D735F4E6F744670
:10F46C00726F6D47534D5F4F55540D0A00736176A3
:10F47C00654D6F746F724C6F616456616C7565731A
:10F48C00496E746F456570726F6D5F494E0D0A0061
:10F49C0065787472616374526563656976656453EB
:10F4AC006D735F436F6E6669677572655F4F555418
:10F4BC000D0A0069734669656C644D6F69737475E8
:10F4CC00726553656E736F725765745F5965735FC0
:10F4DC004F75740D0A0053797374656D20726573E2
:10F4EC007461727465642077697468204475652052
:10F4FC0076616C76650D0A0069734669656C644DBE
:10F50C006F69737475726553656E736F725765743A
:10F51C005F4E6F5F4F75740D0A00736176654669B7
:10F52C006C74726174696F6E53657175656E636529
:10F53C00446174615F4F55540D0A006578747261B3
:10F54C0063745265636569766564536D735F436F6D
:10F55C006E6E6563745F4F55540D0A005379737466
:10F56C00656D2072657374617274656420572F4FDA
:10F57C00204475652056616C76650D0A00616374D4
:10F58C00696F6E734F6E536C656570436F756E74F7
:10F59C0046696E6973685F4F55540D0A0046657273
:10F5AC007469676174696F6E20656E61626C656405
:10F5BC0020776974682064656C61793A00736176B0
:10F5CC006546696C74726174696F6E5365717565AB
:10F5DC006E6365446174615F494E0D0A0073617618
:10F5EC00654661637472795073777264496E746F97
:10F5FC00456570726F6D5F4F55540D0A00616374F1
:10F60C00696F6E734F6E536C656570436F756E7476
:10F61C0046696E6973685F494E0D0A0073617665C1
:10F62C004661637472795073777264496E746F4576
:10F63C006570726F6D5F494E0D0A0073617665528D
:10F64C0065736574436F756E74496E746F45657040
:10F65C00726F6D5F4F55540D0A007361766541757D
:10F66C007468656E7469636174696F6E53746174E8
:10F67C0075735F4F55540D0A0063616C696272615A
:10F68C0074654D6F746F7243757272656E745F4EF4
:10F69C006F5F4F55540D0A0069734669656C644D74
:10F6AC006F69737475726553656E736F7257657499
:10F6BC005F494E203A200064654163746976617439
:10F6CC006556616C76655F494E20666F7220766177
:10F6DC006C76653A200054656D7065726174757254
:10F6EC0065204368616E6E656C2073656C65637430
:10F6FC0065640D0A00736176655265736574436FBA
:10F70C00756E74496E746F456570726F6D5F494E9E
:10F71C000D0A007361766541757468656E74696372
:10F72C006174696F6E5374617475735F494E0D0A21
:10F73C00006578747261637452656365697665649B
:10F74C00536D735F486F6C645F4F55540D0A0069BD
:10F75C007352544342617474657279447261696E78
:10F76C0065645F5965735F4F55540D0A00466572A9
:10F77C007469676174696F6E206E6F7420636F6E4D
:10F78C00666967757265640D0A0073617665506110
:10F79C007373776F7264496E746F456570726F6DB9
:10F7AC005F4F55540D0A00736176654D6F62696C3D
:10F7BC00654E6F496E746F456570726F6D5F4F5516
:10F7CC00540D0A0069735254434261747465727922
:10F7DC00447261696E65645F4E6F5F4F55540D0ADC
:10F7EC000057696E647370656564204368616E6E62
:10F7FC00656C2073656C65637465640D0A007361D8
:10F80C00766550617373776F7264496E746F45657A
:10F81C0070726F6D5F494E0D0A00736176654D6FA6
:10F82C0062696C654E6F496E746F456570726F6D71
:10F83C005F494E0D0A007361766552544342617400
:10F84C00746572795374617475735F4F55540D0AF6
:10F85C00004D6F69737475726553656E736F723199
:10F86C0030203D3D20484947480D0A004D6F6973D3
:10F87C007475726553656E736F723131203D3D2026
:10F88C00484947480D0A004D6F697374757265538A
:10F89C00656E736F723132203D3D20484947480DEB
:10F8AC000A0063616C6962726174654D6F746F728A
:10F8BC0043757272656E745F494E0D0A0064656C17
:10F8CC00657465537472696E67546F4465636F64D5
:10F8DC00655F4F55540D0A00646F5068617365463F
:10F8EC0061696C757265416374696F6E5F4F5554D5
:10F8FC000D0A0073617665525443426174746572EB
:10F90C00795374617475735F494E0D0A004D6F69BC
:10F91C00737475726553656E736F7231203D3D2043
:10F92C00484947480D0A004D6F69737475726553E9
:10F93C00656E736F7232203D3D20484947480D0A71
:10F94C00004D6F69737475726553656E736F7233A6
:10F95C00203D3D20484947480D0A004D6F6973749E
:10F96C0075726553656E736F7234203D3D20484946
:10F97C0047480D0A004D6F69737475726553656E57
:10F98C00736F7235203D3D20484947480D0A004DA4
:10F99C006F69737475726553656E736F7236203D43
:10F9AC003D20484947480D0A004D6F6973747572C4
:10F9BC006553656E736F7237203D3D20484947484B
:10F9CC000D0A004D6F69737475726553656E736FB4
:10F9DC007238203D3D20484947480D0A004D6F695B
:10F9EC00737475726553656E736F7239203D3D206B
:10F9FC00484947480D0A0064656C65746553747218
:10FA0C00696E67546F4465636F64655F494E0D0A98
:10FA1C0000646F50686173654661696C757265410D
:10FA2C006374696F6E5F494E0D0A0064656C657492
:10FA3C00654465636F646564537472696E675F4F88
:10FA4C0055540D0A0069734D6F746F72496E4E6F89
:10FA5C004C6F61645F5965735F4F55540D0A004DCF
:10FA6C006F69737475726553656E736F7231302084
:10FA7C003D3D204C4F570D0A004D6F6973747572E4
:10FA8C006553656E736F723131203D3D204C4F577D
:10FA9C000D0A004D6F69737475726553656E736FE3
:10FAAC00723132203D3D204C4F570D0A00416E61A2
:10FABC006C6F67204368616E6E656C2073656C6556
:10FACC00637465640D0A006C6F6164446174614613
:10FADC00726F6D456570726F6D5F4F55540D0A00F6
:10FAEC0069735254434261747465727944726169EA
:10FAFC006E65645F494E0D0A0064656C65746544FF
:10FB0C0065636F646564537472696E675F494E0D0B
:10FB1C000A0069734D6F746F72496E4E6F4C6F6152
:10FB2C00645F4E6F5F4F55540D0A004D6F697374CF
:10FB3C0075726553656E736F7231203D3D204C4F6D
:10FB4C00570D0A004D6F69737475726553656E734A
:10FB5C006F7232203D3D204C4F570D0A004D6F699E
:10FB6C00737475726553656E736F7233203D3D20EF
:10FB7C004C4F570D0A004D6F697374757265536560
:10FB8C006E736F7234203D3D204C4F570D0A004D63
:10FB9C006F69737475726553656E736F7235203D42
:10FBAC003D204C4F570D0A004D6F6973747572658B
:10FBBC0053656E736F7236203D3D204C4F570D0AC6
:10FBCC00004D6F69737475726553656E736F723720
:10FBDC00203D3D204C4F570D0A004D6F69737475D5
:10FBEC00726553656E736F7238203D3D204C4F57D4
:10FBFC000D0A004D6F69737475726553656E736F82
:10FC0C007239203D3D204C4F570D0A0061637469D9
:10FC1C006F6E734F6E44756556616C76655F4F55AC
:10FC2C00540D0A006C6F61644461746146726F6DAF
:10FC3C00456570726F6D5F494E0D0A006578747280
:10FC4C006163745265636569766564536D735F496E
:10FC5C004E0D0A0064656C65746547736D5265736F
:10FC6C00706F6E73655F4F55540D0A006163746954
:10FC7C006F6E734F6E44756556616C76655F494E59
:10FC8C000D0A0064656C65746547736D526573701D
:10FC9C006F6E73655F494E0D0A007068617365463F
:10FCAC0061696C7572655F5965735F4F55540D0AC8
:10FCBC0000666574636854696D6566726F6D525445
:10FCCC00435F4F55540D0A00646541637469766156
:10FCDC00746556616C76655F4F55540D0A007068FB
:10FCEC006173654661696C7572655F4E6F5F4F55E8
:10FCFC00540D0A00666574636854696D6566726FAD
:10FD0C006D5254435F494E0D0A00435420436861C1
:10FD1C006E6E656C2073656C65637465640D0A00AA
:10FD2C0069734D6F746F72496E4E6F4C6F61645F87
:10FD3C00494E0D0A006765744461746546726F6DB7
:10FD4C0047534D5F4F55540D0A00646F44727952FE
:10FD5C00756E416374696F6E5F4F55540D0A000DDB
:10FD6C000A66657463684669656C644E6F5F4F55CF
:10FD7C00540D0A0041542B434E4D493D312C312C2E
:10FD8C00302C302C300D0A00676574446174654664
:10FD9C00726F6D47534D5F494E0D0A00646F44728C
:10FDAC007952756E416374696F6E5F494E0D0A002E
:10FDBC00616374697661746556616C76655F4F55E5
:10FDCC00540D0A00706F7765724F66664D6F746FD5
:10FDDC00725F4F55540D0A006665656454696D6514
:10FDEC00496E5254435F4F55540D0A0020536570B1
:10FDFC0061726174696F6E2054696D653A2000619F
:10FE0C006374697661746556616C76655F494E0DF5
:10FE1C000A00706F7765724F66664D6F746F725F14
:10FE2C00494E0D0A00706F7765724F6E4D6F746F8F
:10FE3C00725F4F55540D0A006665656454696D65B3
:10FE4C00496E5254435F494E0D0A00476574414454
:10FE5C0043526573756C745F4F55540D0A0070688E
:10FE6C006173654661696C7572655F494E0D0A0078
:10FE7C00706F7765724F6E4D6F746F725F494E0D78
:10FE8C000A0066657463684669656C644E6F5F4909
:10FE9C004E3A2000476574414443526573756C7447
:10FEAC005F494E0D0A006E6577534D53526376646D
:10FEBC005F4F55540D0A0049727269676174696F1E
:10FECC006E2076616C766500676574447565446177
:10FEDC0074655F4F55540D0A006E6577534D535240
:10FEEC006376645F494E0D0A0041542B43534353D0
:10FEFC003D2247534D220D0A0067657444756544D5
:10FF0C006174655F494E0D0A0041542B53434C41BB
:10FF1C005353303D310D0A0041542B434D47443D62
:10FF2C00312C340D0A006465416374697661746523
:10FF3C00640D0A0041542B4346554E3D300D0A00CA
:10FF4C0041542B434D47463D310D0A0041542B4340
:10FF5C0046554E3D310D0A0041542B434C54533DF4
:10FF6C00310D0A0041542B434C54533F0D0A0020D1
:10FF7C00496E7374616E63653A0041542B43434C74
:10FF8C004B3F0D0A002064656C6179323A200020E9
:10FF9C0064656C6179333A2000204F6E54696D654D
:10FFAC003A200041542B434D47533D2200204475C9
:10FFBC0065446174653A0041542B4353510D0A005A
:10FFCC00204F66667072643A0041542B434D475281
:10FFDC003D00204F6E7072643A0056616C76653A43
:10FFEC002000415445300D0A00415426570D0A009B
:04FFFC003B200000A6
:020000040001F9
:10000000000E0501C66F000EC76F000ECA6F000E0E
:10001000C96F1E0E00016E6F480E176EFC0E186E33
:10002000E4ECD7F0300E00017F6519EF80F01BEF94
:1000300080F08AEF90F03A0E7F6121EF80F023EF9D
:1000400080F08AEF90F0000E4E6E000E4A6EC9806E
:10005000010E0F6E030EEDECDDF057EF80F0D50EC4
:10006000176EFF0E186E23ECDCF07F0E176E000E7D
:10007000186E010E196EAEECDCF0020E176EFF0E5C
:10008000186E23ECDCF0010E106EF40E0F6EA9EC6E
:10009000D6F04E50D8A44FEF80F051EF80F057EFDC
:1000A00080F0130E106E880E0F6EA9ECD6F04E5035
:1000B000D8B45DEF80F05FEF80F02FEF80F0000E9E
:1000C0000F6E0F0EEDECDDF00E013885150E0F6E84
:1000D000060E106EF60E116E010E126E000E146EEC
:1000E000030E136E73ECD0F00F501010D8A47BEFFA
:1000F00080F07DEF80F075EF90F07F0E0F6E000EB8
:10010000106E180E116E060E126E000E146E0A0E90
:10011000136E31ECD7F048ECDCF0000E0F6E070EDA
:10012000106E3F0E116E060E126E94ECD5F03F0E5F
:10013000176E060E186EE4ECD7F0020E176EFF0E67
:10014000186EE4ECD7F0000E176E070E186EE4EC94
:10015000D7F0020E176EFF0E186EE4ECD7F0D7EC56
:10016000DBF0000E0F6E070E106EB1ECDBF0000935
:10017000D8B4BDEF80F0BFEF80F0C5EF80F06CEC3D
:10018000DCF0ADECB8F0DAEF80F0D7ECDBF0000E8D
:100190000F6E050EEDECDDF0070E106ED00E0F6E3B
:1001A000A9ECD6F0CA0E176EF10E186EE4ECD7F07B
:1001B0009DEF90F0930E0F6E000E106E7F0E116E7D
:1001C000000E126E000E146E0A0E136E73ECD0F059
:1001D0000F501010D8A4EFEF80F0F1EF80F04EEF49
:1001E0008FF07F0E0F6E000E106EF50E116E020E68
:1001F000126E000E146E0A0E136E31ECD7F0000E64
:100200000F6E040E106EF10E116E010E126E000EC6
:10021000146E040E136E73ECD0F00F501010D8A4AF
:1002200014EF81F016EF81F02CEF81F0000E4A6E92
:10023000980E1B6EEB0E1C6E930E1D6E000E1E6E46
:10024000000E1F6E51ECC8F0470E176EF50E186EBB
:10025000E4ECD7F09DEF90F0000E0F6E040E106EE0
:10026000FB0E116E000E126E000E146E020E136E57
:1002700073ECD0F00F501010D8A441EF81F043EF91
:1002800081F096EF81F0030E0F6E040E106EA50E36
:10029000116E000E126E000E146E060E136E73ECCD
:1002A000D0F00F501010D8A458EF81F05AEF81F021
:1002B00080EF81F0A50E0F6E000E106E0A0E116E0B
:1002C000040E126E000E146E060E136E31ECD7F093
:1002D00021ECD6F0000E4A6E790E1B6EEA0E1C6EF3
:1002E000930E1D6E000E1E6E000E1F6E51ECC8F0B8
:1002F0004D0E176EF10E186EE4ECD7F09DEF90F0F6
:10030000000E4A6E3F0E1B6EEB0E1C6E930E1D6EA2
:10031000000E1E6E000E1F6E51ECC8F0690E176EB7
:10032000EE0E186EE4ECD7F09DEF90F0000E0F6E1D
:10033000040E106EFA0E116E010E126E000E146E87
:10034000030E136E73ECD0F00F501010D8A4ABEF67
:1003500081F0ADEF81F05DEF84F0000E0501CA6F12
:10036000000EC96F030E8BECAFF0496E010E050154
:10037000C86F060E4A6E000E4A24D96EDA6A040E61
:10038000DA22DF5033ECDDF00009D8B4CAEF81F097
:10039000CCEF81F017EF83F0010E4A24D96EDA6AB0
:1003A000040EDA22200EDE18D8A4D9EF81F0DBEF9C
:1003B00081F0FCEF81F0000E4A24D96EDA6A040E57
:1003C000DA22000E4A24E16EE26A040EE222E750CD
:1003D000D00FDF6E000E4A24D96EDA6A040EDA22DC
:1003E000DF500301F66FF6510501C925C96F000EF4
:1003F000CA21CA6F4CEF83F0000E4A24D96EDA6A24
:10040000040EDA22000E4A24E16EE26A040EE222B1
:10041000E750D00FDF6E000E4A24D96EDA6A040E60
:10042000DA22DF500A0D000E4A24D96EDA6A040E71
:10043000DA22F3CFDFFFC9C50FF0CAC510F0000EF6
:10044000126E0A0E116E5DECDDF00FC0C9F510C022
:10045000CAF5EAEF81F04950160D680EF324D96E03
:10046000080EF420DA6EC9C5DFFF000E0501CA6F61
:10047000000EC96F4AEF83F04950160D690EF32440
:10048000D96E080EF420DA6EC9C5DFFF35EF82F0B1
:100490004950160D6A0EF324D96E080EF420DA6E58
:1004A000C9C5DFFF35EF82F04950160D6B0EF324FE
:1004B000D96E080EF420DA6EC9C5DFFF35EF82F081
:1004C0004950160D640EF324D96E080EF420DA6E2E
:1004D000C9C5DEFFCAC5DDFF35EF82F04950160DF4
:1004E000660EF324D96E080EF420DA6EC9C5DEFF5D
:1004F000CAC5DDFF35EF82F04950160D720EF324A8
:10050000D96E080EF420DA6EC9C5DFFF35EF82F030
:100510004950160D740EF324D96E080EF420DA6ECD
:10052000C9C5DFFF4950160D750EF324D96E080EAC
:10053000F420DA6EC9C5DFFF35EF82F00501C9513D
:1005400017ECB2F0000E0501CA6F000EC96F4950DA
:10055000160D6C0EF324D96E080EF420DA6E38C036
:10056000DFFF4950160D6D0EF324D96E080EF420EE
:10057000DA6E3CC0DFFF4950160D6E0EF324D96EC3
:10058000080EF420DA6E3DC0DFFF4950160D760EDE
:10059000F324D96E080EF420DA6E000EDF6E495097
:1005A000160D770EF324D96E080EF420DA6E010EC4
:1005B000DF6E4950160D6F0EF324D96E080EF4202D
:1005C000DA6E000EDF6E4950160D700EF324D96EF0
:1005D000080EF420DA6E000EDF6E4950160D710E13
:1005E000F324D96E080EF420DA6E000EDF6E495047
:1005F000160D780EF324D96E080EF420DA6E000E74
:10060000DF6E4950160D730EF324D96E080EF420D8
:10061000DA6E000EDF6E4950160D790EF324D96E96
:10062000080EF420DA6E000EDF6E4AEF83F005014B
:10063000C8510301F66FF76BF751000AD8B423EFE6
:1006400083F04AEF83F0F651010AD8B42BEF82F021
:10065000030AD8B43CEF82F0010AD8B448EF82F024
:10066000070AD8B454EF82F0010AD8B460EF82F0E0
:10067000030AD8B46EEF82F0010AD8B47CEF82F09E
:100680000F0AD8B488EF82F0010AD8B49EEF82F046
:100690004AEF83F00501C82B4A2A090EC86553EFBB
:1006A00083F055EF83F0BBEF81F0000E106E640E07
:1006B0000F6EA9ECD6F04950020DCF0EF324F66E62
:1006C000DF0EF420F76EF86A000EF8220900F5CF6D
:1006D00019F00A00F5CF1AF04950160D640EF324F4
:1006E0001B6E080EF4201C6E1BECC3F0000E106E87
:1006F000640E0F6EA9ECD6F04950020DCF0EF32414
:10070000F66EDF0EF420F76EF86A000EF82209008C
:10071000F5CF19F00A00F5CF1AF04950160D640E06
:10072000F3241B6E080EF4201C6E6AECD3F0000E4E
:10073000106E640E0F6EA9ECD6F04950020DCF0E6C
:10074000F324F66EDF0EF420F76EF86A000EF8223E
:100750000900F5CF19F00A00F5CF1AF04950160D2F
:10076000640EF3241B6E080EF4201C6E61ECDBF0AB
:10077000000E106E640E0F6EA9ECD6F04950020DFB
:10078000CF0EF324F66EDF0EF420F76EF86A000E3B
:10079000F8220900F5CF19F00A00F5CF1AF04950F8
:1007A000160D640EF3241B6E080EF4201C6E38EC3C
:1007B000DBF0000E106E640E0F6EA9ECD6F04950FF
:1007C000020DCF0EF324F66EDF0EF420F76EF86AFA
:1007D000000EF8220900F5CF19F00A00F5CF1AF043
:1007E0004950160D640EF3241B6E080EF4201C6E87
:1007F000E6ECDAF0000E106E640E0F6EA9ECD6F087
:100800004950020DCF0EF324F66EDF0EF420F76E82
:10081000F86A000EF8220900F5CF19F00A00F5CFAA
:100820001AF04950160D640EF3241B6E080EF420C6
:100830001C6E5AECCCF0000E106E640E0F6EA9EC1C
:10084000D6F0090E496027EF84F029EF84F031EFEC
:1008500084F0300E00017F6F4950310F806F47EFF9
:1008600084F0080E496437EF84F039EF84F047EFE5
:1008700084F00C0E49603FEF84F041EF84F047EFC5
:1008800084F0310E00017F6F4950270F806F000EFA
:100890004A6E280E1B6EE90E1C6E930E1D6E000E26
:1008A0001E6E020E1F6E51ECC8F09C0E176EF40EF9
:1008B000186EE4ECD7F09DEF90F0000E0F6E040E72
:1008C000106EEC0E116E010E126E000E146E040E00
:1008D000136E73ECD0F00F501010D8A472EF84F0A8
:1008E00074EF84F033EF85F0040E8BECAFF0496EBB
:1008F0004950160D760EF324D96E080EF420DA6EE8
:10090000DE04D8A486EF84F088EF84F08BEF84F0C7
:10091000010E0001776F4950160D770EF324D96E42
:10092000080EF420DA6E000EDF6E4950160D780EB8
:10093000F324D96E080EF420DA6EDE04D8A4A3EFF7
:1009400084F0A5EF84F0D6EF84F04950160D780EB0
:10095000F324D96E080EF420DA6E000EDF6E000E5E
:10096000106E640E0F6EA9ECD6F04950020DCF0E3A
:10097000F324F66EDF0EF420F76EF86A000EF8220C
:100980000900F5CF19F00A00F5CF1AF04950160DFD
:10099000640EF3241B6E080EF4201C6E5AECCCF08F
:1009A000000E106E640E0F6EA9ECD6F04950020DC9
:1009B000CF0EF324F66EDF0EF420F76EF86A000E09
:1009C000F8220900F5CF19F00A00F5CF1AF04950C6
:1009D000160D640EF3241B6E080EF4201C6EE6EC5C
:1009E000DAF0000E106E640E0F6EA9ECD6F0090E50
:1009F0004960FDEF84F0FFEF84F007EF85F0300EE3
:100A000000017F6F4950310F806F1DEF85F0080E98
:100A100049640DEF85F00FEF85F01DEF85F00C0EAA
:100A2000496015EF85F017EF85F01DEF85F0310E69
:100A300000017F6F4950270F806F000E4A6EE10E54
:100A40001B6EE70E1C6E930E1D6E000E1E6E020EC8
:100A50001F6E51ECC8F03D0E176EF70E186EE4ECE9
:100A6000D7F09DEF90F0000E0F6E040E106ED50EB5
:100A7000116E010E126E000E146E060E136E73ECE4
:100A8000D0F00F501010D8A448EF85F04AEF85F051
:100A900068EF87F0000E0501CA6F000EC96F000EE7
:100AA000C86F060E8BECAFF0496E4950160D770EED
:100AB000F324D96E080EF420DA6EDF50D8A463EF69
:100AC00085F065EF85F09BEF85F0090E49606BEFCF
:100AD00085F06DEF85F075EF85F0300E00017F6FCA
:100AE0004950310F806F8BEF85F0080E49647BEF22
:100AF00085F07DEF85F08BEF85F00C0E496083EF7C
:100B000085F085EF85F08BEF85F0310E00017F6F6A
:100B10004950270F806F000E4A6ECE0E1B6EE50EF9
:100B20001C6E930E1D6E000E1E6E020E1F6E51EC9B
:100B3000C8F060EF87F0090E4A6E000E4A24D96EA5
:100B4000DA6A040EDA22DF5033ECDDF00009D8B4A3
:100B5000ACEF85F0AEEF85F00DEF86F0010E4A2484
:100B6000D96EDA6A040EDA22200EDE18D8A4BBEFA2
:100B700085F0BDEF85F0DEEF85F0000E4A24D96EDA
:100B8000DA6A040EDA22000E4A24E16EE26A040EEA
:100B9000E222E750D00FDF6E000E4A24D96EDA6AE7
:100BA000040EDA22DF500301F66FF6510501C92564
:100BB000C96F000ECA21CA6FEBEF86F0000E4A24FF
:100BC000D96EDA6A040EDA22000E4A24E16EE26A75
:100BD000040EE222E750D00FDF6E000E4A24D96ED9
:100BE000DA6A040EDA22DF500A0D000E4A24D96EAA
:100BF000DA6A040EDA22F3CFDFFFC9C50FF0CAC5E7
:100C000010F0000E126E0A0E116E5DECDDF00FC0DA
:100C1000C9F510C0CAF5CCEF85F00501C82BD1EF9E
:100C200086F04950160D6F0EF324D96E080EF4208D
:100C3000DA6EC9C5DFFF000E0501CA6F000EC96F6D
:100C4000EBEF86F04950160D700EF324D96E080EA6
:100C5000F420DA6EC9C5DFFF1BEF86F04950160D90
:100C6000710EF324D96E080EF420DA6EC9C5DFFFC9
:100C70004950160D730EF324D96E080EF420DA6E67
:100C8000000EDF6E4950160D790EF324D96E080E52
:100C9000F420DA6E000EDF6E000E0501CA6F000E42
:100CA000C96F4950160D680EF324D96E080EF42052
:100CB000DA6EDF500301F66FF76B4950160D6F0EB9
:100CC000F324D96E080EF420DA6EDF50F86FF96B5A
:100CD0004950160D700EF324D96E080EF420DA6E0A
:100CE000DF50FA6FFA51F827000EF923F651F85D3C
:100CF000F951800AFB6FF751800AFB59D8A083EFA6
:100D000086F085EF86F0C5EF86F04950160D780E17
:100D1000F324D96E080EF420DA6E000EDF6E090E91
:100D2000496095EF86F097EF86F09FEF86F0300EE2
:100D300000017F6F4950310F806FB5EF86F0080ECC
:100D40004964A5EF86F0A7EF86F0B5EF86F00C0EAC
:100D50004960ADEF86F0AFEF86F0B5EF86F0310E6B
:100D600000017F6F4950270F806F000E4A6E060EFC
:100D70001B6EE00E1C6E930E1D6E000E1E6E020E9C
:100D80001F6E51ECC8F0EBEF86F04950160D780E4F
:100D9000F324D96E080EF420DA6E010EDF6EEBEF4D
:100DA00086F0C8510301F66FF76BF751000AD8B40B
:100DB000DCEF86F0EBEF86F0F651010AD8B411EFC4
:100DC00086F0030AD8B422EF86F0010AD8B42EEFD9
:100DD00086F0EBEF86F04A2A020E0501C865F3EFB4
:100DE00086F0F5EF86F09DEF85F04950160D780EF0
:100DF000F324D96E080EF420DA6EDF50D8B403EF76
:100E000087F005EF87F060EF87F0000E106E640E3C
:100E10000F6EA9ECD6F04950020DCF0EF324F66EFA
:100E2000DF0EF420F76EF86A000EF8220900F5CF05
:100E300019F00A00F5CF1AF04950160D640EF3248C
:100E40001B6E080EF4201C6E5AECCCF0000E106ED7
:100E5000640E0F6EA9ECD6F0090E496032EF87F0F0
:100E600034EF87F03CEF87F0300E00017F6F495080
:100E7000310F806F52EF87F0080E496442EF87F020
:100E800044EF87F052EF87F00C0E49604AEF87F08D
:100E90004CEF87F052EF87F0310E00017F6F495021
:100EA000270F806F000E4A6EB30E1B6EE90E1C6E8C
:100EB000930E1D6E000E1E6E020E1F6E51ECC8F0DA
:100EC000500E176EF00E186EE4ECD7F09DEF90F018
:100ED000000E0F6E040E106EED0E116E020E126EED
:100EE000000E146E070E136E73ECD0F00F5010103E
:100EF000D8A47DEF87F07FEF87F024EF88F0070E0E
:100F00008BECAFF0496E4950160D760EF324D96E76
:100F1000080EF420DA6EDE04D8A491EF87F093EF88
:100F200087F0A7EF87F04950160D730EF324D96EA2
:100F3000080EF420DA6E030EDE18D8B4A2EF87F0A4
:100F4000A4EF87F0A7EF87F0010E0001776F4950FB
:100F5000160D780EF324D96E080EF420DA6EDE0436
:100F6000D8A4B5EF87F0B7EF87F09DEF90F0495028
:100F7000160D780EF324D96E080EF420DA6E000EEA
:100F8000DF6E000E106E640E0F6EA9ECD6F04950A5
:100F9000020DCF0EF324F66EDF0EF420F76EF86A22
:100FA000000EF8220900F5CF19F00A00F5CF1AF06B
:100FB0004950160D640EF3241B6E080EF4201C6EAF
:100FC0005AECCCF0000E106E640E0F6EA9ECD6F049
:100FD000090E4960EEEF87F0F0EF87F0F8EF87F049
:100FE000300E00017F6F4950310F806F0EEF88F097
:100FF000080E4964FEEF87F000EF88F00EEF88F0EE
:101000000C0E496006EF88F008EF88F00EEF88F0CC
:10101000310E00017F6F4950270F806F000E4A6E1E
:101020004C0E1B6EE90E1C6E930E1D6E000E1E6E96
:10103000020E1F6E51ECC8F03D0E176EF70E186EC3
:10104000E4ECD7F09DEF90F0000E0F6E040E106EE2
:10105000CE0E116E010E126E000E146E060E136E81
:1010600073ECD0F00F501010D8A439EF88F03BEF9C
:1010700088F029EF89F0000E0501CA6F000EC96FD4
:10108000000EC86F060E4A6E000E4A24D96EDA6A48
:10109000040EDA22DF5033ECDDF00009D8B453EF50
:1010A00088F055EF88F0B4EF88F0010E4A24D96E2D
:1010B000DA6A040EDA22200EDE18D8A462EF88F075
:1010C00064EF88F085EF88F0000E4A24D96EDA6A62
:1010D000040EDA22000E4A24E16EE26A040EE222D5
:1010E000E750D00FDF6E000E4A24D96EDA6A040E84
:1010F000DA22DF500301F66FF6510501C925C96FE9
:10110000000ECA21CA6FFBEF88F0000E4A24D96E88
:10111000DA6A040EDA22000E4A24E16EE26A040E54
:10112000E222E750D00FDF6E000E4A24D96EDA6A51
:10113000040EDA22DF500A0D000E4A24D96EDA6A54
:10114000040EDA22F3CFDFFFC9C50FF0CAC510F0D5
:10115000000E126E0A0E116E5DECDDF00FC0C9F5C7
:1011600010C0CAF573EF88F00501C82BD9EF88F0DD
:10117000C9C568F0000E0501CA6F000EC96FFBEF0C
:1011800088F0C9C53BF0BAEF88F0C9C567F0BAEF7F
:1011900088F0C9C53AF0BAEF88F0C9C566F0000E0C
:1011A0000501CA6F000EC96F010E0001726FFBEFDF
:1011B00088F0C8510301F66FF76BF751000AD8B4F5
:1011C000E4EF88F0FBEF88F0F651010AD8B4B8EFED
:1011D00088F0030AD8B4C1EF88F0010AD8B4C5EF8B
:1011E00088F0070AD8B4C9EF88F0010AD8B4CDEF67
:1011F00088F0FBEF88F04A2A040E0501C86503EF6A
:1012000089F005EF89F044EF88F0000E106E640E4F
:101210000F6EA9ECD6F00EECC9F0000E106E640E45
:101220000F6EA9ECD6F0000E4A6EF00E1B6EEA0EA1
:101230001C6E930E1D6E000E1E6E000E1F6E51EC86
:10124000C8F09C0E176EF40E186EE4ECD7F09DEF0C
:1012500090F0000E0F6E040E106EE50E116E020E71
:10126000126E000E146E070E136E73ECD0F00F505A
:101270001010D8A43EEF89F040EF89F067EF89F0B5
:10128000000E0001726F000E106E640E0F6EA9EC5E
:10129000D6F00EECC9F0000E106E640E0F6EA9ECC5
:1012A000D6F0000E4A6EB80E1B6EEA0E1C6E930E40
:1012B0001D6E000E1E6E000E1F6E51ECC8F03D0E2E
:1012C000176EF70E186EE4ECD7F09DEF90F0000E5D
:1012D0000F6E040E106EDC0E116E010E126E000EFB
:1012E000146E050E136E73ECD0F00F501010D8A4CE
:1012F0007CEF89F07EEF89F0A9EF89F0000172514F
:10130000D8B485EF89F087EF89F093EF89F0000E6C
:101310004A6E930E276E000E286E630E296E6BECDC
:1013200097F0A1EF89F0000E4A6E250E1B6EEB0EB2
:101330001C6E930E1D6E000E1E6E000E1F6E51EC85
:10134000C8F0210E176EEF0E186EE4ECD7F09DEF8B
:1013500090F0000E0F6E040E106EE20E116E010E74
:10136000126E000E146E040E136E73ECD0F00F505C
:101370001010D8A4BEEF89F0C0EF89F0ABEF8AF06F
:10138000000E0501CA6F000EC96F000EC86F050E72
:101390004A6E000E4A24D96EDA6A040EDA22DF5051
:1013A00033ECDDF00009D8B4D8EF89F0DAEF89F03A
:1013B00069EF8AF0000E4A24D96EDA6A040EDA2246
:1013C000000E4A24E16EE26A040EE222E750D00FDA
:1013D000DF6E000E4A24D96EDA6A040EDA22DF507C
:1013E0000301F66FF6510501C96FCA6BC9C50FF04D
:1013F000CAC510F0000E126E0A0E116E5DECDDF023
:101400000FC0C9F510C0CAF5010E4A24D96EDA6AB8
:10141000040EDA22010E4A24E16EE26A040EE22290
:10142000E750D00FDF6E010E4A24D96EDA6A040E3F
:10143000DA22DF500301F66FF6510501C925C96FA5
:10144000000ECA21CA6FC82B43EF8AF0C9C541F00C
:10145000000E0501CA6F000EC96F7FEF8AF0C9C583
:1014600042F028EF8AF0C9C543F028EF8AF0C9C5D9
:1014700040F028EF8AF0C9C53FF028EF8AF0C9C5CF
:101480003EF028EF8AF0C8510301F66FF76BF75171
:10149000000AD8B44EEF8AF07FEF8AF0F651010AC5
:1014A000D8B426EF8AF0030AD8B42FEF8AF0010AE5
:1014B000D8B433EF8AF0070AD8B437EF8AF0010ABC
:1014C000D8B43BEF8AF0030AD8B43FEF8AF07FEF3D
:1014D0008AF0000E4A6E0B0E1B6EEB0E1C6E930E06
:1014E0001D6E000E1E6E000E1F6E51ECC8F09C0E9D
:1014F000176EF40E186EE4ECD7F09DEF90F0030E2B
:101500004A26050E0501C86588EF8AF08AEF8AF041
:10151000C9EF89F0060EC819D8A491EF8AF093EFAD
:101520008AF095EF8AF0BFECD3F0000E4A6E590EA8
:101530001B6EEA0E1C6E930E1D6E000E1E6E000ECC
:101540001F6E51ECC8F09C0E176EF40E186EE4EC92
:10155000D7F09DEF90F0000E0F6E040E106EE70EA8
:10156000116E010E126E000E146E040E136E73ECEB
:10157000D0F00F501010D8A4C0EF8AF0C2EF8AF05C
:1015800080EF8BF006ECD2F041C00FF0106A000E35
:10159000126E0A0E116EA4ECD1F00F50300F000144
:1015A0007F6F41C021F0226A000E246E0A0E236E66
:1015B000BDECD2F02150300F0001806F2F0E816FF3
:1015C00042C00FF0106A000E126E0A0E116EA4ECEB
:1015D000D1F00F50300F0001826F42C021F0226A1B
:1015E000000E246E0A0E236EBDECD2F02150300F97
:1015F0000001836F2F0E846F43C00FF0106A000E3E
:10160000126E0A0E116EA4ECD1F00F50300F0001D3
:10161000856F43C021F0226A000E246E0A0E236EED
:10162000BDECD2F02150300F0001866F200E876F85
:1016300040C00FF0106A000E126E0A0E116EA4EC7C
:10164000D1F00F50300F0001886F40C021F0226AA6
:10165000000E246E0A0E236EBDECD2F02150300F26
:101660000001896F3A0E8A6F3FC00FF0106A000EBA
:10167000126E0A0E116EA4ECD1F00F50300F000163
:101680008B6F3FC021F0226A000E246E0A0E236E7B
:10169000BDECD2F02150300F00018C6F3A0E8D6FEF
:1016A0003EC00FF0106A000E126E0A0E116EA4EC0E
:1016B000D1F00F50300F00018E6F3EC021F0226A32
:1016C000000E246E0A0E236EBDECD2F02150300FB6
:1016D00000018F6F000E4A6EB80E1B6EEB0E1C6E73
:1016E000930E1D6E000E1E6E030E1F6E51ECC8F0A1
:1016F000540E176EF30E186EE4ECD7F09DEF90F0D9
:10170000000E0F6E040E106EDD0E116E020E126EC4
:10171000000E146E070E136E73ECD0F00F50101005
:10172000D8A495EF8BF097EF8BF0F9EF8BF0070EC5
:101730008BECAFF0496E000E106E640E0F6EA9ECCC
:10174000D6F04950160D770EF324D96E080EF4200A
:10175000DA6EDF50D8B4AFEF8BF0B1EF8BF0BDEFA6
:101760008BF0000E4A6E930E276E000E286E49C055
:1017700029F06BEC97F0F1EF8BF0090E4960C3EFA5
:101780008BF0C5EF8BF0CDEF8BF0300E00017F6F4B
:101790004950310F806FE3EF8BF0080E4964D3EFAF
:1017A0008BF0D5EF8BF0E3EF8BF00C0E4960DBEFA5
:1017B0008BF0DDEF8BF0E3EF8BF0310E00017F6FEC
:1017C0004950270F806F000E4A6E690E1B6EE80E9F
:1017D0001C6E930E1D6E000E1E6E020E1F6E51ECDF
:1017E000C8F0210E176EEF0E186EE4ECD7F09DEFE7
:1017F00090F0000E0F6E040E106EF80E116E000EBB
:10180000126E000E146E020E136E73ECD0F00F50B9
:101810001010D8A40EEF8CF010EF8CF0E2EF8CF0EB
:10182000000E0501CA6F000EC96F000EC86F010ED1
:10183000C86F030E4A6E000E4A24D96EDA6A040E8F
:10184000DA22DF5033ECDDF00009D8B42AEF8CF057
:101850002CEF8CF09CEF8CF0010E4A24D96EDA6AE2
:10186000040EDA22200EDE18D8A439EF8CF03BEFFC
:101870008CF05CEF8CF0000E4A24D96EDA6A040E0C
:10188000DA22000E4A24E16EE26A040EE222E750F8
:10189000D00FDF6E000E4A24D96EDA6A040EDA2207
:1018A000DF500301F66FF6510501C925C96F000E1F
:1018B000CA21CA6FB5EF8CF0000E4A24D96EDA6ADD
:1018C000040EDA22000E4A24E16EE26A040EE222DD
:1018D000E750D00FDF6E000E4A24D96EDA6A040E8C
:1018E000DA22DF500A0D000E4A24D96EDA6A040E9D
:1018F000DA22F3CFDFFFC9C50FF0CAC510F0000E22
:10190000126E0A0E116E5DECDDF00FC0C9F510C04D
:10191000CAF54AEF8CF0C9C5F1F0CAC5F2F0000E65
:101920000501CA6F000EC96FB3EF8CF0C9C5EFF0A7
:10193000CAC5F0F08FEF8CF00501C8510301F66FB6
:10194000F76BF751000AD8B4A8EF8CF0B3EF8CF026
:10195000F651010AD8B48BEF8CF0030AD8B496EF95
:101960008CF0B3EF8CF00501C82B4A2A020EC86533
:10197000BCEF8CF0BEEF8CF01BEF8CF0000E106E05
:10198000640E0F6EA9ECD6F00BECCEF0000E106ECC
:10199000640E0F6EA9ECD6F0000E4A6E910E1B6E0F
:1019A000E80E1C6E930E1D6E000E1E6E000E1F6E56
:1019B00051ECC8F0F30E176EF10E186EE4ECD7F090
:1019C0009DEF90F0000E0F6E040E106EC70E116E9C
:1019D000010E126E000E146E060E136E73ECD0F034
:1019E0000F501010D8A4F7EF8CF0F9EF8CF04CEFFB
:1019F0008FF0000E0501CA6F000EC96F000EC86F90
:101A0000070E4A6E000E4A24D96EDA6A040EDA22F4
:101A1000DF5033ECDDF00009D8B411EF8DF013EF97
:101A20008DF08CEF8DF0000E4A24D96EDA6A040E28
:101A3000DA22000E4A24E16EE26A040EE222E75046
:101A4000D00FDF6E000E4A24D96EDA6A040EDA2255
:101A5000DF500301F66FF6510501C96FCA6BC9C5A6
:101A60000FF0CAC510F0000E126E0A0E116E5DEC7A
:101A7000DDF00FC0C9F510C0CAF5010E4A24D96EB9
:101A8000DA6A040EDA22010E4A24E16EE26A040EDA
:101A9000E222E750D00FDF6E010E4A24D96EDA6AD7
:101AA000040EDA22DF500301F66FF6510501C92555
:101AB000C96F000ECA21CA6FC82B72EF8DF0C9C55D
:101AC000C6F5000E0501CA6F000EC96F8CEF8DF0D0
:101AD000C9C5C7F561EF8DF00501C95117ECB2F02A
:101AE00061EF8DF0C8510301F66FF76BF751000AF3
:101AF000D8B47DEF8DF08CEF8DF0F651010AD8B49B
:101B00005FEF8DF0030AD8B468EF8DF0010AD8B406
:101B10006CEF8DF08CEF8DF0030E4A26020E05015E
:101B2000C86595EF8DF097EF8DF002EF8DF0000E08
:101B3000496E2EEF8FF04950160D680EF324D96EC2
:101B4000080EF420DA6E0F0EDF6E4950160D690E86
:101B5000F324D96E080EF420DA6E010EDF6E4950C0
:101B6000160D6A0EF324D96E080EF420DA6EC6C57F
:101B7000DFFF4950160D6B0EF324D96E080EF420CA
:101B8000DA6EC7C5DFFF4950160D6C0EF324D96E0F
:101B9000080EF420DA6E38C0DFFF4950160D6D0EC6
:101BA000F324D96E080EF420DA6E3CC0DFFF4950F2
:101BB000160D6E0EF324D96E080EF420DA6E3DC0B9
:101BC000DFFF4950160D640EF324D96E080EF42081
:101BD000DA6E640EDE6E000EDD6E4950160D660E76
:101BE000F324D96E080EF420DA6E300EDE6E750E18
:101BF000DD6E4950160D720EF324D96E080EF420D6
:101C0000DA6E4928DF6E4950160D760EF324D96E30
:101C1000080EF420DA6E000EDF6E4950160D740EB9
:101C2000F324D96E080EF420DA6E020EDF6E4950EE
:101C3000160D750EF324D96E080EF420DA6E020E1E
:101C4000DF6E4950160D770EF324D96E080EF4207E
:101C5000DA6E010EDF6E4950160D6F0EF324D96E49
:101C6000080EF420DA6E050EDF6E4950160D700E68
:101C7000F324D96E080EF420DA6E0F0EDF6E495091
:101C8000160D710EF324D96E080EF420DA6E492871
:101C9000DF6E4950160D730EF324D96E080EF42032
:101CA000DA6E000EDF6E4950160D790EF324D96EF0
:101CB000080EF420DA6E000EDF6E4950160D780E15
:101CC000F324D96E080EF420DA6E010EDF6E49504F
:101CD000020DCF0EF324F66EDF0EF420F76EF86AD5
:101CE000000EF8220900F5CF19F00A00F5CF1AF01E
:101CF0004950160D640EF3241B6E080EF4201C6E62
:101D00001BECC3F0000E106E640E0F6EA9ECD6F043
:101D10004950020DCF0EF324F66EDF0EF420F76E5D
:101D2000F86A000EF8220900F5CF19F00A00F5CF85
:101D30001AF04950160D640EF3241B6E080EF420A1
:101D40001C6E6AECD3F0000E106E640E0F6EA9ECE0
:101D5000D6F04950020DCF0EF324F66EDF0EF420BC
:101D6000F76EF86A000EF8220900F5CF19F00A00A4
:101D7000F5CF1AF04950160D640EF3241B6E080EB1
:101D8000F4201C6E61ECDBF0000E106E640E0F6E22
:101D9000A9ECD6F04950020DCF0EF324F66EDF0EFB
:101DA000F420F76EF86A000EF8220900F5CF19F05A
:101DB0000A00F5CF1AF04950160D640EF3241B6E7D
:101DC000080EF4201C6E38ECDBF0000E106E640E72
:101DD0000F6EA9ECD6F04950020DCF0EF324F66E2B
:101DE000DF0EF420F76EF86A000EF8220900F5CF36
:101DF00019F00A00F5CF1AF04950160D640EF324BD
:101E00001B6E080EF4201C6EE6ECDAF0000E106E6D
:101E1000640E0F6EA9ECD6F04950020DCF0EF324DC
:101E2000F66EDF0EF420F76EF86A000EF822090055
:101E3000F5CF19F00A00F5CF1AF04950160D640ECF
:101E4000F3241B6E080EF4201C6E5AECCCF0000E2E
:101E5000106E640E0F6EA9ECD6F0492A0B0E496481
:101E600034EF8FF036EF8FF09BEF8DF0000E4A6E5F
:101E7000850E1B6EEB0E1C6E930E1D6E000E1E6EFD
:101E8000000E1F6E51ECC8F04D0E176EEF0E186E5F
:101E9000E4ECD7F09DEF90F09DEF90F0000E0F6E08
:101EA000040E106EFB0E116E000E126E000E146EFC
:101EB000020E136E73ECD0F00F501010D8A463EF25
:101EC0008FF065EF8FF008EF90F0030E0F6E040EA9
:101ED000106EA50E116E000E126E000E146E060E20
:101EE000136E73ECD0F00F501010D8A47AEF8FF06F
:101EF0007CEF8FF0F2EF8FF05050D8B482EF8FF07C
:101F000084EF8FF092EF8FF0000E4A6EAE0E1B6ED4
:101F1000E70E1C6E930E1D6E000E1E6E010E1F6EE0
:101F200051ECC8F0A50E0F6E000E106E0A0E116E69
:101F3000040E126E000E146E060E136E31ECD7F006
:101F4000930E0F6E000E106E7F0E116E000E126E4D
:101F5000000E146E0A0E136E31ECD7F0010E506EA7
:101F60007F0E0F6E000E106EF50E116E020E126EC9
:101F7000000E146E0A0E136E31ECD7F0000E106EC8
:101F8000320E0F6EA9ECD6F021ECD6F0000E106EDA
:101F9000320E0F6EA9ECD6F065ECD6F0000E106E86
:101FA000320E0F6EA9ECD6F00FECDBF0000E106EC7
:101FB000320E0F6EA9ECD6F0000E4A6E580E1B6E54
:101FC000EB0E1C6E930E1D6E000E1E6E000E1F6E2D
:101FD00051ECC8F07F0E176EED0E186EE4ECD7F0E2
:101FE0009DEF90F0000E4A6E3F0E1B6EEB0E1C6EC6
:101FF0007F0E1D6E000E1E6E000E1F6E51ECC8F09F
:10200000440E176EF20E186EE4ECD7F09DEF90F0D0
:10201000000E0F6E040E106EF10E116E010E126E98
:10202000000E146E040E136E73ECD0F00F501010EF
:10203000D8A41DEF90F01FEF90F035EF90F0000E58
:102040004A6E6F0E1B6EEB0E1C6E7F0E1D6E000E29
:102050001E6E000E1F6E51ECC8F0250E176EF00EAE
:10206000186EE4ECD7F09DEF90F0000E0F6E040EAA
:10207000106EEA0E116E030E126E000E146E0B0E31
:10208000136E73ECD0F00F501010D8A44AEF90F0FC
:102090004CEF90F062EF90F0000E4A6EA90E1B6EAE
:1020A000EB0E1C6E7F0E1D6E000E1E6E040E1F6E5C
:1020B00051ECC8F0770E176EF10E186EE4ECD7F005
:1020C0009DEF90F0000E0F6E060EEDECDDF0070EAA
:1020D000106ED00E0F6EA9ECD6F07D0E176EEC0EC2
:1020E000186EE4ECD7F09DEF90F0D7ECDBF0000E2B
:1020F0000F6E070EEDECDDF0030E106EE80E0F6EA6
:10210000A9ECD6F0550E176EF40E186EE4ECD7F06D
:102110009DEF90F0D7ECDBF0000E0F6E080EEDECAB
:10212000DDF0070E106ED00E0F6EA9ECD6F0970EF4
:10213000176EEE0E186EE4ECD7F01200000E0101DF
:10214000FE6FD7A2A6EF90F0A8EF90F0D2EF90F03C
:10215000D7A4ADEF90F0AFEF90F0D2EF90F0D7A60C
:10216000B4EF90F0B6EF90F0D2EF90F0D7A0BBEFC5
:1021700090F0BDEF90F0D2EF90F0D7A8C2EF90F0C2
:10218000C4EF90F0D2EF90F0D7BEC9EF90F0CBEF54
:1021900090F0D2EF90F0D7ACD0EF90F0D2EF90F07B
:1021A000ACEF93F0D7A2D7EF90F0D9EF90F0E0EF3B
:1021B00090F0D7B0DEEF90F0E0EF90F0E5EF90F028
:1021C000D786D784D788D79ED79CD7B2EAEF90F02E
:1021D000ECEF90F0F1EF90F0010EFE6FD78235EF4B
:1021E00091F0D7B0F6EF90F0F8EF90F0FDEF90F0AF
:1021F000020EFE6FD78035EF91F0D7B602EF91F067
:1022000004EF91F009EF91F0030EFE6FD78635EFE2
:1022100091F0D7B40EEF91F010EF91F015EF91F02F
:10222000040EFE6FD78435EF91F0D7B81AEF91F016
:102230001CEF91F021EF91F0050EFE6FD78835EF7E
:1022400091F0D7BE26EF91F028EF91F02FEF91F0AB
:10225000D7AC2DEF91F02FEF91F035EF91F0060E06
:10226000FE6FD79ED79C35EF91F0030EFE19D8B4C0
:102270003CEF91F03EEF91F044EF91F0750E106E4F
:10228000300E0F6EA9ECD6F0C2ECC6F0030E106E45
:10229000E80E0F6EA9ECD6F091ECB6F0030E106EBE
:1022A000E80E0F6EA9ECD6F0BBECCBF0030E106E6F
:1022B000E80E0F6EA9ECD6F01BECCBF0030E106EFF
:1022C000E80E0F6EA9ECD6F000017051D8A46BEFA8
:1022D00091F06DEF91F075EF91F0010E706FFEECE3
:1022E000D4F0DDECD5F0D8ECD9F0030E0101FE19E5
:1022F000D8A47DEF91F07FEF91F0AAEF93F0000E5C
:10230000496E9AEF91F0010E0F6E000EEDECDDF0CC
:10231000010E106EF40E0F6EA9ECD6F0010E0F6ECA
:102320000F0EEDECDDF0010E106EF40E0F6EA9EC49
:10233000D6F0492A0A0E4960A0EF91F0A2EF91F081
:10234000AAEF91F04850D8B4A8EF91F0AAEF91F01D
:1023500083EF91F04850D8A4B0EF91F0B2EF91F034
:1023600078EF93F0010E496E090E4964BAEF91F0CF
:10237000BCEF91F0BEEF91F0CFEF91F0482AA9ECBD
:10238000D9F0010E0F6E4950EDECDDF0270E106E06
:10239000100E0F6EA9ECD6F0492AB4EF91F0000EA2
:1023A000486EA9ECD9F0AAEF93F0000E486EA9ECA4
:1023B000D9F0000E496E090E4964E1EF91F0E3EFA8
:1023C00091F0E5EF91F0FEEF91F0010E0F6E0F0E20
:1023D000EDECDDF0010E106EF40E0F6EA9ECD6F0F0
:1023E000010E0F6E010EEDECDDF0030E106EE80E27
:1023F0000F6EA9ECD6F0492ADBEF91F025ECBEF088
:10240000CFEF91F0000E486EA9ECD9F0000E496EA6
:10241000090E49640EEF92F010EF92F012EF92F075
:102420002BEF92F0010E0F6E0F0EEDECDDF0010EB2
:10243000106EF40E0F6EA9ECD6F0010E0F6E020EA8
:10244000EDECDDF0030E106EE80E0F6EA9ECD6F089
:10245000492A08EF92F0C0ECBCF0CFEF91F0000EEB
:10246000486EA9ECD9F0000E496E090E49643BEFA5
:1024700092F03DEF92F03FEF92F0CFEF91F0010E2E
:102480000F6E0F0EEDECDDF0010E106EF40E0F6E00
:10249000A9ECD6F0010E0F6E030EEDECDDF0030E8D
:1024A000106EE80E0F6EA9ECD6F0492A35EF92F0C7
:1024B000000E486EA9ECD9F0000E496E090E496471
:1024C00064EF92F066EF92F068EF92F0CFEF91F048
:1024D000010E0F6E0F0EEDECDDF0010E106EF40E1E
:1024E0000F6EA9ECD6F0010E0F6E040EEDECDDF0D0
:1024F000030E106EE80E0F6EA9ECD6F0492A5EEFBF
:1025000092F0000E486EA9ECD9F0000E496E090E4B
:1025100049648DEF92F08FEF92F091EF92F0CFEF50
:1025200091F0010E0F6E0F0EEDECDDF0010E106E4E
:10253000F40E0F6EA9ECD6F0010E0F6E050EEDEC49
:10254000DDF0030E106EE80E0F6EA9ECD6F0492AEE
:1025500087EF92F0000E486EA9ECD9F0000E496E9C
:10256000090E4964B6EF92F0B8EF92F0BAEF92F02C
:10257000CFEF91F0010E0F6E0F0EEDECDDF0010EBE
:10258000106EF40E0F6EA9ECD6F0010E0F6E060E53
:10259000EDECDDF0030E106EE80E0F6EA9ECD6F038
:1025A000492AB0EF92F0000E486EA9ECD9F05050D5
:1025B000D8B4DDEF92F0DFEF92F0CFEF91F0000EA4
:1025C000496E090E4964E7EF92F0E9EF92F0EBEF04
:1025D00092F004EF93F0010E0F6E0F0EEDECDDF0B4
:1025E000010E106EF40E0F6EA9ECD6F0010E0F6EF8
:1025F000070EEDECDDF0030E106EE80E0F6EA9EC89
:10260000D6F0492AE1EF92F012ECC4F0BCECDAF01B
:10261000030E106EE80E0F6EA9ECD6F091ECB6F03A
:10262000CFEF91F0000E486EA9ECD9F05050D8B41D
:102630001CEF93F01EEF93F0CFEF91F0000E496E78
:10264000090E496426EF93F028EF93F02AEF93F0F8
:1026500043EF93F0010E0F6E0F0EEDECDDF0010E67
:10266000106EF40E0F6EA9ECD6F0010E0F6E080E70
:10267000EDECDDF0030E106EE80E0F6EA9ECD6F057
:10268000492A20EF93F012ECC4F008EF93F0000E0B
:10269000486EA9ECD9F05050D8B451EF93F053EFF5
:1026A00093F0CFEF91F0000E496E090E49645BEF95
:1026B00093F05DEF93F05FEF93F006EF93F0010E70
:1026C0000F6E0F0EEDECDDF0010E106EF40E0F6EBE
:1026D000A9ECD6F0010E0F6E090EEDECDDF0030E45
:1026E000106EE80E0F6EA9ECD6F0492A55EF93F064
:1026F00048500001FE6FFF6BFF51000AD8B483EF12
:1027000093F0CFEF91F0FE51010AD8B4D5EF91F0DC
:10271000030AD8B402EF92F0010AD8B42FEF92F076
:10272000070AD8B458EF92F0010AD8B481EF92F0BA
:10273000030AD8B4AAEF92F0010AD8B4D3EF92F00A
:102740000F0AD8B412EF93F0010AD8B447EF93F010
:10275000CFEF91F091ECDAF05050D8B4B2EF93F0A3
:10276000B4EF93F02EEF97F083ECD8F00009D8B4D3
:10277000BCEF93F0BEEF93F0D3EF93F0FF0E376E04
:10278000DC0E366E8A0E1B6EE60E1C6E930E1D6EF0
:10279000000E1E6E000E1F6E51ECC8F0010E0001FF
:1027A000736F7EEF96F0000E00016C6F000E496EA5
:1027B0003BEF95F04950160D760EF324D96E080EB6
:1027C000F420DA6EDE04D8A4E8EF93F0EAEF93F099
:1027D0003AEF95F006ECD2F04950160D6E0EF32448
:1027E000D96E080EF420DA6E4350DE5CD8A0FBEF01
:1027F00093F0FDEF93F096EF94F04950160D6D0EA7
:10280000F324D96E080EF420DA6E4250DE5CD8B0A4
:102810000CEF94F00EEF94F01FEF94F04950160D6A
:102820006E0EF324D96E080EF420DA6E4350DE18D3
:10283000D8B41DEF94F01FEF94F096EF94F0495048
:10284000160D6C0EF324D96E080EF420DA6E41508A
:10285000DE5CD8B02EEF94F030EF94F052EF94F0AD
:102860004950160D6D0EF324D96E080EF420DA6E61
:102870004250DE18D8A43FEF94F041EF94F052EFAD
:1028800094F04950160D6E0EF324D96E080EF42004
:10289000DA6E4350DE18D8B450EF94F052EF94F053
:1028A00096EF94F04950160D6A0EF324D96E080E77
:1028B000F420DA6E4050DE5CD8B061EF94F063EF44
:1028C00094F02EEF95F04950160D6C0EF324D96E4E
:1028D000080EF420DA6E4150DE18D8A472EF94F09E
:1028E00074EF94F02EEF95F04950160D6D0EF32411
:1028F000D96E080EF420DA6E4250DE18D8A483EFA9
:1029000094F085EF94F02EEF95F04950160D6E0E71
:10291000F324D96E080EF420DA6E4350DE18D8A4E2
:1029200094EF94F096EF94F02EEF95F0000E4D6E2C
:102930004950160D760EF324D96E080EF420DA6E87
:10294000000EDF6E4950160D740EF324D96E080E7A
:10295000F420DA6E4950160D750EF324E16E080E60
:10296000F420E26EDFCFE7FF49C06CF04950160D4E
:10297000780EF324D96E080EF420DA6EDF50D8B446
:10298000C4EF94F0C6EF94F020EF95F04950160D87
:10299000730EF324D96E080EF420DA6E020EDE18E0
:1029A000D8A4D5EF94F0D7EF94F0F5EF94F0495018
:1029B000160D730EF324D96E080EF420DA6E000E95
:1029C000DF6E4950160D790EF324D96E080EF420EF
:1029D000DA6E010EDF6E3FECD1F019C064F01AC060
:1029E00065F0B2ECD4F020EF95F04950160D730E5F
:1029F000F324D96E080EF420DA6E030EDE18D8B474
:102A000004EF95F006EF95F016EF95F04950160D8E
:102A1000730EF324D96E080EF420DA6EDE04D8A407
:102A200014EF95F016EF95F020EF95F04950160D44
:102A3000730EF324D96E080EF420DA6E000EDF6EEA
:102A4000000E106E640E0F6EA9ECD6F0F30E176E2A
:102A5000EE0E186EE4ECD7F043EF95F0010E4D6EDC
:102A600049C06CF0C50E176EEE0E186EE4ECD7F090
:102A700043EF95F0492A0B0E496441EF95F043EF7F
:102A800095F0DAEF93F04D50D8B449EF95F04BEF55
:102A900095F051EF96F0010E0001766F090E496036
:102AA00054EF95F056EF95F05DEF95F0300E7F6F97
:102AB0004950310F806FC8EF95F0080E496463EFFD
:102AC00095F065EF95F0C8EF95F00C0E49606BEF4F
:102AD00095F06DEF95F0C8EF95F0310E7F6F49508E
:102AE000270F806FC8EF95F0540E1B6EE40E1C6E1E
:102AF000930E1D6E000E1E6E020E1F6E51ECC8F07E
:102B0000EFEF95F0EF0E1B6EE40E1C6E930E1D6E34
:102B1000000E1E6E020E1F6E51ECC8F0EFEF95F026
:102B2000A20E1B6EE40E1C6E930E1D6E000E1E6E2A
:102B3000020E1F6E51ECC8F0EFEF95F0020E1B6E07
:102B4000E40E1C6E930E1D6E000E1E6E020E1F6EA6
:102B500051ECC8F0EFEF95F0840E1B6EE50E1C6E85
:102B6000930E1D6E000E1E6E020E1F6E51ECC8F00D
:102B7000EFEF95F03A0E1B6EE50E1C6E930E1D6E78
:102B8000000E1E6E020E1F6E51ECC8F0EFEF95F0B6
:102B90000101FE510001FE6FFF6BFF51000AD8B426
:102BA000D4EF95F0EFEF95F0FE51010AD8B474EF31
:102BB00095F0030AD8B482EF95F0010AD8B490EFEB
:102BC00095F0070AD8B49EEF95F0010AD8B4ACEF9F
:102BD00095F0030AD8B4BAEF95F0EFEF95F0E20E56
:102BE000176EF40E186EE4ECD7F03FECD1F019C07C
:102BF00036F01AC037F07EEF96F0DF0E1B6EE80E4F
:102C00001C6E930E1D6E000E1E6E000E1F6E51EC9C
:102C1000C8F078EF96F0990E1B6EEA0E1C6E930EBC
:102C20001D6E000E1E6E000E1F6E51ECC8F078EF88
:102C300096F0040E1B6EE90E1C6E930E1D6E000EB8
:102C40001E6E000E1F6E51ECC8F078EF96F0400E2D
:102C50001B6EE80E1C6E930E1D6E000E1E6E000E97
:102C60001F6E51ECC8F078EF96F0F60E1B6EE90E71
:102C70001C6E930E1D6E000E1E6E000E1F6E51EC2C
:102C8000C8F078EF96F0D50E1B6EE90E1C6E930E11
:102C90001D6E000E1E6E000E1F6E51ECC8F078EF18
:102CA00096F00101FE510001FE6FFF6BFF51000A1B
:102CB000D8B45DEF96F078EF96F0FE51010AD8B4E3
:102CC000FDEF95F0030AD8B40BEF96F0010AD8B4E3
:102CD00019EF96F0070AD8B427EF96F0010AD8B496
:102CE00035EF96F0030AD8B443EF96F078EF96F0FC
:102CF000680E176EF50E186EE4ECD7F000017451F3
:102D0000D8B485EF96F087EF96F0D4EF96F065ECA7
:102D1000D2F00009D8B48FEF96F091EF96F09FEFC4
:102D200096F0D50E1B6EEA0E1C6E930E1D6E000EF5
:102D30001E6E000E1F6E51ECC8F06AEF97F0000196
:102D40006F51D8B4A6EF96F0A8EF96F0BAEF96F0D0
:102D5000E0ECC5F0030E106EE80E0F6EA9ECD6F095
:102D6000BFECD3F0030E106EE80E0F6EA9ECD6F098
:102D7000C6EF96F0770E1B6EE70E1C6E930E1D6E5F
:102D8000000E1E6E000E1F6E51ECC8F0B80E1B6ECA
:102D9000E80E1C6E930E1D6E000E1E6E000E1F6E52
:102DA00051ECC8F06AEF97F06F51D8B4DAEF96F0B3
:102DB000DCEF96F0EEEF96F0E0ECC5F0030E106E4F
:102DC000E80E0F6EA9ECD6F0BFECD3F0030E106E38
:102DD000E80E0F6EA9ECD6F06AEF97F0770E1B6E37
:102DE000E70E1C6E930E1D6E000E1E6E000E1F6E03
:102DF00051ECC8F06AEF97F0000E0F6E010EEDEC8B
:102E0000DDF0A50E0F6E000E106E9E0E116E000E00
:102E1000126E000E146E060E136E31ECD7F0FF0E1C
:102E2000376EDC0E366E94ECC7F04F50D8B41BEF03
:102E300097F01DEF97F02EEF97F0010E0F6E020E38
:102E4000EDECDDF0010E106EF40E0F6EA9ECD6F075
:102E5000000E4F6E00EC80F091ECDAF05050D8B4D8
:102E600034EF97F036EF97F0FCEF96F083ECD8F064
:102E70000009D8B43EEF97F040EF97F053EF97F08A
:102E8000FF0E376EDC0E366E0E0E1B6EE60E1C6EDF
:102E9000930E1D6E000E1E6E000E1F6E51ECC8F0DC
:102EA000010E0001736F65ECD2F00009D8B45BEF3E
:102EB00097F05DEF97F05FEF97F091EF96F00001DC
:102EC0006F51D8B466EF97F068EF97F0BAEF96F0CD
:102ED000A8EF96F012001E0E00016E6FAF0E176E77
:102EE000FF0E186E23ECDCF027C017F028C018F096
:102EF0000A0E196EAEECDCF0010E176EFF0E186EA6
:102F000023ECDCF0000E106EC80E0F6EA9ECD6F0AC
:102F1000630E2918D8A48FEF97F091EF97F048EF40
:102F200099F06C0E176EF20E186E23ECDCF0000EAA
:102F3000106E0A0E0F6EA9ECD6F068C080F080C04B
:102F400021F0226A000E246E640E236EBDECD2F0D6
:102F500021500001806F80C00FF0106A000E126EC9
:102F60000A0E116EA4ECD1F00F50300F00017F6FEC
:102F70007F0E176E000E186E010E196EAEECDCF0AF
:102F8000000E106E0A0E0F6EA9ECD6F080C021F074
:102F9000226A000E246E0A0E236EBDECD2F0215080
:102FA0000001806F8051300F7F6F7F0E176E000E13
:102FB000186E010E196EAEECDCF0000E106E0A0EEB
:102FC0000F6EA9ECD6F0910E176EFF0E186E23EC63
:102FD000DCF0000E106E0A0E0F6EA9ECD6F03BC0AE
:102FE00080F080C021F0226A000E246E640E236EF1
:102FF000BDECD2F021500001806F80C00FF0106A4C
:10300000000E126E0A0E116EA4ECD1F00F50300FAC
:1030100000017F6F7F0E176E000E186E010E196E85
:10302000AEECDCF0000E106E0A0E0F6EA9ECD6F0BE
:1030300080C021F0226A000E246E0A0E236EBDECC1
:10304000D2F021500001806F8051300F7F6F7F0ED2
:10305000176E000E186E010E196EAEECDCF0000E4D
:10306000106E0A0E0F6EA9ECD6F09B0E176EFF0EB7
:10307000186E23ECDCF0000E106E0A0E0F6EA9EC39
:10308000D6F067C080F080C021F0226A000E246E66
:10309000640E236EBDECD2F021500001806F80C021
:1030A0000FF0106A000E126E0A0E116EA4ECD1F031
:1030B0000F50300F00017F6F7F0E176E000E186EDD
:1030C000010E196EAEECDCF0000E106E0A0E0F6EE3
:1030D000A9ECD6F080C021F0226A000E246E0A0E00
:1030E000236EBDECD2F021500001806F8051300F73
:1030F0007F6F7F0E176E000E186E010E196EAEEC0C
:10310000DCF0000E106E0A0E0F6EA9ECD6F0A50EC4
:10311000176EFF0E186E23ECDCF0000E106E0A0E18
:103120000F6EA9ECD6F03AC080F080C021F0226A80
:10313000000E246E640E236EBDECD2F0215000010F
:10314000806F80C00FF0106A000E126E0A0E116EB2
:10315000A4ECD1F00F50300F00017F6F7F0E176E7F
:10316000000E186E010E196EAEECDCF0000E106E43
:103170000A0E0F6EA9ECD6F080C021F0226A000E74
:10318000246E0A0E236EBDECD2F021500001806F38
:103190008051300F7F6F7F0E176E000E186E010E7C
:1031A000196EAEECDCF0000E106E0A0E0F6EA9EC7C
:1031B000D6F0F80E176EFD0E186E23ECDCF0000E44
:1031C000106E0A0E0F6EA9ECD6F066C080F080C0BB
:1031D0000FF0106A000E126E640E116EA4ECD1F0A6
:1031E0000F50300F00017F6F7F0E176E000E186EAC
:1031F000010E196EAEECDCF0000E106E0A0E0F6EB2
:10320000A9ECD6F080C021F0226A000E246E640E74
:10321000236EBDECD2F021500001806F80C00FF012
:10322000106A000E126E0A0E116EA4ECD1F00F504F
:10323000300F00017F6F7F0E176E000E186E010EAB
:10324000196EAEECDCF0000E106E0A0E0F6EA9ECDB
:10325000D6F080C021F0226A000E246E0A0E236E82
:10326000BDECD2F021500001806F8051300F7F6F94
:103270007F0E176E000E186E010E196EAEECDCF0AC
:10328000000E106E0A0E0F6EA9ECD6F090EF9DF0B6
:10329000C30E176EFE0E186E23ECDCF0000E106EDF
:1032A0000A0E0F6EA9ECD6F0090E29605AEF99F0BC
:1032B0005CEF99F064EF99F0300E00017F6F2950B8
:1032C000310F806F7AEF99F0080E29646AEF99F058
:1032D0006CEF99F07AEF99F00C0E296072EF99F08B
:1032E00074EF99F07AEF99F0310E00017F6F295059
:1032F000270F806F7F0E176E000E186E020E196E6C
:10330000AEECDCF0000E106E0A0E0F6EA9ECD6F0DB
:10331000DE0E176EFF0E186E23ECDCF0000E106E42
:103320000A0E0F6EA9ECD6F02950160D680EF32484
:10333000D96E080EF420DA6EDF500001806F80C075
:103340000FF0106A000E126E640E116EA4ECD1F034
:103350000F50300F00017F6F7F0E176E000E186E3A
:10336000010E196EAEECDCF0000E106E0A0E0F6E40
:10337000A9ECD6F080C021F0226A000E246E640E03
:10338000236EBDECD2F021500001806F80C00FF0A1
:10339000106A000E126E0A0E116EA4ECD1F00F50DE
:1033A000300F00017F6F7F0E176E000E186E010E3A
:1033B000196EAEECDCF0000E106E0A0E0F6EA9EC6A
:1033C000D6F080C021F0226A000E246E0A0E236E11
:1033D000BDECD2F021500001806F8051300F7F6F23
:1033E0007F0E176E000E186E010E196EAEECDCF03B
:1033F000000E106E0A0E0F6EA9ECD6F0CC0E176EF2
:10340000FF0E186E23ECDCF0000E106E0A0E0F6E2D
:10341000A9ECD6F02950160D690EF324D96E080ECA
:10342000F420DA6EDF500001806F80C021F0226A44
:10343000000E246E640E236EBDECD2F0215000010C
:10344000806F80C00FF0106A000E126E0A0E116EAF
:10345000A4ECD1F00F50300F00017F6F7F0E176E7C
:10346000000E186E010E196EAEECDCF0000E106E40
:103470000A0E0F6EA9ECD6F080C021F0226A000E71
:10348000246E0A0E236EBDECD2F021500001806F35
:103490008051300F7F6F7F0E176E000E186E010E79
:1034A000196EAEECDCF0000E106E0A0E0F6EA9EC79
:1034B000D6F0B90E176EFF0E186E23ECDCF0000E7E
:1034C000106E0A0E0F6EA9ECD6F02950160D6C0E78
:1034D000F324D96E080EF420DA6EDF500001806FFD
:1034E00080C021F0226A000E246E640E236EBDECB3
:1034F000D2F021500001806F80C00FF0106A000EE2
:10350000126E0A0E116EA4ECD1F00F50300F0001B4
:103510007F6F7F0E176E000E186E010E196EAEECE7
:10352000DCF0000E106E0A0E0F6EA9ECD6F080C013
:1035300021F0226A000E246E0A0E236EBDECD2F03A
:1035400021500001806F8051300F7F6F7F0E176E0A
:10355000000E186E010E196EAEECDCF0000E106E4F
:103560000A0E0F6EA9ECD6F02950160D6D0EF3243D
:10357000D96E080EF420DA6EDF500001806F80C033
:1035800021F0226A000E246E640E236EBDECD2F090
:1035900021500001806F80C00FF0106A000E126E83
:1035A0000A0E116EA4ECD1F00F50300F00017F6FA6
:1035B0007F0E176E000E186E010E196EAEECDCF069
:1035C000000E106E0A0E0F6EA9ECD6F080C021F02E
:1035D000226A000E246E0A0E236EBDECD2F021503A
:1035E0000001806F8051300F7F6F7F0E176E000ECD
:1035F000186E010E196EAEECDCF0000E106E0A0EA5
:103600000F6EA9ECD6F02950160D6E0EF324D96E6C
:10361000080EF420DA6EDF500001806F80C021F0C8
:10362000226A000E246E640E236EBDECD2F021508F
:103630000001806F80C00FF0106A000E126E0A0E3B
:10364000116EA4ECD1F00F50300F00017F6F7F0E90
:10365000176E000E186E010E196EAEECDCF0000E47
:10366000106E0A0E0F6EA9ECD6F080C021F0226A0F
:10367000000E246E0A0E236EBDECD2F02150000124
:10368000806F8051300F7F6F7F0E176E000E186EA7
:10369000010E196EAEECDCF0000E106E0A0E0F6E0D
:1036A000A9ECD6F0FC0E176EFF0E186E23ECDCF0C2
:1036B000000E106E0A0E0F6EA9ECD6F02950160DF2
:1036C0006A0EF324D96E080EF420DA6EDF50000182
:1036D000806F80C021F0226A000E246E640E236E7B
:1036E000BDECD2F021500001806F80C00FF0106A55
:1036F000000E126E0A0E116EA4ECD1F00F50300FB6
:1037000000017F6F7F0E176E000E186E010E196E8E
:10371000AEECDCF0000E106E0A0E0F6EA9ECD6F0C7
:1037200080C021F0226A000E246E0A0E236EBDECCA
:10373000D2F021500001806F8051300F7F6F7F0EDB
:10374000176E000E186E010E196EAEECDCF0000E56
:10375000106E0A0E0F6EA9ECD6F0D30E176EFF0E88
:10376000186E23ECDCF0000E106E0A0E0F6EA9EC42
:10377000D6F02950160D6B0EF324D96E080EF420E6
:10378000DA6EDF500001806F80C021F0226A000EE7
:10379000246E640E236EBDECD2F021500001806FC8
:1037A00080C00FF0106A000E126E0A0E116EA4ECAB
:1037B000D1F00F50300F00017F6F7F0E176E000E9B
:1037C000186E010E196EAEECDCF0000E106E0A0ED3
:1037D0000F6EA9ECD6F080C021F0226A000E246E94
:1037E0000A0E236EBDECD2F021500001806F805193
