:04000000D1EF02F04A
:060008004D8202EFD1F071
:100018004D80D8CF0EF0E8CF0FF0E0CF10F0D9CF59
:1000280011F0DACF12F00E0133AB1DEF00F01FEF25
:1000380000F07CEF02F08F96339BE30ED46EB00E87
:10004800D36E0001C02B3A503B10D8B42EEF00F00D
:1000580030EF00F04BEF00F08EAE35EF00F037EFE9
:1000680000F04BEF00F03A06D8A03B06B851D8B4E0
:1000780040EF00F042EF00F04AEF00F0030EB861E5
:1000880048EF00F04AEF00F04BEF00F0B82B2BEEF2
:100098005AF0DF50D8A453EF00F055EF00F0BCEF52
:1000A80001F02BEE87F0DF50D8A45DEF00F05FEF92
:1000B80000F0BCEF01F02BEEB4F0DF50D8A467EFEE
:1000C80000F069EF00F0BCEF01F02BEEE1F0DF503B
:1000D800D8A471EF00F073EF00F0BCEF01F08EAC24
:1000E80078EF00F07AEF00F0BCEF01F08EA47FEF1C
:1000F80000F081EF00F09BEF00F09851901907E1B4
:1001080099519119D8A48BEF00F08DEF00F097EF7B
:1001180000F08E94000E916F000E906F804B812B33
:10012800C82BCAEF00F0904B912BCAEF00F08EB4A9
:10013800A0EF00F0A2EF00F0CAEF00F0885180199C
:1001480007E189518119D8A4ACEF00F0AEEF00F0B7
:10015800C8EF00F0CC51C85DD8B0B5EF00F0B7EFEC
:1001680000F0C0EF00F08E84904B912B000E816F51
:10017800000E806FCAEF00F0010E8825806F000E18
:100188008921816FCAEF00F0804B812B8EA6CFEFBB
:1001980000F0D1EF00F0EBEF00F096518E1907E177
:1001A80097518F19D8A4DBEF00F0DDEF00F0E7EFEF
:1001B80000F08E96000E8F6F000E8E6F7E4B7F2B99
:1001C800C72B1AEF01F08E4B8F2B1AEF01F08EB66A
:1001D800F0EF00F0F2EF00F01AEF01F086517E190F
:1001E80007E187517F19D8A4FCEF00F0FEEF00F07B
:1001F80018EF01F0CB51C75DD8B005EF01F007EF5C
:1002080001F010EF01F08E868E4B8F2B000E7F6F62
:10021800000E7E6F1AEF01F0010E86257E6F000E2C
:1002280087217F6F1AEF01F07E4B7F2B8EA81FEF7F
:1002380001F021EF01F03BEF01F094518C1907E137
:1002480095518D19D8A42BEF01F02DEF01F037EF60
:1002580001F08E98000E8D6F000E8C6F7C4B7D2BFD
:10026800C62B6AEF01F08C4B8D2B6AEF01F08EB82C
:1002780040EF01F042EF01F06AEF01F084517C1980
:1002880007E185517D19D8A44CEF01F04EEF01F03C
:1002980068EF01F0CA51C65DD8B055EF01F057EFCD
:1002A80001F060EF01F08E888C4B8D2B000E7D6F76
:1002B800000E7C6F6AEF01F0010E84257C6F000E42
:1002C80085217D6F6AEF01F07C4B7D2B8EAA6FEF45
:1002D80001F071EF01F08BEF01F092518A1907E1FB
:1002E80093518B19D8A47BEF01F07DEF01F087EFD4
:1002F80001F08E9A000E8B6F000E8A6F7A4B7B2B63
:10030800C52BBCEF01F08A4B8B2BBCEF01F08EBAEA
:1003180090EF01F092EF01F0BCEF01F082517A19F1
:1003280007E183517B19D8A49CEF01F09EEF01F0FF
:10033800B8EF01F0C951C55DD8B0A5EF01F0A7EF3E
:1003480001F0B0EF01F08E8A8A4B8B2B000E7B6F89
:10035800000E7A6FBCEF01F0010E82257A6F000E55
:1003680083217B6FBCEF01F07A4B7B2BBCEF01F054
:10037800630E4718D8A4C3EF01F0C5EF01F0C9EF29
:1003880001F0000EC06F7CEF02F04704D8A4CFEF55
:1003980001F0D1EF01F0E1EF01F0BC51C019D8A490
:1003A800D8EF01F0DAEF01F0E1EF01F0000EC06FD5
:1003B8008F8E020E476E7CEF02F0020E4718D8A40B
:1003C800E8EF01F0EAEF01F0FAEF01F0B951C019D6
:1003D800D8A4F1EF01F0F3EF01F0FAEF01F0000E0D
:1003E800C06F8F9E030E476E7CEF02F0030E471816
:1003F800D8A401EF02F003EF02F013EF02F0BB51B3
:10040800C019D8A40AEF02F00CEF02F013EF02F0C3
:10041800000EC06F8D84040E476E7CEF02F0040E50
:100428004718D8A41AEF02F01CEF02F02CEF02F0E4
:10043800B951C019D8A423EF02F025EF02F02CEF30
:1004480002F0000EC06F8D94050E476E7CEF02F02F
:10045800050E4718D8A433EF02F035EF02F045EF48
:1004680002F0BB51C019D8A43CEF02F03EEF02F0F5
:1004780045EF02F0000EC06F8D86060E476E7CEFCA
:1004880002F0060E4718D8A44CEF02F04EEF02F027
:100498005EEF02F0B951C019D8A455EF02F057EF3A
:1004A80002F05EEF02F0000EC06F8D96070E476EE9
:1004B8007CEF02F0070E4718D8A465EF02F067EF4B
:1004C80002F07CEF02F0C0510C6E0D6A9E510C18C0
:1004D80007E19F510D18D8A474EF02F076EF02F0EF
:1004E8007CEF02F0000EC06F010E476E7CEF02F049
:1004F8000E0138A182EF02F084EF02F089EF02F0DA
:100508008F960001BF2B0E01389138A58EEF02F0AF
:1005180090EF02F0C5EF02F08F963895F00EC86E96
:10052800DC0EC76E0001BE2BBE51C45DD8B09FEF74
:1005380002F0A1EF02F0BAEF02F03F50D8A4A7EF03
:1005480002F0A9EF02F0BAEF02F0010E3F6E000EC2
:10055800BE6FC990B551D8B4B4EF02F0B6EF02F04F
:10056800C5EF02F0010EB46FC5EF02F03F50D8B4EA
:10057800C0EF02F0C2EF02F0C5EF02F0000EBE6F4E
:10058800C99012C0DAFF11C0D9FF10C0E0FF0FC038
:0E059800E8FF0EC0D8FF4D901000C1EFDBF061
:10F31800004665727469676174696F6E2073746FF3
:10F328007070656420776974682066657274696CAA
:10F33800697A6572206C6576656C2073656E736F8B
:10F3480072206661696C75726520666F72206669E5
:10F35800656C6420004665727469676174696F6ED4
:10F368002073746F707065642077697468206C6F9F
:10F37800772066657274696C697A6572206C657647
:10F38800656C20666F72206669656C64200053792D
:10F398007374656D207265736574206F636375722D
:10F3A8007265642C2049727269676174696F6E2096
:10F3B80073657474696E672064656C657465640050
:10F3C8000000300060009000C000F00020015001F3
:10F3D8008001B001E001100240027002A002D002D8
:10F3E8004C6F67696E20636F6465206E6F7420636D
:10F3F80068616E676564002D004472792052756EED
:10F408002064657465637465642C204D6F746F7235
:10F418002C2049727269676174696F6E20616E642D
:10F42800204665727469676174696F6E20737769C5
:10F438007463686564206F66662E0D0A4972726986
:10F44800676174696F6E207363686564756C656461
:10F4580020746F206E6578742064617920776974F0
:10F4680068206665727469676174696F6E20666F7B
:10F4780072206669656C642000000044727920522D
:10F48800756E2064657465637465642C204D6F74B3
:10F498006F7220616E642049727269676174696F66
:10F4A8006E207377697463686564206F66662E0DD5
:10F4B8000A49727269676174696F6E20736368655F
:10F4C80064756C656420746F206E6578742064615F
:10F4D80079207769746820666572746967617469F0
:10F4E8006F6E20666F72206669656C64200000008C
:10F4F8004472792052756E2064657465637465641E
:10F508002C204D6F746F7220616E6420497272698D
:10F51800676174696F6E20737769746368656420C6
:10F528006F66662E0D0A49727269676174696F6E3B
:10F53800207363686564756C656420746F206E65FC
:10F54800787420647565206461746520666F722024
:10F558006669656C64200000004472792052756EFB
:10F568002064657465637465642C204D6F746F72D4
:10F5780020616E642049727269676174696F6E20D8
:10F588007377697463686564206F66662E0D0A492F
:10F59800727269676174696F6E20736368656475F8
:10F5A8006C656420746F206E6578742064617920BE
:10F5B800666F72206669656C642000000053797379
:10F5C80074656D2072657374617274656420666F0A
:10F5D8007220416C6C2050686173652044657465C5
:10F5E8006374696F6E207769746820696E636F6DE4
:10F5F800706C6574652049727269676174696F6EB1
:10F6080020666F72206669656C6420005379737494
:10F61800656D2072657374617274656420666F72BB
:10F6280020506F77657220496E74657272757074B8
:10F63800207769746820696E636F6D706C65746596
:10F648002049727269676174696F6E20666F7220F3
:10F658006669656C64200053797374656D20726502
:10F668007374617274656420696E20446961676EA1
:10F678006F73746963204D6F6465207769746820BF
:10F68800696E636F6D706C65746520497272696725
:10F698006174696F6E20666F72206669656C64209C
:10F6A8000053797374656D20726573746172746543
:10F6B8006420666F72204C6F7720506F77657220D8
:10F6C800496E207769746820696E636F6D706C6528
:10F6D80074652049727269676174696F6E20666F1C
:10F6E80072206669656C64200053797374656D20B7
:10F6F80072657374617274656420666F72205374E6
:10F7080061636B204572726F722077697468206933
:10F718006E636F6D706C657465204972726967619C
:10F7280074696F6E20666F72206669656C6420006C
:10F7380053797374656D207265737461727465644E
:10F7480020666F72205744542054696D656F757434
:10F75800207769746820696E636F6D706C65746575
:10F768002049727269676174696F6E20666F7220D2
:10F778006669656C6420004C6F772050686173651A
:10F788002063757272656E74206465746563746550
:10F79800642C20616374696F6E7320737573706570
:10F7A8006E6465642C20706C656173652072657386
:10F7B800746172742073797374656D00497272692B
:10F7C800676174696F6E206973206E6F742041637E
:10F7D800746976652E204665727469676174696F0D
:10F7E8006E206E6F7420656E61626C656420666F52
:10F7F80072207072696F726974792000537973741A
:10F80800656D2041757468656E74696361746564BB
:10F818002077697468205068617365206661696C37
:10F828007572652C2073757370656E64696E6720D8
:10F83800616C6C20616374696F6E730053797374C3
:10F84800656D20726573746172746564207769747C
:10F8580068207068617365206661696C7572652CD3
:10F868002073757370656E64696E6720616C6C20B7
:10F87800616374696F6E730053797374656D207278
:10F8880065736574206F636375727265642C206C90
:10F898006F67696E20636F64652072657365742095
:10F8A800746F20466163746F72792073657474692C
:10F8B8006E670049727269676174696F6E20636F61
:10F8C8006D706C6574656420666F72206475652060
:10F8D8006669656C64730D0A4D6F746F7220737777
:10F8E800697463686564206F66660000004D6F691F
:10F8F80073747572652073656E736F7220697320F7
:10F908006661696C65642C20497272696761746903
:10F918006F6E207374617274656420666F722066FE
:10F9280069656C642000576574206669656C64209D
:10F9380064657465637465642E0D0A49727269673B
:10F948006174696F6E206E6F742073746172746570
:10F958006420666F72206669656C64200000004E42
:10F968006577205254432062617474657279206609
:10F978006F756E642C20706C656173652073796E89
:10F98800632073797374656D2074696D65206D618A
:10F998006E75616C6C79004E657720525443206215
:10F9A80061747465727920666F756E642C20737942
:10F9B8007374656D2074696D65206973207365744F
:10F9C80020746F206C6F63616C2074696D650049E9
:10F9D8006E636F72726563742076616C7565732EE1
:10F9E800204665727469676174696F6E206E6F7402
:10F9F80020656E61626C656420666F722070726942
:10FA08006F726974792000596F7520617265206E74
:10FA18006F206D6F72652041646D696E206E6F771F
:10FA28002E204E65772041646D696E2069732073BE
:10FA3800657420746F0D0A0000005254432042611F
:10FA4800747465727920666F756E64206C6F772C9C
:10FA580020706C65617365207265706C61636520E8
:10FA680052544320626174746572790049727269F4
:10FA7800676174696F6E2069732061637469766564
:10FA88002C204D6F746F72206C6F616420637574E5
:10FA98002D6F6666206E6F742073657400497272EC
:10FAA80069676174696F6E20636F6E6669677572E6
:10FAB8006174696F6E2064697361626C6564206645
:10FAC8006F72207072696F72697479200050686172
:10FAD8007365206661696C75726520646574656319
:10FAE8007465642C2073757370656E64696E672025
:10FAF800616C6C20616374696F6E73004E6F4C6F3C
:10FB0800616420616E642046756C6C4C6F61642082
:10FB18004D6F746F72207468726573686F6C64736C
:10FB28002073657420746F203A20004D6F697374D8
:10FB38007572652073656E736F7220667265717574
:10FB4800656E63792076616C756520666F722066D4
:10FB580069656C64200053797374656D2074696DF0
:10FB6800652073796E63656420746F2063757272A3
:10FB7800656E74206C6F63616C2074696D650049F3
:10FB8800727269676174696F6E206E6F7420636F3B
:10FB98006E6669677572656420666F722070726937
:10FBA8006F7269747920004D6F697374757265207E
:10FBB80073656E736F72206973206661696C656422
:10FBC80020666F72206669656C64200049727269EC
:10FBD800676174696F6E20636F6E666967757265B9
:10FBE8006420666F72207072696F72697479200080
:10FBF8004D6F746F726C6F6164206375742D6F66DE
:10FC08006620736574207375636365737366756CBA
:10FC18006C79004665727469676174696F6E2064F7
:10FC2800697361626C656420666F72207072696FB7
:10FC38007269747920004665727469676174696FC6
:10FC48006E20656E61626C656420666F72207072EA
:10FC5800696F72697479200057617465722046690A
:10FC68006C74726174696F6E206973206E6F742092
:10FC7800656E61626C6564004C6F67696E20636FC6
:10FC88006465206368616E67656420737563636586
:10FC9800737366756C6C7900466572746967617414
:10FCA800696F6E2073746F7070656420666F722060
:10FCB8006669656C64200046657274696761746979
:10FCC8006F6E207374617274656420666F7220664B
:10FCD80069656C64200049727269676174696F6E46
:10FCE8002073746F7070656420666F722066696532
:10FCF8006C64200049727269676174696F6E207361
:10FD080074617274656420666F72206669656C64DC
:10FD1800200057617465722066696C747261746939
:10FD28006F6E206465616374697661746564004907
:10FD38006E636F7272656374206C6F63616C20749C
:10FD4800696D6520666F756E640057617465722011
:10FD580046696C74726174696F6E2053657175655C
:10FD68006E63653A0057617465722066696C7472D7
:10FD78006174696F6E20616374697661746564008B
:10FD880050686173652042206661696C75726520F0
:10FD980064657465637465640050686173652059AF
:10FDA800206661696C757265206465746563746545
:10FDB800640050686173652052206661696C7572D1
:10FDC800652064657465637465640057726F6E6757
:10FDD800206C6F67696E20636F646520666F756E4F
:10FDE800640041646D696E20736574207375636384
:10FDF80065737366756C6C790041757468656E74AB
:10FE080069636174696F6E206661696C656400413D
:10FE18006C6C2050686173652064657465637465F3
:10FE2800640054657374204461746120496E6A6586
:10FE3800637465640053797374656D20436F6E6EE7
:10FE480065637465640043757272656E74204B65F2
:10FE580079203A2000466163746F7279204B657986
:10FE6800203A200043757272656E742054696D657E
:10FE78003A200049727269676174696F6E204E6F2B
:10FE88003A004665727469676174696F6E20656EC1
:10FE980061626C656420776974682064656C617957
:10FEA8003A004665727469676174696F6E206E6F97
:10FEB8007420636F6E666967757265640D0A004128
:10FEC800542B434E4D493D312C312C302C302C30A5
:10FED8000D0A0053657061726174696F6E20546910
:10FEE8006D653A200041542B435343533D224753F9
:10FEF8004D220D0A0041542B53434C415353303D7E
:10FF0800310D0A0041542B434D47443D312C340DEB
:10FF18000A0041542B4346554E3D300D0A004154CA
:10FF28002B434D47463D310D0A0041542B4346555E
:10FF38004E3D310D0A0041542B434C54533D310D75
:10FF48000A0020497465726174696F6E3A00415401
:10FF58002B434C54533F0D0A000D0A44656C6179DC
:10FF6800313A20000D0A4F4E54696D653A20002041
:10FF7800447565446174653A200041542B43434CF1
:10FF88004B3F0D0A0041542B434D47533D2200413E
:10FF9800542B4353510D0A0044656C6179323A2061
:10FFA8000044656C6179333A2000204F46467072F0
:10FFB800643A0041542B434D47523D00204F4E7048
:10FFC80072643A00415445300D0A00415426570DD9
:10FFD8000A00284D696E29200020616E64200028DF
:10FFE8004D696E2900205765743A00204472793AA9
:07FFF80000206973200000E6
:020000040001F9
:10000000000E0401F66F000EF76F000EF96F000E80
:10001000FB6F000EFA6F1E0E0001C46F300ECD652F
:1000200014EF80F016EF80F0CDEF96F03A0ECD6130
:100030001CEF80F01EEF80F0CDEF96F0000E3F6ECB
:10004000000E4B6EC980010E136E030E5DECEEF0D8
:1000500052EF80F0BB0E1B6EFF0E1C6E6CECEBF0D3
:10006000CD0E1B6E000E1C6E010E1D6E61ECECF0D1
:10007000FA0E1B6EFE0E1C6E6CECEBF0010E146E95
:10008000F40E136E6CECE7F03F50D8A44AEF80F00A
:100090004CEF80F052EF80F0130E146E880E136E4A
:1000A0006CECE7F03F50D8B458EF80F05AEF80F096
:1000B0002AEF80F0000E136E0F0E5DECEEF00E01D5
:1000C0003885150E136E070E146ED80E156E010EC0
:1000D000166E000E186E030E176E24ECE3F013502C
:1000E0001410D8A476EF80F078EF80F0C4EF96F08B
:1000F000CD0E136E000E146E180E156E070E166ED2
:10010000000E186E0A0E176EF4ECE7F079ECEDF0C5
:10011000000E136E080E146E3F0E156E070E166E4F
:1001200091ECE6F046ECEDF0000E136E080E146E46
:1001300020ECEBF00009D8B4A0EF80F0A2EF80F043
:10014000A8EF80F091ECEDF083ECCAF0B5EF80F011
:10015000000E136E050E5DECEEF0070E146ED00E61
:10016000136E6CECE7F0D6EF96F0E10E136E000E16
:10017000146ECD0E156E000E166E000E186E0A0E61
:10018000176E24ECE3F013501410D8A4CAEF80F0DB
:10019000CCEF80F084EF95F0CD0E136E000E146E50
:1001A000E40E156E010E166E000E186E0A0E176E16
:1001B000F4ECE7F0000E136E060E146ED30E156EFF
:1001C000010E166E000E186E040E176E24ECE3F08E
:1001D00013501410D8A4EFEF80F0F1EF80F001EF8E
:1001E00081F0000E4B6E3D0E2B6EFE0E2C6EE10E5E
:1001F0002D6E000E2E6E000E2F6ED7EC96F0D6EF01
:1002000096F0000E136E060E146EFB0E156E000EA9
:10021000166E000E186E020E176E24ECE3F01350EB
:100220001410D8A416EF81F018EF81F05FEF81F081
:10023000030E136E060E146EF60E156E010E166E7C
:10024000000E186E060E176E24ECE3F01350141017
:10025000D8A42DEF81F02FEF81F04FEF81F0F60E53
:10026000136E010E146E0A0E156E060E166E000E3B
:10027000186E060E176EF4ECE7F027ECE9F0000EAE
:100280004B6E800E2B6EFC0E2C6EE10E2D6E000E52
:100290002E6E000E2F6ED7EC96F0D6EF96F0000E75
:1002A0004B6ED30E2B6EFD0E2C6EE10E2D6E000EDE
:1002B0002E6E000E2F6ED7EC96F0D6EF96F0000E55
:1002C000136E060E146EE00E156E010E166E000E05
:1002D000186E030E176E24ECE3F013501410D8A41C
:1002E00074EF81F076EF81F00AEF86F0000E0401E2
:1002F000FB6F000EFA6F030E93ECCCF00201FA6F65
:10030000FA290401F96F000E496EF0EF81F04950AF
:100310002D0DED0EF324D96E090EF420DA6E0401D2
:10032000F951DE18D8A497EF81F099EF81F0EFEF43
:1003300081F049502D0DF20EF324D96E090EF420F0
:10034000DA6E000EDF6E49502D0DED0EF324D96EDE
:10035000090EF420DA6E000EDF6E4950020DC80E51
:10036000F324F66EF30EF420F76EF86A000EF8220E
:100370000900F5CF1BF00A00F5CF1CF049502D0DF8
:10038000C80EF3241D6E090EF4201E6E7FECECF0F7
:10039000000E146E640E136E6CECE7F04950020D03
:1003A000C80EF324F66EF30EF420F76EF86A000E12
:1003B000F8220900F5CF1BF00A00F5CF1CF04950D8
:1003C0002D0DC80EF3241D6E090EF4201E6E9CEC3C
:1003D000ECF0000E146E640E136E6CECE7F0492A1C
:1003E0000B0E4964F6EF81F0F8EF81F087EF81F0B2
:1003F000000E496E130E496400EF82F002EF82F0A6
:1004000004EF82F00FEF82F0CD0E4924D96EDA6A44
:10041000000EDA22FF0EDF6E492AFAEF81F0000E9D
:100420000401F86F050E4B6E000E4B24D96EDA6A8C
:10043000060EDA22200EDE18D8A421EF82F023EF78
:1004400082F051EF82F0F82B070EF819D8A42BEFA9
:1004500082F02DEF82F051EF82F0000E496E42EFF4
:1004600082F04B2893ECCCF00201FA6FCD0E4924B8
:10047000D96EDA6A000EDA22FAC2DFFF4B50020FA1
:100480004B6E492A010E4B24D96EDA6A060EDA2227
:10049000200EDE18D8A44FEF82F051EF82F031EF3A
:1004A00082F04B2A060E0401F86559EF82F05BEFEB
:1004B00082F014EF82F0000E496EC1EF85F0010E5C
:1004C0000401F86F060E4B6E000E4B24D96EDA6AEB
:1004D000060EDA22DF50C1ECEDF00009D8B473EF5C
:1004E00082F075EF82F050EF84F0070E0401F819E6
:1004F000D8B47DEF82F07FEF82F085EF84F0010EBB
:100500004B24D96EDA6A060EDA22200EDE18D8A441
:100510008CEF82F08EEF82F0A0EF82F0000E4B2481
:10052000D96EDA6A060EDA22DF50D00F4A6E4A50D0
:100530000401FA25FA6F000EFB21FB6F85EF84F0B2
:10054000000E4B24D96EDA6A060EDA22DF50D00F85
:100550004A6E4A500A0DF3CF4AF0FAC413F0FBC4B6
:1005600014F0000E166E0A0E156EEBECEDF013C0D3
:10057000FAF414C0FBF497EF82F0CD0E4924D96E43
:10058000DA6A000EDA22DF50FA6FFA512D0DCC0E26
:10059000F324D96E090EF420DA6EFAC4DEFFFBC430
:1005A000DDFF000E0401FB6F000EFA6F83EF84F095
:1005B000CD0E4924D96EDA6A000EDA22DF50FA6FC6
:1005C000FA512D0DE60EF324D96E090EF420DA6EE1
:1005D000FAC4DFFFD1EF82F0CD0E4924D96EDA6A7A
:1005E000000EDA22DF50FA6FFA512D0DE70EF324D8
:1005F000D96E090EF420DA6EFAC4DFFFD1EF82F073
:10060000CD0E4924D96EDA6A000EDA22DF50FA6F75
:10061000FA512D0DE80EF324D96E090EF420DA6E8E
:10062000FAC4DFFFD1EF82F0CD0E4924D96EDA6A29
:10063000000EDA22DF50FA6FFA512D0DC80EF324A6
:10064000D96E090EF420DA6EFAC4DEFFFBC4DDFFBA
:10065000D1EF82F0CD0E4924D96EDA6A000EDA228B
:10066000DF50FA6FFA512D0DCA0EF324D96E090E20
:10067000F420DA6EFAC4DEFFFBC4DDFFD1EF82F0B6
:10068000CD0E4924D96EDA6A000EDA22DF50FA6FF5
:10069000FA512D0DED0EF324D96E090EF420DA6E09
:1006A000F9C4DFFFD1EF82F0CD0E4924D96EDA6AAA
:1006B000000EDA22DF50FA6FFA512D0DEF0EF324FF
:1006C000D96E090EF420DA6EFAC4DFFFCD0E49248C
:1006D000D96EDA6A000EDA22DF50FA6FFA512D0D68
:1006E000F00EF324D96E090EF420DA6EFAC4DFFF9F
:1006F000D1EF82F00401FA51CAECC3F0000E0401FC
:10070000FB6F000EFA6FCD0E4924D96EDA6A000E27
:10071000DA22DF500201FA6FFA512D0DE90EF324AF
:10072000D96E090EF420DA6E3CC0DFFFCD0E4924ED
:10073000D96EDA6A000EDA22DF50FA6FFA512D0D07
:10074000EA0EF324D96E090EF420DA6E40C0DFFF02
:10075000CD0E4924D96EDA6A000EDA22DF50FA6F24
:10076000FA512D0DEB0EF324D96E090EF420DA6E3A
:1007700041C0DFFFCD0E4924D96EDA6A000EDA22BD
:10078000DF50FA6FFA512D0DF10EF324D96E090ED8
:10079000F420DA6E000EDF6ECD0E4924D96EDA6ACF
:1007A000000EDA22DF50FA6FFA512D0DF20EF3240B
:1007B000D96E090EF420DA6E010EDF6ECD0E4924DB
:1007C000D96EDA6A000EDA22DF50FA6FFA512D0D77
:1007D000CE0EF324D96E090EF420DA6E000EDE6E12
:1007E000000EDD6ECD0E4924D96EDA6A000EDA22D3
:1007F000DF50FA6FFA512D0DD00EF324D96E090E89
:10080000F420DA6E000EDE6E000EDD6ECD0E492491
:10081000D96EDA6A000EDA22DF50FA6FFA512D0D26
:10082000EC0EF324D96E090EF420DA6E000EDF6EA2
:10083000CD0E4924D96EDA6A000EDA22DF50FA6F43
:10084000FA512D0DF30EF324D96E090EF420DA6E51
:10085000000EDF6ECD0E4924D96EDA6A000EDA2260
:10086000DF50FA6FFA512D0DEE0EF324D96E090EFA
:10087000F420DA6E000EDF6ECD0E4924D96EDA6AEE
:10088000000EDA22DF50FA6FFA512D0DF40EF32428
:10089000D96E090EF420DA6E000EDF6E83EF84F05D
:1008A0000401F8510201FA6FFB6BFB51000AD8B446
:1008B0005CEF84F083EF84F0FA51010AD8B4BDEF05
:1008C00082F0030AD8B4D8EF82F0010AD8B4ECEF72
:1008D00082F0070AD8B400EF83F0010AD8B414EF0D
:1008E00083F0030AD8B42AEF83F0010AD8B440EFAA
:1008F00083F00F0AD8B454EF83F0010AD8B47AEF2A
:1009000083F083EF84F00401F82B4B2A090EF8657D
:100910008CEF84F08EEF84F064EF82F0000E146EA2
:10092000640E136E6CECE7F0CD0E4924D96EDA6AD2
:10093000000EDA22DF500201FA6FFA51020DC80EE2
:10094000F324F66EF30EF420F76EF86A000EF82228
:100950000900F5CF1BF00A00F5CF1CF0CD0E49249D
:10096000D96EDA6A000EDA22DF50FB6FFB512D0DD3
:10097000C80EF3241D6E090EF4201E6EB5ECD5F0E2
:10098000000E146E640E136E6CECE7F0CD0E49246D
:10099000D96EDA6A000EDA22DF500201FA6FFA51DC
:1009A000020DC80EF324F66EF30EF420F76EF86A0B
:1009B000000EF8220900F5CF1BF00A00F5CF1CF05D
:1009C000CD0E4924D96EDA6A000EDA22DF50FB6FB1
:1009D000FB512D0DC80EF3241D6E090EF4201E6E62
:1009E00023ECE7F0000E146E640E136E6CECE7F06F
:1009F000CD0E4924D96EDA6A000EDA22DF500201E8
:100A0000FA6FFA51020DC80EF324F66EF30EF420BD
:100A1000F76EF86A000EF8220900F5CF1BF00A0005
:100A2000F5CF1CF0CD0E4924D96EDA6A000EDA2219
:100A3000DF50FB6FFB512D0DC80EF3241D6E090E08
:100A4000F4201E6EF3ECECF0000E146E640E136EC8
:100A50006CECE7F0CD0E4924D96EDA6A000EDA228A
:100A6000DF500201FA6FFA51020DC80EF324F66E40
:100A7000F30EF420F76EF86A000EF8220900F5CFA5
:100A80001BF00A00F5CF1CF0CD0E4924D96EDA6AAE
:100A9000000EDA22DF50FB6FFB512D0DC80EF32440
:100AA0001D6E090EF4201E6ED6ECECF0000E146ED6
:100AB000640E136E6CECE7F0CD0E4924D96EDA6A41
:100AC000000EDA22DF500201FA6FFA51020DC80E51
:100AD000F324F66EF30EF420F76EF86A000EF82297
:100AE0000900F5CF1BF00A00F5CF1CF0CD0E49240C
:100AF000D96EDA6A000EDA22DF50FB6FFB512D0D42
:100B0000C80EF3241D6E090EF4201E6E9CECECF052
:100B1000000E146E640E136E6CECE7F0CD0E4924DB
:100B2000D96EDA6A000EDA22DF500201FA6FFA514A
:100B3000020DC80EF324F66EF30EF420F76EF86A79
:100B4000000EF8220900F5CF1BF00A00F5CF1CF0CB
:100B5000CD0E4924D96EDA6A000EDA22DF50FB6F1F
:100B6000FB512D0DC80EF3241D6E090EF4201E6ED0
:100B700015ECC1F0000E146E640E136E6CECE7F011
:100B8000492ACD0E4924D96EDA6A000EDA22DE280F
:100B9000D8A4CDEF85F0CFEF85F05FEF82F00A0E9D
:100BA0000401F961D6EF85F0D8EF85F0E2EF85F02A
:100BB000300E0001CD6F0401F951300F0001CE6FEE
:100BC000FAEF85F0090EF965E8EF85F0EAEF85F0B8
:100BD000FAEF85F00D0EF961F0EF85F0F2EF85F098
:100BE000FAEF85F0310E0001CD6F0401F951260FA7
:100BF0000001CE6F000E4B6ED40E2B6EFB0E2C6ED2
:100C0000E10E2D6E000E2E6E020E2F6ED7EC96F0BA
:100C1000D6EF96F0000E136E060E146ECE0E156E05
:100C2000010E166E000E186E040E176E24ECE3F023
:100C300013501410D8A41FEF86F021EF86F0FDEFBB
:100C400087F04A68000E0001AD6F040E93ECCCF003
:100C50000201FA6FFA290401F96F000E496E78EF6C
:100C600086F049502D0DED0EF324D96E090EF420B7
:100C7000DA6EF951DE18D8A440EF86F042EF86F024
:100C800077EF86F049502D0DF20EF324D96E090E40
:100C9000F420DA6EDE04D8A450EF86F052EF86F02E
:100CA00077EF86F049C04AF049502D0DF10EF3243C
:100CB000D96E090EF420DA6EDE04D8A462EF86F055
:100CC00064EF86F080EF86F0010E0001AD6F4950B1
:100CD0002D0DED0EF324D96E090EF420DA6EDF50DF
:100CE0000201FA6FFA290001F26F80EF86F0492ABB
:100CF0000B0E49647EEF86F080EF86F031EF86F0D0
:100D00004A28D8A486EF86F088EF86F0C3EF86F0F5
:100D10000A0E0401F9618FEF86F091EF86F09BEFE8
:100D200086F0300E0001CD6F0401F951300F000143
:100D3000CE6FB3EF86F0090EF965A1EF86F0A3EF51
:100D400086F0B3EF86F00D0EF961A9EF86F0ABEFF8
:100D500086F0B3EF86F0310E0001CD6F0401F9513A
:100D6000260F0001CE6F000E4B6E870E2B6EFB0E12
:100D70002C6EE10E2D6E000E2E6E020E2F6ED7EC35
:100D800096F0D6EF96F0000E496EBAEF87F0495014
:100D90002D0DED0EF324D96E090EF420DA6E040148
:100DA000F951DE18D8A4D7EF86F0D9EF86F0B9EF65
:100DB00087F049502D0DF20EF324D96E090EF42060
:100DC000DA6E000EDF6E49502D0DED0EF324D96E54
:100DD000090EF420DA6E000EDF6E4950020DC80EC7
:100DE000F324F66EF30EF420F76EF86A000EF82284
:100DF0000900F5CF1BF00A00F5CF1CF049502D0D6E
:100E0000C80EF3241D6E090EF4201E6E7FECECF06C
:100E1000000E146E640E136E6CECE7F04950020D78
:100E2000C80EF324F66EF30EF420F76EF86A000E87
:100E3000F8220900F5CF1BF00A00F5CF1CF049504D
:100E40002D0DC80EF3241D6E090EF4201E6E9CECB1
:100E5000ECF0000E146E640E136E6CECE7F049506B
:100E60002D0DF30EF324D96E090EF420DA6EDE0494
:100E7000D8A43DEF87F03FEF87F06AEF87F0495045
:100E80002D0DF30EF324D96E090EF420DA6E000E48
:100E9000DF6E4950020DC80EF324F66EF30EF420F7
:100EA000F76EF86A000EF8220900F5CF1BF00A0071
:100EB000F5CF1CF049502D0DC80EF3241D6E090E00
:100EC000F4201E6E15ECC1F0000E146E640E136E4D
:100ED0006CECE7F049502D0DEF0EF324D96E090E9E
:100EE000F420DA6E49502D0DF00EF324E16E090E58
:100EF000F420E26EDE50E618D8A481EF87F083EF8D
:100F000087F08FEF87F049502D0DF00EF324D96E46
:100F1000090EF420DA6E010EDF6E98EF87F049506B
:100F20002D0DF00EF324D96E090EF420DA6EDF2AAF
:100F30004950020DC80EF324F66EF30EF420F76E3E
:100F4000F86A000EF8220900F5CF1BF00A00F5CF71
:100F50001CF049502D0DC80EF3241D6E090EF4200F
:100F60001E6ED6ECECF0000E146E640E136E6CEC7C
:100F7000E7F0492A0B0E4964C0EF87F0C2EF87F013
:100F8000C7EF86F00A0E0401F961C9EF87F0CBEFD5
:100F900087F0D5EF87F0300E0001CD6F0401F951D5
:100FA000300F0001CE6FEDEF87F0090EF965DBEF32
:100FB00087F0DDEF87F0EDEF87F00D0EF961E3EFDD
:100FC00087F0E5EF87F0EDEF87F0310E0001CD6F90
:100FD0000401F951260F0001CE6F000E4B6EA50ED5
:100FE0002B6EFA0E2C6EE10E2D6E000E2E6E020E82
:100FF0002F6ED7EC96F0D6EF96F0000E136E060E1D
:10100000146EED0E156E020E166E000E186E060EA4
:10101000176E24ECE3F013501410D8A412EF88F0EC
:1010200014EF88F0B5EF8CF0000E0401FB6F000E9A
:10103000FA6F000EF86F060E93ECCCF00201FA6F17
:10104000FA290401F96F000E496E73EF8CF04950D4
:101050002D0DED0EF324D96E090EF420DA6EF95140
:10106000DE18D8A436EF88F038EF88F072EF8CF0F5
:1010700049502D0DF20EF324D96E090EF420DA6ECC
:10108000DE04D8A446EF88F048EF88F072EF8CF0C9
:10109000090E4B6E0E0E0401F86551EF88F053EF08
:1010A00088F055EF88F072EF8CF0000E4B24D96E6B
:1010B000DA6A060EDA22DF50C1ECEDF00009D8B48E
:1010C00064EF88F066EF88F0A4EF88F0010E4B24FF
:1010D000D96EDA6A060EDA22200EDE18D8A473EF73
:1010E00088F075EF88F087EF88F0000E4B24D96EFA
:1010F000DA6A060EDA22DF50D00F4A6E4A50040137
:10110000FA25FA6F000EFB21FB6F6FEF8CF0000EDB
:101110004B24D96EDA6A060EDA22DF50D00F4A6EFF
:101120004A500A0DF3CF4AF0FAC413F0FBC414F08E
:10113000000E166E0A0E156EEBECEDF013C0FAF40D
:1011400014C0FBF47EEF88F00401F82B25EF8CF03F
:1011500049502D0DCE0EF324D96E090EF420DA6E0F
:10116000FAC4DEFFFBC4DDFF000E0401FB6F000EBE
:10117000FA6F6FEF8CF049502D0DD00EF324D96E1D
:10118000090EF420DA6EFAC4DEFFFBC4DDFFB4EF13
:1011900088F049502D0DEC0EF324D96E090EF42081
:1011A000DA6EFAC4DFFFB4EF88F049502D0DD20E8D
:1011B000F324D96E090EF420DA6EFAC4DEFFFBC404
:1011C000DDFFB4EF88F049502D0DDA0EF324D96E0F
:1011D000090EF420DA6EFAC4DEFFFBC4DDFFB4EFC3
:1011E00088F049502D0DE20EF324D96E090EF4203B
:1011F000DA6EFAC4DFFFB4EF88F049502D0DD40E3B
:10120000F324D96E090EF420DA6EFAC4DEFFFBC4B3
:10121000DDFFB4EF88F049502D0DDC0EF324D96EBC
:10122000090EF420DA6EFAC4DEFFFBC4DDFFB4EF72
:1012300088F049502D0DE30EF324D96E090EF420E9
:10124000DA6EFAC4DFFFB4EF88F049502D0DD60EE8
:10125000F324D96E090EF420DA6EFAC4DEFFFBC463
:10126000DDFFB4EF88F049502D0DDE0EF324D96E6A
:10127000090EF420DA6EFAC4DEFFFBC4DDFFB4EF22
:1012800088F049502D0DE40EF324D96E090EF42098
:10129000DA6EFAC4DFFFB4EF88F049502D0DD80E96
:1012A000F324D96E090EF420DA6EFAC4DEFFFBC413
:1012B000DDFFB4EF88F049502D0DE00EF324D96E18
:1012C000090EF420DA6EFAC4DEFFFBC4DDFFB4EFD2
:1012D00088F049502D0DE50EF324D96E090EF42047
:1012E000DA6EFAC4DFFF49502D0DEE0EF324D96EED
:1012F000090EF420DA6E000EDF6E49502D0DF40E4B
:10130000F324D96E090EF420DA6E000EDF6E000EA3
:101310000401FB6F000EFA6F49502D0DCC0EF32423
:10132000D96E090EF420DA6E49502D0DD00EF3243B
:10133000E16E090EF420E26EE6CFFCF2E5CFFDF29D
:1013400049502D0DCE0EF324E16E090EF420E26E0D
:10135000E6CFFEF2E5CFFFF20201FC51FE27FD5180
:10136000FF23DE50FE5DDE50FF59D8A0BAEF89F0B2
:10137000BCEF89F001EF8AF049502D0DF30EF324F4
:10138000D96E090EF420DA6E000EDF6E0A0E04012B
:10139000F961CDEF89F0CFEF89F0D9EF89F0300E08
:1013A0000001CD6F0401F951300F0001CE6FF1EF54
:1013B00089F0090EF965DFEF89F0E1EF89F0F1EFCF
:1013C00089F00D0EF961E7EF89F0E9EF89F0F1EFAF
:1013D00089F0310E0001CD6F0401F951260F000193
:1013E000CE6F000E4B6ED70E2B6EF90E2C6EE10EEB
:1013F0002D6E000E2E6E020E2F6ED7EC96F0D6EFED
:1014000096F049502D0DF30EF324D96E090EF420F9
:10141000DA6E010EDF6E000E146E640E136E6CEC4D
:10142000E7F04950020DC80EF324F66EF30EF420D7
:10143000F76EF86A000EF8220900F5CF1BF00A00DB
:10144000F5CF1CF049502D0DC80EF3241D6E090E6A
:10145000F4201E6E15ECC1F0000E146E640E136EB7
:101460006CECE7F049C04AF0000E496EE2EF8BF0F9
:101470004A504918D8B43FEF8AF041EF8AF0E1EFC3
:101480008BF049502D0DF20EF324D96E090EF42085
:10149000DA6EDF50D8B44FEF8AF051EF8AF0E1EF07
:1014A0008BF04A502D0DED0EF324D96E090EF42069
:1014B000DA6E49502D0DED0EF324E16E090EF42085
:1014C000E26EDE50E618D8A468EF8AF06AEF8AF080
:1014D000E1EF8BF049502D0DF30EF324D96E090E78
:1014E000F420DA6E010EDF6E4A502D0DCE0EF3247D
:1014F000D96E090EF420DA6E49502D0DCE0EF3246C
:10150000E16E090EF420E26EDECFE6FFDDCFE5FFEF
:101510004A502D0DD00EF324D96E090EF420DA6E48
:1015200049502D0DD00EF324E16E090EF420E26E29
:10153000DECFE6FFDDCFE5FF4A502D0DEC0EF324A4
:10154000D96E090EF420DA6E49502D0DEC0EF324FD
:10155000E16E090EF420E26EDFCFE7FF4A502D0D59
:10156000D20EF324D96E090EF420DA6E49502D0DF7
:10157000D20EF324E16E090EF420E26EDECFE6FF18
:10158000DDCFE5FF4A502D0DDA0EF324D96E090E9A
:10159000F420DA6E49502D0DDA0EF324E16E090EB7
:1015A000F420E26EDECFE6FFDDCFE5FF4A502D0DE1
:1015B000E20EF324D96E090EF420DA6E49502D0D97
:1015C000E20EF324E16E090EF420E26EDFCFE7FFB6
:1015D0004A502D0DD40EF324D96E090EF420DA6E84
:1015E00049502D0DD40EF324E16E090EF420E26E65
:1015F000DECFE6FFDDCFE5FF4A502D0DDC0EF324F4
:10160000D96E090EF420DA6E49502D0DDC0EF3244C
:10161000E16E090EF420E26EDECFE6FFDDCFE5FFDE
:101620004A502D0DE30EF324D96E090EF420DA6E24
:1016300049502D0DE30EF324E16E090EF420E26E05
:10164000DFCFE7FF4A502D0DD60EF324D96E090ED9
:10165000F420DA6E49502D0DD60EF324E16E090EFA
:10166000F420E26EDECFE6FFDDCFE5FF4A502D0D20
:10167000DE0EF324D96E090EF420DA6E49502D0DDA
:10168000DE0EF324E16E090EF420E26EDECFE6FFFB
:10169000DDCFE5FF4A502D0DE40EF324D96E090E7F
:1016A000F420DA6E49502D0DE40EF324E16E090E9C
:1016B000F420E26EDFCFE7FF4A502D0DD80EF32461
:1016C000D96E090EF420DA6E49502D0DD80EF32490
:1016D000E16E090EF420E26EDECFE6FFDDCFE5FF1E
:1016E0004A502D0DE00EF324D96E090EF420DA6E67
:1016F00049502D0DE00EF324E16E090EF420E26E48
:10170000DECFE6FFDDCFE5FF4A502D0DE50EF324D9
:10171000D96E090EF420DA6E49502D0DE50EF32432
:10172000E16E090EF420E26EDFCFE7FF4A502D0D87
:10173000EE0EF324D96E090EF420DA6E49502D0D09
:10174000EE0EF324E16E090EF420E26EDFCFE7FF28
:101750004A502D0DF40EF324D96E090EF420DA6EE2
:1017600049502D0DF40EF324E16E090EF420E26EC3
:10177000DFCFE7FF000E146E640E136E6CECE7F023
:101780004950020DC80EF324F66EF30EF420F76EE6
:10179000F86A000EF8220900F5CF1BF00A00F5CF19
:1017A0001CF049502D0DC80EF3241D6E090EF420B7
:1017B0001E6E15ECC1F0000E146E640E136E6CEC10
:1017C000E7F0492A0B0E4964E8EF8BF0EAEF8BF063
:1017D00038EF8AF00A0E0401F961F1EF8BF0F3EFB4
:1017E0008BF0FDEF8BF0300E0001CD6F0401F9514D
:1017F000300F0001CE6F15EF8CF0090EF96503EF85
:101800008CF005EF8CF015EF8CF00D0EF9610BEFFD
:101810008CF00DEF8CF015EF8CF0310E0001CD6FD8
:101820000401F951260F0001CE6F000E4B6E3E0EE3
:101830002B6EFC0E2C6EE10E2D6E000E2E6E020E27
:101840002F6ED7EC96F0D6EF96F0F8510201FA6FB2
:10185000FB6BFB51000AD8B430EF8CF06FEF8CF0CB
:10186000FA51010AD8B4A8EF88F0030AD8B4BBEF44
:1018700088F0010AD8B4C9EF88F0070AD8B4D5EFC8
:1018800088F0010AD8B4E3EF88F0030AD8B4F1EF86
:1018900088F0010AD8B4FDEF88F00F0AD8B40BEF36
:1018A00089F0010AD8B419EF89F0030AD8B425EFFA
:1018B00089F0010AD8B433EF89F0070AD8B441EFB0
:1018C00089F0010AD8B44DEF89F0030AD8B45BEF70
:1018D00089F0010AD8B469EF89F06FEF8CF04B2AD8
:1018E0004AEF88F0492A0B0E496479EF8CF07BEFC0
:1018F0008CF027EF88F00A0EF96181EF8CF083EF0E
:101900008CF08DEF8CF0300E0001CD6F0401F95199
:10191000300F0001CE6FA5EF8CF0090EF96593EF43
:101920008CF095EF8CF0A5EF8CF00D0EF9619BEF2C
:101930008CF09DEF8CF0A5EF8CF0310E0001CD6F97
:101940000401F951260F0001CE6F000E4B6EC40E3C
:101950002B6EF70E2C6EE10E2D6E000E2E6E020E0B
:101960002F6ED7EC96F0D6EF96F0000E136E060EA3
:10197000146ED70E156E020E166E000E186E070E40
:10198000176E24ECE3F013501410D8A4CAEF8CF0B7
:10199000CCEF8CF0F8EF8DF04A68000E0001AD6FCF
:1019A000070E93ECCCF00201FA6FFA290401F96FEB
:1019B000000E496E46EF8DF049502D0DED0EF324CB
:1019C000D96E090EF420DA6EF951DE18D8A4EBEFC7
:1019D0008CF0EDEF8CF045EF8DF049502D0DF20EAF
:1019E000F324D96E090EF420DA6EDE04D8A4FBEFDE
:1019F0008CF0FDEF8CF045EF8DF049502D0DF30E7E
:101A0000F324D96E090EF420DA6EDE04D8A40BEFAD
:101A10008DF00DEF8DF045EF8DF049C04AF0495043
:101A20002D0DF10EF324D96E090EF420DA6EDE04CA
:101A3000D8A41DEF8DF01FEF8DF04EEF8DF04950C3
:101A40002D0DEE0EF324D96E090EF420DA6EDE04AD
:101A5000D8B42DEF8DF02FEF8DF040EF8DF0495081
:101A60002D0DEE0EF324D96E090EF420DA6E020E5F
:101A7000DE18D8A43EEF8DF040EF8DF04EEF8DF0E4
:101A8000010E0001AD6F4EEF8DF0492A0B0E496437
:101A90004CEF8DF04EEF8DF0DCEF8CF04A28D8A49F
:101AA00054EF8DF056EF8DF073EF8DF00A0E0401B8
:101AB000F9615DEF8DF05FEF8DF061EF8DF091EFEB
:101AC00086F0090EF96567EF8DF069EF8DF0B3EFE1
:101AD00086F00D0EF9616FEF8DF071EF8DF0B3EFC1
:101AE00086F0ABEF86F0000E496EB5EF8DF04950F1
:101AF0002D0DED0EF324D96E090EF420DA6E0401DB
:101B0000F951DE18D8A487EF8DF089EF8DF0B4EF8E
:101B10008DF049502D0DF30EF324D96E090EF420EB
:101B2000DA6E000EDF6E4950020DC80EF324F66E19
:101B3000F30EF420F76EF86A000EF8220900F5CFD4
:101B40001BF00A00F5CF1CF049502D0DC80EF324F0
:101B50001D6E090EF4201E6E15ECC1F0000E146E01
:101B6000640E136E6CECE7F0492A0B0E4964BBEF70
:101B70008DF0BDEF8DF077EF8DF00A0E0401F96165
:101B8000C4EF8DF0C6EF8DF0D0EF8DF0300E000178
:101B9000CD6F0401F951300F0001CE6FE8EF8DF0E9
:101BA000090EF965D6EF8DF0D8EF8DF0E8EF8DF0E6
:101BB0000D0EF961DEEF8DF0E0EF8DF0E8EF8DF0C6
:101BC000310E0001CD6F0401F951260F0001CE6FD7
:101BD000000E4B6E1B0E2B6EFC0E2C6EE10E2D6E4E
:101BE000000E2E6E020E2F6ED7EC96F0D6EF96F00A
:101BF000000E136E060E146EE60E156E020E166EB5
:101C0000000E186E060E176E24ECE3F0135014103D
:101C1000D8A40DEF8EF00FEF8EF0D8EF8EF0000EFF
:101C20000401FB6F000EFA6F000EF86F060E4B6E8C
:101C3000000E4B24D96EDA6A060EDA22DF50C1ECB0
:101C4000EDF00009D8B427EF8EF029EF8EF067EFA2
:101C50008EF0010E4B24D96EDA6A060EDA22200EBF
:101C6000DE18D8A436EF8EF038EF8EF04AEF8EF003
:101C7000000E4B24D96EDA6A060EDA22DF50D00F3E
:101C80004A6E4A500401FA25FA6F000EFB21FB6FE1
:101C9000B0EF8EF0000E4B24D96EDA6A060EDA220F
:101CA000DF50D00F4A6E4A500A0DF3CF4AF0FAC403
:101CB00013F0FBC414F0000E166E0A0E156EEBEC5A
:101CC000EDF013C0FAF414C0FBF441EF8EF0040100
:101CD000F82B8EEF8EF0FAC4BCF0000E0401FB6FFF
:101CE000000EFA6FB0EF8EF0FAC4BBF06DEF8EF01D
:101CF000FAC4BAF06DEF8EF0FAC4B9F06DEF8EF061
:101D0000FAC49EF000019F6B000E0401FB6F000EF1
:101D1000FA6F010E0001A66FB0EF8EF0F8510201CC
:101D2000FA6FFB6BFB51000AD8B499EF8EF0B0EF5D
:101D30008EF0FA51010AD8B46BEF8EF0030AD8B4D2
:101D400074EF8EF0010AD8B478EF8EF0070AD8B499
:101D50007CEF8EF0010AD8B480EF8EF0B0EF8EF0F9
:101D60004B2A040E0401F865B8EF8EF0BAEF8EF03E
:101D700018EF8EF0000E146E640E136E6CECE7F02C
:101D80004EECDAF0000E146E640E136E6CECE7F09D
:101D9000000E4B6E6D0E2B6EFD0E2C6EE10E2D6E39
:101DA000000E2E6E000E2F6ED7EC96F0D6EF96F04A
:101DB000000E136E060E146ECF0E156E020E166E0A
:101DC000000E186E070E176E24ECE3F0135014107B
:101DD000D8A4EDEF8EF0EFEF8EF010EF8FF0000E45
:101DE0000001A66F000E146E640E136E6CECE7F02B
:101DF0004EECDAF0000E146E640E136E6CECE7F02D
:101E0000000E4B6E1A0E2B6EFD0E2C6EE10E2D6E1B
:101E1000000E2E6E000E2F6ED7EC96F0D6EF96F0D9
:101E2000000E136E060E146EBE0E156E010E166EAB
:101E3000000E186E050E176E24ECE3F0135014100C
:101E4000D8A425EF8FF027EF8FF050EF8FF000012F
:101E5000A651D8B42EEF8FF030EF8FF040EF8FF017
:101E6000000E4B6E520E2B6EFD0E2C6EE10E2D6E83
:101E7000000E2E6E080E2F6ED7EC96F0D6EF96F071
:101E8000000E4B6E600E2B6EFC0E2C6EE10E2D6E56
:101E9000000E2E6E000E2F6ED7EC96F0D6EF96F059
:101EA000000E136E060E146EC40E156E010E166E25
:101EB000000E186E040E176E24ECE3F0135014108D
:101EC000D8A465EF8FF067EF8FF028EF90F0000E49
:101ED0000401FB6F000EFA6F000EF86F050E4B6EDB
:101EE000000E4B24D96EDA6A060EDA22DF50C1ECFE
:101EF000EDF00009D8B47FEF8FF081EF8FF0F2EFB3
:101F00008FF0000E4B24D96EDA6A060EDA22DF500B
:101F1000D00F4A6E4AC0FAF40401FB6BFAC413F006
:101F2000FBC414F0000E166E0A0E156EEBECEDF00D
:101F300013C0FAF414C0FBF4010E4B24D96EDA6A14
:101F4000060EDA22DF50D00F4A6E4A500401FA25FD
:101F5000FA6F000EFB21FB6FF82BCCEF8FF0FAC469
:101F600044F0000E0401FB6F000EFA6F02EF90F0D8
:101F7000FAC445F0B1EF8FF0FAC446F0B1EF8FF03C
:101F8000FAC443F0B1EF8FF0FAC442F0B1EF8FF032
:101F9000FAC4BDF0B1EF8FF0F8510201FA6FFB6B9C
:101FA000FB51000AD8B4D7EF8FF002EF90F0FA514E
:101FB000010AD8B4AFEF8FF0030AD8B4B8EF8FF0AE
:101FC000010AD8B4BCEF8FF0070AD8B4C0EF8FF085
:101FD000010AD8B4C4EF8FF0030AD8B4C8EF8FF069
:101FE00002EF90F0000E4B6E370E2B6EFD0E2C6E36
:101FF000E10E2D6E000E2E6E000E2F6ED7EC96F0B9
:10200000D6EF96F0030E4B26050E0401F8650BEF94
:1020100090F00DEF90F070EF8FF0060EF819D8A445
:1020200014EF90F016EF90F018EF90F046ECE6F019
:10203000000E4B6E5E0E2B6EFB0E2C6EE10E2D6EA7
:10204000000E2E6E000E2F6ED7EC96F0D6EF96F0A7
:10205000000E136E060E146EC90E156E010E166E6E
:10206000000E186E040E176E24ECE3F013501410DB
:10207000D8A43DEF90F03FEF90F0F7EF90F0AAEC8E
:10208000E4F044C013F0146A000E166E0A0E156ECA
:10209000F0ECE3F01350300F0001CD6F44C025F099
:1020A000266A000E286E0A0E276E52ECE4F02550C8
:1020B000300F0001CE6F2F0ECF6F45C013F0146AA2
:1020C000000E166E0A0E156EF0ECE3F01350300F92
:1020D0000001D06F45C025F0266A000E286E0A0E5A
:1020E000276E52ECE4F02550300F0001D16F2F0E17
:1020F000D26F46C013F0146A000E166E0A0E156EEB
:10210000F0ECE3F01350300F0001D36F46C025F020
:10211000266A000E286E0A0E276E52ECE4F0255057
:10212000300F0001D46F200ED56F43C013F0146A36
:10213000000E166E0A0E156EF0ECE3F01350300F21
:102140000001D66F43C025F0266A000E286E0A0EE5
:10215000276E52ECE4F02550300F0001D76F3A0E95
:10216000D86F42C013F0146A000E166E0A0E156E78
:10217000F0ECE3F01350300F0001D96F42C025F0AE
:10218000266A000E286E0A0E276E52ECE4F02550E7
:10219000300F0001DA6F3A0EDB6FBDC013F0146A26
:1021A000000E166E0A0E156EF0ECE3F01350300FB1
:1021B0000001DC6FBDC025F0266A000E286E0A0EF5
:1021C000276E52ECE4F02550300F0001DD6F000E59
:1021D0004B6E6C0E2B6EFE0E2C6EE10E2D6E000EF5
:1021E0002E6E030E2F6ED7EC96F0D6EF96F0000E03
:1021F000136E060E146EC70E156E020E166E000ECE
:10220000186E070E176E24ECE3F013501410D8A4C8
:102210000CEF91F00EEF91F058EF91F0070E93EC68
:10222000CCF0496E090E496018EF91F01AEF91F069
:1022300022EF91F0300E0001CD6F4950310FCE6F7B
:1022400038EF91F0080E496428EF91F02AEF91F0F1
:1022500038EF91F00C0E496030EF91F032EF91F0D1
:1022600038EF91F0310E0001CD6F4950270FCE6F3E
:10227000000E4B6E49502D0DF20EF324D96E090E4F
:10228000F420DA6EDF50D8B448EF91F04AEF91F0C5
:10229000B5EF86F07B0E2B6EFE0E2C6EE10E2D6ED2
:1022A000000E2E6E070E2F6ED7EC96F0D6EF96F03E
:1022B000000E136E060E146EF80E156E000E166EDE
:1022C000000E186E020E176E24ECE3F0135014107B
:1022D000D8A46DEF91F06FEF91F031EF92F08EAEE8
:1022E00074EF91F076EF91F086EF91F0000E4B6E67
:1022F000740E2B6EFA0E2C6EE10E2D6E000E2E6EED
:10230000000E2F6ED7EC96F0D6EF96F0000E04017B
:10231000FB6F000EFA6F000EF86F010EF86F030EE0
:102320004B6E000E4B24D96EDA6A060EDA22DF50AD
:10233000C1ECEDF00009D8B4A0EF91F0A2EF91F05C
:10234000F1EF91F0010E4B24D96EDA6A060EDA2213
:10235000200EDE18D8A4AFEF91F0B1EF91F0C3EFEB
:1023600091F0000E4B24D96EDA6A060EDA22DF50A5
:10237000D00F4A6E4A500401FA25FA6F000EFB2175
:10238000FB6F0AEF92F0000E4B24D96EDA6A060E4C
:10239000DA22DF50D00F4A6E4A500A0DF3CF4AF0CE
:1023A000FAC413F0FBC414F0000E166E0A0E156E7C
:1023B000EBECEDF013C0FAF414C0FBF4BAEF91F0BB
:1023C000FAC478F0FBC479F0000E0401FB6F000E34
:1023D000FA6F08EF92F0FAC4F0F0FBC4F1F0E4EF0A
:1023E00091F00401F8510201FA6FFB6BFB51000AF6
:1023F000D8B4FDEF91F008EF92F0FA51010AD8B489
:10240000E0EF91F0030AD8B4EBEF91F008EF92F00F
:102410000401F82B4B2A020EF86511EF92F013EF2E
:1024200092F091EF91F0000E146E640E136E6CEC4E
:10243000E7F064ECE1F0000E146E640E136E6CECC9
:10244000E7F0000E4B6EF80E2B6EFB0E2C6EE10EBD
:102450002D6E000E2E6E000E2F6ED7EC96F0D6EF7E
:1024600096F0000E136E060E146EF40E156E020E2C
:10247000166E000E186E050E176E24ECE3F0135066
:102480001410D8A446EF92F048EF92F058EF92F073
:10249000000E4B6E040E2B6EFB0E2C6EE10E2D6E9D
:1024A000000E2E6E050E2F6ED7EC96F0D6EF96F03E
:1024B000000E136E060E146EBF0E156E020E166E13
:1024C000000E186E070E176E24ECE3F01350141074
:1024D000D8A46DEF92F06FEF92F0CBEF92F0070E71
:1024E00093ECCCF0496E000E146E640E136E6CEC1F
:1024F000E7F049507BECD3F0090E496082EF92F08F
:1025000084EF92F08CEF92F0300E0001CD6F4950C5
:10251000310FCE6FA2EF92F0080E496492EF92F065
:1025200094EF92F0A2EF92F00C0E49609AEF92F0C5
:102530009CEF92F0A2EF92F0310E0001CD6F495066
:10254000270FCE6F0001B451D8B4A9EF92F0ABEFD2
:1025500092F0BBEF92F0000EB46FAF0E2B6EFB0E3D
:102560002C6EE10E2D6E000E2E6E020E2F6ED7EC2D
:1025700096F0D6EF96F0000E4B6E330E2B6EFB0EE0
:102580002C6EE10E2D6E000E2E6E060E2F6ED7EC09
:1025900096F0D6EF96F0000E136E060E146EDC0E5B
:1025A000156E010E166E000E186E030E176E24ECDB
:1025B000E3F013501410D8A4E0EF92F0E2EF92F0A1
:1025C00036EF93F0030E93ECCCF0496E000E146ED0
:1025D000640E136E6CECE7F08EAEF1EF92F0F3EF59
:1025E00092F0F5EF92F076EF91F0090E4960FBEF73
:1025F00092F0FDEF92F005EF93F0300E0001CD6FF9
:102600004950310FCE6F1BEF93F0080E49640BEF6A
:1026100093F00DEF93F01BEF93F00C0E496013EF66
:1026200093F015EF93F01BEF93F0310E0001CD6F97
:102630004950270FCE6F130E146E880E136E6CEC7C
:10264000E7F049C020F0010E5CECC8F0030E146EF8
:10265000E80E136E6CECE7F064ECE1F0030E146E20
:10266000E80E136E6CECE7F048EF92F0000E136E7C
:10267000060E146EDF0E156E020E166E000E186E2C
:10268000060E176E24ECE3F013501410D8A44BEF91
:1026900093F04DEF93F082EF95F0000E0401FB6F85
:1026A000000EFA6F000EF86F070E4B6E000E4B24F3
:1026B000D96EDA6A060EDA22DF50C1ECEDF00009BD
:1026C000D8B465EF93F067EF93F0C2EF93F0000E8C
:1026D0004B24D96EDA6A060EDA22DF50D00F4A6E2A
:1026E0004AC0FAF40401FB6BFAC413F0FBC414F003
:1026F000000E166E0A0E156EEBECEDF013C0FAF438
:1027000014C0FBF4010E4B24D96EDA6A060EDA22ED
:10271000DF50D00F4A6E4A500401FA25FA6F000EBE
:10272000FB21FB6FF82BA8EF93F0FAC4F6F4000E30
:102730000401FB6F000EFA6FC2EF93F0FAC4F7F4D6
:1027400097EF93F00401FA51CAECC3F097EF93F0BE
:10275000F8510201FA6FFB6BFB51000AD8B4B3EFDA
:1027600093F0C2EF93F0FA51010AD8B495EF93F0C9
:10277000030AD8B49EEF93F0010AD8B4A2EF93F005
:10278000C2EF93F0030E4B26020E0401F865CBEF67
:1027900093F0CDEF93F056EF93F0000E496E6AEF91
:1027A00095F049502D0DCC0EF324D96E090EF4206E
:1027B000DA6E0F0EDE6E000EDD6E49502D0DE60E48
:1027C000F324D96E090EF420DA6E010EDF6E495043
:1027D0002D0DE70EF324D96E090EF420DA6EF6C43F
:1027E000DFFF49502D0DE80EF324D96E090EF420B9
:1027F000DA6EF7C4DFFF49502D0DE90EF324D96ED0
:10280000090EF420DA6E3CC0DFFF49502D0DEA0EB0
:10281000F324D96E090EF420DA6E40C0DFFF495070
:102820002D0DEB0EF324D96E090EF420DA6E41C0A3
:10283000DFFF49502D0DC80EF324D96E090EF42088
:10284000DA6E640EDE6E000EDD6E49502D0DCA0E7E
:10285000F324D96E090EF420DA6E300EDE6E750E9A
:10286000DD6E49502D0DED0EF324D96E090EF420C6
:10287000DA6E4928DF6E49502D0DF10EF324D96E22
:10288000090EF420DA6E000EDF6E49502D0DEF0EAA
:10289000F324D96E090EF420DA6E020EDF6E495071
:1028A0002D0DF00EF324D96E090EF420DA6E020E0F
:1028B000DF6E49502D0DF20EF324D96E090EF4206F
:1028C000DA6E010EDF6E49502D0DCE0EF324D96E57
:1028D000090EF420DA6E050EDE6E000EDD6E495034
:1028E0002D0DD00EF324D96E090EF420DA6E0F0EE2
:1028F000DE6E000EDD6E49502D0DEC0EF324D96E08
:10290000090EF420DA6E4928DF6E49502D0DEE0EC7
:10291000F324D96E090EF420DA6E000EDF6E4950F2
:102920002D0DF40EF324D96E090EF420DA6E000E8C
:10293000DF6E49502D0DF30EF324D96E090EF420ED
:10294000DA6E010EDF6E4950020DC80EF324F66EEA
:10295000F30EF420F76EF86A000EF8220900F5CFA6
:102960001BF00A00F5CF1CF049502D0DC80EF324C2
:102970001D6E090EF4201E6EB5ECD5F0000E146E1F
:10298000640E136E6CECE7F04950020DC80EF32490
:10299000F66EF30EF420F76EF86A000EF8220900C6
:1029A000F5CF1BF00A00F5CF1CF049502D0DC80ED5
:1029B000F3241D6E090EF4201E6E23ECE7F0000ECA
:1029C000146E640E136E6CECE7F04950020DC80EE5
:1029D000F324F66EF30EF420F76EF86A000EF82278
:1029E0000900F5CF1BF00A00F5CF1CF049502D0D62
:1029F000C80EF3241D6E090EF4201E6EF3ECECF0ED
:102A0000000E146E640E136E6CECE7F04950020D6C
:102A1000C80EF324F66EF30EF420F76EF86A000E7B
:102A2000F8220900F5CF1BF00A00F5CF1CF0495041
:102A30002D0DC80EF3241D6E090EF4201E6ED6EC6B
:102A4000ECF0000E146E640E136E6CECE7F049505F
:102A5000020DC80EF324F66EF30EF420F76EF86A3A
:102A6000000EF8220900F5CF1BF00A00F5CF1CF08C
:102A700049502D0DC80EF3241D6E090EF4201E6E54
:102A80009CECECF0000E146E640E136E6CECE7F030
:102A90004950020DC80EF324F66EF30EF420F76EC3
:102AA000F86A000EF8220900F5CF1BF00A00F5CFF6
:102AB0001CF049502D0DC80EF3241D6E090EF42094
:102AC0001E6E15ECC1F0000E146E640E136E6CECED
:102AD000E7F0492A0B0E496470EF95F072EF95F01C
:102AE000D1EF93F0000E4B6E2A0E2B6EFE0E2C6E65
:102AF000E10E2D6E000E2E6E000E2F6ED7EC96F0AE
:102B0000D6EF96F0D6EF96F0000E136E060E146E0A
:102B1000FB0E156E000E166E000E186E020E176E6E
:102B200024ECE3F013501410D8A499EF95F09BEF28
:102B300095F042EF96F0030E136E060E146EF60E2D
:102B4000156E010E166E000E186E060E176E24EC32
:102B5000E3F013501410D8A4B0EF95F0B2EF95F055
:102B600024EF96F00001B751D8B4B9EF95F0BBEF60
:102B700095F0C9EF95F0000E4B6E0F0E2B6EFA0E0E
:102B80002C6EE10E2D6E000E2E6E010E2F6ED7EC08
:102B900096F0F60E136E010E146E0A0E156E060EEA
:102BA000166E000E186E060E176EF4ECE7F0E10ECE
:102BB000136E000E146ECD0E156E000E166E000E06
:102BC000186E0A0E176EF4ECE7F0010E0001B76FF5
:102BD000CD0E136E000E146EE40E156E010E166E01
:102BE000000E186E0A0E176EF4ECE7F0000E146E6D
:102BF000320E136E6CECE7F027ECE9F0000E146E69
:102C0000320E136E6CECE7F05FECE9F0000E146E20
:102C1000320E136E6CECE7F0B9ECECF0000E146EB3
:102C2000320E136E6CECE7F0000E4B6EEA0E2B6E5C
:102C3000FD0E2C6EE10E2D6E000E2E6E000E2F6E10
:102C4000D7EC96F0D6EF96F0000E4B6ED30E2B6EAF
:102C5000FD0E2C6ECD0E2D6E000E2E6E000E2F6E04
:102C6000D7EC96F0CD0E136E000E146EE40E156EBA
:102C7000010E166E000E186E0A0E176EF4ECE7F0D9
:102C8000D6EF96F0000E136E060E146ED30E156E70
:102C9000010E166E000E186E040E176E24ECE3F093
:102CA00013501410D8A457EF96F059EF96F069EF2F
:102CB00096F0000E4B6E010E2B6EFE0E2C6ECD0E9E
:102CC0002D6E000E2E6E000E2F6ED7EC96F032EFAA
:102CD00096F0000E136E060E146EEA0E156E040EBC
:102CE000166E000E186E0B0E176E24ECE3F01350E8
:102CF0001410D8A47EEF96F080EF96F090EF96F047
:102D0000000E4B6E5D0E2B6EFE0E2C6ECD0E2D6EDC
:102D1000000E2E6E040E2F6ED7EC96F032EF96F06A
:102D2000000E136E060E146EDE0E156E040E166E79
:102D3000000E186E0B0E176E24ECE3F013501410F7
:102D4000D8A4A5EF96F0A7EF96F0B7EF96F0000E97
:102D50004B6E4E0E2B6EFE0E2C6ECD0E2D6E000E9B
:102D60002E6E0C0E2F6ED7EC96F032EF96F0000E12
:102D7000136E060E5DECEEF0030E146EE80E136E8D
:102D80006CECE7F0D6EF96F046ECEDF0000E136E2B
:102D9000070E5DECEEF0BCEF96F046ECEDF0000EA9
:102DA000136E080E5DECEEF0ADEF80F01200000E39
:102DB000326E1E0E0001C46F8D0E1B6EFF0E1C6E58
:102DC0006CECEBF0000E146E320E136E6CECE7F050
:102DD0002DC01BF02EC01CF00A0E1D6E61ECECF035
:102DE000000E146E320E136E6CECE7F0F90E1B6ED3
:102DF000FE0E1C6E6CECEBF0000E146E640E136E87
:102E00006CECE7F02BC01BF02CC01CF06CECEBF072
:102E1000000E146E640E136E6CECE7F078EF9FF00A
:102E2000CD0E1B6E000E1C6E0A0E1D6E61ECECF0DA
:102E3000000E146E640E136E6CECE7F0B5EF9FF0AD
:102E4000CD0E1B6E000E1C6E020E1D6E61ECECF0C2
:102E500018EF97F0CD0E1B6E000E1C6E110E1D6E3E
:102E600061ECECF018EF97F0EF0E1B6E010E1C6E8C
:102E7000060E1D6E61ECECF018EF97F078C038F09C
:102E800079C039F038C019F039C01AF0030E1C6E41
:102E9000E80E1B6EB5ECE8F01950300F0001DB6F47
:102EA000030E166EE80E156E38C013F039C014F01C
:102EB0006EECEAF013C019F014C01AF0000E1C6E8C
:102EC000640E1B6EB5ECE8F01950300F0001DC6F9A
:102ED000000E166E640E156E38C013F039C014F073
:102EE0006EECEAF013C019F014C01AF0000E1C6E5C
:102EF0000A0E1B6EB5ECE8F01950300F0001DD6FC3
:102F000038C013F039C014F0000E166E0A0E156E9C
:102F10006EECEAF01350300F0001DE6FDB0E1B6E1B
:102F2000000E1C6E040E1D6E61ECECF0000E146EB3
:102F3000320E136E6CECE7F0E10E1B6EFF0E1C6E92
:102F40006CECEBF0000E146E320E136E6CECE7F0CE
:102F5000F0C038F0F1C039F038C019F039C01AF0BB
:102F6000030E1C6EE80E1B6EB5ECE8F01950300F26
:102F70000001DB6F030E166EE80E156E38C013F0FD
:102F800039C014F06EECEAF013C019F014C01AF056
:102F9000000E1C6E640E1B6EB5ECE8F01950300F7D
:102FA0000001DC6F000E166E640E156E38C013F053
:102FB00039C014F06EECEAF013C019F014C01AF026
:102FC000000E1C6E0A0E1B6EB5ECE8F01950300FA7
:102FD0000001DD6F38C013F039C014F0000E166E1A
:102FE0000A0E156E6EECEAF01350300F0001DE6F22
:102FF000DB0E1B6E000E1C6E040E1D6E61ECECF001
:1030000018EF97F0CD0E1B6E000E1C6E020E1D6E9B
:1030100061ECECF0000E146E320E136E6CECE7F007
:10302000F90E1B6EFF0E1C6E6CECEBF0000E146EB6
:10303000320E136E6CECE7F09AC038F09BC039F09A
:1030400038C019F039C01AF0270E1C6E100E1B6E16
:10305000B5ECE8F01950300F0001DB6F270E166E4B
:10306000100E156E38C013F039C014F06EECEAF093
:1030700013C019F014C01AF0030E1C6EE80E1B6E7C
:10308000B5ECE8F01950300F0001DC6F030E166E3E
:10309000E80E156E38C013F039C014F06EECEAF08B
:1030A00013C019F014C01AF0000E1C6E640E1B6ED3
:1030B000B5ECE8F01950300F0001DD6F000E166E10
:1030C000640E156E38C013F039C014F06EECEAF0DF
:1030D00013C019F014C01AF0000E1C6E0A0E1B6EFD
:1030E000B5ECE8F01950300F0001DE6F38C013F076
:1030F00039C014F0000E166E0A0E156E6EECEAF072
:103100001350300F0001DF6FDB0E1B6E000E1C6EC4
:10311000050E1D6E61ECECF018EF97F0CD0E1B6EF6
:10312000000E1C6E020E1D6E61ECECF0000E146EB3
:103130000A0E136E6CECE7F0C40E1B6EFF0E1C6ED5
:103140006CECEBF0000E146E0A0E136E6CECE7F0F4
:1031500049502D0DCC0EF324D96E090EF420DA6EF1
:10316000DECF38F0DDCF39F038C019F039C01AF0B1
:10317000000E1C6E640E1B6EB5ECE8F01950300F9B
:103180000001CD6F000E166E640E156E38C013F080
:1031900039C014F06EECEAF013C019F014C01AF044
:1031A000000E1C6E0A0E1B6EB5ECE8F01950300FC5
:1031B0000001CE6F38C013F039C014F0000E166E47
:1031C0000A0E156E6EECEAF01350300F0001CF6F4F
:1031D000CD0E1B6E000E1C6E030E1D6E61ECECF02E
:1031E000000E146E0A0E136E6CECE7F0B20E1B6E3E
:1031F000FF0E1C6E6CECEBF0000E146E0A0E136EDC
:103200006CECE7F049502D0DE60EF324D96E090E53
:10321000F420DA6EDF50306E3050136E146A000EF8
:10322000166E0A0E156EF0ECE3F01350300F00012D
:10323000CD6F49502D0DE60EF324D96E090EF42002
:10324000DA6EDF50306E3050256E266A000E286E22
:103250000A0E276E52ECE4F02550300F0001CE6FBD
:10326000CD0E1B6E000E1C6E020E1D6E61ECECF09E
:10327000000E146E0A0E136E6CECE7F0F30E1B6E6C
:10328000FF0E1C6E6CECEBF0000E146E0A0E136E4B
:103290006CECE7F049502D0DC80EF324D96E090EE1
:1032A000F420DA6EDECF38F0DDCF39F038C019F017
:1032B00039C01AF0000E1C6E640E1B6EB5ECE8F0FF
:1032C0001950300F0001CD6F000E166E640E156E92
:1032D00038C013F039C014F06EECEAF013C019F0E6
:1032E00014C01AF0000E1C6E0A0E1B6EB5ECE8F04E
:1032F0001950300F0001CE6F38C013F039C014F0F0
:10330000000E166E0A0E156E6EECEAF01350300FBA
:103310000001CF6FCD0E1B6E000E1C6E030E1D6ED6
:1033200061ECECF0000E146E0A0E136E6CECE7F01C
:10333000ED0E1B6EFF0E1C6E6CECEBF0000E146EAF
:103340000A0E136E6CECE7F049502D0DCA0EF324F3
:10335000D96E090EF420DA6EDECF38F0DDCF39F009
:1033600038C019F039C01AF0000E1C6E640E1B6EC6
:10337000B5ECE8F01950300F0001CD6F000E166E5D
:10338000640E156E38C013F039C014F06EECEAF01C
:1033900013C019F014C01AF0000E1C6E0A0E1B6E3A
:1033A000B5ECE8F01950300F0001CE6F38C013F0C3
:1033B00039C014F0000E166E0A0E156E6EECEAF0AF
:1033C0001350300F0001CF6FCD0E1B6E000E1C6E20
:1033D000030E1D6E61ECECF0000E146E0A0E136EFF
:1033E0006CECE7F0770E1B6EFF0E1C6E6CECEBF0D6
:1033F000000E146E0A0E136E6CECE7F049502D0DA2
:10340000E90EF324D96E090EF420DA6EDF50306E27
:103410003050136E146A000E166E0A0E156EF0EC24
:10342000E3F01350300F0001CD6F49502D0DE90E20
:10343000F324D96E090EF420DA6EDF50306E30506E
:10344000256E266A000E286E0A0E276E52ECE4F0F6
:103450002550300F0001CE6FCD0E1B6E000E1C6E7E
:10346000020E1D6E61ECECF0000E146E0A0E136E6F
:103470006CECE7F049502D0DEA0EF324D96E090EDD
:10348000F420DA6EDF50306E3050136E146A000E86
:10349000166E0A0E156EF0ECE3F01350300F0001BB
:1034A000CD6F49502D0DEA0EF324D96E090EF4208C
:1034B000DA6EDF50306E3050256E266A000E286EB0
:1034C0000A0E276E52ECE4F02550300F0001CE6F4B
:1034D000CD0E1B6E000E1C6E020E1D6E61ECECF02C
:1034E000000E146E0A0E136E6CECE7F049502D0DB1
:1034F000EB0EF324D96E090EF420DA6EDF50306E35
:103500003050136E146A000E166E0A0E156EF0EC33
:10351000E3F01350300F0001CD6F49502D0DEB0E2D
:10352000F324D96E090EF420DA6EDF50306E30507D
:10353000256E266A000E286E0A0E276E52ECE4F005
:103540002550300F0001CE6FCD0E1B6E000E1C6E8D
:10355000020E1D6E61ECECF0000E146E0A0E136E7E
:103560006CECE7F049502D0DE70EF324D96E090EEF
:10357000F420DA6EDF50306E3050136E146A000E95
:10358000166E0A0E156EF0ECE3F01350300F0001CA
:10359000CD6F49502D0DE70EF324D96E090EF4209E
:1035A000DA6EDF50306E3050256E266A000E286EBF
:1035B0000A0E276E52ECE4F02550300F0001CE6F5A
:1035C000CD0E1B6E000E1C6E020E1D6E61ECECF03B
:1035D000000E146E0A0E136E6CECE7F049502D0DC0
:1035E000E80EF324D96E090EF420DA6EDF50306E47
:1035F0003050136E146A000E166E0A0E156EF0EC43
:10360000E3F01350300F0001CD6F49502D0DE80E3F
:10361000F324D96E090EF420DA6EDF50306E30508C
:10362000256E266A000E286E0A0E276E52ECE4F014
:103630002550300F0001CE6FCD0E1B6E000E1C6E9C
:10364000020E1D6E61ECECF0000E146E0A0E136E8D
:103650006CECE7F0FA0E1B6EFE0E1C6E6CECEBF0E1
:1036600049502D0DF30EF324D96E090EF420DA6EB5
:10367000DF50D8B43EEF9BF040EF9BF03EEF9CF064
:103680008A0E1B6EFE0E1C6E6CECEBF049502D0D7D
:10369000CE0EF324D96E090EF420DA6EDECF38F0A8
:1036A000DDCF39F038C019F039C01AF0000E1C6EA9
:1036B000640E1B6EB5ECE8F01950300F0001CD6FB1
:1036C000000E166E640E156E38C013F039C014F07B
:1036D0006EECEAF013C019F014C01AF0000E1C6E64
:1036E0000A0E1B6EB5ECE8F01950300F0001CE6FDA
:1036F00038C013F039C014F0000E166E0A0E156EA5
:103700006EECEAF01350300F0001CF6FCD0E1B6E40
:10371000000E1C6E030E1D6E61ECECF0000E146EBC
:103720000A0E136E6CECE7F0C40E1B6EFF0E1C6EDF
:103730006CECEBF0000E146E0A0E136E6CECE7F0FE
:1037400049502D0DD00EF324D96E090EF420DA6EF7
:10375000DECF38F0DDCF39F038C019F039C01AF0BB
:10376000000E1C6E640E1B6EB5ECE8F01950300FA5
:103770000001CD6F000E166E640E156E38C013F08A
:1037800039C014F06EECEAF013C019F014C01AF04E
:10379000000E1C6E0A0E1B6EB5ECE8F01950300FCF
:1037A0000001CE6F38C013F039C014F0000E166E51
:1037B0000A0E156E6EECEAF01350300F0001CF6F59
:1037C000CD0E1B6E000E1C6E030E1D6E61ECECF038
:1037D000000E146E0A0E136E6CECE7F04A0E1B6EB0
:1037E000FF0E1C6E6CECEBF0000E146E0A0E136EE6
:1037F0006CECE7F049502D0DEC0EF324D96E090E58
:10380000F420DA6EDF50306E3050136E146A000E02
:10381000166E0A0E156EF0ECE3F01350300F000137
:10382000CD6F49502D0DEC0EF324D96E090EF42006
:10383000DA6EDF50306E3050256E266A000E286E2C
:103840000A0E276E52ECE4F02550300F0001CE6FC7
:10385000CD0E1B6E000E1C6E020E1D6E61ECECF0A8
:10386000000E146E0A0E136E6CECE7F0FA0E1B6E6F
:10387000FE0E1C6E6CECEBF0B5EF9FF0AA0E1B6E0B
:10388000FE0E1C6E6CECEBF0000E146E0A0E136E46
:103890006CECE7F0B5EF9FF0000E146E0A0E136E9D
:1038A0006CECE7F0610E1B6EFF0E1C6E6CECEBF027
:1038B000000E146E0A0E136E6CECE7F0BCC013F031
:1038C000146A000E166E0A0E156EF0ECE3F013503B
:1038D000300F0001CD6FBCC025F0266A000E286EA7
:1038E0000A0E276E52ECE4F02550300F0001CE6F27
:1038F000CD0E1B6E000E1C6E020E1D6E61ECECF008
:10390000000E146E0A0E136E6CECE7F0DA0E1B6EEE
:10391000FF0E1C6E6CECEBF0000E146E0A0E136EB4
:103920006CECE7F0A00E1B6EFF0E1C6E6CECEBF067
:10393000000E146E0A0E136E6CECE7F0BBC013F0B1
:10394000146A000E166E0A0E156EF0ECE3F01350BA
:10395000300F0001CD6FBBC025F0266A000E286E27
:103960000A0E276E52ECE4F02550300F0001CE6FA6
:10397000CD0E1B6E000E1C6E020E1D6E61ECECF087
:10398000000E146E0A0E136E6CECE7F0DA0E1B6E6E
:10399000FF0E1C6E6CECEBF0000E146E0A0E136E34
:1039A0006CECE7F0A90E1B6EFF0E1C6E6CECEBF0DE
:1039B000000E146E0A0E136E6CECE7F0BAC013F032
:1039C000146A000E166E0A0E156EF0ECE3F013503A
:1039D000300F0001CD6FBAC025F0266A000E286EA8
:1039E0000A0E276E52ECE4F02550300F0001CE6F26
:1039F000CD0E1B6E000E1C6E020E1D6E61ECECF007
:103A0000000E146E0A0E136E6CECE7F0E70E1B6EE0
:103A1000FF0E1C6E6CECEBF0000E146E0A0E136EB3
:103A20006CECE7F06C0E1B6EFF0E1C6E6CECEBF09A
:103A3000000E146E0A0E136E6CECE7F0B9C013F0B2
:103A4000146A000E166E0A0E156EF0ECE3F01350B9
:103A5000300F0001CD6FB9C025F0266A000E286E28
:103A60000A0E276E52ECE4F02550300F0001CE6FA5
:103A7000CD0E1B6E000E1C6E020E1D6E61ECECF086
:103A8000000E146E0A0E136E6CECE7F0DA0E1B6E6D
:103A9000FF0E1C6E6CECEBF0000E146E0A0E136E33
:103AA0006CECE7F0DB0E1B6EFE0E1C6E6CECEBF0AC
:103AB000000E146E0A0E136E6CECE7F09EC038F028
:103AC0009FC039F038C019F039C01AF0000E1C6ED2
:103AD000640E1B6EB5ECE8F01950300F0001CD6F8D
:103AE000000E166E640E156E38C013F039C014F057
:103AF0006EECEAF013C019F014C01AF0000E1C6E40
:103B00000A0E1B6EB5ECE8F01950300F0001CE6FB5
:103B100038C013F039C014F0000E166E0A0E156E80
:103B20006EECEAF01350300F0001CF6FCD0E1B6E1C
:103B3000000E1C6E030E1D6E61ECECF0000E146E98
:103B40000A0E136E6CECE7F0E70E1B6EFF0E1C6E98
:103B50006CECEBF044EF9CF0000E496E3CEF9EF0F5
:103B6000000E336ECEEF9DF0600E3324D96EDA6A0C
:103B7000000EDA226C0E4924E16EE26A000EE222A7
:103B8000DE50E618D8A4C7EF9DF0C9EF9DF0CDEF49
:103B90009DF0010E326EDCEF9DF0332A600E33246F
:103BA000D96EDA6A000EDA22DE28D8A4DAEF9DF0A8
:103BB000DCEF9DF0B4EF9DF03250D8A4E2EF9DF021
:103BC000E4EF9DF039EF9EF06C0E4924D96EDA6A6D
:103BD000000EDA22090EDF60F0EF9DF0F2EF9DF0AB
:103BE00000EF9EF0300E0001CD6F6C0E4924D96EAF
:103BF000DA6A000EDA22DF50310FCE6F28EF9EF026
:103C00006C0E4924D96EDA6A000EDA22080EDF64DF
:103C10000CEF9EF00EEF9EF028EF9EF06C0E492404
:103C2000D96EDA6A000EDA220C0EDF601AEF9EF00F
:103C30001CEF9EF028EF9EF0310E0001CD6F6C0E50
:103C40004924D96EDA6A000EDA22DF50270FCE6FD0
:103C5000CD0E1B6E000E1C6E020E1D6E61ECECF0A4
:103C6000200E29ECEEF0000E146E640E136E6CEC58
:103C7000E7F0000E326E492A6C0E4924D96EDA6ADA
:103C8000000EDA22DE28D8B448EF9EF04AEF9EF00C
:103C9000B5EF9FF00B0E496450EF9EF052EF9EF08F
:103CA000B0EF9DF0B5EF9FF0000E496EE4EF9EF08F
:103CB000000E336E76EF9EF06C0E3324D96EDA6A06
:103CC000000EDA22600E4924E16EE26A000EE22262
:103CD000DE50E618D8A46FEF9EF071EF9EF075EFFE
:103CE0009EF0010E326E84EF9EF0332A6C0E332468
:103CF000D96EDA6A000EDA22DE28D8A482EF9EF0AE
:103D000084EF9EF05CEF9EF03250D8A48AEF9EF0D4
:103D10008CEF9EF0E1EF9EF0600E4924D96EDA6AD6
:103D2000000EDA22090EDF6098EF9EF09AEF9EF007
:103D3000A8EF9EF0300E0001CD6F600E4924D96EC1
:103D4000DA6A000EDA22DF50310FCE6FD0EF9EF02C
:103D5000600E4924D96EDA6A000EDA22080EDF649A
:103D6000B4EF9EF0B6EF9EF0D0EF9EF0600E4924C7
:103D7000D96EDA6A000EDA220C0EDF60C2EF9EF016
:103D8000C4EF9EF0D0EF9EF0310E0001CD6F600EBB
:103D90004924D96EDA6A000EDA22DF50270FCE6F7F
:103DA000CD0E1B6E000E1C6E020E1D6E61ECECF053
:103DB000200E29ECEEF0000E146E640E136E6CEC07
:103DC000E7F0000E326E492A600E4924D96EDA6A95
:103DD000000EDA22DE28D8B4F0EF9EF0F2EF9EF06B
:103DE000B5EF9FF00B0E4964F8EF9EF0FAEF9EF0EE
:103DF00058EF9EF0B5EF9FF0000E496E56EF9FF022
:103E00006C0E4924D96EDA6A000EDA22090EDF60E0
:103E10000CEF9FF00EEF9FF01CEF9FF0300E0001B3
:103E2000CD6F6C0E4924D96EDA6A000EDA22DF50AB
:103E3000310FCE6F44EF9FF06C0E4924D96EDA6AD1
:103E4000000EDA22080EDF6428EF9FF02AEF9FF0C1
:103E500044EF9FF06C0E4924D96EDA6A000EDA2224
:103E60000C0EDF6036EF9FF038EF9FF044EF9FF0CD
:103E7000310E0001CD6F6C0E4924D96EDA6A000E46
:103E8000DA22DF50270FCE6FCD0E1B6E000E1C6E98
:103E9000020E1D6E61ECECF0200E29ECEEF0000E2F
:103EA000146E640E136E6CECE7F0492A6C0E492414
:103EB000D96EDA6A000EDA22DE28D8B462EF9FF0FB
:103EC00064EF9FF0B5EF9FF00B0E49646AEF9FF02F
:103ED0006CEF9FF000EF9FF0B5EF9FF0F60E1B6EBA
:103EE000010E1C6E060E1D6E61ECECF018EF97F0E3
:103EF0002F50306E316A3150000AD8B482EF9FF0F3
:103F0000B5EF9FF03050010AD8B410EF97F0030AD4
:103F1000D8B420EF97F0010AD8B42AEF97F0070A37
:103F2000D8B434EF97F0010AD8B43EEF97F0030A03
:103F3000D8B402EF98F0010AD8B48EEF98F00F0AC7
:103F4000D8B44CEF9CF0010AD8B4ACEF9DF0030A52
:103F5000D8B454EF9EF0010AD8B4FCEF9EF0070AE3
:103F6000D8B46EEF9FF0B5EF9FF0000E3F6E000EDD
:103F70004B6E1A0E29ECEEF0000E146E640E136EEA
:103F80006CECE7F0000E136E000E5DECEEF0C980F5
:103F90003F50D8B4CEEF9FF0D0EF9FF0C8EF9FF026
:103FA0000E013885000E136E0F0E5DECEEF0010E63
:103FB000146EF40E136E6CECE7F012003E50D8B4A1
:103FC000E4EF9FF0E6EF9FF02CEFA5F03A503B10A6
:103FD000D8A4EDEF9FF0EFEF9FF02CEFA5F00001DC
:103FE000B051D8A4F6EF9FF0F8EF9FF02CEFA5F0BA
:103FF000AA51D8A4FEEF9FF000EFA0F02CEFA5F09F
:10400000AD51D8A406EFA0F008EFA0F02CEFA5F07A
:10401000AF51D8A40EEFA0F010EFA0F02CEFA5F058
:104020006C512D0DF10EF324D96E090EF420DA6EC9
:10403000DE04D8A41EEFA0F020EFA0F03EEFA2F027
:104040006C512D0DF30EF324D96E090EF420DA6EA7
:10405000DF50D8B42EEFA0F030EFA0F03EEFA2F08A
:104060006C512D0DEE0EF324D96E090EF420DA6E8C
:10407000DE04D8A43EEFA0F040EFA0F03EEFA2F0A7
:10408000000E146E640E136E6CECE7F08E8C2BEE4B
:104090005AF0DF50D8A44FEFA0F051EFA0F050EF4E
:1040A000A1F02BEE87F0DF50D8A459EFA0F05BEF22
:1040B000A0F050EFA1F02BEEB4F0DF50D8A463EFE6
:1040C000A0F065EFA0F050EFA1F02BEEE1F0DF5093
:1040D000D8A46DEFA0F06FEFA0F050EFA1F0000EAC
:1040E0000001916F000E906F000E8F6F000E8E6FAB
:1040F000000E8D6F000E8C6F000E8B6F000E8A6F9E
:10410000000E816F000E806F000E7F6F000E7E6FBD
:10411000000E7D6F000E7C6F000E7B6F000E7A6FBD
:10412000000EC86F000EC76F000EC66F000EC56F81
:104130006C512D0DD20EF324D96E090EF420DA6ED7
:10414000DECF98F0DDCF99F06C512D0DD40EF32415
:10415000D96E090EF420DA6EDECF96F0DDCF97F03F
:104160006C512D0DD60EF324D96E090EF420DA6EA3
:10417000DECF94F0DDCF95F06C512D0DD80EF324E9
:10418000D96E090EF420DA6EDECF92F0DDCF93F017
:104190006C512D0DDA0EF324D96E090EF420DA6E6F
:1041A000DECF88F0DDCF89F06C512D0DDC0EF324CD
:1041B000D96E090EF420DA6EDECF86F0DDCF87F0FF
:1041C0006C512D0DDE0EF324D96E090EF420DA6E3B
:1041D000DECF84F0DDCF85F06C512D0DE00EF324A1
:1041E000D96E090EF420DA6EDECF82F0DDCF83F0D7
:1041F0006C512D0DE20EF324D96E090EF420DA6E07
:10420000DF50CC6F6C512D0DE30EF324D96E090EE7
:10421000F420DA6EDF50CB6F6C512D0DE40EF324D9
:10422000D96E090EF420DA6EDF50CA6F6C512D0D75
:10423000E50EF324D96E090EF420DA6EDF50C96F53
:1042400098519911D8B427EFA1F029EFA1F02CEFE4
:10425000A1F08E84904B912B96519711D8B433EFE7
:10426000A1F035EFA1F038EFA1F08E868E4B8F2BA9
:1042700094519511D8B43FEFA1F041EFA1F044EF74
:10428000A1F08E888C4B8D2B92519311D8B44BEFAB
:10429000A1F04DEFA1F050EFA1F08E8A8A4B8B2B4D
:1042A000000E496E68EFA1F06C0E4924D96EDA6AEF
:1042B000000EDA22DF500201FA6FFA512D0DEE0ED8
:1042C000F324D96E090EF420DA6E020EDF6E492A4D
:1042D0006C0E4924D96EDA6A000EDA22DE28D8B4D0
:1042E00074EFA1F076EFA1F07EEFA1F00B0E496420
:1042F0007CEFA1F07EEFA1F054EFA1F000016C5132
:104300002D0DF40EF324D96E090EF420DA6EDF5071
:10431000D8B48DEFA1F08FEFA1F0C9EFA1F0000E9E
:10432000496EA7EFA1F06C0E4924D96EDA6A000E2F
:10433000DA22DF500201FA6FFA512D0DF40EF32448
:10434000D96E090EF420DA6E000EDF6E492A6C0E6B
:104350004924D96EDA6A000EDA22DE28D8B4B3EF27
:10436000A1F0B5EFA1F0BDEFA1F00B0E4964BBEFDA
:10437000A1F0BDEFA1F093EFA1F000ECE5F01DC0BE
:104380009CF01EC09DF09CC03AF09DC03BF0D5EF64
:10439000A1F06C512D0DD00EF324D96E090EF4202E
:1043A000DA6EDECF3AF0DDCF3BF0000E496E12EF51
:1043B000A2F0000E146E640E136E6CECE7F06C0E3F
:1043C0004924D96EDA6A000EDA22DF500201FA6F50
:1043D000FA51020DC80EF324F66EF30EF420F76EB8
:1043E000F86A000EF8220900F5CF1BF00A00F5CF9D
:1043F0001CF06C0E4924D96EDA6A000EDA22DF5006
:10440000FB6FFB512D0DC80EF3241D6E090EF42019
:104410001E6EDAECE6F0000E146E640E136E6CEC99
:10442000E7F0492A6C0E4924D96EDA6A000EDA22C6
:10443000DE28D8B41EEFA2F020EFA2F028EFA2F001
:104440000B0E496426EFA2F028EFA2F0D9EFA1F0FD
:1044500076ECE8F0000E146E640E136E6CECE7F070
:10446000BF0E2B6EFC0E2C6EE10E2D6E000E2E6E0E
:104470000B0E2F6ED7EC96F0CDEFA7F06C512D0DF3
:10448000F10EF324D96E090EF420DA6EDE04D8A4FE
:104490004CEFA2F04EEFA2F093EFA3F06C512D0D74
:1044A000F30EF324D96E090EF420DA6EDF50D8B47F
:1044B0005CEFA2F05EEFA2F093EFA3F06C512D0D34
:1044C000EE0EF324D96E090EF420DA6E020EDE1819
:1044D000D8A46DEFA2F06FEFA2F093EFA3F0000E5F
:1044E000146E640E136E6CECE7F08E9C2BEE5AF09B
:1044F000DF50D8A47EEFA2F080EFA2F0A2EFA2F0EE
:104500002BEE87F0DF50D8A488EFA2F08AEFA2F05C
:10451000A2EFA2F02BEEB4F0DF50D8A492EFA2F0FD
:1045200094EFA2F0A2EFA2F02BEEE1F0DF50D8A4BE
:104530009CEFA2F09EEFA2F0A2EFA2F08E948E96D6
:104540008E988E9A000E496E2DEFA3F06C0E4924C2
:10455000D96EDA6A000EDA22DF500201FA6FFA51E0
:104560002D0DEE0EF324D96E090EF420DA6E030E33
:10457000DF6E6C0E4924D96EDA6A000EDA22DF5043
:10458000FA6FFA512D0DEC0EF324D96E090EF420BA
:10459000DA6EDF066C0E4924D96EDA6A000EDA2272
:1045A000DF50FA6FFA512D0DEC0EF324D96E090E7F
:1045B000F420DA6EDF50D8A4E0EFA2F0E2EFA2F030
:1045C000F4EFA2F06C0E4924D96EDA6A000EDA22FA
:1045D000DF50FA6FFA512D0DF30EF324D96E090E48
:1045E000F420DA6E000EDF6E000E146E640E136E91
:1045F0006CECE7F06C0E4924D96EDA6A000EDA2210
:10460000DF500201FA6FFA51020DC80EF324F66E64
:10461000F30EF420F76EF86A000EF8220900F5CFC9
:104620001BF00A00F5CF1CF06C0E4924D96EDA6A33
:10463000000EDA22DF50FB6FFB512D0DC80EF32464
:104640001D6E090EF4201E6E15ECC1F0000E146EE6
:10465000640E136E6CECE7F0492A6C0E4924D96E97
:10466000DA6A000EDA22DE28D8B439EFA3F03BEF85
:10467000A3F043EFA3F00B0E496441EFA3F043EF27
:10468000A3F0A6EFA2F000016C512D0DCC0EF32487
:10469000D96E090EF420DA6EDECFFAF2DDCFFBF22E
:1046A0006C512D0DD00EF324D96E090EF420DA6E64
:1046B000DECFFCF2DDCFFDF26C512D0DCE0EF324DA
:1046C000D96E090EF420DA6EDECFFEF2DDCFFFF2F6
:1046D0000201FE1FFF1FFE4BFF2BFC51FE5FFD5131
:1046E000FF5BFA51FE253A6EFB51FF213B6E000E37
:1046F000146E640E136E6CECE7F076ECE8F0000ECE
:10470000146E640E136E6CECE7F0A00E2B6EFC0EB4
:104710002C6EE10E2D6E000E2E6E0B0E2F6ED7EC52
:1047200096F0CDEFA7F06C512D0DF10EF324D96E5C
:10473000090EF420DA6EDE04D8A4A1EFA3F0A3EFF3
:10474000A3F02AEFA5F0000E496EB0EFA3F0600EC3
:104750004924D96EDA6A000EDA22FF0EDF6E492A8A
:104760000B0E4964B6EFA3F0B8EFA3F0A7EFA3F0E8
:10477000000E496EF9EFA4F06C0E4924D96EDA6A86
:10478000000EDA22DF500201FA6FFA512D0DF10E00
:10479000F324D96E090EF420DA6E000EDF6E6C0E73
:1047A0004924D96EDA6A000EDA22600E4924E16EDD
:1047B000E26A000EE222DFCFE7FF6C0E4924D96ED9
:1047C000DA6A000EDA22DF50FA6FFA512D0DEF0E81
:1047D000F324D96E090EF420DA6E6C0E4924E16ED2
:1047E000E26A000EE222E750FC6FFC512D0DF00E44
:1047F000F324E16E090EF420E26EDE50E618D8A430
:1048000004EFA4F006EFA4F01AEFA4F06C0E492414
:10481000D96EDA6A000EDA22DF50FA6FFA512D0DE6
:10482000F00EF324D96E090EF420DA6E010EDF6E5D
:104830002BEFA4F06C0E4924D96EDA6A000EDA224E
:10484000DF50FA6FFA512D0DF00EF324D96E090ED8
